{
  "_format": "hh-sol-artifact-1",
  "contractName": "DataSpotting",
  "sourceName": "contracts/worksystems/DataSpotting.sol",
  "abi": [
    {
      "inputs": [
        {
          "internalType": "address",
          "name": "EXDT_token",
          "type": "address"
        }
      ],
      "stateMutability": "nonpayable",
      "type": "constructor"
    },
    {
      "anonymous": false,
      "inputs": [
        {
          "indexed": false,
          "internalType": "bytes",
          "name": "bytesFailure",
          "type": "bytes"
        }
      ],
      "name": "BytesFailure",
      "type": "event"
    },
    {
      "anonymous": false,
      "inputs": [
        {
          "indexed": true,
          "internalType": "address",
          "name": "previousOwner",
          "type": "address"
        },
        {
          "indexed": true,
          "internalType": "address",
          "name": "newOwner",
          "type": "address"
        }
      ],
      "name": "OwnershipTransferred",
      "type": "event"
    },
    {
      "anonymous": false,
      "inputs": [
        {
          "indexed": true,
          "internalType": "uint256",
          "name": "epochNumber",
          "type": "uint256"
        }
      ],
      "name": "_NewEpoch",
      "type": "event"
    },
    {
      "anonymous": false,
      "inputs": [
        {
          "indexed": false,
          "internalType": "string",
          "name": "hash",
          "type": "string"
        },
        {
          "indexed": true,
          "internalType": "address",
          "name": "creator",
          "type": "address"
        }
      ],
      "name": "_SpotAccepted",
      "type": "event"
    },
    {
      "anonymous": false,
      "inputs": [
        {
          "indexed": true,
          "internalType": "uint256",
          "name": "DataID",
          "type": "uint256"
        },
        {
          "indexed": false,
          "internalType": "uint256",
          "name": "numTokens",
          "type": "uint256"
        },
        {
          "indexed": true,
          "internalType": "address",
          "name": "voter",
          "type": "address"
        }
      ],
      "name": "_SpotCheckCommitted",
      "type": "event"
    },
    {
      "anonymous": false,
      "inputs": [
        {
          "indexed": true,
          "internalType": "uint256",
          "name": "DataID",
          "type": "uint256"
        },
        {
          "indexed": false,
          "internalType": "uint256",
          "name": "numTokens",
          "type": "uint256"
        },
        {
          "indexed": false,
          "internalType": "uint256",
          "name": "votesFor",
          "type": "uint256"
        },
        {
          "indexed": false,
          "internalType": "uint256",
          "name": "votesAgainst",
          "type": "uint256"
        },
        {
          "indexed": true,
          "internalType": "uint256",
          "name": "choice",
          "type": "uint256"
        },
        {
          "indexed": true,
          "internalType": "address",
          "name": "voter",
          "type": "address"
        }
      ],
      "name": "_SpotCheckRevealed",
      "type": "event"
    },
    {
      "anonymous": false,
      "inputs": [
        {
          "indexed": true,
          "internalType": "uint256",
          "name": "DataID",
          "type": "uint256"
        },
        {
          "indexed": false,
          "internalType": "string",
          "name": "file_hash",
          "type": "string"
        },
        {
          "indexed": false,
          "internalType": "string",
          "name": "URL_domain",
          "type": "string"
        },
        {
          "indexed": false,
          "internalType": "string[]",
          "name": "tags",
          "type": "string[]"
        },
        {
          "indexed": true,
          "internalType": "address",
          "name": "sender",
          "type": "address"
        }
      ],
      "name": "_SpotSubmitted",
      "type": "event"
    },
    {
      "anonymous": false,
      "inputs": [
        {
          "indexed": true,
          "internalType": "uint256",
          "name": "DataID",
          "type": "uint256"
        },
        {
          "indexed": true,
          "internalType": "address",
          "name": "voter",
          "type": "address"
        }
      ],
      "name": "_TokensRescued",
      "type": "event"
    },
    {
      "anonymous": false,
      "inputs": [
        {
          "indexed": false,
          "internalType": "uint256",
          "name": "numTokens",
          "type": "uint256"
        },
        {
          "indexed": true,
          "internalType": "address",
          "name": "voter",
          "type": "address"
        }
      ],
      "name": "_VotingRightsGranted",
      "type": "event"
    },
    {
      "anonymous": false,
      "inputs": [
        {
          "indexed": false,
          "internalType": "uint256",
          "name": "numTokens",
          "type": "uint256"
        },
        {
          "indexed": true,
          "internalType": "address",
          "name": "voter",
          "type": "address"
        }
      ],
      "name": "_VotingRightsWithdrawn",
      "type": "event"
    },
    {
      "anonymous": false,
      "inputs": [
        {
          "indexed": true,
          "internalType": "uint256",
          "name": "batchID",
          "type": "uint256"
        },
        {
          "indexed": false,
          "internalType": "address",
          "name": "worker",
          "type": "address"
        }
      ],
      "name": "_WorkAllocated",
      "type": "event"
    },
    {
      "anonymous": false,
      "inputs": [
        {
          "indexed": true,
          "internalType": "address",
          "name": "worker",
          "type": "address"
        },
        {
          "indexed": false,
          "internalType": "uint256",
          "name": "timestamp",
          "type": "uint256"
        }
      ],
      "name": "_WorkerRegistered",
      "type": "event"
    },
    {
      "anonymous": false,
      "inputs": [
        {
          "indexed": true,
          "internalType": "address",
          "name": "worker",
          "type": "address"
        },
        {
          "indexed": false,
          "internalType": "uint256",
          "name": "timestamp",
          "type": "uint256"
        }
      ],
      "name": "_WorkerUnregistered",
      "type": "event"
    },
    {
      "inputs": [],
      "name": "AddressManager",
      "outputs": [
        {
          "internalType": "contract IAddressManager",
          "name": "",
          "type": "address"
        }
      ],
      "stateMutability": "view",
      "type": "function"
    },
    {
      "inputs": [],
      "name": "AllTxsCounter",
      "outputs": [
        {
          "internalType": "uint256",
          "name": "",
          "type": "uint256"
        }
      ],
      "stateMutability": "view",
      "type": "function"
    },
    {
      "inputs": [],
      "name": "AllocateWork",
      "outputs": [],
      "stateMutability": "nonpayable",
      "type": "function"
    },
    {
      "inputs": [],
      "name": "AmIRegistered",
      "outputs": [
        {
          "internalType": "bool",
          "name": "passed",
          "type": "bool"
        }
      ],
      "stateMutability": "view",
      "type": "function"
    },
    {
      "inputs": [
        {
          "internalType": "string",
          "name": "_a",
          "type": "string"
        },
        {
          "internalType": "string",
          "name": "_b",
          "type": "string"
        }
      ],
      "name": "AreStringsEqual",
      "outputs": [
        {
          "internalType": "bool",
          "name": "",
          "type": "bool"
        }
      ],
      "stateMutability": "pure",
      "type": "function"
    },
    {
      "inputs": [],
      "name": "BatchCheckingCursor",
      "outputs": [
        {
          "internalType": "uint256",
          "name": "",
          "type": "uint256"
        }
      ],
      "stateMutability": "view",
      "type": "function"
    },
    {
      "inputs": [],
      "name": "COMMIT_ROUND_DURATION",
      "outputs": [
        {
          "internalType": "uint256",
          "name": "",
          "type": "uint256"
        }
      ],
      "stateMutability": "view",
      "type": "function"
    },
    {
      "inputs": [],
      "name": "CurrentWorkEpoch",
      "outputs": [
        {
          "internalType": "uint256",
          "name": "",
          "type": "uint256"
        }
      ],
      "stateMutability": "view",
      "type": "function"
    },
    {
      "inputs": [
        {
          "internalType": "uint256",
          "name": "",
          "type": "uint256"
        }
      ],
      "name": "DataBatch",
      "outputs": [
        {
          "internalType": "uint256",
          "name": "start_idx",
          "type": "uint256"
        },
        {
          "internalType": "uint256",
          "name": "end_idx",
          "type": "uint256"
        },
        {
          "internalType": "uint256",
          "name": "counter",
          "type": "uint256"
        },
        {
          "internalType": "uint256",
          "name": "unrevealed_workers",
          "type": "uint256"
        },
        {
          "internalType": "bool",
          "name": "complete",
          "type": "bool"
        },
        {
          "internalType": "bool",
          "name": "checked",
          "type": "bool"
        },
        {
          "internalType": "bool",
          "name": "allocated_to_work",
          "type": "bool"
        },
        {
          "internalType": "uint256",
          "name": "commitEndDate",
          "type": "uint256"
        },
        {
          "internalType": "uint256",
          "name": "revealEndDate",
          "type": "uint256"
        },
        {
          "internalType": "uint256",
          "name": "votesFor",
          "type": "uint256"
        },
        {
          "internalType": "uint256",
          "name": "votesAgainst",
          "type": "uint256"
        },
        {
          "internalType": "string",
          "name": "batchIPFSfile",
          "type": "string"
        },
        {
          "internalType": "enum DataSpotting.DataStatus",
          "name": "status",
          "type": "uint8"
        }
      ],
      "stateMutability": "view",
      "type": "function"
    },
    {
      "inputs": [
        {
          "internalType": "uint256",
          "name": "_DataBatchId",
          "type": "uint256"
        }
      ],
      "name": "DataCommitEndDate",
      "outputs": [
        {
          "internalType": "uint256",
          "name": "commitEndDate",
          "type": "uint256"
        }
      ],
      "stateMutability": "view",
      "type": "function"
    },
    {
      "inputs": [
        {
          "internalType": "uint256",
          "name": "_DataBatchId",
          "type": "uint256"
        }
      ],
      "name": "DataEnded",
      "outputs": [
        {
          "internalType": "bool",
          "name": "ended",
          "type": "bool"
        }
      ],
      "stateMutability": "view",
      "type": "function"
    },
    {
      "inputs": [
        {
          "internalType": "uint256",
          "name": "_DataBatchId",
          "type": "uint256"
        }
      ],
      "name": "DataExists",
      "outputs": [
        {
          "internalType": "bool",
          "name": "exists",
          "type": "bool"
        }
      ],
      "stateMutability": "view",
      "type": "function"
    },
    {
      "inputs": [],
      "name": "DataNonce",
      "outputs": [
        {
          "internalType": "uint256",
          "name": "",
          "type": "uint256"
        }
      ],
      "stateMutability": "view",
      "type": "function"
    },
    {
      "inputs": [
        {
          "internalType": "uint256",
          "name": "_DataBatchId",
          "type": "uint256"
        }
      ],
      "name": "DataRevealEndDate",
      "outputs": [
        {
          "internalType": "uint256",
          "name": "revealEndDate",
          "type": "uint256"
        }
      ],
      "stateMutability": "view",
      "type": "function"
    },
    {
      "inputs": [],
      "name": "FormattingSystem",
      "outputs": [
        {
          "internalType": "contract IFormattingSystem",
          "name": "",
          "type": "address"
        }
      ],
      "stateMutability": "view",
      "type": "function"
    },
    {
      "inputs": [
        {
          "internalType": "address",
          "name": "user_",
          "type": "address"
        }
      ],
      "name": "GetCurrentWork",
      "outputs": [
        {
          "internalType": "uint256",
          "name": "",
          "type": "uint256"
        }
      ],
      "stateMutability": "view",
      "type": "function"
    },
    {
      "inputs": [
        {
          "internalType": "address",
          "name": "user_",
          "type": "address"
        }
      ],
      "name": "IsNewWorkAvailable",
      "outputs": [
        {
          "internalType": "bool",
          "name": "",
          "type": "bool"
        }
      ],
      "stateMutability": "view",
      "type": "function"
    },
    {
      "inputs": [],
      "name": "LastBatchCounter",
      "outputs": [
        {
          "internalType": "uint256",
          "name": "",
          "type": "uint256"
        }
      ],
      "stateMutability": "view",
      "type": "function"
    },
    {
      "inputs": [],
      "name": "MIN_PARTICIPANTS_FOR_VALIDITY",
      "outputs": [
        {
          "internalType": "uint256",
          "name": "",
          "type": "uint256"
        }
      ],
      "stateMutability": "view",
      "type": "function"
    },
    {
      "inputs": [],
      "name": "MIN_REP_Data",
      "outputs": [
        {
          "internalType": "uint256",
          "name": "",
          "type": "uint256"
        }
      ],
      "stateMutability": "view",
      "type": "function"
    },
    {
      "inputs": [],
      "name": "MIN_REP_REVEAL",
      "outputs": [
        {
          "internalType": "uint256",
          "name": "",
          "type": "uint256"
        }
      ],
      "stateMutability": "view",
      "type": "function"
    },
    {
      "inputs": [],
      "name": "MIN_REWARD_Data",
      "outputs": [
        {
          "internalType": "uint256",
          "name": "",
          "type": "uint256"
        }
      ],
      "stateMutability": "view",
      "type": "function"
    },
    {
      "inputs": [],
      "name": "MIN_STAKE",
      "outputs": [
        {
          "internalType": "uint256",
          "name": "",
          "type": "uint256"
        }
      ],
      "stateMutability": "view",
      "type": "function"
    },
    {
      "inputs": [
        {
          "internalType": "address",
          "name": "",
          "type": "address"
        },
        {
          "internalType": "uint256",
          "name": "",
          "type": "uint256"
        }
      ],
      "name": "MasterWorkers",
      "outputs": [
        {
          "internalType": "address",
          "name": "",
          "type": "address"
        }
      ],
      "stateMutability": "view",
      "type": "function"
    },
    {
      "inputs": [],
      "name": "REVEAL_ROUND_DURATION",
      "outputs": [
        {
          "internalType": "uint256",
          "name": "",
          "type": "uint256"
        }
      ],
      "stateMutability": "view",
      "type": "function"
    },
    {
      "inputs": [],
      "name": "RegisterWorker",
      "outputs": [],
      "stateMutability": "nonpayable",
      "type": "function"
    },
    {
      "inputs": [],
      "name": "RepManager",
      "outputs": [
        {
          "internalType": "contract IRepManager",
          "name": "",
          "type": "address"
        }
      ],
      "stateMutability": "view",
      "type": "function"
    },
    {
      "inputs": [],
      "name": "RewardManager",
      "outputs": [
        {
          "internalType": "contract IRewardManager",
          "name": "",
          "type": "address"
        }
      ],
      "stateMutability": "view",
      "type": "function"
    },
    {
      "inputs": [],
      "name": "SPOT_CHECK_VOTE_QUORUM",
      "outputs": [
        {
          "internalType": "uint256",
          "name": "",
          "type": "uint256"
        }
      ],
      "stateMutability": "view",
      "type": "function"
    },
    {
      "inputs": [
        {
          "internalType": "string[]",
          "name": "file_hashs",
          "type": "string[]"
        },
        {
          "internalType": "address",
          "name": "main_worker_account",
          "type": "address"
        },
        {
          "internalType": "string[]",
          "name": "URL_domains",
          "type": "string[]"
        },
        {
          "internalType": "string[]",
          "name": "tags_",
          "type": "string[]"
        },
        {
          "internalType": "uint256[]",
          "name": "tags_id_",
          "type": "uint256[]"
        },
        {
          "internalType": "string",
          "name": "extra_",
          "type": "string"
        }
      ],
      "name": "SpotData",
      "outputs": [
        {
          "internalType": "uint256",
          "name": "Dataid_",
          "type": "uint256"
        }
      ],
      "stateMutability": "nonpayable",
      "type": "function"
    },
    {
      "inputs": [
        {
          "internalType": "address",
          "name": "",
          "type": "address"
        }
      ],
      "name": "SpotStakedTokenBalance",
      "outputs": [
        {
          "internalType": "uint256",
          "name": "",
          "type": "uint256"
        }
      ],
      "stateMutability": "view",
      "type": "function"
    },
    {
      "inputs": [
        {
          "internalType": "uint256",
          "name": "",
          "type": "uint256"
        }
      ],
      "name": "SpotsMapping",
      "outputs": [
        {
          "internalType": "string",
          "name": "ipfs_hash",
          "type": "string"
        },
        {
          "internalType": "address",
          "name": "author",
          "type": "address"
        },
        {
          "internalType": "uint256",
          "name": "timestamp",
          "type": "uint256"
        },
        {
          "internalType": "string",
          "name": "URL_domain",
          "type": "string"
        },
        {
          "internalType": "string",
          "name": "extra",
          "type": "string"
        },
        {
          "internalType": "enum DataSpotting.DataStatus",
          "name": "status",
          "type": "uint8"
        }
      ],
      "stateMutability": "view",
      "type": "function"
    },
    {
      "inputs": [],
      "name": "StakeManager",
      "outputs": [
        {
          "internalType": "contract IStakeManager",
          "name": "",
          "type": "address"
        }
      ],
      "stateMutability": "view",
      "type": "function"
    },
    {
      "inputs": [],
      "name": "TriggerNextEpoch",
      "outputs": [],
      "stateMutability": "nonpayable",
      "type": "function"
    },
    {
      "inputs": [],
      "name": "UnregisterWorker",
      "outputs": [],
      "stateMutability": "nonpayable",
      "type": "function"
    },
    {
      "inputs": [
        {
          "internalType": "address",
          "name": "",
          "type": "address"
        },
        {
          "internalType": "uint256",
          "name": "",
          "type": "uint256"
        }
      ],
      "name": "UserChecksCommits",
      "outputs": [
        {
          "internalType": "bool",
          "name": "",
          "type": "bool"
        }
      ],
      "stateMutability": "view",
      "type": "function"
    },
    {
      "inputs": [
        {
          "internalType": "address",
          "name": "",
          "type": "address"
        },
        {
          "internalType": "uint256",
          "name": "",
          "type": "uint256"
        }
      ],
      "name": "UserChecksReveals",
      "outputs": [
        {
          "internalType": "bool",
          "name": "",
          "type": "bool"
        }
      ],
      "stateMutability": "view",
      "type": "function"
    },
    {
      "inputs": [
        {
          "internalType": "uint256",
          "name": "",
          "type": "uint256"
        },
        {
          "internalType": "address",
          "name": "",
          "type": "address"
        }
      ],
      "name": "UserNewFiles",
      "outputs": [
        {
          "internalType": "string",
          "name": "",
          "type": "string"
        }
      ],
      "stateMutability": "view",
      "type": "function"
    },
    {
      "inputs": [
        {
          "internalType": "uint256",
          "name": "",
          "type": "uint256"
        },
        {
          "internalType": "address",
          "name": "",
          "type": "address"
        }
      ],
      "name": "UserVotes",
      "outputs": [
        {
          "internalType": "uint256",
          "name": "",
          "type": "uint256"
        }
      ],
      "stateMutability": "view",
      "type": "function"
    },
    {
      "inputs": [
        {
          "internalType": "uint256",
          "name": "_DataBatchId",
          "type": "uint256"
        }
      ],
      "name": "ValidateDataBatch",
      "outputs": [],
      "stateMutability": "nonpayable",
      "type": "function"
    },
    {
      "inputs": [
        {
          "internalType": "uint256",
          "name": "",
          "type": "uint256"
        },
        {
          "internalType": "uint256",
          "name": "",
          "type": "uint256"
        }
      ],
      "name": "WorkersPerBatch",
      "outputs": [
        {
          "internalType": "address",
          "name": "",
          "type": "address"
        }
      ],
      "stateMutability": "view",
      "type": "function"
    },
    {
      "inputs": [
        {
          "internalType": "address",
          "name": "",
          "type": "address"
        }
      ],
      "name": "WorkersState",
      "outputs": [
        {
          "internalType": "address",
          "name": "worker_address",
          "type": "address"
        },
        {
          "internalType": "address",
          "name": "master_address",
          "type": "address"
        },
        {
          "internalType": "uint256",
          "name": "allocated_work_batch",
          "type": "uint256"
        },
        {
          "internalType": "bool",
          "name": "has_completed_work",
          "type": "bool"
        },
        {
          "internalType": "uint256",
          "name": "last_worked_round",
          "type": "uint256"
        },
        {
          "internalType": "uint256",
          "name": "last_interaction_date",
          "type": "uint256"
        },
        {
          "internalType": "string",
          "name": "extra",
          "type": "string"
        },
        {
          "internalType": "bool",
          "name": "registered",
          "type": "bool"
        },
        {
          "internalType": "uint256",
          "name": "registration_date",
          "type": "uint256"
        }
      ],
      "stateMutability": "view",
      "type": "function"
    },
    {
      "inputs": [
        {
          "internalType": "address",
          "name": "_user",
          "type": "address"
        },
        {
          "internalType": "uint256",
          "name": "_DataBatchId",
          "type": "uint256"
        }
      ],
      "name": "attrUUID",
      "outputs": [
        {
          "internalType": "bytes32",
          "name": "UUID",
          "type": "bytes32"
        }
      ],
      "stateMutability": "pure",
      "type": "function"
    },
    {
      "inputs": [
        {
          "internalType": "uint256",
          "name": "",
          "type": "uint256"
        }
      ],
      "name": "availableWorkers",
      "outputs": [
        {
          "internalType": "address",
          "name": "",
          "type": "address"
        }
      ],
      "stateMutability": "view",
      "type": "function"
    },
    {
      "inputs": [
        {
          "internalType": "uint256",
          "name": "",
          "type": "uint256"
        }
      ],
      "name": "busyWorkers",
      "outputs": [
        {
          "internalType": "address",
          "name": "",
          "type": "address"
        }
      ],
      "stateMutability": "view",
      "type": "function"
    },
    {
      "inputs": [
        {
          "internalType": "uint256",
          "name": "_DataBatchId",
          "type": "uint256"
        }
      ],
      "name": "commitPeriodActive",
      "outputs": [
        {
          "internalType": "bool",
          "name": "active",
          "type": "bool"
        }
      ],
      "stateMutability": "view",
      "type": "function"
    },
    {
      "inputs": [
        {
          "internalType": "uint256",
          "name": "_DataBatchId",
          "type": "uint256"
        },
        {
          "internalType": "bytes32",
          "name": "_secretHash",
          "type": "bytes32"
        },
        {
          "internalType": "string",
          "name": "newIPFSHash",
          "type": "string"
        }
      ],
      "name": "commitSpotCheck",
      "outputs": [],
      "stateMutability": "nonpayable",
      "type": "function"
    },
    {
      "inputs": [
        {
          "internalType": "uint256[]",
          "name": "_DataBatchIDs",
          "type": "uint256[]"
        },
        {
          "internalType": "bytes32[]",
          "name": "_secretHashes",
          "type": "bytes32[]"
        },
        {
          "internalType": "string[]",
          "name": "_newIPFSHash",
          "type": "string[]"
        }
      ],
      "name": "commitSpotChecks",
      "outputs": [],
      "stateMutability": "nonpayable",
      "type": "function"
    },
    {
      "inputs": [
        {
          "internalType": "address",
          "name": "_voter",
          "type": "address"
        },
        {
          "internalType": "uint256",
          "name": "_DataBatchId",
          "type": "uint256"
        }
      ],
      "name": "didCommit",
      "outputs": [
        {
          "internalType": "bool",
          "name": "committed",
          "type": "bool"
        }
      ],
      "stateMutability": "view",
      "type": "function"
    },
    {
      "inputs": [
        {
          "internalType": "address",
          "name": "_voter",
          "type": "address"
        },
        {
          "internalType": "uint256",
          "name": "_DataBatchId",
          "type": "uint256"
        }
      ],
      "name": "didReveal",
      "outputs": [
        {
          "internalType": "bool",
          "name": "revealed",
          "type": "bool"
        }
      ],
      "stateMutability": "view",
      "type": "function"
    },
    {
      "inputs": [
        {
          "internalType": "uint256",
          "name": "_k",
          "type": "uint256"
        },
        {
          "internalType": "uint256",
          "name": "N_range",
          "type": "uint256"
        }
      ],
      "name": "generateIntegers",
      "outputs": [
        {
          "internalType": "uint256[]",
          "name": "",
          "type": "uint256[]"
        }
      ],
      "stateMutability": "view",
      "type": "function"
    },
    {
      "inputs": [],
      "name": "getActiveWorkersCount",
      "outputs": [
        {
          "internalType": "uint256",
          "name": "numWorkers",
          "type": "uint256"
        }
      ],
      "stateMutability": "view",
      "type": "function"
    },
    {
      "inputs": [
        {
          "internalType": "uint256",
          "name": "_DataBatchId",
          "type": "uint256"
        }
      ],
      "name": "getBatchByID",
      "outputs": [
        {
          "components": [
            {
              "internalType": "uint256",
              "name": "start_idx",
              "type": "uint256"
            },
            {
              "internalType": "uint256",
              "name": "end_idx",
              "type": "uint256"
            },
            {
              "internalType": "uint256",
              "name": "counter",
              "type": "uint256"
            },
            {
              "internalType": "uint256",
              "name": "unrevealed_workers",
              "type": "uint256"
            },
            {
              "internalType": "bool",
              "name": "complete",
              "type": "bool"
            },
            {
              "internalType": "bool",
              "name": "checked",
              "type": "bool"
            },
            {
              "internalType": "bool",
              "name": "allocated_to_work",
              "type": "bool"
            },
            {
              "internalType": "uint256",
              "name": "commitEndDate",
              "type": "uint256"
            },
            {
              "internalType": "uint256",
              "name": "revealEndDate",
              "type": "uint256"
            },
            {
              "internalType": "uint256",
              "name": "votesFor",
              "type": "uint256"
            },
            {
              "internalType": "uint256",
              "name": "votesAgainst",
              "type": "uint256"
            },
            {
              "internalType": "string",
              "name": "batchIPFSfile",
              "type": "string"
            },
            {
              "internalType": "enum DataSpotting.DataStatus",
              "name": "status",
              "type": "uint8"
            },
            {
              "internalType": "string[]",
              "name": "flags",
              "type": "string[]"
            },
            {
              "internalType": "uint256[]",
              "name": "flags_id",
              "type": "uint256[]"
            }
          ],
          "internalType": "struct DataSpotting.BatchMetadata",
          "name": "batch",
          "type": "tuple"
        }
      ],
      "stateMutability": "view",
      "type": "function"
    },
    {
      "inputs": [
        {
          "internalType": "uint256",
          "name": "_DataBatchId",
          "type": "uint256"
        }
      ],
      "name": "getBatchIPFSFileByID",
      "outputs": [
        {
          "internalType": "string",
          "name": "batch",
          "type": "string"
        }
      ],
      "stateMutability": "view",
      "type": "function"
    },
    {
      "inputs": [],
      "name": "getBlockTimestamp",
      "outputs": [
        {
          "internalType": "uint256",
          "name": "blocktimestamp",
          "type": "uint256"
        }
      ],
      "stateMutability": "view",
      "type": "function"
    },
    {
      "inputs": [
        {
          "internalType": "address",
          "name": "_voter",
          "type": "address"
        },
        {
          "internalType": "uint256",
          "name": "_DataBatchId",
          "type": "uint256"
        }
      ],
      "name": "getCommitHash",
      "outputs": [
        {
          "internalType": "bytes32",
          "name": "commitHash",
          "type": "bytes32"
        }
      ],
      "stateMutability": "view",
      "type": "function"
    },
    {
      "inputs": [],
      "name": "getCurrentWorkEpoch",
      "outputs": [
        {
          "internalType": "uint256",
          "name": "WorkEpoch",
          "type": "uint256"
        }
      ],
      "stateMutability": "view",
      "type": "function"
    },
    {
      "inputs": [
        {
          "internalType": "uint256",
          "name": "_DataId",
          "type": "uint256"
        }
      ],
      "name": "getDataByID",
      "outputs": [
        {
          "components": [
            {
              "internalType": "string",
              "name": "ipfs_hash",
              "type": "string"
            },
            {
              "internalType": "address",
              "name": "author",
              "type": "address"
            },
            {
              "internalType": "uint256",
              "name": "timestamp",
              "type": "uint256"
            },
            {
              "internalType": "string",
              "name": "URL_domain",
              "type": "string"
            },
            {
              "internalType": "string[]",
              "name": "tags",
              "type": "string[]"
            },
            {
              "internalType": "uint256[]",
              "name": "tags_id",
              "type": "uint256[]"
            },
            {
              "internalType": "string",
              "name": "extra",
              "type": "string"
            },
            {
              "internalType": "enum DataSpotting.DataStatus",
              "name": "status",
              "type": "uint8"
            }
          ],
          "internalType": "struct DataSpotting.SpottedData",
          "name": "data",
          "type": "tuple"
        }
      ],
      "stateMutability": "view",
      "type": "function"
    },
    {
      "inputs": [
        {
          "internalType": "uint256",
          "name": "_DataBatchId",
          "type": "uint256"
        }
      ],
      "name": "getDomainsForBatch",
      "outputs": [
        {
          "internalType": "string[]",
          "name": "",
          "type": "string[]"
        }
      ],
      "stateMutability": "view",
      "type": "function"
    },
    {
      "inputs": [
        {
          "internalType": "uint256",
          "name": "_voteOption",
          "type": "uint256"
        },
        {
          "internalType": "uint256",
          "name": "_salt",
          "type": "uint256"
        }
      ],
      "name": "getEncryptedHash",
      "outputs": [
        {
          "internalType": "bytes32",
          "name": "keccak256hash",
          "type": "bytes32"
        }
      ],
      "stateMutability": "pure",
      "type": "function"
    },
    {
      "inputs": [
        {
          "internalType": "uint256",
          "name": "a",
          "type": "uint256"
        },
        {
          "internalType": "uint256",
          "name": "b",
          "type": "uint256"
        }
      ],
      "name": "getHash",
      "outputs": [
        {
          "internalType": "bytes32",
          "name": "keccak256hash",
          "type": "bytes32"
        }
      ],
      "stateMutability": "pure",
      "type": "function"
    },
    {
      "inputs": [
        {
          "internalType": "uint256",
          "name": "_DataBatchId",
          "type": "uint256"
        }
      ],
      "name": "getIPFShashesForBatch",
      "outputs": [
        {
          "internalType": "string[]",
          "name": "",
          "type": "string[]"
        }
      ],
      "stateMutability": "view",
      "type": "function"
    },
    {
      "inputs": [
        {
          "internalType": "address",
          "name": "_voter",
          "type": "address"
        },
        {
          "internalType": "uint256",
          "name": "_numTokens",
          "type": "uint256"
        },
        {
          "internalType": "uint256",
          "name": "_DataBatchId",
          "type": "uint256"
        }
      ],
      "name": "getInsertPointForNumTokens",
      "outputs": [
        {
          "internalType": "uint256",
          "name": "prevNode",
          "type": "uint256"
        }
      ],
      "stateMutability": "view",
      "type": "function"
    },
    {
      "inputs": [],
      "name": "getLastBatchId",
      "outputs": [
        {
          "internalType": "uint256",
          "name": "LastBatchId",
          "type": "uint256"
        }
      ],
      "stateMutability": "view",
      "type": "function"
    },
    {
      "inputs": [],
      "name": "getLastCheckedBatchId",
      "outputs": [
        {
          "internalType": "uint256",
          "name": "LastCheckedBatchId",
          "type": "uint256"
        }
      ],
      "stateMutability": "view",
      "type": "function"
    },
    {
      "inputs": [],
      "name": "getLastDataId",
      "outputs": [
        {
          "internalType": "uint256",
          "name": "DataId",
          "type": "uint256"
        }
      ],
      "stateMutability": "view",
      "type": "function"
    },
    {
      "inputs": [
        {
          "internalType": "address",
          "name": "_voter",
          "type": "address"
        }
      ],
      "name": "getLastNode",
      "outputs": [
        {
          "internalType": "uint256",
          "name": "DataID",
          "type": "uint256"
        }
      ],
      "stateMutability": "view",
      "type": "function"
    },
    {
      "inputs": [
        {
          "internalType": "address",
          "name": "user",
          "type": "address"
        }
      ],
      "name": "getLastUserDataId",
      "outputs": [
        {
          "internalType": "uint256",
          "name": "DataId",
          "type": "uint256"
        }
      ],
      "stateMutability": "view",
      "type": "function"
    },
    {
      "inputs": [
        {
          "internalType": "address",
          "name": "_voter",
          "type": "address"
        }
      ],
      "name": "getLockedTokens",
      "outputs": [
        {
          "internalType": "uint256",
          "name": "numTokens",
          "type": "uint256"
        }
      ],
      "stateMutability": "view",
      "type": "function"
    },
    {
      "inputs": [
        {
          "internalType": "address",
          "name": "_voter",
          "type": "address"
        },
        {
          "internalType": "uint256",
          "name": "_DataBatchId",
          "type": "uint256"
        },
        {
          "internalType": "uint256",
          "name": "_salt",
          "type": "uint256"
        }
      ],
      "name": "getNumPassingTokens",
      "outputs": [
        {
          "internalType": "uint256",
          "name": "correctSpotChecks",
          "type": "uint256"
        }
      ],
      "stateMutability": "view",
      "type": "function"
    },
    {
      "inputs": [
        {
          "internalType": "address",
          "name": "_voter",
          "type": "address"
        },
        {
          "internalType": "uint256",
          "name": "_DataBatchId",
          "type": "uint256"
        }
      ],
      "name": "getNumTokens",
      "outputs": [
        {
          "internalType": "uint256",
          "name": "numTokens",
          "type": "uint256"
        }
      ],
      "stateMutability": "view",
      "type": "function"
    },
    {
      "inputs": [],
      "name": "getRandom",
      "outputs": [
        {
          "internalType": "uint256",
          "name": "",
          "type": "uint256"
        }
      ],
      "stateMutability": "view",
      "type": "function"
    },
    {
      "inputs": [],
      "name": "getSeed",
      "outputs": [
        {
          "internalType": "bytes32",
          "name": "addr",
          "type": "bytes32"
        }
      ],
      "stateMutability": "view",
      "type": "function"
    },
    {
      "inputs": [
        {
          "internalType": "uint256",
          "name": "_DataBatchId",
          "type": "uint256"
        }
      ],
      "name": "getTotalNumberOfSpotChecks",
      "outputs": [
        {
          "internalType": "uint256",
          "name": "vc",
          "type": "uint256"
        }
      ],
      "stateMutability": "view",
      "type": "function"
    },
    {
      "inputs": [
        {
          "internalType": "uint256",
          "name": "_DataBatchId",
          "type": "uint256"
        }
      ],
      "name": "getTotalNumberOfTokensForWinningOption",
      "outputs": [
        {
          "internalType": "uint256",
          "name": "numTokens",
          "type": "uint256"
        }
      ],
      "stateMutability": "view",
      "type": "function"
    },
    {
      "inputs": [],
      "name": "getTxCounter",
      "outputs": [
        {
          "internalType": "uint256",
          "name": "Counter",
          "type": "uint256"
        }
      ],
      "stateMutability": "view",
      "type": "function"
    },
    {
      "inputs": [
        {
          "internalType": "address",
          "name": "user",
          "type": "address"
        }
      ],
      "name": "getUserDatas",
      "outputs": [
        {
          "internalType": "uint256[]",
          "name": "user_Datas",
          "type": "uint256[]"
        }
      ],
      "stateMutability": "view",
      "type": "function"
    },
    {
      "inputs": [
        {
          "internalType": "uint256",
          "name": "_terminationDate",
          "type": "uint256"
        }
      ],
      "name": "isExpired",
      "outputs": [
        {
          "internalType": "bool",
          "name": "expired",
          "type": "bool"
        }
      ],
      "stateMutability": "view",
      "type": "function"
    },
    {
      "inputs": [
        {
          "internalType": "uint256",
          "name": "_DataBatchId",
          "type": "uint256"
        }
      ],
      "name": "isPassed",
      "outputs": [
        {
          "internalType": "bool",
          "name": "passed",
          "type": "bool"
        }
      ],
      "stateMutability": "view",
      "type": "function"
    },
    {
      "inputs": [
        {
          "internalType": "address",
          "name": "_worker",
          "type": "address"
        }
      ],
      "name": "isWorkerRegistered",
      "outputs": [
        {
          "internalType": "bool",
          "name": "passed",
          "type": "bool"
        }
      ],
      "stateMutability": "view",
      "type": "function"
    },
    {
      "inputs": [],
      "name": "owner",
      "outputs": [
        {
          "internalType": "address",
          "name": "",
          "type": "address"
        }
      ],
      "stateMutability": "view",
      "type": "function"
    },
    {
      "inputs": [
        {
          "internalType": "uint256",
          "name": "k",
          "type": "uint256"
        },
        {
          "internalType": "uint256",
          "name": "N",
          "type": "uint256"
        }
      ],
      "name": "random_selection",
      "outputs": [
        {
          "internalType": "uint256[]",
          "name": "",
          "type": "uint256[]"
        }
      ],
      "stateMutability": "view",
      "type": "function"
    },
    {
      "inputs": [],
      "name": "renounceOwnership",
      "outputs": [],
      "stateMutability": "nonpayable",
      "type": "function"
    },
    {
      "inputs": [
        {
          "internalType": "uint256",
          "name": "_numTokens",
          "type": "uint256"
        }
      ],
      "name": "requestVotingRights",
      "outputs": [],
      "stateMutability": "nonpayable",
      "type": "function"
    },
    {
      "inputs": [
        {
          "internalType": "uint256",
          "name": "_DataBatchId",
          "type": "uint256"
        }
      ],
      "name": "rescueTokens",
      "outputs": [],
      "stateMutability": "nonpayable",
      "type": "function"
    },
    {
      "inputs": [
        {
          "internalType": "uint256[]",
          "name": "_DataBatchIDs",
          "type": "uint256[]"
        }
      ],
      "name": "rescueTokensInMultipleDatas",
      "outputs": [],
      "stateMutability": "nonpayable",
      "type": "function"
    },
    {
      "inputs": [
        {
          "internalType": "uint256",
          "name": "_DataBatchId",
          "type": "uint256"
        }
      ],
      "name": "revealPeriodActive",
      "outputs": [
        {
          "internalType": "bool",
          "name": "active",
          "type": "bool"
        }
      ],
      "stateMutability": "view",
      "type": "function"
    },
    {
      "inputs": [
        {
          "internalType": "uint256",
          "name": "_DataBatchId",
          "type": "uint256"
        },
        {
          "internalType": "uint256",
          "name": "_voteOption",
          "type": "uint256"
        },
        {
          "internalType": "uint256",
          "name": "_salt",
          "type": "uint256"
        }
      ],
      "name": "revealSpotCheck",
      "outputs": [],
      "stateMutability": "nonpayable",
      "type": "function"
    },
    {
      "inputs": [
        {
          "internalType": "uint256[]",
          "name": "_DataBatchIDs",
          "type": "uint256[]"
        },
        {
          "internalType": "uint256[]",
          "name": "_voteOptions",
          "type": "uint256[]"
        },
        {
          "internalType": "uint256[]",
          "name": "_salts",
          "type": "uint256[]"
        }
      ],
      "name": "revealSpotChecks",
      "outputs": [],
      "stateMutability": "nonpayable",
      "type": "function"
    },
    {
      "inputs": [],
      "name": "sFuel",
      "outputs": [
        {
          "internalType": "address",
          "name": "",
          "type": "address"
        }
      ],
      "stateMutability": "view",
      "type": "function"
    },
    {
      "inputs": [
        {
          "internalType": "uint256",
          "name": "N",
          "type": "uint256"
        }
      ],
      "name": "shuffle_array",
      "outputs": [
        {
          "internalType": "uint256[]",
          "name": "",
          "type": "uint256[]"
        }
      ],
      "stateMutability": "view",
      "type": "function"
    },
    {
      "inputs": [],
      "name": "token",
      "outputs": [
        {
          "internalType": "contract IERC20",
          "name": "",
          "type": "address"
        }
      ],
      "stateMutability": "view",
      "type": "function"
    },
    {
      "inputs": [
        {
          "internalType": "address",
          "name": "newOwner",
          "type": "address"
        }
      ],
      "name": "transferOwnership",
      "outputs": [],
      "stateMutability": "nonpayable",
      "type": "function"
    },
    {
      "inputs": [
        {
          "internalType": "address",
          "name": "addr",
          "type": "address"
        }
      ],
      "name": "updateAddressManager",
      "outputs": [],
      "stateMutability": "nonpayable",
      "type": "function"
    },
    {
      "inputs": [
        {
          "internalType": "uint256",
          "name": "COMMIT_ROUND_DURATION_",
          "type": "uint256"
        }
      ],
      "name": "updateCommitRoundDuration",
      "outputs": [],
      "stateMutability": "nonpayable",
      "type": "function"
    },
    {
      "inputs": [
        {
          "internalType": "address",
          "name": "addr",
          "type": "address"
        }
      ],
      "name": "updateFormattingSystem",
      "outputs": [],
      "stateMutability": "nonpayable",
      "type": "function"
    },
    {
      "inputs": [
        {
          "internalType": "address",
          "name": "addr",
          "type": "address"
        }
      ],
      "name": "updateRepManager",
      "outputs": [],
      "stateMutability": "nonpayable",
      "type": "function"
    },
    {
      "inputs": [
        {
          "internalType": "uint256",
          "name": "REVEAL_ROUND_DURATION_",
          "type": "uint256"
        }
      ],
      "name": "updateRevealRoundDuration",
      "outputs": [],
      "stateMutability": "nonpayable",
      "type": "function"
    },
    {
      "inputs": [
        {
          "internalType": "address",
          "name": "addr",
          "type": "address"
        }
      ],
      "name": "updateRewardManager",
      "outputs": [],
      "stateMutability": "nonpayable",
      "type": "function"
    },
    {
      "inputs": [
        {
          "internalType": "address",
          "name": "addr",
          "type": "address"
        }
      ],
      "name": "updateStakeManager",
      "outputs": [],
      "stateMutability": "nonpayable",
      "type": "function"
    },
    {
      "inputs": [
        {
          "internalType": "address",
          "name": "sFuel_",
          "type": "address"
        }
      ],
      "name": "updatesFuelFaucet",
      "outputs": [],
      "stateMutability": "nonpayable",
      "type": "function"
    },
    {
      "inputs": [
        {
          "internalType": "address",
          "name": "",
          "type": "address"
        },
        {
          "internalType": "uint256",
          "name": "",
          "type": "uint256"
        }
      ],
      "name": "userSubmissions",
      "outputs": [
        {
          "internalType": "uint256",
          "name": "",
          "type": "uint256"
        }
      ],
      "stateMutability": "view",
      "type": "function"
    },
    {
      "inputs": [
        {
          "internalType": "uint256",
          "name": "_prevID",
          "type": "uint256"
        },
        {
          "internalType": "uint256",
          "name": "_nextID",
          "type": "uint256"
        },
        {
          "internalType": "address",
          "name": "_voter",
          "type": "address"
        },
        {
          "internalType": "uint256",
          "name": "_numTokens",
          "type": "uint256"
        }
      ],
      "name": "validPosition",
      "outputs": [
        {
          "internalType": "bool",
          "name": "APPROVED",
          "type": "bool"
        }
      ],
      "stateMutability": "view",
      "type": "function"
    },
    {
      "inputs": [
        {
          "internalType": "uint256",
          "name": "_numTokens",
          "type": "uint256"
        }
      ],
      "name": "withdrawVotingRights",
      "outputs": [],
      "stateMutability": "nonpayable",
      "type": "function"
    }
  ],
  "bytecode": "0x60806040526802b5e3af16b18800006005819055678ac7230489e80000600655600755603c6008556000600f8190556010819055601980546001600160a01b0319167314f52f3fc010ab6ca81568d4a6794d5eab3c6155179055601a819055601b819055601d553480156200007357600080fd5b5060405162007fb738038062007fb7833981016040819052620000969162000145565b620000aa620000a4620000f1565b620000f5565b601e80546001600160a01b0319166001600160a01b0392909216919091179055600060105568056bc75e2d631000006001908155600255605a600355602d60045562000175565b3390565b600080546001600160a01b038381166001600160a01b0319831681178455604051919092169283917f8be0079c531659141344cd1fd0a4f28419497f9722a3daafe3b4186f6b6457e09190a35050565b60006020828403121562000157578081fd5b81516001600160a01b03811681146200016e578182fd5b9392505050565b617e3280620001856000396000f3fe608060405234801561001057600080fd5b50600436106106085760003560e01c80638d289f8f1161031b578063d37a4db2116101a8578063e7b1d43c116100f4578063f3438946116100ad578063f721de4a11610087578063f721de4a14610ca3578063f80a23fd14610cb6578063fc0c546a14610cbe578063fca4956314610cc657610608565b8063f343894614610c80578063f5ae7c7d14610c93578063f716596d14610c9b57610608565b8063e7b1d43c14610c24578063e8e9b6f914610c37578063ed8becfa14610c4a578063ef4fcdad14610c5d578063f2d9e74d14610c65578063f2fde38b14610c6d57610608565b8063d9845fb811610161578063e44c974b1161013b578063e44c974b14610be3578063e604c12714610bf6578063e7805f9e14610c09578063e798a7da14610c1157610608565b8063d9845fb814610b9d578063dd61868214610bbd578063df05368e14610bd057610608565b8063d37a4db214610b2b578063d420ec0b14610b3e578063d822ce0114610b51578063d8b7567414610b64578063d901402b14610b77578063d9548e5314610b8a57610608565b8063aa7ca46411610267578063b43bd06911610220578063c4e4f82a116101fa578063c4e4f82a14610aea578063c7c063fb14610afd578063cb1c2b5c14610b10578063d138209214610b1857610608565b8063b43bd06914610ab1578063b8f011b314610ac4578063c47c4bc214610ad757610608565b8063aa7ca46414610a68578063aacc5a1714610a7b578063ab43e78d14610a83578063b1a2e0be14610a8b578063b1cf4a7e146106ce578063b1d7ea9814610a9e57610608565b80639fc9c52f116102d4578063a4439dc5116102ae578063a4439dc514610a27578063a511dba014610a3a578063a7f830f414610a42578063a905779014610a5557610608565b80639fc9c52f146109ee578063a1103f3714610a01578063a25236fe14610a1457610608565b80638d289f8f1461099d5780638da5cb5b146109a55780638df0296e146109ad57806397603560146109c05780639acb75c1146109d35780639b7e0180146109db57610608565b80634d8842811161049957806371880b1b116103e55780637f97e8361161039e578063821aa8c011610378578063821aa8c01461095257806383cc6ef2146109655780638473850b1461096d5780638c89d0271461097557610608565b80637f97e836146109005780637fabe35b14610913578063819b02931461093f57610608565b806371880b1b146108ba5780637827e549146108cd578063796b89b9146108d55780637a34da67146108dd5780637d050526146108e55780637f9510a2146108f857610608565b80635a45294311610452578063667bf0f81161042c578063667bf0f8146108845780636b1485a31461088c5780636b2d95d41461089f578063715018a6146108b257610608565b80635a452943146108545780635fd879091461087457806362b7e9411461087c57610608565b80634d884281146107eb5780635106a55f146107fe578063515535e81461081157806351912f2914610819578063579db71c14610821578063580021581461084157610608565b80632c05203111610558578063354dae4011610511578063427fa1d2116104eb578063427fa1d2146107aa578063441c77c0146107bd57806347fe2d20146107d057806349403183146107d857610608565b8063354dae401461079257806339e7357c1461079a5780633ad2131f146107a257610608565b80632c0520311461071e5780632d917c68146107315780632f469fd114610744578063313066ee1461076457806332ac1ba21461076c5780633538af821461077f57610608565b80630e6661a7116105c55780631b8550441161059f5780631b855044146106ce578063226ed300146106e1578063275c25901461070157806329a47bc71461070957610608565b80630e6661a71461069e5780630e670feb146106a657806319d90346146106ae57610608565b8063035fbb551461060d57806304dbcda714610622578063050eb2eb14610640578063053e71a6146106535780630b16d945146106665780630b96c5b014610679575b600080fd5b61062061061b3660046168a5565b610cd9565b005b61062a610f8c565b6040516106379190616a60565b60405180910390f35b61062061064e36600461650a565b610f92565b61062a6106613660046167a7565b610ff3565b61062a61067436600461657f565b611059565b61068c6106873660046167a7565b611393565b60405161063796959493929190616b4f565b61062a611570565b61062a611576565b6106c16106bc3660046167a7565b61157c565b6040516106379190616b0b565b61062a6106dc366004616848565b611991565b6106f46106ef3660046167a7565b6119c5565b6040516106379190616b31565b610620611a07565b610711611ae7565b6040516106379190616a93565b61062a61072c36600461654d565b611af6565b6106f461073f366004616524565b611c93565b6107576107523660046167d0565b611cb3565b6040516106379190616b3c565b61062a611d58565b61062a61077a3660046167a7565b611d5e565b61071161078d3660046167a7565b611d82565b610620611dac565b61062a611ec3565b61062a611ee0565b61062a6107b836600461650a565b611ee6565b6106f46107cb3660046167a7565b611f86565b61062a611fe0565b6106f46107e63660046167a7565b611fe6565b6106206107f936600461650a565b6122fb565b61062061080c366004616660565b61235c565b61062a61245e565b610711612464565b61083461082f36600461650a565b612473565b6040516106379190616b1e565b61062061084f3660046167a7565b6124df565b6108676108623660046167a7565b612523565b6040516106379190617a84565b61062a6128a0565b61062a6128a6565b6106206128ac565b61062061089a3660046167a7565b612c5e565b61062a6108ad36600461650a565b6135ba565b6106206135c9565b61062a6108c83660046167a7565b613614565b61062a613651565b61062a613657565b61071161365b565b6106206108f336600461650a565b61366a565b61062a6136cb565b6106f461090e366004616524565b6136e2565b6109266109213660046167a7565b613735565b6040516106379d9c9b9a99989796959493929190617b9f565b6106f461094d366004616869565b61382e565b6107116109603660046167a7565b61386c565b61071161387c565b61062a61388b565b61098861098336600461650a565b613891565b60405161063799989796959493929190616aa7565b610711613979565b610711613988565b6107116109bb366004616848565b613997565b6106206109ce3660046167a7565b6139cf565b61062a613b7e565b61062a6109e9366004616524565b613b84565b6106206109fc3660046166f5565b613bb5565b61062a610a0f366004616524565b613c07565b610620610a223660046167a7565b613c1c565b6106f4610a353660046167a7565b613d1d565b61062a613d5f565b610620610a503660046167fb565b613d65565b6106f4610a63366004616747565b6141e1565b6106f4610a76366004616524565b614247565b61062a61429a565b61071161434f565b6106f4610a9936600461650a565b61435e565b610834610aac366004616848565b6144ac565b61062a610abf36600461654d565b6146b3565b610834610ad2366004616848565b61479f565b610620610ae536600461650a565b614907565b61062a610af83660046167a7565b614968565b61062a610b0b36600461650a565b6149a5565b61062a6149b7565b61062a610b26366004616524565b6149bd565b610620610b39366004616660565b614a52565b6106f4610b4c366004616524565b614b2a565b610711610b5f366004616524565b614b4a565b61062a610b723660046167d0565b614b66565b61062a610b85366004616524565b614b83565b6106f4610b983660046167a7565b614bc8565b610bb0610bab3660046167a7565b614bcd565b60405161063791906178b5565b610620610bcb36600461650a565b614ea2565b610620610bde36600461650a565b614f03565b610834610bf13660046167a7565b614f64565b610757610c043660046167a7565b614fdd565b61062a615088565b6106f4610c1f36600461650a565b61508e565b610620610c323660046167a7565b6150af565b610620610c453660046167a7565b6151eb565b6106c1610c583660046167a7565b61522f565b61062a615638565b61062a61563e565b610620610c7b36600461650a565b615644565b61062a610c8e36600461650a565b6156b5565b61062a615756565b61062061575c565b6106f4610cb13660046167a7565b615921565b6106f4615929565b610711615942565b61062a610cd436600461650a565b615951565b610ce1615a77565b610cea83611f86565b610d0f5760405162461bcd60e51b8152600401610d069061746f565b60405180910390fd5b33600090815260096020908152604080832086845290915290205460ff16610d495760405162461bcd60e51b8152600401610d069061700f565b610d533384614b83565b610d5d8383611991565b14610d7a5760405162461bcd60e51b8152600401610d0690616dcf565b6000610d8633856149bd565b90508260011415610dbd576000848152601c602052604081206007018054839290610db2908490617cbe565b90915550610de49050565b6000848152601c602052604081206008018054839290610dde908490617cbe565b90915550505b336000908152600d60205260409081902090516301039dfd60e11b815273__$85afbab79b2b776d70bef879a32ed56424$__916302073bfa91610e2c91908890600401616a85565b60006040518083038186803b158015610e4457600080fd5b505af4158015610e58573d6000803e3d6000fd5b5050336000818152600a602090815260408083208a84528252808320805460ff19166001908117909155600b8352818420948452938252808320899055601182528083208a8452601c90925290912060030154909350610eb9925090615bff565b6000868152601c602052604090206003908101919091558101805460ff19166001179055610ee5613657565b6005820155610ef333615c0b565b6000858152601c6020526040902060030154610f1257610f1285612c5e565b6001601d6000828254610f259190617cbe565b90915550506000858152601c602052604090819020600781015460089091015491513392879289927f0867b5027231dcbf37614eaad07d667b9febaf9fdf483f488229b1f140bb074892610f7d928992909190617b89565b60405180910390a45050505050565b60055481565b610f9a615d63565b6001600160a01b0316610fab613988565b6001600160a01b031614610fd15760405162461bcd60e51b8152600401610d069061733e565b602180546001600160a01b0319166001600160a01b0392909216919091179055565b6000610ffe826119c5565b61101a5760405162461bcd60e51b8152600401610d06906170aa565b61102382611fe6565b1561104057506000818152601c6020526040902060070154611054565b506000818152601c60205260409020600801545b919050565b6000611063615a77565b60005b885181101561136957600089828151811061109157634e487b7160e01b600052603260045260246000fd5b6020026020010151905060008888848181106110bd57634e487b7160e01b600052603260045260246000fd5b90506020028101906110cf9190617c22565b8080601f0160208091040260200160405190810160405280939291908181526020018383808284376000920182905250338082526013602090815260408084206010548154600181018355918652838620909101558051610100810182528a815291820192909252429181019190915260608101869052608081018d905260a081018c905260c081018b905294955060e085019350915061116d9050565b90526010546000908152601260209081526040909120825180519192611198928492909101906160f4565b506020828101516001830180546001600160a01b0319166001600160a01b0390921691909117905560408301516002830155606083015180516111e192600385019201906160f4565b50608082015180516111fd916004840191602090910190616178565b5060a082015180516112199160058401916020909101906161d1565b5060c082015180516112359160068401916020909101906160f4565b5060e082015160078201805460ff1916600183600381111561126757634e487b7160e01b600052602160045260246000fd5b021790555050601a546000908152601c602052604090206002810154909150600511156112b55760018160020160008282546112a39190617cbe565b90915550506010546001820155611301565b60048101805461ff001960ff199091166001171690556112d3611dac565b6001601a60008282546112e69190617cbe565b9091555050601054601a546000908152601c60205260409020555b60105461130f906001617cbe565b60108190556040513391907fb7b95e293993cd6c0c54a48cee487ef3dd8f51be568be962db90e7784af70dd19061134b90879087908e90616bae565b60405180910390a3505050808061136190617d8b565b915050611066565b506001601d600082825461137d9190617cbe565b909155505060105490505b979650505050505050565b6012602052600090815260409020805481906113ae90617d50565b80601f01602080910402602001604051908101604052809291908181526020018280546113da90617d50565b80156114275780601f106113fc57610100808354040283529160200191611427565b820191906000526020600020905b81548152906001019060200180831161140a57829003601f168201915b505050506001830154600284015460038501805494956001600160a01b03909316949193509061145690617d50565b80601f016020809104026020016040519081016040528092919081815260200182805461148290617d50565b80156114cf5780601f106114a4576101008083540402835291602001916114cf565b820191906000526020600020905b8154815290600101906020018083116114b257829003601f168201915b5050505050908060060180546114e490617d50565b80601f016020809104026020016040519081016040528092919081815260200182805461151090617d50565b801561155d5780601f106115325761010080835404028352916020019161155d565b820191906000526020600020905b81548152906001019060200180831161154057829003601f168201915b5050506007909301549192505060ff1686565b60105481565b60065481565b606061158782615921565b6115a35760405162461bcd60e51b8152600401610d06906174fc565b6000828152601c6020908152604080832081516101e0810183528154815260018201549381019390935260028101549183019190915260038101546060830152600481015460ff808216151560808501526101008083048216151560a08601526201000090920416151560c0840152600582015460e0840152600682015490830152600781015461012083015260088101546101408301526009810180546101608401919061165190617d50565b80601f016020809104026020016040519081016040528092919081815260200182805461167d90617d50565b80156116ca5780601f1061169f576101008083540402835291602001916116ca565b820191906000526020600020905b8154815290600101906020018083116116ad57829003601f168201915b5050509183525050600a82015460209091019060ff1660038111156116ff57634e487b7160e01b600052602160045260246000fd5b600381111561171e57634e487b7160e01b600052602160045260246000fd5b8152602001600b8201805480602002602001604051908101604052809291908181526020016000905b828210156117f357838290600052602060002001805461176690617d50565b80601f016020809104026020016040519081016040528092919081815260200182805461179290617d50565b80156117df5780601f106117b4576101008083540402835291602001916117df565b820191906000526020600020905b8154815290600101906020018083116117c257829003601f168201915b505050505081526020019060010190611747565b505050508152602001600c820180548060200260200160405190810160405280929190818152602001828054801561184a57602002820191906000526020600020905b815481526020019060010190808311611836575b505050919092525050506040818101518151600580825260c0820190935292935091600091816020015b606081526020019060019003908161187457905050905060005b828110156119885783516000906118a6908390617cbe565b6000818152601260205260408120600301805492935090916118c790617d50565b80601f01602080910402602001604051908101604052809291908181526020018280546118f390617d50565b80156119405780601f1061191557610100808354040283529160200191611940565b820191906000526020600020905b81548152906001019060200180831161192357829003601f168201915b505050505090508084848151811061196857634e487b7160e01b600052603260045260246000fd5b60200260200101819052505050808061198090617d8b565b91505061188e565b50949350505050565b600082826040516020016119a6929190616a85565b6040516020818303038152906040528051906020012090505b92915050565b60006119d082615921565b6119ec5760405162461bcd60e51b8152600401610d0690617823565b6000828152601c60205260409020600601546119bf90614bc8565b611a0f615a77565b336000908152601160205260409020600781015460ff161515600114611a475760405162461bcd60e51b8152600401610d0690616f67565b6000611a51613657565b9050611a5c33615d67565b8154336001600160a01b031991821681178455600180850180549093169091179091556005830182905560078301805460ff19169055601d8054600090611aa4908490617cbe565b909155505060405133907f9dadcedba048e92b943ea1c5861cee1df63a566d7f795869c004780c1c698e2b90611adb908490616a60565b60405180910390a25050565b6020546001600160a01b031681565b600080611b0285611ee6565b90506000611b1086836149bd565b90505b8115611c8857611b2386836149bd565b9050848111611be05783821415611bd8576001600160a01b0386166000908152600d60205260409081902090516301c39b2b60e11b815273__$85afbab79b2b776d70bef879a32ed56424$__91630387365691611b8591908690600401616a85565b60206040518083038186803b158015611b9d57600080fd5b505af4158015611bb1573d6000803e3d6000fd5b505050506040513d601f19601f82011682018060405250810190611bd591906167bf565b91505b509050611c8c565b6001600160a01b0386166000908152600d60205260409081902090516301c39b2b60e11b815273__$85afbab79b2b776d70bef879a32ed56424$__91630387365691611c3191908690600401616a85565b60206040518083038186803b158015611c4957600080fd5b505af4158015611c5d573d6000803e3d6000fd5b505050506040513d601f19601f82011682018060405250810190611c8191906167bf565b9150611b13565b5090505b9392505050565b600960209081526000928352604080842090915290825290205460ff1681565b600c60209081526000928352604080842090915290825290208054611cd790617d50565b80601f0160208091040260200160405190810160405280929190818152602001828054611d0390617d50565b8015611d505780601f10611d2557610100808354040283529160200191611d50565b820191906000526020600020905b815481529060010190602001808311611d3357829003601f168201915b505050505081565b600f5481565b6000818152601c6020526040812060088101546007909101548291611c8c91617cbe565b60168181548110611d9257600080fd5b6000918252602090912001546001600160a01b0316905081565b601b546000908152601c602052604090206004015460ff16611de05760405162461bcd60e51b8152600401610d069061784c565b601b546000908152601c602052604090206004015462010000900460ff161515600114801590611e11575060165415155b15611e2357611e1e6128ac565b611e85565b601b546000908152601c602052604090206004015462010000900460ff1615156001148015611e755750611e58601b546119c5565b80611e755750601b546000908152601c6020526040902060030154155b15611e8557611e85601b54612c5e565b600f54611e93906001615e97565b600f8190556040517f94d48a7342690f1233e3f4db70efa37c4f1f25f4d0397c353f3f15aecdeca5f490600090a2565b60405160009080602081848060185afa611ed957fe5b5051919050565b60085481565b6001600160a01b0381166000908152600d602052604080822090516301c39b2b60e11b815273__$85afbab79b2b776d70bef879a32ed56424$__91630387365691611f3691908590600401616a85565b60206040518083038186803b158015611f4e57600080fd5b505af4158015611f62573d6000803e3d6000fd5b505050506040513d601f19601f820116820180604052508101906119bf91906167bf565b6000611f9182615921565b611fad5760405162461bcd60e51b8152600401610d06906174fc565b6000828152601c6020526040902060060154611fc890614bc8565b1580156119bf5750611fd982613d1d565b1592915050565b601b5490565b6000611ff1826119c5565b61200d5760405162461bcd60e51b8152600401610d069061705e565b6000828152601c6020908152604080832081516101e0810183528154815260018201549381019390935260028101549183019190915260038101546060830152600481015460ff808216151560808501526101008083048216151560a08601526201000090920416151560c0840152600582015460e084015260068201549083015260078101546101208301526008810154610140830152600981018054610160840191906120bb90617d50565b80601f01602080910402602001604051908101604052809291908181526020018280546120e790617d50565b80156121345780601f1061210957610100808354040283529160200191612134565b820191906000526020600020905b81548152906001019060200180831161211757829003601f168201915b5050509183525050600a82015460209091019060ff16600381111561216957634e487b7160e01b600052602160045260246000fd5b600381111561218857634e487b7160e01b600052602160045260246000fd5b8152602001600b8201805480602002602001604051908101604052809291908181526020016000905b8282101561225d5783829060005260206000200180546121d090617d50565b80601f01602080910402602001604051908101604052809291908181526020018280546121fc90617d50565b80156122495780601f1061221e57610100808354040283529160200191612249565b820191906000526020600020905b81548152906001019060200180831161222c57829003601f168201915b5050505050815260200190600101906121b1565b505050508152602001600c82018054806020026020016040519081016040528092919081815260200182805480156122b457602002820191906000526020600020905b8154815260200190600101908083116122a0575b50505050508152505090508061014001518161012001516122d59190617cbe565b6008546122e29190617cea565b6101208201516122f3906064617cea565b119392505050565b612303615d63565b6001600160a01b0316612314613988565b6001600160a01b03161461233a5760405162461bcd60e51b8152600401610d069061733e565b601980546001600160a01b0319166001600160a01b0392909216919091179055565b84831461237b5760405162461bcd60e51b8152600401610d0690617621565b60005b85811015612455576124438787838181106123a957634e487b7160e01b600052603260045260246000fd5b905060200201358686848181106123d057634e487b7160e01b600052603260045260246000fd5b905060200201358585858181106123f757634e487b7160e01b600052603260045260246000fd5b90506020028101906124099190617c22565b8080601f016020809104026020016040519081016040528093929190818152602001838380828437600092019190915250613d6592505050565b8061244d81617d8b565b91505061237e565b50505050505050565b601a5490565b6021546001600160a01b031681565b6001600160a01b0381166000908152601360209081526040918290208054835181840281018401909452808452606093928301828280156124d357602002820191906000526020600020905b8154815260200190600101908083116124bf575b50505050509050919050565b6124e7615d63565b6001600160a01b03166124f8613988565b6001600160a01b03161461251e5760405162461bcd60e51b8152600401610d069061733e565b600455565b61252b61620b565b600082815260126020526040908190208151610100810190925280548290829061255490617d50565b80601f016020809104026020016040519081016040528092919081815260200182805461258090617d50565b80156125cd5780601f106125a2576101008083540402835291602001916125cd565b820191906000526020600020905b8154815290600101906020018083116125b057829003601f168201915b505050918352505060018201546001600160a01b031660208201526002820154604082015260038201805460609092019161260790617d50565b80601f016020809104026020016040519081016040528092919081815260200182805461263390617d50565b80156126805780601f1061265557610100808354040283529160200191612680565b820191906000526020600020905b81548152906001019060200180831161266357829003601f168201915b5050505050815260200160048201805480602002602001604051908101604052809291908181526020016000905b8282101561275a5783829060005260206000200180546126cd90617d50565b80601f01602080910402602001604051908101604052809291908181526020018280546126f990617d50565b80156127465780601f1061271b57610100808354040283529160200191612746565b820191906000526020600020905b81548152906001019060200180831161272957829003601f168201915b5050505050815260200190600101906126ae565b505050508152602001600582018054806020026020016040519081016040528092919081815260200182805480156127b157602002820191906000526020600020905b81548152602001906001019080831161279d575b505050505081526020016006820180546127ca90617d50565b80601f01602080910402602001604051908101604052809291908181526020018280546127f690617d50565b80156128435780601f1061281857610100808354040283529160200191612843565b820191906000526020600020905b81548152906001019060200180831161282657829003601f168201915b5050509183525050600782015460209091019060ff16600381111561287857634e487b7160e01b600052602160045260246000fd5b600381111561289757634e487b7160e01b600052602160045260246000fd5b90525092915050565b60045481565b60025481565b601b546000908152601c602052604090206004015460ff166128e05760405162461bcd60e51b8152600401610d0690617419565b601b546000908152601c602052604090206004015462010000900460ff161561291b5760405162461bcd60e51b8152600401610d0690617273565b60165460009061294490606490612933906014617cea565b61293d9190617cd6565b6001615ea3565b601654601b546000908152601c602052604081206003908101849055549293509091612971904290615e97565b9050600061298a60045483615e9790919063ffffffff16565b601b80546000908152601c60205260408082206005018690558254825280822060060184905591548152908120600401805462ff00001916620100001790559091506129d6858561479f565b9050600081516001600160401b03811115612a0157634e487b7160e01b600052604160045260246000fd5b604051908082528060200260200182016040528015612a2a578160200160208202803683370190505b50905060005b8251811015612ae9576016838281518110612a5b57634e487b7160e01b600052603260045260246000fd5b602002602001015181548110612a8157634e487b7160e01b600052603260045260246000fd5b9060005260206000200160009054906101000a90046001600160a01b0316828281518110612abf57634e487b7160e01b600052603260045260246000fd5b6001600160a01b039092166020928302919091019091015280612ae181617d8b565b915050612a30565b5060005b8251811015612c3d576000828281518110612b1857634e487b7160e01b600052603260045260246000fd5b6020908102919091018101516001600160a01b03811660008181526011845260408082206017805460018181019092557fc624b66cc0138b8fabc209247f72d758e1cf3343756d543badbf24212bed8c150180546001600160a01b03199081168717909155601b548552601888529284208054918201815584529590922090940180549094169091179092558451909250612bda90859085908110612bcd57634e487b7160e01b600052603260045260246000fd5b6020026020010151615d67565b601b8054600283015560038201805460ff19169055546040517fe4ee2dfabe57cee15e3f558890b20455f54c1fa0718e5276faad70a6500e6b8c90612c20908590616a93565b60405180910390a250508080612c3590617d8b565b915050612aed565b506001601d6000828254612c519190617cbe565b9091555050505050505050565b612c69601b546119c5565b80612c865750601b546000908152601c6020526040902060030154155b612ca25760405162461bcd60e51b8152600401610d0690617373565b6000612cad82611fe6565b600083815260186020908152604080832080548251818502810185019093528083529495509293909291830182828015612d1057602002820191906000526020600020905b81546001600160a01b03168152600190910190602001808311612cf2575b50505050509050600081516001600160401b03811115612d4057634e487b7160e01b600052604160045260246000fd5b604051908082528060200260200182016040528015612d7357816020015b6060815260200190600190039081612d5e5790505b50905060005b82518110156130ff576000838281518110612da457634e487b7160e01b600052603260045260246000fd5b6020908102919091018101516000888152600b835260408082206001600160a01b03841680845290855281832054600a86528284208c8552865282842054600c875283852092855291909552908220805493955060ff90911692612e0790617d50565b80601f0160208091040260200160405190810160405280929190818152602001828054612e3390617d50565b8015612e805780601f10612e5557610100808354040283529160200191612e80565b820191906000526020600020905b815481529060010190602001808311612e6357829003601f168201915b5050505050905080868681518110612ea857634e487b7160e01b600052603260045260246000fd5b6020026020010181905250612ebc84615c0b565b6001600160a01b038416600090815260116020526040902082156130cd576001600160a01b0385166000908152601160205260409020600301805460ff19166001908117909155891515148015612f135750836001145b80612f28575088158015612f28575083600114155b1561306f57602054600754604051630db6cc8560e11b81526001600160a01b0390921691631b6d990a91612f60918990600401617b6b565b602060405180830381600087803b158015612f7a57600080fd5b505af1158015612f8e573d6000803e3d6000fd5b505050506040513d601f19601f82011682018060405250810190612fb29190616727565b612fce5760405162461bcd60e51b8152600401610d0690617150565b602154600554604051633832942560e21b81526001600160a01b039092169163e0ca509491613001918990600401617b54565b602060405180830381600087803b15801561301b57600080fd5b505af115801561302f573d6000803e3d6000fd5b505050506040513d601f19601f820116820180604052508101906130539190616727565b61306f5760405162461bcd60e51b8152600401610d0690616f18565b600781015460ff16156130c857601680546001810182556000919091527fd833147d7dc355ba459fc788f669e58cfaf9dc25ddcd0702e87d69c7b51242890180546001600160a01b0319166001600160a01b0387161790555b6130e7565b600781015460ff16156130e75760078101805460ff191690555b505050505080806130f790617d8b565b915050612d79565b5060006131156064845160326129339190617cea565b905060008260008151811061313a57634e487b7160e01b600052603260045260246000fd5b6020026020010151905060005b8351811015613230576000805b85518110156131e5576131b586848151811061318057634e487b7160e01b600052603260045260246000fd5b60200260200101518783815181106131a857634e487b7160e01b600052603260045260246000fd5b60200260200101516141e1565b156131d3576131c5600183617cbe565b91508482106131d3576131e5565b806131dd81617d8b565b915050613154565b5083811061321d5784828151811061320d57634e487b7160e01b600052603260045260246000fd5b6020026020010151925050613230565b508061322881617d8b565b915050613147565b5084156134cf576020805460075460008981526012909352604092839020600101549251630db6cc8560e11b81526001600160a01b0392831693631b6d990a936132809392911690600401617b6b565b602060405180830381600087803b15801561329a57600080fd5b505af11580156132ae573d6000803e3d6000fd5b505050506040513d601f19601f820116820180604052508101906132d29190616727565b6132ee5760405162461bcd60e51b8152600401610d069061772f565b60215460055460008881526012602052604090819020600101549051633832942560e21b81526001600160a01b039384169363e0ca509493613337939092911690600401617b54565b602060405180830381600087803b15801561335157600080fd5b505af1158015613365573d6000803e3d6000fd5b505050506040513d601f19601f820116820180604052508101906133899190616727565b6133a55760405162461bcd60e51b8152600401610d06906175d2565b601b546000908152601c602052604090819020600a01805460ff1916600117905560235490516348257dc960e01b81526001600160a01b03909116906348257dc9906133f5908990600401616a60565b602060405180830381600087803b15801561340f57600080fd5b505af192505050801561343f575060408051601f3d908101601f1916820190925261343c91810190616727565b60015b6134b0573d80801561346d576040519150601f19603f3d011682016040523d82523d6000602084013e613472565b606091505b507f4b87bbd93ba65ede1e2efeca735d9f7a6720bf7d6db0a8355b17dba5b64e5783816040516134a29190616b3c565b60405180910390a1506134ca565b6001601d60008282546134c39190617cbe565b9091555050505b6134ef565b601b546000908152601c60205260409020600a01805460ff191660021790555b601b80546000908152601c60209081526040808320600401805461ff00191661010017905592548252919020825161352f926009909201918401906160f4565b50601b5461353e906001615e97565b601b819055506001601d60008282546135579190617cbe565b909155505060008681526012602052604090819020600181015491516001600160a01b03909216917f43916c3ae75995d24cc89b466ed08e6dba74d325f7957f9b37b05f150e12918e916135aa91616bf1565b60405180910390a2505050505050565b60006119bf82610b2684611ee6565b6135d1615d63565b6001600160a01b03166135e2613988565b6001600160a01b0316146136085760405162461bcd60e51b8152600401610d069061733e565b6136126000615eba565b565b600061361f82615921565b61363b5760405162461bcd60e51b8152600401610d06906174fc565b506000908152601c602052604090206006015490565b60075481565b4290565b6022546001600160a01b031681565b613672615d63565b6001600160a01b0316613683613988565b6001600160a01b0316146136a95760405162461bcd60e51b8152600401610d069061733e565b602380546001600160a01b0319166001600160a01b0392909216919091179055565b6017546016546000916136dd91617cbe565b905090565b60006136ed82615921565b6137095760405162461bcd60e51b8152600401610d06906174fc565b506001600160a01b03919091166000908152600960209081526040808320938352929052205460ff1690565b601c60205260009081526040902080546001820154600283015460038401546004850154600586015460068701546007880154600889015460098a018054999a98999798969760ff808816986101008904821698620100009004909116969594939290916137a290617d50565b80601f01602080910402602001604051908101604052809291908181526020018280546137ce90617d50565b801561381b5780601f106137f05761010080835404028352916020019161381b565b820191906000526020600020905b8154815290600101906020018083116137fe57829003601f168201915b505050600a909301549192505060ff168d565b60008061383b84876149bd565b8310159050600061384c85876149bd565b84111580613858575085155b905081801561138857509695505050505050565b60178181548110611d9257600080fd5b601f546001600160a01b031681565b601a5481565b60116020526000908152604090208054600182015460028301546003840154600485015460058601546006870180546001600160a01b03978816989690971696949560ff90941694929391926138e690617d50565b80601f016020809104026020016040519081016040528092919081815260200182805461391290617d50565b801561395f5780601f106139345761010080835404028352916020019161395f565b820191906000526020600020905b81548152906001019060200180831161394257829003601f168201915b505050506007830154600890930154919260ff1691905089565b6023546001600160a01b031681565b6000546001600160a01b031690565b601860205281600052604060002081815481106139b357600080fd5b6000918252602090912001546001600160a01b03169150829050565b60016000828152601c60205260409020600a015460ff166003811115613a0557634e487b7160e01b600052602160045260246000fd5b14613a225760405162461bcd60e51b8152600401610d0690616cd2565b336000908152600d60205260409081902090516306120d1f60e31b815273__$85afbab79b2b776d70bef879a32ed56424$__9163309068f891613a6a91908590600401616a85565b60206040518083038186803b158015613a8257600080fd5b505af4158015613a96573d6000803e3d6000fd5b505050506040513d601f19601f82011682018060405250810190613aba9190616727565b613ad65760405162461bcd60e51b8152600401610d069061719d565b336000908152600d60205260409081902090516301039dfd60e11b815273__$85afbab79b2b776d70bef879a32ed56424$__916302073bfa91613b1e91908590600401616a85565b60006040518083038186803b158015613b3657600080fd5b505af4158015613b4a573d6000803e3d6000fd5b50506040513392508391507f402507661c8c8cb90e0a796450b8bdd28b6c516f05279c0cd29e84c344e1699a90600090a350565b600f5490565b60136020528160005260406000208181548110613ba057600080fd5b90600052602060002001600091509150505481565b60005b8151811015613c0357613bf1828281518110613be457634e487b7160e01b600052603260045260246000fd5b60200260200101516139cf565b80613bfb81617d8b565b915050613bb8565b5050565b600082826040516020016119a6929190616a3e565b601f546040516304ada21f60e21b81526001600160a01b03909116906312b6887c90613c4e9084903390600401617b54565b602060405180830381600087803b158015613c6857600080fd5b505af1158015613c7c573d6000803e3d6000fd5b505050506040513d601f19601f82011682018060405250810190613ca09190616727565b613cbc5760405162461bcd60e51b8152600401610d0690616fb2565b3360009081526014602052604081208054839290613cdb908490617cbe565b909155505060405133907ff7aaf024511d9982df8cd0d437c71c30106e6848cd1ba3d288d7a9c0e276aeda90613d12908490616a60565b60405180910390a250565b6000613d2882615921565b613d445760405162461bcd60e51b8152600401610d06906174fc565b6000828152601c6020526040902060050154611fd990614bc8565b60105490565b613d6d615a77565b613d7683613d1d565b613d925760405162461bcd60e51b8152600401610d0690616ee1565b82613d9c33615951565b14613db95760405162461bcd60e51b8152600401610d06906172d0565b60015433600090815260146020526040902054811115613dfb5733600090815260146020526040812054613dee908390615bff565b9050613df981613c1c565b505b33600090815260146020526040902054811115613e2a5760405162461bcd60e51b8152600401610d06906176d2565b6000336000908152600d60205260408082209051631e0f232560e31b815273__$85afbab79b2b776d70bef879a32ed56424$__9163f079192891613e7391908690600401616a85565b60206040518083038186803b158015613e8b57600080fd5b505af4158015613e9f573d6000803e3d6000fd5b505050506040513d601f19601f82011682018060405250810190613ec391906167bf565b905085811415613f6857336000908152600d6020526040908190209051631e0f232560e31b815273__$85afbab79b2b776d70bef879a32ed56424$__9163f079192891613f1591908a90600401616a85565b60206040518083038186803b158015613f2d57600080fd5b505af4158015613f41573d6000803e3d6000fd5b505050506040513d601f19601f82011682018060405250810190613f6591906167bf565b90505b613f748282338661382e565b613f905760405162461bcd60e51b8152600401610d0690617245565b336000908152600d602052604090819020905163524cfe5360e11b815273__$85afbab79b2b776d70bef879a32ed56424$__9163a499fca691613fdc919086908b908790600401617a69565b60006040518083038186803b158015613ff457600080fd5b505af4158015614008573d6000803e3d6000fd5b5050505060006140183388613c07565b60408051808201825260098152686e756d546f6b656e7360b81b6020820152905163099b040f60e31b81529192509073__$0947e710b66d7779e1d561254425e1375a$__90634cd820789061407890600e90869086908b906004016179be565b60006040518083038186803b15801561409057600080fd5b505af41580156140a4573d6000803e3d6000fd5b505060405163099b040f60e31b815273__$0947e710b66d7779e1d561254425e1375a$__9250634cd8207891506140e490600e9086908c90600401617a0c565b60006040518083038186803b1580156140fc57600080fd5b505af4158015614110573d6000803e3d6000fd5b5050506000898152600c602090815260408083203384528252909120885161413d935090918901906160f4565b50336000908152601160205260409020614155613657565b60058201553360009081526009602090815260408083208c84529091528120805460ff19166001908117909155601d805491929091614195908490617cbe565b909155505060405133908a907f42864d9683ff5b12c3b2cc65d705af5aab104b03bc700b802f79e5c971ef08a1906141ce908a90616a60565b60405180910390a3505050505050505050565b6000816040516020016141f49190616a69565b604051602081830303815290604052805190602001208360405160200161421b9190616a69565b60405160208183030381529060405280519060200120141561423f575060016119bf565b5060006119bf565b600061425282615921565b61426e5760405162461bcd60e51b8152600401610d06906174fc565b506001600160a01b03919091166000908152600a60209081526040808320938352929052205460ff1690565b60008042416040516020016142af9190616a21565b6040516020818303038152906040528051906020012060001c6142d29190617cd6565b446142db611ec3565b6040516020016142eb9190616a60565b60408051601f19818403018152919052805160209091012061430d9042617cbe565b6143179190617cbe565b6143219190617cbe565b6040516020016143319190616a60565b60408051601f19818403018152919052805160209091012091505090565b6019546001600160a01b031681565b6001600160a01b038082166000908152601160209081526040808320815161012081018352815486168152600182015490951692850192909252600282015490840152600381015460ff161515606084015260048101546080840152600581015460a0840152600681018054929384938493919260c08401916143e090617d50565b80601f016020809104026020016040519081016040528092919081815260200182805461440c90617d50565b80156144595780601f1061442e57610100808354040283529160200191614459565b820191906000526020600020905b81548152906001019060200180831161443c57829003601f168201915b5050509183525050600782015460ff1615156020820152600890910154604090910152606081015190915015801561449b575061449981604001516119c5565b155b156144a557600191505b5092915050565b6060600082116144bb57600080fd5b6000416040516020016144ce9190616a21565b6040516020818303038152906040528051906020012060001c6144ef611ec3565b6040516020016144ff9190616a60565b60408051601f1981840301815291905280516020909101206145219042617cbe565b61452b9190617cbe565b60405160200161453b9190616a60565b6040516020818303038152906040528051906020012060001c90506000846001600160401b0381111561457e57634e487b7160e01b600052604160045260246000fd5b6040519080825280602002602001820160405280156145a7578160200160208202803683370190505b5090506000805b868210156146a8576000866145c763017efeeb87617d09565b836040516020016145d9929190616a85565b6040516020818303038152906040528051906020012060001c6145fc9190617da6565b90506000805b84811015614654578286828151811061462b57634e487b7160e01b600052603260045260246000fd5b602002602001015114156146425760019150614654565b8061464c81617d8b565b915050614602565b5080614694578185858151811061467b57634e487b7160e01b600052603260045260246000fd5b6020908102919091010152614691846001617cbe565b93505b61469f836001617cbe565b925050506145ae565b509095945050505050565b60006146be836119c5565b6146da5760405162461bcd60e51b8152600401610d069061777c565b6001600160a01b0384166000908152600a6020908152604080832086845290915290205460ff1661471d5760405162461bcd60e51b8152600401610d06906171fa565b600061472884611fe6565b614733576000614736565b60015b60ff16905060008184604051602001614750929190616a85565b60405160208183030381529060405280519060200120905060006147748787614b83565b90508082146147955760405162461bcd60e51b8152600401610d06906173d0565b61138887876149bd565b60606000821180156147b15750818311155b80156147be575060018310155b6147da5760405162461bcd60e51b8152600401610d0690616e98565b6000826001600160401b0381111561480257634e487b7160e01b600052604160045260246000fd5b60405190808252806020026020018201604052801561482b578160200160208202803683370190505b5090506000846001600160401b0381111561485657634e487b7160e01b600052604160045260246000fd5b60405190808252806020026020018201604052801561487f578160200160208202803683370190505b509050600061489561489084615f0a565b615f60565b905060005b868110156146a8578181815181106148c257634e487b7160e01b600052603260045260246000fd5b60200260200101518382815181106148ea57634e487b7160e01b600052603260045260246000fd5b6020908102919091010152806148ff81617d8b565b91505061489a565b61490f615d63565b6001600160a01b0316614920613988565b6001600160a01b0316146149465760405162461bcd60e51b8152600401610d069061733e565b602280546001600160a01b0319166001600160a01b0392909216919091179055565b600061497382615921565b61498f5760405162461bcd60e51b8152600401610d06906174fc565b506000908152601c602052604090206005015490565b60146020526000908152604090205481565b60015481565b600073__$0947e710b66d7779e1d561254425e1375a$__6369810158600e6149e58686613c07565b6040518363ffffffff1660e01b8152600401614a02929190617a3a565b60206040518083038186803b158015614a1a57600080fd5b505af4158015614a2e573d6000803e3d6000fd5b505050506040513d601f19601f82011682018060405250810190611c8c91906167bf565b848314614a715760405162461bcd60e51b8152600401610d06906170d8565b848114614a905760405162461bcd60e51b8152600401610d0690617560565b60005b8581101561245557614b18878783818110614abe57634e487b7160e01b600052603260045260246000fd5b90506020020135868684818110614ae557634e487b7160e01b600052603260045260246000fd5b90506020020135858585818110614b0c57634e487b7160e01b600052603260045260246000fd5b90506020020135610cd9565b80614b2281617d8b565b915050614a93565b600a60209081526000928352604080842090915290825290205460ff1681565b601560205281600052604060002081815481106139b357600080fd5b600b60209081526000928352604080842090915290825290205481565b600073__$0947e710b66d7779e1d561254425e1375a$__6369810158600e614bab8686613c07565b6040518363ffffffff1660e01b8152600401614a029291906179ee565b421190565b614bd5616277565b614bde82615921565b614be757600080fd5b6000828152601c602090815260409182902082516101e0810184528154815260018201549281019290925260028101549282019290925260038201546060820152600482015460ff808216151560808401526101008083048216151560a08501526201000090920416151560c0830152600583015460e08301526006830154908201526007820154610120820152600882015461014082015260098201805491929161016084019190614c9990617d50565b80601f0160208091040260200160405190810160405280929190818152602001828054614cc590617d50565b8015614d125780601f10614ce757610100808354040283529160200191614d12565b820191906000526020600020905b815481529060010190602001808311614cf557829003601f168201915b5050509183525050600a82015460209091019060ff166003811115614d4757634e487b7160e01b600052602160045260246000fd5b6003811115614d6657634e487b7160e01b600052602160045260246000fd5b8152602001600b8201805480602002602001604051908101604052809291908181526020016000905b82821015614e3b578382906000526020600020018054614dae90617d50565b80601f0160208091040260200160405190810160405280929190818152602001828054614dda90617d50565b8015614e275780601f10614dfc57610100808354040283529160200191614e27565b820191906000526020600020905b815481529060010190602001808311614e0a57829003601f168201915b505050505081526020019060010190614d8f565b505050508152602001600c8201805480602002602001604051908101604052809291908181526020018280548015614e9257602002820191906000526020600020905b815481526020019060010190808311614e7e575b5050505050815250509050919050565b614eaa615d63565b6001600160a01b0316614ebb613988565b6001600160a01b031614614ee15760405162461bcd60e51b8152600401610d069061733e565b602080546001600160a01b0319166001600160a01b0392909216919091179055565b614f0b615d63565b6001600160a01b0316614f1c613988565b6001600160a01b031614614f425760405162461bcd60e51b8152600401610d069061733e565b601f80546001600160a01b0319166001600160a01b0392909216919091179055565b606060008211614f7357600080fd5b6000826001600160401b03811115614f9b57634e487b7160e01b600052604160045260246000fd5b604051908082528060200260200182016040528015614fc4578160200160208202803683370190505b5090506000614fd561489083615f0a565b949350505050565b6060614fe882615921565b614ff157600080fd5b6000828152601c60205260409020600901805461500d90617d50565b80601f016020809104026020016040519081016040528092919081815260200182805461503990617d50565b80156124d35780601f1061505b576101008083540402835291602001916124d3565b820191906000526020600020905b8154815290600101906020018083116150695750939695505050505050565b60035481565b6001600160a01b031660009081526011602052604090206007015460ff1690565b60006150d36150bd336135ba565b3360009081526014602052604090205490615bff565b9050818110156150f55760405162461bcd60e51b8152600401610d06906174b5565b601f54604051630895993360e11b81526001600160a01b039091169063112b3266906151279085903390600401617b54565b602060405180830381600087803b15801561514157600080fd5b505af1158015615155573d6000803e3d6000fd5b505050506040513d601f19601f820116820180604052508101906151799190616727565b6151955760405162461bcd60e51b8152600401610d06906177c6565b33600090815260146020526040812080548492906151b4908490617d09565b909155505060405133907ffaeb7dbb9992397d26ea1944efd40c80b40f702faf69b46c67ad10aba68ccb7990611adb908590616a60565b6151f3615d63565b6001600160a01b0316615204613988565b6001600160a01b03161461522a5760405162461bcd60e51b8152600401610d069061733e565b600355565b606061523a82615921565b6152565760405162461bcd60e51b8152600401610d06906174fc565b6000828152601c6020908152604080832081516101e0810183528154815260018201549381019390935260028101549183019190915260038101546060830152600481015460ff808216151560808501526101008083048216151560a08601526201000090920416151560c0840152600582015460e0840152600682015490830152600781015461012083015260088101546101408301526009810180546101608401919061530490617d50565b80601f016020809104026020016040519081016040528092919081815260200182805461533090617d50565b801561537d5780601f106153525761010080835404028352916020019161537d565b820191906000526020600020905b81548152906001019060200180831161536057829003601f168201915b5050509183525050600a82015460209091019060ff1660038111156153b257634e487b7160e01b600052602160045260246000fd5b60038111156153d157634e487b7160e01b600052602160045260246000fd5b8152602001600b8201805480602002602001604051908101604052809291908181526020016000905b828210156154a657838290600052602060002001805461541990617d50565b80601f016020809104026020016040519081016040528092919081815260200182805461544590617d50565b80156154925780601f1061546757610100808354040283529160200191615492565b820191906000526020600020905b81548152906001019060200180831161547557829003601f168201915b5050505050815260200190600101906153fa565b505050508152602001600c82018054806020026020016040519081016040528092919081815260200182805480156154fd57602002820191906000526020600020905b8154815260200190600101908083116154e9575b505050919092525050506040818101518151600580825260c0820190935292935091600091816020015b606081526020019060019003908161552757905050905060005b82811015611988578351600090615559908390617cbe565b60008181526012602052604081208054929350909161557790617d50565b80601f01602080910402602001604051908101604052809291908181526020018280546155a390617d50565b80156155f05780601f106155c5576101008083540402835291602001916155f0565b820191906000526020600020905b8154815290600101906020018083116155d357829003601f168201915b505050505090508084848151811061561857634e487b7160e01b600052603260045260246000fd5b60200260200101819052505050808061563090617d8b565b915050615541565b601b5481565b601d5481565b61564c615d63565b6001600160a01b031661565d613988565b6001600160a01b0316146156835760405162461bcd60e51b8152600401610d069061733e565b6001600160a01b0381166156a95760405162461bcd60e51b8152600401610d0690616e52565b6156b281615eba565b50565b6001600160a01b03811660009081526013602090815260408083208054825181850281018501909352808352849383018282801561571257602002820191906000526020600020905b8154815260200190600101908083116156fe575b5050505050905080600182516157289190617d09565b8151811061574657634e487b7160e01b600052603260045260246000fd5b6020026020010151915050919050565b601d5490565b615764615a77565b3360009081526011602052604090206017546016546103e89161578691617cbe565b106157a35760405162461bcd60e51b8152600401610d0690617690565b600781015460ff16156157c85760405162461bcd60e51b8152600401610d0690616c9b565b60006157d2613657565b6001543360009081526014602052604090205491925090811115615818573360009081526014602052604081205461580b908390615bff565b905061581681613c1c565b505b336000908152601460205260409020548111156158475760405162461bcd60e51b8152600401610d0690616d23565b60168054600180820183556000929092527fd833147d7dc355ba459fc788f669e58cfaf9dc25ddcd0702e87d69c7b5124289018054336001600160a01b031991821681179092558554811682178655918501805490921617905560058301829055600783015460ff166158ca5760078301805460ff191660011790554260088401555b6001601d60008282546158dd9190617cbe565b909155505060405133907f439d77b7534ec3108fc6143bd4fbabde0b9f2bb54f7b0730d1f70dd2135b765f90615914908590616a60565b60405180910390a2505050565b601a54101590565b3360009081526011602052604090206007015460ff1690565b601e546001600160a01b031681565b6001600160a01b038082166000908152601160209081526040808320815161012081018352815486168152600182015490951692850192909252600282015490840152600381015460ff161515606084015260048101546080840152600581015460a08401526006810180549293849390929160c08401916159d290617d50565b80601f01602080910402602001604051908101604052809291908181526020018280546159fe90617d50565b8015615a4b5780601f10615a2057610100808354040283529160200191615a4b565b820191906000526020600020905b815481529060010190602001808311615a2e57829003601f168201915b5050509183525050600782015460ff161515602082015260089091015460409182015201519392505050565b6019546001600160a01b0316615a9f5760405162461bcd60e51b8152600401610d0690617533565b6019546040516000916001600160a01b031690615ac0903390602401616a93565b60408051601f198184030181529181526020820180516001600160e01b0316631f5ac9c560e11b17905251615af59190616a69565b6000604051808303816000865af19150503d8060008114615b32576040519150601f19603f3d011682016040523d82523d6000602084013e615b37565b606091505b50506019546040519192506000916001600160a01b0390911690615b5f903390602401616a93565b60408051601f198184030181529181526020820180516001600160e01b03166358563d2160e01b17905251615b949190616a69565b6000604051808303816000865af19150503d8060008114615bd1576040519150601f19603f3d011682016040523d82523d6000602084013e615bd6565b606091505b505090508180615be35750805b613c035760405162461bcd60e51b8152600401610d0690616d8a565b6000611c8c8284617d09565b60008060005b601754811015615c7f57836001600160a01b031660178281548110615c4657634e487b7160e01b600052603260045260246000fd5b6000918252602090912001546001600160a01b03161415615c6d5760019150809250615c7f565b80615c7781617d8b565b915050615c11565b508015615d5e5760178054615c9690600190617d09565b81548110615cb457634e487b7160e01b600052603260045260246000fd5b600091825260209091200154601780546001600160a01b039092169184908110615cee57634e487b7160e01b600052603260045260246000fd5b9060005260206000200160006101000a8154816001600160a01b0302191690836001600160a01b031602179055506017805480615d3b57634e487b7160e01b600052603160045260246000fd5b600082815260209020810160001990810180546001600160a01b03191690550190555b505050565b3390565b60008060005b601654811015615ddb57836001600160a01b031660168281548110615da257634e487b7160e01b600052603260045260246000fd5b6000918252602090912001546001600160a01b03161415615dc95760019150809250615ddb565b80615dd381617d8b565b915050615d6d565b508015615d5e5760168054615df290600190617d09565b81548110615e1057634e487b7160e01b600052603260045260246000fd5b600091825260209091200154601680546001600160a01b039092169184908110615e4a57634e487b7160e01b600052603260045260246000fd5b9060005260206000200160006101000a8154816001600160a01b0302191690836001600160a01b031602179055506016805480615d3b57634e487b7160e01b600052603160045260246000fd5b6000611c8c8284617cbe565b600081831015615eb35781611c8c565b5090919050565b600080546001600160a01b038381166001600160a01b0319831681178455604051919092169283917f8be0079c531659141344cd1fd0a4f28419497f9722a3daafe3b4186f6b6457e09190a35050565b805160609060005b81811015615f585780848281518110615f3b57634e487b7160e01b600052603260045260246000fd5b602090810291909101015280615f5081617d8b565b915050615f12565b509192915050565b60606000825111615f7057600080fd5b81518060005b818110156160eb57600083615f8961429a565b878481518110615fa957634e487b7160e01b600052603260045260246000fd5b6020026020010151604051602001615fc2929190616a85565b6040516020818303038152906040528051906020012060001c615fe59190617da6565b615ff0906001617cbe565b9050600086616000600184617d09565b8151811061601e57634e487b7160e01b600052603260045260246000fd5b60200260200101519050866001866160369190617d09565b8151811061605457634e487b7160e01b600052603260045260246000fd5b60200260200101518760018461606a9190617d09565b8151811061608857634e487b7160e01b600052603260045260246000fd5b602090810291909101015280876160a0600188617d09565b815181106160be57634e487b7160e01b600052603260045260246000fd5b60209081029190910101526160d4600186617d09565b9450505080806160e390617d8b565b915050615f76565b50929392505050565b82805461610090617d50565b90600052602060002090601f0160209004810192826161225760008555616168565b82601f1061613b57805160ff1916838001178555616168565b82800160010185558215616168579182015b8281111561616857825182559160200191906001019061614d565b50616174929150616312565b5090565b8280548282559060005260206000209081019282156161c5579160200282015b828111156161c557825180516161b59184916020909101906160f4565b5091602001919060010190616198565b50616174929150616327565b828054828255906000526020600020908101928215616168579160200282018281111561616857825182559160200191906001019061614d565b6040518061010001604052806060815260200160006001600160a01b0316815260200160008152602001606081526020016060815260200160608152602001606081526020016000600381111561627257634e487b7160e01b600052602160045260246000fd5b905290565b604051806101e00160405280600081526020016000815260200160008152602001600081526020016000151581526020016000151581526020016000151581526020016000815260200160008152602001600081526020016000815260200160608152602001600060038111156162fe57634e487b7160e01b600052602160045260246000fd5b815260200160608152602001606081525090565b5b808211156161745760008155600101616313565b8082111561617457600061633b8282616344565b50600101616327565b50805461635090617d50565b6000825580601f1061636257506156b2565b601f0160209004906000526020600020908101906156b29190616312565b80356001600160a01b038116811461105457600080fd5b60008083601f8401126163a8578182fd5b5081356001600160401b038111156163be578182fd5b60208301915083602080830285010111156163d857600080fd5b9250929050565b600082601f8301126163ef578081fd5b813560206164046163ff83617c8f565b617c66565b82815281810190858301855b8581101561643957616427898684358b01016164a0565b84529284019290840190600101616410565b5090979650505050505050565b600082601f830112616456578081fd5b813560206164666163ff83617c8f565b8281528181019085830183850287018401881015616482578586fd5b855b8581101561643957813584529284019290840190600101616484565b600082601f8301126164b0578081fd5b81356001600160401b038111156164c9576164c9617de6565b6164dc601f8201601f1916602001617c66565b8181528460208386010111156164f0578283fd5b816020850160208301379081016020019190915292915050565b60006020828403121561651b578081fd5b611c8c82616380565b60008060408385031215616536578081fd5b61653f83616380565b946020939093013593505050565b600080600060608486031215616561578081fd5b61656a84616380565b95602085013595506040909401359392505050565b600080600080600080600060c0888a031215616599578283fd5b87356001600160401b03808211156165af578485fd5b6165bb8b838c016163df565b98506165c960208b01616380565b975060408a01359150808211156165de578485fd5b6165ea8b838c01616397565b909750955060608a0135915080821115616602578485fd5b61660e8b838c016163df565b945060808a0135915080821115616623578384fd5b61662f8b838c01616446565b935060a08a0135915080821115616644578283fd5b506166518a828b016164a0565b91505092959891949750929550565b60008060008060008060608789031215616678578182fd5b86356001600160401b038082111561668e578384fd5b61669a8a838b01616397565b909850965060208901359150808211156166b2578384fd5b6166be8a838b01616397565b909650945060408901359150808211156166d6578384fd5b506166e389828a01616397565b979a9699509497509295939492505050565b600060208284031215616706578081fd5b81356001600160401b0381111561671b578182fd5b614fd584828501616446565b600060208284031215616738578081fd5b81518015158114611c8c578182fd5b60008060408385031215616759578182fd5b82356001600160401b038082111561676f578384fd5b61677b868387016164a0565b93506020850135915080821115616790578283fd5b5061679d858286016164a0565b9150509250929050565b6000602082840312156167b8578081fd5b5035919050565b600060208284031215611ed9578081fd5b600080604083850312156167e2578182fd5b823591506167f260208401616380565b90509250929050565b60008060006060848603121561680f578081fd5b833592506020840135915060408401356001600160401b03811115616832578182fd5b61683e868287016164a0565b9150509250925092565b6000806040838503121561685a578182fd5b50508035926020909101359150565b6000806000806080858703121561687e578182fd5b843593506020850135925061689560408601616380565b9396929550929360600135925050565b6000806000606084860312156168b9578081fd5b505081359360208301359350604090920135919050565b6001600160a01b03169052565b6000815180845260208085018081965082840281019150828601855b858110156169235782840389526169118483516169b6565b988501989350908401906001016168f9565b5091979650505050505050565b6000815180845260208085018081965082840281019150828601855b858110156169235782840389526169648483516169b6565b9885019893509084019060010161694c565b6000815180845260208085019450808401835b838110156169a557815187529582019590820190600101616989565b509495945050505050565b15159052565b600081518084526169ce816020860160208601617d20565b601f01601f19169290920160200192915050565b60048110616a0057634e487b7160e01b600052602160045260246000fd5b9052565b600a8152690c6dedadad2e890c2e6d60b31b602082015260400190565b60609190911b6bffffffffffffffffffffffff1916815260140190565b60609290921b6bffffffffffffffffffffffff19168252601482015260340190565b90815260200190565b60008251616a7b818460208701617d20565b9190910192915050565b918252602082015260400190565b6001600160a01b0391909116815260200190565b6001600160a01b038a81168252891660208201526040810188905286151560608201526080810186905260a0810185905261012060c08201819052600090616af1838201876169b6565b94151560e084015250506101000152979650505050505050565b600060208252611c8c6020830184616930565b600060208252611c8c6020830184616976565b901515815260200190565b600060208252611c8c60208301846169b6565b600060c08252616b6260c08301896169b6565b6001600160a01b0388166020840152604083018790528281036060840152616b8a81876169b6565b90508281036080840152616b9e81866169b6565b91505061138860a08301846169e2565b600060608252616bc160608301866169b6565b8281036020840152616bd381866169b6565b90508281036040840152616be78185616930565b9695505050505050565b6000602080835281845483600282049050600180831680616c1357607f831692505b858310811415616c3157634e487b7160e01b87526022600452602487fd5b616c3d83878a01616a60565b818015616c515760018114616c6257616c8c565b60ff19861682528782019650616c8c565b616c6b8b617cb2565b895b86811015616c8657815484820152908501908901616c6d565b83019750505b50949998505050505050505050565b6020808252601c908201527f576f726b657220697320616c7265616479207265676973746572656400000000604082015260600190565b60208082526031908201527f676976656e204461746142617463682073686f756c6420626520415050524f5660408201527011510b08185b99081a5d081a5cc81b9bdd607a1b606082015260800190565b60208082526041908201527f576f726b657220686173206e6f7420656e6f75676820285f6e756d546f6b656e60408201527f732920696e206869732053706f745374616b6564546f6b656e42616c616e63656060820152600160fd1b608082015260a00190565b60208082526025908201527f72656365697665722072656a6563746564205f7265747269657665534675656c6040820152640818d85b1b60da1b606082015260800190565b6020808252605c908201527f4e6f74207468652073616d6520766f7465207468616e2077686174207761732060408201527f636f6d6d697465642c20696d706f737369626c6520746f206d6174636820776960608201527f746820676976656e205f73616c742026205f766f74654f7074696f6e00000000608082015260a00190565b60208082526026908201527f4f776e61626c653a206e6577206f776e657220697320746865207a65726f206160408201526564647265737360d01b606082015260800190565b60208082526029908201527f6b206f72204e20617265206e6f74204f4b20647572696e672072616e646f6d2060408201526839b2b632b1ba34b7b760b91b606082015260800190565b6020808252601e908201527f636f6d6d697420706572696f64206e6565647320746f206265206f70656e0000604082015260600190565b6020808252602f908201527f636f756c64206e6f742072657761726420746f6b656e20696e2054726967676560408201526e3921b432b1b5a9b837ba161018973160891b606082015260800190565b6020808252602b908201527f576f726b6572206973206e6f7420617661696c61626c6520736f2063616e277460408201526a103ab73932b3b4b9ba32b960a91b606082015260800190565b6020808252603d908201527f436f756c64206e6f74207265717565737420656e6f75676820616c6c6f63617460408201527f6564207374616b652c2072657175657374566f74696e67526967687473000000606082015260800190565b6020808252602f908201527f5573657220686173206e6f7420636f6d6d69746564206265666f72652c20746860408201526e1d5cc818d85b89dd081c995d99585b608a1b606082015260800190565b6020808252602c908201527f4461746120426174636820436865636b696e6720636f6d6d69746565206d757360408201526b1d081a185d9948195b99195960a21b606082015260800190565b60208082526014908201527311185d18481b5d5cdd081a185d9948195b99195960621b604082015260600190565b60208082526052908201527f4572726f722072657665616c53706f74436865636b733a205f4461746142617460408201527f63684944732e6c656e67746820616e64205f766f74654f7074696f6e732e6c656060820152711b99dd1a081b5d5cdd08189948195c5d585b60721b608082015260a00190565b6020808252602d908201527f636f756c64206e6f74207265776172642052455020696e20547269676765724360408201526c6865636b53706f742c20312e6160981b606082015260800190565b60208082526039908201527f646c6c4d61703a20646f6573206e6f7420636f696e7461696e205f446174614260408201527f61746368496420666f7220746865206d73672073656e64657200000000000000606082015260800190565b6020808252602b908201527f75736572206d75737420686176652072657665616c656420696e20746869732060408201526a0ced2eccadc4084c2e8c6d60ab1b606082015260800190565b6020808252601490820152733737ba1030903b30b634b2103837b9b4ba34b7b760611b604082015260600190565b6020808252603b908201527f43616e277420616c6c6f6361746520776f726b2c207468652063757272656e7460408201527f20626174636820697320616c726561647920616c6c6f63617465640000000000606082015260800190565b60208082526048908201527f55736572206e6565647320746f2068617665206265656e20616c6c6f6361746560408201527f64207468652063757272656e74206461746120626174636820746f20636f6d6d6060820152671a5d081bdb881a5d60c21b608082015260a00190565b6020808252818101527f4f776e61626c653a2063616c6c6572206973206e6f7420746865206f776e6572604082015260600190565b6020808252603a908201527f5f446174614261746368496420686173206e6f7420656e6465642c206f72206e60408201527f6f7420657665727920766f74657273206861766520766f746564000000000000606082015260800190565b60208082526029908201527f6765744e756d50617373696e67546f6b656e733a20686173686573206d75737460408201526808189948195c5d585b60ba1b606082015260800190565b60208082526036908201527f43616e277420616c6c6f6361746520776f726b2c207468652063757272656e74604082015275206261746368206973206e6f7420636f6d706c65746560501b606082015260800190565b60208082526026908201527f52657665616c20706572696f64206e6f74206f70656e20666f7220746869732060408201526511185d18525160d21b606082015260800190565b60208082526027908201527f617661696c61626c65546f6b656e732073686f756c64206265203e3d205f6e756040820152666d546f6b656e7360c81b606082015260800190565b60208082526017908201527f5f4461746142617463684964206d757374206578697374000000000000000000604082015260600190565b6020808252601390820152720c081059191c995cdcc8139bdd0815985b1a59606a1b604082015260600190565b6020808252604c908201527f4572726f722072657665616c53706f74436865636b733a205f4461746142617460408201527f63684944732e6c656e67746820616e64205f73616c74732e6c656e677468206d60608201526b1d5cdd08189948195c5d585b60a21b608082015260a00190565b6020808252602f908201527f636f756c64206e6f742072657761726420746f6b656e20696e2054726967676560408201526e3921b432b1b5a9b837ba161019173160891b606082015260800190565b60208082526049908201527f4572726f72207768656e20636f6d6d697453706f74436865636b733a205f446160408201527f746142617463684944732e6c656e677468203d3d205f736563726574486173686060820152680cae65cd8cadccee8d60bb1b608082015260a00190565b60208082526022908201527f4d6178696d756d207265676973746572656420776f726b65727320616c726561604082015261647960f01b606082015260800190565b60208082526037908201527f75736572206d757374206861766520656e6f75676820766f74696e672072696760408201527f68747320616b6120616c6c6f6361746564207374616b65000000000000000000606082015260800190565b6020808252602d908201527f636f756c64206e6f74207265776172642052455020696e20547269676765724360408201526c6865636b53706f742c20322e6160981b606082015260800190565b6020808252602a908201527f5f446174614261746368496420636865636b696e6720766f7465206d757374206040820152691a185d9948195b99195960b21b606082015260800190565b6020808252603b908201527f436f756c64206e6f74207769746864726177566f74696e67526967687473207460408201527f68726f7567682050726f78795374616b654465616c6c6f636174650000000000606082015260800190565b6020808252600f908201526e11185d18481b5d5cdd08195e1a5cdd608a1b604082015260600190565b60208082526043908201527f6c61737420626174636820746f20636865636b206d75737420626520636f6d7060408201527f6c65746520746f2070726f6365656420696e20547269676765724e65787445706060820152620dec6d60eb1b608082015260a00190565b6000602082528251602083015260208301516040830152604083015160608301526060830151608083015260808301516178f260a08401826169b0565b5060a083015161790560c08401826169b0565b5060c083015161791860e08401826169b0565b5060e0830151610100838101919091528301516101208084019190915283015161014080840191909152830151610160808401919091528301516101e061018080850182905261796c6102008601846169b6565b908601519092506101a0617982868201836169e2565b80870151915050601f196101c08187860301818801526179a285846168dd565b908801518782039092018488015293509050616be78382616976565b6000858252846020830152608060408301526179dd60808301856169b6565b905082606083015295945050505050565b600083825282602083015260606040830152614fd560608301616a04565b600084825283602083015260806040830152617a2a60808301616a04565b9050826060830152949350505050565b9182526020820152606060408201819052600990820152686e756d546f6b656e7360b81b608082015260a00190565b93845260208401929092526040830152606082015260800190565b6000602082528251610100806020850152617aa36101208501836169b6565b91506020850151617ab760408601826168d0565b50604085015160608501526060850151601f1980868503016080870152617ade84836169b6565b935060808701519150808685030160a0870152617afb84836168dd565b935060a08701519150808685030160c0870152617b188483616976565b935060c08701519150808685030160e087015250617b3683826169b6565b92505060e0850151617b4a828601826169e2565b5090949350505050565b9182526001600160a01b0316602082015260400190565b9182526001600160a01b031660208201526000604082015260600190565b9283526020830191909152604082015260600190565b60006101a08f83528e60208401528d60408401528c60608401528b151560808401528a151560a084015289151560c08401528860e084015287610100840152866101208401528561014084015280610160840152617bff818401866169b6565b915050617c106101808301846169e2565b9e9d5050505050505050505050505050565b6000808335601e19843603018112617c38578283fd5b8301803591506001600160401b03821115617c51578283fd5b6020019150368190038213156163d857600080fd5b6040518181016001600160401b0381118282101715617c8757617c87617de6565b604052919050565b60006001600160401b03821115617ca857617ca8617de6565b5060209081020190565b60009081526020902090565b60008219821115617cd157617cd1617dba565b500190565b600082617ce557617ce5617dd0565b500490565b6000816000190483118215151615617d0457617d04617dba565b500290565b600082821015617d1b57617d1b617dba565b500390565b60005b83811015617d3b578181015183820152602001617d23565b83811115617d4a576000848401525b50505050565b600281046001821680617d6457607f821691505b60208210811415617d8557634e487b7160e01b600052602260045260246000fd5b50919050565b6000600019821415617d9f57617d9f617dba565b5060010190565b600082617db557617db5617dd0565b500690565b634e487b7160e01b600052601160045260246000fd5b634e487b7160e01b600052601260045260246000fd5b634e487b7160e01b600052604160045260246000fdfea26469706673582212208683943cee9f98ae9417e4c28f5268b380af35204c2501bd9e3868a88ac2a5fd64736f6c63430008000033",
  "linkReferences": {
    "contracts/worksystems/DataSpotting.sol": {
      "AttributeStore": [
        {
          "length": 20,
          "start": 16846
        },
        {
          "length": 20,
          "start": 16954
        },
        {
          "length": 20,
          "start": 19270
        },
        {
          "length": 20,
          "start": 19724
        }
      ],
      "DLL": [
        {
          "length": 20,
          "start": 3976
        },
        {
          "length": 20,
          "start": 7393
        },
        {
          "length": 20,
          "start": 7565
        },
        {
          "length": 20,
          "start": 8338
        },
        {
          "length": 20,
          "start": 15302
        },
        {
          "length": 20,
          "start": 15482
        },
        {
          "length": 20,
          "start": 16335
        },
        {
          "length": 20,
          "start": 16497
        },
        {
          "length": 20,
          "start": 16692
        }
      ]
    }
  },
  "deployedLinkReferences": {
    "contracts/worksystems/DataSpotting.sol": {
      "AttributeStore": [
        {
          "length": 20,
          "start": 16457
        },
        {
          "length": 20,
          "start": 16565
        },
        {
          "length": 20,
          "start": 18881
        },
        {
          "length": 20,
          "start": 19335
        }
      ],
      "DLL": [
        {
          "length": 20,
          "start": 3587
        },
        {
          "length": 20,
          "start": 7004
        },
        {
          "length": 20,
          "start": 7176
        },
        {
          "length": 20,
          "start": 7949
        },
        {
          "length": 20,
          "start": 14913
        },
        {
          "length": 20,
          "start": 15093
        },
        {
          "length": 20,
          "start": 15946
        },
        {
          "length": 20,
          "start": 16108
        },
        {
          "length": 20,
          "start": 16303
        }
      ]
    }
  }
}