{
  "_format": "hh-sol-artifact-1",
  "contractName": "DataSpotting",
  "sourceName": "contracts/worksystems/DataSpotting.sol",
  "abi": [
    {
      "inputs": [
        {
          "internalType": "address",
          "name": "EXDT_token",
          "type": "address"
        }
      ],
      "stateMutability": "nonpayable",
      "type": "constructor"
    },
    {
      "anonymous": false,
      "inputs": [
        {
          "indexed": true,
          "internalType": "address",
          "name": "previousOwner",
          "type": "address"
        },
        {
          "indexed": true,
          "internalType": "address",
          "name": "newOwner",
          "type": "address"
        }
      ],
      "name": "OwnershipTransferred",
      "type": "event"
    },
    {
      "anonymous": false,
      "inputs": [
        {
          "indexed": true,
          "internalType": "uint256",
          "name": "epochNumber",
          "type": "uint256"
        }
      ],
      "name": "_NewEpoch",
      "type": "event"
    },
    {
      "anonymous": false,
      "inputs": [
        {
          "indexed": false,
          "internalType": "bytes32",
          "name": "hash",
          "type": "bytes32"
        },
        {
          "indexed": true,
          "internalType": "address",
          "name": "creator",
          "type": "address"
        }
      ],
      "name": "_SpotAccepted",
      "type": "event"
    },
    {
      "anonymous": false,
      "inputs": [
        {
          "indexed": true,
          "internalType": "uint256",
          "name": "DataID",
          "type": "uint256"
        },
        {
          "indexed": false,
          "internalType": "uint256",
          "name": "numTokens",
          "type": "uint256"
        },
        {
          "indexed": true,
          "internalType": "address",
          "name": "voter",
          "type": "address"
        }
      ],
      "name": "_SpotCheckCommitted",
      "type": "event"
    },
    {
      "anonymous": false,
      "inputs": [
        {
          "indexed": true,
          "internalType": "uint256",
          "name": "DataID",
          "type": "uint256"
        },
        {
          "indexed": false,
          "internalType": "uint256",
          "name": "numTokens",
          "type": "uint256"
        },
        {
          "indexed": false,
          "internalType": "uint256",
          "name": "votesFor",
          "type": "uint256"
        },
        {
          "indexed": false,
          "internalType": "uint256",
          "name": "votesAgainst",
          "type": "uint256"
        },
        {
          "indexed": true,
          "internalType": "uint256",
          "name": "choice",
          "type": "uint256"
        },
        {
          "indexed": true,
          "internalType": "address",
          "name": "voter",
          "type": "address"
        }
      ],
      "name": "_SpotCheckRevealed",
      "type": "event"
    },
    {
      "anonymous": false,
      "inputs": [
        {
          "indexed": true,
          "internalType": "uint256",
          "name": "DataID",
          "type": "uint256"
        },
        {
          "indexed": false,
          "internalType": "bytes32",
          "name": "file_hash",
          "type": "bytes32"
        },
        {
          "indexed": false,
          "internalType": "string",
          "name": "URL_domain",
          "type": "string"
        },
        {
          "indexed": false,
          "internalType": "string[]",
          "name": "tags",
          "type": "string[]"
        },
        {
          "indexed": true,
          "internalType": "address",
          "name": "sender",
          "type": "address"
        }
      ],
      "name": "_SpotSubmitted",
      "type": "event"
    },
    {
      "anonymous": false,
      "inputs": [
        {
          "indexed": true,
          "internalType": "uint256",
          "name": "DataID",
          "type": "uint256"
        },
        {
          "indexed": true,
          "internalType": "address",
          "name": "voter",
          "type": "address"
        }
      ],
      "name": "_TokensRescued",
      "type": "event"
    },
    {
      "anonymous": false,
      "inputs": [
        {
          "indexed": false,
          "internalType": "uint256",
          "name": "numTokens",
          "type": "uint256"
        },
        {
          "indexed": true,
          "internalType": "address",
          "name": "voter",
          "type": "address"
        }
      ],
      "name": "_VotingRightsGranted",
      "type": "event"
    },
    {
      "anonymous": false,
      "inputs": [
        {
          "indexed": false,
          "internalType": "uint256",
          "name": "numTokens",
          "type": "uint256"
        },
        {
          "indexed": true,
          "internalType": "address",
          "name": "voter",
          "type": "address"
        }
      ],
      "name": "_VotingRightsWithdrawn",
      "type": "event"
    },
    {
      "anonymous": false,
      "inputs": [
        {
          "indexed": true,
          "internalType": "uint256",
          "name": "batchID",
          "type": "uint256"
        },
        {
          "indexed": false,
          "internalType": "address",
          "name": "worker",
          "type": "address"
        }
      ],
      "name": "_WorkAllocated",
      "type": "event"
    },
    {
      "anonymous": false,
      "inputs": [
        {
          "indexed": true,
          "internalType": "address",
          "name": "worker",
          "type": "address"
        },
        {
          "indexed": false,
          "internalType": "uint256",
          "name": "timestamp",
          "type": "uint256"
        }
      ],
      "name": "_WorkerRegistered",
      "type": "event"
    },
    {
      "anonymous": false,
      "inputs": [
        {
          "indexed": true,
          "internalType": "address",
          "name": "worker",
          "type": "address"
        },
        {
          "indexed": false,
          "internalType": "uint256",
          "name": "timestamp",
          "type": "uint256"
        }
      ],
      "name": "_WorkerUnregistered",
      "type": "event"
    },
    {
      "inputs": [],
      "name": "AddressManager",
      "outputs": [
        {
          "internalType": "contract IAddressManager",
          "name": "",
          "type": "address"
        }
      ],
      "stateMutability": "view",
      "type": "function"
    },
    {
      "inputs": [],
      "name": "AllocateWork",
      "outputs": [],
      "stateMutability": "nonpayable",
      "type": "function"
    },
    {
      "inputs": [],
      "name": "COMMIT_ROUND_DURATION",
      "outputs": [
        {
          "internalType": "uint256",
          "name": "",
          "type": "uint256"
        }
      ],
      "stateMutability": "view",
      "type": "function"
    },
    {
      "inputs": [],
      "name": "ChecksNonce",
      "outputs": [
        {
          "internalType": "uint256",
          "name": "",
          "type": "uint256"
        }
      ],
      "stateMutability": "view",
      "type": "function"
    },
    {
      "inputs": [],
      "name": "CurrentWorkEpoch",
      "outputs": [
        {
          "internalType": "uint256",
          "name": "",
          "type": "uint256"
        }
      ],
      "stateMutability": "view",
      "type": "function"
    },
    {
      "inputs": [
        {
          "internalType": "uint256",
          "name": "",
          "type": "uint256"
        }
      ],
      "name": "DataBatch",
      "outputs": [
        {
          "internalType": "uint256",
          "name": "start_idx",
          "type": "uint256"
        },
        {
          "internalType": "uint256",
          "name": "end_idx",
          "type": "uint256"
        },
        {
          "internalType": "uint256",
          "name": "counter",
          "type": "uint256"
        },
        {
          "internalType": "uint256",
          "name": "unrevealed_workers",
          "type": "uint256"
        },
        {
          "internalType": "bool",
          "name": "complete",
          "type": "bool"
        },
        {
          "internalType": "bool",
          "name": "checked",
          "type": "bool"
        },
        {
          "internalType": "bool",
          "name": "allocated_to_work",
          "type": "bool"
        },
        {
          "internalType": "uint256",
          "name": "commitEndDate",
          "type": "uint256"
        },
        {
          "internalType": "uint256",
          "name": "revealEndDate",
          "type": "uint256"
        },
        {
          "internalType": "uint256",
          "name": "votesFor",
          "type": "uint256"
        },
        {
          "internalType": "uint256",
          "name": "votesAgainst",
          "type": "uint256"
        },
        {
          "internalType": "enum DataSpotting.DataSatus",
          "name": "status",
          "type": "uint8"
        }
      ],
      "stateMutability": "view",
      "type": "function"
    },
    {
      "inputs": [
        {
          "internalType": "uint256",
          "name": "_DataBatchID",
          "type": "uint256"
        }
      ],
      "name": "DataCommitEndDate",
      "outputs": [
        {
          "internalType": "uint256",
          "name": "commitEndDate",
          "type": "uint256"
        }
      ],
      "stateMutability": "view",
      "type": "function"
    },
    {
      "inputs": [
        {
          "internalType": "uint256",
          "name": "_DataBatchID",
          "type": "uint256"
        }
      ],
      "name": "DataEnded",
      "outputs": [
        {
          "internalType": "bool",
          "name": "ended",
          "type": "bool"
        }
      ],
      "stateMutability": "view",
      "type": "function"
    },
    {
      "inputs": [
        {
          "internalType": "uint256",
          "name": "_DataBatchID",
          "type": "uint256"
        }
      ],
      "name": "DataExists",
      "outputs": [
        {
          "internalType": "bool",
          "name": "exists",
          "type": "bool"
        }
      ],
      "stateMutability": "view",
      "type": "function"
    },
    {
      "inputs": [],
      "name": "DataNonce",
      "outputs": [
        {
          "internalType": "uint256",
          "name": "",
          "type": "uint256"
        }
      ],
      "stateMutability": "view",
      "type": "function"
    },
    {
      "inputs": [
        {
          "internalType": "uint256",
          "name": "_DataBatchID",
          "type": "uint256"
        }
      ],
      "name": "DataRevealEndDate",
      "outputs": [
        {
          "internalType": "uint256",
          "name": "revealEndDate",
          "type": "uint256"
        }
      ],
      "stateMutability": "view",
      "type": "function"
    },
    {
      "inputs": [
        {
          "internalType": "address",
          "name": "user_",
          "type": "address"
        }
      ],
      "name": "GetCurrentWork",
      "outputs": [
        {
          "internalType": "uint256",
          "name": "",
          "type": "uint256"
        }
      ],
      "stateMutability": "view",
      "type": "function"
    },
    {
      "inputs": [
        {
          "internalType": "address",
          "name": "user_",
          "type": "address"
        }
      ],
      "name": "IsNewWorkAvailable",
      "outputs": [
        {
          "internalType": "bool",
          "name": "",
          "type": "bool"
        }
      ],
      "stateMutability": "view",
      "type": "function"
    },
    {
      "inputs": [],
      "name": "MIN_PARTICIPANTS_FOR_VALIDITY",
      "outputs": [
        {
          "internalType": "uint256",
          "name": "",
          "type": "uint256"
        }
      ],
      "stateMutability": "view",
      "type": "function"
    },
    {
      "inputs": [],
      "name": "MIN_REP_Data",
      "outputs": [
        {
          "internalType": "uint256",
          "name": "",
          "type": "uint256"
        }
      ],
      "stateMutability": "view",
      "type": "function"
    },
    {
      "inputs": [],
      "name": "MIN_REP_REVEAL",
      "outputs": [
        {
          "internalType": "uint256",
          "name": "",
          "type": "uint256"
        }
      ],
      "stateMutability": "view",
      "type": "function"
    },
    {
      "inputs": [],
      "name": "MIN_REWARD_Data",
      "outputs": [
        {
          "internalType": "uint256",
          "name": "",
          "type": "uint256"
        }
      ],
      "stateMutability": "view",
      "type": "function"
    },
    {
      "inputs": [],
      "name": "MIN_REWARD_REVEAL",
      "outputs": [
        {
          "internalType": "uint256",
          "name": "",
          "type": "uint256"
        }
      ],
      "stateMutability": "view",
      "type": "function"
    },
    {
      "inputs": [],
      "name": "MIN_STAKE",
      "outputs": [
        {
          "internalType": "uint256",
          "name": "",
          "type": "uint256"
        }
      ],
      "stateMutability": "view",
      "type": "function"
    },
    {
      "inputs": [
        {
          "internalType": "address",
          "name": "",
          "type": "address"
        },
        {
          "internalType": "uint256",
          "name": "",
          "type": "uint256"
        }
      ],
      "name": "MasterWorkers",
      "outputs": [
        {
          "internalType": "address",
          "name": "",
          "type": "address"
        }
      ],
      "stateMutability": "view",
      "type": "function"
    },
    {
      "inputs": [],
      "name": "REVEAL_ROUND_DURATION",
      "outputs": [
        {
          "internalType": "uint256",
          "name": "",
          "type": "uint256"
        }
      ],
      "stateMutability": "view",
      "type": "function"
    },
    {
      "inputs": [],
      "name": "RegisterWorker",
      "outputs": [],
      "stateMutability": "nonpayable",
      "type": "function"
    },
    {
      "inputs": [],
      "name": "RepManager",
      "outputs": [
        {
          "internalType": "contract IRepManager",
          "name": "",
          "type": "address"
        }
      ],
      "stateMutability": "view",
      "type": "function"
    },
    {
      "inputs": [],
      "name": "RewardManager",
      "outputs": [
        {
          "internalType": "contract IRewardManager",
          "name": "",
          "type": "address"
        }
      ],
      "stateMutability": "view",
      "type": "function"
    },
    {
      "inputs": [],
      "name": "SPOT_CHECK_VOTE_QUORUM",
      "outputs": [
        {
          "internalType": "uint256",
          "name": "",
          "type": "uint256"
        }
      ],
      "stateMutability": "view",
      "type": "function"
    },
    {
      "inputs": [
        {
          "internalType": "bytes32",
          "name": "file_hash",
          "type": "bytes32"
        },
        {
          "internalType": "address",
          "name": "main_worker_account",
          "type": "address"
        },
        {
          "internalType": "string",
          "name": "URL_domain_",
          "type": "string"
        },
        {
          "internalType": "string[]",
          "name": "tags_",
          "type": "string[]"
        },
        {
          "internalType": "uint256[]",
          "name": "tags_id_",
          "type": "uint256[]"
        },
        {
          "internalType": "bytes32",
          "name": "extra_",
          "type": "bytes32"
        }
      ],
      "name": "SpotData",
      "outputs": [
        {
          "internalType": "uint256",
          "name": "Dataid_",
          "type": "uint256"
        }
      ],
      "stateMutability": "nonpayable",
      "type": "function"
    },
    {
      "inputs": [
        {
          "internalType": "address",
          "name": "",
          "type": "address"
        }
      ],
      "name": "SpotStakedTokenBalance",
      "outputs": [
        {
          "internalType": "uint256",
          "name": "",
          "type": "uint256"
        }
      ],
      "stateMutability": "view",
      "type": "function"
    },
    {
      "inputs": [
        {
          "internalType": "uint256",
          "name": "",
          "type": "uint256"
        }
      ],
      "name": "SpotsMapping",
      "outputs": [
        {
          "internalType": "bytes32",
          "name": "ipfs_hash",
          "type": "bytes32"
        },
        {
          "internalType": "address",
          "name": "author",
          "type": "address"
        },
        {
          "internalType": "uint256",
          "name": "timestamp",
          "type": "uint256"
        },
        {
          "internalType": "string",
          "name": "URL_domain",
          "type": "string"
        },
        {
          "internalType": "bytes32",
          "name": "extra",
          "type": "bytes32"
        },
        {
          "internalType": "enum DataSpotting.DataSatus",
          "name": "status",
          "type": "uint8"
        }
      ],
      "stateMutability": "view",
      "type": "function"
    },
    {
      "inputs": [],
      "name": "StakeManager",
      "outputs": [
        {
          "internalType": "contract IStakeManager",
          "name": "",
          "type": "address"
        }
      ],
      "stateMutability": "view",
      "type": "function"
    },
    {
      "inputs": [
        {
          "internalType": "uint256",
          "name": "_DataBatchID",
          "type": "uint256"
        }
      ],
      "name": "TriggerCheckSpottedData",
      "outputs": [],
      "stateMutability": "nonpayable",
      "type": "function"
    },
    {
      "inputs": [],
      "name": "UnregisterWorker",
      "outputs": [],
      "stateMutability": "nonpayable",
      "type": "function"
    },
    {
      "inputs": [],
      "name": "WorkersNonce",
      "outputs": [
        {
          "internalType": "uint256",
          "name": "",
          "type": "uint256"
        }
      ],
      "stateMutability": "view",
      "type": "function"
    },
    {
      "inputs": [
        {
          "internalType": "address",
          "name": "",
          "type": "address"
        }
      ],
      "name": "WorkersState",
      "outputs": [
        {
          "internalType": "uint256",
          "name": "array_idx",
          "type": "uint256"
        },
        {
          "internalType": "address",
          "name": "worker_address",
          "type": "address"
        },
        {
          "internalType": "address",
          "name": "master_address",
          "type": "address"
        },
        {
          "internalType": "uint256",
          "name": "allocated_work_batch",
          "type": "uint256"
        },
        {
          "internalType": "bool",
          "name": "has_completed_work",
          "type": "bool"
        },
        {
          "internalType": "uint256",
          "name": "work_epoch_deadline",
          "type": "uint256"
        },
        {
          "internalType": "uint256",
          "name": "last_worked_round",
          "type": "uint256"
        },
        {
          "internalType": "uint256",
          "name": "last_interaction_date",
          "type": "uint256"
        },
        {
          "internalType": "bool",
          "name": "is_available_now",
          "type": "bool"
        },
        {
          "internalType": "bytes32",
          "name": "extra",
          "type": "bytes32"
        },
        {
          "internalType": "bool",
          "name": "registered",
          "type": "bool"
        },
        {
          "internalType": "uint256",
          "name": "registration_date",
          "type": "uint256"
        }
      ],
      "stateMutability": "view",
      "type": "function"
    },
    {
      "inputs": [
        {
          "internalType": "address",
          "name": "_user",
          "type": "address"
        },
        {
          "internalType": "uint256",
          "name": "_DataBatchID",
          "type": "uint256"
        }
      ],
      "name": "attrUUID",
      "outputs": [
        {
          "internalType": "bytes32",
          "name": "UUID",
          "type": "bytes32"
        }
      ],
      "stateMutability": "pure",
      "type": "function"
    },
    {
      "inputs": [
        {
          "internalType": "uint256",
          "name": "",
          "type": "uint256"
        }
      ],
      "name": "availableWorkers",
      "outputs": [
        {
          "internalType": "address",
          "name": "",
          "type": "address"
        }
      ],
      "stateMutability": "view",
      "type": "function"
    },
    {
      "inputs": [
        {
          "internalType": "uint256",
          "name": "",
          "type": "uint256"
        }
      ],
      "name": "busyWorkers",
      "outputs": [
        {
          "internalType": "address",
          "name": "",
          "type": "address"
        }
      ],
      "stateMutability": "view",
      "type": "function"
    },
    {
      "inputs": [
        {
          "internalType": "uint256",
          "name": "_DataBatchID",
          "type": "uint256"
        }
      ],
      "name": "commitPeriodActive",
      "outputs": [
        {
          "internalType": "bool",
          "name": "active",
          "type": "bool"
        }
      ],
      "stateMutability": "view",
      "type": "function"
    },
    {
      "inputs": [
        {
          "internalType": "uint256",
          "name": "_DataBatchID",
          "type": "uint256"
        },
        {
          "internalType": "bytes32",
          "name": "_secretHash",
          "type": "bytes32"
        }
      ],
      "name": "commitSpotCheck",
      "outputs": [],
      "stateMutability": "nonpayable",
      "type": "function"
    },
    {
      "inputs": [
        {
          "internalType": "uint256[]",
          "name": "_DataBatchIDs",
          "type": "uint256[]"
        },
        {
          "internalType": "bytes32[]",
          "name": "_secretHashes",
          "type": "bytes32[]"
        }
      ],
      "name": "commitSpotChecks",
      "outputs": [],
      "stateMutability": "nonpayable",
      "type": "function"
    },
    {
      "inputs": [],
      "name": "current_batch_nounce",
      "outputs": [
        {
          "internalType": "uint256",
          "name": "",
          "type": "uint256"
        }
      ],
      "stateMutability": "view",
      "type": "function"
    },
    {
      "inputs": [
        {
          "internalType": "address",
          "name": "_voter",
          "type": "address"
        },
        {
          "internalType": "uint256",
          "name": "_DataBatchID",
          "type": "uint256"
        }
      ],
      "name": "didCommit",
      "outputs": [
        {
          "internalType": "bool",
          "name": "committed",
          "type": "bool"
        }
      ],
      "stateMutability": "view",
      "type": "function"
    },
    {
      "inputs": [
        {
          "internalType": "address",
          "name": "_voter",
          "type": "address"
        },
        {
          "internalType": "uint256",
          "name": "_DataBatchID",
          "type": "uint256"
        }
      ],
      "name": "didReveal",
      "outputs": [
        {
          "internalType": "bool",
          "name": "revealed",
          "type": "bool"
        }
      ],
      "stateMutability": "view",
      "type": "function"
    },
    {
      "inputs": [],
      "name": "getBlockTimestamp",
      "outputs": [
        {
          "internalType": "uint256",
          "name": "blocktimestamp",
          "type": "uint256"
        }
      ],
      "stateMutability": "view",
      "type": "function"
    },
    {
      "inputs": [
        {
          "internalType": "address",
          "name": "_voter",
          "type": "address"
        },
        {
          "internalType": "uint256",
          "name": "_DataBatchID",
          "type": "uint256"
        }
      ],
      "name": "getCommitHash",
      "outputs": [
        {
          "internalType": "bytes32",
          "name": "commitHash",
          "type": "bytes32"
        }
      ],
      "stateMutability": "view",
      "type": "function"
    },
    {
      "inputs": [
        {
          "internalType": "uint256",
          "name": "_DataBatchID",
          "type": "uint256"
        }
      ],
      "name": "getDomainsForBatch",
      "outputs": [
        {
          "internalType": "string[]",
          "name": "ipfs_hash_list",
          "type": "string[]"
        }
      ],
      "stateMutability": "view",
      "type": "function"
    },
    {
      "inputs": [
        {
          "internalType": "uint256",
          "name": "_voteOption",
          "type": "uint256"
        },
        {
          "internalType": "uint256",
          "name": "_salt",
          "type": "uint256"
        }
      ],
      "name": "getEncryptedHash",
      "outputs": [
        {
          "internalType": "bytes32",
          "name": "keccak256hash",
          "type": "bytes32"
        }
      ],
      "stateMutability": "view",
      "type": "function"
    },
    {
      "inputs": [
        {
          "internalType": "uint256",
          "name": "a",
          "type": "uint256"
        },
        {
          "internalType": "uint256",
          "name": "b",
          "type": "uint256"
        }
      ],
      "name": "getHash",
      "outputs": [
        {
          "internalType": "bytes32",
          "name": "keccak256hash",
          "type": "bytes32"
        }
      ],
      "stateMutability": "pure",
      "type": "function"
    },
    {
      "inputs": [
        {
          "internalType": "uint256",
          "name": "_DataBatchID",
          "type": "uint256"
        }
      ],
      "name": "getIPFShashesForBatch",
      "outputs": [
        {
          "internalType": "bytes32[]",
          "name": "ipfs_hash_list",
          "type": "bytes32[]"
        }
      ],
      "stateMutability": "view",
      "type": "function"
    },
    {
      "inputs": [
        {
          "internalType": "address",
          "name": "_voter",
          "type": "address"
        },
        {
          "internalType": "uint256",
          "name": "_numTokens",
          "type": "uint256"
        },
        {
          "internalType": "uint256",
          "name": "_DataBatchID",
          "type": "uint256"
        }
      ],
      "name": "getInsertPointForNumTokens",
      "outputs": [
        {
          "internalType": "uint256",
          "name": "prevNode",
          "type": "uint256"
        }
      ],
      "stateMutability": "view",
      "type": "function"
    },
    {
      "inputs": [],
      "name": "getLastDataId",
      "outputs": [
        {
          "internalType": "uint256",
          "name": "DataId",
          "type": "uint256"
        }
      ],
      "stateMutability": "view",
      "type": "function"
    },
    {
      "inputs": [
        {
          "internalType": "address",
          "name": "_voter",
          "type": "address"
        }
      ],
      "name": "getLastNode",
      "outputs": [
        {
          "internalType": "uint256",
          "name": "DataID",
          "type": "uint256"
        }
      ],
      "stateMutability": "view",
      "type": "function"
    },
    {
      "inputs": [
        {
          "internalType": "address",
          "name": "user",
          "type": "address"
        }
      ],
      "name": "getLastUserDataId",
      "outputs": [
        {
          "internalType": "uint256",
          "name": "DataId",
          "type": "uint256"
        }
      ],
      "stateMutability": "view",
      "type": "function"
    },
    {
      "inputs": [
        {
          "internalType": "address",
          "name": "_voter",
          "type": "address"
        }
      ],
      "name": "getLockedTokens",
      "outputs": [
        {
          "internalType": "uint256",
          "name": "numTokens",
          "type": "uint256"
        }
      ],
      "stateMutability": "view",
      "type": "function"
    },
    {
      "inputs": [
        {
          "internalType": "address",
          "name": "_voter",
          "type": "address"
        },
        {
          "internalType": "uint256",
          "name": "_DataBatchID",
          "type": "uint256"
        },
        {
          "internalType": "uint256",
          "name": "_salt",
          "type": "uint256"
        }
      ],
      "name": "getNumPassingTokens",
      "outputs": [
        {
          "internalType": "uint256",
          "name": "correctSpotChecks",
          "type": "uint256"
        }
      ],
      "stateMutability": "view",
      "type": "function"
    },
    {
      "inputs": [
        {
          "internalType": "address",
          "name": "_voter",
          "type": "address"
        },
        {
          "internalType": "uint256",
          "name": "_DataBatchID",
          "type": "uint256"
        }
      ],
      "name": "getNumTokens",
      "outputs": [
        {
          "internalType": "uint256",
          "name": "numTokens",
          "type": "uint256"
        }
      ],
      "stateMutability": "view",
      "type": "function"
    },
    {
      "inputs": [],
      "name": "getRandom",
      "outputs": [
        {
          "internalType": "uint256",
          "name": "",
          "type": "uint256"
        }
      ],
      "stateMutability": "view",
      "type": "function"
    },
    {
      "inputs": [],
      "name": "getSeed",
      "outputs": [
        {
          "internalType": "bytes32",
          "name": "addr",
          "type": "bytes32"
        }
      ],
      "stateMutability": "view",
      "type": "function"
    },
    {
      "inputs": [
        {
          "internalType": "uint256",
          "name": "_DataBatchID",
          "type": "uint256"
        }
      ],
      "name": "getTotalNumberOfSpotChecks",
      "outputs": [
        {
          "internalType": "uint256",
          "name": "vc",
          "type": "uint256"
        }
      ],
      "stateMutability": "view",
      "type": "function"
    },
    {
      "inputs": [
        {
          "internalType": "uint256",
          "name": "_DataBatchID",
          "type": "uint256"
        }
      ],
      "name": "getTotalNumberOfTokensForWinningOption",
      "outputs": [
        {
          "internalType": "uint256",
          "name": "numTokens",
          "type": "uint256"
        }
      ],
      "stateMutability": "view",
      "type": "function"
    },
    {
      "inputs": [
        {
          "internalType": "address",
          "name": "user",
          "type": "address"
        }
      ],
      "name": "getUserDatas",
      "outputs": [
        {
          "internalType": "uint256[]",
          "name": "user_Datas",
          "type": "uint256[]"
        }
      ],
      "stateMutability": "view",
      "type": "function"
    },
    {
      "inputs": [
        {
          "internalType": "uint256",
          "name": "_terminationDate",
          "type": "uint256"
        }
      ],
      "name": "isExpired",
      "outputs": [
        {
          "internalType": "bool",
          "name": "expired",
          "type": "bool"
        }
      ],
      "stateMutability": "view",
      "type": "function"
    },
    {
      "inputs": [
        {
          "internalType": "uint256",
          "name": "_DataBatchID",
          "type": "uint256"
        }
      ],
      "name": "isPassed",
      "outputs": [
        {
          "internalType": "bool",
          "name": "passed",
          "type": "bool"
        }
      ],
      "stateMutability": "view",
      "type": "function"
    },
    {
      "inputs": [
        {
          "internalType": "address",
          "name": "_worker",
          "type": "address"
        }
      ],
      "name": "isWorkerRegistered",
      "outputs": [
        {
          "internalType": "bool",
          "name": "passed",
          "type": "bool"
        }
      ],
      "stateMutability": "view",
      "type": "function"
    },
    {
      "inputs": [],
      "name": "owner",
      "outputs": [
        {
          "internalType": "address",
          "name": "",
          "type": "address"
        }
      ],
      "stateMutability": "view",
      "type": "function"
    },
    {
      "inputs": [
        {
          "internalType": "uint256",
          "name": "k",
          "type": "uint256"
        },
        {
          "internalType": "uint256",
          "name": "N",
          "type": "uint256"
        }
      ],
      "name": "random_selection",
      "outputs": [
        {
          "internalType": "uint256[]",
          "name": "",
          "type": "uint256[]"
        }
      ],
      "stateMutability": "view",
      "type": "function"
    },
    {
      "inputs": [],
      "name": "renounceOwnership",
      "outputs": [],
      "stateMutability": "nonpayable",
      "type": "function"
    },
    {
      "inputs": [
        {
          "internalType": "uint256",
          "name": "_numTokens",
          "type": "uint256"
        }
      ],
      "name": "requestVotingRights",
      "outputs": [],
      "stateMutability": "nonpayable",
      "type": "function"
    },
    {
      "inputs": [
        {
          "internalType": "uint256",
          "name": "_DataBatchID",
          "type": "uint256"
        }
      ],
      "name": "rescueTokens",
      "outputs": [],
      "stateMutability": "nonpayable",
      "type": "function"
    },
    {
      "inputs": [
        {
          "internalType": "uint256[]",
          "name": "_DataBatchIDs",
          "type": "uint256[]"
        }
      ],
      "name": "rescueTokensInMultipleDatas",
      "outputs": [],
      "stateMutability": "nonpayable",
      "type": "function"
    },
    {
      "inputs": [
        {
          "internalType": "uint256",
          "name": "_DataBatchID",
          "type": "uint256"
        }
      ],
      "name": "revealPeriodActive",
      "outputs": [
        {
          "internalType": "bool",
          "name": "active",
          "type": "bool"
        }
      ],
      "stateMutability": "view",
      "type": "function"
    },
    {
      "inputs": [
        {
          "internalType": "uint256",
          "name": "_DataBatchID",
          "type": "uint256"
        },
        {
          "internalType": "uint256",
          "name": "_voteOption",
          "type": "uint256"
        },
        {
          "internalType": "uint256",
          "name": "_salt",
          "type": "uint256"
        }
      ],
      "name": "revealSpotCheck",
      "outputs": [],
      "stateMutability": "nonpayable",
      "type": "function"
    },
    {
      "inputs": [
        {
          "internalType": "uint256[]",
          "name": "_DataBatchIDs",
          "type": "uint256[]"
        },
        {
          "internalType": "uint256[]",
          "name": "_voteOptions",
          "type": "uint256[]"
        },
        {
          "internalType": "uint256[]",
          "name": "_salts",
          "type": "uint256[]"
        }
      ],
      "name": "revealSpotChecks",
      "outputs": [],
      "stateMutability": "nonpayable",
      "type": "function"
    },
    {
      "inputs": [],
      "name": "sFuel",
      "outputs": [
        {
          "internalType": "address",
          "name": "",
          "type": "address"
        }
      ],
      "stateMutability": "view",
      "type": "function"
    },
    {
      "inputs": [
        {
          "internalType": "uint256",
          "name": "N",
          "type": "uint256"
        }
      ],
      "name": "shuffle_array",
      "outputs": [
        {
          "internalType": "uint256[]",
          "name": "",
          "type": "uint256[]"
        }
      ],
      "stateMutability": "view",
      "type": "function"
    },
    {
      "inputs": [],
      "name": "token",
      "outputs": [
        {
          "internalType": "contract IERC20",
          "name": "",
          "type": "address"
        }
      ],
      "stateMutability": "view",
      "type": "function"
    },
    {
      "inputs": [
        {
          "internalType": "address",
          "name": "newOwner",
          "type": "address"
        }
      ],
      "name": "transferOwnership",
      "outputs": [],
      "stateMutability": "nonpayable",
      "type": "function"
    },
    {
      "inputs": [
        {
          "internalType": "address",
          "name": "addr",
          "type": "address"
        }
      ],
      "name": "updateAddressManager",
      "outputs": [],
      "stateMutability": "nonpayable",
      "type": "function"
    },
    {
      "inputs": [
        {
          "internalType": "uint256",
          "name": "COMMIT_ROUND_DURATION_",
          "type": "uint256"
        }
      ],
      "name": "updateCommitRoundDuration",
      "outputs": [],
      "stateMutability": "nonpayable",
      "type": "function"
    },
    {
      "inputs": [
        {
          "internalType": "address",
          "name": "addr",
          "type": "address"
        }
      ],
      "name": "updateRepManager",
      "outputs": [],
      "stateMutability": "nonpayable",
      "type": "function"
    },
    {
      "inputs": [
        {
          "internalType": "uint256",
          "name": "REVEAL_ROUND_DURATION_",
          "type": "uint256"
        }
      ],
      "name": "updateRevealRoundDuration",
      "outputs": [],
      "stateMutability": "nonpayable",
      "type": "function"
    },
    {
      "inputs": [
        {
          "internalType": "address",
          "name": "addr",
          "type": "address"
        }
      ],
      "name": "updateRewardManager",
      "outputs": [],
      "stateMutability": "nonpayable",
      "type": "function"
    },
    {
      "inputs": [
        {
          "internalType": "address",
          "name": "addr",
          "type": "address"
        }
      ],
      "name": "updateStakeManager",
      "outputs": [],
      "stateMutability": "nonpayable",
      "type": "function"
    },
    {
      "inputs": [
        {
          "internalType": "address",
          "name": "sFuel_",
          "type": "address"
        }
      ],
      "name": "updatesFuelFaucet",
      "outputs": [],
      "stateMutability": "nonpayable",
      "type": "function"
    },
    {
      "inputs": [
        {
          "internalType": "address",
          "name": "",
          "type": "address"
        },
        {
          "internalType": "uint256",
          "name": "",
          "type": "uint256"
        }
      ],
      "name": "userSubmissions",
      "outputs": [
        {
          "internalType": "uint256",
          "name": "",
          "type": "uint256"
        }
      ],
      "stateMutability": "view",
      "type": "function"
    },
    {
      "inputs": [
        {
          "internalType": "uint256",
          "name": "_prevID",
          "type": "uint256"
        },
        {
          "internalType": "uint256",
          "name": "_nextID",
          "type": "uint256"
        },
        {
          "internalType": "address",
          "name": "_voter",
          "type": "address"
        },
        {
          "internalType": "uint256",
          "name": "_numTokens",
          "type": "uint256"
        }
      ],
      "name": "validPosition",
      "outputs": [
        {
          "internalType": "bool",
          "name": "APPROVED",
          "type": "bool"
        }
      ],
      "stateMutability": "view",
      "type": "function"
    },
    {
      "inputs": [
        {
          "internalType": "uint256",
          "name": "_numTokens",
          "type": "uint256"
        }
      ],
      "name": "withdrawVotingRights",
      "outputs": [],
      "stateMutability": "nonpayable",
      "type": "function"
    }
  ],
  "bytecode": "0x6080604052678ac7230489e8000060058190556802b5e3af16b18800006006819055600791909155600855603c6009556000600f819055601081905560118190556012819055601b80546001600160a01b0319167314f52f3fc010ab6ca81568d4a6794d5eab3c6155179055601c553480156200007b57600080fd5b5060405162005ea838038062005ea88339810160408190526200009e9162000150565b620000b2620000ac620000fc565b62000100565b601e80546001600160a01b0319166001600160a01b03929092169190911781556000601081905560115568056bc75e2d631000006001908155600255600381905560045562000180565b3390565b600080546001600160a01b038381166001600160a01b0319831681178455604051919092169283917f8be0079c531659141344cd1fd0a4f28419497f9722a3daafe3b4186f6b6457e09190a35050565b60006020828403121562000162578081fd5b81516001600160a01b038116811462000179578182fd5b9392505050565b615d1880620001906000396000f3fe608060405234801561001057600080fd5b50600436106104c25760003560e01c8063821aa8c011610278578063c4e4f82a1161015c578063e7805f9e116100ce578063f2fde38b11610092578063f2fde38b14610a09578063f343894614610a1c578063f716596d14610a2f578063f721de4a14610a37578063fc0c546a14610a4a578063fca4956314610a52576104c2565b8063e7805f9e146109b5578063e798a7da146109bd578063e7b1d43c146109d0578063e8e9b6f9146109e3578063ed8becfa146109f6576104c2565b8063d822ce0111610120578063d822ce0114610943578063d901402b14610956578063d9548e5314610969578063dd6186821461097c578063df05368e1461098f578063e44c974b146109a2576104c2565b8063c4e4f82a146108ef578063c7c063fb14610902578063cb1c2b5c14610915578063d13820921461091d578063d37a4db214610930576104c2565b8063a4439dc5116101f5578063b1a2e0be116101b9578063b1a2e0be14610890578063b1cf4a7e14610590578063b43bd069146108a3578063b8f011b3146108b6578063c47c4bc2146108c9578063c4bea2cb146108dc576104c2565b8063a4439dc514610852578063a511dba014610865578063aa7ca4641461086d578063aacc5a1714610880578063ab43e78d14610888576104c2565b8063976035601161023c57806397603560146107f35780639b7e0180146108065780639fc9c52f14610819578063a1103f371461082c578063a25236fe1461083f576104c2565b8063821aa8c01461079257806383cc6ef2146107a55780638c89d027146107ad5780638da5cb5b146107d85780638f4621ad146107e0576104c2565b8063427fa1d2116103aa578063667bf0f81161031c578063796b89b9116102e0578063796b89b9146107295780637a34da67146107315780637ce1c4d4146107395780637f97e836146107415780637fabe35b14610754578063819b02931461077f576104c2565b8063667bf0f8146106eb5780636b2d95d4146106f3578063715018a61461070657806371880b1b1461070e5780637827e54914610721576104c2565b8063579db71c1161036e578063579db71c1461068d57806358002158146106ad578063590785b1146106c05780635fd87909146106d35780636277bf65146106db57806362b7e941146106e3576104c2565b8063427fa1d214610639578063441c77c01461064c578063494031831461065f5780634d8842811461067257806351912f2914610685576104c2565b80631b85504411610443578063313066ee11610407578063313066ee146105f357806332ac1ba2146105fb5780633538af821461060e57806337d5f2381461062157806339e7357c146106295780633ad2131f14610631576104c2565b80631b85504414610590578063226ed300146105a3578063275c2590146105c357806329a47bc7146105cb5780632c052031146105e0576104c2565b80630772ca9c1161048a5780630772ca9c146105335780630b96c5b01461053b5780630e6661a7146105605780630e670feb1461056857806319d9034614610570576104c2565b806302fa9c68146104c7578063035fbb55146104dc57806304dbcda7146104ef578063050eb2eb1461050d578063053e71a614610520575b600080fd5b6104da6104d53660046149b9565b610a65565b005b6104da6104ea366004614c6a565b610aeb565b6104f7610ddd565b6040516105049190614d92565b60405180910390f35b6104da61051b366004614944565b610de3565b6104f761052e366004614be4565b610e44565b6104f7610eaa565b61054e610549366004614be4565b610eb0565b60405161050496959493929190614e3b565b6104f7610f7d565b6104f7610f83565b61058361057e366004614be4565b610f89565b6040516105049190614e1d565b6104f761059e366004614c0d565b611314565b6105b66105b1366004614be4565b611347565b6040516105049190614e30565b6104da61138f565b6105d3611466565b6040516105049190614dc5565b6104f76105ee366004614987565b611475565b6104f7611612565b6104f7610609366004614be4565b611618565b6105d361061c366004614be4565b61163c565b6104f7611666565b6104f761166c565b6104f7611689565b6104f7610647366004614944565b61168f565b6105b661065a366004614be4565b61172f565b6105b661066d366004614be4565b611789565b6104da610680366004614944565b611a0d565b6105d3611a6e565b6106a061069b366004614944565b611a7d565b6040516105049190614dd9565b6104da6106bb366004614be4565b611ae9565b6104da6106ce366004614be4565b611b2d565b6104f7611fbb565b6104f7611fc1565b6104f7611fc7565b6104da611fcd565b6104f7610701366004614944565b612378565b6104da612387565b6104f761071c366004614be4565b6123d2565b6104f761240f565b6104f7612415565b6105d3612419565b6104f7612428565b6105b661074f36600461495e565b61242e565b610767610762366004614be4565b612481565b6040516105049c9b9a99989796959493929190615ae6565b6105b661078d366004614c2e565b6124e7565b6105d36107a0366004614be4565b612528565b6105d3612538565b6107c06107bb366004614944565b612547565b6040516105049c9b9a99989796959493929190615a50565b6105d36125bb565b6104f76107ee366004614b0b565b6125ca565b6104da610801366004614be4565b6128aa565b6104f761081436600461495e565b612a59565b6104da610827366004614ab8565b612a8a565b6104f761083a36600461495e565b612adc565b6104da61084d366004614be4565b612af1565b6105b6610860366004614be4565b612bf2565b6104f7612c34565b6105b661087b36600461495e565b612c3a565b6104f7612c8d565b6105d3612d42565b6105b661089e366004614944565b612d51565b6104f76108b1366004614987565b612e4a565b6106a06108c4366004614c0d565b612f36565b6104da6108d7366004614944565b613099565b6104da6108ea366004614c0d565b6130fa565b6104f76108fd366004614be4565b61352e565b6104f7610910366004614944565b61356b565b6104f761357d565b6104f761092b36600461495e565b613583565b6104da61093e366004614a22565b613618565b6105d361095136600461495e565b6136d3565b6104f761096436600461495e565b61370b565b6105b6610977366004614be4565b613750565b6104da61098a366004614944565b613755565b6104da61099d366004614944565b6137b6565b6106a06109b0366004614be4565b613817565b6104f7613891565b6105b66109cb366004614944565b613897565b6104da6109de366004614be4565b6138b1565b6104da6109f1366004614be4565b6139ed565b6106a0610a04366004614be4565b613a31565b6104da610a17366004614944565b613d1c565b6104f7610a2a366004614944565b613d8d565b6104da613e2e565b6105b6610a45366004614be4565b613fd3565b6105d3613fe8565b6104f7610a60366004614944565b613ff7565b828114610a7157600080fd5b60005b83811015610ae457610ad2858583818110610a9f57634e487b7160e01b600052603260045260246000fd5b90506020020135848484818110610ac657634e487b7160e01b600052603260045260246000fd5b905060200201356130fa565b80610adc81615c71565b915050610a74565b5050505050565b610af36140b1565b610afc8361172f565b610b215760405162461bcd60e51b8152600401610b1890615703565b60405180910390fd5b336000908152600a6020908152604080832086845290915290205460ff16610b5b5760405162461bcd60e51b8152600401610b1890615353565b336000908152600b6020908152604080832086845290915290205460ff1615610b965760405162461bcd60e51b8152600401610b189061530d565b610ba0338461370b565b8282604051602001610bb3929190614db7565b6040516020818303038152906040528051906020012014610be65760405162461bcd60e51b8152600401610b1890614faf565b6000610bf23385613583565b90508260011415610c29576000848152601d602052604081206007018054839290610c1e908490615ba4565b90915550610c509050565b6000848152601d602052604081206008018054839290610c4a908490615ba4565b90915550505b336000908152600d60205260409081902090516301039dfd60e11b815273__$85afbab79b2b776d70bef879a32ed56424$__916302073bfa91610c9891908890600401614db7565b60006040518083038186803b158015610cb057600080fd5b505af4158015610cc4573d6000803e3d6000fd5b5050336000818152600b602090815260408083208a84528252808320805460ff19166001908117909155600c8352818420948452938252808320899055601382528083206003808201548552601d90935292200154909350610d2792509061420b565b600382810180546000908152601d6020526040808220840194909455600885018054600160ff199182168117909255600487018054909116909117905590548152919091200154610d7b57610d7b85611b2d565b6000858152601d602052604090819020600781015460089091015491513392879289927f0867b5027231dcbf37614eaad07d667b9febaf9fdf483f488229b1f140bb074892610dce928992909190615ad0565b60405180910390a45050505050565b60065481565b610deb614217565b6001600160a01b0316610dfc6125bb565b6001600160a01b031614610e225760405162461bcd60e51b8152600401610b18906155c2565b602180546001600160a01b0319166001600160a01b0392909216919091179055565b6000610e4f82611347565b610e6b5760405162461bcd60e51b8152600401610b18906153cc565b610e7482611789565b15610e9157506000818152601d6020526040902060070154610ea5565b506000818152601d60205260409020600801545b919050565b60115481565b601460205260009081526040902080546001820154600283015460038401805493946001600160a01b0390931693919291610eea90615c36565b80601f0160208091040260200160405190810160405280929190818152602001828054610f1690615c36565b8015610f635780601f10610f3857610100808354040283529160200191610f63565b820191906000526020600020905b815481529060010190602001808311610f4657829003601f168201915b50505050600683015460079093015491929160ff16905086565b60105481565b60075481565b6060610f9482613fd3565b610fb05760405162461bcd60e51b8152600401610b1890615492565b6000828152601d6020908152604080832081516101c081018352815481526001820154938101939093526002808201549284019290925260038101546060840152600481015460ff808216151560808601526101008083048216151560a0870152620100009092048116151560c0860152600583015460e086015260068301549185019190915260078201546101208501526008820154610140850152600982015491926101608501929091169081111561107b57634e487b7160e01b600052602160045260246000fd5b600281111561109a57634e487b7160e01b600052602160045260246000fd5b8152602001600a8201805480602002602001604051908101604052809291908181526020016000905b8282101561116f5783829060005260206000200180546110e290615c36565b80601f016020809104026020016040519081016040528092919081815260200182805461110e90615c36565b801561115b5780601f106111305761010080835404028352916020019161115b565b820191906000526020600020905b81548152906001019060200180831161113e57829003601f168201915b5050505050815260200190600101906110c3565b505050508152602001600b82018054806020026020016040519081016040528092919081815260200182805480156111c657602002820191906000526020600020905b8154815260200190600101908083116111b2575b5050509190925250505060408181015182518251600580825260c082019094529394509092909160009190816020015b60608152602001906001900390816111f657905050905060005b8381101561130a578451600090611228908390615ba4565b60008181526014602052604081206003018054929350909161124990615c36565b80601f016020809104026020016040519081016040528092919081815260200182805461127590615c36565b80156112c25780601f10611297576101008083540402835291602001916112c2565b820191906000526020600020905b8154815290600101906020018083116112a557829003601f168201915b50505050509050808484815181106112ea57634e487b7160e01b600052603260045260246000fd5b60200260200101819052505050808061130290615c71565b915050611210565b5095945050505050565b60008282604051602001611329929190614db7565b60405160208183030381529060405280519060200120905092915050565b600061135282613fd3565b61136e5760405162461bcd60e51b8152600401610b189061594a565b6000828152601d602052604090206006015461138990613750565b92915050565b6113976140b1565b336000908152601360205260409020600881015460ff1615156001146113cf5760405162461bcd60e51b8152600401610b189061523a565b60006113d9612415565b90506113e43361421b565b600182018054336001600160a01b03199182168117909255600284018054909116821790556007830182905560088301805460ff19908116909155600a8401805490911690556040517f9dadcedba048e92b943ea1c5861cee1df63a566d7f795869c004780c1c698e2b9061145a908490614d92565b60405180910390a25050565b6020546001600160a01b031681565b6000806114818561168f565b9050600061148f8683613583565b90505b8115611607576114a28683613583565b905084811161155f5783821415611557576001600160a01b0386166000908152600d60205260409081902090516301c39b2b60e11b815273__$85afbab79b2b776d70bef879a32ed56424$__9163038736569161150491908690600401614db7565b60206040518083038186803b15801561151c57600080fd5b505af4158015611530573d6000803e3d6000fd5b505050506040513d601f19601f820116820180604052508101906115549190614bfc565b91505b50905061160b565b6001600160a01b0386166000908152600d60205260409081902090516301c39b2b60e11b815273__$85afbab79b2b776d70bef879a32ed56424$__916303873656916115b091908690600401614db7565b60206040518083038186803b1580156115c857600080fd5b505af41580156115dc573d6000803e3d6000fd5b505050506040513d601f19601f820116820180604052508101906116009190614bfc565b9150611492565b5090505b9392505050565b600f5481565b6000818152601d602052604081206008810154600790910154829161160b91615ba4565b6018818154811061164c57600080fd5b6000918252602090912001546001600160a01b0316905081565b60125481565b60405160009080602081848060185afa61168257fe5b5051919050565b60095481565b6001600160a01b0381166000908152600d602052604080822090516301c39b2b60e11b815273__$85afbab79b2b776d70bef879a32ed56424$__916303873656916116df91908590600401614db7565b60206040518083038186803b1580156116f757600080fd5b505af415801561170b573d6000803e3d6000fd5b505050506040513d601f19601f820116820180604052508101906113899190614bfc565b600061173a82613fd3565b6117565760405162461bcd60e51b8152600401610b1890615492565b6000828152601d602052604090206006015461177190613750565b158015611389575061178282612bf2565b1592915050565b600061179482611347565b6117b05760405162461bcd60e51b8152600401610b18906153cc565b6000828152601d6020908152604080832081516101c081018352815481526001820154938101939093526002808201549284019290925260038101546060840152600481015460ff808216151560808601526101008083048216151560a0870152620100009092048116151560c0860152600583015460e086015260068301549185019190915260078201546101208501526008820154610140850152600982015491926101608501929091169081111561187b57634e487b7160e01b600052602160045260246000fd5b600281111561189a57634e487b7160e01b600052602160045260246000fd5b8152602001600a8201805480602002602001604051908101604052809291908181526020016000905b8282101561196f5783829060005260206000200180546118e290615c36565b80601f016020809104026020016040519081016040528092919081815260200182805461190e90615c36565b801561195b5780601f106119305761010080835404028352916020019161195b565b820191906000526020600020905b81548152906001019060200180831161193e57829003601f168201915b5050505050815260200190600101906118c3565b505050508152602001600b82018054806020026020016040519081016040528092919081815260200182805480156119c657602002820191906000526020600020905b8154815260200190600101908083116119b2575b50505050508152505090508061014001518161012001516119e79190615ba4565b6009546119f49190615bd0565b610120820151611a05906064615bd0565b119392505050565b611a15614217565b6001600160a01b0316611a266125bb565b6001600160a01b031614611a4c5760405162461bcd60e51b8152600401610b18906155c2565b601b80546001600160a01b0319166001600160a01b0392909216919091179055565b6021546001600160a01b031681565b6001600160a01b038116600090815260156020908152604091829020805483518184028101840190945280845260609392830182828015611add57602002820191906000526020600020905b815481526020019060010190808311611ac9575b50505050509050919050565b611af1614217565b6001600160a01b0316611b026125bb565b6001600160a01b031614611b285760405162461bcd60e51b8152600401610b18906155c2565b600455565b611b3681611347565b611b525760405162461bcd60e51b8152600401610b1890615032565b6000611b5d82611789565b6000838152601a6020908152604080832080548251818502810185019093528083529495509293909291830182828015611bc057602002820191906000526020600020905b81546001600160a01b03168152600190910190602001808311611ba2575b5050505050905060005b8151811015611f5c576000828281518110611bf557634e487b7160e01b600052603260045260246000fd5b6020908102919091018101516000878152600c835260408082206001600160a01b0384168352845280822054600b85528183208a845290945290205490925060ff168015611dd2576001600160a01b0383166000908152601360205260409020600401805460ff19166001908117909155861515148015611c765750816001145b80611c8b575085158015611c8b575081600114155b15611dd257602054600854604051630db6cc8560e11b81526001600160a01b0390921691631b6d990a91611cc3918790600401615ab2565b602060405180830381600087803b158015611cdd57600080fd5b505af1158015611cf1573d6000803e3d6000fd5b505050506040513d601f19601f82011682018060405250810190611d159190614aeb565b611d315760405162461bcd60e51b8152600401610b18906153fa565b602154600654604051633832942560e21b81526001600160a01b039092169163e0ca509491611d64918790600401615a39565b602060405180830381600087803b158015611d7e57600080fd5b505af1158015611d92573d6000803e3d6000fd5b505050506040513d601f19601f82011682018060405250810190611db69190614aeb565b611dd25760405162461bcd60e51b8152600401610b18906151c4565b8515611f46576020805460085460008a81526014909352604092839020600101549251630db6cc8560e11b81526001600160a01b0392831693631b6d990a93611e219392911690600401615ab2565b602060405180830381600087803b158015611e3b57600080fd5b505af1158015611e4f573d6000803e3d6000fd5b505050506040513d601f19601f82011682018060405250810190611e739190614aeb565b611e8f5760405162461bcd60e51b8152600401610b18906158a0565b60215460065460008981526014602052604090819020600101549051633832942560e21b81526001600160a01b039384169363e0ca509493611ed8939092911690600401615a39565b602060405180830381600087803b158015611ef257600080fd5b505af1158015611f06573d6000803e3d6000fd5b505050506040513d601f19601f82011682018060405250810190611f2a9190614aeb565b611f465760405162461bcd60e51b8152600401610b18906157f4565b5050508080611f5490615c71565b915050611bca565b50600083815260146020526040908190206001810154905491516001600160a01b03909116917f9f46dcc78ae2c110fe71d7f90ab27524f70ee1517f4c1ddca4a3c37c95c518b591611fae9190614d92565b60405180910390a2505050565b60045481565b60055481565b60025481565b601c546000908152601d602052604090206004015460ff166120015760405162461bcd60e51b8152600401610b18906156ad565b601c546000908152601d602052604090206004015462010000900460ff161561203c5760405162461bcd60e51b8152600401610b18906154f7565b60185460009061206590606490612054906005615bd0565b61205e9190615bbc565b6001614277565b601854601c546000908152601d60205260408120600390810184905554600454939450919290612095428461428d565b905060006120a3828461428d565b601c80546000908152601d60205260408082206005018690558254825280822060060184905591548152908120600401805462ff00001916620100001790559091506120ef8787612f36565b90506000815167ffffffffffffffff81111561211b57634e487b7160e01b600052604160045260246000fd5b604051908082528060200260200182016040528015612144578160200160208202803683370190505b50905060005b825181101561220357601883828151811061217557634e487b7160e01b600052603260045260246000fd5b60200260200101518154811061219b57634e487b7160e01b600052603260045260246000fd5b9060005260206000200160009054906101000a90046001600160a01b03168282815181106121d957634e487b7160e01b600052603260045260246000fd5b6001600160a01b0390921660209283029190910190910152806121fb81615c71565b91505061214a565b5060005b825181101561236d57600082828151811061223257634e487b7160e01b600052603260045260246000fd5b6020908102919091018101516001600160a01b03811660008181526013845260408082206019805460018181019092557f944998273e477b495144fb8794c914197f3ccb46be2900f4698fd0ef743c96950180546001600160a01b03199081168717909155601c548552601a885292842080549182018155845295909220909401805490941690911790925585519092506122f4908690859081106122e757634e487b7160e01b600052603260045260246000fd5b6020026020010151614299565b601c5460038083019190915560048201805460ff19169055600f5461231891615ba4565b6005820155601c546040517fe4ee2dfabe57cee15e3f558890b20455f54c1fa0718e5276faad70a6500e6b8c90612350908590614dc5565b60405180910390a25050808061236590615c71565b915050612207565b505050505050505050565b60006113898261092b8461168f565b61238f614217565b6001600160a01b03166123a06125bb565b6001600160a01b0316146123c65760405162461bcd60e51b8152600401610b18906155c2565b6123d06000614373565b565b60006123dd82613fd3565b6123f95760405162461bcd60e51b8152600401610b1890615492565b506000908152601d602052604090206006015490565b60085481565b4290565b6022546001600160a01b031681565b601c5481565b600061243982613fd3565b6124555760405162461bcd60e51b8152600401610b1890615492565b506001600160a01b03919091166000908152600a60209081526040808320938352929052205460ff1690565b601d602052600090815260409020805460018201546002830154600384015460048501546005860154600687015460078801546008890154600990990154979896979596949560ff8086169661010087048216966201000090048216959493929091168c565b6000806124f48487613583565b831015905060006125058587613583565b84111580612511575085155b905081801561251d5750805b979650505050505050565b6019818154811061164c57600080fd5b601f546001600160a01b031681565b601360205260009081526040902080546001820154600283015460038401546004850154600586015460068701546007880154600889015460098a0154600a8b0154600b909b0154999a6001600160a01b03998a169a9990981698969760ff9687169795969495939492831693919216908c565b6000546001600160a01b031690565b6001543360009081526016602052604081205490919081111561260f573360009081526016602052604081205461260290839061420b565b905061260d81612af1565b505b3360009081526016602052604090205481111561263e5760405162461bcd60e51b8152600401610b1890615843565b8861265b5760405162461bcd60e51b8152600401610b1890615213565b601054612669906001615ba4565b6010819055336000818152601560209081526040808320805460018101825590845292829020909201939093558051610100810182528c81528084019290925242828201528051601f8a0184900484028101840190915288815290916060830191908a908a9081908401838280828437600092018290525093855250505060208201889052604082018790526060820186905260809091015260105460009081526014602090815260409182902083518155838201516001820180546001600160a01b0319166001600160a01b03909216919091179055918301516002830155606083015180516127609260038501920190614638565b506080820151805161277c9160048401916020909101906146bc565b5060a08201518051612798916005840191602090910190614715565b5060c0820151600682015560e082015160078201805460ff191660018360028111156127d457634e487b7160e01b600052602160045260246000fd5b021790555050601c546000908152601d6020526040902090506127f960016005615bef565b8160020154101561282b5760018160020160008282546128199190615ba4565b9091555050601054600182015561284f565b60048101805461ff001960ff199091166001171690556128496143c3565b60105481555b336001600160a01b03166010547f735f01c8544ff7d9ec6dd8d8d6fb7b15ca7e443d08bab790a4694c1ee901615c8c8b8b8b6040516128919493929190614e7d565b60405180910390a3505060105498975050505050505050565b60016000828152601d602052604090206009015460ff1660028111156128e057634e487b7160e01b600052602160045260246000fd5b146128fd5760405162461bcd60e51b8152600401610b1890614ef7565b336000908152600d60205260409081902090516306120d1f60e31b815273__$85afbab79b2b776d70bef879a32ed56424$__9163309068f89161294591908590600401614db7565b60206040518083038186803b15801561295d57600080fd5b505af4158015612971573d6000803e3d6000fd5b505050506040513d601f19601f820116820180604052508101906129959190614aeb565b6129b15760405162461bcd60e51b8152600401610b18906150e6565b336000908152600d60205260409081902090516301039dfd60e11b815273__$85afbab79b2b776d70bef879a32ed56424$__916302073bfa916129f991908590600401614db7565b60006040518083038186803b158015612a1157600080fd5b505af4158015612a25573d6000803e3d6000fd5b50506040513392508391507f402507661c8c8cb90e0a796450b8bdd28b6c516f05279c0cd29e84c344e1699a90600090a350565b60156020528160005260406000208181548110612a7557600080fd5b90600052602060002001600091509150505481565b60005b8151811015612ad857612ac6828281518110612ab957634e487b7160e01b600052603260045260246000fd5b60200260200101516128aa565b80612ad081615c71565b915050612a8d565b5050565b60008282604051602001611329929190614d70565b601f546040516304ada21f60e21b81526001600160a01b03909116906312b6887c90612b239084903390600401615a39565b602060405180830381600087803b158015612b3d57600080fd5b505af1158015612b51573d6000803e3d6000fd5b505050506040513d601f19601f82011682018060405250810190612b759190614aeb565b612b915760405162461bcd60e51b8152600401610b1890615285565b3360009081526016602052604081208054839290612bb0908490615ba4565b909155505060405133907ff7aaf024511d9982df8cd0d437c71c30106e6848cd1ba3d288d7a9c0e276aeda90612be7908490614d92565b60405180910390a250565b6000612bfd82613fd3565b612c195760405162461bcd60e51b8152600401610b1890615492565b6000828152601d602052604090206005015461178290613750565b60105490565b6000612c4582613fd3565b612c615760405162461bcd60e51b8152600401610b1890615492565b506001600160a01b03919091166000908152600b60209081526040808320938352929052205460ff1690565b6000804241604051602001612ca29190614d53565b6040516020818303038152906040528051906020012060001c612cc59190615bbc565b44612cce61166c565b604051602001612cde9190614d92565b60408051601f198184030181529190528051602090910120612d009042615ba4565b612d0a9190615ba4565b612d149190615ba4565b604051602001612d249190614d92565b60408051601f19818403018152919052805160209091012091505090565b601b546001600160a01b031681565b6001600160a01b03808216600090815260136020908152604080832081516101808101835281548152600182015486169381019390935260028101549094169082015260038301546060820152600483015460ff90811615156080830152600584015460a0830152600684015460c0830152600784015460e08301526008840154811615156101008301526009840154610120830152600a8401541615156101408201819052600b909301546101608201529091612e215760405162461bcd60e51b8152600401610b1890615790565b6080810151600090158015612e3b5750600f548260a00151115b1561160b575060019392505050565b6000612e5583611347565b612e715760405162461bcd60e51b8152600401610b1890615143565b6001600160a01b0384166000908152600b6020908152604080832086845290915290205460ff16612eb45760405162461bcd60e51b8152600401610b1890615447565b6000612ebf84611789565b612eca576000612ecd565b60015b60ff16905060008184604051602001612ee7929190614db7565b6040516020818303038152906040528051906020012090506000612f0b878761370b565b9050808214612f2c5760405162461bcd60e51b8152600401610b1890615664565b61251d8787613583565b606060018211612f4557600080fd5b818311158015612f56575060018310155b612f5f57600080fd5b60008267ffffffffffffffff811115612f8857634e487b7160e01b600052604160045260246000fd5b604051908082528060200260200182016040528015612fb1578160200160208202803683370190505b50905060008467ffffffffffffffff811115612fdd57634e487b7160e01b600052604160045260246000fd5b604051908082528060200260200182016040528015613006578160200160208202803683370190505b509050600061301c6130178461444e565b6144a4565b905060005b8681101561308e5781818151811061304957634e487b7160e01b600052603260045260246000fd5b602002602001015183828151811061307157634e487b7160e01b600052603260045260246000fd5b60209081029190910101528061308681615c71565b915050613021565b509095945050505050565b6130a1614217565b6001600160a01b03166130b26125bb565b6001600160a01b0316146130d85760405162461bcd60e51b8152600401610b18906155c2565b602280546001600160a01b0319166001600160a01b0392909216919091179055565b6131026140b1565b61310b82612bf2565b6131275760405162461bcd60e51b8152600401610b18906150af565b8161313133613ff7565b1461314e5760405162461bcd60e51b8152600401610b1890615554565b60015433600090815260166020526040902054811115613190573360009081526016602052604081205461318390839061420b565b905061318e81612af1565b505b336000908152601660205260409020548111156131bf5760405162461bcd60e51b8152600401610b1890615843565b826131dc5760405162461bcd60e51b8152600401610b18906152e2565b816131f95760405162461bcd60e51b8152600401610b18906153a2565b6000336000908152600d60205260408082209051631e0f232560e31b815273__$85afbab79b2b776d70bef879a32ed56424$__9163f07919289161324291908690600401614db7565b60206040518083038186803b15801561325a57600080fd5b505af415801561326e573d6000803e3d6000fd5b505050506040513d601f19601f820116820180604052508101906132929190614bfc565b90508481141561333757336000908152600d6020526040908190209051631e0f232560e31b815273__$85afbab79b2b776d70bef879a32ed56424$__9163f0791928916132e491908990600401614db7565b60206040518083038186803b1580156132fc57600080fd5b505af4158015613310573d6000803e3d6000fd5b505050506040513d601f19601f820116820180604052508101906133349190614bfc565b90505b613343828233866124e7565b61335f5760405162461bcd60e51b8152600401610b18906154c9565b336000908152600d602052604090819020905163524cfe5360e11b815273__$85afbab79b2b776d70bef879a32ed56424$__9163a499fca6916133ab919086908a908790600401615a1e565b60006040518083038186803b1580156133c357600080fd5b505af41580156133d7573d6000803e3d6000fd5b5050505060006133e73387612adc565b60408051808201825260098152686e756d546f6b656e7360b81b6020820152905163099b040f60e31b81529192509073__$0947e710b66d7779e1d561254425e1375a$__90634cd820789061344790600e90869086908b90600401615973565b60006040518083038186803b15801561345f57600080fd5b505af4158015613473573d6000803e3d6000fd5b505060405163099b040f60e31b815273__$0947e710b66d7779e1d561254425e1375a$__9250634cd8207891506134b390600e9086908b906004016159c1565b60006040518083038186803b1580156134cb57600080fd5b505af41580156134df573d6000803e3d6000fd5b50505050336001600160a01b0316877f42864d9683ff5b12c3b2cc65d705af5aab104b03bc700b802f79e5c971ef08a18760405161351d9190614d92565b60405180910390a350505050505050565b600061353982613fd3565b6135555760405162461bcd60e51b8152600401610b1890615492565b506000908152601d602052604090206005015490565b60166020526000908152604090205481565b60015481565b600073__$0947e710b66d7779e1d561254425e1375a$__6369810158600e6135ab8686612adc565b6040518363ffffffff1660e01b81526004016135c89291906159ef565b60206040518083038186803b1580156135e057600080fd5b505af41580156135f4573d6000803e3d6000fd5b505050506040513d601f19601f8201168201806040525081019061160b9190614bfc565b84831461362457600080fd5b84811461363057600080fd5b60005b858110156136ca576136b887878381811061365e57634e487b7160e01b600052603260045260246000fd5b9050602002013586868481811061368557634e487b7160e01b600052603260045260246000fd5b905060200201358585858181106136ac57634e487b7160e01b600052603260045260246000fd5b90506020020135610aeb565b806136c281615c71565b915050613633565b50505050505050565b601760205281600052604060002081815481106136ef57600080fd5b6000918252602090912001546001600160a01b03169150829050565b600073__$0947e710b66d7779e1d561254425e1375a$__6369810158600e6137338686612adc565b6040518363ffffffff1660e01b81526004016135c89291906159a3565b421190565b61375d614217565b6001600160a01b031661376e6125bb565b6001600160a01b0316146137945760405162461bcd60e51b8152600401610b18906155c2565b602080546001600160a01b0319166001600160a01b0392909216919091179055565b6137be614217565b6001600160a01b03166137cf6125bb565b6001600160a01b0316146137f55760405162461bcd60e51b8152600401610b18906155c2565b601f80546001600160a01b0319166001600160a01b0392909216919091179055565b60606001821161382657600080fd5b60008267ffffffffffffffff81111561384f57634e487b7160e01b600052604160045260246000fd5b604051908082528060200260200182016040528015613878578160200160208202803683370190505b50905060006138896130178361444e565b949350505050565b60035481565b50336000908152601360205260409020600a015460ff1690565b60006138d56138bf33612378565b336000908152601660205260409020549061420b565b9050818110156138f75760405162461bcd60e51b8152600401610b1890615749565b601f54604051630895993360e11b81526001600160a01b039091169063112b3266906139299085903390600401615a39565b602060405180830381600087803b15801561394357600080fd5b505af1158015613957573d6000803e3d6000fd5b505050506040513d601f19601f8201168201806040525081019061397b9190614aeb565b6139975760405162461bcd60e51b8152600401610b18906158ed565b33600090815260166020526040812080548492906139b6908490615bef565b909155505060405133907ffaeb7dbb9992397d26ea1944efd40c80b40f702faf69b46c67ad10aba68ccb799061145a908590614d92565b6139f5614217565b6001600160a01b0316613a066125bb565b6001600160a01b031614613a2c5760405162461bcd60e51b8152600401610b18906155c2565b600355565b6060613a3c82613fd3565b613a585760405162461bcd60e51b8152600401610b1890615492565b6000828152601d6020908152604080832081516101c081018352815481526001820154938101939093526002808201549284019290925260038101546060840152600481015460ff808216151560808601526101008083048216151560a0870152620100009092048116151560c0860152600583015460e0860152600683015491850191909152600782015461012085015260088201546101408501526009820154919261016085019290911690811115613b2357634e487b7160e01b600052602160045260246000fd5b6002811115613b4257634e487b7160e01b600052602160045260246000fd5b8152602001600a8201805480602002602001604051908101604052809291908181526020016000905b82821015613c17578382906000526020600020018054613b8a90615c36565b80601f0160208091040260200160405190810160405280929190818152602001828054613bb690615c36565b8015613c035780601f10613bd857610100808354040283529160200191613c03565b820191906000526020600020905b815481529060010190602001808311613be657829003601f168201915b505050505081526020019060010190613b6b565b505050508152602001600b8201805480602002602001604051908101604052809291908181526020018280548015613c6e57602002820191906000526020600020905b815481526020019060010190808311613c5a575b5050509190925250505060408181015182518251600580825260c0820190945293945090929091600091906020820160a08036833701905050905060005b8381101561130a578451600090613cc4908390615ba4565b6000818152601460205260409020548451919250908190859085908110613cfb57634e487b7160e01b600052603260045260246000fd5b60200260200101818152505050508080613d1490615c71565b915050613cac565b613d24614217565b6001600160a01b0316613d356125bb565b6001600160a01b031614613d5b5760405162461bcd60e51b8152600401610b18906155c2565b6001600160a01b038116613d815760405162461bcd60e51b8152600401610b1890615069565b613d8a81614373565b50565b6001600160a01b038116600090815260156020908152604080832080548251818502810185019093528083528493830182828015613dea57602002820191906000526020600020905b815481526020019060010190808311613dd6575b505050505090508060018251613e009190615bef565b81518110613e1e57634e487b7160e01b600052603260045260246000fd5b6020026020010151915050919050565b613e366140b1565b336000908152601360205260409020600881015460ff1615613e6a5760405162461bcd60e51b8152600401610b1890614ec0565b6000613e74612415565b6001543360009081526016602052604090205491925090811115613eba5733600090815260166020526040812054613ead90839061420b565b9050613eb881612af1565b505b33600090815260166020526040902054811115613ee95760405162461bcd60e51b8152600401610b1890614f48565b601880546001818101835560008390527fb13d2d76d1f4b7be834882e410b3e3a8afaf69f83600ae24db354391d2378d2e90910180546001600160a01b031916331790559054613f399190615bef565b835560018084018054336001600160a01b0319918216811790925560028601805490911690911790556007840183905560088401805460ff19169091179055600a83015460ff16613f9a57600a8301805460ff1916600117905542600b8401555b336001600160a01b03167f439d77b7534ec3108fc6143bd4fbabde0b9f2bb54f7b0730d1f70dd2135b765f83604051611fae9190614d92565b60008115801590611389575050601054101590565b601e546001600160a01b031681565b6001600160a01b03908116600090815260136020908152604091829020825161018081018452815481526001820154851692810192909252600281015490931691810191909152600382015460608201819052600483015460ff90811615156080840152600584015460a0840152600684015460c0840152600784015460e08401526008840154811615156101008401526009840154610120840152600a840154161515610140830152600b909201546101609091015290565b601b546001600160a01b03166140d95760405162461bcd60e51b8152600401610b18906157c7565b601b546040516000916001600160a01b0316906140fa903390602401614dc5565b60408051601f198184030181529181526020820180516001600160e01b0316631f5ac9c560e11b1790525161412f9190614d9b565b6000604051808303816000865af19150503d806000811461416c576040519150601f19603f3d011682016040523d82523d6000602084013e614171565b606091505b5050601b546040519192506000916001600160a01b0390911690614199903390602401614dc5565b60408051601f198184030181529181526020820180516001600160e01b03166358563d2160e01b179052516141ce9190614d9b565b6000604051808303816000865af19150503d8060008114610ae4576040519150601f19603f3d011682016040523d82523d6000602084013e610ae4565b600061160b8284615bef565b3390565b6001600160a01b0381166000908152601360205260409020600881015460ff16801561424b5750600a81015460ff165b6142675760405162461bcd60e51b8152600401610b18906155f7565b805461427281614299565b505050565b6000818310614286578161160b565b5090919050565b600061160b8284615ba4565b601880546142a990600190615bef565b815481106142c757634e487b7160e01b600052603260045260246000fd5b600091825260209091200154601880546001600160a01b03909216918390811061430157634e487b7160e01b600052603260045260246000fd5b9060005260206000200160006101000a8154816001600160a01b0302191690836001600160a01b03160217905550601880548061434e57634e487b7160e01b600052603160045260246000fd5b600082815260209020810160001990810180546001600160a01b031916905501905550565b600080546001600160a01b038381166001600160a01b0319831681178455604051919092169283917f8be0079c531659141344cd1fd0a4f28419497f9722a3daafe3b4186f6b6457e09190a35050565b601854600111156143e65760405162461bcd60e51b8152600401610b189061518d565b6143ee611fcd565b6001600f60008282546144019190615ba4565b925050819055506001601c600082825461441b9190615ba4565b9091555050600f546040517f94d48a7342690f1233e3f4db70efa37c4f1f25f4d0397c353f3f15aecdeca5f490600090a2565b805160609060005b8181101561449c578084828151811061447f57634e487b7160e01b600052603260045260246000fd5b60209081029190910101528061449481615c71565b915050614456565b509192915050565b606060008251116144b457600080fd5b81518060005b8181101561462f576000836144cd612c8d565b8784815181106144ed57634e487b7160e01b600052603260045260246000fd5b6020026020010151604051602001614506929190614db7565b6040516020818303038152906040528051906020012060001c6145299190615c8c565b614534906001615ba4565b9050600086614544600184615bef565b8151811061456257634e487b7160e01b600052603260045260246000fd5b602002602001015190508660018661457a9190615bef565b8151811061459857634e487b7160e01b600052603260045260246000fd5b6020026020010151876001846145ae9190615bef565b815181106145cc57634e487b7160e01b600052603260045260246000fd5b602090810291909101015280876145e4600188615bef565b8151811061460257634e487b7160e01b600052603260045260246000fd5b6020908102919091010152614618600186615bef565b94505050808061462790615c71565b9150506144ba565b50929392505050565b82805461464490615c36565b90600052602060002090601f01602090048101928261466657600085556146ac565b82601f1061467f57805160ff19168380011785556146ac565b828001600101855582156146ac579182015b828111156146ac578251825591602001919060010190614691565b506146b892915061474f565b5090565b828054828255906000526020600020908101928215614709579160200282015b8281111561470957825180516146f9918491602090910190614638565b50916020019190600101906146dc565b506146b8929150614764565b8280548282559060005260206000209081019282156146ac57916020028201828111156146ac578251825591602001919060010190614691565b5b808211156146b85760008155600101614750565b808211156146b85760006147788282614781565b50600101614764565b50805461478d90615c36565b6000825580601f1061479f5750613d8a565b601f016020900490600052602060002090810190613d8a919061474f565b80356001600160a01b0381168114610ea557600080fd5b60008083601f8401126147e5578182fd5b50813567ffffffffffffffff8111156147fc578182fd5b602083019150836020808302850101111561481657600080fd5b9250929050565b6000601f838184011261482e578182fd5b8235602061484361483e83615b80565b615b56565b82815281810190868301865b858110156148cf57813589018a603f820112614869578889fd5b85810135604067ffffffffffffffff82111561488757614887615ccc565b614898828b01601f19168901615b56565b8281528d828486010111156148ab578b8cfd5b828285018a83013791820188018b905250855250928401929084019060010161484f565b509098975050505050505050565b600082601f8301126148ed578081fd5b813560206148fd61483e83615b80565b8281528181019085830183850287018401881015614919578586fd5b855b858110156149375781358452928401929084019060010161491b565b5090979650505050505050565b600060208284031215614955578081fd5b61160b826147bd565b60008060408385031215614970578081fd5b614979836147bd565b946020939093013593505050565b60008060006060848603121561499b578081fd5b6149a4846147bd565b95602085013595506040909401359392505050565b600080600080604085870312156149ce578081fd5b843567ffffffffffffffff808211156149e5578283fd5b6149f1888389016147d4565b90965094506020870135915080821115614a09578283fd5b50614a16878288016147d4565b95989497509550505050565b60008060008060008060608789031215614a3a578182fd5b863567ffffffffffffffff80821115614a51578384fd5b614a5d8a838b016147d4565b90985096506020890135915080821115614a75578384fd5b614a818a838b016147d4565b90965094506040890135915080821115614a99578384fd5b50614aa689828a016147d4565b979a9699509497509295939492505050565b600060208284031215614ac9578081fd5b813567ffffffffffffffff811115614adf578182fd5b613889848285016148dd565b600060208284031215614afc578081fd5b8151801515811461160b578182fd5b600080600080600080600060c0888a031215614b25578081fd5b87359650614b35602089016147bd565b9550604088013567ffffffffffffffff80821115614b51578283fd5b818a0191508a601f830112614b64578283fd5b813581811115614b72578384fd5b8b6020828501011115614b83578384fd5b6020830197508096505060608a0135915080821115614ba0578283fd5b614bac8b838c0161481d565b945060808a0135915080821115614bc1578283fd5b50614bce8a828b016148dd565b92505060a0880135905092959891949750929550565b600060208284031215614bf5578081fd5b5035919050565b600060208284031215611682578081fd5b60008060408385031215614c1f578182fd5b50508035926020909101359150565b60008060008060808587031215614c43578182fd5b8435935060208501359250614c5a604086016147bd565b9396929550929360600135925050565b600080600060608486031215614c7e578081fd5b505081359360208301359350604090920135919050565b6000815180845260208085018081965082840281019150828601855b85811015614cdb578284038952614cc9848351614d0a565b98850198935090840190600101614cb1565b5091979650505050505050565b60038110614d0657634e487b7160e01b600052602160045260246000fd5b9052565b60008151808452614d22816020860160208601615c06565b601f01601f19169290920160200192915050565b600a8152690c6dedadad2e890c2e6d60b31b602082015260400190565b60609190911b6bffffffffffffffffffffffff1916815260140190565b60609290921b6bffffffffffffffffffffffff19168252601482015260340190565b90815260200190565b60008251614dad818460208701615c06565b9190910192915050565b918252602082015260400190565b6001600160a01b0391909116815260200190565b6020808252825182820181905260009190848201906040850190845b81811015614e1157835183529284019291840191600101614df5565b50909695505050505050565b60006020825261160b6020830184614c95565b901515815260200190565b600087825260018060a01b038716602083015285604083015260c06060830152614e6860c0830186614d0a565b905083608083015261251d60a0830184614ce8565b600085825260606020830152836060830152838560808401378060808584010152601f19601f8501168201608083820301604084015261251d6080820185614c95565b6020808252601c908201527f576f726b657220697320616c7265616479207265676973746572656400000000604082015260600190565b60208082526031908201527f676976656e204461746142617463682073686f756c6420626520415050524f5660408201527011510b08185b99081a5d081a5cc81b9bdd607a1b606082015260800190565b60208082526041908201527f576f726b657220686173206e6f7420656e6f75676820285f6e756d546f6b656e60408201527f732920696e206869732053706f745374616b6564546f6b656e42616c616e63656060820152600160fd1b608082015260a00190565b6020808252605c908201527f4e6f74207468652073616d6520766f7465207468616e2077686174207761732060408201527f636f6d6d697465642c20696d706f737369626c6520746f206d6174636820776960608201527f746820676976656e205f73616c742026205f766f74654f7074696f6e00000000608082015260a00190565b6020808252601a908201527f5f446174614261746368494420686173206e6f7420656e646564000000000000604082015260600190565b60208082526026908201527f4f776e61626c653a206e6577206f776e657220697320746865207a65726f206160408201526564647265737360d01b606082015260800190565b6020808252601e908201527f636f6d6d697420706572696f64206e6565647320746f206265206f70656e0000604082015260600190565b60208082526039908201527f646c6c4d61703a20646f6573206e6f7420636f696e7461696e205f446174614260408201527f61746368494420666f7220746865206d73672073656e64657200000000000000606082015260800190565b6020808252602a908201527f5f446174614261746368494420636865636b696e6720766f7465206d757374206040820152691a185d9948195b99195960b21b606082015260800190565b6020808252601a908201527f776f726b657273206c656e677468206973206e6f74203e3d2031000000000000604082015260600190565b6020808252602f908201527f636f756c64206e6f742072657761726420746f6b656e20696e2054726967676560408201526e3921b432b1b5a9b837ba161018973160891b606082015260800190565b6020808252600d908201526c066696c655f6861736820213d3609c1b604082015260600190565b6020808252602b908201527f576f726b6572206973206e6f7420617661696c61626c6520736f2063616e277460408201526a103ab73932b3b4b9ba32b960a91b606082015260800190565b6020808252603d908201527f436f756c64206e6f74207265717565737420656e6f75676820616c6c6f63617460408201527f6564207374616b652c2072657175657374566f74696e67526967687473000000606082015260800190565b60208082526011908201527005f446174614261746368494420213d203607c1b604082015260600190565b60208082526026908201527f557365722063616e206e6f742072657665616c207477696365206f6e2073616d6040820152656520766f746560d01b606082015260800190565b6020808252602f908201527f5573657220686173206e6f7420636f6d6d69746564206265666f72652c20746860408201526e1d5cc818d85b89dd081c995d99585b608a1b606082015260800190565b60208082526010908201526f05f7365637265744861736820213d20360841b604082015260600190565b60208082526014908201527311185d18481b5d5cdd081a185d9948195b99195960621b604082015260600190565b6020808252602d908201527f636f756c64206e6f74207265776172642052455020696e20547269676765724360408201526c6865636b53706f742c20312e6160981b606082015260800190565b6020808252602b908201527f75736572206d75737420686176652072657665616c656420696e20746869732060408201526a0ced2eccadc4084c2e8c6d60ab1b606082015260800190565b60208082526017908201527f5f4461746142617463684944206d757374206578697374000000000000000000604082015260600190565b6020808252601490820152733737ba1030903b30b634b2103837b9b4ba34b7b760611b604082015260600190565b6020808252603b908201527f43616e277420616c6c6f6361746520776f726b2c207468652063757272656e7460408201527f20626174636820697320616c726561647920616c6c6f63617465640000000000606082015260800190565b60208082526048908201527f55736572206e6565647320746f2068617665206265656e20616c6c6f6361746560408201527f64207468652063757272656e74206461746120626174636820746f20636f6d6d6060820152671a5d081bdb881a5d60c21b608082015260a00190565b6020808252818101527f4f776e61626c653a2063616c6c6572206973206e6f7420746865206f776e6572604082015260600190565b60208082526047908201527f72656d6f7665576f726b657246726f6d4163746976653a20576f726b6572206e60408201527f6565647320746f20626520617661696c61626c65206e6f7720616e64207265676060820152661a5cdd195c995960ca1b608082015260a00190565b60208082526029908201527f6765744e756d50617373696e67546f6b656e733a20686173686573206d75737460408201526808189948195c5d585b60ba1b606082015260800190565b60208082526036908201527f43616e277420616c6c6f6361746520776f726b2c207468652063757272656e74604082015275206261746368206973206e6f7420636f6d706c65746560501b606082015260800190565b60208082526026908201527f52657665616c20706572696f64206e6f74206f70656e20666f7220746869732060408201526511185d18525160d21b606082015260800190565b60208082526027908201527f617661696c61626c65546f6b656e732073686f756c64206265203e3d205f6e756040820152666d546f6b656e7360c81b606082015260800190565b60208082526019908201527f557365722068617320746f206265207265676973746572656400000000000000604082015260600190565b6020808252601390820152720c081059191c995cdcc8139bdd0815985b1a59606a1b604082015260600190565b6020808252602f908201527f636f756c64206e6f742072657761726420746f6b656e20696e2054726967676560408201526e3921b432b1b5a9b837ba161019173160891b606082015260800190565b60208082526037908201527f75736572206d757374206861766520656e6f75676820766f74696e672072696760408201527f68747320616b6120616c6c6f6361746564207374616b65000000000000000000606082015260800190565b6020808252602d908201527f636f756c64206e6f74207265776172642052455020696e20547269676765724360408201526c6865636b53706f742c20322e6160981b606082015260800190565b6020808252603b908201527f436f756c64206e6f74207769746864726177566f74696e67526967687473207460408201527f68726f7567682050726f78795374616b654465616c6c6f636174650000000000606082015260800190565b6020808252600f908201526e11185d18481b5d5cdd08195e1a5cdd608a1b604082015260600190565b6000858252846020830152608060408301526159926080830185614d0a565b905082606083015295945050505050565b60008382528260208301526060604083015261388960608301614d36565b6000848252836020830152608060408301526159df60808301614d36565b9050826060830152949350505050565b9182526020820152606060408201819052600990820152686e756d546f6b656e7360b81b608082015260a00190565b93845260208401929092526040830152606082015260800190565b9182526001600160a01b0316602082015260400190565b9b8c526001600160a01b039a8b1660208d01529890991660408b015260608a0196909652931515608089015260a088019290925260c087015260e086015215156101008501526101208401529015156101408301526101608201526101800190565b9182526001600160a01b031660208201526000604082015260600190565b9283526020830191909152604082015260600190565b6000610180820190508d82528c60208301528b60408301528a6060830152891515608083015288151560a083015287151560c08301528660e0830152856101008301528461012083015283610140830152615b45610160830184614ce8565b9d9c50505050505050505050505050565b60405181810167ffffffffffffffff81118282101715615b7857615b78615ccc565b604052919050565b600067ffffffffffffffff821115615b9a57615b9a615ccc565b5060209081020190565b60008219821115615bb757615bb7615ca0565b500190565b600082615bcb57615bcb615cb6565b500490565b6000816000190483118215151615615bea57615bea615ca0565b500290565b600082821015615c0157615c01615ca0565b500390565b60005b83811015615c21578181015183820152602001615c09565b83811115615c30576000848401525b50505050565b600281046001821680615c4a57607f821691505b60208210811415615c6b57634e487b7160e01b600052602260045260246000fd5b50919050565b6000600019821415615c8557615c85615ca0565b5060010190565b600082615c9b57615c9b615cb6565b500690565b634e487b7160e01b600052601160045260246000fd5b634e487b7160e01b600052601260045260246000fd5b634e487b7160e01b600052604160045260246000fdfea2646970667358221220e823edd74886ac28103661e680a2e5ce58ae7a17d45a62168383c4d1bee8dbf364736f6c63430008000033",
  "linkReferences": {
    "contracts/worksystems/DataSpotting.sol": {
      "AttributeStore": [
        {
          "length": 20,
          "start": 13736
        },
        {
          "length": 20,
          "start": 13844
        },
        {
          "length": 20,
          "start": 14103
        },
        {
          "length": 20,
          "start": 14495
        }
      ],
      "DLL": [
        {
          "length": 20,
          "start": 3583
        },
        {
          "length": 20,
          "start": 5739
        },
        {
          "length": 20,
          "start": 5911
        },
        {
          "length": 20,
          "start": 6214
        },
        {
          "length": 20,
          "start": 10924
        },
        {
          "length": 20,
          "start": 11104
        },
        {
          "length": 20,
          "start": 13225
        },
        {
          "length": 20,
          "start": 13387
        },
        {
          "length": 20,
          "start": 13582
        }
      ]
    }
  },
  "deployedLinkReferences": {
    "contracts/worksystems/DataSpotting.sol": {
      "AttributeStore": [
        {
          "length": 20,
          "start": 13336
        },
        {
          "length": 20,
          "start": 13444
        },
        {
          "length": 20,
          "start": 13703
        },
        {
          "length": 20,
          "start": 14095
        }
      ],
      "DLL": [
        {
          "length": 20,
          "start": 3183
        },
        {
          "length": 20,
          "start": 5339
        },
        {
          "length": 20,
          "start": 5511
        },
        {
          "length": 20,
          "start": 5814
        },
        {
          "length": 20,
          "start": 10524
        },
        {
          "length": 20,
          "start": 10704
        },
        {
          "length": 20,
          "start": 12825
        },
        {
          "length": 20,
          "start": 12987
        },
        {
          "length": 20,
          "start": 13182
        }
      ]
    }
  }
}