{
  "_format": "hh-sol-artifact-1",
  "contractName": "DataSpotting",
  "sourceName": "contracts/worksystems/DataSpotting.sol",
  "abi": [
    {
      "inputs": [
        {
          "internalType": "address",
          "name": "EXDT_token",
          "type": "address"
        }
      ],
      "stateMutability": "nonpayable",
      "type": "constructor"
    },
    {
      "anonymous": false,
      "inputs": [
        {
          "indexed": true,
          "internalType": "address",
          "name": "previousOwner",
          "type": "address"
        },
        {
          "indexed": true,
          "internalType": "address",
          "name": "newOwner",
          "type": "address"
        }
      ],
      "name": "OwnershipTransferred",
      "type": "event"
    },
    {
      "anonymous": false,
      "inputs": [
        {
          "indexed": true,
          "internalType": "uint256",
          "name": "epochNumber",
          "type": "uint256"
        }
      ],
      "name": "_NewEpoch",
      "type": "event"
    },
    {
      "anonymous": false,
      "inputs": [
        {
          "indexed": false,
          "internalType": "string",
          "name": "hash",
          "type": "string"
        },
        {
          "indexed": true,
          "internalType": "address",
          "name": "creator",
          "type": "address"
        }
      ],
      "name": "_SpotAccepted",
      "type": "event"
    },
    {
      "anonymous": false,
      "inputs": [
        {
          "indexed": true,
          "internalType": "uint256",
          "name": "DataID",
          "type": "uint256"
        },
        {
          "indexed": false,
          "internalType": "uint256",
          "name": "numTokens",
          "type": "uint256"
        },
        {
          "indexed": true,
          "internalType": "address",
          "name": "voter",
          "type": "address"
        }
      ],
      "name": "_SpotCheckCommitted",
      "type": "event"
    },
    {
      "anonymous": false,
      "inputs": [
        {
          "indexed": true,
          "internalType": "uint256",
          "name": "DataID",
          "type": "uint256"
        },
        {
          "indexed": false,
          "internalType": "uint256",
          "name": "numTokens",
          "type": "uint256"
        },
        {
          "indexed": false,
          "internalType": "uint256",
          "name": "votesFor",
          "type": "uint256"
        },
        {
          "indexed": false,
          "internalType": "uint256",
          "name": "votesAgainst",
          "type": "uint256"
        },
        {
          "indexed": true,
          "internalType": "uint256",
          "name": "choice",
          "type": "uint256"
        },
        {
          "indexed": true,
          "internalType": "address",
          "name": "voter",
          "type": "address"
        }
      ],
      "name": "_SpotCheckRevealed",
      "type": "event"
    },
    {
      "anonymous": false,
      "inputs": [
        {
          "indexed": true,
          "internalType": "uint256",
          "name": "DataID",
          "type": "uint256"
        },
        {
          "indexed": false,
          "internalType": "string",
          "name": "file_hash",
          "type": "string"
        },
        {
          "indexed": false,
          "internalType": "string",
          "name": "URL_domain",
          "type": "string"
        },
        {
          "indexed": false,
          "internalType": "string[]",
          "name": "tags",
          "type": "string[]"
        },
        {
          "indexed": true,
          "internalType": "address",
          "name": "sender",
          "type": "address"
        }
      ],
      "name": "_SpotSubmitted",
      "type": "event"
    },
    {
      "anonymous": false,
      "inputs": [
        {
          "indexed": true,
          "internalType": "uint256",
          "name": "DataID",
          "type": "uint256"
        },
        {
          "indexed": true,
          "internalType": "address",
          "name": "voter",
          "type": "address"
        }
      ],
      "name": "_TokensRescued",
      "type": "event"
    },
    {
      "anonymous": false,
      "inputs": [
        {
          "indexed": false,
          "internalType": "uint256",
          "name": "numTokens",
          "type": "uint256"
        },
        {
          "indexed": true,
          "internalType": "address",
          "name": "voter",
          "type": "address"
        }
      ],
      "name": "_VotingRightsGranted",
      "type": "event"
    },
    {
      "anonymous": false,
      "inputs": [
        {
          "indexed": false,
          "internalType": "uint256",
          "name": "numTokens",
          "type": "uint256"
        },
        {
          "indexed": true,
          "internalType": "address",
          "name": "voter",
          "type": "address"
        }
      ],
      "name": "_VotingRightsWithdrawn",
      "type": "event"
    },
    {
      "anonymous": false,
      "inputs": [
        {
          "indexed": true,
          "internalType": "uint256",
          "name": "batchID",
          "type": "uint256"
        },
        {
          "indexed": false,
          "internalType": "address",
          "name": "worker",
          "type": "address"
        }
      ],
      "name": "_WorkAllocated",
      "type": "event"
    },
    {
      "anonymous": false,
      "inputs": [
        {
          "indexed": true,
          "internalType": "address",
          "name": "worker",
          "type": "address"
        },
        {
          "indexed": false,
          "internalType": "uint256",
          "name": "timestamp",
          "type": "uint256"
        }
      ],
      "name": "_WorkerRegistered",
      "type": "event"
    },
    {
      "anonymous": false,
      "inputs": [
        {
          "indexed": true,
          "internalType": "address",
          "name": "worker",
          "type": "address"
        },
        {
          "indexed": false,
          "internalType": "uint256",
          "name": "timestamp",
          "type": "uint256"
        }
      ],
      "name": "_WorkerUnregistered",
      "type": "event"
    },
    {
      "inputs": [],
      "name": "AddressManager",
      "outputs": [
        {
          "internalType": "contract IAddressManager",
          "name": "",
          "type": "address"
        }
      ],
      "stateMutability": "view",
      "type": "function"
    },
    {
      "inputs": [],
      "name": "AllocateWork",
      "outputs": [],
      "stateMutability": "nonpayable",
      "type": "function"
    },
    {
      "inputs": [],
      "name": "AmIRegistered",
      "outputs": [
        {
          "internalType": "bool",
          "name": "passed",
          "type": "bool"
        }
      ],
      "stateMutability": "view",
      "type": "function"
    },
    {
      "inputs": [],
      "name": "COMMIT_ROUND_DURATION",
      "outputs": [
        {
          "internalType": "uint256",
          "name": "",
          "type": "uint256"
        }
      ],
      "stateMutability": "view",
      "type": "function"
    },
    {
      "inputs": [],
      "name": "ChecksNonce",
      "outputs": [
        {
          "internalType": "uint256",
          "name": "",
          "type": "uint256"
        }
      ],
      "stateMutability": "view",
      "type": "function"
    },
    {
      "inputs": [],
      "name": "CurrentWorkEpoch",
      "outputs": [
        {
          "internalType": "uint256",
          "name": "",
          "type": "uint256"
        }
      ],
      "stateMutability": "view",
      "type": "function"
    },
    {
      "inputs": [
        {
          "internalType": "uint256",
          "name": "",
          "type": "uint256"
        }
      ],
      "name": "DataBatch",
      "outputs": [
        {
          "internalType": "uint256",
          "name": "start_idx",
          "type": "uint256"
        },
        {
          "internalType": "uint256",
          "name": "end_idx",
          "type": "uint256"
        },
        {
          "internalType": "uint256",
          "name": "counter",
          "type": "uint256"
        },
        {
          "internalType": "uint256",
          "name": "unrevealed_workers",
          "type": "uint256"
        },
        {
          "internalType": "bool",
          "name": "complete",
          "type": "bool"
        },
        {
          "internalType": "bool",
          "name": "checked",
          "type": "bool"
        },
        {
          "internalType": "bool",
          "name": "allocated_to_work",
          "type": "bool"
        },
        {
          "internalType": "uint256",
          "name": "commitEndDate",
          "type": "uint256"
        },
        {
          "internalType": "uint256",
          "name": "revealEndDate",
          "type": "uint256"
        },
        {
          "internalType": "uint256",
          "name": "votesFor",
          "type": "uint256"
        },
        {
          "internalType": "uint256",
          "name": "votesAgainst",
          "type": "uint256"
        },
        {
          "internalType": "enum DataSpotting.DataSatus",
          "name": "status",
          "type": "uint8"
        }
      ],
      "stateMutability": "view",
      "type": "function"
    },
    {
      "inputs": [
        {
          "internalType": "uint256",
          "name": "_DataBatchID",
          "type": "uint256"
        }
      ],
      "name": "DataCommitEndDate",
      "outputs": [
        {
          "internalType": "uint256",
          "name": "commitEndDate",
          "type": "uint256"
        }
      ],
      "stateMutability": "view",
      "type": "function"
    },
    {
      "inputs": [
        {
          "internalType": "uint256",
          "name": "_DataBatchID",
          "type": "uint256"
        }
      ],
      "name": "DataEnded",
      "outputs": [
        {
          "internalType": "bool",
          "name": "ended",
          "type": "bool"
        }
      ],
      "stateMutability": "view",
      "type": "function"
    },
    {
      "inputs": [
        {
          "internalType": "uint256",
          "name": "_DataBatchID",
          "type": "uint256"
        }
      ],
      "name": "DataExists",
      "outputs": [
        {
          "internalType": "bool",
          "name": "exists",
          "type": "bool"
        }
      ],
      "stateMutability": "view",
      "type": "function"
    },
    {
      "inputs": [],
      "name": "DataNonce",
      "outputs": [
        {
          "internalType": "uint256",
          "name": "",
          "type": "uint256"
        }
      ],
      "stateMutability": "view",
      "type": "function"
    },
    {
      "inputs": [
        {
          "internalType": "uint256",
          "name": "_DataBatchID",
          "type": "uint256"
        }
      ],
      "name": "DataRevealEndDate",
      "outputs": [
        {
          "internalType": "uint256",
          "name": "revealEndDate",
          "type": "uint256"
        }
      ],
      "stateMutability": "view",
      "type": "function"
    },
    {
      "inputs": [
        {
          "internalType": "address",
          "name": "user_",
          "type": "address"
        }
      ],
      "name": "GetCurrentWork",
      "outputs": [
        {
          "internalType": "uint256",
          "name": "",
          "type": "uint256"
        }
      ],
      "stateMutability": "view",
      "type": "function"
    },
    {
      "inputs": [
        {
          "internalType": "address",
          "name": "user_",
          "type": "address"
        }
      ],
      "name": "IsNewWorkAvailable",
      "outputs": [
        {
          "internalType": "bool",
          "name": "",
          "type": "bool"
        }
      ],
      "stateMutability": "view",
      "type": "function"
    },
    {
      "inputs": [],
      "name": "MIN_PARTICIPANTS_FOR_VALIDITY",
      "outputs": [
        {
          "internalType": "uint256",
          "name": "",
          "type": "uint256"
        }
      ],
      "stateMutability": "view",
      "type": "function"
    },
    {
      "inputs": [],
      "name": "MIN_REP_Data",
      "outputs": [
        {
          "internalType": "uint256",
          "name": "",
          "type": "uint256"
        }
      ],
      "stateMutability": "view",
      "type": "function"
    },
    {
      "inputs": [],
      "name": "MIN_REP_REVEAL",
      "outputs": [
        {
          "internalType": "uint256",
          "name": "",
          "type": "uint256"
        }
      ],
      "stateMutability": "view",
      "type": "function"
    },
    {
      "inputs": [],
      "name": "MIN_REWARD_Data",
      "outputs": [
        {
          "internalType": "uint256",
          "name": "",
          "type": "uint256"
        }
      ],
      "stateMutability": "view",
      "type": "function"
    },
    {
      "inputs": [],
      "name": "MIN_REWARD_REVEAL",
      "outputs": [
        {
          "internalType": "uint256",
          "name": "",
          "type": "uint256"
        }
      ],
      "stateMutability": "view",
      "type": "function"
    },
    {
      "inputs": [],
      "name": "MIN_STAKE",
      "outputs": [
        {
          "internalType": "uint256",
          "name": "",
          "type": "uint256"
        }
      ],
      "stateMutability": "view",
      "type": "function"
    },
    {
      "inputs": [
        {
          "internalType": "address",
          "name": "",
          "type": "address"
        },
        {
          "internalType": "uint256",
          "name": "",
          "type": "uint256"
        }
      ],
      "name": "MasterWorkers",
      "outputs": [
        {
          "internalType": "address",
          "name": "",
          "type": "address"
        }
      ],
      "stateMutability": "view",
      "type": "function"
    },
    {
      "inputs": [],
      "name": "REVEAL_ROUND_DURATION",
      "outputs": [
        {
          "internalType": "uint256",
          "name": "",
          "type": "uint256"
        }
      ],
      "stateMutability": "view",
      "type": "function"
    },
    {
      "inputs": [],
      "name": "RegisterWorker",
      "outputs": [],
      "stateMutability": "nonpayable",
      "type": "function"
    },
    {
      "inputs": [],
      "name": "RepManager",
      "outputs": [
        {
          "internalType": "contract IRepManager",
          "name": "",
          "type": "address"
        }
      ],
      "stateMutability": "view",
      "type": "function"
    },
    {
      "inputs": [],
      "name": "RewardManager",
      "outputs": [
        {
          "internalType": "contract IRewardManager",
          "name": "",
          "type": "address"
        }
      ],
      "stateMutability": "view",
      "type": "function"
    },
    {
      "inputs": [],
      "name": "SPOT_CHECK_VOTE_QUORUM",
      "outputs": [
        {
          "internalType": "uint256",
          "name": "",
          "type": "uint256"
        }
      ],
      "stateMutability": "view",
      "type": "function"
    },
    {
      "inputs": [
        {
          "internalType": "string[]",
          "name": "file_hashs",
          "type": "string[]"
        },
        {
          "internalType": "address",
          "name": "main_worker_account",
          "type": "address"
        },
        {
          "internalType": "string[]",
          "name": "URL_domains",
          "type": "string[]"
        },
        {
          "internalType": "string[]",
          "name": "tags_",
          "type": "string[]"
        },
        {
          "internalType": "uint256[]",
          "name": "tags_id_",
          "type": "uint256[]"
        },
        {
          "internalType": "string",
          "name": "extra_",
          "type": "string"
        }
      ],
      "name": "SpotData",
      "outputs": [
        {
          "internalType": "uint256",
          "name": "Dataid_",
          "type": "uint256"
        }
      ],
      "stateMutability": "nonpayable",
      "type": "function"
    },
    {
      "inputs": [
        {
          "internalType": "address",
          "name": "",
          "type": "address"
        }
      ],
      "name": "SpotStakedTokenBalance",
      "outputs": [
        {
          "internalType": "uint256",
          "name": "",
          "type": "uint256"
        }
      ],
      "stateMutability": "view",
      "type": "function"
    },
    {
      "inputs": [
        {
          "internalType": "uint256",
          "name": "",
          "type": "uint256"
        }
      ],
      "name": "SpotsMapping",
      "outputs": [
        {
          "internalType": "string",
          "name": "ipfs_hash",
          "type": "string"
        },
        {
          "internalType": "address",
          "name": "author",
          "type": "address"
        },
        {
          "internalType": "uint256",
          "name": "timestamp",
          "type": "uint256"
        },
        {
          "internalType": "string",
          "name": "URL_domain",
          "type": "string"
        },
        {
          "internalType": "string",
          "name": "extra",
          "type": "string"
        },
        {
          "internalType": "enum DataSpotting.DataSatus",
          "name": "status",
          "type": "uint8"
        }
      ],
      "stateMutability": "view",
      "type": "function"
    },
    {
      "inputs": [],
      "name": "StakeManager",
      "outputs": [
        {
          "internalType": "contract IStakeManager",
          "name": "",
          "type": "address"
        }
      ],
      "stateMutability": "view",
      "type": "function"
    },
    {
      "inputs": [
        {
          "internalType": "uint256",
          "name": "_DataBatchID",
          "type": "uint256"
        }
      ],
      "name": "TriggerCheckSpottedData",
      "outputs": [],
      "stateMutability": "nonpayable",
      "type": "function"
    },
    {
      "inputs": [],
      "name": "UnregisterWorker",
      "outputs": [],
      "stateMutability": "nonpayable",
      "type": "function"
    },
    {
      "inputs": [],
      "name": "WorkersNonce",
      "outputs": [
        {
          "internalType": "uint256",
          "name": "",
          "type": "uint256"
        }
      ],
      "stateMutability": "view",
      "type": "function"
    },
    {
      "inputs": [
        {
          "internalType": "address",
          "name": "",
          "type": "address"
        }
      ],
      "name": "WorkersState",
      "outputs": [
        {
          "internalType": "uint256",
          "name": "array_idx",
          "type": "uint256"
        },
        {
          "internalType": "address",
          "name": "worker_address",
          "type": "address"
        },
        {
          "internalType": "address",
          "name": "master_address",
          "type": "address"
        },
        {
          "internalType": "uint256",
          "name": "allocated_work_batch",
          "type": "uint256"
        },
        {
          "internalType": "bool",
          "name": "has_completed_work",
          "type": "bool"
        },
        {
          "internalType": "uint256",
          "name": "work_epoch_deadline",
          "type": "uint256"
        },
        {
          "internalType": "uint256",
          "name": "last_worked_round",
          "type": "uint256"
        },
        {
          "internalType": "uint256",
          "name": "last_interaction_date",
          "type": "uint256"
        },
        {
          "internalType": "bool",
          "name": "is_available_now",
          "type": "bool"
        },
        {
          "internalType": "string",
          "name": "extra",
          "type": "string"
        },
        {
          "internalType": "bool",
          "name": "registered",
          "type": "bool"
        },
        {
          "internalType": "uint256",
          "name": "registration_date",
          "type": "uint256"
        }
      ],
      "stateMutability": "view",
      "type": "function"
    },
    {
      "inputs": [
        {
          "internalType": "address",
          "name": "_user",
          "type": "address"
        },
        {
          "internalType": "uint256",
          "name": "_DataBatchID",
          "type": "uint256"
        }
      ],
      "name": "attrUUID",
      "outputs": [
        {
          "internalType": "bytes32",
          "name": "UUID",
          "type": "bytes32"
        }
      ],
      "stateMutability": "pure",
      "type": "function"
    },
    {
      "inputs": [
        {
          "internalType": "uint256",
          "name": "",
          "type": "uint256"
        }
      ],
      "name": "availableWorkers",
      "outputs": [
        {
          "internalType": "address",
          "name": "",
          "type": "address"
        }
      ],
      "stateMutability": "view",
      "type": "function"
    },
    {
      "inputs": [
        {
          "internalType": "uint256",
          "name": "",
          "type": "uint256"
        }
      ],
      "name": "busyWorkers",
      "outputs": [
        {
          "internalType": "address",
          "name": "",
          "type": "address"
        }
      ],
      "stateMutability": "view",
      "type": "function"
    },
    {
      "inputs": [
        {
          "internalType": "uint256",
          "name": "_DataBatchID",
          "type": "uint256"
        }
      ],
      "name": "commitPeriodActive",
      "outputs": [
        {
          "internalType": "bool",
          "name": "active",
          "type": "bool"
        }
      ],
      "stateMutability": "view",
      "type": "function"
    },
    {
      "inputs": [
        {
          "internalType": "uint256",
          "name": "_DataBatchID",
          "type": "uint256"
        },
        {
          "internalType": "bytes32",
          "name": "_secretHash",
          "type": "bytes32"
        }
      ],
      "name": "commitSpotCheck",
      "outputs": [],
      "stateMutability": "nonpayable",
      "type": "function"
    },
    {
      "inputs": [
        {
          "internalType": "uint256[]",
          "name": "_DataBatchIDs",
          "type": "uint256[]"
        },
        {
          "internalType": "bytes32[]",
          "name": "_secretHashes",
          "type": "bytes32[]"
        }
      ],
      "name": "commitSpotChecks",
      "outputs": [],
      "stateMutability": "nonpayable",
      "type": "function"
    },
    {
      "inputs": [],
      "name": "current_batch_nounce",
      "outputs": [
        {
          "internalType": "uint256",
          "name": "",
          "type": "uint256"
        }
      ],
      "stateMutability": "view",
      "type": "function"
    },
    {
      "inputs": [
        {
          "internalType": "address",
          "name": "_voter",
          "type": "address"
        },
        {
          "internalType": "uint256",
          "name": "_DataBatchID",
          "type": "uint256"
        }
      ],
      "name": "didCommit",
      "outputs": [
        {
          "internalType": "bool",
          "name": "committed",
          "type": "bool"
        }
      ],
      "stateMutability": "view",
      "type": "function"
    },
    {
      "inputs": [
        {
          "internalType": "address",
          "name": "_voter",
          "type": "address"
        },
        {
          "internalType": "uint256",
          "name": "_DataBatchID",
          "type": "uint256"
        }
      ],
      "name": "didReveal",
      "outputs": [
        {
          "internalType": "bool",
          "name": "revealed",
          "type": "bool"
        }
      ],
      "stateMutability": "view",
      "type": "function"
    },
    {
      "inputs": [],
      "name": "getBlockTimestamp",
      "outputs": [
        {
          "internalType": "uint256",
          "name": "blocktimestamp",
          "type": "uint256"
        }
      ],
      "stateMutability": "view",
      "type": "function"
    },
    {
      "inputs": [
        {
          "internalType": "address",
          "name": "_voter",
          "type": "address"
        },
        {
          "internalType": "uint256",
          "name": "_DataBatchID",
          "type": "uint256"
        }
      ],
      "name": "getCommitHash",
      "outputs": [
        {
          "internalType": "bytes32",
          "name": "commitHash",
          "type": "bytes32"
        }
      ],
      "stateMutability": "view",
      "type": "function"
    },
    {
      "inputs": [
        {
          "internalType": "uint256",
          "name": "_DataBatchID",
          "type": "uint256"
        }
      ],
      "name": "getDomainsForBatch",
      "outputs": [
        {
          "internalType": "string[]",
          "name": "ipfs_hash_list",
          "type": "string[]"
        }
      ],
      "stateMutability": "view",
      "type": "function"
    },
    {
      "inputs": [
        {
          "internalType": "uint256",
          "name": "_voteOption",
          "type": "uint256"
        },
        {
          "internalType": "uint256",
          "name": "_salt",
          "type": "uint256"
        }
      ],
      "name": "getEncryptedHash",
      "outputs": [
        {
          "internalType": "bytes32",
          "name": "keccak256hash",
          "type": "bytes32"
        }
      ],
      "stateMutability": "view",
      "type": "function"
    },
    {
      "inputs": [
        {
          "internalType": "uint256",
          "name": "a",
          "type": "uint256"
        },
        {
          "internalType": "uint256",
          "name": "b",
          "type": "uint256"
        }
      ],
      "name": "getHash",
      "outputs": [
        {
          "internalType": "bytes32",
          "name": "keccak256hash",
          "type": "bytes32"
        }
      ],
      "stateMutability": "pure",
      "type": "function"
    },
    {
      "inputs": [
        {
          "internalType": "uint256",
          "name": "_DataBatchID",
          "type": "uint256"
        }
      ],
      "name": "getIPFShashesForBatch",
      "outputs": [
        {
          "internalType": "string[]",
          "name": "ipfs_hash_list",
          "type": "string[]"
        }
      ],
      "stateMutability": "view",
      "type": "function"
    },
    {
      "inputs": [
        {
          "internalType": "address",
          "name": "_voter",
          "type": "address"
        },
        {
          "internalType": "uint256",
          "name": "_numTokens",
          "type": "uint256"
        },
        {
          "internalType": "uint256",
          "name": "_DataBatchID",
          "type": "uint256"
        }
      ],
      "name": "getInsertPointForNumTokens",
      "outputs": [
        {
          "internalType": "uint256",
          "name": "prevNode",
          "type": "uint256"
        }
      ],
      "stateMutability": "view",
      "type": "function"
    },
    {
      "inputs": [],
      "name": "getLastDataId",
      "outputs": [
        {
          "internalType": "uint256",
          "name": "DataId",
          "type": "uint256"
        }
      ],
      "stateMutability": "view",
      "type": "function"
    },
    {
      "inputs": [
        {
          "internalType": "address",
          "name": "_voter",
          "type": "address"
        }
      ],
      "name": "getLastNode",
      "outputs": [
        {
          "internalType": "uint256",
          "name": "DataID",
          "type": "uint256"
        }
      ],
      "stateMutability": "view",
      "type": "function"
    },
    {
      "inputs": [
        {
          "internalType": "address",
          "name": "user",
          "type": "address"
        }
      ],
      "name": "getLastUserDataId",
      "outputs": [
        {
          "internalType": "uint256",
          "name": "DataId",
          "type": "uint256"
        }
      ],
      "stateMutability": "view",
      "type": "function"
    },
    {
      "inputs": [
        {
          "internalType": "address",
          "name": "_voter",
          "type": "address"
        }
      ],
      "name": "getLockedTokens",
      "outputs": [
        {
          "internalType": "uint256",
          "name": "numTokens",
          "type": "uint256"
        }
      ],
      "stateMutability": "view",
      "type": "function"
    },
    {
      "inputs": [
        {
          "internalType": "address",
          "name": "_voter",
          "type": "address"
        },
        {
          "internalType": "uint256",
          "name": "_DataBatchID",
          "type": "uint256"
        },
        {
          "internalType": "uint256",
          "name": "_salt",
          "type": "uint256"
        }
      ],
      "name": "getNumPassingTokens",
      "outputs": [
        {
          "internalType": "uint256",
          "name": "correctSpotChecks",
          "type": "uint256"
        }
      ],
      "stateMutability": "view",
      "type": "function"
    },
    {
      "inputs": [
        {
          "internalType": "address",
          "name": "_voter",
          "type": "address"
        },
        {
          "internalType": "uint256",
          "name": "_DataBatchID",
          "type": "uint256"
        }
      ],
      "name": "getNumTokens",
      "outputs": [
        {
          "internalType": "uint256",
          "name": "numTokens",
          "type": "uint256"
        }
      ],
      "stateMutability": "view",
      "type": "function"
    },
    {
      "inputs": [],
      "name": "getRandom",
      "outputs": [
        {
          "internalType": "uint256",
          "name": "",
          "type": "uint256"
        }
      ],
      "stateMutability": "view",
      "type": "function"
    },
    {
      "inputs": [],
      "name": "getSeed",
      "outputs": [
        {
          "internalType": "bytes32",
          "name": "addr",
          "type": "bytes32"
        }
      ],
      "stateMutability": "view",
      "type": "function"
    },
    {
      "inputs": [
        {
          "internalType": "uint256",
          "name": "_DataBatchID",
          "type": "uint256"
        }
      ],
      "name": "getTotalNumberOfSpotChecks",
      "outputs": [
        {
          "internalType": "uint256",
          "name": "vc",
          "type": "uint256"
        }
      ],
      "stateMutability": "view",
      "type": "function"
    },
    {
      "inputs": [
        {
          "internalType": "uint256",
          "name": "_DataBatchID",
          "type": "uint256"
        }
      ],
      "name": "getTotalNumberOfTokensForWinningOption",
      "outputs": [
        {
          "internalType": "uint256",
          "name": "numTokens",
          "type": "uint256"
        }
      ],
      "stateMutability": "view",
      "type": "function"
    },
    {
      "inputs": [
        {
          "internalType": "address",
          "name": "user",
          "type": "address"
        }
      ],
      "name": "getUserDatas",
      "outputs": [
        {
          "internalType": "uint256[]",
          "name": "user_Datas",
          "type": "uint256[]"
        }
      ],
      "stateMutability": "view",
      "type": "function"
    },
    {
      "inputs": [
        {
          "internalType": "uint256",
          "name": "_terminationDate",
          "type": "uint256"
        }
      ],
      "name": "isExpired",
      "outputs": [
        {
          "internalType": "bool",
          "name": "expired",
          "type": "bool"
        }
      ],
      "stateMutability": "view",
      "type": "function"
    },
    {
      "inputs": [
        {
          "internalType": "uint256",
          "name": "_DataBatchID",
          "type": "uint256"
        }
      ],
      "name": "isPassed",
      "outputs": [
        {
          "internalType": "bool",
          "name": "passed",
          "type": "bool"
        }
      ],
      "stateMutability": "view",
      "type": "function"
    },
    {
      "inputs": [
        {
          "internalType": "address",
          "name": "_worker",
          "type": "address"
        }
      ],
      "name": "isWorkerRegistered",
      "outputs": [
        {
          "internalType": "bool",
          "name": "passed",
          "type": "bool"
        }
      ],
      "stateMutability": "view",
      "type": "function"
    },
    {
      "inputs": [],
      "name": "last_checked_batch_nounce",
      "outputs": [
        {
          "internalType": "uint256",
          "name": "",
          "type": "uint256"
        }
      ],
      "stateMutability": "view",
      "type": "function"
    },
    {
      "inputs": [],
      "name": "owner",
      "outputs": [
        {
          "internalType": "address",
          "name": "",
          "type": "address"
        }
      ],
      "stateMutability": "view",
      "type": "function"
    },
    {
      "inputs": [
        {
          "internalType": "uint256",
          "name": "k",
          "type": "uint256"
        },
        {
          "internalType": "uint256",
          "name": "N",
          "type": "uint256"
        }
      ],
      "name": "random_selection",
      "outputs": [
        {
          "internalType": "uint256[]",
          "name": "",
          "type": "uint256[]"
        }
      ],
      "stateMutability": "view",
      "type": "function"
    },
    {
      "inputs": [],
      "name": "renounceOwnership",
      "outputs": [],
      "stateMutability": "nonpayable",
      "type": "function"
    },
    {
      "inputs": [
        {
          "internalType": "uint256",
          "name": "_numTokens",
          "type": "uint256"
        }
      ],
      "name": "requestVotingRights",
      "outputs": [],
      "stateMutability": "nonpayable",
      "type": "function"
    },
    {
      "inputs": [
        {
          "internalType": "uint256",
          "name": "_DataBatchID",
          "type": "uint256"
        }
      ],
      "name": "rescueTokens",
      "outputs": [],
      "stateMutability": "nonpayable",
      "type": "function"
    },
    {
      "inputs": [
        {
          "internalType": "uint256[]",
          "name": "_DataBatchIDs",
          "type": "uint256[]"
        }
      ],
      "name": "rescueTokensInMultipleDatas",
      "outputs": [],
      "stateMutability": "nonpayable",
      "type": "function"
    },
    {
      "inputs": [
        {
          "internalType": "uint256",
          "name": "_DataBatchID",
          "type": "uint256"
        }
      ],
      "name": "revealPeriodActive",
      "outputs": [
        {
          "internalType": "bool",
          "name": "active",
          "type": "bool"
        }
      ],
      "stateMutability": "view",
      "type": "function"
    },
    {
      "inputs": [
        {
          "internalType": "uint256",
          "name": "_DataBatchID",
          "type": "uint256"
        },
        {
          "internalType": "uint256",
          "name": "_voteOption",
          "type": "uint256"
        },
        {
          "internalType": "uint256",
          "name": "_salt",
          "type": "uint256"
        }
      ],
      "name": "revealSpotCheck",
      "outputs": [],
      "stateMutability": "nonpayable",
      "type": "function"
    },
    {
      "inputs": [
        {
          "internalType": "uint256[]",
          "name": "_DataBatchIDs",
          "type": "uint256[]"
        },
        {
          "internalType": "uint256[]",
          "name": "_voteOptions",
          "type": "uint256[]"
        },
        {
          "internalType": "uint256[]",
          "name": "_salts",
          "type": "uint256[]"
        }
      ],
      "name": "revealSpotChecks",
      "outputs": [],
      "stateMutability": "nonpayable",
      "type": "function"
    },
    {
      "inputs": [],
      "name": "sFuel",
      "outputs": [
        {
          "internalType": "address",
          "name": "",
          "type": "address"
        }
      ],
      "stateMutability": "view",
      "type": "function"
    },
    {
      "inputs": [
        {
          "internalType": "uint256",
          "name": "N",
          "type": "uint256"
        }
      ],
      "name": "shuffle_array",
      "outputs": [
        {
          "internalType": "uint256[]",
          "name": "",
          "type": "uint256[]"
        }
      ],
      "stateMutability": "view",
      "type": "function"
    },
    {
      "inputs": [],
      "name": "token",
      "outputs": [
        {
          "internalType": "contract IERC20",
          "name": "",
          "type": "address"
        }
      ],
      "stateMutability": "view",
      "type": "function"
    },
    {
      "inputs": [
        {
          "internalType": "address",
          "name": "newOwner",
          "type": "address"
        }
      ],
      "name": "transferOwnership",
      "outputs": [],
      "stateMutability": "nonpayable",
      "type": "function"
    },
    {
      "inputs": [
        {
          "internalType": "address",
          "name": "addr",
          "type": "address"
        }
      ],
      "name": "updateAddressManager",
      "outputs": [],
      "stateMutability": "nonpayable",
      "type": "function"
    },
    {
      "inputs": [
        {
          "internalType": "uint256",
          "name": "COMMIT_ROUND_DURATION_",
          "type": "uint256"
        }
      ],
      "name": "updateCommitRoundDuration",
      "outputs": [],
      "stateMutability": "nonpayable",
      "type": "function"
    },
    {
      "inputs": [
        {
          "internalType": "address",
          "name": "addr",
          "type": "address"
        }
      ],
      "name": "updateRepManager",
      "outputs": [],
      "stateMutability": "nonpayable",
      "type": "function"
    },
    {
      "inputs": [
        {
          "internalType": "uint256",
          "name": "REVEAL_ROUND_DURATION_",
          "type": "uint256"
        }
      ],
      "name": "updateRevealRoundDuration",
      "outputs": [],
      "stateMutability": "nonpayable",
      "type": "function"
    },
    {
      "inputs": [
        {
          "internalType": "address",
          "name": "addr",
          "type": "address"
        }
      ],
      "name": "updateRewardManager",
      "outputs": [],
      "stateMutability": "nonpayable",
      "type": "function"
    },
    {
      "inputs": [
        {
          "internalType": "address",
          "name": "addr",
          "type": "address"
        }
      ],
      "name": "updateStakeManager",
      "outputs": [],
      "stateMutability": "nonpayable",
      "type": "function"
    },
    {
      "inputs": [
        {
          "internalType": "address",
          "name": "sFuel_",
          "type": "address"
        }
      ],
      "name": "updatesFuelFaucet",
      "outputs": [],
      "stateMutability": "nonpayable",
      "type": "function"
    },
    {
      "inputs": [
        {
          "internalType": "address",
          "name": "",
          "type": "address"
        },
        {
          "internalType": "uint256",
          "name": "",
          "type": "uint256"
        }
      ],
      "name": "userSubmissions",
      "outputs": [
        {
          "internalType": "uint256",
          "name": "",
          "type": "uint256"
        }
      ],
      "stateMutability": "view",
      "type": "function"
    },
    {
      "inputs": [
        {
          "internalType": "uint256",
          "name": "_prevID",
          "type": "uint256"
        },
        {
          "internalType": "uint256",
          "name": "_nextID",
          "type": "uint256"
        },
        {
          "internalType": "address",
          "name": "_voter",
          "type": "address"
        },
        {
          "internalType": "uint256",
          "name": "_numTokens",
          "type": "uint256"
        }
      ],
      "name": "validPosition",
      "outputs": [
        {
          "internalType": "bool",
          "name": "APPROVED",
          "type": "bool"
        }
      ],
      "stateMutability": "view",
      "type": "function"
    },
    {
      "inputs": [
        {
          "internalType": "uint256",
          "name": "_numTokens",
          "type": "uint256"
        }
      ],
      "name": "withdrawVotingRights",
      "outputs": [],
      "stateMutability": "nonpayable",
      "type": "function"
    }
  ],
  "bytecode": "0x6080604052678ac7230489e8000060058190556802b5e3af16b18800006006819055600791909155600855603c6009556000600f819055601081905560118190556012819055601b80546001600160a01b0319167314f52f3fc010ab6ca81568d4a6794d5eab3c6155179055601c819055601d553480156200008057600080fd5b50604051620064e2380380620064e2833981016040819052620000a39162000157565b620000b7620000b162000103565b62000107565b601f80546001600160a01b0319166001600160a01b03929092169190911790556000601081905560115568056bc75e2d631000006001908155600255601e600381905560045562000187565b3390565b600080546001600160a01b038381166001600160a01b0319831681178455604051919092169283917f8be0079c531659141344cd1fd0a4f28419497f9722a3daafe3b4186f6b6457e09190a35050565b60006020828403121562000169578081fd5b81516001600160a01b038116811462000180578182fd5b9392505050565b61634b80620001976000396000f3fe608060405234801561001057600080fd5b50600436106104d85760003560e01c8063821aa8c011610283578063cb1c2b5c1161015c578063e7b1d43c116100ce578063f443d5b711610092578063f443d5b714610a45578063f716596d14610a4d578063f721de4a14610a55578063f80a23fd14610a68578063fc0c546a14610a70578063fca4956314610a78576104d8565b8063e7b1d43c146109e6578063e8e9b6f9146109f9578063ed8becfa14610a0c578063f2fde38b14610a1f578063f343894614610a32576104d8565b8063d9548e5311610120578063d9548e531461097f578063dd61868214610992578063df05368e146109a5578063e44c974b146109b8578063e7805f9e146109cb578063e798a7da146109d3576104d8565b8063cb1c2b5c1461092b578063d138209214610933578063d37a4db214610946578063d822ce0114610959578063d901402b1461096c576104d8565b8063aa7ca464116101f5578063b43bd069116101b9578063b43bd069146108b9578063b8f011b3146108cc578063c47c4bc2146108df578063c4bea2cb146108f2578063c4e4f82a14610905578063c7c063fb14610918576104d8565b8063aa7ca46414610883578063aacc5a1714610896578063ab43e78d1461089e578063b1a2e0be146108a6578063b1cf4a7e146105b9576104d8565b80639b7e0180116102475780639b7e01801461081c5780639fc9c52f1461082f578063a1103f3714610842578063a25236fe14610855578063a4439dc514610868578063a511dba01461087b576104d8565b8063821aa8c0146107bb57806383cc6ef2146107ce5780638c89d027146107d65780638da5cb5b146108015780639760356014610809576104d8565b8063427fa1d2116103b5578063667bf0f811610327578063796b89b9116102eb578063796b89b9146107525780637a34da671461075a5780637ce1c4d4146107625780637f97e8361461076a5780637fabe35b1461077d578063819b0293146107a8576104d8565b8063667bf0f8146107145780636b2d95d41461071c578063715018a61461072f57806371880b1b146107375780637827e5491461074a576104d8565b8063579db71c11610379578063579db71c146106b657806358002158146106d6578063590785b1146106e95780635fd87909146106fc5780636277bf651461070457806362b7e9411461070c576104d8565b8063427fa1d214610662578063441c77c01461067557806349403183146106885780634d8842811461069b57806351912f29146106ae576104d8565b80631b8550441161044e578063313066ee11610412578063313066ee1461061c57806332ac1ba2146106245780633538af821461063757806337d5f2381461064a57806339e7357c146106525780633ad2131f1461065a576104d8565b80631b855044146105b9578063226ed300146105cc578063275c2590146105ec57806329a47bc7146105f45780632c05203114610609576104d8565b80630772ca9c116104a05780630772ca9c146105495780630b16d945146105515780630b96c5b0146105645780630e6661a7146105895780630e670feb1461059157806319d9034614610599576104d8565b806302fa9c68146104dd578063035fbb55146104f257806304dbcda714610505578063050eb2eb14610523578063053e71a614610536575b600080fd5b6104f06104eb366004614f79565b610a8b565b005b6104f061050036600461514e565b610b11565b61050d610e03565b60405161051a9190615276565b60405180910390f35b6104f0610531366004614e23565b610e09565b61050d6105443660046150c8565b610e6a565b61050d610ed0565b61050d61055f366004614e98565b610ed6565b6105776105723660046150c8565b61128e565b60405161051a9695949392919061531f565b61050d61146b565b61050d611471565b6105ac6105a73660046150c8565b611477565b60405161051a91906152bd565b61050d6105c73660046150f1565b6117ff565b6105df6105da3660046150c8565b611832565b60405161051a9190615314565b6104f061187a565b6105fc611951565b60405161051a91906152a9565b61050d610617366004614e66565b611960565b61050d611afd565b61050d6106323660046150c8565b611b03565b6105fc6106453660046150c8565b611b27565b61050d611b51565b61050d611b57565b61050d611b74565b61050d610670366004614e23565b611b7a565b6105df6106833660046150c8565b611c1a565b6105df6106963660046150c8565b611c74565b6104f06106a9366004614e23565b611ef5565b6105fc611f56565b6106c96106c4366004614e23565b611f65565b60405161051a91906152d0565b6104f06106e43660046150c8565b611fd1565b6104f06106f73660046150c8565b612015565b61050d612515565b61050d61251b565b61050d612521565b6104f0612527565b61050d61072a366004614e23565b6128d1565b6104f06128e0565b61050d6107453660046150c8565b61292b565b61050d612968565b61050d61296e565b6105fc612972565b61050d612981565b6105df610778366004614e3d565b612987565b61079061078b3660046150c8565b6129da565b60405161051a9c9b9a999897969594939291906160cb565b6105df6107b6366004615112565b612a40565b6105fc6107c93660046150c8565b612a7e565b6105fc612a8e565b6107e96107e4366004614e23565b612a9d565b60405161051a9c9b9a9998979695949392919061601d565b6105fc612b9c565b6104f06108173660046150c8565b612bab565b61050d61082a366004614e3d565b612d5a565b6104f061083d366004615076565b612d8b565b61050d610850366004614e3d565b612ddd565b6104f06108633660046150c8565b612df2565b6105df6108763660046150c8565b612ef3565b61050d612f35565b6105df610891366004614e3d565b612f3b565b61050d612f8e565b6105fc613043565b6105df6108b4366004614e23565b613052565b61050d6108c7366004614e66565b6131e1565b6106c96108da3660046150f1565b6132cd565b6104f06108ed366004614e23565b613440565b6104f06109003660046150f1565b6134a1565b61050d6109133660046150c8565b6138d5565b61050d610926366004614e23565b613912565b61050d613924565b61050d610941366004614e3d565b61392a565b6104f0610954366004614fe1565b6139bf565b6105fc610967366004614e3d565b613a7a565b61050d61097a366004614e3d565b613ab2565b6105df61098d3660046150c8565b613af7565b6104f06109a0366004614e23565b613afc565b6104f06109b3366004614e23565b613b5d565b6106c96109c63660046150c8565b613bbe565b61050d613c37565b6105df6109e1366004614e23565b613c3d565b6104f06109f43660046150c8565b613c5e565b6104f0610a073660046150c8565b613d9a565b6105ac610a1a3660046150c8565b613dde565b6104f0610a2d366004614e23565b614159565b61050d610a40366004614e23565b6141ca565b61050d61426b565b6104f0614271565b6105df610a633660046150c8565b614416565b6105df61441e565b6105fc614437565b61050d610a86366004614e23565b614446565b828114610a9757600080fd5b60005b83811015610b0a57610af8858583818110610ac557634e487b7160e01b600052603260045260246000fd5b90506020020135848484818110610aec57634e487b7160e01b600052603260045260246000fd5b905060200201356134a1565b80610b02816162a4565b915050610a9a565b5050505050565b610b19614592565b610b2283611c1a565b610b475760405162461bcd60e51b8152600401610b3e90615cd0565b60405180910390fd5b336000908152600a6020908152604080832086845290915290205460ff16610b815760405162461bcd60e51b8152600401610b3e906158e9565b336000908152600b6020908152604080832086845290915290205460ff1615610bbc5760405162461bcd60e51b8152600401610b3e906158a3565b610bc63384613ab2565b8282604051602001610bd992919061529b565b6040516020818303038152906040528051906020012014610c0c5760405162461bcd60e51b8152600401610b3e9061555a565b6000610c18338561392a565b90508260011415610c4f576000848152601e602052604081206007018054839290610c449084906161d7565b90915550610c769050565b6000848152601e602052604081206008018054839290610c709084906161d7565b90915550505b336000908152600d60205260409081902090516301039dfd60e11b815273__$85afbab79b2b776d70bef879a32ed56424$__916302073bfa91610cbe9190889060040161529b565b60006040518083038186803b158015610cd657600080fd5b505af4158015610cea573d6000803e3d6000fd5b5050336000818152600b602090815260408083208a84528252808320805460ff19166001908117909155600c8352818420948452938252808320899055601382528083206003808201548552601e90935292200154909350610d4d9250906146ec565b600382810180546000908152601e6020526040808220840194909455600885018054600160ff199182168117909255600487018054909116909117905590548152919091200154610da157610da185612015565b6000858152601e602052604090819020600781015460089091015491513392879289927f0867b5027231dcbf37614eaad07d667b9febaf9fdf483f488229b1f140bb074892610df49289929091906160b5565b60405180910390a45050505050565b60065481565b610e116146f8565b6001600160a01b0316610e22612b9c565b6001600160a01b031614610e485760405162461bcd60e51b8152600401610b3e90615b58565b602280546001600160a01b0319166001600160a01b0392909216919091179055565b6000610e7582611832565b610e915760405162461bcd60e51b8152600401610b3e90615962565b610e9a82611c74565b15610eb757506000818152601e6020526040902060070154610ecb565b506000818152601e60205260409020600801545b919050565b60115481565b86516000908514610ee657600080fd5b60015433600090815260166020526040902054811115610f285733600090815260166020526040812054610f1b9083906146ec565b9050610f2681612df2565b505b60005b895181101561127b5760008a8281518110610f5657634e487b7160e01b600052603260045260246000fd5b602002602001015190506000898984818110610f8257634e487b7160e01b600052603260045260246000fd5b9050602002810190610f94919061613b565b8080601f016020809104026020016040519081016040528093929190818152602001838380828437600092018290525033815260166020526040902054939450505050841115610ff65760405162461bcd60e51b8152600401610b3e90615e10565b815182906110165760405162461bcd60e51b8152600401610b3e90615c43565b6010546110249060016161d7565b60108181553360008181526015602090815260408083208054600181018255908452828420019590955584516101008101865288815280820193909352428386015260608301879052608083018e905260a083018d905260c083018c905260e083018290529254815260148352929092208251805191926110aa92849290910190614b14565b506020828101516001830180546001600160a01b0319166001600160a01b0390921691909117905560408301516002830155606083015180516110f39260038501920190614b14565b506080820151805161110f916004840191602090910190614b98565b5060a0820151805161112b916005840191602090910190614bf1565b5060c08201518051611147916006840191602090910190614b14565b5060e082015160078201805460ff1916600183600381111561117957634e487b7160e01b600052602160045260246000fd5b021790555050601c546000908152601e60205260409020905061119e60016005616222565b816002015410156111d05760018160020160008282546111be91906161d7565b9091555050601054600182015561121c565b60048101805461ff001960ff199091166001171690556111ee6146fc565b6001601c600082825461120191906161d7565b9091555050601054601c546000908152601e60205260409020555b336001600160a01b03166010547fb7b95e293993cd6c0c54a48cee487ef3dd8f51be568be962db90e7784af70dd186868e60405161125c9392919061537e565b60405180910390a3505050508080611273906162a4565b915050610f2b565b506010549150505b979650505050505050565b6014602052600090815260409020805481906112a990616269565b80601f01602080910402602001604051908101604052809291908181526020018280546112d590616269565b80156113225780601f106112f757610100808354040283529160200191611322565b820191906000526020600020905b81548152906001019060200180831161130557829003601f168201915b505050506001830154600284015460038501805494956001600160a01b03909316949193509061135190616269565b80601f016020809104026020016040519081016040528092919081815260200182805461137d90616269565b80156113ca5780601f1061139f576101008083540402835291602001916113ca565b820191906000526020600020905b8154815290600101906020018083116113ad57829003601f168201915b5050505050908060060180546113df90616269565b80601f016020809104026020016040519081016040528092919081815260200182805461140b90616269565b80156114585780601f1061142d57610100808354040283529160200191611458565b820191906000526020600020905b81548152906001019060200180831161143b57829003601f168201915b5050506007909301549192505060ff1686565b60105481565b60075481565b606061148282614416565b61149e5760405162461bcd60e51b8152600401610b3e90615a28565b6000828152601e6020908152604080832081516101c081018352815481526001820154938101939093526002810154918301919091526003808201546060840152600482015460ff808216151560808601526101008083048216151560a0870152620100009092048116151560c0860152600584015460e086015260068401549185019190915260078301546101208501526008830154610140850152600983015461016085019291169081111561156657634e487b7160e01b600052602160045260246000fd5b600381111561158557634e487b7160e01b600052602160045260246000fd5b8152602001600a8201805480602002602001604051908101604052809291908181526020016000905b8282101561165a5783829060005260206000200180546115cd90616269565b80601f01602080910402602001604051908101604052809291908181526020018280546115f990616269565b80156116465780601f1061161b57610100808354040283529160200191611646565b820191906000526020600020905b81548152906001019060200180831161162957829003601f168201915b5050505050815260200190600101906115ae565b505050508152602001600b82018054806020026020016040519081016040528092919081815260200182805480156116b157602002820191906000526020600020905b81548152602001906001019080831161169d575b5050509190925250505060408181015182518251600580825260c082019094529394509092909160009190816020015b60608152602001906001900390816116e157905050905060005b838110156117f55784516000906117139083906161d7565b60008181526014602052604081206003018054929350909161173490616269565b80601f016020809104026020016040519081016040528092919081815260200182805461176090616269565b80156117ad5780601f10611782576101008083540402835291602001916117ad565b820191906000526020600020905b81548152906001019060200180831161179057829003601f168201915b50505050509050808484815181106117d557634e487b7160e01b600052603260045260246000fd5b6020026020010181905250505080806117ed906162a4565b9150506116fb565b5095945050505050565b6000828260405160200161181492919061529b565b60405160208183030381529060405280519060200120905092915050565b600061183d82614416565b6118595760405162461bcd60e51b8152600401610b3e90615f17565b6000828152601e602052604090206006015461187490613af7565b92915050565b611882614592565b336000908152601360205260409020600881015460ff1615156001146118ba5760405162461bcd60e51b8152600401610b3e906157d0565b60006118c461296e565b90506118cf33614782565b600182018054336001600160a01b03199182168117909255600284018054909116821790556007830182905560088301805460ff19908116909155600a8401805490911690556040517f9dadcedba048e92b943ea1c5861cee1df63a566d7f795869c004780c1c698e2b90611945908490615276565b60405180910390a25050565b6021546001600160a01b031681565b60008061196c85611b7a565b9050600061197a868361392a565b90505b8115611af25761198d868361392a565b9050848111611a4a5783821415611a42576001600160a01b0386166000908152600d60205260409081902090516301c39b2b60e11b815273__$85afbab79b2b776d70bef879a32ed56424$__916303873656916119ef9190869060040161529b565b60206040518083038186803b158015611a0757600080fd5b505af4158015611a1b573d6000803e3d6000fd5b505050506040513d601f19601f82011682018060405250810190611a3f91906150e0565b91505b509050611af6565b6001600160a01b0386166000908152600d60205260409081902090516301c39b2b60e11b815273__$85afbab79b2b776d70bef879a32ed56424$__91630387365691611a9b9190869060040161529b565b60206040518083038186803b158015611ab357600080fd5b505af4158015611ac7573d6000803e3d6000fd5b505050506040513d601f19601f82011682018060405250810190611aeb91906150e0565b915061197d565b5090505b9392505050565b600f5481565b6000818152601e6020526040812060088101546007909101548291611af6916161d7565b60188181548110611b3757600080fd5b6000918252602090912001546001600160a01b0316905081565b60125481565b60405160009080602081848060185afa611b6d57fe5b5051919050565b60095481565b6001600160a01b0381166000908152600d602052604080822090516301c39b2b60e11b815273__$85afbab79b2b776d70bef879a32ed56424$__91630387365691611bca9190859060040161529b565b60206040518083038186803b158015611be257600080fd5b505af4158015611bf6573d6000803e3d6000fd5b505050506040513d601f19601f8201168201806040525081019061187491906150e0565b6000611c2582614416565b611c415760405162461bcd60e51b8152600401610b3e90615a28565b6000828152601e6020526040902060060154611c5c90613af7565b1580156118745750611c6d82612ef3565b1592915050565b6000611c7f82611832565b611c9b5760405162461bcd60e51b8152600401610b3e90615962565b6000828152601e6020908152604080832081516101c081018352815481526001820154938101939093526002810154918301919091526003808201546060840152600482015460ff808216151560808601526101008083048216151560a0870152620100009092048116151560c0860152600584015460e0860152600684015491850191909152600783015461012085015260088301546101408501526009830154610160850192911690811115611d6357634e487b7160e01b600052602160045260246000fd5b6003811115611d8257634e487b7160e01b600052602160045260246000fd5b8152602001600a8201805480602002602001604051908101604052809291908181526020016000905b82821015611e57578382906000526020600020018054611dca90616269565b80601f0160208091040260200160405190810160405280929190818152602001828054611df690616269565b8015611e435780601f10611e1857610100808354040283529160200191611e43565b820191906000526020600020905b815481529060010190602001808311611e2657829003601f168201915b505050505081526020019060010190611dab565b505050508152602001600b8201805480602002602001604051908101604052809291908181526020018280548015611eae57602002820191906000526020600020905b815481526020019060010190808311611e9a575b5050505050815250509050806101400151816101200151611ecf91906161d7565b600954611edc9190616203565b610120820151611eed906064616203565b119392505050565b611efd6146f8565b6001600160a01b0316611f0e612b9c565b6001600160a01b031614611f345760405162461bcd60e51b8152600401610b3e90615b58565b601b80546001600160a01b0319166001600160a01b0392909216919091179055565b6022546001600160a01b031681565b6001600160a01b038116600090815260156020908152604091829020805483518184028101840190945280845260609392830182828015611fc557602002820191906000526020600020905b815481526020019060010190808311611fb1575b50505050509050919050565b611fd96146f8565b6001600160a01b0316611fea612b9c565b6001600160a01b0316146120105760405162461bcd60e51b8152600401610b3e90615b58565b600455565b61201e81611832565b61203a5760405162461bcd60e51b8152600401610b3e906155dd565b600061204582611c74565b6000838152601a60209081526040808320805482518185028101850190935280835294955092939092918301828280156120a857602002820191906000526020600020905b81546001600160a01b0316815260019091019060200180831161208a575b5050505050905060005b81518110156122d05760008282815181106120dd57634e487b7160e01b600052603260045260246000fd5b6020908102919091018101516000878152600c835260408082206001600160a01b0384168352845280822054600b85528183208a845290945290205490925060ff1680156122ba576001600160a01b0383166000908152601360205260409020600401805460ff1916600190811790915586151514801561215e5750816001145b80612173575085158015612173575081600114155b156122ba57602154600854604051630db6cc8560e11b81526001600160a01b0390921691631b6d990a916121ab918790600401616097565b602060405180830381600087803b1580156121c557600080fd5b505af11580156121d9573d6000803e3d6000fd5b505050506040513d601f19601f820116820180604052508101906121fd91906150a8565b6122195760405162461bcd60e51b8152600401610b3e90615990565b602254600654604051633832942560e21b81526001600160a01b039092169163e0ca50949161224c918790600401616006565b602060405180830381600087803b15801561226657600080fd5b505af115801561227a573d6000803e3d6000fd5b505050506040513d601f19601f8201168201806040525081019061229e91906150a8565b6122ba5760405162461bcd60e51b8152600401610b3e90615781565b50505080806122c8906162a4565b9150506120b2565b5081156124695760215460085460008581526014602052604090819020600101549051630db6cc8560e11b81526001600160a01b0393841693631b6d990a93612320939092911690600401616097565b602060405180830381600087803b15801561233a57600080fd5b505af115801561234e573d6000803e3d6000fd5b505050506040513d601f19601f8201168201806040525081019061237291906150a8565b61238e5760405162461bcd60e51b8152600401610b3e90615e6d565b60225460065460008581526014602052604090819020600101549051633832942560e21b81526001600160a01b039384169363e0ca5094936123d7939092911690600401616006565b602060405180830381600087803b1580156123f157600080fd5b505af1158015612405573d6000803e3d6000fd5b505050506040513d601f19601f8201168201806040525081019061242991906150a8565b6124455760405162461bcd60e51b8152600401610b3e90615dc1565b601c546000908152601e60205260409020600901805460ff19166001179055612489565b601c546000908152601e60205260409020600901805460ff191660021790555b601d546124979060016147de565b601d55601c546000908152601e60209081526040808320600401805461ff001916610100179055858352601490915290819020600181015491516001600160a01b03909216917f43916c3ae75995d24cc89b466ed08e6dba74d325f7957f9b37b05f150e12918e91612508916153c1565b60405180910390a2505050565b60045481565b60055481565b60025481565b601d546000908152601e602052604090206004015460ff1661255b5760405162461bcd60e51b8152600401610b3e90615c7a565b601d546000908152601e602052604090206004015462010000900460ff16156125965760405162461bcd60e51b8152600401610b3e90615a8d565b6018546000906125bf906064906125ae906032616203565b6125b891906161ef565b60016147ea565b601854601d546000908152601e602052604081206003908101849055546004549394509192906125ef42846147de565b905060006125fd82846147de565b601d80546000908152601e60205260408082206005018690558254825280822060060184905591548152908120600401805462ff000019166201000017905590915061264987876132cd565b9050600081516001600160401b0381111561267457634e487b7160e01b600052604160045260246000fd5b60405190808252806020026020018201604052801561269d578160200160208202803683370190505b50905060005b825181101561275c5760188382815181106126ce57634e487b7160e01b600052603260045260246000fd5b6020026020010151815481106126f457634e487b7160e01b600052603260045260246000fd5b9060005260206000200160009054906101000a90046001600160a01b031682828151811061273257634e487b7160e01b600052603260045260246000fd5b6001600160a01b039092166020928302919091019091015280612754816162a4565b9150506126a3565b5060005b82518110156128c657600082828151811061278b57634e487b7160e01b600052603260045260246000fd5b6020908102919091018101516001600160a01b03811660008181526013845260408082206019805460018181019092557f944998273e477b495144fb8794c914197f3ccb46be2900f4698fd0ef743c96950180546001600160a01b03199081168717909155601d548552601a8852928420805491820181558452959092209094018054909416909117909255855190925061284d9086908590811061284057634e487b7160e01b600052603260045260246000fd5b6020026020010151614800565b601d5460038083019190915560048201805460ff19169055600f54612871916161d7565b6005820155601d546040517fe4ee2dfabe57cee15e3f558890b20455f54c1fa0718e5276faad70a6500e6b8c906128a99085906152a9565b60405180910390a2505080806128be906162a4565b915050612760565b505050505050505050565b60006118748261094184611b7a565b6128e86146f8565b6001600160a01b03166128f9612b9c565b6001600160a01b03161461291f5760405162461bcd60e51b8152600401610b3e90615b58565b61292960006148da565b565b600061293682614416565b6129525760405162461bcd60e51b8152600401610b3e90615a28565b506000908152601e602052604090206006015490565b60085481565b4290565b6023546001600160a01b031681565b601c5481565b600061299282614416565b6129ae5760405162461bcd60e51b8152600401610b3e90615a28565b506001600160a01b03919091166000908152600a60209081526040808320938352929052205460ff1690565b601e602052600090815260409020805460018201546002830154600384015460048501546005860154600687015460078801546008890154600990990154979896979596949560ff8086169661010087048216966201000090048216959493929091168c565b600080612a4d848761392a565b83101590506000612a5e858761392a565b84111580612a6a575085155b905081801561128357509695505050505050565b60198181548110611b3757600080fd5b6020546001600160a01b031681565b601360205260009081526040902080546001820154600283015460038401546004850154600586015460068701546007880154600889015460098a018054999a6001600160a01b03998a169a9990981698969760ff9687169795969495939490921692612b0990616269565b80601f0160208091040260200160405190810160405280929190818152602001828054612b3590616269565b8015612b825780601f10612b5757610100808354040283529160200191612b82565b820191906000526020600020905b815481529060010190602001808311612b6557829003601f168201915b50505050600a830154600b90930154919260ff169190508c565b6000546001600160a01b031690565b60016000828152601e602052604090206009015460ff166003811115612be157634e487b7160e01b600052602160045260246000fd5b14612bfe5760405162461bcd60e51b8152600401610b3e906154a2565b336000908152600d60205260409081902090516306120d1f60e31b815273__$85afbab79b2b776d70bef879a32ed56424$__9163309068f891612c469190859060040161529b565b60206040518083038186803b158015612c5e57600080fd5b505af4158015612c72573d6000803e3d6000fd5b505050506040513d601f19601f82011682018060405250810190612c9691906150a8565b612cb25760405162461bcd60e51b8152600401610b3e906156da565b336000908152600d60205260409081902090516301039dfd60e11b815273__$85afbab79b2b776d70bef879a32ed56424$__916302073bfa91612cfa9190859060040161529b565b60006040518083038186803b158015612d1257600080fd5b505af4158015612d26573d6000803e3d6000fd5b50506040513392508391507f402507661c8c8cb90e0a796450b8bdd28b6c516f05279c0cd29e84c344e1699a90600090a350565b60156020528160005260406000208181548110612d7657600080fd5b90600052602060002001600091509150505481565b60005b8151811015612dd957612dc7828281518110612dba57634e487b7160e01b600052603260045260246000fd5b6020026020010151612bab565b80612dd1816162a4565b915050612d8e565b5050565b60008282604051602001611814929190615254565b6020546040516304ada21f60e21b81526001600160a01b03909116906312b6887c90612e249084903390600401616006565b602060405180830381600087803b158015612e3e57600080fd5b505af1158015612e52573d6000803e3d6000fd5b505050506040513d601f19601f82011682018060405250810190612e7691906150a8565b612e925760405162461bcd60e51b8152600401610b3e9061581b565b3360009081526016602052604081208054839290612eb19084906161d7565b909155505060405133907ff7aaf024511d9982df8cd0d437c71c30106e6848cd1ba3d288d7a9c0e276aeda90612ee8908490615276565b60405180910390a250565b6000612efe82614416565b612f1a5760405162461bcd60e51b8152600401610b3e90615a28565b6000828152601e6020526040902060050154611c6d90613af7565b60105490565b6000612f4682614416565b612f625760405162461bcd60e51b8152600401610b3e90615a28565b506001600160a01b03919091166000908152600b60209081526040808320938352929052205460ff1690565b6000804241604051602001612fa39190615237565b6040516020818303038152906040528051906020012060001c612fc691906161ef565b44612fcf611b57565b604051602001612fdf9190615276565b60408051601f19818403018152919052805160209091012061300190426161d7565b61300b91906161d7565b61301591906161d7565b6040516020016130259190615276565b60408051601f19818403018152919052805160209091012091505090565b601b546001600160a01b031681565b6001600160a01b03808216600090815260136020908152604080832081516101808101835281548152600182015486169381019390935260028101549094169082015260038301546060820152600483015460ff90811615156080830152600584015460a0830152600684015460c0830152600784015460e083015260088401541615156101008201526009830180549293849390916101208401916130f790616269565b80601f016020809104026020016040519081016040528092919081815260200182805461312390616269565b80156131705780601f1061314557610100808354040283529160200191613170565b820191906000526020600020905b81548152906001019060200180831161315357829003601f168201915b5050509183525050600a82015460ff1615156020820152600b909101546040909101526101408101519091506131b85760405162461bcd60e51b8152600401610b3e90615d5d565b60808101516000901580156131d25750600f548260a00151115b15611af6575060019392505050565b60006131ec83611832565b6132085760405162461bcd60e51b8152600401610b3e90615737565b6001600160a01b0384166000908152600b6020908152604080832086845290915290205460ff1661324b5760405162461bcd60e51b8152600401610b3e906159dd565b600061325684611c74565b613261576000613264565b60015b60ff1690506000818460405160200161327e92919061529b565b60405160208183030381529060405280519060200120905060006132a28787613ab2565b90508082146132c35760405162461bcd60e51b8152600401610b3e90615bfa565b611283878761392a565b60606000821180156132df5750818311155b80156132ec575060018310155b6133085760405162461bcd60e51b8152600401610b3e9061565a565b6000826001600160401b0381111561333057634e487b7160e01b600052604160045260246000fd5b604051908082528060200260200182016040528015613359578160200160208202803683370190505b5090506000846001600160401b0381111561338457634e487b7160e01b600052604160045260246000fd5b6040519080825280602002602001820160405280156133ad578160200160208202803683370190505b50905060006133c36133be8461492a565b614980565b905060005b86811015613435578181815181106133f057634e487b7160e01b600052603260045260246000fd5b602002602001015183828151811061341857634e487b7160e01b600052603260045260246000fd5b60209081029190910101528061342d816162a4565b9150506133c8565b509095945050505050565b6134486146f8565b6001600160a01b0316613459612b9c565b6001600160a01b03161461347f5760405162461bcd60e51b8152600401610b3e90615b58565b602380546001600160a01b0319166001600160a01b0392909216919091179055565b6134a9614592565b6134b282612ef3565b6134ce5760405162461bcd60e51b8152600401610b3e906156a3565b816134d833614446565b146134f55760405162461bcd60e51b8152600401610b3e90615aea565b60015433600090815260166020526040902054811115613537573360009081526016602052604081205461352a9083906146ec565b905061353581612df2565b505b336000908152601660205260409020548111156135665760405162461bcd60e51b8152600401610b3e90615e10565b826135835760405162461bcd60e51b8152600401610b3e90615878565b816135a05760405162461bcd60e51b8152600401610b3e90615938565b6000336000908152600d60205260408082209051631e0f232560e31b815273__$85afbab79b2b776d70bef879a32ed56424$__9163f0791928916135e99190869060040161529b565b60206040518083038186803b15801561360157600080fd5b505af4158015613615573d6000803e3d6000fd5b505050506040513d601f19601f8201168201806040525081019061363991906150e0565b9050848114156136de57336000908152600d6020526040908190209051631e0f232560e31b815273__$85afbab79b2b776d70bef879a32ed56424$__9163f07919289161368b9190899060040161529b565b60206040518083038186803b1580156136a357600080fd5b505af41580156136b7573d6000803e3d6000fd5b505050506040513d601f19601f820116820180604052508101906136db91906150e0565b90505b6136ea82823386612a40565b6137065760405162461bcd60e51b8152600401610b3e90615a5f565b336000908152600d602052604090819020905163524cfe5360e11b815273__$85afbab79b2b776d70bef879a32ed56424$__9163a499fca691613752919086908a908790600401615feb565b60006040518083038186803b15801561376a57600080fd5b505af415801561377e573d6000803e3d6000fd5b50505050600061378e3387612ddd565b60408051808201825260098152686e756d546f6b656e7360b81b6020820152905163099b040f60e31b81529192509073__$0947e710b66d7779e1d561254425e1375a$__90634cd82078906137ee90600e90869086908b90600401615f40565b60006040518083038186803b15801561380657600080fd5b505af415801561381a573d6000803e3d6000fd5b505060405163099b040f60e31b815273__$0947e710b66d7779e1d561254425e1375a$__9250634cd82078915061385a90600e9086908b90600401615f8e565b60006040518083038186803b15801561387257600080fd5b505af4158015613886573d6000803e3d6000fd5b50505050336001600160a01b0316877f42864d9683ff5b12c3b2cc65d705af5aab104b03bc700b802f79e5c971ef08a1876040516138c49190615276565b60405180910390a350505050505050565b60006138e082614416565b6138fc5760405162461bcd60e51b8152600401610b3e90615a28565b506000908152601e602052604090206005015490565b60166020526000908152604090205481565b60015481565b600073__$0947e710b66d7779e1d561254425e1375a$__6369810158600e6139528686612ddd565b6040518363ffffffff1660e01b815260040161396f929190615fbc565b60206040518083038186803b15801561398757600080fd5b505af415801561399b573d6000803e3d6000fd5b505050506040513d601f19601f82011682018060405250810190611af691906150e0565b8483146139cb57600080fd5b8481146139d757600080fd5b60005b85811015613a7157613a5f878783818110613a0557634e487b7160e01b600052603260045260246000fd5b90506020020135868684818110613a2c57634e487b7160e01b600052603260045260246000fd5b90506020020135858585818110613a5357634e487b7160e01b600052603260045260246000fd5b90506020020135610b11565b80613a69816162a4565b9150506139da565b50505050505050565b60176020528160005260406000208181548110613a9657600080fd5b6000918252602090912001546001600160a01b03169150829050565b600073__$0947e710b66d7779e1d561254425e1375a$__6369810158600e613ada8686612ddd565b6040518363ffffffff1660e01b815260040161396f929190615f70565b421190565b613b046146f8565b6001600160a01b0316613b15612b9c565b6001600160a01b031614613b3b5760405162461bcd60e51b8152600401610b3e90615b58565b602180546001600160a01b0319166001600160a01b0392909216919091179055565b613b656146f8565b6001600160a01b0316613b76612b9c565b6001600160a01b031614613b9c5760405162461bcd60e51b8152600401610b3e90615b58565b602080546001600160a01b0319166001600160a01b0392909216919091179055565b606060008211613bcd57600080fd5b6000826001600160401b03811115613bf557634e487b7160e01b600052604160045260246000fd5b604051908082528060200260200182016040528015613c1e578160200160208202803683370190505b5090506000613c2f6133be8361492a565b949350505050565b60035481565b6001600160a01b03166000908152601360205260409020600a015460ff1690565b6000613c82613c6c336128d1565b33600090815260166020526040902054906146ec565b905081811015613ca45760405162461bcd60e51b8152600401610b3e90615d16565b602054604051630895993360e11b81526001600160a01b039091169063112b326690613cd69085903390600401616006565b602060405180830381600087803b158015613cf057600080fd5b505af1158015613d04573d6000803e3d6000fd5b505050506040513d601f19601f82011682018060405250810190613d2891906150a8565b613d445760405162461bcd60e51b8152600401610b3e90615eba565b3360009081526016602052604081208054849290613d63908490616222565b909155505060405133907ffaeb7dbb9992397d26ea1944efd40c80b40f702faf69b46c67ad10aba68ccb7990611945908590615276565b613da26146f8565b6001600160a01b0316613db3612b9c565b6001600160a01b031614613dd95760405162461bcd60e51b8152600401610b3e90615b58565b600355565b6060613de982614416565b613e055760405162461bcd60e51b8152600401610b3e90615a28565b6000828152601e6020908152604080832081516101c081018352815481526001820154938101939093526002810154918301919091526003808201546060840152600482015460ff808216151560808601526101008083048216151560a0870152620100009092048116151560c0860152600584015460e0860152600684015491850191909152600783015461012085015260088301546101408501526009830154610160850192911690811115613ecd57634e487b7160e01b600052602160045260246000fd5b6003811115613eec57634e487b7160e01b600052602160045260246000fd5b8152602001600a8201805480602002602001604051908101604052809291908181526020016000905b82821015613fc1578382906000526020600020018054613f3490616269565b80601f0160208091040260200160405190810160405280929190818152602001828054613f6090616269565b8015613fad5780601f10613f8257610100808354040283529160200191613fad565b820191906000526020600020905b815481529060010190602001808311613f9057829003601f168201915b505050505081526020019060010190613f15565b505050508152602001600b820180548060200260200160405190810160405280929190818152602001828054801561401857602002820191906000526020600020905b815481526020019060010190808311614004575b5050509190925250505060408181015182518251600580825260c082019094529394509092909160009190816020015b606081526020019060019003908161404857905050905060005b838110156117f557845160009061407a9083906161d7565b60008181526014602052604081208054929350909161409890616269565b80601f01602080910402602001604051908101604052809291908181526020018280546140c490616269565b80156141115780601f106140e657610100808354040283529160200191614111565b820191906000526020600020905b8154815290600101906020018083116140f457829003601f168201915b505050505090508084848151811061413957634e487b7160e01b600052603260045260246000fd5b602002602001018190525050508080614151906162a4565b915050614062565b6141616146f8565b6001600160a01b0316614172612b9c565b6001600160a01b0316146141985760405162461bcd60e51b8152600401610b3e90615b58565b6001600160a01b0381166141be5760405162461bcd60e51b8152600401610b3e90615614565b6141c7816148da565b50565b6001600160a01b03811660009081526015602090815260408083208054825181850281018501909352808352849383018282801561422757602002820191906000526020600020905b815481526020019060010190808311614213575b50505050509050806001825161423d9190616222565b8151811061425b57634e487b7160e01b600052603260045260246000fd5b6020026020010151915050919050565b601d5481565b614279614592565b336000908152601360205260409020600881015460ff16156142ad5760405162461bcd60e51b8152600401610b3e9061546b565b60006142b761296e565b60015433600090815260166020526040902054919250908111156142fd57336000908152601660205260408120546142f09083906146ec565b90506142fb81612df2565b505b3360009081526016602052604090205481111561432c5760405162461bcd60e51b8152600401610b3e906154f3565b601880546001818101835560008390527fb13d2d76d1f4b7be834882e410b3e3a8afaf69f83600ae24db354391d2378d2e90910180546001600160a01b03191633179055905461437c9190616222565b835560018084018054336001600160a01b0319918216811790925560028601805490911690911790556007840183905560088401805460ff19169091179055600a83015460ff166143dd57600a8301805460ff1916600117905542600b8401555b336001600160a01b03167f439d77b7534ec3108fc6143bd4fbabde0b9f2bb54f7b0730d1f70dd2135b765f836040516125089190615276565b601054101590565b336000908152601360205260409020600a015460ff1690565b601f546001600160a01b031681565b6001600160a01b03808216600090815260136020908152604080832081516101808101835281548152600182015486169381019390935260028101549094169082015260038301546060820152600483015460ff90811615156080830152600584015460a0830152600684015460c0830152600784015460e083015260088401541615156101008201526009830180549293849390916101208401916144eb90616269565b80601f016020809104026020016040519081016040528092919081815260200182805461451790616269565b80156145645780601f1061453957610100808354040283529160200191614564565b820191906000526020600020905b81548152906001019060200180831161454757829003601f168201915b5050509183525050600a82015460ff1615156020820152600b90910154604090910152606001519392505050565b601b546001600160a01b03166145ba5760405162461bcd60e51b8152600401610b3e90615d94565b601b546040516000916001600160a01b0316906145db9033906024016152a9565b60408051601f198184030181529181526020820180516001600160e01b0316631f5ac9c560e11b17905251614610919061527f565b6000604051808303816000865af19150503d806000811461464d576040519150601f19603f3d011682016040523d82523d6000602084013e614652565b606091505b5050601b546040519192506000916001600160a01b039091169061467a9033906024016152a9565b60408051601f198184030181529181526020820180516001600160e01b03166358563d2160e01b179052516146af919061527f565b6000604051808303816000865af19150503d8060008114610b0a576040519150601f19603f3d011682016040523d82523d6000602084013e610b0a565b6000611af68284616222565b3390565b601d546000908152601e602052604090206004015462010000900460ff16151560011480159061472f5750601854600111155b1561473c5761473c612527565b6001600f600082825461474f91906161d7565b9091555050600f546040517f94d48a7342690f1233e3f4db70efa37c4f1f25f4d0397c353f3f15aecdeca5f490600090a2565b6001600160a01b0381166000908152601360205260409020600881015460ff1680156147b25750600a81015460ff165b6147ce5760405162461bcd60e51b8152600401610b3e90615b8d565b80546147d981614800565b505050565b6000611af682846161d7565b60008183106147f95781611af6565b5090919050565b6018805461481090600190616222565b8154811061482e57634e487b7160e01b600052603260045260246000fd5b600091825260209091200154601880546001600160a01b03909216918390811061486857634e487b7160e01b600052603260045260246000fd5b9060005260206000200160006101000a8154816001600160a01b0302191690836001600160a01b0316021790555060188054806148b557634e487b7160e01b600052603160045260246000fd5b600082815260209020810160001990810180546001600160a01b031916905501905550565b600080546001600160a01b038381166001600160a01b0319831681178455604051919092169283917f8be0079c531659141344cd1fd0a4f28419497f9722a3daafe3b4186f6b6457e09190a35050565b805160609060005b81811015614978578084828151811061495b57634e487b7160e01b600052603260045260246000fd5b602090810291909101015280614970816162a4565b915050614932565b509192915050565b6060600082511161499057600080fd5b81518060005b81811015614b0b576000836149a9612f8e565b8784815181106149c957634e487b7160e01b600052603260045260246000fd5b60200260200101516040516020016149e292919061529b565b6040516020818303038152906040528051906020012060001c614a0591906162bf565b614a109060016161d7565b9050600086614a20600184616222565b81518110614a3e57634e487b7160e01b600052603260045260246000fd5b6020026020010151905086600186614a569190616222565b81518110614a7457634e487b7160e01b600052603260045260246000fd5b602002602001015187600184614a8a9190616222565b81518110614aa857634e487b7160e01b600052603260045260246000fd5b60209081029190910101528087614ac0600188616222565b81518110614ade57634e487b7160e01b600052603260045260246000fd5b6020908102919091010152614af4600186616222565b945050508080614b03906162a4565b915050614996565b50929392505050565b828054614b2090616269565b90600052602060002090601f016020900481019282614b425760008555614b88565b82601f10614b5b57805160ff1916838001178555614b88565b82800160010185558215614b88579182015b82811115614b88578251825591602001919060010190614b6d565b50614b94929150614c2b565b5090565b828054828255906000526020600020908101928215614be5579160200282015b82811115614be55782518051614bd5918491602090910190614b14565b5091602001919060010190614bb8565b50614b94929150614c40565b828054828255906000526020600020908101928215614b885791602002820182811115614b88578251825591602001919060010190614b6d565b5b80821115614b945760008155600101614c2c565b80821115614b94576000614c548282614c5d565b50600101614c40565b508054614c6990616269565b6000825580601f10614c7b57506141c7565b601f0160209004906000526020600020908101906141c79190614c2b565b80356001600160a01b0381168114610ecb57600080fd5b60008083601f840112614cc1578182fd5b5081356001600160401b03811115614cd7578182fd5b6020830191508360208083028501011115614cf157600080fd5b9250929050565b600082601f830112614d08578081fd5b81356020614d1d614d18836161a8565b61617f565b82815281810190858301855b85811015614d5257614d40898684358b0101614db9565b84529284019290840190600101614d29565b5090979650505050505050565b600082601f830112614d6f578081fd5b81356020614d7f614d18836161a8565b8281528181019085830183850287018401881015614d9b578586fd5b855b85811015614d5257813584529284019290840190600101614d9d565b600082601f830112614dc9578081fd5b81356001600160401b03811115614de257614de26162ff565b614df5601f8201601f191660200161617f565b818152846020838601011115614e09578283fd5b816020850160208301379081016020019190915292915050565b600060208284031215614e34578081fd5b611af682614c99565b60008060408385031215614e4f578081fd5b614e5883614c99565b946020939093013593505050565b600080600060608486031215614e7a578081fd5b614e8384614c99565b95602085013595506040909401359392505050565b600080600080600080600060c0888a031215614eb2578283fd5b87356001600160401b0380821115614ec8578485fd5b614ed48b838c01614cf8565b9850614ee260208b01614c99565b975060408a0135915080821115614ef7578485fd5b614f038b838c01614cb0565b909750955060608a0135915080821115614f1b578485fd5b614f278b838c01614cf8565b945060808a0135915080821115614f3c578384fd5b614f488b838c01614d5f565b935060a08a0135915080821115614f5d578283fd5b50614f6a8a828b01614db9565b91505092959891949750929550565b60008060008060408587031215614f8e578384fd5b84356001600160401b0380821115614fa4578586fd5b614fb088838901614cb0565b90965094506020870135915080821115614fc8578384fd5b50614fd587828801614cb0565b95989497509550505050565b60008060008060008060608789031215614ff9578182fd5b86356001600160401b038082111561500f578384fd5b61501b8a838b01614cb0565b90985096506020890135915080821115615033578384fd5b61503f8a838b01614cb0565b90965094506040890135915080821115615057578384fd5b5061506489828a01614cb0565b979a9699509497509295939492505050565b600060208284031215615087578081fd5b81356001600160401b0381111561509c578182fd5b613c2f84828501614d5f565b6000602082840312156150b9578081fd5b81518015158114611af6578182fd5b6000602082840312156150d9578081fd5b5035919050565b600060208284031215611b6d578081fd5b60008060408385031215615103578182fd5b50508035926020909101359150565b60008060008060808587031215615127578182fd5b843593506020850135925061513e60408601614c99565b9396929550929360600135925050565b600080600060608486031215615162578081fd5b505081359360208301359350604090920135919050565b6000815180845260208085018081965082840281019150828601855b858110156151bf5782840389526151ad8483516151ee565b98850198935090840190600101615195565b5091979650505050505050565b600481106151ea57634e487b7160e01b600052602160045260246000fd5b9052565b60008151808452615206816020860160208601616239565b601f01601f19169290920160200192915050565b600a8152690c6dedadad2e890c2e6d60b31b602082015260400190565b60609190911b6bffffffffffffffffffffffff1916815260140190565b60609290921b6bffffffffffffffffffffffff19168252601482015260340190565b90815260200190565b60008251615291818460208701616239565b9190910192915050565b918252602082015260400190565b6001600160a01b0391909116815260200190565b600060208252611af66020830184615179565b6020808252825182820181905260009190848201906040850190845b81811015615308578351835292840192918401916001016152ec565b50909695505050505050565b901515815260200190565b600060c0825261533260c08301896151ee565b6001600160a01b038816602084015260408301879052828103606084015261535a81876151ee565b9050828103608084015261536e81866151ee565b91505061128360a08301846151cc565b60006060825261539160608301866151ee565b82810360208401526153a381866151ee565b905082810360408401526153b78185615179565b9695505050505050565b60006020808352818454836002820490506001808316806153e357607f831692505b85831081141561540157634e487b7160e01b87526022600452602487fd5b61540d83878a01615276565b81801561542157600181146154325761545c565b60ff1986168252878201965061545c565b61543b8b6161cb565b895b868110156154565781548482015290850190890161543d565b83019750505b50949998505050505050505050565b6020808252601c908201527f576f726b657220697320616c7265616479207265676973746572656400000000604082015260600190565b60208082526031908201527f676976656e204461746142617463682073686f756c6420626520415050524f5660408201527011510b08185b99081a5d081a5cc81b9bdd607a1b606082015260800190565b60208082526041908201527f576f726b657220686173206e6f7420656e6f75676820285f6e756d546f6b656e60408201527f732920696e206869732053706f745374616b6564546f6b656e42616c616e63656060820152600160fd1b608082015260a00190565b6020808252605c908201527f4e6f74207468652073616d6520766f7465207468616e2077686174207761732060408201527f636f6d6d697465642c20696d706f737369626c6520746f206d6174636820776960608201527f746820676976656e205f73616c742026205f766f74654f7074696f6e00000000608082015260a00190565b6020808252601a908201527f5f446174614261746368494420686173206e6f7420656e646564000000000000604082015260600190565b60208082526026908201527f4f776e61626c653a206e6577206f776e657220697320746865207a65726f206160408201526564647265737360d01b606082015260800190565b60208082526029908201527f6b206f72204e20617265206e6f74204f4b20647572696e672072616e646f6d2060408201526839b2b632b1ba34b7b760b91b606082015260800190565b6020808252601e908201527f636f6d6d697420706572696f64206e6565647320746f206265206f70656e0000604082015260600190565b60208082526039908201527f646c6c4d61703a20646f6573206e6f7420636f696e7461696e205f446174614260408201527f61746368494420666f7220746865206d73672073656e64657200000000000000606082015260800190565b6020808252602a908201527f5f446174614261746368494420636865636b696e6720766f7465206d757374206040820152691a185d9948195b99195960b21b606082015260800190565b6020808252602f908201527f636f756c64206e6f742072657761726420746f6b656e20696e2054726967676560408201526e3921b432b1b5a9b837ba161018973160891b606082015260800190565b6020808252602b908201527f576f726b6572206973206e6f7420617661696c61626c6520736f2063616e277460408201526a103ab73932b3b4b9ba32b960a91b606082015260800190565b6020808252603d908201527f436f756c64206e6f74207265717565737420656e6f75676820616c6c6f63617460408201527f6564207374616b652c2072657175657374566f74696e67526967687473000000606082015260800190565b60208082526011908201527005f446174614261746368494420213d203607c1b604082015260600190565b60208082526026908201527f557365722063616e206e6f742072657665616c207477696365206f6e2073616d6040820152656520766f746560d01b606082015260800190565b6020808252602f908201527f5573657220686173206e6f7420636f6d6d69746564206265666f72652c20746860408201526e1d5cc818d85b89dd081c995d99585b608a1b606082015260800190565b60208082526010908201526f05f7365637265744861736820213d20360841b604082015260600190565b60208082526014908201527311185d18481b5d5cdd081a185d9948195b99195960621b604082015260600190565b6020808252602d908201527f636f756c64206e6f74207265776172642052455020696e20547269676765724360408201526c6865636b53706f742c20312e6160981b606082015260800190565b6020808252602b908201527f75736572206d75737420686176652072657665616c656420696e20746869732060408201526a0ced2eccadc4084c2e8c6d60ab1b606082015260800190565b60208082526017908201527f5f4461746142617463684944206d757374206578697374000000000000000000604082015260600190565b6020808252601490820152733737ba1030903b30b634b2103837b9b4ba34b7b760611b604082015260600190565b6020808252603b908201527f43616e277420616c6c6f6361746520776f726b2c207468652063757272656e7460408201527f20626174636820697320616c726561647920616c6c6f63617465640000000000606082015260800190565b60208082526048908201527f55736572206e6565647320746f2068617665206265656e20616c6c6f6361746560408201527f64207468652063757272656e74206461746120626174636820746f20636f6d6d6060820152671a5d081bdb881a5d60c21b608082015260a00190565b6020808252818101527f4f776e61626c653a2063616c6c6572206973206e6f7420746865206f776e6572604082015260600190565b60208082526047908201527f72656d6f7665576f726b657246726f6d4163746976653a20576f726b6572206e60408201527f6565647320746f20626520617661696c61626c65206e6f7720616e64207265676060820152661a5cdd195c995960ca1b608082015260a00190565b60208082526029908201527f6765744e756d50617373696e67546f6b656e733a20686173686573206d75737460408201526808189948195c5d585b60ba1b606082015260800190565b6020808252601d908201527f66696c655f68617368206c656e677468206d75737420626520213d2030000000604082015260600190565b60208082526036908201527f43616e277420616c6c6f6361746520776f726b2c207468652063757272656e74604082015275206261746368206973206e6f7420636f6d706c65746560501b606082015260800190565b60208082526026908201527f52657665616c20706572696f64206e6f74206f70656e20666f7220746869732060408201526511185d18525160d21b606082015260800190565b60208082526027908201527f617661696c61626c65546f6b656e732073686f756c64206265203e3d205f6e756040820152666d546f6b656e7360c81b606082015260800190565b60208082526019908201527f557365722068617320746f206265207265676973746572656400000000000000604082015260600190565b6020808252601390820152720c081059191c995cdcc8139bdd0815985b1a59606a1b604082015260600190565b6020808252602f908201527f636f756c64206e6f742072657761726420746f6b656e20696e2054726967676560408201526e3921b432b1b5a9b837ba161019173160891b606082015260800190565b60208082526037908201527f75736572206d757374206861766520656e6f75676820766f74696e672072696760408201527f68747320616b6120616c6c6f6361746564207374616b65000000000000000000606082015260800190565b6020808252602d908201527f636f756c64206e6f74207265776172642052455020696e20547269676765724360408201526c6865636b53706f742c20322e6160981b606082015260800190565b6020808252603b908201527f436f756c64206e6f74207769746864726177566f74696e67526967687473207460408201527f68726f7567682050726f78795374616b654465616c6c6f636174650000000000606082015260800190565b6020808252600f908201526e11185d18481b5d5cdd08195e1a5cdd608a1b604082015260600190565b600085825284602083015260806040830152615f5f60808301856151ee565b905082606083015295945050505050565b600083825282602083015260606040830152613c2f6060830161521a565b600084825283602083015260806040830152615fac6080830161521a565b9050826060830152949350505050565b9182526020820152606060408201819052600990820152686e756d546f6b656e7360b81b608082015260a00190565b93845260208401929092526040830152606082015260800190565b9182526001600160a01b0316602082015260400190565b60006101808e835260018060a01b03808f166020850152808e166040850152508b60608401528a151560808401528960a08401528860c08401528760e084015286151561010084015280610120840152616079818401876151ee565b941515610140840152505061016001529a9950505050505050505050565b9182526001600160a01b031660208201526000604082015260600190565b9283526020830191909152604082015260600190565b6000610180820190508d82528c60208301528b60408301528a6060830152891515608083015288151560a083015287151560c08301528660e083015285610100830152846101208301528361014083015261612a6101608301846151cc565b9d9c50505050505050505050505050565b6000808335601e19843603018112616151578283fd5b8301803591506001600160401b0382111561616a578283fd5b602001915036819003821315614cf157600080fd5b6040518181016001600160401b03811182821017156161a0576161a06162ff565b604052919050565b60006001600160401b038211156161c1576161c16162ff565b5060209081020190565b60009081526020902090565b600082198211156161ea576161ea6162d3565b500190565b6000826161fe576161fe6162e9565b500490565b600081600019048311821515161561621d5761621d6162d3565b500290565b600082821015616234576162346162d3565b500390565b60005b8381101561625457818101518382015260200161623c565b83811115616263576000848401525b50505050565b60028104600182168061627d57607f821691505b6020821081141561629e57634e487b7160e01b600052602260045260246000fd5b50919050565b60006000198214156162b8576162b86162d3565b5060010190565b6000826162ce576162ce6162e9565b500690565b634e487b7160e01b600052601160045260246000fd5b634e487b7160e01b600052601260045260246000fd5b634e487b7160e01b600052604160045260246000fdfea26469706673582212200fae05bd23f67ec94054c5b52e6c999bd01e77a05c525a52aa8592f89b55229564736f6c63430008000033",
  "linkReferences": {
    "contracts/worksystems/DataSpotting.sol": {
      "AttributeStore": [
        {
          "length": 20,
          "start": 14678
        },
        {
          "length": 20,
          "start": 14786
        },
        {
          "length": 20,
          "start": 15045
        },
        {
          "length": 20,
          "start": 15437
        }
      ],
      "DLL": [
        {
          "length": 20,
          "start": 3628
        },
        {
          "length": 20,
          "start": 7005
        },
        {
          "length": 20,
          "start": 7177
        },
        {
          "length": 20,
          "start": 7480
        },
        {
          "length": 20,
          "start": 11700
        },
        {
          "length": 20,
          "start": 11880
        },
        {
          "length": 20,
          "start": 14167
        },
        {
          "length": 20,
          "start": 14329
        },
        {
          "length": 20,
          "start": 14524
        }
      ]
    }
  },
  "deployedLinkReferences": {
    "contracts/worksystems/DataSpotting.sol": {
      "AttributeStore": [
        {
          "length": 20,
          "start": 14271
        },
        {
          "length": 20,
          "start": 14379
        },
        {
          "length": 20,
          "start": 14638
        },
        {
          "length": 20,
          "start": 15030
        }
      ],
      "DLL": [
        {
          "length": 20,
          "start": 3221
        },
        {
          "length": 20,
          "start": 6598
        },
        {
          "length": 20,
          "start": 6770
        },
        {
          "length": 20,
          "start": 7073
        },
        {
          "length": 20,
          "start": 11293
        },
        {
          "length": 20,
          "start": 11473
        },
        {
          "length": 20,
          "start": 13760
        },
        {
          "length": 20,
          "start": 13922
        },
        {
          "length": 20,
          "start": 14117
        }
      ]
    }
  }
}