{
  "_format": "hh-sol-artifact-1",
  "contractName": "DataSpotting",
  "sourceName": "contracts/worksystems/DataSpotting.sol",
  "abi": [
    {
      "inputs": [
        {
          "internalType": "address",
          "name": "EXDT_token",
          "type": "address"
        }
      ],
      "stateMutability": "nonpayable",
      "type": "constructor"
    },
    {
      "anonymous": false,
      "inputs": [
        {
          "indexed": true,
          "internalType": "address",
          "name": "previousOwner",
          "type": "address"
        },
        {
          "indexed": true,
          "internalType": "address",
          "name": "newOwner",
          "type": "address"
        }
      ],
      "name": "OwnershipTransferred",
      "type": "event"
    },
    {
      "anonymous": false,
      "inputs": [
        {
          "indexed": true,
          "internalType": "uint256",
          "name": "epochNumber",
          "type": "uint256"
        }
      ],
      "name": "_NewEpoch",
      "type": "event"
    },
    {
      "anonymous": false,
      "inputs": [
        {
          "indexed": false,
          "internalType": "string",
          "name": "hash",
          "type": "string"
        },
        {
          "indexed": true,
          "internalType": "address",
          "name": "creator",
          "type": "address"
        }
      ],
      "name": "_SpotAccepted",
      "type": "event"
    },
    {
      "anonymous": false,
      "inputs": [
        {
          "indexed": true,
          "internalType": "uint256",
          "name": "DataID",
          "type": "uint256"
        },
        {
          "indexed": false,
          "internalType": "uint256",
          "name": "numTokens",
          "type": "uint256"
        },
        {
          "indexed": true,
          "internalType": "address",
          "name": "voter",
          "type": "address"
        }
      ],
      "name": "_SpotCheckCommitted",
      "type": "event"
    },
    {
      "anonymous": false,
      "inputs": [
        {
          "indexed": true,
          "internalType": "uint256",
          "name": "DataID",
          "type": "uint256"
        },
        {
          "indexed": false,
          "internalType": "uint256",
          "name": "numTokens",
          "type": "uint256"
        },
        {
          "indexed": false,
          "internalType": "uint256",
          "name": "votesFor",
          "type": "uint256"
        },
        {
          "indexed": false,
          "internalType": "uint256",
          "name": "votesAgainst",
          "type": "uint256"
        },
        {
          "indexed": true,
          "internalType": "uint256",
          "name": "choice",
          "type": "uint256"
        },
        {
          "indexed": true,
          "internalType": "address",
          "name": "voter",
          "type": "address"
        }
      ],
      "name": "_SpotCheckRevealed",
      "type": "event"
    },
    {
      "anonymous": false,
      "inputs": [
        {
          "indexed": true,
          "internalType": "uint256",
          "name": "DataID",
          "type": "uint256"
        },
        {
          "indexed": false,
          "internalType": "string",
          "name": "file_hash",
          "type": "string"
        },
        {
          "indexed": false,
          "internalType": "string",
          "name": "URL_domain",
          "type": "string"
        },
        {
          "indexed": false,
          "internalType": "string[]",
          "name": "tags",
          "type": "string[]"
        },
        {
          "indexed": true,
          "internalType": "address",
          "name": "sender",
          "type": "address"
        }
      ],
      "name": "_SpotSubmitted",
      "type": "event"
    },
    {
      "anonymous": false,
      "inputs": [
        {
          "indexed": true,
          "internalType": "uint256",
          "name": "DataID",
          "type": "uint256"
        },
        {
          "indexed": true,
          "internalType": "address",
          "name": "voter",
          "type": "address"
        }
      ],
      "name": "_TokensRescued",
      "type": "event"
    },
    {
      "anonymous": false,
      "inputs": [
        {
          "indexed": false,
          "internalType": "uint256",
          "name": "numTokens",
          "type": "uint256"
        },
        {
          "indexed": true,
          "internalType": "address",
          "name": "voter",
          "type": "address"
        }
      ],
      "name": "_VotingRightsGranted",
      "type": "event"
    },
    {
      "anonymous": false,
      "inputs": [
        {
          "indexed": false,
          "internalType": "uint256",
          "name": "numTokens",
          "type": "uint256"
        },
        {
          "indexed": true,
          "internalType": "address",
          "name": "voter",
          "type": "address"
        }
      ],
      "name": "_VotingRightsWithdrawn",
      "type": "event"
    },
    {
      "anonymous": false,
      "inputs": [
        {
          "indexed": true,
          "internalType": "uint256",
          "name": "batchID",
          "type": "uint256"
        },
        {
          "indexed": false,
          "internalType": "address",
          "name": "worker",
          "type": "address"
        }
      ],
      "name": "_WorkAllocated",
      "type": "event"
    },
    {
      "anonymous": false,
      "inputs": [
        {
          "indexed": true,
          "internalType": "address",
          "name": "worker",
          "type": "address"
        },
        {
          "indexed": false,
          "internalType": "uint256",
          "name": "timestamp",
          "type": "uint256"
        }
      ],
      "name": "_WorkerRegistered",
      "type": "event"
    },
    {
      "anonymous": false,
      "inputs": [
        {
          "indexed": true,
          "internalType": "address",
          "name": "worker",
          "type": "address"
        },
        {
          "indexed": false,
          "internalType": "uint256",
          "name": "timestamp",
          "type": "uint256"
        }
      ],
      "name": "_WorkerUnregistered",
      "type": "event"
    },
    {
      "inputs": [],
      "name": "AddressManager",
      "outputs": [
        {
          "internalType": "contract IAddressManager",
          "name": "",
          "type": "address"
        }
      ],
      "stateMutability": "view",
      "type": "function"
    },
    {
      "inputs": [],
      "name": "AllocateWork",
      "outputs": [],
      "stateMutability": "nonpayable",
      "type": "function"
    },
    {
      "inputs": [],
      "name": "AmIRegistered",
      "outputs": [
        {
          "internalType": "bool",
          "name": "passed",
          "type": "bool"
        }
      ],
      "stateMutability": "view",
      "type": "function"
    },
    {
      "inputs": [],
      "name": "BatchCheckingCursor",
      "outputs": [
        {
          "internalType": "uint256",
          "name": "",
          "type": "uint256"
        }
      ],
      "stateMutability": "view",
      "type": "function"
    },
    {
      "inputs": [],
      "name": "COMMIT_ROUND_DURATION",
      "outputs": [
        {
          "internalType": "uint256",
          "name": "",
          "type": "uint256"
        }
      ],
      "stateMutability": "view",
      "type": "function"
    },
    {
      "inputs": [],
      "name": "CurrentWorkEpoch",
      "outputs": [
        {
          "internalType": "uint256",
          "name": "",
          "type": "uint256"
        }
      ],
      "stateMutability": "view",
      "type": "function"
    },
    {
      "inputs": [
        {
          "internalType": "uint256",
          "name": "",
          "type": "uint256"
        }
      ],
      "name": "DataBatch",
      "outputs": [
        {
          "internalType": "uint256",
          "name": "start_idx",
          "type": "uint256"
        },
        {
          "internalType": "uint256",
          "name": "end_idx",
          "type": "uint256"
        },
        {
          "internalType": "uint256",
          "name": "counter",
          "type": "uint256"
        },
        {
          "internalType": "uint256",
          "name": "unrevealed_workers",
          "type": "uint256"
        },
        {
          "internalType": "bool",
          "name": "complete",
          "type": "bool"
        },
        {
          "internalType": "bool",
          "name": "checked",
          "type": "bool"
        },
        {
          "internalType": "bool",
          "name": "allocated_to_work",
          "type": "bool"
        },
        {
          "internalType": "uint256",
          "name": "commitEndDate",
          "type": "uint256"
        },
        {
          "internalType": "uint256",
          "name": "revealEndDate",
          "type": "uint256"
        },
        {
          "internalType": "uint256",
          "name": "votesFor",
          "type": "uint256"
        },
        {
          "internalType": "uint256",
          "name": "votesAgainst",
          "type": "uint256"
        },
        {
          "internalType": "enum DataSpotting.DataSatus",
          "name": "status",
          "type": "uint8"
        }
      ],
      "stateMutability": "view",
      "type": "function"
    },
    {
      "inputs": [
        {
          "internalType": "uint256",
          "name": "_DataBatchID",
          "type": "uint256"
        }
      ],
      "name": "DataCommitEndDate",
      "outputs": [
        {
          "internalType": "uint256",
          "name": "commitEndDate",
          "type": "uint256"
        }
      ],
      "stateMutability": "view",
      "type": "function"
    },
    {
      "inputs": [
        {
          "internalType": "uint256",
          "name": "_DataBatchID",
          "type": "uint256"
        }
      ],
      "name": "DataEnded",
      "outputs": [
        {
          "internalType": "bool",
          "name": "ended",
          "type": "bool"
        }
      ],
      "stateMutability": "view",
      "type": "function"
    },
    {
      "inputs": [
        {
          "internalType": "uint256",
          "name": "_DataBatchID",
          "type": "uint256"
        }
      ],
      "name": "DataExists",
      "outputs": [
        {
          "internalType": "bool",
          "name": "exists",
          "type": "bool"
        }
      ],
      "stateMutability": "view",
      "type": "function"
    },
    {
      "inputs": [],
      "name": "DataNonce",
      "outputs": [
        {
          "internalType": "uint256",
          "name": "",
          "type": "uint256"
        }
      ],
      "stateMutability": "view",
      "type": "function"
    },
    {
      "inputs": [
        {
          "internalType": "uint256",
          "name": "_DataBatchID",
          "type": "uint256"
        }
      ],
      "name": "DataRevealEndDate",
      "outputs": [
        {
          "internalType": "uint256",
          "name": "revealEndDate",
          "type": "uint256"
        }
      ],
      "stateMutability": "view",
      "type": "function"
    },
    {
      "inputs": [
        {
          "internalType": "address",
          "name": "user_",
          "type": "address"
        }
      ],
      "name": "GetCurrentWork",
      "outputs": [
        {
          "internalType": "uint256",
          "name": "",
          "type": "uint256"
        }
      ],
      "stateMutability": "view",
      "type": "function"
    },
    {
      "inputs": [
        {
          "internalType": "address",
          "name": "user_",
          "type": "address"
        }
      ],
      "name": "IsNewWorkAvailable",
      "outputs": [
        {
          "internalType": "bool",
          "name": "",
          "type": "bool"
        }
      ],
      "stateMutability": "view",
      "type": "function"
    },
    {
      "inputs": [],
      "name": "LastBatchCounter",
      "outputs": [
        {
          "internalType": "uint256",
          "name": "",
          "type": "uint256"
        }
      ],
      "stateMutability": "view",
      "type": "function"
    },
    {
      "inputs": [],
      "name": "MIN_PARTICIPANTS_FOR_VALIDITY",
      "outputs": [
        {
          "internalType": "uint256",
          "name": "",
          "type": "uint256"
        }
      ],
      "stateMutability": "view",
      "type": "function"
    },
    {
      "inputs": [],
      "name": "MIN_REP_Data",
      "outputs": [
        {
          "internalType": "uint256",
          "name": "",
          "type": "uint256"
        }
      ],
      "stateMutability": "view",
      "type": "function"
    },
    {
      "inputs": [],
      "name": "MIN_REP_REVEAL",
      "outputs": [
        {
          "internalType": "uint256",
          "name": "",
          "type": "uint256"
        }
      ],
      "stateMutability": "view",
      "type": "function"
    },
    {
      "inputs": [],
      "name": "MIN_REWARD_Data",
      "outputs": [
        {
          "internalType": "uint256",
          "name": "",
          "type": "uint256"
        }
      ],
      "stateMutability": "view",
      "type": "function"
    },
    {
      "inputs": [],
      "name": "MIN_STAKE",
      "outputs": [
        {
          "internalType": "uint256",
          "name": "",
          "type": "uint256"
        }
      ],
      "stateMutability": "view",
      "type": "function"
    },
    {
      "inputs": [
        {
          "internalType": "address",
          "name": "",
          "type": "address"
        },
        {
          "internalType": "uint256",
          "name": "",
          "type": "uint256"
        }
      ],
      "name": "MasterWorkers",
      "outputs": [
        {
          "internalType": "address",
          "name": "",
          "type": "address"
        }
      ],
      "stateMutability": "view",
      "type": "function"
    },
    {
      "inputs": [],
      "name": "REVEAL_ROUND_DURATION",
      "outputs": [
        {
          "internalType": "uint256",
          "name": "",
          "type": "uint256"
        }
      ],
      "stateMutability": "view",
      "type": "function"
    },
    {
      "inputs": [],
      "name": "RegisterWorker",
      "outputs": [],
      "stateMutability": "nonpayable",
      "type": "function"
    },
    {
      "inputs": [],
      "name": "RepManager",
      "outputs": [
        {
          "internalType": "contract IRepManager",
          "name": "",
          "type": "address"
        }
      ],
      "stateMutability": "view",
      "type": "function"
    },
    {
      "inputs": [],
      "name": "RewardManager",
      "outputs": [
        {
          "internalType": "contract IRewardManager",
          "name": "",
          "type": "address"
        }
      ],
      "stateMutability": "view",
      "type": "function"
    },
    {
      "inputs": [],
      "name": "SPOT_CHECK_VOTE_QUORUM",
      "outputs": [
        {
          "internalType": "uint256",
          "name": "",
          "type": "uint256"
        }
      ],
      "stateMutability": "view",
      "type": "function"
    },
    {
      "inputs": [
        {
          "internalType": "string[]",
          "name": "file_hashs",
          "type": "string[]"
        },
        {
          "internalType": "address",
          "name": "main_worker_account",
          "type": "address"
        },
        {
          "internalType": "string[]",
          "name": "URL_domains",
          "type": "string[]"
        },
        {
          "internalType": "string[]",
          "name": "tags_",
          "type": "string[]"
        },
        {
          "internalType": "uint256[]",
          "name": "tags_id_",
          "type": "uint256[]"
        },
        {
          "internalType": "string",
          "name": "extra_",
          "type": "string"
        }
      ],
      "name": "SpotData",
      "outputs": [
        {
          "internalType": "uint256",
          "name": "Dataid_",
          "type": "uint256"
        }
      ],
      "stateMutability": "nonpayable",
      "type": "function"
    },
    {
      "inputs": [
        {
          "internalType": "address",
          "name": "",
          "type": "address"
        }
      ],
      "name": "SpotStakedTokenBalance",
      "outputs": [
        {
          "internalType": "uint256",
          "name": "",
          "type": "uint256"
        }
      ],
      "stateMutability": "view",
      "type": "function"
    },
    {
      "inputs": [
        {
          "internalType": "uint256",
          "name": "",
          "type": "uint256"
        }
      ],
      "name": "SpotsMapping",
      "outputs": [
        {
          "internalType": "string",
          "name": "ipfs_hash",
          "type": "string"
        },
        {
          "internalType": "address",
          "name": "author",
          "type": "address"
        },
        {
          "internalType": "uint256",
          "name": "timestamp",
          "type": "uint256"
        },
        {
          "internalType": "string",
          "name": "URL_domain",
          "type": "string"
        },
        {
          "internalType": "string",
          "name": "extra",
          "type": "string"
        },
        {
          "internalType": "enum DataSpotting.DataSatus",
          "name": "status",
          "type": "uint8"
        }
      ],
      "stateMutability": "view",
      "type": "function"
    },
    {
      "inputs": [],
      "name": "StakeManager",
      "outputs": [
        {
          "internalType": "contract IStakeManager",
          "name": "",
          "type": "address"
        }
      ],
      "stateMutability": "view",
      "type": "function"
    },
    {
      "inputs": [],
      "name": "TriggerNextEpoch",
      "outputs": [],
      "stateMutability": "nonpayable",
      "type": "function"
    },
    {
      "inputs": [],
      "name": "UnregisterWorker",
      "outputs": [],
      "stateMutability": "nonpayable",
      "type": "function"
    },
    {
      "inputs": [
        {
          "internalType": "uint256",
          "name": "_DataBatchID",
          "type": "uint256"
        }
      ],
      "name": "ValidateDataBatch",
      "outputs": [],
      "stateMutability": "nonpayable",
      "type": "function"
    },
    {
      "inputs": [
        {
          "internalType": "uint256",
          "name": "",
          "type": "uint256"
        },
        {
          "internalType": "uint256",
          "name": "",
          "type": "uint256"
        }
      ],
      "name": "WorkersPerBatch",
      "outputs": [
        {
          "internalType": "address",
          "name": "",
          "type": "address"
        }
      ],
      "stateMutability": "view",
      "type": "function"
    },
    {
      "inputs": [
        {
          "internalType": "address",
          "name": "",
          "type": "address"
        }
      ],
      "name": "WorkersState",
      "outputs": [
        {
          "internalType": "address",
          "name": "worker_address",
          "type": "address"
        },
        {
          "internalType": "address",
          "name": "master_address",
          "type": "address"
        },
        {
          "internalType": "uint256",
          "name": "allocated_work_batch",
          "type": "uint256"
        },
        {
          "internalType": "bool",
          "name": "has_completed_work",
          "type": "bool"
        },
        {
          "internalType": "uint256",
          "name": "last_worked_round",
          "type": "uint256"
        },
        {
          "internalType": "uint256",
          "name": "last_interaction_date",
          "type": "uint256"
        },
        {
          "internalType": "bool",
          "name": "is_available_now",
          "type": "bool"
        },
        {
          "internalType": "string",
          "name": "extra",
          "type": "string"
        },
        {
          "internalType": "bool",
          "name": "registered",
          "type": "bool"
        },
        {
          "internalType": "uint256",
          "name": "registration_date",
          "type": "uint256"
        }
      ],
      "stateMutability": "view",
      "type": "function"
    },
    {
      "inputs": [
        {
          "internalType": "address",
          "name": "_user",
          "type": "address"
        },
        {
          "internalType": "uint256",
          "name": "_DataBatchID",
          "type": "uint256"
        }
      ],
      "name": "attrUUID",
      "outputs": [
        {
          "internalType": "bytes32",
          "name": "UUID",
          "type": "bytes32"
        }
      ],
      "stateMutability": "pure",
      "type": "function"
    },
    {
      "inputs": [
        {
          "internalType": "uint256",
          "name": "",
          "type": "uint256"
        }
      ],
      "name": "availableWorkers",
      "outputs": [
        {
          "internalType": "address",
          "name": "",
          "type": "address"
        }
      ],
      "stateMutability": "view",
      "type": "function"
    },
    {
      "inputs": [
        {
          "internalType": "uint256",
          "name": "",
          "type": "uint256"
        }
      ],
      "name": "busyWorkers",
      "outputs": [
        {
          "internalType": "address",
          "name": "",
          "type": "address"
        }
      ],
      "stateMutability": "view",
      "type": "function"
    },
    {
      "inputs": [
        {
          "internalType": "uint256",
          "name": "_DataBatchID",
          "type": "uint256"
        }
      ],
      "name": "commitPeriodActive",
      "outputs": [
        {
          "internalType": "bool",
          "name": "active",
          "type": "bool"
        }
      ],
      "stateMutability": "view",
      "type": "function"
    },
    {
      "inputs": [
        {
          "internalType": "uint256",
          "name": "_DataBatchID",
          "type": "uint256"
        },
        {
          "internalType": "bytes32",
          "name": "_secretHash",
          "type": "bytes32"
        }
      ],
      "name": "commitSpotCheck",
      "outputs": [],
      "stateMutability": "nonpayable",
      "type": "function"
    },
    {
      "inputs": [
        {
          "internalType": "uint256[]",
          "name": "_DataBatchIDs",
          "type": "uint256[]"
        },
        {
          "internalType": "bytes32[]",
          "name": "_secretHashes",
          "type": "bytes32[]"
        }
      ],
      "name": "commitSpotChecks",
      "outputs": [],
      "stateMutability": "nonpayable",
      "type": "function"
    },
    {
      "inputs": [
        {
          "internalType": "address",
          "name": "_voter",
          "type": "address"
        },
        {
          "internalType": "uint256",
          "name": "_DataBatchID",
          "type": "uint256"
        }
      ],
      "name": "didCommit",
      "outputs": [
        {
          "internalType": "bool",
          "name": "committed",
          "type": "bool"
        }
      ],
      "stateMutability": "view",
      "type": "function"
    },
    {
      "inputs": [
        {
          "internalType": "address",
          "name": "_voter",
          "type": "address"
        },
        {
          "internalType": "uint256",
          "name": "_DataBatchID",
          "type": "uint256"
        }
      ],
      "name": "didReveal",
      "outputs": [
        {
          "internalType": "bool",
          "name": "revealed",
          "type": "bool"
        }
      ],
      "stateMutability": "view",
      "type": "function"
    },
    {
      "inputs": [
        {
          "internalType": "uint256",
          "name": "_k",
          "type": "uint256"
        },
        {
          "internalType": "uint256",
          "name": "N_range",
          "type": "uint256"
        }
      ],
      "name": "generateIntegers",
      "outputs": [
        {
          "internalType": "uint256[]",
          "name": "",
          "type": "uint256[]"
        }
      ],
      "stateMutability": "view",
      "type": "function"
    },
    {
      "inputs": [],
      "name": "getBlockTimestamp",
      "outputs": [
        {
          "internalType": "uint256",
          "name": "blocktimestamp",
          "type": "uint256"
        }
      ],
      "stateMutability": "view",
      "type": "function"
    },
    {
      "inputs": [
        {
          "internalType": "address",
          "name": "_voter",
          "type": "address"
        },
        {
          "internalType": "uint256",
          "name": "_DataBatchID",
          "type": "uint256"
        }
      ],
      "name": "getCommitHash",
      "outputs": [
        {
          "internalType": "bytes32",
          "name": "commitHash",
          "type": "bytes32"
        }
      ],
      "stateMutability": "view",
      "type": "function"
    },
    {
      "inputs": [],
      "name": "getCurrentWorkEpoch",
      "outputs": [
        {
          "internalType": "uint256",
          "name": "WorkEpoch",
          "type": "uint256"
        }
      ],
      "stateMutability": "view",
      "type": "function"
    },
    {
      "inputs": [
        {
          "internalType": "uint256",
          "name": "_DataBatchID",
          "type": "uint256"
        }
      ],
      "name": "getDomainsForBatch",
      "outputs": [
        {
          "internalType": "string[]",
          "name": "",
          "type": "string[]"
        }
      ],
      "stateMutability": "view",
      "type": "function"
    },
    {
      "inputs": [
        {
          "internalType": "uint256",
          "name": "_voteOption",
          "type": "uint256"
        },
        {
          "internalType": "uint256",
          "name": "_salt",
          "type": "uint256"
        }
      ],
      "name": "getEncryptedHash",
      "outputs": [
        {
          "internalType": "bytes32",
          "name": "keccak256hash",
          "type": "bytes32"
        }
      ],
      "stateMutability": "pure",
      "type": "function"
    },
    {
      "inputs": [
        {
          "internalType": "uint256",
          "name": "a",
          "type": "uint256"
        },
        {
          "internalType": "uint256",
          "name": "b",
          "type": "uint256"
        }
      ],
      "name": "getHash",
      "outputs": [
        {
          "internalType": "bytes32",
          "name": "keccak256hash",
          "type": "bytes32"
        }
      ],
      "stateMutability": "pure",
      "type": "function"
    },
    {
      "inputs": [
        {
          "internalType": "uint256",
          "name": "_DataBatchID",
          "type": "uint256"
        }
      ],
      "name": "getIPFShashesForBatch",
      "outputs": [
        {
          "internalType": "string[]",
          "name": "",
          "type": "string[]"
        }
      ],
      "stateMutability": "view",
      "type": "function"
    },
    {
      "inputs": [
        {
          "internalType": "address",
          "name": "_voter",
          "type": "address"
        },
        {
          "internalType": "uint256",
          "name": "_numTokens",
          "type": "uint256"
        },
        {
          "internalType": "uint256",
          "name": "_DataBatchID",
          "type": "uint256"
        }
      ],
      "name": "getInsertPointForNumTokens",
      "outputs": [
        {
          "internalType": "uint256",
          "name": "prevNode",
          "type": "uint256"
        }
      ],
      "stateMutability": "view",
      "type": "function"
    },
    {
      "inputs": [],
      "name": "getLastBatchId",
      "outputs": [
        {
          "internalType": "uint256",
          "name": "LastBatchId",
          "type": "uint256"
        }
      ],
      "stateMutability": "view",
      "type": "function"
    },
    {
      "inputs": [],
      "name": "getLastCheckedBatchId",
      "outputs": [
        {
          "internalType": "uint256",
          "name": "LastCheckedBatchId",
          "type": "uint256"
        }
      ],
      "stateMutability": "view",
      "type": "function"
    },
    {
      "inputs": [],
      "name": "getLastDataId",
      "outputs": [
        {
          "internalType": "uint256",
          "name": "DataId",
          "type": "uint256"
        }
      ],
      "stateMutability": "view",
      "type": "function"
    },
    {
      "inputs": [
        {
          "internalType": "address",
          "name": "_voter",
          "type": "address"
        }
      ],
      "name": "getLastNode",
      "outputs": [
        {
          "internalType": "uint256",
          "name": "DataID",
          "type": "uint256"
        }
      ],
      "stateMutability": "view",
      "type": "function"
    },
    {
      "inputs": [
        {
          "internalType": "address",
          "name": "user",
          "type": "address"
        }
      ],
      "name": "getLastUserDataId",
      "outputs": [
        {
          "internalType": "uint256",
          "name": "DataId",
          "type": "uint256"
        }
      ],
      "stateMutability": "view",
      "type": "function"
    },
    {
      "inputs": [
        {
          "internalType": "address",
          "name": "_voter",
          "type": "address"
        }
      ],
      "name": "getLockedTokens",
      "outputs": [
        {
          "internalType": "uint256",
          "name": "numTokens",
          "type": "uint256"
        }
      ],
      "stateMutability": "view",
      "type": "function"
    },
    {
      "inputs": [
        {
          "internalType": "address",
          "name": "_voter",
          "type": "address"
        },
        {
          "internalType": "uint256",
          "name": "_DataBatchID",
          "type": "uint256"
        },
        {
          "internalType": "uint256",
          "name": "_salt",
          "type": "uint256"
        }
      ],
      "name": "getNumPassingTokens",
      "outputs": [
        {
          "internalType": "uint256",
          "name": "correctSpotChecks",
          "type": "uint256"
        }
      ],
      "stateMutability": "view",
      "type": "function"
    },
    {
      "inputs": [
        {
          "internalType": "address",
          "name": "_voter",
          "type": "address"
        },
        {
          "internalType": "uint256",
          "name": "_DataBatchID",
          "type": "uint256"
        }
      ],
      "name": "getNumTokens",
      "outputs": [
        {
          "internalType": "uint256",
          "name": "numTokens",
          "type": "uint256"
        }
      ],
      "stateMutability": "view",
      "type": "function"
    },
    {
      "inputs": [],
      "name": "getRandom",
      "outputs": [
        {
          "internalType": "uint256",
          "name": "",
          "type": "uint256"
        }
      ],
      "stateMutability": "view",
      "type": "function"
    },
    {
      "inputs": [],
      "name": "getSeed",
      "outputs": [
        {
          "internalType": "bytes32",
          "name": "addr",
          "type": "bytes32"
        }
      ],
      "stateMutability": "view",
      "type": "function"
    },
    {
      "inputs": [
        {
          "internalType": "uint256",
          "name": "_DataBatchID",
          "type": "uint256"
        }
      ],
      "name": "getTotalNumberOfSpotChecks",
      "outputs": [
        {
          "internalType": "uint256",
          "name": "vc",
          "type": "uint256"
        }
      ],
      "stateMutability": "view",
      "type": "function"
    },
    {
      "inputs": [
        {
          "internalType": "uint256",
          "name": "_DataBatchID",
          "type": "uint256"
        }
      ],
      "name": "getTotalNumberOfTokensForWinningOption",
      "outputs": [
        {
          "internalType": "uint256",
          "name": "numTokens",
          "type": "uint256"
        }
      ],
      "stateMutability": "view",
      "type": "function"
    },
    {
      "inputs": [
        {
          "internalType": "address",
          "name": "user",
          "type": "address"
        }
      ],
      "name": "getUserDatas",
      "outputs": [
        {
          "internalType": "uint256[]",
          "name": "user_Datas",
          "type": "uint256[]"
        }
      ],
      "stateMutability": "view",
      "type": "function"
    },
    {
      "inputs": [
        {
          "internalType": "uint256",
          "name": "_terminationDate",
          "type": "uint256"
        }
      ],
      "name": "isExpired",
      "outputs": [
        {
          "internalType": "bool",
          "name": "expired",
          "type": "bool"
        }
      ],
      "stateMutability": "view",
      "type": "function"
    },
    {
      "inputs": [
        {
          "internalType": "uint256",
          "name": "_DataBatchID",
          "type": "uint256"
        }
      ],
      "name": "isPassed",
      "outputs": [
        {
          "internalType": "bool",
          "name": "passed",
          "type": "bool"
        }
      ],
      "stateMutability": "view",
      "type": "function"
    },
    {
      "inputs": [
        {
          "internalType": "address",
          "name": "_worker",
          "type": "address"
        }
      ],
      "name": "isWorkerRegistered",
      "outputs": [
        {
          "internalType": "bool",
          "name": "passed",
          "type": "bool"
        }
      ],
      "stateMutability": "view",
      "type": "function"
    },
    {
      "inputs": [],
      "name": "owner",
      "outputs": [
        {
          "internalType": "address",
          "name": "",
          "type": "address"
        }
      ],
      "stateMutability": "view",
      "type": "function"
    },
    {
      "inputs": [
        {
          "internalType": "uint256",
          "name": "k",
          "type": "uint256"
        },
        {
          "internalType": "uint256",
          "name": "N",
          "type": "uint256"
        }
      ],
      "name": "random_selection",
      "outputs": [
        {
          "internalType": "uint256[]",
          "name": "",
          "type": "uint256[]"
        }
      ],
      "stateMutability": "view",
      "type": "function"
    },
    {
      "inputs": [],
      "name": "renounceOwnership",
      "outputs": [],
      "stateMutability": "nonpayable",
      "type": "function"
    },
    {
      "inputs": [
        {
          "internalType": "uint256",
          "name": "_numTokens",
          "type": "uint256"
        }
      ],
      "name": "requestVotingRights",
      "outputs": [],
      "stateMutability": "nonpayable",
      "type": "function"
    },
    {
      "inputs": [
        {
          "internalType": "uint256",
          "name": "_DataBatchID",
          "type": "uint256"
        }
      ],
      "name": "rescueTokens",
      "outputs": [],
      "stateMutability": "nonpayable",
      "type": "function"
    },
    {
      "inputs": [
        {
          "internalType": "uint256[]",
          "name": "_DataBatchIDs",
          "type": "uint256[]"
        }
      ],
      "name": "rescueTokensInMultipleDatas",
      "outputs": [],
      "stateMutability": "nonpayable",
      "type": "function"
    },
    {
      "inputs": [
        {
          "internalType": "uint256",
          "name": "_DataBatchID",
          "type": "uint256"
        }
      ],
      "name": "revealPeriodActive",
      "outputs": [
        {
          "internalType": "bool",
          "name": "active",
          "type": "bool"
        }
      ],
      "stateMutability": "view",
      "type": "function"
    },
    {
      "inputs": [
        {
          "internalType": "uint256",
          "name": "_DataBatchID",
          "type": "uint256"
        },
        {
          "internalType": "uint256",
          "name": "_voteOption",
          "type": "uint256"
        },
        {
          "internalType": "uint256",
          "name": "_salt",
          "type": "uint256"
        }
      ],
      "name": "revealSpotCheck",
      "outputs": [],
      "stateMutability": "nonpayable",
      "type": "function"
    },
    {
      "inputs": [
        {
          "internalType": "uint256[]",
          "name": "_DataBatchIDs",
          "type": "uint256[]"
        },
        {
          "internalType": "uint256[]",
          "name": "_voteOptions",
          "type": "uint256[]"
        },
        {
          "internalType": "uint256[]",
          "name": "_salts",
          "type": "uint256[]"
        }
      ],
      "name": "revealSpotChecks",
      "outputs": [],
      "stateMutability": "nonpayable",
      "type": "function"
    },
    {
      "inputs": [],
      "name": "sFuel",
      "outputs": [
        {
          "internalType": "address",
          "name": "",
          "type": "address"
        }
      ],
      "stateMutability": "view",
      "type": "function"
    },
    {
      "inputs": [
        {
          "internalType": "uint256",
          "name": "N",
          "type": "uint256"
        }
      ],
      "name": "shuffle_array",
      "outputs": [
        {
          "internalType": "uint256[]",
          "name": "",
          "type": "uint256[]"
        }
      ],
      "stateMutability": "view",
      "type": "function"
    },
    {
      "inputs": [],
      "name": "token",
      "outputs": [
        {
          "internalType": "contract IERC20",
          "name": "",
          "type": "address"
        }
      ],
      "stateMutability": "view",
      "type": "function"
    },
    {
      "inputs": [
        {
          "internalType": "address",
          "name": "newOwner",
          "type": "address"
        }
      ],
      "name": "transferOwnership",
      "outputs": [],
      "stateMutability": "nonpayable",
      "type": "function"
    },
    {
      "inputs": [
        {
          "internalType": "address",
          "name": "addr",
          "type": "address"
        }
      ],
      "name": "updateAddressManager",
      "outputs": [],
      "stateMutability": "nonpayable",
      "type": "function"
    },
    {
      "inputs": [
        {
          "internalType": "uint256",
          "name": "COMMIT_ROUND_DURATION_",
          "type": "uint256"
        }
      ],
      "name": "updateCommitRoundDuration",
      "outputs": [],
      "stateMutability": "nonpayable",
      "type": "function"
    },
    {
      "inputs": [
        {
          "internalType": "address",
          "name": "addr",
          "type": "address"
        }
      ],
      "name": "updateRepManager",
      "outputs": [],
      "stateMutability": "nonpayable",
      "type": "function"
    },
    {
      "inputs": [
        {
          "internalType": "uint256",
          "name": "REVEAL_ROUND_DURATION_",
          "type": "uint256"
        }
      ],
      "name": "updateRevealRoundDuration",
      "outputs": [],
      "stateMutability": "nonpayable",
      "type": "function"
    },
    {
      "inputs": [
        {
          "internalType": "address",
          "name": "addr",
          "type": "address"
        }
      ],
      "name": "updateRewardManager",
      "outputs": [],
      "stateMutability": "nonpayable",
      "type": "function"
    },
    {
      "inputs": [
        {
          "internalType": "address",
          "name": "addr",
          "type": "address"
        }
      ],
      "name": "updateStakeManager",
      "outputs": [],
      "stateMutability": "nonpayable",
      "type": "function"
    },
    {
      "inputs": [
        {
          "internalType": "address",
          "name": "sFuel_",
          "type": "address"
        }
      ],
      "name": "updatesFuelFaucet",
      "outputs": [],
      "stateMutability": "nonpayable",
      "type": "function"
    },
    {
      "inputs": [
        {
          "internalType": "address",
          "name": "",
          "type": "address"
        },
        {
          "internalType": "uint256",
          "name": "",
          "type": "uint256"
        }
      ],
      "name": "userSubmissions",
      "outputs": [
        {
          "internalType": "uint256",
          "name": "",
          "type": "uint256"
        }
      ],
      "stateMutability": "view",
      "type": "function"
    },
    {
      "inputs": [
        {
          "internalType": "uint256",
          "name": "_prevID",
          "type": "uint256"
        },
        {
          "internalType": "uint256",
          "name": "_nextID",
          "type": "uint256"
        },
        {
          "internalType": "address",
          "name": "_voter",
          "type": "address"
        },
        {
          "internalType": "uint256",
          "name": "_numTokens",
          "type": "uint256"
        }
      ],
      "name": "validPosition",
      "outputs": [
        {
          "internalType": "bool",
          "name": "APPROVED",
          "type": "bool"
        }
      ],
      "stateMutability": "view",
      "type": "function"
    },
    {
      "inputs": [
        {
          "internalType": "uint256",
          "name": "_numTokens",
          "type": "uint256"
        }
      ],
      "name": "withdrawVotingRights",
      "outputs": [],
      "stateMutability": "nonpayable",
      "type": "function"
    }
  ],
  "bytecode": "0x60806040526802b5e3af16b18800006005819055678ac7230489e80000600655600755603c6008556000600e819055600f819055601880546001600160a01b0319167314f52f3fc010ab6ca81568d4a6794d5eab3c61551790556019819055601a553480156200006e57600080fd5b5060405162006a2838038062006a28833981016040819052620000919162000140565b620000a56200009f620000ec565b620000f0565b601c80546001600160a01b0319166001600160a01b03929092169190911790556000600f5568056bc75e2d6310000060019081556002556078600381905560045562000170565b3390565b600080546001600160a01b038381166001600160a01b0319831681178455604051919092169283917f8be0079c531659141344cd1fd0a4f28419497f9722a3daafe3b4186f6b6457e09190a35050565b60006020828403121562000152578081fd5b81516001600160a01b038116811462000169578182fd5b9392505050565b6168a880620001806000396000f3fe608060405234801561001057600080fd5b50600436106104f95760003560e01c80638473850b11610299578063c7c063fb11610167578063e798a7da116100d9578063f343894611610092578063f343894614610a87578063f716596d14610a9a578063f721de4a14610aa2578063f80a23fd14610ab5578063fc0c546a14610abd578063fca4956314610ac5576104f9565b8063e798a7da14610a20578063e7b1d43c14610a33578063e8e9b6f914610a46578063ed8becfa14610a59578063ef4fcdad14610a6c578063f2fde38b14610a74576104f9565b8063d901402b1161012b578063d901402b146109b9578063d9548e53146109cc578063dd618682146109df578063df05368e146109f2578063e44c974b14610a05578063e7805f9e14610a18576104f9565b8063c7c063fb14610965578063cb1c2b5c14610978578063d138209214610980578063d37a4db214610993578063d822ce01146109a6576104f9565b8063a511dba01161020b578063b1d7ea98116101c4578063b1d7ea98146108f3578063b43bd06914610906578063b8f011b314610919578063c47c4bc21461092c578063c4bea2cb1461093f578063c4e4f82a14610952576104f9565b8063a511dba0146108b5578063aa7ca464146108bd578063aacc5a17146108d0578063ab43e78d146108d8578063b1a2e0be146108e0578063b1cf4a7e146105d2576104f9565b80639acb75c11161025d5780639acb75c11461084e5780639b7e0180146108565780639fc9c52f14610869578063a1103f371461087c578063a25236fe1461088f578063a4439dc5146108a2576104f9565b80638473850b146107ef5780638c89d027146107f75780638da5cb5b146108205780638df0296e14610828578063976035601461083b576104f9565b8063441c77c0116103d65780636b1485a3116103485780637a34da67116103015780637a34da671461077b5780637f97e836146107835780637fabe35b14610796578063819b0293146107c1578063821aa8c0146107d457806383cc6ef2146107e7576104f9565b80636b1485a31461072a5780636b2d95d41461073d578063715018a61461075057806371880b1b146107585780637827e5491461076b578063796b89b914610773576104f9565b806351912f291161039a57806351912f29146106d7578063579db71c146106df57806358002158146106ff5780635fd879091461071257806362b7e9411461071a578063667bf0f814610722576104f9565b8063441c77c01461068e57806347fe2d20146106a157806349403183146106a95780634d884281146106bc578063515535e8146106cf576104f9565b8063226ed3001161046f57806332ac1ba21161043357806332ac1ba21461063d5780633538af8214610650578063354dae401461066357806339e7357c1461066b5780633ad2131f14610673578063427fa1d21461067b576104f9565b8063226ed300146105e5578063275c25901461060557806329a47bc71461060d5780632c05203114610622578063313066ee14610635576104f9565b80630b16d945116104c15780630b16d9451461056a5780630b96c5b01461057d5780630e6661a7146105a25780630e670feb146105aa57806319d90346146105b25780631b855044146105d2576104f9565b806302fa9c68146104fe578063035fbb551461051357806304dbcda714610526578063050eb2eb14610544578063053e71a614610557575b600080fd5b61051161050c3660046153c9565b610ad8565b005b61051161052136600461559e565b610b5e565b61052e610e69565b60405161053b91906156c6565b60405180910390f35b610511610552366004615273565b610e6f565b61052e610565366004615518565b610ed0565b61052e6105783660046152e8565b610f36565b61059061058b366004615518565b6112f5565b60405161053b969594939291906157dd565b61052e6114d2565b61052e6114d8565b6105c56105c0366004615518565b6114de565b60405161053b919061577b565b61052e6105e0366004615541565b61185f565b6105f86105f3366004615518565b611892565b60405161053b91906157d2565b6105116118da565b6106156119ad565b60405161053b91906156f9565b61052e6106303660046152b6565b6119bc565b61052e611b59565b61052e61064b366004615518565b611b5f565b61061561065e366004615518565b611b83565b610511611bad565b61052e611ca7565b61052e611cc4565b61052e610689366004615273565b611cca565b6105f861069c366004615518565b611d6a565b61052e611dc4565b6105f86106b7366004615518565b611dca565b6105116106ca366004615273565b61204b565b61052e6120ac565b6106156120b2565b6106f26106ed366004615273565b6120c1565b60405161053b919061578e565b61051161070d366004615518565b61212d565b61052e612171565b61052e612177565b61051161217d565b610511610738366004615518565b612517565b61052e61074b366004615273565b61295c565b61051161296b565b61052e610766366004615518565b6129b6565b61052e6129f3565b61052e6129f9565b6106156129fd565b6105f861079136600461528d565b612a0c565b6107a96107a4366004615518565b612a5f565b60405161053b9c9b9a99989796959493929190616628565b6105f86107cf366004615562565b612ac5565b6106156107e2366004615518565b612b03565b610615612b13565b61052e612b22565b61080a610805366004615273565b612b28565b60405161053b9a9998979695949392919061570d565b610615612c1b565b610615610836366004615541565b612c2a565b610511610849366004615518565b612c62565b61052e612e11565b61052e61086436600461528d565b612e17565b6105116108773660046154c6565b612e48565b61052e61088a36600461528d565b612e9a565b61051161089d366004615518565b612eaf565b6105f86108b0366004615518565b612fb0565b61052e612ff2565b6105f86108cb36600461528d565b612ff8565b61052e61304b565b610615613100565b6105f86108ee366004615273565b61310f565b6106f2610901366004615541565b61326c565b61052e6109143660046152b6565b613473565b6106f2610927366004615541565b61355f565b61051161093a366004615273565b6136c7565b61051161094d366004615541565b613728565b61052e610960366004615518565b613b75565b61052e610973366004615273565b613bb2565b61052e613bc4565b61052e61098e36600461528d565b613bca565b6105116109a1366004615431565b613c5f565b6106156109b436600461528d565b613d11565b61052e6109c736600461528d565b613d2d565b6105f86109da366004615518565b613d72565b6105116109ed366004615273565b613d77565b610511610a00366004615273565b613dd8565b6106f2610a13366004615518565b613e39565b61052e613eb2565b6105f8610a2e366004615273565b613eb8565b610511610a41366004615518565b613ed9565b610511610a54366004615518565b614015565b6105c5610a67366004615518565b614059565b61052e6143ce565b610511610a82366004615273565b6143d4565b61052e610a95366004615273565b614445565b6105116144e6565b6105f8610ab0366004615518565b61468b565b6105f8614693565b6106156146ac565b61052e610ad3366004615273565b6146bb565b828114610ae457600080fd5b60005b83811015610b5757610b45858583818110610b1257634e487b7160e01b600052603260045260246000fd5b90506020020135848484818110610b3957634e487b7160e01b600052603260045260246000fd5b90506020020135613728565b80610b4f81616801565b915050610ae7565b5050505050565b610b666147f0565b610b6f83611d6a565b610b945760405162461bcd60e51b8152600401610b8b9061627e565b60405180910390fd5b33600090815260096020908152604080832086845290915290205460ff16610bce5760405162461bcd60e51b8152600401610b8b90615e4b565b336000908152600a6020908152604080832086845290915290205460ff1615610c095760405162461bcd60e51b8152600401610b8b90615e05565b610c133384613d2d565b8282604051602001610c269291906156eb565b6040516020818303038152906040528051906020012014610c595760405162461bcd60e51b8152600401610b8b90615aca565b6000610c653385613bca565b90508260011415610c9c576000848152601b602052604081206007018054839290610c91908490616734565b90915550610cc39050565b6000848152601b602052604081206008018054839290610cbd908490616734565b90915550505b336000908152600c60205260409081902090516301039dfd60e11b815273__$85afbab79b2b776d70bef879a32ed56424$__916302073bfa91610d0b919088906004016156eb565b60006040518083038186803b158015610d2357600080fd5b505af4158015610d37573d6000803e3d6000fd5b5050336000818152600a602090815260408083208a84528252808320805460ff19166001908117909155600b83528184209484529382528083208990556010825280832060028101548452601b90925290912060030154909350610d9c925090614978565b60028201546000908152601b60205260409020600390810191909155600682018054600160ff1991821681179092559183018054909216179055610dde6129f9565b600582015560028101546000908152601b6020526040902060030154610e0757610e0785612517565b6000858152601b602052604090819020600781015460089091015491513392879289927f0867b5027231dcbf37614eaad07d667b9febaf9fdf483f488229b1f140bb074892610e5a928992909190616612565b60405180910390a45050505050565b60055481565b610e77614984565b6001600160a01b0316610e88612c1b565b6001600160a01b031614610eae5760405162461bcd60e51b8152600401610b8b90616106565b601f80546001600160a01b0319166001600160a01b0392909216919091179055565b6000610edb82611892565b610ef75760405162461bcd60e51b8152600401610b8b90615f10565b610f0082611dca565b15610f1d57506000818152601b6020526040902060070154610f31565b506000818152601b60205260409020600801545b919050565b6000610f406147f0565b87518514610f4d57600080fd5b60015433600090815260136020526040902054811115610f8f5733600090815260136020526040812054610f82908390614978565b9050610f8d81612eaf565b505b60005b89518110156112e25760008a8281518110610fbd57634e487b7160e01b600052603260045260246000fd5b602002602001015190506000898984818110610fe957634e487b7160e01b600052603260045260246000fd5b9050602002810190610ffb9190616698565b8080601f01602080910402602001604051908101604052809392919081815260200183838082843760009201829052503381526013602052604090205493945050505084111561105d5760405162461bcd60e51b8152600401610b8b9061637e565b8151829061107d5760405162461bcd60e51b8152600401610b8b906161f1565b600f5461108b906001616734565b600f8181553360008181526012602090815260408083208054600181018255908452828420019590955584516101008101865288815280820193909352428386015260608301879052608083018e905260a083018d905260c083018c905260e0830182905292548152601183529290922082518051919261111192849290910190614f64565b506020828101516001830180546001600160a01b0319166001600160a01b03909216919091179055604083015160028301556060830151805161115a9260038501920190614f64565b5060808201518051611176916004840191602090910190614fe8565b5060a08201518051611192916005840191602090910190615041565b5060c082015180516111ae916006840191602090910190614f64565b5060e082015160078201805460ff191660018360038111156111e057634e487b7160e01b600052602160045260246000fd5b0217905550506019546000908152601b6020526040902090506112056001600561677f565b816002015410156112375760018160020160008282546112259190616734565b9091555050600f546001820155611283565b60048101805461ff001960ff19909116600117169055611255611bad565b6001601960008282546112689190616734565b9091555050600f546019546000908152601b60205260409020555b336001600160a01b0316600f547fb7b95e293993cd6c0c54a48cee487ef3dd8f51be568be962db90e7784af70dd186868e6040516112c39392919061583c565b60405180910390a35050505080806112da90616801565b915050610f92565b50600f549150505b979650505050505050565b601160205260009081526040902080548190611310906167c6565b80601f016020809104026020016040519081016040528092919081815260200182805461133c906167c6565b80156113895780601f1061135e57610100808354040283529160200191611389565b820191906000526020600020905b81548152906001019060200180831161136c57829003601f168201915b505050506001830154600284015460038501805494956001600160a01b0390931694919350906113b8906167c6565b80601f01602080910402602001604051908101604052809291908181526020018280546113e4906167c6565b80156114315780601f1061140657610100808354040283529160200191611431565b820191906000526020600020905b81548152906001019060200180831161141457829003601f168201915b505050505090806006018054611446906167c6565b80601f0160208091040260200160405190810160405280929190818152602001828054611472906167c6565b80156114bf5780601f10611494576101008083540402835291602001916114bf565b820191906000526020600020905b8154815290600101906020018083116114a257829003601f168201915b5050506007909301549192505060ff1686565b600f5481565b60065481565b60606114e98261468b565b6115055760405162461bcd60e51b8152600401610b8b90615fd6565b6000828152601b6020908152604080832081516101c081018352815481526001820154938101939093526002810154918301919091526003808201546060840152600482015460ff808216151560808601526101008083048216151560a0870152620100009092048116151560c0860152600584015460e08601526006840154918501919091526007830154610120850152600883015461014085015260098301546101608501929116908111156115cd57634e487b7160e01b600052602160045260246000fd5b60038111156115ec57634e487b7160e01b600052602160045260246000fd5b8152602001600a8201805480602002602001604051908101604052809291908181526020016000905b828210156116c1578382906000526020600020018054611634906167c6565b80601f0160208091040260200160405190810160405280929190818152602001828054611660906167c6565b80156116ad5780601f10611682576101008083540402835291602001916116ad565b820191906000526020600020905b81548152906001019060200180831161169057829003601f168201915b505050505081526020019060010190611615565b505050508152602001600b820180548060200260200160405190810160405280929190818152602001828054801561171857602002820191906000526020600020905b815481526020019060010190808311611704575b505050919092525050506040818101518151600580825260c0820190935292935091600091816020015b606081526020019060019003908161174257905050905060005b82811015611856578351600090611774908390616734565b600081815260116020526040812060030180549293509091611795906167c6565b80601f01602080910402602001604051908101604052809291908181526020018280546117c1906167c6565b801561180e5780601f106117e35761010080835404028352916020019161180e565b820191906000526020600020905b8154815290600101906020018083116117f157829003601f168201915b505050505090508084848151811061183657634e487b7160e01b600052603260045260246000fd5b60200260200101819052505050808061184e90616801565b91505061175c565b50949350505050565b600082826040516020016118749291906156eb565b60405160208183030381529060405280519060200120905092915050565b600061189d8261468b565b6118b95760405162461bcd60e51b8152600401610b8b90616485565b6000828152601b60205260409020600601546118d490613d72565b92915050565b6118e26147f0565b336000908152601060205260409020600681015460ff16151560011461191a5760405162461bcd60e51b8152600401610b8b90615d32565b60006119246129f9565b905061192f33614988565b8154336001600160a01b03199182168117845560018401805490921681179091556005830182905560068301805460ff1990811690915560088401805490911690556040517f9dadcedba048e92b943ea1c5861cee1df63a566d7f795869c004780c1c698e2b906119a19084906156c6565b60405180910390a25050565b601e546001600160a01b031681565b6000806119c885611cca565b905060006119d68683613bca565b90505b8115611b4e576119e98683613bca565b9050848111611aa65783821415611a9e576001600160a01b0386166000908152600c60205260409081902090516301c39b2b60e11b815273__$85afbab79b2b776d70bef879a32ed56424$__91630387365691611a4b919086906004016156eb565b60206040518083038186803b158015611a6357600080fd5b505af4158015611a77573d6000803e3d6000fd5b505050506040513d601f19601f82011682018060405250810190611a9b9190615530565b91505b509050611b52565b6001600160a01b0386166000908152600c60205260409081902090516301c39b2b60e11b815273__$85afbab79b2b776d70bef879a32ed56424$__91630387365691611af7919086906004016156eb565b60206040518083038186803b158015611b0f57600080fd5b505af4158015611b23573d6000803e3d6000fd5b505050506040513d601f19601f82011682018060405250810190611b479190615530565b91506119d9565b5090505b9392505050565b600e5481565b6000818152601b6020526040812060088101546007909101548291611b5291616734565b60158181548110611b9357600080fd5b6000918252602090912001546001600160a01b0316905081565b601a546000908152601b602052604090206004015460ff16611be15760405162461bcd60e51b8152600401610b8b906164ae565b601a546000908152601b602052604090206004015462010000900460ff161515600114801590611c12575060155415155b15611c2457611c1f61217d565b611c69565b601a546000908152601b602052604090206004015462010000900460ff1615156001148015611c595750611c59601a54611892565b15611c6957611c69601a54612517565b600e54611c779060016149eb565b600e8190556040517f94d48a7342690f1233e3f4db70efa37c4f1f25f4d0397c353f3f15aecdeca5f490600090a2565b60405160009080602081848060185afa611cbd57fe5b5051919050565b60085481565b6001600160a01b0381166000908152600c602052604080822090516301c39b2b60e11b815273__$85afbab79b2b776d70bef879a32ed56424$__91630387365691611d1a919085906004016156eb565b60206040518083038186803b158015611d3257600080fd5b505af4158015611d46573d6000803e3d6000fd5b505050506040513d601f19601f820116820180604052508101906118d49190615530565b6000611d758261468b565b611d915760405162461bcd60e51b8152600401610b8b90615fd6565b6000828152601b6020526040902060060154611dac90613d72565b1580156118d45750611dbd82612fb0565b1592915050565b601a5490565b6000611dd582611892565b611df15760405162461bcd60e51b8152600401610b8b90615e9a565b6000828152601b6020908152604080832081516101c081018352815481526001820154938101939093526002810154918301919091526003808201546060840152600482015460ff808216151560808601526101008083048216151560a0870152620100009092048116151560c0860152600584015460e0860152600684015491850191909152600783015461012085015260088301546101408501526009830154610160850192911690811115611eb957634e487b7160e01b600052602160045260246000fd5b6003811115611ed857634e487b7160e01b600052602160045260246000fd5b8152602001600a8201805480602002602001604051908101604052809291908181526020016000905b82821015611fad578382906000526020600020018054611f20906167c6565b80601f0160208091040260200160405190810160405280929190818152602001828054611f4c906167c6565b8015611f995780601f10611f6e57610100808354040283529160200191611f99565b820191906000526020600020905b815481529060010190602001808311611f7c57829003601f168201915b505050505081526020019060010190611f01565b505050508152602001600b820180548060200260200160405190810160405280929190818152602001828054801561200457602002820191906000526020600020905b815481526020019060010190808311611ff0575b50505050508152505090508061014001518161012001516120259190616734565b6008546120329190616760565b610120820151612043906064616760565b119392505050565b612053614984565b6001600160a01b0316612064612c1b565b6001600160a01b03161461208a5760405162461bcd60e51b8152600401610b8b90616106565b601880546001600160a01b0319166001600160a01b0392909216919091179055565b60195490565b601f546001600160a01b031681565b6001600160a01b03811660009081526012602090815260409182902080548351818402810184019094528084526060939283018282801561212157602002820191906000526020600020905b81548152602001906001019080831161210d575b50505050509050919050565b612135614984565b6001600160a01b0316612146612c1b565b6001600160a01b03161461216c5760405162461bcd60e51b8152600401610b8b90616106565b600455565b60045481565b60025481565b601a546000908152601b602052604090206004015460ff166121b15760405162461bcd60e51b8152600401610b8b90616228565b601a546000908152601b602052604090206004015462010000900460ff16156121ec5760405162461bcd60e51b8152600401610b8b9061603b565b60155460009061221590606490612204906014616760565b61220e919061674c565b60016149f7565b601554601a546000908152601b6020526040812060039081018490555492935090916122429042906149eb565b9050600061225b600454836149eb90919063ffffffff16565b601a80546000908152601b60205260408082206005018690558254825280822060060184905591548152908120600401805462ff00001916620100001790559091506122a7858561355f565b9050600081516001600160401b038111156122d257634e487b7160e01b600052604160045260246000fd5b6040519080825280602002602001820160405280156122fb578160200160208202803683370190505b50905060005b82518110156123ba57601583828151811061232c57634e487b7160e01b600052603260045260246000fd5b60200260200101518154811061235257634e487b7160e01b600052603260045260246000fd5b9060005260206000200160009054906101000a90046001600160a01b031682828151811061239057634e487b7160e01b600052603260045260246000fd5b6001600160a01b0390921660209283029190910190910152806123b281616801565b915050612301565b5060005b825181101561250e5760008282815181106123e957634e487b7160e01b600052603260045260246000fd5b6020908102919091018101516001600160a01b03811660008181526010845260408082206016805460018181019092557fd833147d7dc355ba459fc788f669e58cfaf9dc25ddcd0702e87d69c7b51242890180546001600160a01b03199081168717909155601a5485526017885292842080549182018155845295909220909401805490941690911790925584519092506124ab9085908590811061249e57634e487b7160e01b600052603260045260246000fd5b6020026020010151614a0e565b601a8054600283015560038201805460ff19169055546040517fe4ee2dfabe57cee15e3f558890b20455f54c1fa0718e5276faad70a6500e6b8c906124f19085906156f9565b60405180910390a25050808061250690616801565b9150506123be565b50505050505050565b61252081611892565b61253c5760405162461bcd60e51b8152600401610b8b90615b4d565b600061254782611dca565b6000838152601760209081526040808320805482518185028101850190935280835294955092939092918301828280156125aa57602002820191906000526020600020905b81546001600160a01b0316815260019091019060200180831161258c575b5050505050905060005b81518110156127ce5760008282815181106125df57634e487b7160e01b600052603260045260246000fd5b6020908102919091018101516000878152600b835260408082206001600160a01b0384168352845280822054600a85528183208a845290945290205490925060ff1661262a83614b7c565b6001600160a01b0383166000908152601060205260409020811561279c576001600160a01b0384166000908152601060205260409020600301805460ff191660019081179091558715151480156126815750826001145b80612696575086158015612696575082600114155b1561273c57601e54600754604051630db6cc8560e11b81526001600160a01b0390921691631b6d990a916126ce9188906004016165f4565b602060405180830381600087803b1580156126e857600080fd5b505af11580156126fc573d6000803e3d6000fd5b505050506040513d601f19601f8201168201806040525081019061272091906154f8565b61273c5760405162461bcd60e51b8152600401610b8b90615f3e565b60158054600180820183556000929092527f55f448fdea98c4d29eb340757ef0a66cd03dbb9538908a6a81d96026b71ec4750180546001600160a01b0319166001600160a01b03871617905560068201805460ff191690911790556127b7565b60068101805460ff1990811690915560088201805490911690555b5050505080806127c690616801565b9150506125b4565b5081156128b057601e5460075460008581526011602052604090819020600101549051630db6cc8560e11b81526001600160a01b0393841693631b6d990a9361281e9390929116906004016165f4565b602060405180830381600087803b15801561283857600080fd5b505af115801561284c573d6000803e3d6000fd5b505050506040513d601f19601f8201168201806040525081019061287091906154f8565b61288c5760405162461bcd60e51b8152600401610b8b906163db565b601a546000908152601b60205260409020600901805460ff191660011790556128d0565b601a546000908152601b60205260409020600901805460ff191660021790555b601a80546000908152601b60205260409020600401805461ff001916610100179055546128fe9060016149eb565b601a5560008381526011602052604090819020600181015491516001600160a01b03909216917f43916c3ae75995d24cc89b466ed08e6dba74d325f7957f9b37b05f150e12918e9161294f9161587f565b60405180910390a2505050565b60006118d48261098e84611cca565b612973614984565b6001600160a01b0316612984612c1b565b6001600160a01b0316146129aa5760405162461bcd60e51b8152600401610b8b90616106565b6129b46000614be3565b565b60006129c18261468b565b6129dd5760405162461bcd60e51b8152600401610b8b90615fd6565b506000908152601b602052604090206006015490565b60075481565b4290565b6020546001600160a01b031681565b6000612a178261468b565b612a335760405162461bcd60e51b8152600401610b8b90615fd6565b506001600160a01b03919091166000908152600960209081526040808320938352929052205460ff1690565b601b602052600090815260409020805460018201546002830154600384015460048501546005860154600687015460078801546008890154600990990154979896979596949560ff8086169661010087048216966201000090048216959493929091168c565b600080612ad28487613bca565b83101590506000612ae38587613bca565b84111580612aef575085155b90508180156112ea57509695505050505050565b60168181548110611b9357600080fd5b601d546001600160a01b031681565b60195481565b601060205260009081526040902080546001820154600283015460038401546004850154600586015460068701546007880180546001600160a01b03988916999790981697959660ff9586169694959394929093169291612b88906167c6565b80601f0160208091040260200160405190810160405280929190818152602001828054612bb4906167c6565b8015612c015780601f10612bd657610100808354040283529160200191612c01565b820191906000526020600020905b815481529060010190602001808311612be457829003601f168201915b505050506008830154600990930154919260ff169190508a565b6000546001600160a01b031690565b60176020528160005260406000208181548110612c4657600080fd5b6000918252602090912001546001600160a01b03169150829050565b60016000828152601b602052604090206009015460ff166003811115612c9857634e487b7160e01b600052602160045260246000fd5b14612cb55760405162461bcd60e51b8152600401610b8b90615960565b336000908152600c60205260409081902090516306120d1f60e31b815273__$85afbab79b2b776d70bef879a32ed56424$__9163309068f891612cfd919085906004016156eb565b60206040518083038186803b158015612d1557600080fd5b505af4158015612d29573d6000803e3d6000fd5b505050506040513d601f19601f82011682018060405250810190612d4d91906154f8565b612d695760405162461bcd60e51b8152600401610b8b90615c8b565b336000908152600c60205260409081902090516301039dfd60e11b815273__$85afbab79b2b776d70bef879a32ed56424$__916302073bfa91612db1919085906004016156eb565b60006040518083038186803b158015612dc957600080fd5b505af4158015612ddd573d6000803e3d6000fd5b50506040513392508391507f402507661c8c8cb90e0a796450b8bdd28b6c516f05279c0cd29e84c344e1699a90600090a350565b600e5490565b60126020528160005260406000208181548110612e3357600080fd5b90600052602060002001600091509150505481565b60005b8151811015612e9657612e84828281518110612e7757634e487b7160e01b600052603260045260246000fd5b6020026020010151612c62565b80612e8e81616801565b915050612e4b565b5050565b600082826040516020016118749291906156a4565b601d546040516304ada21f60e21b81526001600160a01b03909116906312b6887c90612ee190849033906004016165dd565b602060405180830381600087803b158015612efb57600080fd5b505af1158015612f0f573d6000803e3d6000fd5b505050506040513d601f19601f82011682018060405250810190612f3391906154f8565b612f4f5760405162461bcd60e51b8152600401610b8b90615d7d565b3360009081526013602052604081208054839290612f6e908490616734565b909155505060405133907ff7aaf024511d9982df8cd0d437c71c30106e6848cd1ba3d288d7a9c0e276aeda90612fa59084906156c6565b60405180910390a250565b6000612fbb8261468b565b612fd75760405162461bcd60e51b8152600401610b8b90615fd6565b6000828152601b6020526040902060050154611dbd90613d72565b600f5490565b60006130038261468b565b61301f5760405162461bcd60e51b8152600401610b8b90615fd6565b506001600160a01b03919091166000908152600a60209081526040808320938352929052205460ff1690565b60008042416040516020016130609190615687565b6040516020818303038152906040528051906020012060001c613083919061674c565b4461308c611ca7565b60405160200161309c91906156c6565b60408051601f1981840301815291905280516020909101206130be9042616734565b6130c89190616734565b6130d29190616734565b6040516020016130e291906156c6565b60408051601f19818403018152919052805160209091012091505090565b6018546001600160a01b031681565b6001600160a01b038082166000908152601060209081526040808320815161014081018352815486168152600182015490951692850192909252600282015490840152600381015460ff9081161515606085015260048201546080850152600582015460a0850152600682015416151560c0840152600781018054929384938493919260e08401916131a0906167c6565b80601f01602080910402602001604051908101604052809291908181526020018280546131cc906167c6565b80156132195780601f106131ee57610100808354040283529160200191613219565b820191906000526020600020905b8154815290600101906020018083116131fc57829003601f168201915b5050509183525050600882015460ff1615156020820152600990910154604090910152606081015190915015801561325b57506132598160400151611892565b155b1561326557600191505b5092915050565b60606000821161327b57600080fd5b60004160405160200161328e9190615687565b6040516020818303038152906040528051906020012060001c6132af611ca7565b6040516020016132bf91906156c6565b60408051601f1981840301815291905280516020909101206132e19042616734565b6132eb9190616734565b6040516020016132fb91906156c6565b6040516020818303038152906040528051906020012060001c90506000846001600160401b0381111561333e57634e487b7160e01b600052604160045260246000fd5b604051908082528060200260200182016040528015613367578160200160208202803683370190505b5090506000805b868210156134685760008661338763017efeeb8761677f565b836040516020016133999291906156eb565b6040516020818303038152906040528051906020012060001c6133bc919061681c565b90506000805b8481101561341457828682815181106133eb57634e487b7160e01b600052603260045260246000fd5b602002602001015114156134025760019150613414565b8061340c81616801565b9150506133c2565b5080613454578185858151811061343b57634e487b7160e01b600052603260045260246000fd5b6020908102919091010152613451846001616734565b93505b61345f836001616734565b9250505061336e565b509095945050505050565b600061347e83611892565b61349a5760405162461bcd60e51b8152600401610b8b90615ce8565b6001600160a01b0384166000908152600a6020908152604080832086845290915290205460ff166134dd5760405162461bcd60e51b8152600401610b8b90615f8b565b60006134e884611dca565b6134f35760006134f6565b60015b60ff169050600081846040516020016135109291906156eb565b60405160208183030381529060405280519060200120905060006135348787613d2d565b90508082146135555760405162461bcd60e51b8152600401610b8b906161a8565b6112ea8787613bca565b60606000821180156135715750818311155b801561357e575060018310155b61359a5760405162461bcd60e51b8152600401610b8b90615c0b565b6000826001600160401b038111156135c257634e487b7160e01b600052604160045260246000fd5b6040519080825280602002602001820160405280156135eb578160200160208202803683370190505b5090506000846001600160401b0381111561361657634e487b7160e01b600052604160045260246000fd5b60405190808252806020026020018201604052801561363f578160200160208202803683370190505b509050600061365561365084614c33565b614c89565b905060005b868110156134685781818151811061368257634e487b7160e01b600052603260045260246000fd5b60200260200101518382815181106136aa57634e487b7160e01b600052603260045260246000fd5b6020908102919091010152806136bf81616801565b91505061365a565b6136cf614984565b6001600160a01b03166136e0612c1b565b6001600160a01b0316146137065760405162461bcd60e51b8152600401610b8b90616106565b602080546001600160a01b0319166001600160a01b0392909216919091179055565b6137306147f0565b61373982612fb0565b6137555760405162461bcd60e51b8152600401610b8b90615c54565b8161375f336146bb565b1461377c5760405162461bcd60e51b8152600401610b8b90616098565b600154336000908152601360205260409020548111156137be57336000908152601360205260408120546137b1908390614978565b90506137bc81612eaf565b505b336000908152601360205260409020548111156137ed5760405162461bcd60e51b8152600401610b8b9061637e565b8261380a5760405162461bcd60e51b8152600401610b8b90615dda565b816138275760405162461bcd60e51b8152600401610b8b90615ee6565b6000336000908152600c60205260408082209051631e0f232560e31b815273__$85afbab79b2b776d70bef879a32ed56424$__9163f079192891613870919086906004016156eb565b60206040518083038186803b15801561388857600080fd5b505af415801561389c573d6000803e3d6000fd5b505050506040513d601f19601f820116820180604052508101906138c09190615530565b90508481141561396557336000908152600c6020526040908190209051631e0f232560e31b815273__$85afbab79b2b776d70bef879a32ed56424$__9163f079192891613912919089906004016156eb565b60206040518083038186803b15801561392a57600080fd5b505af415801561393e573d6000803e3d6000fd5b505050506040513d601f19601f820116820180604052508101906139629190615530565b90505b61397182823386612ac5565b61398d5760405162461bcd60e51b8152600401610b8b9061600d565b336000908152600c602052604090819020905163524cfe5360e11b815273__$85afbab79b2b776d70bef879a32ed56424$__9163a499fca6916139d9919086908a9087906004016165c2565b60006040518083038186803b1580156139f157600080fd5b505af4158015613a05573d6000803e3d6000fd5b505050506000613a153387612e9a565b60408051808201825260098152686e756d546f6b656e7360b81b6020820152905163099b040f60e31b81529192509073__$0947e710b66d7779e1d561254425e1375a$__90634cd8207890613a7590600d90869086908b90600401616517565b60006040518083038186803b158015613a8d57600080fd5b505af4158015613aa1573d6000803e3d6000fd5b505060405163099b040f60e31b815273__$0947e710b66d7779e1d561254425e1375a$__9250634cd820789150613ae190600d9086908b90600401616565565b60006040518083038186803b158015613af957600080fd5b505af4158015613b0d573d6000803e3d6000fd5b50503360009081526010602052604090209150613b2a90506129f9565b6005820155604051339089907f42864d9683ff5b12c3b2cc65d705af5aab104b03bc700b802f79e5c971ef08a190613b63908a906156c6565b60405180910390a35050505050505050565b6000613b808261468b565b613b9c5760405162461bcd60e51b8152600401610b8b90615fd6565b506000908152601b602052604090206005015490565b60136020526000908152604090205481565b60015481565b600073__$0947e710b66d7779e1d561254425e1375a$__6369810158600d613bf28686612e9a565b6040518363ffffffff1660e01b8152600401613c0f929190616593565b60206040518083038186803b158015613c2757600080fd5b505af4158015613c3b573d6000803e3d6000fd5b505050506040513d601f19601f82011682018060405250810190611b529190615530565b848314613c6b57600080fd5b848114613c7757600080fd5b60005b8581101561250e57613cff878783818110613ca557634e487b7160e01b600052603260045260246000fd5b90506020020135868684818110613ccc57634e487b7160e01b600052603260045260246000fd5b90506020020135858585818110613cf357634e487b7160e01b600052603260045260246000fd5b90506020020135610b5e565b80613d0981616801565b915050613c7a565b60146020528160005260406000208181548110612c4657600080fd5b600073__$0947e710b66d7779e1d561254425e1375a$__6369810158600d613d558686612e9a565b6040518363ffffffff1660e01b8152600401613c0f929190616547565b421190565b613d7f614984565b6001600160a01b0316613d90612c1b565b6001600160a01b031614613db65760405162461bcd60e51b8152600401610b8b90616106565b601e80546001600160a01b0319166001600160a01b0392909216919091179055565b613de0614984565b6001600160a01b0316613df1612c1b565b6001600160a01b031614613e175760405162461bcd60e51b8152600401610b8b90616106565b601d80546001600160a01b0319166001600160a01b0392909216919091179055565b606060008211613e4857600080fd5b6000826001600160401b03811115613e7057634e487b7160e01b600052604160045260246000fd5b604051908082528060200260200182016040528015613e99578160200160208202803683370190505b5090506000613eaa61365083614c33565b949350505050565b60035481565b6001600160a01b031660009081526010602052604090206008015460ff1690565b6000613efd613ee73361295c565b3360009081526013602052604090205490614978565b905081811015613f1f5760405162461bcd60e51b8152600401610b8b9061630a565b601d54604051630895993360e11b81526001600160a01b039091169063112b326690613f5190859033906004016165dd565b602060405180830381600087803b158015613f6b57600080fd5b505af1158015613f7f573d6000803e3d6000fd5b505050506040513d601f19601f82011682018060405250810190613fa391906154f8565b613fbf5760405162461bcd60e51b8152600401610b8b90616428565b3360009081526013602052604081208054849290613fde90849061677f565b909155505060405133907ffaeb7dbb9992397d26ea1944efd40c80b40f702faf69b46c67ad10aba68ccb79906119a19085906156c6565b61401d614984565b6001600160a01b031661402e612c1b565b6001600160a01b0316146140545760405162461bcd60e51b8152600401610b8b90616106565b600355565b60606140648261468b565b6140805760405162461bcd60e51b8152600401610b8b90615fd6565b6000828152601b6020908152604080832081516101c081018352815481526001820154938101939093526002810154918301919091526003808201546060840152600482015460ff808216151560808601526101008083048216151560a0870152620100009092048116151560c0860152600584015460e086015260068401549185019190915260078301546101208501526008830154610140850152600983015461016085019291169081111561414857634e487b7160e01b600052602160045260246000fd5b600381111561416757634e487b7160e01b600052602160045260246000fd5b8152602001600a8201805480602002602001604051908101604052809291908181526020016000905b8282101561423c5783829060005260206000200180546141af906167c6565b80601f01602080910402602001604051908101604052809291908181526020018280546141db906167c6565b80156142285780601f106141fd57610100808354040283529160200191614228565b820191906000526020600020905b81548152906001019060200180831161420b57829003601f168201915b505050505081526020019060010190614190565b505050508152602001600b820180548060200260200160405190810160405280929190818152602001828054801561429357602002820191906000526020600020905b81548152602001906001019080831161427f575b505050919092525050506040818101518151600580825260c0820190935292935091600091816020015b60608152602001906001900390816142bd57905050905060005b828110156118565783516000906142ef908390616734565b60008181526011602052604081208054929350909161430d906167c6565b80601f0160208091040260200160405190810160405280929190818152602001828054614339906167c6565b80156143865780601f1061435b57610100808354040283529160200191614386565b820191906000526020600020905b81548152906001019060200180831161436957829003601f168201915b50505050509050808484815181106143ae57634e487b7160e01b600052603260045260246000fd5b6020026020010181905250505080806143c690616801565b9150506142d7565b601a5481565b6143dc614984565b6001600160a01b03166143ed612c1b565b6001600160a01b0316146144135760405162461bcd60e51b8152600401610b8b90616106565b6001600160a01b0381166144395760405162461bcd60e51b8152600401610b8b90615bc5565b61444281614be3565b50565b6001600160a01b0381166000908152601260209081526040808320805482518185028101850190935280835284938301828280156144a257602002820191906000526020600020905b81548152602001906001019080831161448e575b5050505050905080600182516144b8919061677f565b815181106144d657634e487b7160e01b600052603260045260246000fd5b6020026020010151915050919050565b6144ee6147f0565b3360009081526010602052604090206016546015546103e89161451091616734565b1061451a57600080fd5b600681015460ff161561453f5760405162461bcd60e51b8152600401610b8b90615929565b60006145496129f9565b600154336000908152601360205260409020549192509081111561458f5733600090815260136020526040812054614582908390614978565b905061458d81612eaf565b505b336000908152601360205260409020548111156145be5760405162461bcd60e51b8152600401610b8b90615a1e565b60158054600180820183556000929092527f55f448fdea98c4d29eb340757ef0a66cd03dbb9538908a6a81d96026b71ec475018054336001600160a01b031991821681179092558554811682178655858301805490911690911790556005840183905560068401805460ff19169091179055600883015460ff166146525760088301805460ff191660011790554260098401555b336001600160a01b03167f439d77b7534ec3108fc6143bd4fbabde0b9f2bb54f7b0730d1f70dd2135b765f8360405161294f91906156c6565b600f54101590565b3360009081526010602052604090206008015460ff1690565b601c546001600160a01b031681565b6001600160a01b038082166000908152601060209081526040808320815161014081018352815486168152600182015490951692850192909252600282015490840152600381015460ff9081161515606085015260048201546080850152600582015460a0850152600682015416151560c08401526007810180549293849390929160e084019161474b906167c6565b80601f0160208091040260200160405190810160405280929190818152602001828054614777906167c6565b80156147c45780601f10614799576101008083540402835291602001916147c4565b820191906000526020600020905b8154815290600101906020018083116147a757829003601f168201915b5050509183525050600882015460ff161515602082015260099091015460409182015201519392505050565b6018546001600160a01b03166148185760405162461bcd60e51b8152600401610b8b90616351565b6018546040516000916001600160a01b0316906148399033906024016156f9565b60408051601f198184030181529181526020820180516001600160e01b0316631f5ac9c560e11b1790525161486e91906156cf565b6000604051808303816000865af19150503d80600081146148ab576040519150601f19603f3d011682016040523d82523d6000602084013e6148b0565b606091505b50506018546040519192506000916001600160a01b03909116906148d89033906024016156f9565b60408051601f198184030181529181526020820180516001600160e01b03166358563d2160e01b1790525161490d91906156cf565b6000604051808303816000865af19150503d806000811461494a576040519150601f19603f3d011682016040523d82523d6000602084013e61494f565b606091505b50509050818061495c5750805b612e965760405162461bcd60e51b8152600401610b8b90615a85565b6000611b52828461677f565b3390565b6001600160a01b0381166000908152601060205260409020600681015460ff1680156149b85750600881015460ff165b6149d45760405162461bcd60e51b8152600401610b8b9061613b565b6149dd82614a0e565b600601805460ff1916905550565b6000611b528284616734565b600081831015614a075781611b52565b5090919050565b60008060005b601554811015614a8257836001600160a01b031660158281548110614a4957634e487b7160e01b600052603260045260246000fd5b6000918252602090912001546001600160a01b03161415614a705760019150809250614a82565b80614a7a81616801565b915050614a14565b5080614aa05760405162461bcd60e51b8152600401610b8b906162c4565b60158054614ab09060019061677f565b81548110614ace57634e487b7160e01b600052603260045260246000fd5b600091825260209091200154601580546001600160a01b039092169184908110614b0857634e487b7160e01b600052603260045260246000fd5b9060005260206000200160006101000a8154816001600160a01b0302191690836001600160a01b031602179055506015805480614b5557634e487b7160e01b600052603160045260246000fd5b600082815260209020810160001990810180546001600160a01b0319169055019055505050565b6001600160a01b0381166000908152601060205260409020600681015460ff16158015614bad5750600881015460ff165b614bc95760405162461bcd60e51b8152600401610b8b906159b1565b614bd282614e1d565b600601805460ff1916600117905550565b600080546001600160a01b038381166001600160a01b0319831681178455604051919092169283917f8be0079c531659141344cd1fd0a4f28419497f9722a3daafe3b4186f6b6457e09190a35050565b805160609060005b81811015614c815780848281518110614c6457634e487b7160e01b600052603260045260246000fd5b602090810291909101015280614c7981616801565b915050614c3b565b509192915050565b60606000825111614c9957600080fd5b81518060005b81811015614e1457600083614cb261304b565b878481518110614cd257634e487b7160e01b600052603260045260246000fd5b6020026020010151604051602001614ceb9291906156eb565b6040516020818303038152906040528051906020012060001c614d0e919061681c565b614d19906001616734565b9050600086614d2960018461677f565b81518110614d4757634e487b7160e01b600052603260045260246000fd5b6020026020010151905086600186614d5f919061677f565b81518110614d7d57634e487b7160e01b600052603260045260246000fd5b602002602001015187600184614d93919061677f565b81518110614db157634e487b7160e01b600052603260045260246000fd5b60209081029190910101528087614dc960018861677f565b81518110614de757634e487b7160e01b600052603260045260246000fd5b6020908102919091010152614dfd60018661677f565b945050508080614e0c90616801565b915050614c9f565b50929392505050565b60008060005b601654811015614e9157836001600160a01b031660168281548110614e5857634e487b7160e01b600052603260045260246000fd5b6000918252602090912001546001600160a01b03161415614e7f5760019150809250614e91565b80614e8981616801565b915050614e23565b5080614eaf5760405162461bcd60e51b8152600401610b8b90615b84565b60168054614ebf9060019061677f565b81548110614edd57634e487b7160e01b600052603260045260246000fd5b600091825260209091200154601680546001600160a01b039092169184908110614f1757634e487b7160e01b600052603260045260246000fd5b9060005260206000200160006101000a8154816001600160a01b0302191690836001600160a01b031602179055506016805480614b5557634e487b7160e01b600052603160045260246000fd5b828054614f70906167c6565b90600052602060002090601f016020900481019282614f925760008555614fd8565b82601f10614fab57805160ff1916838001178555614fd8565b82800160010185558215614fd8579182015b82811115614fd8578251825591602001919060010190614fbd565b50614fe492915061507b565b5090565b828054828255906000526020600020908101928215615035579160200282015b828111156150355782518051615025918491602090910190614f64565b5091602001919060010190615008565b50614fe4929150615090565b828054828255906000526020600020908101928215614fd85791602002820182811115614fd8578251825591602001919060010190614fbd565b5b80821115614fe4576000815560010161507c565b80821115614fe45760006150a482826150ad565b50600101615090565b5080546150b9906167c6565b6000825580601f106150cb5750614442565b601f016020900490600052602060002090810190614442919061507b565b80356001600160a01b0381168114610f3157600080fd5b60008083601f840112615111578182fd5b5081356001600160401b03811115615127578182fd5b602083019150836020808302850101111561514157600080fd5b9250929050565b600082601f830112615158578081fd5b8135602061516d61516883616705565b6166dc565b82815281810190858301855b858110156151a257615190898684358b0101615209565b84529284019290840190600101615179565b5090979650505050505050565b600082601f8301126151bf578081fd5b813560206151cf61516883616705565b82815281810190858301838502870184018810156151eb578586fd5b855b858110156151a2578135845292840192908401906001016151ed565b600082601f830112615219578081fd5b81356001600160401b038111156152325761523261685c565b615245601f8201601f19166020016166dc565b818152846020838601011115615259578283fd5b816020850160208301379081016020019190915292915050565b600060208284031215615284578081fd5b611b52826150e9565b6000806040838503121561529f578081fd5b6152a8836150e9565b946020939093013593505050565b6000806000606084860312156152ca578081fd5b6152d3846150e9565b95602085013595506040909401359392505050565b600080600080600080600060c0888a031215615302578283fd5b87356001600160401b0380821115615318578485fd5b6153248b838c01615148565b985061533260208b016150e9565b975060408a0135915080821115615347578485fd5b6153538b838c01615100565b909750955060608a013591508082111561536b578485fd5b6153778b838c01615148565b945060808a013591508082111561538c578384fd5b6153988b838c016151af565b935060a08a01359150808211156153ad578283fd5b506153ba8a828b01615209565b91505092959891949750929550565b600080600080604085870312156153de578384fd5b84356001600160401b03808211156153f4578586fd5b61540088838901615100565b90965094506020870135915080821115615418578384fd5b5061542587828801615100565b95989497509550505050565b60008060008060008060608789031215615449578182fd5b86356001600160401b038082111561545f578384fd5b61546b8a838b01615100565b90985096506020890135915080821115615483578384fd5b61548f8a838b01615100565b909650945060408901359150808211156154a7578384fd5b506154b489828a01615100565b979a9699509497509295939492505050565b6000602082840312156154d7578081fd5b81356001600160401b038111156154ec578182fd5b613eaa848285016151af565b600060208284031215615509578081fd5b81518015158114611b52578182fd5b600060208284031215615529578081fd5b5035919050565b600060208284031215611cbd578081fd5b60008060408385031215615553578182fd5b50508035926020909101359150565b60008060008060808587031215615577578182fd5b843593506020850135925061558e604086016150e9565b9396929550929360600135925050565b6000806000606084860312156155b2578081fd5b505081359360208301359350604090920135919050565b6000815180845260208085018081965082840281019150828601855b8581101561560f5782840389526155fd84835161563e565b988501989350908401906001016155e5565b5091979650505050505050565b6004811061563a57634e487b7160e01b600052602160045260246000fd5b9052565b60008151808452615656816020860160208601616796565b601f01601f19169290920160200192915050565b600a8152690c6dedadad2e890c2e6d60b31b602082015260400190565b60609190911b6bffffffffffffffffffffffff1916815260140190565b60609290921b6bffffffffffffffffffffffff19168252601482015260340190565b90815260200190565b600082516156e1818460208701616796565b9190910192915050565b918252602082015260400190565b6001600160a01b0391909116815260200190565b6001600160a01b038b811682528a1660208201526040810189905287151560608201526080810187905260a0810186905284151560c082015261014060e0820181905260009061575f8382018761563e565b9415156101008401525050610120015298975050505050505050565b600060208252611b5260208301846155c9565b6020808252825182820181905260009190848201906040850190845b818110156157c6578351835292840192918401916001016157aa565b50909695505050505050565b901515815260200190565b600060c082526157f060c083018961563e565b6001600160a01b0388166020840152604083018790528281036060840152615818818761563e565b9050828103608084015261582c818661563e565b9150506112ea60a083018461561c565b60006060825261584f606083018661563e565b8281036020840152615861818661563e565b9050828103604084015261587581856155c9565b9695505050505050565b60006020808352818454836002820490506001808316806158a157607f831692505b8583108114156158bf57634e487b7160e01b87526022600452602487fd5b6158cb83878a016156c6565b8180156158df57600181146158f05761591a565b60ff1986168252878201965061591a565b6158f98b616728565b895b86811015615914578154848201529085019089016158fb565b83019750505b50949998505050505050505050565b6020808252601c908201527f576f726b657220697320616c7265616479207265676973746572656400000000604082015260600190565b60208082526031908201527f676976656e204461746142617463682073686f756c6420626520415050524f5660408201527011510b08185b99081a5d081a5cc81b9bdd607a1b606082015260800190565b60208082526047908201527f72656d6f7665576f726b657246726f6d427573793a20576f726b6572206e656560408201527f647320746f20626520756e617661696c61626c65206e6f7720616e64207265676060820152661a5cdd195c995960ca1b608082015260a00190565b60208082526041908201527f576f726b657220686173206e6f7420656e6f75676820285f6e756d546f6b656e60408201527f732920696e206869732053706f745374616b6564546f6b656e42616c616e63656060820152600160fd1b608082015260a00190565b60208082526025908201527f72656365697665722072656a6563746564205f7265747269657665534675656c6040820152640818d85b1b60da1b606082015260800190565b6020808252605c908201527f4e6f74207468652073616d6520766f7465207468616e2077686174207761732060408201527f636f6d6d697465642c20696d706f737369626c6520746f206d6174636820776960608201527f746820676976656e205f73616c742026205f766f74654f7074696f6e00000000608082015260a00190565b6020808252601a908201527f5f446174614261746368494420686173206e6f7420656e646564000000000000604082015260600190565b60208082526021908201527f6e6f7420666f756e64207768656e20506f7046726f6d42757379576f726b65726040820152607360f81b606082015260800190565b60208082526026908201527f4f776e61626c653a206e6577206f776e657220697320746865207a65726f206160408201526564647265737360d01b606082015260800190565b60208082526029908201527f6b206f72204e20617265206e6f74204f4b20647572696e672072616e646f6d2060408201526839b2b632b1ba34b7b760b91b606082015260800190565b6020808252601e908201527f636f6d6d697420706572696f64206e6565647320746f206265206f70656e0000604082015260600190565b60208082526039908201527f646c6c4d61703a20646f6573206e6f7420636f696e7461696e205f446174614260408201527f61746368494420666f7220746865206d73672073656e64657200000000000000606082015260800190565b6020808252602a908201527f5f446174614261746368494420636865636b696e6720766f7465206d757374206040820152691a185d9948195b99195960b21b606082015260800190565b6020808252602b908201527f576f726b6572206973206e6f7420617661696c61626c6520736f2063616e277460408201526a103ab73932b3b4b9ba32b960a91b606082015260800190565b6020808252603d908201527f436f756c64206e6f74207265717565737420656e6f75676820616c6c6f63617460408201527f6564207374616b652c2072657175657374566f74696e67526967687473000000606082015260800190565b60208082526011908201527005f446174614261746368494420213d203607c1b604082015260600190565b60208082526026908201527f557365722063616e206e6f742072657665616c207477696365206f6e2073616d6040820152656520766f746560d01b606082015260800190565b6020808252602f908201527f5573657220686173206e6f7420636f6d6d69746564206265666f72652c20746860408201526e1d5cc818d85b89dd081c995d99585b608a1b606082015260800190565b6020808252602c908201527f4461746120426174636820436865636b696e6720636f6d6d69746565206d757360408201526b1d081a185d9948195b99195960a21b606082015260800190565b60208082526010908201526f05f7365637265744861736820213d20360841b604082015260600190565b60208082526014908201527311185d18481b5d5cdd081a185d9948195b99195960621b604082015260600190565b6020808252602d908201527f636f756c64206e6f74207265776172642052455020696e20547269676765724360408201526c6865636b53706f742c20312e6160981b606082015260800190565b6020808252602b908201527f75736572206d75737420686176652072657665616c656420696e20746869732060408201526a0ced2eccadc4084c2e8c6d60ab1b606082015260800190565b60208082526017908201527f5f4461746142617463684944206d757374206578697374000000000000000000604082015260600190565b6020808252601490820152733737ba1030903b30b634b2103837b9b4ba34b7b760611b604082015260600190565b6020808252603b908201527f43616e277420616c6c6f6361746520776f726b2c207468652063757272656e7460408201527f20626174636820697320616c726561647920616c6c6f63617465640000000000606082015260800190565b60208082526048908201527f55736572206e6565647320746f2068617665206265656e20616c6c6f6361746560408201527f64207468652063757272656e74206461746120626174636820746f20636f6d6d6060820152671a5d081bdb881a5d60c21b608082015260a00190565b6020808252818101527f4f776e61626c653a2063616c6c6572206973206e6f7420746865206f776e6572604082015260600190565b60208082526047908201527f72656d6f7665576f726b657246726f6d4163746976653a20576f726b6572206e60408201527f6565647320746f20626520617661696c61626c65206e6f7720616e64207265676060820152661a5cdd195c995960ca1b608082015260a00190565b60208082526029908201527f6765744e756d50617373696e67546f6b656e733a20686173686573206d75737460408201526808189948195c5d585b60ba1b606082015260800190565b6020808252601d908201527f66696c655f68617368206c656e677468206d75737420626520213d2030000000604082015260600190565b60208082526036908201527f43616e277420616c6c6f6361746520776f726b2c207468652063757272656e74604082015275206261746368206973206e6f7420636f6d706c65746560501b606082015260800190565b60208082526026908201527f52657665616c20706572696f64206e6f74206f70656e20666f7220746869732060408201526511185d18525160d21b606082015260800190565b60208082526026908201527f6e6f7420666f756e64207768656e20506f7046726f6d417661696c61626c65576040820152656f726b65727360d01b606082015260800190565b60208082526027908201527f617661696c61626c65546f6b656e732073686f756c64206265203e3d205f6e756040820152666d546f6b656e7360c81b606082015260800190565b6020808252601390820152720c081059191c995cdcc8139bdd0815985b1a59606a1b604082015260600190565b60208082526037908201527f75736572206d757374206861766520656e6f75676820766f74696e672072696760408201527f68747320616b6120616c6c6f6361746564207374616b65000000000000000000606082015260800190565b6020808252602d908201527f636f756c64206e6f74207265776172642052455020696e20547269676765724360408201526c6865636b53706f742c20322e6160981b606082015260800190565b6020808252603b908201527f436f756c64206e6f74207769746864726177566f74696e67526967687473207460408201527f68726f7567682050726f78795374616b654465616c6c6f636174650000000000606082015260800190565b6020808252600f908201526e11185d18481b5d5cdd08195e1a5cdd608a1b604082015260600190565b60208082526043908201527f6c61737420626174636820746f20636865636b206d75737420626520636f6d7060408201527f6c65746520746f2070726f6365656420696e20547269676765724e65787445706060820152620dec6d60eb1b608082015260a00190565b600085825284602083015260806040830152616536608083018561563e565b905082606083015295945050505050565b600083825282602083015260606040830152613eaa6060830161566a565b6000848252836020830152608060408301526165836080830161566a565b9050826060830152949350505050565b9182526020820152606060408201819052600990820152686e756d546f6b656e7360b81b608082015260a00190565b93845260208401929092526040830152606082015260800190565b9182526001600160a01b0316602082015260400190565b9182526001600160a01b031660208201526000604082015260600190565b9283526020830191909152604082015260600190565b6000610180820190508d82528c60208301528b60408301528a6060830152891515608083015288151560a083015287151560c08301528660e083015285610100830152846101208301528361014083015261668761016083018461561c565b9d9c50505050505050505050505050565b6000808335601e198436030181126166ae578283fd5b8301803591506001600160401b038211156166c7578283fd5b60200191503681900382131561514157600080fd5b6040518181016001600160401b03811182821017156166fd576166fd61685c565b604052919050565b60006001600160401b0382111561671e5761671e61685c565b5060209081020190565b60009081526020902090565b6000821982111561674757616747616830565b500190565b60008261675b5761675b616846565b500490565b600081600019048311821515161561677a5761677a616830565b500290565b60008282101561679157616791616830565b500390565b60005b838110156167b1578181015183820152602001616799565b838111156167c0576000848401525b50505050565b6002810460018216806167da57607f821691505b602082108114156167fb57634e487b7160e01b600052602260045260246000fd5b50919050565b600060001982141561681557616815616830565b5060010190565b60008261682b5761682b616846565b500690565b634e487b7160e01b600052601160045260246000fd5b634e487b7160e01b600052601260045260246000fd5b634e487b7160e01b600052604160045260246000fdfea2646970667358221220113e14ddab429f0caddffc9333fb8fab7a063a516417c482006ad3097e6e4d4964736f6c63430008000033",
  "linkReferences": {
    "contracts/worksystems/DataSpotting.sol": {
      "AttributeStore": [
        {
          "length": 20,
          "start": 15302
        },
        {
          "length": 20,
          "start": 15410
        },
        {
          "length": 20,
          "start": 15694
        },
        {
          "length": 20,
          "start": 16049
        }
      ],
      "DLL": [
        {
          "length": 20,
          "start": 3682
        },
        {
          "length": 20,
          "start": 7074
        },
        {
          "length": 20,
          "start": 7246
        },
        {
          "length": 20,
          "start": 7793
        },
        {
          "length": 20,
          "start": 11860
        },
        {
          "length": 20,
          "start": 12040
        },
        {
          "length": 20,
          "start": 14791
        },
        {
          "length": 20,
          "start": 14953
        },
        {
          "length": 20,
          "start": 15148
        }
      ]
    }
  },
  "deployedLinkReferences": {
    "contracts/worksystems/DataSpotting.sol": {
      "AttributeStore": [
        {
          "length": 20,
          "start": 14918
        },
        {
          "length": 20,
          "start": 15026
        },
        {
          "length": 20,
          "start": 15310
        },
        {
          "length": 20,
          "start": 15665
        }
      ],
      "DLL": [
        {
          "length": 20,
          "start": 3298
        },
        {
          "length": 20,
          "start": 6690
        },
        {
          "length": 20,
          "start": 6862
        },
        {
          "length": 20,
          "start": 7409
        },
        {
          "length": 20,
          "start": 11476
        },
        {
          "length": 20,
          "start": 11656
        },
        {
          "length": 20,
          "start": 14407
        },
        {
          "length": 20,
          "start": 14569
        },
        {
          "length": 20,
          "start": 14764
        }
      ]
    }
  }
}