{
  "_format": "hh-sol-artifact-1",
  "contractName": "DataSpotting",
  "sourceName": "contracts/worksystems/DataSpotting.sol",
  "abi": [
    {
      "inputs": [
        {
          "internalType": "address",
          "name": "EXDT_token",
          "type": "address"
        }
      ],
      "stateMutability": "nonpayable",
      "type": "constructor"
    },
    {
      "anonymous": false,
      "inputs": [
        {
          "indexed": true,
          "internalType": "address",
          "name": "previousOwner",
          "type": "address"
        },
        {
          "indexed": true,
          "internalType": "address",
          "name": "newOwner",
          "type": "address"
        }
      ],
      "name": "OwnershipTransferred",
      "type": "event"
    },
    {
      "anonymous": false,
      "inputs": [
        {
          "indexed": true,
          "internalType": "uint256",
          "name": "epochNumber",
          "type": "uint256"
        }
      ],
      "name": "_NewEpoch",
      "type": "event"
    },
    {
      "anonymous": false,
      "inputs": [
        {
          "indexed": false,
          "internalType": "string",
          "name": "hash",
          "type": "string"
        },
        {
          "indexed": true,
          "internalType": "address",
          "name": "creator",
          "type": "address"
        }
      ],
      "name": "_SpotAccepted",
      "type": "event"
    },
    {
      "anonymous": false,
      "inputs": [
        {
          "indexed": true,
          "internalType": "uint256",
          "name": "DataID",
          "type": "uint256"
        },
        {
          "indexed": false,
          "internalType": "uint256",
          "name": "numTokens",
          "type": "uint256"
        },
        {
          "indexed": true,
          "internalType": "address",
          "name": "voter",
          "type": "address"
        }
      ],
      "name": "_SpotCheckCommitted",
      "type": "event"
    },
    {
      "anonymous": false,
      "inputs": [
        {
          "indexed": true,
          "internalType": "uint256",
          "name": "DataID",
          "type": "uint256"
        },
        {
          "indexed": false,
          "internalType": "uint256",
          "name": "numTokens",
          "type": "uint256"
        },
        {
          "indexed": false,
          "internalType": "uint256",
          "name": "votesFor",
          "type": "uint256"
        },
        {
          "indexed": false,
          "internalType": "uint256",
          "name": "votesAgainst",
          "type": "uint256"
        },
        {
          "indexed": true,
          "internalType": "uint256",
          "name": "choice",
          "type": "uint256"
        },
        {
          "indexed": true,
          "internalType": "address",
          "name": "voter",
          "type": "address"
        }
      ],
      "name": "_SpotCheckRevealed",
      "type": "event"
    },
    {
      "anonymous": false,
      "inputs": [
        {
          "indexed": true,
          "internalType": "uint256",
          "name": "DataID",
          "type": "uint256"
        },
        {
          "indexed": false,
          "internalType": "string",
          "name": "file_hash",
          "type": "string"
        },
        {
          "indexed": false,
          "internalType": "string",
          "name": "URL_domain",
          "type": "string"
        },
        {
          "indexed": false,
          "internalType": "string[]",
          "name": "tags",
          "type": "string[]"
        },
        {
          "indexed": true,
          "internalType": "address",
          "name": "sender",
          "type": "address"
        }
      ],
      "name": "_SpotSubmitted",
      "type": "event"
    },
    {
      "anonymous": false,
      "inputs": [
        {
          "indexed": true,
          "internalType": "uint256",
          "name": "DataID",
          "type": "uint256"
        },
        {
          "indexed": true,
          "internalType": "address",
          "name": "voter",
          "type": "address"
        }
      ],
      "name": "_TokensRescued",
      "type": "event"
    },
    {
      "anonymous": false,
      "inputs": [
        {
          "indexed": false,
          "internalType": "uint256",
          "name": "numTokens",
          "type": "uint256"
        },
        {
          "indexed": true,
          "internalType": "address",
          "name": "voter",
          "type": "address"
        }
      ],
      "name": "_VotingRightsGranted",
      "type": "event"
    },
    {
      "anonymous": false,
      "inputs": [
        {
          "indexed": false,
          "internalType": "uint256",
          "name": "numTokens",
          "type": "uint256"
        },
        {
          "indexed": true,
          "internalType": "address",
          "name": "voter",
          "type": "address"
        }
      ],
      "name": "_VotingRightsWithdrawn",
      "type": "event"
    },
    {
      "anonymous": false,
      "inputs": [
        {
          "indexed": true,
          "internalType": "uint256",
          "name": "batchID",
          "type": "uint256"
        },
        {
          "indexed": false,
          "internalType": "address",
          "name": "worker",
          "type": "address"
        }
      ],
      "name": "_WorkAllocated",
      "type": "event"
    },
    {
      "anonymous": false,
      "inputs": [
        {
          "indexed": true,
          "internalType": "address",
          "name": "worker",
          "type": "address"
        },
        {
          "indexed": false,
          "internalType": "uint256",
          "name": "timestamp",
          "type": "uint256"
        }
      ],
      "name": "_WorkerRegistered",
      "type": "event"
    },
    {
      "anonymous": false,
      "inputs": [
        {
          "indexed": true,
          "internalType": "address",
          "name": "worker",
          "type": "address"
        },
        {
          "indexed": false,
          "internalType": "uint256",
          "name": "timestamp",
          "type": "uint256"
        }
      ],
      "name": "_WorkerUnregistered",
      "type": "event"
    },
    {
      "inputs": [],
      "name": "AddressManager",
      "outputs": [
        {
          "internalType": "contract IAddressManager",
          "name": "",
          "type": "address"
        }
      ],
      "stateMutability": "view",
      "type": "function"
    },
    {
      "inputs": [],
      "name": "AllocateWork",
      "outputs": [],
      "stateMutability": "nonpayable",
      "type": "function"
    },
    {
      "inputs": [],
      "name": "COMMIT_ROUND_DURATION",
      "outputs": [
        {
          "internalType": "uint256",
          "name": "",
          "type": "uint256"
        }
      ],
      "stateMutability": "view",
      "type": "function"
    },
    {
      "inputs": [],
      "name": "ChecksNonce",
      "outputs": [
        {
          "internalType": "uint256",
          "name": "",
          "type": "uint256"
        }
      ],
      "stateMutability": "view",
      "type": "function"
    },
    {
      "inputs": [],
      "name": "CurrentWorkEpoch",
      "outputs": [
        {
          "internalType": "uint256",
          "name": "",
          "type": "uint256"
        }
      ],
      "stateMutability": "view",
      "type": "function"
    },
    {
      "inputs": [
        {
          "internalType": "uint256",
          "name": "",
          "type": "uint256"
        }
      ],
      "name": "DataBatch",
      "outputs": [
        {
          "internalType": "uint256",
          "name": "start_idx",
          "type": "uint256"
        },
        {
          "internalType": "uint256",
          "name": "end_idx",
          "type": "uint256"
        },
        {
          "internalType": "uint256",
          "name": "counter",
          "type": "uint256"
        },
        {
          "internalType": "uint256",
          "name": "unrevealed_workers",
          "type": "uint256"
        },
        {
          "internalType": "bool",
          "name": "complete",
          "type": "bool"
        },
        {
          "internalType": "bool",
          "name": "checked",
          "type": "bool"
        },
        {
          "internalType": "bool",
          "name": "allocated_to_work",
          "type": "bool"
        },
        {
          "internalType": "uint256",
          "name": "commitEndDate",
          "type": "uint256"
        },
        {
          "internalType": "uint256",
          "name": "revealEndDate",
          "type": "uint256"
        },
        {
          "internalType": "uint256",
          "name": "votesFor",
          "type": "uint256"
        },
        {
          "internalType": "uint256",
          "name": "votesAgainst",
          "type": "uint256"
        },
        {
          "internalType": "enum DataSpotting.DataSatus",
          "name": "status",
          "type": "uint8"
        }
      ],
      "stateMutability": "view",
      "type": "function"
    },
    {
      "inputs": [
        {
          "internalType": "uint256",
          "name": "_DataBatchID",
          "type": "uint256"
        }
      ],
      "name": "DataCommitEndDate",
      "outputs": [
        {
          "internalType": "uint256",
          "name": "commitEndDate",
          "type": "uint256"
        }
      ],
      "stateMutability": "view",
      "type": "function"
    },
    {
      "inputs": [
        {
          "internalType": "uint256",
          "name": "_DataBatchID",
          "type": "uint256"
        }
      ],
      "name": "DataEnded",
      "outputs": [
        {
          "internalType": "bool",
          "name": "ended",
          "type": "bool"
        }
      ],
      "stateMutability": "view",
      "type": "function"
    },
    {
      "inputs": [
        {
          "internalType": "uint256",
          "name": "_DataBatchID",
          "type": "uint256"
        }
      ],
      "name": "DataExists",
      "outputs": [
        {
          "internalType": "bool",
          "name": "exists",
          "type": "bool"
        }
      ],
      "stateMutability": "view",
      "type": "function"
    },
    {
      "inputs": [],
      "name": "DataNonce",
      "outputs": [
        {
          "internalType": "uint256",
          "name": "",
          "type": "uint256"
        }
      ],
      "stateMutability": "view",
      "type": "function"
    },
    {
      "inputs": [
        {
          "internalType": "uint256",
          "name": "_DataBatchID",
          "type": "uint256"
        }
      ],
      "name": "DataRevealEndDate",
      "outputs": [
        {
          "internalType": "uint256",
          "name": "revealEndDate",
          "type": "uint256"
        }
      ],
      "stateMutability": "view",
      "type": "function"
    },
    {
      "inputs": [
        {
          "internalType": "address",
          "name": "user_",
          "type": "address"
        }
      ],
      "name": "GetCurrentWork",
      "outputs": [
        {
          "internalType": "uint256",
          "name": "",
          "type": "uint256"
        }
      ],
      "stateMutability": "view",
      "type": "function"
    },
    {
      "inputs": [
        {
          "internalType": "address",
          "name": "user_",
          "type": "address"
        }
      ],
      "name": "IsNewWorkAvailable",
      "outputs": [
        {
          "internalType": "bool",
          "name": "",
          "type": "bool"
        }
      ],
      "stateMutability": "view",
      "type": "function"
    },
    {
      "inputs": [],
      "name": "MIN_PARTICIPANTS_FOR_VALIDITY",
      "outputs": [
        {
          "internalType": "uint256",
          "name": "",
          "type": "uint256"
        }
      ],
      "stateMutability": "view",
      "type": "function"
    },
    {
      "inputs": [],
      "name": "MIN_REP_Data",
      "outputs": [
        {
          "internalType": "uint256",
          "name": "",
          "type": "uint256"
        }
      ],
      "stateMutability": "view",
      "type": "function"
    },
    {
      "inputs": [],
      "name": "MIN_REP_REVEAL",
      "outputs": [
        {
          "internalType": "uint256",
          "name": "",
          "type": "uint256"
        }
      ],
      "stateMutability": "view",
      "type": "function"
    },
    {
      "inputs": [],
      "name": "MIN_REWARD_Data",
      "outputs": [
        {
          "internalType": "uint256",
          "name": "",
          "type": "uint256"
        }
      ],
      "stateMutability": "view",
      "type": "function"
    },
    {
      "inputs": [],
      "name": "MIN_REWARD_REVEAL",
      "outputs": [
        {
          "internalType": "uint256",
          "name": "",
          "type": "uint256"
        }
      ],
      "stateMutability": "view",
      "type": "function"
    },
    {
      "inputs": [],
      "name": "MIN_STAKE",
      "outputs": [
        {
          "internalType": "uint256",
          "name": "",
          "type": "uint256"
        }
      ],
      "stateMutability": "view",
      "type": "function"
    },
    {
      "inputs": [
        {
          "internalType": "address",
          "name": "",
          "type": "address"
        },
        {
          "internalType": "uint256",
          "name": "",
          "type": "uint256"
        }
      ],
      "name": "MasterWorkers",
      "outputs": [
        {
          "internalType": "address",
          "name": "",
          "type": "address"
        }
      ],
      "stateMutability": "view",
      "type": "function"
    },
    {
      "inputs": [],
      "name": "REVEAL_ROUND_DURATION",
      "outputs": [
        {
          "internalType": "uint256",
          "name": "",
          "type": "uint256"
        }
      ],
      "stateMutability": "view",
      "type": "function"
    },
    {
      "inputs": [],
      "name": "RegisterWorker",
      "outputs": [],
      "stateMutability": "nonpayable",
      "type": "function"
    },
    {
      "inputs": [],
      "name": "RepManager",
      "outputs": [
        {
          "internalType": "contract IRepManager",
          "name": "",
          "type": "address"
        }
      ],
      "stateMutability": "view",
      "type": "function"
    },
    {
      "inputs": [],
      "name": "RewardManager",
      "outputs": [
        {
          "internalType": "contract IRewardManager",
          "name": "",
          "type": "address"
        }
      ],
      "stateMutability": "view",
      "type": "function"
    },
    {
      "inputs": [],
      "name": "SPOT_CHECK_VOTE_QUORUM",
      "outputs": [
        {
          "internalType": "uint256",
          "name": "",
          "type": "uint256"
        }
      ],
      "stateMutability": "view",
      "type": "function"
    },
    {
      "inputs": [
        {
          "internalType": "string",
          "name": "file_hash",
          "type": "string"
        },
        {
          "internalType": "address",
          "name": "main_worker_account",
          "type": "address"
        },
        {
          "internalType": "string",
          "name": "URL_domain_",
          "type": "string"
        },
        {
          "internalType": "string[]",
          "name": "tags_",
          "type": "string[]"
        },
        {
          "internalType": "uint256[]",
          "name": "tags_id_",
          "type": "uint256[]"
        },
        {
          "internalType": "string",
          "name": "extra_",
          "type": "string"
        }
      ],
      "name": "SpotData",
      "outputs": [
        {
          "internalType": "uint256",
          "name": "Dataid_",
          "type": "uint256"
        }
      ],
      "stateMutability": "nonpayable",
      "type": "function"
    },
    {
      "inputs": [
        {
          "internalType": "address",
          "name": "",
          "type": "address"
        }
      ],
      "name": "SpotStakedTokenBalance",
      "outputs": [
        {
          "internalType": "uint256",
          "name": "",
          "type": "uint256"
        }
      ],
      "stateMutability": "view",
      "type": "function"
    },
    {
      "inputs": [
        {
          "internalType": "uint256",
          "name": "",
          "type": "uint256"
        }
      ],
      "name": "SpotsMapping",
      "outputs": [
        {
          "internalType": "string",
          "name": "ipfs_hash",
          "type": "string"
        },
        {
          "internalType": "address",
          "name": "author",
          "type": "address"
        },
        {
          "internalType": "uint256",
          "name": "timestamp",
          "type": "uint256"
        },
        {
          "internalType": "string",
          "name": "URL_domain",
          "type": "string"
        },
        {
          "internalType": "string",
          "name": "extra",
          "type": "string"
        },
        {
          "internalType": "enum DataSpotting.DataSatus",
          "name": "status",
          "type": "uint8"
        }
      ],
      "stateMutability": "view",
      "type": "function"
    },
    {
      "inputs": [],
      "name": "StakeManager",
      "outputs": [
        {
          "internalType": "contract IStakeManager",
          "name": "",
          "type": "address"
        }
      ],
      "stateMutability": "view",
      "type": "function"
    },
    {
      "inputs": [
        {
          "internalType": "uint256",
          "name": "_DataBatchID",
          "type": "uint256"
        }
      ],
      "name": "TriggerCheckSpottedData",
      "outputs": [],
      "stateMutability": "nonpayable",
      "type": "function"
    },
    {
      "inputs": [],
      "name": "UnregisterWorker",
      "outputs": [],
      "stateMutability": "nonpayable",
      "type": "function"
    },
    {
      "inputs": [],
      "name": "WorkersNonce",
      "outputs": [
        {
          "internalType": "uint256",
          "name": "",
          "type": "uint256"
        }
      ],
      "stateMutability": "view",
      "type": "function"
    },
    {
      "inputs": [
        {
          "internalType": "address",
          "name": "",
          "type": "address"
        }
      ],
      "name": "WorkersState",
      "outputs": [
        {
          "internalType": "uint256",
          "name": "array_idx",
          "type": "uint256"
        },
        {
          "internalType": "address",
          "name": "worker_address",
          "type": "address"
        },
        {
          "internalType": "address",
          "name": "master_address",
          "type": "address"
        },
        {
          "internalType": "uint256",
          "name": "allocated_work_batch",
          "type": "uint256"
        },
        {
          "internalType": "bool",
          "name": "has_completed_work",
          "type": "bool"
        },
        {
          "internalType": "uint256",
          "name": "work_epoch_deadline",
          "type": "uint256"
        },
        {
          "internalType": "uint256",
          "name": "last_worked_round",
          "type": "uint256"
        },
        {
          "internalType": "uint256",
          "name": "last_interaction_date",
          "type": "uint256"
        },
        {
          "internalType": "bool",
          "name": "is_available_now",
          "type": "bool"
        },
        {
          "internalType": "string",
          "name": "extra",
          "type": "string"
        },
        {
          "internalType": "bool",
          "name": "registered",
          "type": "bool"
        },
        {
          "internalType": "uint256",
          "name": "registration_date",
          "type": "uint256"
        }
      ],
      "stateMutability": "view",
      "type": "function"
    },
    {
      "inputs": [
        {
          "internalType": "address",
          "name": "_user",
          "type": "address"
        },
        {
          "internalType": "uint256",
          "name": "_DataBatchID",
          "type": "uint256"
        }
      ],
      "name": "attrUUID",
      "outputs": [
        {
          "internalType": "bytes32",
          "name": "UUID",
          "type": "bytes32"
        }
      ],
      "stateMutability": "pure",
      "type": "function"
    },
    {
      "inputs": [
        {
          "internalType": "uint256",
          "name": "",
          "type": "uint256"
        }
      ],
      "name": "availableWorkers",
      "outputs": [
        {
          "internalType": "address",
          "name": "",
          "type": "address"
        }
      ],
      "stateMutability": "view",
      "type": "function"
    },
    {
      "inputs": [
        {
          "internalType": "uint256",
          "name": "",
          "type": "uint256"
        }
      ],
      "name": "busyWorkers",
      "outputs": [
        {
          "internalType": "address",
          "name": "",
          "type": "address"
        }
      ],
      "stateMutability": "view",
      "type": "function"
    },
    {
      "inputs": [
        {
          "internalType": "uint256",
          "name": "_DataBatchID",
          "type": "uint256"
        }
      ],
      "name": "commitPeriodActive",
      "outputs": [
        {
          "internalType": "bool",
          "name": "active",
          "type": "bool"
        }
      ],
      "stateMutability": "view",
      "type": "function"
    },
    {
      "inputs": [
        {
          "internalType": "uint256",
          "name": "_DataBatchID",
          "type": "uint256"
        },
        {
          "internalType": "bytes32",
          "name": "_secretHash",
          "type": "bytes32"
        }
      ],
      "name": "commitSpotCheck",
      "outputs": [],
      "stateMutability": "nonpayable",
      "type": "function"
    },
    {
      "inputs": [
        {
          "internalType": "uint256[]",
          "name": "_DataBatchIDs",
          "type": "uint256[]"
        },
        {
          "internalType": "bytes32[]",
          "name": "_secretHashes",
          "type": "bytes32[]"
        }
      ],
      "name": "commitSpotChecks",
      "outputs": [],
      "stateMutability": "nonpayable",
      "type": "function"
    },
    {
      "inputs": [],
      "name": "current_batch_nounce",
      "outputs": [
        {
          "internalType": "uint256",
          "name": "",
          "type": "uint256"
        }
      ],
      "stateMutability": "view",
      "type": "function"
    },
    {
      "inputs": [
        {
          "internalType": "address",
          "name": "_voter",
          "type": "address"
        },
        {
          "internalType": "uint256",
          "name": "_DataBatchID",
          "type": "uint256"
        }
      ],
      "name": "didCommit",
      "outputs": [
        {
          "internalType": "bool",
          "name": "committed",
          "type": "bool"
        }
      ],
      "stateMutability": "view",
      "type": "function"
    },
    {
      "inputs": [
        {
          "internalType": "address",
          "name": "_voter",
          "type": "address"
        },
        {
          "internalType": "uint256",
          "name": "_DataBatchID",
          "type": "uint256"
        }
      ],
      "name": "didReveal",
      "outputs": [
        {
          "internalType": "bool",
          "name": "revealed",
          "type": "bool"
        }
      ],
      "stateMutability": "view",
      "type": "function"
    },
    {
      "inputs": [],
      "name": "getBlockTimestamp",
      "outputs": [
        {
          "internalType": "uint256",
          "name": "blocktimestamp",
          "type": "uint256"
        }
      ],
      "stateMutability": "view",
      "type": "function"
    },
    {
      "inputs": [
        {
          "internalType": "address",
          "name": "_voter",
          "type": "address"
        },
        {
          "internalType": "uint256",
          "name": "_DataBatchID",
          "type": "uint256"
        }
      ],
      "name": "getCommitHash",
      "outputs": [
        {
          "internalType": "bytes32",
          "name": "commitHash",
          "type": "bytes32"
        }
      ],
      "stateMutability": "view",
      "type": "function"
    },
    {
      "inputs": [
        {
          "internalType": "uint256",
          "name": "_DataBatchID",
          "type": "uint256"
        }
      ],
      "name": "getDomainsForBatch",
      "outputs": [
        {
          "internalType": "string[]",
          "name": "ipfs_hash_list",
          "type": "string[]"
        }
      ],
      "stateMutability": "view",
      "type": "function"
    },
    {
      "inputs": [
        {
          "internalType": "uint256",
          "name": "_voteOption",
          "type": "uint256"
        },
        {
          "internalType": "uint256",
          "name": "_salt",
          "type": "uint256"
        }
      ],
      "name": "getEncryptedHash",
      "outputs": [
        {
          "internalType": "bytes32",
          "name": "keccak256hash",
          "type": "bytes32"
        }
      ],
      "stateMutability": "view",
      "type": "function"
    },
    {
      "inputs": [
        {
          "internalType": "uint256",
          "name": "a",
          "type": "uint256"
        },
        {
          "internalType": "uint256",
          "name": "b",
          "type": "uint256"
        }
      ],
      "name": "getHash",
      "outputs": [
        {
          "internalType": "bytes32",
          "name": "keccak256hash",
          "type": "bytes32"
        }
      ],
      "stateMutability": "pure",
      "type": "function"
    },
    {
      "inputs": [
        {
          "internalType": "uint256",
          "name": "_DataBatchID",
          "type": "uint256"
        }
      ],
      "name": "getIPFShashesForBatch",
      "outputs": [
        {
          "internalType": "string[]",
          "name": "ipfs_hash_list",
          "type": "string[]"
        }
      ],
      "stateMutability": "view",
      "type": "function"
    },
    {
      "inputs": [
        {
          "internalType": "address",
          "name": "_voter",
          "type": "address"
        },
        {
          "internalType": "uint256",
          "name": "_numTokens",
          "type": "uint256"
        },
        {
          "internalType": "uint256",
          "name": "_DataBatchID",
          "type": "uint256"
        }
      ],
      "name": "getInsertPointForNumTokens",
      "outputs": [
        {
          "internalType": "uint256",
          "name": "prevNode",
          "type": "uint256"
        }
      ],
      "stateMutability": "view",
      "type": "function"
    },
    {
      "inputs": [],
      "name": "getLastDataId",
      "outputs": [
        {
          "internalType": "uint256",
          "name": "DataId",
          "type": "uint256"
        }
      ],
      "stateMutability": "view",
      "type": "function"
    },
    {
      "inputs": [
        {
          "internalType": "address",
          "name": "_voter",
          "type": "address"
        }
      ],
      "name": "getLastNode",
      "outputs": [
        {
          "internalType": "uint256",
          "name": "DataID",
          "type": "uint256"
        }
      ],
      "stateMutability": "view",
      "type": "function"
    },
    {
      "inputs": [
        {
          "internalType": "address",
          "name": "user",
          "type": "address"
        }
      ],
      "name": "getLastUserDataId",
      "outputs": [
        {
          "internalType": "uint256",
          "name": "DataId",
          "type": "uint256"
        }
      ],
      "stateMutability": "view",
      "type": "function"
    },
    {
      "inputs": [
        {
          "internalType": "address",
          "name": "_voter",
          "type": "address"
        }
      ],
      "name": "getLockedTokens",
      "outputs": [
        {
          "internalType": "uint256",
          "name": "numTokens",
          "type": "uint256"
        }
      ],
      "stateMutability": "view",
      "type": "function"
    },
    {
      "inputs": [
        {
          "internalType": "address",
          "name": "_voter",
          "type": "address"
        },
        {
          "internalType": "uint256",
          "name": "_DataBatchID",
          "type": "uint256"
        },
        {
          "internalType": "uint256",
          "name": "_salt",
          "type": "uint256"
        }
      ],
      "name": "getNumPassingTokens",
      "outputs": [
        {
          "internalType": "uint256",
          "name": "correctSpotChecks",
          "type": "uint256"
        }
      ],
      "stateMutability": "view",
      "type": "function"
    },
    {
      "inputs": [
        {
          "internalType": "address",
          "name": "_voter",
          "type": "address"
        },
        {
          "internalType": "uint256",
          "name": "_DataBatchID",
          "type": "uint256"
        }
      ],
      "name": "getNumTokens",
      "outputs": [
        {
          "internalType": "uint256",
          "name": "numTokens",
          "type": "uint256"
        }
      ],
      "stateMutability": "view",
      "type": "function"
    },
    {
      "inputs": [],
      "name": "getRandom",
      "outputs": [
        {
          "internalType": "uint256",
          "name": "",
          "type": "uint256"
        }
      ],
      "stateMutability": "view",
      "type": "function"
    },
    {
      "inputs": [],
      "name": "getSeed",
      "outputs": [
        {
          "internalType": "bytes32",
          "name": "addr",
          "type": "bytes32"
        }
      ],
      "stateMutability": "view",
      "type": "function"
    },
    {
      "inputs": [
        {
          "internalType": "uint256",
          "name": "_DataBatchID",
          "type": "uint256"
        }
      ],
      "name": "getTotalNumberOfSpotChecks",
      "outputs": [
        {
          "internalType": "uint256",
          "name": "vc",
          "type": "uint256"
        }
      ],
      "stateMutability": "view",
      "type": "function"
    },
    {
      "inputs": [
        {
          "internalType": "uint256",
          "name": "_DataBatchID",
          "type": "uint256"
        }
      ],
      "name": "getTotalNumberOfTokensForWinningOption",
      "outputs": [
        {
          "internalType": "uint256",
          "name": "numTokens",
          "type": "uint256"
        }
      ],
      "stateMutability": "view",
      "type": "function"
    },
    {
      "inputs": [
        {
          "internalType": "address",
          "name": "user",
          "type": "address"
        }
      ],
      "name": "getUserDatas",
      "outputs": [
        {
          "internalType": "uint256[]",
          "name": "user_Datas",
          "type": "uint256[]"
        }
      ],
      "stateMutability": "view",
      "type": "function"
    },
    {
      "inputs": [
        {
          "internalType": "uint256",
          "name": "_terminationDate",
          "type": "uint256"
        }
      ],
      "name": "isExpired",
      "outputs": [
        {
          "internalType": "bool",
          "name": "expired",
          "type": "bool"
        }
      ],
      "stateMutability": "view",
      "type": "function"
    },
    {
      "inputs": [
        {
          "internalType": "uint256",
          "name": "_DataBatchID",
          "type": "uint256"
        }
      ],
      "name": "isPassed",
      "outputs": [
        {
          "internalType": "bool",
          "name": "passed",
          "type": "bool"
        }
      ],
      "stateMutability": "view",
      "type": "function"
    },
    {
      "inputs": [
        {
          "internalType": "address",
          "name": "_worker",
          "type": "address"
        }
      ],
      "name": "isWorkerRegistered",
      "outputs": [
        {
          "internalType": "bool",
          "name": "passed",
          "type": "bool"
        }
      ],
      "stateMutability": "view",
      "type": "function"
    },
    {
      "inputs": [],
      "name": "last_checked_batch_nounce",
      "outputs": [
        {
          "internalType": "uint256",
          "name": "",
          "type": "uint256"
        }
      ],
      "stateMutability": "view",
      "type": "function"
    },
    {
      "inputs": [],
      "name": "owner",
      "outputs": [
        {
          "internalType": "address",
          "name": "",
          "type": "address"
        }
      ],
      "stateMutability": "view",
      "type": "function"
    },
    {
      "inputs": [
        {
          "internalType": "uint256",
          "name": "k",
          "type": "uint256"
        },
        {
          "internalType": "uint256",
          "name": "N",
          "type": "uint256"
        }
      ],
      "name": "random_selection",
      "outputs": [
        {
          "internalType": "uint256[]",
          "name": "",
          "type": "uint256[]"
        }
      ],
      "stateMutability": "view",
      "type": "function"
    },
    {
      "inputs": [],
      "name": "renounceOwnership",
      "outputs": [],
      "stateMutability": "nonpayable",
      "type": "function"
    },
    {
      "inputs": [
        {
          "internalType": "uint256",
          "name": "_numTokens",
          "type": "uint256"
        }
      ],
      "name": "requestVotingRights",
      "outputs": [],
      "stateMutability": "nonpayable",
      "type": "function"
    },
    {
      "inputs": [
        {
          "internalType": "uint256",
          "name": "_DataBatchID",
          "type": "uint256"
        }
      ],
      "name": "rescueTokens",
      "outputs": [],
      "stateMutability": "nonpayable",
      "type": "function"
    },
    {
      "inputs": [
        {
          "internalType": "uint256[]",
          "name": "_DataBatchIDs",
          "type": "uint256[]"
        }
      ],
      "name": "rescueTokensInMultipleDatas",
      "outputs": [],
      "stateMutability": "nonpayable",
      "type": "function"
    },
    {
      "inputs": [
        {
          "internalType": "uint256",
          "name": "_DataBatchID",
          "type": "uint256"
        }
      ],
      "name": "revealPeriodActive",
      "outputs": [
        {
          "internalType": "bool",
          "name": "active",
          "type": "bool"
        }
      ],
      "stateMutability": "view",
      "type": "function"
    },
    {
      "inputs": [
        {
          "internalType": "uint256",
          "name": "_DataBatchID",
          "type": "uint256"
        },
        {
          "internalType": "uint256",
          "name": "_voteOption",
          "type": "uint256"
        },
        {
          "internalType": "uint256",
          "name": "_salt",
          "type": "uint256"
        }
      ],
      "name": "revealSpotCheck",
      "outputs": [],
      "stateMutability": "nonpayable",
      "type": "function"
    },
    {
      "inputs": [
        {
          "internalType": "uint256[]",
          "name": "_DataBatchIDs",
          "type": "uint256[]"
        },
        {
          "internalType": "uint256[]",
          "name": "_voteOptions",
          "type": "uint256[]"
        },
        {
          "internalType": "uint256[]",
          "name": "_salts",
          "type": "uint256[]"
        }
      ],
      "name": "revealSpotChecks",
      "outputs": [],
      "stateMutability": "nonpayable",
      "type": "function"
    },
    {
      "inputs": [],
      "name": "sFuel",
      "outputs": [
        {
          "internalType": "address",
          "name": "",
          "type": "address"
        }
      ],
      "stateMutability": "view",
      "type": "function"
    },
    {
      "inputs": [
        {
          "internalType": "uint256",
          "name": "N",
          "type": "uint256"
        }
      ],
      "name": "shuffle_array",
      "outputs": [
        {
          "internalType": "uint256[]",
          "name": "",
          "type": "uint256[]"
        }
      ],
      "stateMutability": "view",
      "type": "function"
    },
    {
      "inputs": [],
      "name": "token",
      "outputs": [
        {
          "internalType": "contract IERC20",
          "name": "",
          "type": "address"
        }
      ],
      "stateMutability": "view",
      "type": "function"
    },
    {
      "inputs": [
        {
          "internalType": "address",
          "name": "newOwner",
          "type": "address"
        }
      ],
      "name": "transferOwnership",
      "outputs": [],
      "stateMutability": "nonpayable",
      "type": "function"
    },
    {
      "inputs": [
        {
          "internalType": "address",
          "name": "addr",
          "type": "address"
        }
      ],
      "name": "updateAddressManager",
      "outputs": [],
      "stateMutability": "nonpayable",
      "type": "function"
    },
    {
      "inputs": [
        {
          "internalType": "uint256",
          "name": "COMMIT_ROUND_DURATION_",
          "type": "uint256"
        }
      ],
      "name": "updateCommitRoundDuration",
      "outputs": [],
      "stateMutability": "nonpayable",
      "type": "function"
    },
    {
      "inputs": [
        {
          "internalType": "address",
          "name": "addr",
          "type": "address"
        }
      ],
      "name": "updateRepManager",
      "outputs": [],
      "stateMutability": "nonpayable",
      "type": "function"
    },
    {
      "inputs": [
        {
          "internalType": "uint256",
          "name": "REVEAL_ROUND_DURATION_",
          "type": "uint256"
        }
      ],
      "name": "updateRevealRoundDuration",
      "outputs": [],
      "stateMutability": "nonpayable",
      "type": "function"
    },
    {
      "inputs": [
        {
          "internalType": "address",
          "name": "addr",
          "type": "address"
        }
      ],
      "name": "updateRewardManager",
      "outputs": [],
      "stateMutability": "nonpayable",
      "type": "function"
    },
    {
      "inputs": [
        {
          "internalType": "address",
          "name": "addr",
          "type": "address"
        }
      ],
      "name": "updateStakeManager",
      "outputs": [],
      "stateMutability": "nonpayable",
      "type": "function"
    },
    {
      "inputs": [
        {
          "internalType": "address",
          "name": "sFuel_",
          "type": "address"
        }
      ],
      "name": "updatesFuelFaucet",
      "outputs": [],
      "stateMutability": "nonpayable",
      "type": "function"
    },
    {
      "inputs": [
        {
          "internalType": "address",
          "name": "",
          "type": "address"
        },
        {
          "internalType": "uint256",
          "name": "",
          "type": "uint256"
        }
      ],
      "name": "userSubmissions",
      "outputs": [
        {
          "internalType": "uint256",
          "name": "",
          "type": "uint256"
        }
      ],
      "stateMutability": "view",
      "type": "function"
    },
    {
      "inputs": [
        {
          "internalType": "uint256",
          "name": "_prevID",
          "type": "uint256"
        },
        {
          "internalType": "uint256",
          "name": "_nextID",
          "type": "uint256"
        },
        {
          "internalType": "address",
          "name": "_voter",
          "type": "address"
        },
        {
          "internalType": "uint256",
          "name": "_numTokens",
          "type": "uint256"
        }
      ],
      "name": "validPosition",
      "outputs": [
        {
          "internalType": "bool",
          "name": "APPROVED",
          "type": "bool"
        }
      ],
      "stateMutability": "view",
      "type": "function"
    },
    {
      "inputs": [
        {
          "internalType": "uint256",
          "name": "_numTokens",
          "type": "uint256"
        }
      ],
      "name": "withdrawVotingRights",
      "outputs": [],
      "stateMutability": "nonpayable",
      "type": "function"
    }
  ],
  "bytecode": "0x6080604052678ac7230489e8000060058190556802b5e3af16b18800006006819055600791909155600855603c6009556000600f819055601081905560118190556012819055601b80546001600160a01b0319167314f52f3fc010ab6ca81568d4a6794d5eab3c6155179055601c819055601d553480156200008057600080fd5b50604051620063bf380380620063bf833981016040819052620000a39162000157565b620000b7620000b162000103565b62000107565b601f80546001600160a01b0319166001600160a01b03929092169190911790556000601081905560115568056bc75e2d631000006001908155600255601e600381905560045562000187565b3390565b600080546001600160a01b038381166001600160a01b0319831681178455604051919092169283917f8be0079c531659141344cd1fd0a4f28419497f9722a3daafe3b4186f6b6457e09190a35050565b60006020828403121562000169578081fd5b81516001600160a01b038116811462000180578182fd5b9392505050565b61622880620001976000396000f3fe608060405234801561001057600080fd5b50600436106104cd5760003560e01c8063821aa8c011610283578063cb1c2b5c1161015c578063e798a7da116100ce578063f343894611610092578063f343894614610a27578063f443d5b714610a3a578063f716596d14610a42578063f721de4a14610a4a578063fc0c546a14610a5d578063fca4956314610a65576104cd565b8063e798a7da146109c8578063e7b1d43c146109db578063e8e9b6f9146109ee578063ed8becfa14610a01578063f2fde38b14610a14576104cd565b8063d901402b11610120578063d901402b14610961578063d9548e5314610974578063dd61868214610987578063df05368e1461099a578063e44c974b146109ad578063e7805f9e146109c0576104cd565b8063cb1c2b5c1461090d578063cba3793814610915578063d138209214610928578063d37a4db21461093b578063d822ce011461094e576104cd565b8063aa7ca464116101f5578063b43bd069116101b9578063b43bd0691461089b578063b8f011b3146108ae578063c47c4bc2146108c1578063c4bea2cb146108d4578063c4e4f82a146108e7578063c7c063fb146108fa576104cd565b8063aa7ca46414610865578063aacc5a1714610878578063ab43e78d14610880578063b1a2e0be14610888578063b1cf4a7e1461059b576104cd565b80639b7e0180116102475780639b7e0180146107fe5780639fc9c52f14610811578063a1103f3714610824578063a25236fe14610837578063a4439dc51461084a578063a511dba01461085d576104cd565b8063821aa8c01461079d57806383cc6ef2146107b05780638c89d027146107b85780638da5cb5b146107e357806397603560146107eb576104cd565b8063427fa1d2116103b5578063667bf0f811610327578063796b89b9116102eb578063796b89b9146107345780637a34da671461073c5780637ce1c4d4146107445780637f97e8361461074c5780637fabe35b1461075f578063819b02931461078a576104cd565b8063667bf0f8146106f65780636b2d95d4146106fe578063715018a61461071157806371880b1b146107195780637827e5491461072c576104cd565b8063579db71c11610379578063579db71c1461069857806358002158146106b8578063590785b1146106cb5780635fd87909146106de5780636277bf65146106e657806362b7e941146106ee576104cd565b8063427fa1d214610644578063441c77c014610657578063494031831461066a5780634d8842811461067d57806351912f2914610690576104cd565b80631b8550441161044e578063313066ee11610412578063313066ee146105fe57806332ac1ba2146106065780633538af821461061957806337d5f2381461062c57806339e7357c146106345780633ad2131f1461063c576104cd565b80631b8550441461059b578063226ed300146105ae578063275c2590146105ce57806329a47bc7146105d65780632c052031146105eb576104cd565b80630772ca9c116104955780630772ca9c1461053e5780630b96c5b0146105465780630e6661a71461056b5780630e670feb1461057357806319d903461461057b576104cd565b806302fa9c68146104d2578063035fbb55146104e757806304dbcda7146104fa578063050eb2eb14610518578063053e71a61461052b575b600080fd5b6104e56104e0366004614dbd565b610a78565b005b6104e56104f5366004615073565b610afe565b610502610df0565b60405161050f919061519b565b60405180910390f35b6104e5610526366004614d48565b610df6565b610502610539366004614fed565b610e57565b610502610ebd565b610559610554366004614fed565b610ec3565b60405161050f96959493929190615244565b6105026110a0565b6105026110a6565b61058e610589366004614fed565b6110ac565b60405161050f91906151e2565b6105026105a9366004615016565b611437565b6105c16105bc366004614fed565b61146a565b60405161050f9190615239565b6104e56114b2565b6105de611589565b60405161050f91906151ce565b6105026105f9366004614d8b565b611598565b610502611735565b610502610614366004614fed565b61173b565b6105de610627366004614fed565b61175f565b610502611789565b61050261178f565b6105026117ac565b610502610652366004614d48565b6117b2565b6105c1610665366004614fed565b611852565b6105c1610678366004614fed565b6118ac565b6104e561068b366004614d48565b611b30565b6105de611b91565b6106ab6106a6366004614d48565b611ba0565b60405161050f91906151f5565b6104e56106c6366004614fed565b611c0c565b6104e56106d9366004614fed565b611c50565b6105026120ec565b6105026120f2565b6105026120f8565b6104e56120fe565b61050261070c366004614d48565b6124a8565b6104e56124b7565b610502610727366004614fed565b612502565b61050261253f565b610502612545565b6105de612549565b610502612558565b6105c161075a366004614d62565b61255e565b61077261076d366004614fed565b6125b1565b60405161050f9c9b9a99989796959493929190615fec565b6105c1610798366004615037565b612617565b6105de6107ab366004614fed565b612658565b6105de612668565b6107cb6107c6366004614d48565b612677565b60405161050f9c9b9a99989796959493929190615f3e565b6105de612776565b6104e56107f9366004614fed565b612785565b61050261080c366004614d62565b612934565b6104e561081f366004614eba565b612965565b610502610832366004614d62565b6129b7565b6104e5610845366004614fed565b6129cc565b6105c1610858366004614fed565b612acd565b610502612b0f565b6105c1610873366004614d62565b612b15565b610502612b68565b6105de612c1d565b6105c1610896366004614d48565b612c2c565b6105026108a9366004614d8b565b612dbb565b6106ab6108bc366004615016565b612ea7565b6104e56108cf366004614d48565b613008565b6104e56108e2366004615016565b613069565b6105026108f5366004614fed565b61349d565b610502610908366004614d48565b6134da565b6105026134ec565b610502610923366004614f0c565b6134f2565b610502610936366004614d62565b6137f8565b6104e5610949366004614e25565b61388d565b6105de61095c366004614d62565b613948565b61050261096f366004614d62565b613980565b6105c1610982366004614fed565b6139c5565b6104e5610995366004614d48565b6139ca565b6104e56109a8366004614d48565b613a2b565b6106ab6109bb366004614fed565b613a8c565b610502613b05565b6105c16109d6366004614d48565b613b0b565b6104e56109e9366004614fed565b613b25565b6104e56109fc366004614fed565b613c61565b61058e610a0f366004614fed565b613ca5565b6104e5610a22366004614d48565b614023565b610502610a35366004614d48565b614094565b610502614135565b6104e561413b565b6105c1610a58366004614fed565b6142e0565b6105de6142f5565b610502610a73366004614d48565b614304565b828114610a8457600080fd5b60005b83811015610af757610ae5858583818110610ab257634e487b7160e01b600052603260045260246000fd5b90506020020135848484818110610ad957634e487b7160e01b600052603260045260246000fd5b90506020020135613069565b80610aef81616181565b915050610a87565b5050505050565b610b06614450565b610b0f83611852565b610b345760405162461bcd60e51b8152600401610b2b90615bf1565b60405180910390fd5b336000908152600a6020908152604080832086845290915290205460ff16610b6e5760405162461bcd60e51b8152600401610b2b9061580a565b336000908152600b6020908152604080832086845290915290205460ff1615610ba95760405162461bcd60e51b8152600401610b2b906157c4565b610bb33384613980565b8282604051602001610bc69291906151c0565b6040516020818303038152906040528051906020012014610bf95760405162461bcd60e51b8152600401610b2b9061548d565b6000610c0533856137f8565b90508260011415610c3c576000848152601e602052604081206007018054839290610c319084906160b4565b90915550610c639050565b6000848152601e602052604081206008018054839290610c5d9084906160b4565b90915550505b336000908152600d60205260409081902090516301039dfd60e11b815273__$85afbab79b2b776d70bef879a32ed56424$__916302073bfa91610cab919088906004016151c0565b60006040518083038186803b158015610cc357600080fd5b505af4158015610cd7573d6000803e3d6000fd5b5050336000818152600b602090815260408083208a84528252808320805460ff19166001908117909155600c8352818420948452938252808320899055601382528083206003808201548552601e90935292200154909350610d3a9250906145aa565b600382810180546000908152601e6020526040808220840194909455600885018054600160ff199182168117909255600487018054909116909117905590548152919091200154610d8e57610d8e85611c50565b6000858152601e602052604090819020600781015460089091015491513392879289927f0867b5027231dcbf37614eaad07d667b9febaf9fdf483f488229b1f140bb074892610de1928992909190615fd6565b60405180910390a45050505050565b60065481565b610dfe6145b6565b6001600160a01b0316610e0f612776565b6001600160a01b031614610e355760405162461bcd60e51b8152600401610b2b90615a79565b602280546001600160a01b0319166001600160a01b0392909216919091179055565b6000610e628261146a565b610e7e5760405162461bcd60e51b8152600401610b2b90615883565b610e87826118ac565b15610ea457506000818152601e6020526040902060070154610eb8565b506000818152601e60205260409020600801545b919050565b60115481565b601460205260009081526040902080548190610ede90616146565b80601f0160208091040260200160405190810160405280929190818152602001828054610f0a90616146565b8015610f575780601f10610f2c57610100808354040283529160200191610f57565b820191906000526020600020905b815481529060010190602001808311610f3a57829003601f168201915b505050506001830154600284015460038501805494956001600160a01b039093169491935090610f8690616146565b80601f0160208091040260200160405190810160405280929190818152602001828054610fb290616146565b8015610fff5780601f10610fd457610100808354040283529160200191610fff565b820191906000526020600020905b815481529060010190602001808311610fe257829003601f168201915b50505050509080600601805461101490616146565b80601f016020809104026020016040519081016040528092919081815260200182805461104090616146565b801561108d5780601f106110625761010080835404028352916020019161108d565b820191906000526020600020905b81548152906001019060200180831161107057829003601f168201915b5050506007909301549192505060ff1686565b60105481565b60075481565b60606110b7826142e0565b6110d35760405162461bcd60e51b8152600401610b2b90615949565b6000828152601e6020908152604080832081516101c081018352815481526001820154938101939093526002808201549284019290925260038101546060840152600481015460ff808216151560808601526101008083048216151560a0870152620100009092048116151560c0860152600583015460e086015260068301549185019190915260078201546101208501526008820154610140850152600982015491926101608501929091169081111561119e57634e487b7160e01b600052602160045260246000fd5b60028111156111bd57634e487b7160e01b600052602160045260246000fd5b8152602001600a8201805480602002602001604051908101604052809291908181526020016000905b8282101561129257838290600052602060002001805461120590616146565b80601f016020809104026020016040519081016040528092919081815260200182805461123190616146565b801561127e5780601f106112535761010080835404028352916020019161127e565b820191906000526020600020905b81548152906001019060200180831161126157829003601f168201915b5050505050815260200190600101906111e6565b505050508152602001600b82018054806020026020016040519081016040528092919081815260200182805480156112e957602002820191906000526020600020905b8154815260200190600101908083116112d5575b5050509190925250505060408181015182518251600580825260c082019094529394509092909160009190816020015b606081526020019060019003908161131957905050905060005b8381101561142d57845160009061134b9083906160b4565b60008181526014602052604081206003018054929350909161136c90616146565b80601f016020809104026020016040519081016040528092919081815260200182805461139890616146565b80156113e55780601f106113ba576101008083540402835291602001916113e5565b820191906000526020600020905b8154815290600101906020018083116113c857829003601f168201915b505050505090508084848151811061140d57634e487b7160e01b600052603260045260246000fd5b60200260200101819052505050808061142590616181565b915050611333565b5095945050505050565b6000828260405160200161144c9291906151c0565b60405160208183030381529060405280519060200120905092915050565b6000611475826142e0565b6114915760405162461bcd60e51b8152600401610b2b90615e38565b6000828152601e60205260409020600601546114ac906139c5565b92915050565b6114ba614450565b336000908152601360205260409020600881015460ff1615156001146114f25760405162461bcd60e51b8152600401610b2b906156f1565b60006114fc612545565b9050611507336145ba565b600182018054336001600160a01b03199182168117909255600284018054909116821790556007830182905560088301805460ff19908116909155600a8401805490911690556040517f9dadcedba048e92b943ea1c5861cee1df63a566d7f795869c004780c1c698e2b9061157d90849061519b565b60405180910390a25050565b6021546001600160a01b031681565b6000806115a4856117b2565b905060006115b286836137f8565b90505b811561172a576115c586836137f8565b9050848111611682578382141561167a576001600160a01b0386166000908152600d60205260409081902090516301c39b2b60e11b815273__$85afbab79b2b776d70bef879a32ed56424$__91630387365691611627919086906004016151c0565b60206040518083038186803b15801561163f57600080fd5b505af4158015611653573d6000803e3d6000fd5b505050506040513d601f19601f820116820180604052508101906116779190615005565b91505b50905061172e565b6001600160a01b0386166000908152600d60205260409081902090516301c39b2b60e11b815273__$85afbab79b2b776d70bef879a32ed56424$__916303873656916116d3919086906004016151c0565b60206040518083038186803b1580156116eb57600080fd5b505af41580156116ff573d6000803e3d6000fd5b505050506040513d601f19601f820116820180604052508101906117239190615005565b91506115b5565b5090505b9392505050565b600f5481565b6000818152601e602052604081206008810154600790910154829161172e916160b4565b6018818154811061176f57600080fd5b6000918252602090912001546001600160a01b0316905081565b60125481565b60405160009080602081848060185afa6117a557fe5b5051919050565b60095481565b6001600160a01b0381166000908152600d602052604080822090516301c39b2b60e11b815273__$85afbab79b2b776d70bef879a32ed56424$__91630387365691611802919085906004016151c0565b60206040518083038186803b15801561181a57600080fd5b505af415801561182e573d6000803e3d6000fd5b505050506040513d601f19601f820116820180604052508101906114ac9190615005565b600061185d826142e0565b6118795760405162461bcd60e51b8152600401610b2b90615949565b6000828152601e6020526040902060060154611894906139c5565b1580156114ac57506118a582612acd565b1592915050565b60006118b78261146a565b6118d35760405162461bcd60e51b8152600401610b2b90615883565b6000828152601e6020908152604080832081516101c081018352815481526001820154938101939093526002808201549284019290925260038101546060840152600481015460ff808216151560808601526101008083048216151560a0870152620100009092048116151560c0860152600583015460e086015260068301549185019190915260078201546101208501526008820154610140850152600982015491926101608501929091169081111561199e57634e487b7160e01b600052602160045260246000fd5b60028111156119bd57634e487b7160e01b600052602160045260246000fd5b8152602001600a8201805480602002602001604051908101604052809291908181526020016000905b82821015611a92578382906000526020600020018054611a0590616146565b80601f0160208091040260200160405190810160405280929190818152602001828054611a3190616146565b8015611a7e5780601f10611a5357610100808354040283529160200191611a7e565b820191906000526020600020905b815481529060010190602001808311611a6157829003601f168201915b5050505050815260200190600101906119e6565b505050508152602001600b8201805480602002602001604051908101604052809291908181526020018280548015611ae957602002820191906000526020600020905b815481526020019060010190808311611ad5575b5050505050815250509050806101400151816101200151611b0a91906160b4565b600954611b1791906160e0565b610120820151611b289060646160e0565b119392505050565b611b386145b6565b6001600160a01b0316611b49612776565b6001600160a01b031614611b6f5760405162461bcd60e51b8152600401610b2b90615a79565b601b80546001600160a01b0319166001600160a01b0392909216919091179055565b6022546001600160a01b031681565b6001600160a01b038116600090815260156020908152604091829020805483518184028101840190945280845260609392830182828015611c0057602002820191906000526020600020905b815481526020019060010190808311611bec575b50505050509050919050565b611c146145b6565b6001600160a01b0316611c25612776565b6001600160a01b031614611c4b5760405162461bcd60e51b8152600401610b2b90615a79565b600455565b611c598161146a565b611c755760405162461bcd60e51b8152600401610b2b90615510565b6000611c80826118ac565b6000838152601a6020908152604080832080548251818502810185019093528083529495509293909291830182828015611ce357602002820191906000526020600020905b81546001600160a01b03168152600190910190602001808311611cc5575b5050505050905060005b815181101561207f576000828281518110611d1857634e487b7160e01b600052603260045260246000fd5b6020908102919091018101516000878152600c835260408082206001600160a01b0384168352845280822054600b85528183208a845290945290205490925060ff168015611ef5576001600160a01b0383166000908152601360205260409020600401805460ff19166001908117909155861515148015611d995750816001145b80611dae575085158015611dae575081600114155b15611ef557602154600854604051630db6cc8560e11b81526001600160a01b0390921691631b6d990a91611de6918790600401615fb8565b602060405180830381600087803b158015611e0057600080fd5b505af1158015611e14573d6000803e3d6000fd5b505050506040513d601f19601f82011682018060405250810190611e389190614eec565b611e545760405162461bcd60e51b8152600401610b2b906158b1565b602254600654604051633832942560e21b81526001600160a01b039092169163e0ca509491611e87918790600401615f27565b602060405180830381600087803b158015611ea157600080fd5b505af1158015611eb5573d6000803e3d6000fd5b505050506040513d601f19601f82011682018060405250810190611ed99190614eec565b611ef55760405162461bcd60e51b8152600401610b2b906156a2565b85156120695760215460085460008981526014602052604090819020600101549051630db6cc8560e11b81526001600160a01b0393841693631b6d990a93611f44939092911690600401615fb8565b602060405180830381600087803b158015611f5e57600080fd5b505af1158015611f72573d6000803e3d6000fd5b505050506040513d601f19601f82011682018060405250810190611f969190614eec565b611fb25760405162461bcd60e51b8152600401610b2b90615d8e565b60225460065460008981526014602052604090819020600101549051633832942560e21b81526001600160a01b039384169363e0ca509493611ffb939092911690600401615f27565b602060405180830381600087803b15801561201557600080fd5b505af1158015612029573d6000803e3d6000fd5b505050506040513d601f19601f8201168201806040525081019061204d9190614eec565b6120695760405162461bcd60e51b8152600401610b2b90615ce2565b505050808061207790616181565b915050611ced565b50601d5461208e906001614616565b601d5560008381526014602052604090819020600181015491516001600160a01b03909216917f43916c3ae75995d24cc89b466ed08e6dba74d325f7957f9b37b05f150e12918e916120df916152f4565b60405180910390a2505050565b60045481565b60055481565b60025481565b601d546000908152601e602052604090206004015460ff166121325760405162461bcd60e51b8152600401610b2b90615b9b565b601d546000908152601e602052604090206004015462010000900460ff161561216d5760405162461bcd60e51b8152600401610b2b906159ae565b601854600090612196906064906121859060056160e0565b61218f91906160cc565b6001614622565b601854601d546000908152601e602052604081206003908101849055546004549394509192906121c64284614616565b905060006121d48284614616565b601d80546000908152601e60205260408082206005018690558254825280822060060184905591548152908120600401805462ff00001916620100001790559091506122208787612ea7565b9050600081516001600160401b0381111561224b57634e487b7160e01b600052604160045260246000fd5b604051908082528060200260200182016040528015612274578160200160208202803683370190505b50905060005b82518110156123335760188382815181106122a557634e487b7160e01b600052603260045260246000fd5b6020026020010151815481106122cb57634e487b7160e01b600052603260045260246000fd5b9060005260206000200160009054906101000a90046001600160a01b031682828151811061230957634e487b7160e01b600052603260045260246000fd5b6001600160a01b03909216602092830291909101909101528061232b81616181565b91505061227a565b5060005b825181101561249d57600082828151811061236257634e487b7160e01b600052603260045260246000fd5b6020908102919091018101516001600160a01b03811660008181526013845260408082206019805460018181019092557f944998273e477b495144fb8794c914197f3ccb46be2900f4698fd0ef743c96950180546001600160a01b03199081168717909155601d548552601a885292842080549182018155845295909220909401805490941690911790925585519092506124249086908590811061241757634e487b7160e01b600052603260045260246000fd5b6020026020010151614638565b601d5460038083019190915560048201805460ff19169055600f54612448916160b4565b6005820155601d546040517fe4ee2dfabe57cee15e3f558890b20455f54c1fa0718e5276faad70a6500e6b8c906124809085906151ce565b60405180910390a25050808061249590616181565b915050612337565b505050505050505050565b60006114ac82610936846117b2565b6124bf6145b6565b6001600160a01b03166124d0612776565b6001600160a01b0316146124f65760405162461bcd60e51b8152600401610b2b90615a79565b6125006000614712565b565b600061250d826142e0565b6125295760405162461bcd60e51b8152600401610b2b90615949565b506000908152601e602052604090206006015490565b60085481565b4290565b6023546001600160a01b031681565b601c5481565b6000612569826142e0565b6125855760405162461bcd60e51b8152600401610b2b90615949565b506001600160a01b03919091166000908152600a60209081526040808320938352929052205460ff1690565b601e602052600090815260409020805460018201546002830154600384015460048501546005860154600687015460078801546008890154600990990154979896979596949560ff8086169661010087048216966201000090048216959493929091168c565b60008061262484876137f8565b8310159050600061263585876137f8565b84111580612641575085155b905081801561264d5750805b979650505050505050565b6019818154811061176f57600080fd5b6020546001600160a01b031681565b601360205260009081526040902080546001820154600283015460038401546004850154600586015460068701546007880154600889015460098a018054999a6001600160a01b03998a169a9990981698969760ff96871697959694959394909216926126e390616146565b80601f016020809104026020016040519081016040528092919081815260200182805461270f90616146565b801561275c5780601f106127315761010080835404028352916020019161275c565b820191906000526020600020905b81548152906001019060200180831161273f57829003601f168201915b50505050600a830154600b90930154919260ff169190508c565b6000546001600160a01b031690565b60016000828152601e602052604090206009015460ff1660028111156127bb57634e487b7160e01b600052602160045260246000fd5b146127d85760405162461bcd60e51b8152600401610b2b906153d5565b336000908152600d60205260409081902090516306120d1f60e31b815273__$85afbab79b2b776d70bef879a32ed56424$__9163309068f891612820919085906004016151c0565b60206040518083038186803b15801561283857600080fd5b505af415801561284c573d6000803e3d6000fd5b505050506040513d601f19601f820116820180604052508101906128709190614eec565b61288c5760405162461bcd60e51b8152600401610b2b906155c4565b336000908152600d60205260409081902090516301039dfd60e11b815273__$85afbab79b2b776d70bef879a32ed56424$__916302073bfa916128d4919085906004016151c0565b60006040518083038186803b1580156128ec57600080fd5b505af4158015612900573d6000803e3d6000fd5b50506040513392508391507f402507661c8c8cb90e0a796450b8bdd28b6c516f05279c0cd29e84c344e1699a90600090a350565b6015602052816000526040600020818154811061295057600080fd5b90600052602060002001600091509150505481565b60005b81518110156129b3576129a182828151811061299457634e487b7160e01b600052603260045260246000fd5b6020026020010151612785565b806129ab81616181565b915050612968565b5050565b6000828260405160200161144c929190615179565b6020546040516304ada21f60e21b81526001600160a01b03909116906312b6887c906129fe9084903390600401615f27565b602060405180830381600087803b158015612a1857600080fd5b505af1158015612a2c573d6000803e3d6000fd5b505050506040513d601f19601f82011682018060405250810190612a509190614eec565b612a6c5760405162461bcd60e51b8152600401610b2b9061573c565b3360009081526016602052604081208054839290612a8b9084906160b4565b909155505060405133907ff7aaf024511d9982df8cd0d437c71c30106e6848cd1ba3d288d7a9c0e276aeda90612ac290849061519b565b60405180910390a250565b6000612ad8826142e0565b612af45760405162461bcd60e51b8152600401610b2b90615949565b6000828152601e60205260409020600501546118a5906139c5565b60105490565b6000612b20826142e0565b612b3c5760405162461bcd60e51b8152600401610b2b90615949565b506001600160a01b03919091166000908152600b60209081526040808320938352929052205460ff1690565b6000804241604051602001612b7d919061515c565b6040516020818303038152906040528051906020012060001c612ba091906160cc565b44612ba961178f565b604051602001612bb9919061519b565b60408051601f198184030181529190528051602090910120612bdb90426160b4565b612be591906160b4565b612bef91906160b4565b604051602001612bff919061519b565b60408051601f19818403018152919052805160209091012091505090565b601b546001600160a01b031681565b6001600160a01b03808216600090815260136020908152604080832081516101808101835281548152600182015486169381019390935260028101549094169082015260038301546060820152600483015460ff90811615156080830152600584015460a0830152600684015460c0830152600784015460e08301526008840154161515610100820152600983018054929384939091610120840191612cd190616146565b80601f0160208091040260200160405190810160405280929190818152602001828054612cfd90616146565b8015612d4a5780601f10612d1f57610100808354040283529160200191612d4a565b820191906000526020600020905b815481529060010190602001808311612d2d57829003601f168201915b5050509183525050600a82015460ff1615156020820152600b90910154604090910152610140810151909150612d925760405162461bcd60e51b8152600401610b2b90615c7e565b6080810151600090158015612dac5750600f548260a00151115b1561172e575060019392505050565b6000612dc68361146a565b612de25760405162461bcd60e51b8152600401610b2b90615621565b6001600160a01b0384166000908152600b6020908152604080832086845290915290205460ff16612e255760405162461bcd60e51b8152600401610b2b906158fe565b6000612e30846118ac565b612e3b576000612e3e565b60015b60ff16905060008184604051602001612e589291906151c0565b6040516020818303038152906040528051906020012090506000612e7c8787613980565b9050808214612e9d5760405162461bcd60e51b8152600401610b2b90615b1b565b61264d87876137f8565b606060018211612eb657600080fd5b818311158015612ec7575060018310155b612ed057600080fd5b6000826001600160401b03811115612ef857634e487b7160e01b600052604160045260246000fd5b604051908082528060200260200182016040528015612f21578160200160208202803683370190505b5090506000846001600160401b03811115612f4c57634e487b7160e01b600052604160045260246000fd5b604051908082528060200260200182016040528015612f75578160200160208202803683370190505b5090506000612f8b612f8684614762565b6147b8565b905060005b86811015612ffd57818181518110612fb857634e487b7160e01b600052603260045260246000fd5b6020026020010151838281518110612fe057634e487b7160e01b600052603260045260246000fd5b602090810291909101015280612ff581616181565b915050612f90565b509095945050505050565b6130106145b6565b6001600160a01b0316613021612776565b6001600160a01b0316146130475760405162461bcd60e51b8152600401610b2b90615a79565b602380546001600160a01b0319166001600160a01b0392909216919091179055565b613071614450565b61307a82612acd565b6130965760405162461bcd60e51b8152600401610b2b9061558d565b816130a033614304565b146130bd5760405162461bcd60e51b8152600401610b2b90615a0b565b600154336000908152601660205260409020548111156130ff57336000908152601660205260408120546130f29083906145aa565b90506130fd816129cc565b505b3360009081526016602052604090205481111561312e5760405162461bcd60e51b8152600401610b2b90615d31565b8261314b5760405162461bcd60e51b8152600401610b2b90615799565b816131685760405162461bcd60e51b8152600401610b2b90615859565b6000336000908152600d60205260408082209051631e0f232560e31b815273__$85afbab79b2b776d70bef879a32ed56424$__9163f0791928916131b1919086906004016151c0565b60206040518083038186803b1580156131c957600080fd5b505af41580156131dd573d6000803e3d6000fd5b505050506040513d601f19601f820116820180604052508101906132019190615005565b9050848114156132a657336000908152600d6020526040908190209051631e0f232560e31b815273__$85afbab79b2b776d70bef879a32ed56424$__9163f079192891613253919089906004016151c0565b60206040518083038186803b15801561326b57600080fd5b505af415801561327f573d6000803e3d6000fd5b505050506040513d601f19601f820116820180604052508101906132a39190615005565b90505b6132b282823386612617565b6132ce5760405162461bcd60e51b8152600401610b2b90615980565b336000908152600d602052604090819020905163524cfe5360e11b815273__$85afbab79b2b776d70bef879a32ed56424$__9163a499fca69161331a919086908a908790600401615f0c565b60006040518083038186803b15801561333257600080fd5b505af4158015613346573d6000803e3d6000fd5b50505050600061335633876129b7565b60408051808201825260098152686e756d546f6b656e7360b81b6020820152905163099b040f60e31b81529192509073__$0947e710b66d7779e1d561254425e1375a$__90634cd82078906133b690600e90869086908b90600401615e61565b60006040518083038186803b1580156133ce57600080fd5b505af41580156133e2573d6000803e3d6000fd5b505060405163099b040f60e31b815273__$0947e710b66d7779e1d561254425e1375a$__9250634cd82078915061342290600e9086908b90600401615eaf565b60006040518083038186803b15801561343a57600080fd5b505af415801561344e573d6000803e3d6000fd5b50505050336001600160a01b0316877f42864d9683ff5b12c3b2cc65d705af5aab104b03bc700b802f79e5c971ef08a18760405161348c919061519b565b60405180910390a350505050505050565b60006134a8826142e0565b6134c45760405162461bcd60e51b8152600401610b2b90615949565b506000908152601e602052604090206005015490565b60166020526000908152604090205481565b60015481565b60015433600090815260166020526040812054909190811115613537573360009081526016602052604081205461352a9083906145aa565b9050613535816129cc565b505b336000908152601660205260409020548111156135665760405162461bcd60e51b8152600401610b2b90615d31565b885189906135865760405162461bcd60e51b8152600401610b2b90615b64565b6010546135949060016160b4565b6010819055336000818152601560209081526040808320805460018101825590845292829020909201939093558051610100810182528d81528084019290925242828201528051601f8b0184900484028101840190915289815290916060830191908b908b9081908401838280828437600092018290525093855250505060208083018a905260408084018a9052606084018990526080909301829052601054825260148152919020825180519192613652928492909101906149fa565b506020828101516001830180546001600160a01b0319166001600160a01b03909216919091179055604083015160028301556060830151805161369b92600385019201906149fa565b50608082015180516136b7916004840191602090910190614a7e565b5060a082015180516136d3916005840191602090910190614ad7565b5060c082015180516136ef9160068401916020909101906149fa565b5060e082015160078201805460ff1916600183600281111561372157634e487b7160e01b600052602160045260246000fd5b021790555050601c546000908152601e602052604090209050613746600160056160ff565b8160020154101561377857600181600201600082825461376691906160b4565b9091555050601054600182015561379c565b60048101805461ff001960ff1990911660011716905561379661494c565b60105481555b336001600160a01b03166010547fb7b95e293993cd6c0c54a48cee487ef3dd8f51be568be962db90e7784af70dd18d8c8c8c6040516137de94939291906152a3565b60405180910390a350506010549998505050505050505050565b600073__$0947e710b66d7779e1d561254425e1375a$__6369810158600e61382086866129b7565b6040518363ffffffff1660e01b815260040161383d929190615edd565b60206040518083038186803b15801561385557600080fd5b505af4158015613869573d6000803e3d6000fd5b505050506040513d601f19601f8201168201806040525081019061172e9190615005565b84831461389957600080fd5b8481146138a557600080fd5b60005b8581101561393f5761392d8787838181106138d357634e487b7160e01b600052603260045260246000fd5b905060200201358686848181106138fa57634e487b7160e01b600052603260045260246000fd5b9050602002013585858581811061392157634e487b7160e01b600052603260045260246000fd5b90506020020135610afe565b8061393781616181565b9150506138a8565b50505050505050565b6017602052816000526040600020818154811061396457600080fd5b6000918252602090912001546001600160a01b03169150829050565b600073__$0947e710b66d7779e1d561254425e1375a$__6369810158600e6139a886866129b7565b6040518363ffffffff1660e01b815260040161383d929190615e91565b421190565b6139d26145b6565b6001600160a01b03166139e3612776565b6001600160a01b031614613a095760405162461bcd60e51b8152600401610b2b90615a79565b602180546001600160a01b0319166001600160a01b0392909216919091179055565b613a336145b6565b6001600160a01b0316613a44612776565b6001600160a01b031614613a6a5760405162461bcd60e51b8152600401610b2b90615a79565b602080546001600160a01b0319166001600160a01b0392909216919091179055565b606060018211613a9b57600080fd5b6000826001600160401b03811115613ac357634e487b7160e01b600052604160045260246000fd5b604051908082528060200260200182016040528015613aec578160200160208202803683370190505b5090506000613afd612f8683614762565b949350505050565b60035481565b50336000908152601360205260409020600a015460ff1690565b6000613b49613b33336124a8565b33600090815260166020526040902054906145aa565b905081811015613b6b5760405162461bcd60e51b8152600401610b2b90615c37565b602054604051630895993360e11b81526001600160a01b039091169063112b326690613b9d9085903390600401615f27565b602060405180830381600087803b158015613bb757600080fd5b505af1158015613bcb573d6000803e3d6000fd5b505050506040513d601f19601f82011682018060405250810190613bef9190614eec565b613c0b5760405162461bcd60e51b8152600401610b2b90615ddb565b3360009081526016602052604081208054849290613c2a9084906160ff565b909155505060405133907ffaeb7dbb9992397d26ea1944efd40c80b40f702faf69b46c67ad10aba68ccb799061157d90859061519b565b613c696145b6565b6001600160a01b0316613c7a612776565b6001600160a01b031614613ca05760405162461bcd60e51b8152600401610b2b90615a79565b600355565b6060613cb0826142e0565b613ccc5760405162461bcd60e51b8152600401610b2b90615949565b6000828152601e6020908152604080832081516101c081018352815481526001820154938101939093526002808201549284019290925260038101546060840152600481015460ff808216151560808601526101008083048216151560a0870152620100009092048116151560c0860152600583015460e0860152600683015491850191909152600782015461012085015260088201546101408501526009820154919261016085019290911690811115613d9757634e487b7160e01b600052602160045260246000fd5b6002811115613db657634e487b7160e01b600052602160045260246000fd5b8152602001600a8201805480602002602001604051908101604052809291908181526020016000905b82821015613e8b578382906000526020600020018054613dfe90616146565b80601f0160208091040260200160405190810160405280929190818152602001828054613e2a90616146565b8015613e775780601f10613e4c57610100808354040283529160200191613e77565b820191906000526020600020905b815481529060010190602001808311613e5a57829003601f168201915b505050505081526020019060010190613ddf565b505050508152602001600b8201805480602002602001604051908101604052809291908181526020018280548015613ee257602002820191906000526020600020905b815481526020019060010190808311613ece575b5050509190925250505060408181015182518251600580825260c082019094529394509092909160009190816020015b6060815260200190600190039081613f1257905050905060005b8381101561142d578451600090613f449083906160b4565b600081815260146020526040812080549293509091613f6290616146565b80601f0160208091040260200160405190810160405280929190818152602001828054613f8e90616146565b8015613fdb5780601f10613fb057610100808354040283529160200191613fdb565b820191906000526020600020905b815481529060010190602001808311613fbe57829003601f168201915b505050505090508084848151811061400357634e487b7160e01b600052603260045260246000fd5b60200260200101819052505050808061401b90616181565b915050613f2c565b61402b6145b6565b6001600160a01b031661403c612776565b6001600160a01b0316146140625760405162461bcd60e51b8152600401610b2b90615a79565b6001600160a01b0381166140885760405162461bcd60e51b8152600401610b2b90615547565b61409181614712565b50565b6001600160a01b0381166000908152601560209081526040808320805482518185028101850190935280835284938301828280156140f157602002820191906000526020600020905b8154815260200190600101908083116140dd575b50505050509050806001825161410791906160ff565b8151811061412557634e487b7160e01b600052603260045260246000fd5b6020026020010151915050919050565b601d5481565b614143614450565b336000908152601360205260409020600881015460ff16156141775760405162461bcd60e51b8152600401610b2b9061539e565b6000614181612545565b60015433600090815260166020526040902054919250908111156141c757336000908152601660205260408120546141ba9083906145aa565b90506141c5816129cc565b505b336000908152601660205260409020548111156141f65760405162461bcd60e51b8152600401610b2b90615426565b601880546001818101835560008390527fb13d2d76d1f4b7be834882e410b3e3a8afaf69f83600ae24db354391d2378d2e90910180546001600160a01b03191633179055905461424691906160ff565b835560018084018054336001600160a01b0319918216811790925560028601805490911690911790556007840183905560088401805460ff19169091179055600a83015460ff166142a757600a8301805460ff1916600117905542600b8401555b336001600160a01b03167f439d77b7534ec3108fc6143bd4fbabde0b9f2bb54f7b0730d1f70dd2135b765f836040516120df919061519b565b600081158015906114ac575050601054101590565b601f546001600160a01b031681565b6001600160a01b03808216600090815260136020908152604080832081516101808101835281548152600182015486169381019390935260028101549094169082015260038301546060820152600483015460ff90811615156080830152600584015460a0830152600684015460c0830152600784015460e083015260088401541615156101008201526009830180549293849390916101208401916143a990616146565b80601f01602080910402602001604051908101604052809291908181526020018280546143d590616146565b80156144225780601f106143f757610100808354040283529160200191614422565b820191906000526020600020905b81548152906001019060200180831161440557829003601f168201915b5050509183525050600a82015460ff1615156020820152600b90910154604090910152606001519392505050565b601b546001600160a01b03166144785760405162461bcd60e51b8152600401610b2b90615cb5565b601b546040516000916001600160a01b0316906144999033906024016151ce565b60408051601f198184030181529181526020820180516001600160e01b0316631f5ac9c560e11b179052516144ce91906151a4565b6000604051808303816000865af19150503d806000811461450b576040519150601f19603f3d011682016040523d82523d6000602084013e614510565b606091505b5050601b546040519192506000916001600160a01b03909116906145389033906024016151ce565b60408051601f198184030181529181526020820180516001600160e01b03166358563d2160e01b1790525161456d91906151a4565b6000604051808303816000865af19150503d8060008114610af7576040519150601f19603f3d011682016040523d82523d6000602084013e610af7565b600061172e82846160ff565b3390565b6001600160a01b0381166000908152601360205260409020600881015460ff1680156145ea5750600a81015460ff165b6146065760405162461bcd60e51b8152600401610b2b90615aae565b805461461181614638565b505050565b600061172e82846160b4565b6000818310614631578161172e565b5090919050565b60188054614648906001906160ff565b8154811061466657634e487b7160e01b600052603260045260246000fd5b600091825260209091200154601880546001600160a01b0390921691839081106146a057634e487b7160e01b600052603260045260246000fd5b9060005260206000200160006101000a8154816001600160a01b0302191690836001600160a01b0316021790555060188054806146ed57634e487b7160e01b600052603160045260246000fd5b600082815260209020810160001990810180546001600160a01b031916905501905550565b600080546001600160a01b038381166001600160a01b0319831681178455604051919092169283917f8be0079c531659141344cd1fd0a4f28419497f9722a3daafe3b4186f6b6457e09190a35050565b805160609060005b818110156147b0578084828151811061479357634e487b7160e01b600052603260045260246000fd5b6020908102919091010152806147a881616181565b91505061476a565b509192915050565b606060008251116147c857600080fd5b81518060005b81811015614943576000836147e1612b68565b87848151811061480157634e487b7160e01b600052603260045260246000fd5b602002602001015160405160200161481a9291906151c0565b6040516020818303038152906040528051906020012060001c61483d919061619c565b6148489060016160b4565b90506000866148586001846160ff565b8151811061487657634e487b7160e01b600052603260045260246000fd5b602002602001015190508660018661488e91906160ff565b815181106148ac57634e487b7160e01b600052603260045260246000fd5b6020026020010151876001846148c291906160ff565b815181106148e057634e487b7160e01b600052603260045260246000fd5b602090810291909101015280876148f86001886160ff565b8151811061491657634e487b7160e01b600052603260045260246000fd5b602090810291909101015261492c6001866160ff565b94505050808061493b90616181565b9150506147ce565b50929392505050565b6018546001111561496f5760405162461bcd60e51b8152600401610b2b9061566b565b601d546000908152601e602052604090206004015462010000900460ff161561499a5761499a6120fe565b6001600f60008282546149ad91906160b4565b925050819055506001601c60008282546149c791906160b4565b9091555050600f546040517f94d48a7342690f1233e3f4db70efa37c4f1f25f4d0397c353f3f15aecdeca5f490600090a2565b828054614a0690616146565b90600052602060002090601f016020900481019282614a285760008555614a6e565b82601f10614a4157805160ff1916838001178555614a6e565b82800160010185558215614a6e579182015b82811115614a6e578251825591602001919060010190614a53565b50614a7a929150614b11565b5090565b828054828255906000526020600020908101928215614acb579160200282015b82811115614acb5782518051614abb9184916020909101906149fa565b5091602001919060010190614a9e565b50614a7a929150614b26565b828054828255906000526020600020908101928215614a6e5791602002820182811115614a6e578251825591602001919060010190614a53565b5b80821115614a7a5760008155600101614b12565b80821115614a7a576000614b3a8282614b43565b50600101614b26565b508054614b4f90616146565b6000825580601f10614b615750614091565b601f0160209004906000526020600020908101906140919190614b11565b80356001600160a01b0381168114610eb857600080fd5b60008083601f840112614ba7578182fd5b5081356001600160401b03811115614bbd578182fd5b6020830191508360208083028501011115614bd757600080fd5b9250929050565b600082601f830112614bee578081fd5b81356020614c03614bfe83616085565b61605c565b82815281810190858301855b85811015614c3857614c26898684358b0101614cde565b84529284019290840190600101614c0f565b5090979650505050505050565b600082601f830112614c55578081fd5b81356020614c65614bfe83616085565b8281528181019085830183850287018401881015614c81578586fd5b855b85811015614c3857813584529284019290840190600101614c83565b60008083601f840112614cb0578182fd5b5081356001600160401b03811115614cc6578182fd5b602083019150836020828501011115614bd757600080fd5b600082601f830112614cee578081fd5b81356001600160401b03811115614d0757614d076161dc565b614d1a601f8201601f191660200161605c565b818152846020838601011115614d2e578283fd5b816020850160208301379081016020019190915292915050565b600060208284031215614d59578081fd5b61172e82614b7f565b60008060408385031215614d74578081fd5b614d7d83614b7f565b946020939093013593505050565b600080600060608486031215614d9f578081fd5b614da884614b7f565b95602085013595506040909401359392505050565b60008060008060408587031215614dd2578081fd5b84356001600160401b0380821115614de8578283fd5b614df488838901614b96565b90965094506020870135915080821115614e0c578283fd5b50614e1987828801614b96565b95989497509550505050565b60008060008060008060608789031215614e3d578182fd5b86356001600160401b0380821115614e53578384fd5b614e5f8a838b01614b96565b90985096506020890135915080821115614e77578384fd5b614e838a838b01614b96565b90965094506040890135915080821115614e9b578384fd5b50614ea889828a01614b96565b979a9699509497509295939492505050565b600060208284031215614ecb578081fd5b81356001600160401b03811115614ee0578182fd5b613afd84828501614c45565b600060208284031215614efd578081fd5b8151801515811461172e578182fd5b600080600080600080600060c0888a031215614f26578081fd5b87356001600160401b0380821115614f3c578283fd5b614f488b838c01614cde565b9850614f5660208b01614b7f565b975060408a0135915080821115614f6b578283fd5b614f778b838c01614c9f565b909750955060608a0135915080821115614f8f578283fd5b614f9b8b838c01614bde565b945060808a0135915080821115614fb0578283fd5b614fbc8b838c01614c45565b935060a08a0135915080821115614fd1578283fd5b50614fde8a828b01614cde565b91505092959891949750929550565b600060208284031215614ffe578081fd5b5035919050565b6000602082840312156117a5578081fd5b60008060408385031215615028578182fd5b50508035926020909101359150565b6000806000806080858703121561504c578182fd5b843593506020850135925061506360408601614b7f565b9396929550929360600135925050565b600080600060608486031215615087578081fd5b505081359360208301359350604090920135919050565b6000815180845260208085018081965082840281019150828601855b858110156150e45782840389526150d2848351615113565b988501989350908401906001016150ba565b5091979650505050505050565b6003811061510f57634e487b7160e01b600052602160045260246000fd5b9052565b6000815180845261512b816020860160208601616116565b601f01601f19169290920160200192915050565b600a8152690c6dedadad2e890c2e6d60b31b602082015260400190565b60609190911b6bffffffffffffffffffffffff1916815260140190565b60609290921b6bffffffffffffffffffffffff19168252601482015260340190565b90815260200190565b600082516151b6818460208701616116565b9190910192915050565b918252602082015260400190565b6001600160a01b0391909116815260200190565b60006020825261172e602083018461509e565b6020808252825182820181905260009190848201906040850190845b8181101561522d57835183529284019291840191600101615211565b50909695505050505050565b901515815260200190565b600060c0825261525760c0830189615113565b6001600160a01b038816602084015260408301879052828103606084015261527f8187615113565b905082810360808401526152938186615113565b91505061264d60a08301846150f1565b6000606082526152b66060830187615113565b8281036020840152848152848660208301378160208683010152601f19601f86011681019050602083820301604084015261264d602082018561509e565b600060208083528184548360028204905060018083168061531657607f831692505b85831081141561533457634e487b7160e01b87526022600452602487fd5b61534083878a0161519b565b81801561535457600181146153655761538f565b60ff1986168252878201965061538f565b61536e8b6160a8565b895b8681101561538957815484820152908501908901615370565b83019750505b50949998505050505050505050565b6020808252601c908201527f576f726b657220697320616c7265616479207265676973746572656400000000604082015260600190565b60208082526031908201527f676976656e204461746142617463682073686f756c6420626520415050524f5660408201527011510b08185b99081a5d081a5cc81b9bdd607a1b606082015260800190565b60208082526041908201527f576f726b657220686173206e6f7420656e6f75676820285f6e756d546f6b656e60408201527f732920696e206869732053706f745374616b6564546f6b656e42616c616e63656060820152600160fd1b608082015260a00190565b6020808252605c908201527f4e6f74207468652073616d6520766f7465207468616e2077686174207761732060408201527f636f6d6d697465642c20696d706f737369626c6520746f206d6174636820776960608201527f746820676976656e205f73616c742026205f766f74654f7074696f6e00000000608082015260a00190565b6020808252601a908201527f5f446174614261746368494420686173206e6f7420656e646564000000000000604082015260600190565b60208082526026908201527f4f776e61626c653a206e6577206f776e657220697320746865207a65726f206160408201526564647265737360d01b606082015260800190565b6020808252601e908201527f636f6d6d697420706572696f64206e6565647320746f206265206f70656e0000604082015260600190565b60208082526039908201527f646c6c4d61703a20646f6573206e6f7420636f696e7461696e205f446174614260408201527f61746368494420666f7220746865206d73672073656e64657200000000000000606082015260800190565b6020808252602a908201527f5f446174614261746368494420636865636b696e6720766f7465206d757374206040820152691a185d9948195b99195960b21b606082015260800190565b6020808252601a908201527f776f726b657273206c656e677468206973206e6f74203e3d2031000000000000604082015260600190565b6020808252602f908201527f636f756c64206e6f742072657761726420746f6b656e20696e2054726967676560408201526e3921b432b1b5a9b837ba161018973160891b606082015260800190565b6020808252602b908201527f576f726b6572206973206e6f7420617661696c61626c6520736f2063616e277460408201526a103ab73932b3b4b9ba32b960a91b606082015260800190565b6020808252603d908201527f436f756c64206e6f74207265717565737420656e6f75676820616c6c6f63617460408201527f6564207374616b652c2072657175657374566f74696e67526967687473000000606082015260800190565b60208082526011908201527005f446174614261746368494420213d203607c1b604082015260600190565b60208082526026908201527f557365722063616e206e6f742072657665616c207477696365206f6e2073616d6040820152656520766f746560d01b606082015260800190565b6020808252602f908201527f5573657220686173206e6f7420636f6d6d69746564206265666f72652c20746860408201526e1d5cc818d85b89dd081c995d99585b608a1b606082015260800190565b60208082526010908201526f05f7365637265744861736820213d20360841b604082015260600190565b60208082526014908201527311185d18481b5d5cdd081a185d9948195b99195960621b604082015260600190565b6020808252602d908201527f636f756c64206e6f74207265776172642052455020696e20547269676765724360408201526c6865636b53706f742c20312e6160981b606082015260800190565b6020808252602b908201527f75736572206d75737420686176652072657665616c656420696e20746869732060408201526a0ced2eccadc4084c2e8c6d60ab1b606082015260800190565b60208082526017908201527f5f4461746142617463684944206d757374206578697374000000000000000000604082015260600190565b6020808252601490820152733737ba1030903b30b634b2103837b9b4ba34b7b760611b604082015260600190565b6020808252603b908201527f43616e277420616c6c6f6361746520776f726b2c207468652063757272656e7460408201527f20626174636820697320616c726561647920616c6c6f63617465640000000000606082015260800190565b60208082526048908201527f55736572206e6565647320746f2068617665206265656e20616c6c6f6361746560408201527f64207468652063757272656e74206461746120626174636820746f20636f6d6d6060820152671a5d081bdb881a5d60c21b608082015260a00190565b6020808252818101527f4f776e61626c653a2063616c6c6572206973206e6f7420746865206f776e6572604082015260600190565b60208082526047908201527f72656d6f7665576f726b657246726f6d4163746976653a20576f726b6572206e60408201527f6565647320746f20626520617661696c61626c65206e6f7720616e64207265676060820152661a5cdd195c995960ca1b608082015260a00190565b60208082526029908201527f6765744e756d50617373696e67546f6b656e733a20686173686573206d75737460408201526808189948195c5d585b60ba1b606082015260800190565b6020808252601d908201527f66696c655f68617368206c656e677468206d75737420626520213d2030000000604082015260600190565b60208082526036908201527f43616e277420616c6c6f6361746520776f726b2c207468652063757272656e74604082015275206261746368206973206e6f7420636f6d706c65746560501b606082015260800190565b60208082526026908201527f52657665616c20706572696f64206e6f74206f70656e20666f7220746869732060408201526511185d18525160d21b606082015260800190565b60208082526027908201527f617661696c61626c65546f6b656e732073686f756c64206265203e3d205f6e756040820152666d546f6b656e7360c81b606082015260800190565b60208082526019908201527f557365722068617320746f206265207265676973746572656400000000000000604082015260600190565b6020808252601390820152720c081059191c995cdcc8139bdd0815985b1a59606a1b604082015260600190565b6020808252602f908201527f636f756c64206e6f742072657761726420746f6b656e20696e2054726967676560408201526e3921b432b1b5a9b837ba161019173160891b606082015260800190565b60208082526037908201527f75736572206d757374206861766520656e6f75676820766f74696e672072696760408201527f68747320616b6120616c6c6f6361746564207374616b65000000000000000000606082015260800190565b6020808252602d908201527f636f756c64206e6f74207265776172642052455020696e20547269676765724360408201526c6865636b53706f742c20322e6160981b606082015260800190565b6020808252603b908201527f436f756c64206e6f74207769746864726177566f74696e67526967687473207460408201527f68726f7567682050726f78795374616b654465616c6c6f636174650000000000606082015260800190565b6020808252600f908201526e11185d18481b5d5cdd08195e1a5cdd608a1b604082015260600190565b600085825284602083015260806040830152615e806080830185615113565b905082606083015295945050505050565b600083825282602083015260606040830152613afd6060830161513f565b600084825283602083015260806040830152615ecd6080830161513f565b9050826060830152949350505050565b9182526020820152606060408201819052600990820152686e756d546f6b656e7360b81b608082015260a00190565b93845260208401929092526040830152606082015260800190565b9182526001600160a01b0316602082015260400190565b60006101808e835260018060a01b03808f166020850152808e166040850152508b60608401528a151560808401528960a08401528860c08401528760e084015286151561010084015280610120840152615f9a81840187615113565b941515610140840152505061016001529a9950505050505050505050565b9182526001600160a01b031660208201526000604082015260600190565b9283526020830191909152604082015260600190565b6000610180820190508d82528c60208301528b60408301528a6060830152891515608083015288151560a083015287151560c08301528660e083015285610100830152846101208301528361014083015261604b6101608301846150f1565b9d9c50505050505050505050505050565b6040518181016001600160401b038111828210171561607d5761607d6161dc565b604052919050565b60006001600160401b0382111561609e5761609e6161dc565b5060209081020190565b60009081526020902090565b600082198211156160c7576160c76161b0565b500190565b6000826160db576160db6161c6565b500490565b60008160001904831182151516156160fa576160fa6161b0565b500290565b600082821015616111576161116161b0565b500390565b60005b83811015616131578181015183820152602001616119565b83811115616140576000848401525b50505050565b60028104600182168061615a57607f821691505b6020821081141561617b57634e487b7160e01b600052602260045260246000fd5b50919050565b6000600019821415616195576161956161b0565b5060010190565b6000826161ab576161ab6161c6565b500690565b634e487b7160e01b600052601160045260246000fd5b634e487b7160e01b600052601260045260246000fd5b634e487b7160e01b600052604160045260246000fdfea26469706673582212205c52c42cef27d1e7e2065b1e5ad16b1d4c29ebf746fcb749292f6467c0516d9d64736f6c63430008000033",
  "linkReferences": {
    "contracts/worksystems/DataSpotting.sol": {
      "AttributeStore": [
        {
          "length": 20,
          "start": 13598
        },
        {
          "length": 20,
          "start": 13706
        },
        {
          "length": 20,
          "start": 14739
        },
        {
          "length": 20,
          "start": 15131
        }
      ],
      "DLL": [
        {
          "length": 20,
          "start": 3609
        },
        {
          "length": 20,
          "start": 6037
        },
        {
          "length": 20,
          "start": 6209
        },
        {
          "length": 20,
          "start": 6512
        },
        {
          "length": 20,
          "start": 10638
        },
        {
          "length": 20,
          "start": 10818
        },
        {
          "length": 20,
          "start": 13087
        },
        {
          "length": 20,
          "start": 13249
        },
        {
          "length": 20,
          "start": 13444
        }
      ]
    }
  },
  "deployedLinkReferences": {
    "contracts/worksystems/DataSpotting.sol": {
      "AttributeStore": [
        {
          "length": 20,
          "start": 13191
        },
        {
          "length": 20,
          "start": 13299
        },
        {
          "length": 20,
          "start": 14332
        },
        {
          "length": 20,
          "start": 14724
        }
      ],
      "DLL": [
        {
          "length": 20,
          "start": 3202
        },
        {
          "length": 20,
          "start": 5630
        },
        {
          "length": 20,
          "start": 5802
        },
        {
          "length": 20,
          "start": 6105
        },
        {
          "length": 20,
          "start": 10231
        },
        {
          "length": 20,
          "start": 10411
        },
        {
          "length": 20,
          "start": 12680
        },
        {
          "length": 20,
          "start": 12842
        },
        {
          "length": 20,
          "start": 13037
        }
      ]
    }
  }
}