{
  "_format": "hh-sol-artifact-1",
  "contractName": "DataSpotting",
  "sourceName": "contracts/worksystems/DataSpotting.sol",
  "abi": [
    {
      "inputs": [
        {
          "internalType": "address",
          "name": "EXDT_token",
          "type": "address"
        }
      ],
      "stateMutability": "nonpayable",
      "type": "constructor"
    },
    {
      "anonymous": false,
      "inputs": [
        {
          "indexed": true,
          "internalType": "address",
          "name": "previousOwner",
          "type": "address"
        },
        {
          "indexed": true,
          "internalType": "address",
          "name": "newOwner",
          "type": "address"
        }
      ],
      "name": "OwnershipTransferred",
      "type": "event"
    },
    {
      "anonymous": false,
      "inputs": [
        {
          "indexed": true,
          "internalType": "uint256",
          "name": "epochNumber",
          "type": "uint256"
        }
      ],
      "name": "_NewEpoch",
      "type": "event"
    },
    {
      "anonymous": false,
      "inputs": [
        {
          "indexed": false,
          "internalType": "string",
          "name": "hash",
          "type": "string"
        },
        {
          "indexed": true,
          "internalType": "address",
          "name": "creator",
          "type": "address"
        }
      ],
      "name": "_SpotAccepted",
      "type": "event"
    },
    {
      "anonymous": false,
      "inputs": [
        {
          "indexed": true,
          "internalType": "uint256",
          "name": "DataID",
          "type": "uint256"
        },
        {
          "indexed": false,
          "internalType": "uint256",
          "name": "numTokens",
          "type": "uint256"
        },
        {
          "indexed": true,
          "internalType": "address",
          "name": "voter",
          "type": "address"
        }
      ],
      "name": "_SpotCheckCommitted",
      "type": "event"
    },
    {
      "anonymous": false,
      "inputs": [
        {
          "indexed": true,
          "internalType": "uint256",
          "name": "DataID",
          "type": "uint256"
        },
        {
          "indexed": false,
          "internalType": "uint256",
          "name": "numTokens",
          "type": "uint256"
        },
        {
          "indexed": false,
          "internalType": "uint256",
          "name": "votesFor",
          "type": "uint256"
        },
        {
          "indexed": false,
          "internalType": "uint256",
          "name": "votesAgainst",
          "type": "uint256"
        },
        {
          "indexed": true,
          "internalType": "uint256",
          "name": "choice",
          "type": "uint256"
        },
        {
          "indexed": true,
          "internalType": "address",
          "name": "voter",
          "type": "address"
        }
      ],
      "name": "_SpotCheckRevealed",
      "type": "event"
    },
    {
      "anonymous": false,
      "inputs": [
        {
          "indexed": true,
          "internalType": "uint256",
          "name": "DataID",
          "type": "uint256"
        },
        {
          "indexed": false,
          "internalType": "string",
          "name": "file_hash",
          "type": "string"
        },
        {
          "indexed": false,
          "internalType": "string",
          "name": "URL_domain",
          "type": "string"
        },
        {
          "indexed": false,
          "internalType": "string[]",
          "name": "tags",
          "type": "string[]"
        },
        {
          "indexed": true,
          "internalType": "address",
          "name": "sender",
          "type": "address"
        }
      ],
      "name": "_SpotSubmitted",
      "type": "event"
    },
    {
      "anonymous": false,
      "inputs": [
        {
          "indexed": true,
          "internalType": "uint256",
          "name": "DataID",
          "type": "uint256"
        },
        {
          "indexed": true,
          "internalType": "address",
          "name": "voter",
          "type": "address"
        }
      ],
      "name": "_TokensRescued",
      "type": "event"
    },
    {
      "anonymous": false,
      "inputs": [
        {
          "indexed": false,
          "internalType": "uint256",
          "name": "numTokens",
          "type": "uint256"
        },
        {
          "indexed": true,
          "internalType": "address",
          "name": "voter",
          "type": "address"
        }
      ],
      "name": "_VotingRightsGranted",
      "type": "event"
    },
    {
      "anonymous": false,
      "inputs": [
        {
          "indexed": false,
          "internalType": "uint256",
          "name": "numTokens",
          "type": "uint256"
        },
        {
          "indexed": true,
          "internalType": "address",
          "name": "voter",
          "type": "address"
        }
      ],
      "name": "_VotingRightsWithdrawn",
      "type": "event"
    },
    {
      "anonymous": false,
      "inputs": [
        {
          "indexed": true,
          "internalType": "uint256",
          "name": "batchID",
          "type": "uint256"
        },
        {
          "indexed": false,
          "internalType": "address",
          "name": "worker",
          "type": "address"
        }
      ],
      "name": "_WorkAllocated",
      "type": "event"
    },
    {
      "anonymous": false,
      "inputs": [
        {
          "indexed": true,
          "internalType": "address",
          "name": "worker",
          "type": "address"
        },
        {
          "indexed": false,
          "internalType": "uint256",
          "name": "timestamp",
          "type": "uint256"
        }
      ],
      "name": "_WorkerRegistered",
      "type": "event"
    },
    {
      "anonymous": false,
      "inputs": [
        {
          "indexed": true,
          "internalType": "address",
          "name": "worker",
          "type": "address"
        },
        {
          "indexed": false,
          "internalType": "uint256",
          "name": "timestamp",
          "type": "uint256"
        }
      ],
      "name": "_WorkerUnregistered",
      "type": "event"
    },
    {
      "inputs": [],
      "name": "AddressManager",
      "outputs": [
        {
          "internalType": "contract IAddressManager",
          "name": "",
          "type": "address"
        }
      ],
      "stateMutability": "view",
      "type": "function"
    },
    {
      "inputs": [],
      "name": "AllocateWork",
      "outputs": [],
      "stateMutability": "nonpayable",
      "type": "function"
    },
    {
      "inputs": [],
      "name": "AmIRegistered",
      "outputs": [
        {
          "internalType": "bool",
          "name": "passed",
          "type": "bool"
        }
      ],
      "stateMutability": "view",
      "type": "function"
    },
    {
      "inputs": [],
      "name": "COMMIT_ROUND_DURATION",
      "outputs": [
        {
          "internalType": "uint256",
          "name": "",
          "type": "uint256"
        }
      ],
      "stateMutability": "view",
      "type": "function"
    },
    {
      "inputs": [],
      "name": "ChecksNonce",
      "outputs": [
        {
          "internalType": "uint256",
          "name": "",
          "type": "uint256"
        }
      ],
      "stateMutability": "view",
      "type": "function"
    },
    {
      "inputs": [],
      "name": "CurrentWorkEpoch",
      "outputs": [
        {
          "internalType": "uint256",
          "name": "",
          "type": "uint256"
        }
      ],
      "stateMutability": "view",
      "type": "function"
    },
    {
      "inputs": [
        {
          "internalType": "uint256",
          "name": "",
          "type": "uint256"
        }
      ],
      "name": "DataBatch",
      "outputs": [
        {
          "internalType": "uint256",
          "name": "start_idx",
          "type": "uint256"
        },
        {
          "internalType": "uint256",
          "name": "end_idx",
          "type": "uint256"
        },
        {
          "internalType": "uint256",
          "name": "counter",
          "type": "uint256"
        },
        {
          "internalType": "uint256",
          "name": "unrevealed_workers",
          "type": "uint256"
        },
        {
          "internalType": "bool",
          "name": "complete",
          "type": "bool"
        },
        {
          "internalType": "bool",
          "name": "checked",
          "type": "bool"
        },
        {
          "internalType": "bool",
          "name": "allocated_to_work",
          "type": "bool"
        },
        {
          "internalType": "uint256",
          "name": "commitEndDate",
          "type": "uint256"
        },
        {
          "internalType": "uint256",
          "name": "revealEndDate",
          "type": "uint256"
        },
        {
          "internalType": "uint256",
          "name": "votesFor",
          "type": "uint256"
        },
        {
          "internalType": "uint256",
          "name": "votesAgainst",
          "type": "uint256"
        },
        {
          "internalType": "enum DataSpotting.DataSatus",
          "name": "status",
          "type": "uint8"
        }
      ],
      "stateMutability": "view",
      "type": "function"
    },
    {
      "inputs": [
        {
          "internalType": "uint256",
          "name": "_DataBatchID",
          "type": "uint256"
        }
      ],
      "name": "DataCommitEndDate",
      "outputs": [
        {
          "internalType": "uint256",
          "name": "commitEndDate",
          "type": "uint256"
        }
      ],
      "stateMutability": "view",
      "type": "function"
    },
    {
      "inputs": [
        {
          "internalType": "uint256",
          "name": "_DataBatchID",
          "type": "uint256"
        }
      ],
      "name": "DataEnded",
      "outputs": [
        {
          "internalType": "bool",
          "name": "ended",
          "type": "bool"
        }
      ],
      "stateMutability": "view",
      "type": "function"
    },
    {
      "inputs": [
        {
          "internalType": "uint256",
          "name": "_DataBatchID",
          "type": "uint256"
        }
      ],
      "name": "DataExists",
      "outputs": [
        {
          "internalType": "bool",
          "name": "exists",
          "type": "bool"
        }
      ],
      "stateMutability": "view",
      "type": "function"
    },
    {
      "inputs": [],
      "name": "DataNonce",
      "outputs": [
        {
          "internalType": "uint256",
          "name": "",
          "type": "uint256"
        }
      ],
      "stateMutability": "view",
      "type": "function"
    },
    {
      "inputs": [
        {
          "internalType": "uint256",
          "name": "_DataBatchID",
          "type": "uint256"
        }
      ],
      "name": "DataRevealEndDate",
      "outputs": [
        {
          "internalType": "uint256",
          "name": "revealEndDate",
          "type": "uint256"
        }
      ],
      "stateMutability": "view",
      "type": "function"
    },
    {
      "inputs": [
        {
          "internalType": "address",
          "name": "user_",
          "type": "address"
        }
      ],
      "name": "GetCurrentWork",
      "outputs": [
        {
          "internalType": "uint256",
          "name": "",
          "type": "uint256"
        }
      ],
      "stateMutability": "view",
      "type": "function"
    },
    {
      "inputs": [
        {
          "internalType": "address",
          "name": "user_",
          "type": "address"
        }
      ],
      "name": "IsNewWorkAvailable",
      "outputs": [
        {
          "internalType": "bool",
          "name": "",
          "type": "bool"
        }
      ],
      "stateMutability": "view",
      "type": "function"
    },
    {
      "inputs": [],
      "name": "MIN_PARTICIPANTS_FOR_VALIDITY",
      "outputs": [
        {
          "internalType": "uint256",
          "name": "",
          "type": "uint256"
        }
      ],
      "stateMutability": "view",
      "type": "function"
    },
    {
      "inputs": [],
      "name": "MIN_REP_Data",
      "outputs": [
        {
          "internalType": "uint256",
          "name": "",
          "type": "uint256"
        }
      ],
      "stateMutability": "view",
      "type": "function"
    },
    {
      "inputs": [],
      "name": "MIN_REP_REVEAL",
      "outputs": [
        {
          "internalType": "uint256",
          "name": "",
          "type": "uint256"
        }
      ],
      "stateMutability": "view",
      "type": "function"
    },
    {
      "inputs": [],
      "name": "MIN_REWARD_Data",
      "outputs": [
        {
          "internalType": "uint256",
          "name": "",
          "type": "uint256"
        }
      ],
      "stateMutability": "view",
      "type": "function"
    },
    {
      "inputs": [],
      "name": "MIN_REWARD_REVEAL",
      "outputs": [
        {
          "internalType": "uint256",
          "name": "",
          "type": "uint256"
        }
      ],
      "stateMutability": "view",
      "type": "function"
    },
    {
      "inputs": [],
      "name": "MIN_STAKE",
      "outputs": [
        {
          "internalType": "uint256",
          "name": "",
          "type": "uint256"
        }
      ],
      "stateMutability": "view",
      "type": "function"
    },
    {
      "inputs": [
        {
          "internalType": "address",
          "name": "",
          "type": "address"
        },
        {
          "internalType": "uint256",
          "name": "",
          "type": "uint256"
        }
      ],
      "name": "MasterWorkers",
      "outputs": [
        {
          "internalType": "address",
          "name": "",
          "type": "address"
        }
      ],
      "stateMutability": "view",
      "type": "function"
    },
    {
      "inputs": [],
      "name": "REVEAL_ROUND_DURATION",
      "outputs": [
        {
          "internalType": "uint256",
          "name": "",
          "type": "uint256"
        }
      ],
      "stateMutability": "view",
      "type": "function"
    },
    {
      "inputs": [],
      "name": "RegisterWorker",
      "outputs": [],
      "stateMutability": "nonpayable",
      "type": "function"
    },
    {
      "inputs": [],
      "name": "RepManager",
      "outputs": [
        {
          "internalType": "contract IRepManager",
          "name": "",
          "type": "address"
        }
      ],
      "stateMutability": "view",
      "type": "function"
    },
    {
      "inputs": [],
      "name": "RewardManager",
      "outputs": [
        {
          "internalType": "contract IRewardManager",
          "name": "",
          "type": "address"
        }
      ],
      "stateMutability": "view",
      "type": "function"
    },
    {
      "inputs": [],
      "name": "SPOT_CHECK_VOTE_QUORUM",
      "outputs": [
        {
          "internalType": "uint256",
          "name": "",
          "type": "uint256"
        }
      ],
      "stateMutability": "view",
      "type": "function"
    },
    {
      "inputs": [
        {
          "internalType": "string",
          "name": "file_hash",
          "type": "string"
        },
        {
          "internalType": "address",
          "name": "main_worker_account",
          "type": "address"
        },
        {
          "internalType": "string",
          "name": "URL_domain_",
          "type": "string"
        },
        {
          "internalType": "string[]",
          "name": "tags_",
          "type": "string[]"
        },
        {
          "internalType": "uint256[]",
          "name": "tags_id_",
          "type": "uint256[]"
        },
        {
          "internalType": "string",
          "name": "extra_",
          "type": "string"
        }
      ],
      "name": "SpotData",
      "outputs": [
        {
          "internalType": "uint256",
          "name": "Dataid_",
          "type": "uint256"
        }
      ],
      "stateMutability": "nonpayable",
      "type": "function"
    },
    {
      "inputs": [
        {
          "internalType": "address",
          "name": "",
          "type": "address"
        }
      ],
      "name": "SpotStakedTokenBalance",
      "outputs": [
        {
          "internalType": "uint256",
          "name": "",
          "type": "uint256"
        }
      ],
      "stateMutability": "view",
      "type": "function"
    },
    {
      "inputs": [
        {
          "internalType": "uint256",
          "name": "",
          "type": "uint256"
        }
      ],
      "name": "SpotsMapping",
      "outputs": [
        {
          "internalType": "string",
          "name": "ipfs_hash",
          "type": "string"
        },
        {
          "internalType": "address",
          "name": "author",
          "type": "address"
        },
        {
          "internalType": "uint256",
          "name": "timestamp",
          "type": "uint256"
        },
        {
          "internalType": "string",
          "name": "URL_domain",
          "type": "string"
        },
        {
          "internalType": "string",
          "name": "extra",
          "type": "string"
        },
        {
          "internalType": "enum DataSpotting.DataSatus",
          "name": "status",
          "type": "uint8"
        }
      ],
      "stateMutability": "view",
      "type": "function"
    },
    {
      "inputs": [],
      "name": "StakeManager",
      "outputs": [
        {
          "internalType": "contract IStakeManager",
          "name": "",
          "type": "address"
        }
      ],
      "stateMutability": "view",
      "type": "function"
    },
    {
      "inputs": [
        {
          "internalType": "uint256",
          "name": "_DataBatchID",
          "type": "uint256"
        }
      ],
      "name": "TriggerCheckSpottedData",
      "outputs": [],
      "stateMutability": "nonpayable",
      "type": "function"
    },
    {
      "inputs": [],
      "name": "UnregisterWorker",
      "outputs": [],
      "stateMutability": "nonpayable",
      "type": "function"
    },
    {
      "inputs": [],
      "name": "WorkersNonce",
      "outputs": [
        {
          "internalType": "uint256",
          "name": "",
          "type": "uint256"
        }
      ],
      "stateMutability": "view",
      "type": "function"
    },
    {
      "inputs": [
        {
          "internalType": "address",
          "name": "",
          "type": "address"
        }
      ],
      "name": "WorkersState",
      "outputs": [
        {
          "internalType": "uint256",
          "name": "array_idx",
          "type": "uint256"
        },
        {
          "internalType": "address",
          "name": "worker_address",
          "type": "address"
        },
        {
          "internalType": "address",
          "name": "master_address",
          "type": "address"
        },
        {
          "internalType": "uint256",
          "name": "allocated_work_batch",
          "type": "uint256"
        },
        {
          "internalType": "bool",
          "name": "has_completed_work",
          "type": "bool"
        },
        {
          "internalType": "uint256",
          "name": "work_epoch_deadline",
          "type": "uint256"
        },
        {
          "internalType": "uint256",
          "name": "last_worked_round",
          "type": "uint256"
        },
        {
          "internalType": "uint256",
          "name": "last_interaction_date",
          "type": "uint256"
        },
        {
          "internalType": "bool",
          "name": "is_available_now",
          "type": "bool"
        },
        {
          "internalType": "string",
          "name": "extra",
          "type": "string"
        },
        {
          "internalType": "bool",
          "name": "registered",
          "type": "bool"
        },
        {
          "internalType": "uint256",
          "name": "registration_date",
          "type": "uint256"
        }
      ],
      "stateMutability": "view",
      "type": "function"
    },
    {
      "inputs": [
        {
          "internalType": "address",
          "name": "_user",
          "type": "address"
        },
        {
          "internalType": "uint256",
          "name": "_DataBatchID",
          "type": "uint256"
        }
      ],
      "name": "attrUUID",
      "outputs": [
        {
          "internalType": "bytes32",
          "name": "UUID",
          "type": "bytes32"
        }
      ],
      "stateMutability": "pure",
      "type": "function"
    },
    {
      "inputs": [
        {
          "internalType": "uint256",
          "name": "",
          "type": "uint256"
        }
      ],
      "name": "availableWorkers",
      "outputs": [
        {
          "internalType": "address",
          "name": "",
          "type": "address"
        }
      ],
      "stateMutability": "view",
      "type": "function"
    },
    {
      "inputs": [
        {
          "internalType": "uint256",
          "name": "",
          "type": "uint256"
        }
      ],
      "name": "busyWorkers",
      "outputs": [
        {
          "internalType": "address",
          "name": "",
          "type": "address"
        }
      ],
      "stateMutability": "view",
      "type": "function"
    },
    {
      "inputs": [
        {
          "internalType": "uint256",
          "name": "_DataBatchID",
          "type": "uint256"
        }
      ],
      "name": "commitPeriodActive",
      "outputs": [
        {
          "internalType": "bool",
          "name": "active",
          "type": "bool"
        }
      ],
      "stateMutability": "view",
      "type": "function"
    },
    {
      "inputs": [
        {
          "internalType": "uint256",
          "name": "_DataBatchID",
          "type": "uint256"
        },
        {
          "internalType": "bytes32",
          "name": "_secretHash",
          "type": "bytes32"
        }
      ],
      "name": "commitSpotCheck",
      "outputs": [],
      "stateMutability": "nonpayable",
      "type": "function"
    },
    {
      "inputs": [
        {
          "internalType": "uint256[]",
          "name": "_DataBatchIDs",
          "type": "uint256[]"
        },
        {
          "internalType": "bytes32[]",
          "name": "_secretHashes",
          "type": "bytes32[]"
        }
      ],
      "name": "commitSpotChecks",
      "outputs": [],
      "stateMutability": "nonpayable",
      "type": "function"
    },
    {
      "inputs": [],
      "name": "current_batch_nounce",
      "outputs": [
        {
          "internalType": "uint256",
          "name": "",
          "type": "uint256"
        }
      ],
      "stateMutability": "view",
      "type": "function"
    },
    {
      "inputs": [
        {
          "internalType": "address",
          "name": "_voter",
          "type": "address"
        },
        {
          "internalType": "uint256",
          "name": "_DataBatchID",
          "type": "uint256"
        }
      ],
      "name": "didCommit",
      "outputs": [
        {
          "internalType": "bool",
          "name": "committed",
          "type": "bool"
        }
      ],
      "stateMutability": "view",
      "type": "function"
    },
    {
      "inputs": [
        {
          "internalType": "address",
          "name": "_voter",
          "type": "address"
        },
        {
          "internalType": "uint256",
          "name": "_DataBatchID",
          "type": "uint256"
        }
      ],
      "name": "didReveal",
      "outputs": [
        {
          "internalType": "bool",
          "name": "revealed",
          "type": "bool"
        }
      ],
      "stateMutability": "view",
      "type": "function"
    },
    {
      "inputs": [],
      "name": "getBlockTimestamp",
      "outputs": [
        {
          "internalType": "uint256",
          "name": "blocktimestamp",
          "type": "uint256"
        }
      ],
      "stateMutability": "view",
      "type": "function"
    },
    {
      "inputs": [
        {
          "internalType": "address",
          "name": "_voter",
          "type": "address"
        },
        {
          "internalType": "uint256",
          "name": "_DataBatchID",
          "type": "uint256"
        }
      ],
      "name": "getCommitHash",
      "outputs": [
        {
          "internalType": "bytes32",
          "name": "commitHash",
          "type": "bytes32"
        }
      ],
      "stateMutability": "view",
      "type": "function"
    },
    {
      "inputs": [
        {
          "internalType": "uint256",
          "name": "_DataBatchID",
          "type": "uint256"
        }
      ],
      "name": "getDomainsForBatch",
      "outputs": [
        {
          "internalType": "string[]",
          "name": "ipfs_hash_list",
          "type": "string[]"
        }
      ],
      "stateMutability": "view",
      "type": "function"
    },
    {
      "inputs": [
        {
          "internalType": "uint256",
          "name": "_voteOption",
          "type": "uint256"
        },
        {
          "internalType": "uint256",
          "name": "_salt",
          "type": "uint256"
        }
      ],
      "name": "getEncryptedHash",
      "outputs": [
        {
          "internalType": "bytes32",
          "name": "keccak256hash",
          "type": "bytes32"
        }
      ],
      "stateMutability": "view",
      "type": "function"
    },
    {
      "inputs": [
        {
          "internalType": "uint256",
          "name": "a",
          "type": "uint256"
        },
        {
          "internalType": "uint256",
          "name": "b",
          "type": "uint256"
        }
      ],
      "name": "getHash",
      "outputs": [
        {
          "internalType": "bytes32",
          "name": "keccak256hash",
          "type": "bytes32"
        }
      ],
      "stateMutability": "pure",
      "type": "function"
    },
    {
      "inputs": [
        {
          "internalType": "uint256",
          "name": "_DataBatchID",
          "type": "uint256"
        }
      ],
      "name": "getIPFShashesForBatch",
      "outputs": [
        {
          "internalType": "string[]",
          "name": "ipfs_hash_list",
          "type": "string[]"
        }
      ],
      "stateMutability": "view",
      "type": "function"
    },
    {
      "inputs": [
        {
          "internalType": "address",
          "name": "_voter",
          "type": "address"
        },
        {
          "internalType": "uint256",
          "name": "_numTokens",
          "type": "uint256"
        },
        {
          "internalType": "uint256",
          "name": "_DataBatchID",
          "type": "uint256"
        }
      ],
      "name": "getInsertPointForNumTokens",
      "outputs": [
        {
          "internalType": "uint256",
          "name": "prevNode",
          "type": "uint256"
        }
      ],
      "stateMutability": "view",
      "type": "function"
    },
    {
      "inputs": [],
      "name": "getLastDataId",
      "outputs": [
        {
          "internalType": "uint256",
          "name": "DataId",
          "type": "uint256"
        }
      ],
      "stateMutability": "view",
      "type": "function"
    },
    {
      "inputs": [
        {
          "internalType": "address",
          "name": "_voter",
          "type": "address"
        }
      ],
      "name": "getLastNode",
      "outputs": [
        {
          "internalType": "uint256",
          "name": "DataID",
          "type": "uint256"
        }
      ],
      "stateMutability": "view",
      "type": "function"
    },
    {
      "inputs": [
        {
          "internalType": "address",
          "name": "user",
          "type": "address"
        }
      ],
      "name": "getLastUserDataId",
      "outputs": [
        {
          "internalType": "uint256",
          "name": "DataId",
          "type": "uint256"
        }
      ],
      "stateMutability": "view",
      "type": "function"
    },
    {
      "inputs": [
        {
          "internalType": "address",
          "name": "_voter",
          "type": "address"
        }
      ],
      "name": "getLockedTokens",
      "outputs": [
        {
          "internalType": "uint256",
          "name": "numTokens",
          "type": "uint256"
        }
      ],
      "stateMutability": "view",
      "type": "function"
    },
    {
      "inputs": [
        {
          "internalType": "address",
          "name": "_voter",
          "type": "address"
        },
        {
          "internalType": "uint256",
          "name": "_DataBatchID",
          "type": "uint256"
        },
        {
          "internalType": "uint256",
          "name": "_salt",
          "type": "uint256"
        }
      ],
      "name": "getNumPassingTokens",
      "outputs": [
        {
          "internalType": "uint256",
          "name": "correctSpotChecks",
          "type": "uint256"
        }
      ],
      "stateMutability": "view",
      "type": "function"
    },
    {
      "inputs": [
        {
          "internalType": "address",
          "name": "_voter",
          "type": "address"
        },
        {
          "internalType": "uint256",
          "name": "_DataBatchID",
          "type": "uint256"
        }
      ],
      "name": "getNumTokens",
      "outputs": [
        {
          "internalType": "uint256",
          "name": "numTokens",
          "type": "uint256"
        }
      ],
      "stateMutability": "view",
      "type": "function"
    },
    {
      "inputs": [],
      "name": "getRandom",
      "outputs": [
        {
          "internalType": "uint256",
          "name": "",
          "type": "uint256"
        }
      ],
      "stateMutability": "view",
      "type": "function"
    },
    {
      "inputs": [],
      "name": "getSeed",
      "outputs": [
        {
          "internalType": "bytes32",
          "name": "addr",
          "type": "bytes32"
        }
      ],
      "stateMutability": "view",
      "type": "function"
    },
    {
      "inputs": [
        {
          "internalType": "uint256",
          "name": "_DataBatchID",
          "type": "uint256"
        }
      ],
      "name": "getTotalNumberOfSpotChecks",
      "outputs": [
        {
          "internalType": "uint256",
          "name": "vc",
          "type": "uint256"
        }
      ],
      "stateMutability": "view",
      "type": "function"
    },
    {
      "inputs": [
        {
          "internalType": "uint256",
          "name": "_DataBatchID",
          "type": "uint256"
        }
      ],
      "name": "getTotalNumberOfTokensForWinningOption",
      "outputs": [
        {
          "internalType": "uint256",
          "name": "numTokens",
          "type": "uint256"
        }
      ],
      "stateMutability": "view",
      "type": "function"
    },
    {
      "inputs": [
        {
          "internalType": "address",
          "name": "user",
          "type": "address"
        }
      ],
      "name": "getUserDatas",
      "outputs": [
        {
          "internalType": "uint256[]",
          "name": "user_Datas",
          "type": "uint256[]"
        }
      ],
      "stateMutability": "view",
      "type": "function"
    },
    {
      "inputs": [
        {
          "internalType": "uint256",
          "name": "_terminationDate",
          "type": "uint256"
        }
      ],
      "name": "isExpired",
      "outputs": [
        {
          "internalType": "bool",
          "name": "expired",
          "type": "bool"
        }
      ],
      "stateMutability": "view",
      "type": "function"
    },
    {
      "inputs": [
        {
          "internalType": "uint256",
          "name": "_DataBatchID",
          "type": "uint256"
        }
      ],
      "name": "isPassed",
      "outputs": [
        {
          "internalType": "bool",
          "name": "passed",
          "type": "bool"
        }
      ],
      "stateMutability": "view",
      "type": "function"
    },
    {
      "inputs": [
        {
          "internalType": "address",
          "name": "_worker",
          "type": "address"
        }
      ],
      "name": "isWorkerRegistered",
      "outputs": [
        {
          "internalType": "bool",
          "name": "passed",
          "type": "bool"
        }
      ],
      "stateMutability": "view",
      "type": "function"
    },
    {
      "inputs": [],
      "name": "last_checked_batch_nounce",
      "outputs": [
        {
          "internalType": "uint256",
          "name": "",
          "type": "uint256"
        }
      ],
      "stateMutability": "view",
      "type": "function"
    },
    {
      "inputs": [],
      "name": "owner",
      "outputs": [
        {
          "internalType": "address",
          "name": "",
          "type": "address"
        }
      ],
      "stateMutability": "view",
      "type": "function"
    },
    {
      "inputs": [
        {
          "internalType": "uint256",
          "name": "k",
          "type": "uint256"
        },
        {
          "internalType": "uint256",
          "name": "N",
          "type": "uint256"
        }
      ],
      "name": "random_selection",
      "outputs": [
        {
          "internalType": "uint256[]",
          "name": "",
          "type": "uint256[]"
        }
      ],
      "stateMutability": "view",
      "type": "function"
    },
    {
      "inputs": [],
      "name": "renounceOwnership",
      "outputs": [],
      "stateMutability": "nonpayable",
      "type": "function"
    },
    {
      "inputs": [
        {
          "internalType": "uint256",
          "name": "_numTokens",
          "type": "uint256"
        }
      ],
      "name": "requestVotingRights",
      "outputs": [],
      "stateMutability": "nonpayable",
      "type": "function"
    },
    {
      "inputs": [
        {
          "internalType": "uint256",
          "name": "_DataBatchID",
          "type": "uint256"
        }
      ],
      "name": "rescueTokens",
      "outputs": [],
      "stateMutability": "nonpayable",
      "type": "function"
    },
    {
      "inputs": [
        {
          "internalType": "uint256[]",
          "name": "_DataBatchIDs",
          "type": "uint256[]"
        }
      ],
      "name": "rescueTokensInMultipleDatas",
      "outputs": [],
      "stateMutability": "nonpayable",
      "type": "function"
    },
    {
      "inputs": [
        {
          "internalType": "uint256",
          "name": "_DataBatchID",
          "type": "uint256"
        }
      ],
      "name": "revealPeriodActive",
      "outputs": [
        {
          "internalType": "bool",
          "name": "active",
          "type": "bool"
        }
      ],
      "stateMutability": "view",
      "type": "function"
    },
    {
      "inputs": [
        {
          "internalType": "uint256",
          "name": "_DataBatchID",
          "type": "uint256"
        },
        {
          "internalType": "uint256",
          "name": "_voteOption",
          "type": "uint256"
        },
        {
          "internalType": "uint256",
          "name": "_salt",
          "type": "uint256"
        }
      ],
      "name": "revealSpotCheck",
      "outputs": [],
      "stateMutability": "nonpayable",
      "type": "function"
    },
    {
      "inputs": [
        {
          "internalType": "uint256[]",
          "name": "_DataBatchIDs",
          "type": "uint256[]"
        },
        {
          "internalType": "uint256[]",
          "name": "_voteOptions",
          "type": "uint256[]"
        },
        {
          "internalType": "uint256[]",
          "name": "_salts",
          "type": "uint256[]"
        }
      ],
      "name": "revealSpotChecks",
      "outputs": [],
      "stateMutability": "nonpayable",
      "type": "function"
    },
    {
      "inputs": [],
      "name": "sFuel",
      "outputs": [
        {
          "internalType": "address",
          "name": "",
          "type": "address"
        }
      ],
      "stateMutability": "view",
      "type": "function"
    },
    {
      "inputs": [
        {
          "internalType": "uint256",
          "name": "N",
          "type": "uint256"
        }
      ],
      "name": "shuffle_array",
      "outputs": [
        {
          "internalType": "uint256[]",
          "name": "",
          "type": "uint256[]"
        }
      ],
      "stateMutability": "view",
      "type": "function"
    },
    {
      "inputs": [],
      "name": "token",
      "outputs": [
        {
          "internalType": "contract IERC20",
          "name": "",
          "type": "address"
        }
      ],
      "stateMutability": "view",
      "type": "function"
    },
    {
      "inputs": [
        {
          "internalType": "address",
          "name": "newOwner",
          "type": "address"
        }
      ],
      "name": "transferOwnership",
      "outputs": [],
      "stateMutability": "nonpayable",
      "type": "function"
    },
    {
      "inputs": [
        {
          "internalType": "address",
          "name": "addr",
          "type": "address"
        }
      ],
      "name": "updateAddressManager",
      "outputs": [],
      "stateMutability": "nonpayable",
      "type": "function"
    },
    {
      "inputs": [
        {
          "internalType": "uint256",
          "name": "COMMIT_ROUND_DURATION_",
          "type": "uint256"
        }
      ],
      "name": "updateCommitRoundDuration",
      "outputs": [],
      "stateMutability": "nonpayable",
      "type": "function"
    },
    {
      "inputs": [
        {
          "internalType": "address",
          "name": "addr",
          "type": "address"
        }
      ],
      "name": "updateRepManager",
      "outputs": [],
      "stateMutability": "nonpayable",
      "type": "function"
    },
    {
      "inputs": [
        {
          "internalType": "uint256",
          "name": "REVEAL_ROUND_DURATION_",
          "type": "uint256"
        }
      ],
      "name": "updateRevealRoundDuration",
      "outputs": [],
      "stateMutability": "nonpayable",
      "type": "function"
    },
    {
      "inputs": [
        {
          "internalType": "address",
          "name": "addr",
          "type": "address"
        }
      ],
      "name": "updateRewardManager",
      "outputs": [],
      "stateMutability": "nonpayable",
      "type": "function"
    },
    {
      "inputs": [
        {
          "internalType": "address",
          "name": "addr",
          "type": "address"
        }
      ],
      "name": "updateStakeManager",
      "outputs": [],
      "stateMutability": "nonpayable",
      "type": "function"
    },
    {
      "inputs": [
        {
          "internalType": "address",
          "name": "sFuel_",
          "type": "address"
        }
      ],
      "name": "updatesFuelFaucet",
      "outputs": [],
      "stateMutability": "nonpayable",
      "type": "function"
    },
    {
      "inputs": [
        {
          "internalType": "address",
          "name": "",
          "type": "address"
        },
        {
          "internalType": "uint256",
          "name": "",
          "type": "uint256"
        }
      ],
      "name": "userSubmissions",
      "outputs": [
        {
          "internalType": "uint256",
          "name": "",
          "type": "uint256"
        }
      ],
      "stateMutability": "view",
      "type": "function"
    },
    {
      "inputs": [
        {
          "internalType": "uint256",
          "name": "_prevID",
          "type": "uint256"
        },
        {
          "internalType": "uint256",
          "name": "_nextID",
          "type": "uint256"
        },
        {
          "internalType": "address",
          "name": "_voter",
          "type": "address"
        },
        {
          "internalType": "uint256",
          "name": "_numTokens",
          "type": "uint256"
        }
      ],
      "name": "validPosition",
      "outputs": [
        {
          "internalType": "bool",
          "name": "APPROVED",
          "type": "bool"
        }
      ],
      "stateMutability": "view",
      "type": "function"
    },
    {
      "inputs": [
        {
          "internalType": "uint256",
          "name": "_numTokens",
          "type": "uint256"
        }
      ],
      "name": "withdrawVotingRights",
      "outputs": [],
      "stateMutability": "nonpayable",
      "type": "function"
    }
  ],
  "bytecode": "0x6080604052678ac7230489e8000060058190556802b5e3af16b18800006006819055600791909155600855603c6009556000600f819055601081905560118190556012819055601b80546001600160a01b0319167314f52f3fc010ab6ca81568d4a6794d5eab3c6155179055601c819055601d553480156200008057600080fd5b50604051620063ad380380620063ad833981016040819052620000a39162000157565b620000b7620000b162000103565b62000107565b601f80546001600160a01b0319166001600160a01b03929092169190911790556000601081905560115568056bc75e2d631000006001908155600255601e600381905560045562000187565b3390565b600080546001600160a01b038381166001600160a01b0319831681178455604051919092169283917f8be0079c531659141344cd1fd0a4f28419497f9722a3daafe3b4186f6b6457e09190a35050565b60006020828403121562000169578081fd5b81516001600160a01b038116811462000180578182fd5b9392505050565b61621680620001976000396000f3fe608060405234801561001057600080fd5b50600436106104d85760003560e01c806383cc6ef211610283578063cba379381161015c578063e7b1d43c116100ce578063f443d5b711610092578063f443d5b714610a45578063f716596d14610a4d578063f721de4a14610a55578063f80a23fd14610a68578063fc0c546a14610a70578063fca4956314610a78576104d8565b8063e7b1d43c146109e6578063e8e9b6f9146109f9578063ed8becfa14610a0c578063f2fde38b14610a1f578063f343894614610a32576104d8565b8063d9548e5311610120578063d9548e531461097f578063dd61868214610992578063df05368e146109a5578063e44c974b146109b8578063e7805f9e146109cb578063e798a7da146109d3576104d8565b8063cba3793814610920578063d138209214610933578063d37a4db214610946578063d822ce0114610959578063d901402b1461096c576104d8565b8063aacc5a17116101f5578063b8f011b3116101b9578063b8f011b3146108b9578063c47c4bc2146108cc578063c4bea2cb146108df578063c4e4f82a146108f2578063c7c063fb14610905578063cb1c2b5c14610918576104d8565b8063aacc5a1714610883578063ab43e78d1461088b578063b1a2e0be14610893578063b1cf4a7e146105a6578063b43bd069146108a6576104d8565b80639fc9c52f116102475780639fc9c52f1461081c578063a1103f371461082f578063a25236fe14610842578063a4439dc514610855578063a511dba014610868578063aa7ca46414610870576104d8565b806383cc6ef2146107bb5780638c89d027146107c35780638da5cb5b146107ee57806397603560146107f65780639b7e018014610809576104d8565b8063441c77c0116103b55780636b2d95d4116103275780637a34da67116102eb5780637a34da67146107475780637ce1c4d41461074f5780637f97e836146107575780637fabe35b1461076a578063819b029314610795578063821aa8c0146107a8576104d8565b80636b2d95d414610709578063715018a61461071c57806371880b1b146107245780637827e54914610737578063796b89b91461073f576104d8565b8063580021581161037957806358002158146106c3578063590785b1146106d65780635fd87909146106e95780636277bf65146106f157806362b7e941146106f9578063667bf0f814610701576104d8565b8063441c77c01461066257806349403183146106755780634d8842811461068857806351912f291461069b578063579db71c146106a3576104d8565b8063226ed3001161044e57806332ac1ba21161041257806332ac1ba2146106115780633538af821461062457806337d5f2381461063757806339e7357c1461063f5780633ad2131f14610647578063427fa1d21461064f576104d8565b8063226ed300146105b9578063275c2590146105d957806329a47bc7146105e15780632c052031146105f6578063313066ee14610609576104d8565b80630772ca9c116104a05780630772ca9c146105495780630b96c5b0146105515780630e6661a7146105765780630e670feb1461057e57806319d90346146105865780631b855044146105a6576104d8565b806302fa9c68146104dd578063035fbb55146104f257806304dbcda714610505578063050eb2eb14610523578063053e71a614610536575b600080fd5b6104f06104eb366004614de2565b610a8b565b005b6104f0610500366004615098565b610b11565b61050d610e03565b60405161051a91906151c0565b60405180910390f35b6104f0610531366004614d6d565b610e09565b61050d610544366004615012565b610e6a565b61050d610ed0565b61056461055f366004615012565b610ed6565b60405161051a96959493929190615269565b61050d6110b3565b61050d6110b9565b610599610594366004615012565b6110bf565b60405161051a9190615207565b61050d6105b436600461503b565b61144a565b6105cc6105c7366004615012565b61147d565b60405161051a919061525e565b6104f06114c5565b6105e961159c565b60405161051a91906151f3565b61050d610604366004614db0565b6115ab565b61050d611748565b61050d61061f366004615012565b61174e565b6105e9610632366004615012565b611772565b61050d61179c565b61050d6117a2565b61050d6117bf565b61050d61065d366004614d6d565b6117c5565b6105cc610670366004615012565b611865565b6105cc610683366004615012565b6118bf565b6104f0610696366004614d6d565b611b43565b6105e9611ba4565b6106b66106b1366004614d6d565b611bb3565b60405161051a919061521a565b6104f06106d1366004615012565b611c1f565b6104f06106e4366004615012565b611c63565b61050d6120ff565b61050d612105565b61050d61210b565b6104f0612111565b61050d610717366004614d6d565b6124bb565b6104f06124ca565b61050d610732366004615012565b612515565b61050d612552565b61050d612558565b6105e961255c565b61050d61256b565b6105cc610765366004614d87565b612571565b61077d610778366004615012565b6125c4565b60405161051a9c9b9a99989796959493929190615fda565b6105cc6107a336600461505c565b61262a565b6105e96107b6366004615012565b61266b565b6105e961267b565b6107d66107d1366004614d6d565b61268a565b60405161051a9c9b9a99989796959493929190615f2c565b6105e9612789565b6104f0610804366004615012565b612798565b61050d610817366004614d87565b612947565b6104f061082a366004614edf565b612978565b61050d61083d366004614d87565b6129ca565b6104f0610850366004615012565b6129df565b6105cc610863366004615012565b612ae0565b61050d612b22565b6105cc61087e366004614d87565b612b28565b61050d612b7b565b6105e9612c30565b6105cc6108a1366004614d6d565b612c3f565b61050d6108b4366004614db0565b612dce565b6106b66108c736600461503b565b612eba565b6104f06108da366004614d6d565b61301b565b6104f06108ed36600461503b565b61307c565b61050d610900366004615012565b6134b0565b61050d610913366004614d6d565b6134ed565b61050d6134ff565b61050d61092e366004614f31565b613505565b61050d610941366004614d87565b613833565b6104f0610954366004614e4a565b6138c8565b6105e9610967366004614d87565b613983565b61050d61097a366004614d87565b6139bb565b6105cc61098d366004615012565b613a00565b6104f06109a0366004614d6d565b613a05565b6104f06109b3366004614d6d565b613a66565b6106b66109c6366004615012565b613ac7565b61050d613b40565b6105cc6109e1366004614d6d565b613b46565b6104f06109f4366004615012565b613b67565b6104f0610a07366004615012565b613ca3565b610599610a1a366004615012565b613ce7565b6104f0610a2d366004614d6d565b614065565b61050d610a40366004614d6d565b6140d6565b61050d614177565b6104f061417d565b6105cc610a63366004615012565b614322565b6105cc61432a565b6105e9614343565b61050d610a86366004614d6d565b614352565b828114610a9757600080fd5b60005b83811015610b0a57610af8858583818110610ac557634e487b7160e01b600052603260045260246000fd5b90506020020135848484818110610aec57634e487b7160e01b600052603260045260246000fd5b9050602002013561307c565b80610b028161616f565b915050610a9a565b5050505050565b610b1961449e565b610b2283611865565b610b475760405162461bcd60e51b8152600401610b3e90615bdf565b60405180910390fd5b336000908152600a6020908152604080832086845290915290205460ff16610b815760405162461bcd60e51b8152600401610b3e906157f8565b336000908152600b6020908152604080832086845290915290205460ff1615610bbc5760405162461bcd60e51b8152600401610b3e906157b2565b610bc633846139bb565b8282604051602001610bd99291906151e5565b6040516020818303038152906040528051906020012014610c0c5760405162461bcd60e51b8152600401610b3e906154b2565b6000610c183385613833565b90508260011415610c4f576000848152601e602052604081206007018054839290610c449084906160a2565b90915550610c769050565b6000848152601e602052604081206008018054839290610c709084906160a2565b90915550505b336000908152600d60205260409081902090516301039dfd60e11b815273__$85afbab79b2b776d70bef879a32ed56424$__916302073bfa91610cbe919088906004016151e5565b60006040518083038186803b158015610cd657600080fd5b505af4158015610cea573d6000803e3d6000fd5b5050336000818152600b602090815260408083208a84528252808320805460ff19166001908117909155600c8352818420948452938252808320899055601382528083206003808201548552601e90935292200154909350610d4d9250906145f8565b600382810180546000908152601e6020526040808220840194909455600885018054600160ff199182168117909255600487018054909116909117905590548152919091200154610da157610da185611c63565b6000858152601e602052604090819020600781015460089091015491513392879289927f0867b5027231dcbf37614eaad07d667b9febaf9fdf483f488229b1f140bb074892610df4928992909190615fc4565b60405180910390a45050505050565b60065481565b610e11614604565b6001600160a01b0316610e22612789565b6001600160a01b031614610e485760405162461bcd60e51b8152600401610b3e90615a67565b602280546001600160a01b0319166001600160a01b0392909216919091179055565b6000610e758261147d565b610e915760405162461bcd60e51b8152600401610b3e90615871565b610e9a826118bf565b15610eb757506000818152601e6020526040902060070154610ecb565b506000818152601e60205260409020600801545b919050565b60115481565b601460205260009081526040902080548190610ef190616134565b80601f0160208091040260200160405190810160405280929190818152602001828054610f1d90616134565b8015610f6a5780601f10610f3f57610100808354040283529160200191610f6a565b820191906000526020600020905b815481529060010190602001808311610f4d57829003601f168201915b505050506001830154600284015460038501805494956001600160a01b039093169491935090610f9990616134565b80601f0160208091040260200160405190810160405280929190818152602001828054610fc590616134565b80156110125780601f10610fe757610100808354040283529160200191611012565b820191906000526020600020905b815481529060010190602001808311610ff557829003601f168201915b50505050509080600601805461102790616134565b80601f016020809104026020016040519081016040528092919081815260200182805461105390616134565b80156110a05780601f10611075576101008083540402835291602001916110a0565b820191906000526020600020905b81548152906001019060200180831161108357829003601f168201915b5050506007909301549192505060ff1686565b60105481565b60075481565b60606110ca82614322565b6110e65760405162461bcd60e51b8152600401610b3e90615937565b6000828152601e6020908152604080832081516101c081018352815481526001820154938101939093526002808201549284019290925260038101546060840152600481015460ff808216151560808601526101008083048216151560a0870152620100009092048116151560c0860152600583015460e08601526006830154918501919091526007820154610120850152600882015461014085015260098201549192610160850192909116908111156111b157634e487b7160e01b600052602160045260246000fd5b60028111156111d057634e487b7160e01b600052602160045260246000fd5b8152602001600a8201805480602002602001604051908101604052809291908181526020016000905b828210156112a557838290600052602060002001805461121890616134565b80601f016020809104026020016040519081016040528092919081815260200182805461124490616134565b80156112915780601f1061126657610100808354040283529160200191611291565b820191906000526020600020905b81548152906001019060200180831161127457829003601f168201915b5050505050815260200190600101906111f9565b505050508152602001600b82018054806020026020016040519081016040528092919081815260200182805480156112fc57602002820191906000526020600020905b8154815260200190600101908083116112e8575b5050509190925250505060408181015182518251600580825260c082019094529394509092909160009190816020015b606081526020019060019003908161132c57905050905060005b8381101561144057845160009061135e9083906160a2565b60008181526014602052604081206003018054929350909161137f90616134565b80601f01602080910402602001604051908101604052809291908181526020018280546113ab90616134565b80156113f85780601f106113cd576101008083540402835291602001916113f8565b820191906000526020600020905b8154815290600101906020018083116113db57829003601f168201915b505050505090508084848151811061142057634e487b7160e01b600052603260045260246000fd5b6020026020010181905250505080806114389061616f565b915050611346565b5095945050505050565b6000828260405160200161145f9291906151e5565b60405160208183030381529060405280519060200120905092915050565b600061148882614322565b6114a45760405162461bcd60e51b8152600401610b3e90615e26565b6000828152601e60205260409020600601546114bf90613a00565b92915050565b6114cd61449e565b336000908152601360205260409020600881015460ff1615156001146115055760405162461bcd60e51b8152600401610b3e906156df565b600061150f612558565b905061151a33614608565b600182018054336001600160a01b03199182168117909255600284018054909116821790556007830182905560088301805460ff19908116909155600a8401805490911690556040517f9dadcedba048e92b943ea1c5861cee1df63a566d7f795869c004780c1c698e2b906115909084906151c0565b60405180910390a25050565b6021546001600160a01b031681565b6000806115b7856117c5565b905060006115c58683613833565b90505b811561173d576115d88683613833565b9050848111611695578382141561168d576001600160a01b0386166000908152600d60205260409081902090516301c39b2b60e11b815273__$85afbab79b2b776d70bef879a32ed56424$__9163038736569161163a919086906004016151e5565b60206040518083038186803b15801561165257600080fd5b505af4158015611666573d6000803e3d6000fd5b505050506040513d601f19601f8201168201806040525081019061168a919061502a565b91505b509050611741565b6001600160a01b0386166000908152600d60205260409081902090516301c39b2b60e11b815273__$85afbab79b2b776d70bef879a32ed56424$__916303873656916116e6919086906004016151e5565b60206040518083038186803b1580156116fe57600080fd5b505af4158015611712573d6000803e3d6000fd5b505050506040513d601f19601f82011682018060405250810190611736919061502a565b91506115c8565b5090505b9392505050565b600f5481565b6000818152601e6020526040812060088101546007909101548291611741916160a2565b6018818154811061178257600080fd5b6000918252602090912001546001600160a01b0316905081565b60125481565b60405160009080602081848060185afa6117b857fe5b5051919050565b60095481565b6001600160a01b0381166000908152600d602052604080822090516301c39b2b60e11b815273__$85afbab79b2b776d70bef879a32ed56424$__91630387365691611815919085906004016151e5565b60206040518083038186803b15801561182d57600080fd5b505af4158015611841573d6000803e3d6000fd5b505050506040513d601f19601f820116820180604052508101906114bf919061502a565b600061187082614322565b61188c5760405162461bcd60e51b8152600401610b3e90615937565b6000828152601e60205260409020600601546118a790613a00565b1580156114bf57506118b882612ae0565b1592915050565b60006118ca8261147d565b6118e65760405162461bcd60e51b8152600401610b3e90615871565b6000828152601e6020908152604080832081516101c081018352815481526001820154938101939093526002808201549284019290925260038101546060840152600481015460ff808216151560808601526101008083048216151560a0870152620100009092048116151560c0860152600583015460e08601526006830154918501919091526007820154610120850152600882015461014085015260098201549192610160850192909116908111156119b157634e487b7160e01b600052602160045260246000fd5b60028111156119d057634e487b7160e01b600052602160045260246000fd5b8152602001600a8201805480602002602001604051908101604052809291908181526020016000905b82821015611aa5578382906000526020600020018054611a1890616134565b80601f0160208091040260200160405190810160405280929190818152602001828054611a4490616134565b8015611a915780601f10611a6657610100808354040283529160200191611a91565b820191906000526020600020905b815481529060010190602001808311611a7457829003601f168201915b5050505050815260200190600101906119f9565b505050508152602001600b8201805480602002602001604051908101604052809291908181526020018280548015611afc57602002820191906000526020600020905b815481526020019060010190808311611ae8575b5050505050815250509050806101400151816101200151611b1d91906160a2565b600954611b2a91906160ce565b610120820151611b3b9060646160ce565b119392505050565b611b4b614604565b6001600160a01b0316611b5c612789565b6001600160a01b031614611b825760405162461bcd60e51b8152600401610b3e90615a67565b601b80546001600160a01b0319166001600160a01b0392909216919091179055565b6022546001600160a01b031681565b6001600160a01b038116600090815260156020908152604091829020805483518184028101840190945280845260609392830182828015611c1357602002820191906000526020600020905b815481526020019060010190808311611bff575b50505050509050919050565b611c27614604565b6001600160a01b0316611c38612789565b6001600160a01b031614611c5e5760405162461bcd60e51b8152600401610b3e90615a67565b600455565b611c6c8161147d565b611c885760405162461bcd60e51b8152600401610b3e90615535565b6000611c93826118bf565b6000838152601a6020908152604080832080548251818502810185019093528083529495509293909291830182828015611cf657602002820191906000526020600020905b81546001600160a01b03168152600190910190602001808311611cd8575b5050505050905060005b8151811015612092576000828281518110611d2b57634e487b7160e01b600052603260045260246000fd5b6020908102919091018101516000878152600c835260408082206001600160a01b0384168352845280822054600b85528183208a845290945290205490925060ff168015611f08576001600160a01b0383166000908152601360205260409020600401805460ff19166001908117909155861515148015611dac5750816001145b80611dc1575085158015611dc1575081600114155b15611f0857602154600854604051630db6cc8560e11b81526001600160a01b0390921691631b6d990a91611df9918790600401615fa6565b602060405180830381600087803b158015611e1357600080fd5b505af1158015611e27573d6000803e3d6000fd5b505050506040513d601f19601f82011682018060405250810190611e4b9190614f11565b611e675760405162461bcd60e51b8152600401610b3e9061589f565b602254600654604051633832942560e21b81526001600160a01b039092169163e0ca509491611e9a918790600401615f15565b602060405180830381600087803b158015611eb457600080fd5b505af1158015611ec8573d6000803e3d6000fd5b505050506040513d601f19601f82011682018060405250810190611eec9190614f11565b611f085760405162461bcd60e51b8152600401610b3e90615690565b851561207c5760215460085460008981526014602052604090819020600101549051630db6cc8560e11b81526001600160a01b0393841693631b6d990a93611f57939092911690600401615fa6565b602060405180830381600087803b158015611f7157600080fd5b505af1158015611f85573d6000803e3d6000fd5b505050506040513d601f19601f82011682018060405250810190611fa99190614f11565b611fc55760405162461bcd60e51b8152600401610b3e90615d7c565b60225460065460008981526014602052604090819020600101549051633832942560e21b81526001600160a01b039384169363e0ca50949361200e939092911690600401615f15565b602060405180830381600087803b15801561202857600080fd5b505af115801561203c573d6000803e3d6000fd5b505050506040513d601f19601f820116820180604052508101906120609190614f11565b61207c5760405162461bcd60e51b8152600401610b3e90615cd0565b505050808061208a9061616f565b915050611d00565b50601d546120a1906001614664565b601d5560008381526014602052604090819020600181015491516001600160a01b03909216917f43916c3ae75995d24cc89b466ed08e6dba74d325f7957f9b37b05f150e12918e916120f291615319565b60405180910390a2505050565b60045481565b60055481565b60025481565b601d546000908152601e602052604090206004015460ff166121455760405162461bcd60e51b8152600401610b3e90615b89565b601d546000908152601e602052604090206004015462010000900460ff16156121805760405162461bcd60e51b8152600401610b3e9061599c565b6018546000906121a9906064906121989060326160ce565b6121a291906160ba565b6001614670565b601854601d546000908152601e602052604081206003908101849055546004549394509192906121d94284614664565b905060006121e78284614664565b601d80546000908152601e60205260408082206005018690558254825280822060060184905591548152908120600401805462ff00001916620100001790559091506122338787612eba565b9050600081516001600160401b0381111561225e57634e487b7160e01b600052604160045260246000fd5b604051908082528060200260200182016040528015612287578160200160208202803683370190505b50905060005b82518110156123465760188382815181106122b857634e487b7160e01b600052603260045260246000fd5b6020026020010151815481106122de57634e487b7160e01b600052603260045260246000fd5b9060005260206000200160009054906101000a90046001600160a01b031682828151811061231c57634e487b7160e01b600052603260045260246000fd5b6001600160a01b03909216602092830291909101909101528061233e8161616f565b91505061228d565b5060005b82518110156124b057600082828151811061237557634e487b7160e01b600052603260045260246000fd5b6020908102919091018101516001600160a01b03811660008181526013845260408082206019805460018181019092557f944998273e477b495144fb8794c914197f3ccb46be2900f4698fd0ef743c96950180546001600160a01b03199081168717909155601d548552601a885292842080549182018155845295909220909401805490941690911790925585519092506124379086908590811061242a57634e487b7160e01b600052603260045260246000fd5b6020026020010151614686565b601d5460038083019190915560048201805460ff19169055600f5461245b916160a2565b6005820155601d546040517fe4ee2dfabe57cee15e3f558890b20455f54c1fa0718e5276faad70a6500e6b8c906124939085906151f3565b60405180910390a2505080806124a89061616f565b91505061234a565b505050505050505050565b60006114bf82610941846117c5565b6124d2614604565b6001600160a01b03166124e3612789565b6001600160a01b0316146125095760405162461bcd60e51b8152600401610b3e90615a67565b6125136000614760565b565b600061252082614322565b61253c5760405162461bcd60e51b8152600401610b3e90615937565b506000908152601e602052604090206006015490565b60085481565b4290565b6023546001600160a01b031681565b601c5481565b600061257c82614322565b6125985760405162461bcd60e51b8152600401610b3e90615937565b506001600160a01b03919091166000908152600a60209081526040808320938352929052205460ff1690565b601e602052600090815260409020805460018201546002830154600384015460048501546005860154600687015460078801546008890154600990990154979896979596949560ff8086169661010087048216966201000090048216959493929091168c565b6000806126378487613833565b831015905060006126488587613833565b84111580612654575085155b90508180156126605750805b979650505050505050565b6019818154811061178257600080fd5b6020546001600160a01b031681565b601360205260009081526040902080546001820154600283015460038401546004850154600586015460068701546007880154600889015460098a018054999a6001600160a01b03998a169a9990981698969760ff96871697959694959394909216926126f690616134565b80601f016020809104026020016040519081016040528092919081815260200182805461272290616134565b801561276f5780601f106127445761010080835404028352916020019161276f565b820191906000526020600020905b81548152906001019060200180831161275257829003601f168201915b50505050600a830154600b90930154919260ff169190508c565b6000546001600160a01b031690565b60016000828152601e602052604090206009015460ff1660028111156127ce57634e487b7160e01b600052602160045260246000fd5b146127eb5760405162461bcd60e51b8152600401610b3e906153fa565b336000908152600d60205260409081902090516306120d1f60e31b815273__$85afbab79b2b776d70bef879a32ed56424$__9163309068f891612833919085906004016151e5565b60206040518083038186803b15801561284b57600080fd5b505af415801561285f573d6000803e3d6000fd5b505050506040513d601f19601f820116820180604052508101906128839190614f11565b61289f5760405162461bcd60e51b8152600401610b3e906155e9565b336000908152600d60205260409081902090516301039dfd60e11b815273__$85afbab79b2b776d70bef879a32ed56424$__916302073bfa916128e7919085906004016151e5565b60006040518083038186803b1580156128ff57600080fd5b505af4158015612913573d6000803e3d6000fd5b50506040513392508391507f402507661c8c8cb90e0a796450b8bdd28b6c516f05279c0cd29e84c344e1699a90600090a350565b6015602052816000526040600020818154811061296357600080fd5b90600052602060002001600091509150505481565b60005b81518110156129c6576129b48282815181106129a757634e487b7160e01b600052603260045260246000fd5b6020026020010151612798565b806129be8161616f565b91505061297b565b5050565b6000828260405160200161145f92919061519e565b6020546040516304ada21f60e21b81526001600160a01b03909116906312b6887c90612a119084903390600401615f15565b602060405180830381600087803b158015612a2b57600080fd5b505af1158015612a3f573d6000803e3d6000fd5b505050506040513d601f19601f82011682018060405250810190612a639190614f11565b612a7f5760405162461bcd60e51b8152600401610b3e9061572a565b3360009081526016602052604081208054839290612a9e9084906160a2565b909155505060405133907ff7aaf024511d9982df8cd0d437c71c30106e6848cd1ba3d288d7a9c0e276aeda90612ad59084906151c0565b60405180910390a250565b6000612aeb82614322565b612b075760405162461bcd60e51b8152600401610b3e90615937565b6000828152601e60205260409020600501546118b890613a00565b60105490565b6000612b3382614322565b612b4f5760405162461bcd60e51b8152600401610b3e90615937565b506001600160a01b03919091166000908152600b60209081526040808320938352929052205460ff1690565b6000804241604051602001612b909190615181565b6040516020818303038152906040528051906020012060001c612bb391906160ba565b44612bbc6117a2565b604051602001612bcc91906151c0565b60408051601f198184030181529190528051602090910120612bee90426160a2565b612bf891906160a2565b612c0291906160a2565b604051602001612c1291906151c0565b60408051601f19818403018152919052805160209091012091505090565b601b546001600160a01b031681565b6001600160a01b03808216600090815260136020908152604080832081516101808101835281548152600182015486169381019390935260028101549094169082015260038301546060820152600483015460ff90811615156080830152600584015460a0830152600684015460c0830152600784015460e08301526008840154161515610100820152600983018054929384939091610120840191612ce490616134565b80601f0160208091040260200160405190810160405280929190818152602001828054612d1090616134565b8015612d5d5780601f10612d3257610100808354040283529160200191612d5d565b820191906000526020600020905b815481529060010190602001808311612d4057829003601f168201915b5050509183525050600a82015460ff1615156020820152600b90910154604090910152610140810151909150612da55760405162461bcd60e51b8152600401610b3e90615c6c565b6080810151600090158015612dbf5750600f548260a00151115b15611741575060019392505050565b6000612dd98361147d565b612df55760405162461bcd60e51b8152600401610b3e90615646565b6001600160a01b0384166000908152600b6020908152604080832086845290915290205460ff16612e385760405162461bcd60e51b8152600401610b3e906158ec565b6000612e43846118bf565b612e4e576000612e51565b60015b60ff16905060008184604051602001612e6b9291906151e5565b6040516020818303038152906040528051906020012090506000612e8f87876139bb565b9050808214612eb05760405162461bcd60e51b8152600401610b3e90615b09565b6126608787613833565b606060018211612ec957600080fd5b818311158015612eda575060018310155b612ee357600080fd5b6000826001600160401b03811115612f0b57634e487b7160e01b600052604160045260246000fd5b604051908082528060200260200182016040528015612f34578160200160208202803683370190505b5090506000846001600160401b03811115612f5f57634e487b7160e01b600052604160045260246000fd5b604051908082528060200260200182016040528015612f88578160200160208202803683370190505b5090506000612f9e612f99846147b0565b614806565b905060005b8681101561301057818181518110612fcb57634e487b7160e01b600052603260045260246000fd5b6020026020010151838281518110612ff357634e487b7160e01b600052603260045260246000fd5b6020908102919091010152806130088161616f565b915050612fa3565b509095945050505050565b613023614604565b6001600160a01b0316613034612789565b6001600160a01b03161461305a5760405162461bcd60e51b8152600401610b3e90615a67565b602380546001600160a01b0319166001600160a01b0392909216919091179055565b61308461449e565b61308d82612ae0565b6130a95760405162461bcd60e51b8152600401610b3e906155b2565b816130b333614352565b146130d05760405162461bcd60e51b8152600401610b3e906159f9565b6001543360009081526016602052604090205481111561311257336000908152601660205260408120546131059083906145f8565b9050613110816129df565b505b336000908152601660205260409020548111156131415760405162461bcd60e51b8152600401610b3e90615d1f565b8261315e5760405162461bcd60e51b8152600401610b3e90615787565b8161317b5760405162461bcd60e51b8152600401610b3e90615847565b6000336000908152600d60205260408082209051631e0f232560e31b815273__$85afbab79b2b776d70bef879a32ed56424$__9163f0791928916131c4919086906004016151e5565b60206040518083038186803b1580156131dc57600080fd5b505af41580156131f0573d6000803e3d6000fd5b505050506040513d601f19601f82011682018060405250810190613214919061502a565b9050848114156132b957336000908152600d6020526040908190209051631e0f232560e31b815273__$85afbab79b2b776d70bef879a32ed56424$__9163f079192891613266919089906004016151e5565b60206040518083038186803b15801561327e57600080fd5b505af4158015613292573d6000803e3d6000fd5b505050506040513d601f19601f820116820180604052508101906132b6919061502a565b90505b6132c58282338661262a565b6132e15760405162461bcd60e51b8152600401610b3e9061596e565b336000908152600d602052604090819020905163524cfe5360e11b815273__$85afbab79b2b776d70bef879a32ed56424$__9163a499fca69161332d919086908a908790600401615efa565b60006040518083038186803b15801561334557600080fd5b505af4158015613359573d6000803e3d6000fd5b50505050600061336933876129ca565b60408051808201825260098152686e756d546f6b656e7360b81b6020820152905163099b040f60e31b81529192509073__$0947e710b66d7779e1d561254425e1375a$__90634cd82078906133c990600e90869086908b90600401615e4f565b60006040518083038186803b1580156133e157600080fd5b505af41580156133f5573d6000803e3d6000fd5b505060405163099b040f60e31b815273__$0947e710b66d7779e1d561254425e1375a$__9250634cd82078915061343590600e9086908b90600401615e9d565b60006040518083038186803b15801561344d57600080fd5b505af4158015613461573d6000803e3d6000fd5b50505050336001600160a01b0316877f42864d9683ff5b12c3b2cc65d705af5aab104b03bc700b802f79e5c971ef08a18760405161349f91906151c0565b60405180910390a350505050505050565b60006134bb82614322565b6134d75760405162461bcd60e51b8152600401610b3e90615937565b506000908152601e602052604090206005015490565b60166020526000908152604090205481565b60015481565b6001543360009081526016602052604081205490919081111561354a573360009081526016602052604081205461353d9083906145f8565b9050613548816129df565b505b336000908152601660205260409020548111156135795760405162461bcd60e51b8152600401610b3e90615d1f565b885189906135995760405162461bcd60e51b8152600401610b3e90615b52565b6010546135a79060016160a2565b6010819055336000818152601560209081526040808320805460018101825590845292829020909201939093558051610100810182528d81528084019290925242828201528051601f8b0184900484028101840190915289815290916060830191908b908b9081908401838280828437600092018290525093855250505060208083018a905260408084018a905260608401899052608090930182905260105482526014815291902082518051919261366592849290910190614a1f565b506020828101516001830180546001600160a01b0319166001600160a01b0390921691909117905560408301516002830155606083015180516136ae9260038501920190614a1f565b50608082015180516136ca916004840191602090910190614aa3565b5060a082015180516136e6916005840191602090910190614afc565b5060c08201518051613702916006840191602090910190614a1f565b5060e082015160078201805460ff1916600183600281111561373457634e487b7160e01b600052602160045260246000fd5b021790555050601c546000908152601e602052604090209050613759600160056160ed565b8160020154101561378b57600181600201600082825461377991906160a2565b909155505060105460018201556137d7565b60048101805461ff001960ff199091166001171690556137a961499a565b6001601c60008282546137bc91906160a2565b9091555050601054601c546000908152601e60205260409020555b336001600160a01b03166010547fb7b95e293993cd6c0c54a48cee487ef3dd8f51be568be962db90e7784af70dd18d8c8c8c60405161381994939291906152c8565b60405180910390a350506010549998505050505050505050565b600073__$0947e710b66d7779e1d561254425e1375a$__6369810158600e61385b86866129ca565b6040518363ffffffff1660e01b8152600401613878929190615ecb565b60206040518083038186803b15801561389057600080fd5b505af41580156138a4573d6000803e3d6000fd5b505050506040513d601f19601f82011682018060405250810190611741919061502a565b8483146138d457600080fd5b8481146138e057600080fd5b60005b8581101561397a5761396887878381811061390e57634e487b7160e01b600052603260045260246000fd5b9050602002013586868481811061393557634e487b7160e01b600052603260045260246000fd5b9050602002013585858581811061395c57634e487b7160e01b600052603260045260246000fd5b90506020020135610b11565b806139728161616f565b9150506138e3565b50505050505050565b6017602052816000526040600020818154811061399f57600080fd5b6000918252602090912001546001600160a01b03169150829050565b600073__$0947e710b66d7779e1d561254425e1375a$__6369810158600e6139e386866129ca565b6040518363ffffffff1660e01b8152600401613878929190615e7f565b421190565b613a0d614604565b6001600160a01b0316613a1e612789565b6001600160a01b031614613a445760405162461bcd60e51b8152600401610b3e90615a67565b602180546001600160a01b0319166001600160a01b0392909216919091179055565b613a6e614604565b6001600160a01b0316613a7f612789565b6001600160a01b031614613aa55760405162461bcd60e51b8152600401610b3e90615a67565b602080546001600160a01b0319166001600160a01b0392909216919091179055565b606060018211613ad657600080fd5b6000826001600160401b03811115613afe57634e487b7160e01b600052604160045260246000fd5b604051908082528060200260200182016040528015613b27578160200160208202803683370190505b5090506000613b38612f99836147b0565b949350505050565b60035481565b6001600160a01b03166000908152601360205260409020600a015460ff1690565b6000613b8b613b75336124bb565b33600090815260166020526040902054906145f8565b905081811015613bad5760405162461bcd60e51b8152600401610b3e90615c25565b602054604051630895993360e11b81526001600160a01b039091169063112b326690613bdf9085903390600401615f15565b602060405180830381600087803b158015613bf957600080fd5b505af1158015613c0d573d6000803e3d6000fd5b505050506040513d601f19601f82011682018060405250810190613c319190614f11565b613c4d5760405162461bcd60e51b8152600401610b3e90615dc9565b3360009081526016602052604081208054849290613c6c9084906160ed565b909155505060405133907ffaeb7dbb9992397d26ea1944efd40c80b40f702faf69b46c67ad10aba68ccb79906115909085906151c0565b613cab614604565b6001600160a01b0316613cbc612789565b6001600160a01b031614613ce25760405162461bcd60e51b8152600401610b3e90615a67565b600355565b6060613cf282614322565b613d0e5760405162461bcd60e51b8152600401610b3e90615937565b6000828152601e6020908152604080832081516101c081018352815481526001820154938101939093526002808201549284019290925260038101546060840152600481015460ff808216151560808601526101008083048216151560a0870152620100009092048116151560c0860152600583015460e0860152600683015491850191909152600782015461012085015260088201546101408501526009820154919261016085019290911690811115613dd957634e487b7160e01b600052602160045260246000fd5b6002811115613df857634e487b7160e01b600052602160045260246000fd5b8152602001600a8201805480602002602001604051908101604052809291908181526020016000905b82821015613ecd578382906000526020600020018054613e4090616134565b80601f0160208091040260200160405190810160405280929190818152602001828054613e6c90616134565b8015613eb95780601f10613e8e57610100808354040283529160200191613eb9565b820191906000526020600020905b815481529060010190602001808311613e9c57829003601f168201915b505050505081526020019060010190613e21565b505050508152602001600b8201805480602002602001604051908101604052809291908181526020018280548015613f2457602002820191906000526020600020905b815481526020019060010190808311613f10575b5050509190925250505060408181015182518251600580825260c082019094529394509092909160009190816020015b6060815260200190600190039081613f5457905050905060005b83811015611440578451600090613f869083906160a2565b600081815260146020526040812080549293509091613fa490616134565b80601f0160208091040260200160405190810160405280929190818152602001828054613fd090616134565b801561401d5780601f10613ff25761010080835404028352916020019161401d565b820191906000526020600020905b81548152906001019060200180831161400057829003601f168201915b505050505090508084848151811061404557634e487b7160e01b600052603260045260246000fd5b60200260200101819052505050808061405d9061616f565b915050613f6e565b61406d614604565b6001600160a01b031661407e612789565b6001600160a01b0316146140a45760405162461bcd60e51b8152600401610b3e90615a67565b6001600160a01b0381166140ca5760405162461bcd60e51b8152600401610b3e9061556c565b6140d381614760565b50565b6001600160a01b03811660009081526015602090815260408083208054825181850281018501909352808352849383018282801561413357602002820191906000526020600020905b81548152602001906001019080831161411f575b50505050509050806001825161414991906160ed565b8151811061416757634e487b7160e01b600052603260045260246000fd5b6020026020010151915050919050565b601d5481565b61418561449e565b336000908152601360205260409020600881015460ff16156141b95760405162461bcd60e51b8152600401610b3e906153c3565b60006141c3612558565b600154336000908152601660205260409020549192509081111561420957336000908152601660205260408120546141fc9083906145f8565b9050614207816129df565b505b336000908152601660205260409020548111156142385760405162461bcd60e51b8152600401610b3e9061544b565b601880546001818101835560008390527fb13d2d76d1f4b7be834882e410b3e3a8afaf69f83600ae24db354391d2378d2e90910180546001600160a01b03191633179055905461428891906160ed565b835560018084018054336001600160a01b0319918216811790925560028601805490911690911790556007840183905560088401805460ff19169091179055600a83015460ff166142e957600a8301805460ff1916600117905542600b8401555b336001600160a01b03167f439d77b7534ec3108fc6143bd4fbabde0b9f2bb54f7b0730d1f70dd2135b765f836040516120f291906151c0565b601054101590565b336000908152601360205260409020600a015460ff1690565b601f546001600160a01b031681565b6001600160a01b03808216600090815260136020908152604080832081516101808101835281548152600182015486169381019390935260028101549094169082015260038301546060820152600483015460ff90811615156080830152600584015460a0830152600684015460c0830152600784015460e083015260088401541615156101008201526009830180549293849390916101208401916143f790616134565b80601f016020809104026020016040519081016040528092919081815260200182805461442390616134565b80156144705780601f1061444557610100808354040283529160200191614470565b820191906000526020600020905b81548152906001019060200180831161445357829003601f168201915b5050509183525050600a82015460ff1615156020820152600b90910154604090910152606001519392505050565b601b546001600160a01b03166144c65760405162461bcd60e51b8152600401610b3e90615ca3565b601b546040516000916001600160a01b0316906144e79033906024016151f3565b60408051601f198184030181529181526020820180516001600160e01b0316631f5ac9c560e11b1790525161451c91906151c9565b6000604051808303816000865af19150503d8060008114614559576040519150601f19603f3d011682016040523d82523d6000602084013e61455e565b606091505b5050601b546040519192506000916001600160a01b03909116906145869033906024016151f3565b60408051601f198184030181529181526020820180516001600160e01b03166358563d2160e01b179052516145bb91906151c9565b6000604051808303816000865af19150503d8060008114610b0a576040519150601f19603f3d011682016040523d82523d6000602084013e610b0a565b600061174182846160ed565b3390565b6001600160a01b0381166000908152601360205260409020600881015460ff1680156146385750600a81015460ff165b6146545760405162461bcd60e51b8152600401610b3e90615a9c565b805461465f81614686565b505050565b600061174182846160a2565b600081831061467f5781611741565b5090919050565b60188054614696906001906160ed565b815481106146b457634e487b7160e01b600052603260045260246000fd5b600091825260209091200154601880546001600160a01b0390921691839081106146ee57634e487b7160e01b600052603260045260246000fd5b9060005260206000200160006101000a8154816001600160a01b0302191690836001600160a01b03160217905550601880548061473b57634e487b7160e01b600052603160045260246000fd5b600082815260209020810160001990810180546001600160a01b031916905501905550565b600080546001600160a01b038381166001600160a01b0319831681178455604051919092169283917f8be0079c531659141344cd1fd0a4f28419497f9722a3daafe3b4186f6b6457e09190a35050565b805160609060005b818110156147fe57808482815181106147e157634e487b7160e01b600052603260045260246000fd5b6020908102919091010152806147f68161616f565b9150506147b8565b509192915050565b6060600082511161481657600080fd5b81518060005b818110156149915760008361482f612b7b565b87848151811061484f57634e487b7160e01b600052603260045260246000fd5b60200260200101516040516020016148689291906151e5565b6040516020818303038152906040528051906020012060001c61488b919061618a565b6148969060016160a2565b90506000866148a66001846160ed565b815181106148c457634e487b7160e01b600052603260045260246000fd5b60200260200101519050866001866148dc91906160ed565b815181106148fa57634e487b7160e01b600052603260045260246000fd5b60200260200101518760018461491091906160ed565b8151811061492e57634e487b7160e01b600052603260045260246000fd5b602090810291909101015280876149466001886160ed565b8151811061496457634e487b7160e01b600052603260045260246000fd5b602090810291909101015261497a6001866160ed565b9450505080806149899061616f565b91505061481c565b50929392505050565b601d546000908152601e602052604090206004015462010000900460ff16151560011480156149cc5750601854600111155b156149d9576149d9612111565b6001600f60008282546149ec91906160a2565b9091555050600f546040517f94d48a7342690f1233e3f4db70efa37c4f1f25f4d0397c353f3f15aecdeca5f490600090a2565b828054614a2b90616134565b90600052602060002090601f016020900481019282614a4d5760008555614a93565b82601f10614a6657805160ff1916838001178555614a93565b82800160010185558215614a93579182015b82811115614a93578251825591602001919060010190614a78565b50614a9f929150614b36565b5090565b828054828255906000526020600020908101928215614af0579160200282015b82811115614af05782518051614ae0918491602090910190614a1f565b5091602001919060010190614ac3565b50614a9f929150614b4b565b828054828255906000526020600020908101928215614a935791602002820182811115614a93578251825591602001919060010190614a78565b5b80821115614a9f5760008155600101614b37565b80821115614a9f576000614b5f8282614b68565b50600101614b4b565b508054614b7490616134565b6000825580601f10614b8657506140d3565b601f0160209004906000526020600020908101906140d39190614b36565b80356001600160a01b0381168114610ecb57600080fd5b60008083601f840112614bcc578182fd5b5081356001600160401b03811115614be2578182fd5b6020830191508360208083028501011115614bfc57600080fd5b9250929050565b600082601f830112614c13578081fd5b81356020614c28614c2383616073565b61604a565b82815281810190858301855b85811015614c5d57614c4b898684358b0101614d03565b84529284019290840190600101614c34565b5090979650505050505050565b600082601f830112614c7a578081fd5b81356020614c8a614c2383616073565b8281528181019085830183850287018401881015614ca6578586fd5b855b85811015614c5d57813584529284019290840190600101614ca8565b60008083601f840112614cd5578182fd5b5081356001600160401b03811115614ceb578182fd5b602083019150836020828501011115614bfc57600080fd5b600082601f830112614d13578081fd5b81356001600160401b03811115614d2c57614d2c6161ca565b614d3f601f8201601f191660200161604a565b818152846020838601011115614d53578283fd5b816020850160208301379081016020019190915292915050565b600060208284031215614d7e578081fd5b61174182614ba4565b60008060408385031215614d99578081fd5b614da283614ba4565b946020939093013593505050565b600080600060608486031215614dc4578081fd5b614dcd84614ba4565b95602085013595506040909401359392505050565b60008060008060408587031215614df7578081fd5b84356001600160401b0380821115614e0d578283fd5b614e1988838901614bbb565b90965094506020870135915080821115614e31578283fd5b50614e3e87828801614bbb565b95989497509550505050565b60008060008060008060608789031215614e62578182fd5b86356001600160401b0380821115614e78578384fd5b614e848a838b01614bbb565b90985096506020890135915080821115614e9c578384fd5b614ea88a838b01614bbb565b90965094506040890135915080821115614ec0578384fd5b50614ecd89828a01614bbb565b979a9699509497509295939492505050565b600060208284031215614ef0578081fd5b81356001600160401b03811115614f05578182fd5b613b3884828501614c6a565b600060208284031215614f22578081fd5b81518015158114611741578182fd5b600080600080600080600060c0888a031215614f4b578081fd5b87356001600160401b0380821115614f61578283fd5b614f6d8b838c01614d03565b9850614f7b60208b01614ba4565b975060408a0135915080821115614f90578283fd5b614f9c8b838c01614cc4565b909750955060608a0135915080821115614fb4578283fd5b614fc08b838c01614c03565b945060808a0135915080821115614fd5578283fd5b614fe18b838c01614c6a565b935060a08a0135915080821115614ff6578283fd5b506150038a828b01614d03565b91505092959891949750929550565b600060208284031215615023578081fd5b5035919050565b6000602082840312156117b8578081fd5b6000806040838503121561504d578182fd5b50508035926020909101359150565b60008060008060808587031215615071578182fd5b843593506020850135925061508860408601614ba4565b9396929550929360600135925050565b6000806000606084860312156150ac578081fd5b505081359360208301359350604090920135919050565b6000815180845260208085018081965082840281019150828601855b858110156151095782840389526150f7848351615138565b988501989350908401906001016150df565b5091979650505050505050565b6003811061513457634e487b7160e01b600052602160045260246000fd5b9052565b60008151808452615150816020860160208601616104565b601f01601f19169290920160200192915050565b600a8152690c6dedadad2e890c2e6d60b31b602082015260400190565b60609190911b6bffffffffffffffffffffffff1916815260140190565b60609290921b6bffffffffffffffffffffffff19168252601482015260340190565b90815260200190565b600082516151db818460208701616104565b9190910192915050565b918252602082015260400190565b6001600160a01b0391909116815260200190565b60006020825261174160208301846150c3565b6020808252825182820181905260009190848201906040850190845b8181101561525257835183529284019291840191600101615236565b50909695505050505050565b901515815260200190565b600060c0825261527c60c0830189615138565b6001600160a01b03881660208401526040830187905282810360608401526152a48187615138565b905082810360808401526152b88186615138565b91505061266060a0830184615116565b6000606082526152db6060830187615138565b8281036020840152848152848660208301378160208683010152601f19601f86011681019050602083820301604084015261266060208201856150c3565b600060208083528184548360028204905060018083168061533b57607f831692505b85831081141561535957634e487b7160e01b87526022600452602487fd5b61536583878a016151c0565b818015615379576001811461538a576153b4565b60ff198616825287820196506153b4565b6153938b616096565b895b868110156153ae57815484820152908501908901615395565b83019750505b50949998505050505050505050565b6020808252601c908201527f576f726b657220697320616c7265616479207265676973746572656400000000604082015260600190565b60208082526031908201527f676976656e204461746142617463682073686f756c6420626520415050524f5660408201527011510b08185b99081a5d081a5cc81b9bdd607a1b606082015260800190565b60208082526041908201527f576f726b657220686173206e6f7420656e6f75676820285f6e756d546f6b656e60408201527f732920696e206869732053706f745374616b6564546f6b656e42616c616e63656060820152600160fd1b608082015260a00190565b6020808252605c908201527f4e6f74207468652073616d6520766f7465207468616e2077686174207761732060408201527f636f6d6d697465642c20696d706f737369626c6520746f206d6174636820776960608201527f746820676976656e205f73616c742026205f766f74654f7074696f6e00000000608082015260a00190565b6020808252601a908201527f5f446174614261746368494420686173206e6f7420656e646564000000000000604082015260600190565b60208082526026908201527f4f776e61626c653a206e6577206f776e657220697320746865207a65726f206160408201526564647265737360d01b606082015260800190565b6020808252601e908201527f636f6d6d697420706572696f64206e6565647320746f206265206f70656e0000604082015260600190565b60208082526039908201527f646c6c4d61703a20646f6573206e6f7420636f696e7461696e205f446174614260408201527f61746368494420666f7220746865206d73672073656e64657200000000000000606082015260800190565b6020808252602a908201527f5f446174614261746368494420636865636b696e6720766f7465206d757374206040820152691a185d9948195b99195960b21b606082015260800190565b6020808252602f908201527f636f756c64206e6f742072657761726420746f6b656e20696e2054726967676560408201526e3921b432b1b5a9b837ba161018973160891b606082015260800190565b6020808252602b908201527f576f726b6572206973206e6f7420617661696c61626c6520736f2063616e277460408201526a103ab73932b3b4b9ba32b960a91b606082015260800190565b6020808252603d908201527f436f756c64206e6f74207265717565737420656e6f75676820616c6c6f63617460408201527f6564207374616b652c2072657175657374566f74696e67526967687473000000606082015260800190565b60208082526011908201527005f446174614261746368494420213d203607c1b604082015260600190565b60208082526026908201527f557365722063616e206e6f742072657665616c207477696365206f6e2073616d6040820152656520766f746560d01b606082015260800190565b6020808252602f908201527f5573657220686173206e6f7420636f6d6d69746564206265666f72652c20746860408201526e1d5cc818d85b89dd081c995d99585b608a1b606082015260800190565b60208082526010908201526f05f7365637265744861736820213d20360841b604082015260600190565b60208082526014908201527311185d18481b5d5cdd081a185d9948195b99195960621b604082015260600190565b6020808252602d908201527f636f756c64206e6f74207265776172642052455020696e20547269676765724360408201526c6865636b53706f742c20312e6160981b606082015260800190565b6020808252602b908201527f75736572206d75737420686176652072657665616c656420696e20746869732060408201526a0ced2eccadc4084c2e8c6d60ab1b606082015260800190565b60208082526017908201527f5f4461746142617463684944206d757374206578697374000000000000000000604082015260600190565b6020808252601490820152733737ba1030903b30b634b2103837b9b4ba34b7b760611b604082015260600190565b6020808252603b908201527f43616e277420616c6c6f6361746520776f726b2c207468652063757272656e7460408201527f20626174636820697320616c726561647920616c6c6f63617465640000000000606082015260800190565b60208082526048908201527f55736572206e6565647320746f2068617665206265656e20616c6c6f6361746560408201527f64207468652063757272656e74206461746120626174636820746f20636f6d6d6060820152671a5d081bdb881a5d60c21b608082015260a00190565b6020808252818101527f4f776e61626c653a2063616c6c6572206973206e6f7420746865206f776e6572604082015260600190565b60208082526047908201527f72656d6f7665576f726b657246726f6d4163746976653a20576f726b6572206e60408201527f6565647320746f20626520617661696c61626c65206e6f7720616e64207265676060820152661a5cdd195c995960ca1b608082015260a00190565b60208082526029908201527f6765744e756d50617373696e67546f6b656e733a20686173686573206d75737460408201526808189948195c5d585b60ba1b606082015260800190565b6020808252601d908201527f66696c655f68617368206c656e677468206d75737420626520213d2030000000604082015260600190565b60208082526036908201527f43616e277420616c6c6f6361746520776f726b2c207468652063757272656e74604082015275206261746368206973206e6f7420636f6d706c65746560501b606082015260800190565b60208082526026908201527f52657665616c20706572696f64206e6f74206f70656e20666f7220746869732060408201526511185d18525160d21b606082015260800190565b60208082526027908201527f617661696c61626c65546f6b656e732073686f756c64206265203e3d205f6e756040820152666d546f6b656e7360c81b606082015260800190565b60208082526019908201527f557365722068617320746f206265207265676973746572656400000000000000604082015260600190565b6020808252601390820152720c081059191c995cdcc8139bdd0815985b1a59606a1b604082015260600190565b6020808252602f908201527f636f756c64206e6f742072657761726420746f6b656e20696e2054726967676560408201526e3921b432b1b5a9b837ba161019173160891b606082015260800190565b60208082526037908201527f75736572206d757374206861766520656e6f75676820766f74696e672072696760408201527f68747320616b6120616c6c6f6361746564207374616b65000000000000000000606082015260800190565b6020808252602d908201527f636f756c64206e6f74207265776172642052455020696e20547269676765724360408201526c6865636b53706f742c20322e6160981b606082015260800190565b6020808252603b908201527f436f756c64206e6f74207769746864726177566f74696e67526967687473207460408201527f68726f7567682050726f78795374616b654465616c6c6f636174650000000000606082015260800190565b6020808252600f908201526e11185d18481b5d5cdd08195e1a5cdd608a1b604082015260600190565b600085825284602083015260806040830152615e6e6080830185615138565b905082606083015295945050505050565b600083825282602083015260606040830152613b3860608301615164565b600084825283602083015260806040830152615ebb60808301615164565b9050826060830152949350505050565b9182526020820152606060408201819052600990820152686e756d546f6b656e7360b81b608082015260a00190565b93845260208401929092526040830152606082015260800190565b9182526001600160a01b0316602082015260400190565b60006101808e835260018060a01b03808f166020850152808e166040850152508b60608401528a151560808401528960a08401528860c08401528760e084015286151561010084015280610120840152615f8881840187615138565b941515610140840152505061016001529a9950505050505050505050565b9182526001600160a01b031660208201526000604082015260600190565b9283526020830191909152604082015260600190565b6000610180820190508d82528c60208301528b60408301528a6060830152891515608083015288151560a083015287151560c08301528660e0830152856101008301528461012083015283610140830152616039610160830184615116565b9d9c50505050505050505050505050565b6040518181016001600160401b038111828210171561606b5761606b6161ca565b604052919050565b60006001600160401b0382111561608c5761608c6161ca565b5060209081020190565b60009081526020902090565b600082198211156160b5576160b561619e565b500190565b6000826160c9576160c96161b4565b500490565b60008160001904831182151516156160e8576160e861619e565b500290565b6000828210156160ff576160ff61619e565b500390565b60005b8381101561611f578181015183820152602001616107565b8381111561612e576000848401525b50505050565b60028104600182168061614857607f821691505b6020821081141561616957634e487b7160e01b600052602260045260246000fd5b50919050565b60006000198214156161835761618361619e565b5060010190565b600082616199576161996161b4565b500690565b634e487b7160e01b600052601160045260246000fd5b634e487b7160e01b600052601260045260246000fd5b634e487b7160e01b600052604160045260246000fdfea2646970667358221220a9bb5004b0d200c18e7fa0bac9973253f9784dfc432a61224e8cbf4f16c5cc9a64736f6c63430008000033",
  "linkReferences": {
    "contracts/worksystems/DataSpotting.sol": {
      "AttributeStore": [
        {
          "length": 20,
          "start": 13617
        },
        {
          "length": 20,
          "start": 13725
        },
        {
          "length": 20,
          "start": 14798
        },
        {
          "length": 20,
          "start": 15190
        }
      ],
      "DLL": [
        {
          "length": 20,
          "start": 3628
        },
        {
          "length": 20,
          "start": 6056
        },
        {
          "length": 20,
          "start": 6228
        },
        {
          "length": 20,
          "start": 6531
        },
        {
          "length": 20,
          "start": 10657
        },
        {
          "length": 20,
          "start": 10837
        },
        {
          "length": 20,
          "start": 13106
        },
        {
          "length": 20,
          "start": 13268
        },
        {
          "length": 20,
          "start": 13463
        }
      ]
    }
  },
  "deployedLinkReferences": {
    "contracts/worksystems/DataSpotting.sol": {
      "AttributeStore": [
        {
          "length": 20,
          "start": 13210
        },
        {
          "length": 20,
          "start": 13318
        },
        {
          "length": 20,
          "start": 14391
        },
        {
          "length": 20,
          "start": 14783
        }
      ],
      "DLL": [
        {
          "length": 20,
          "start": 3221
        },
        {
          "length": 20,
          "start": 5649
        },
        {
          "length": 20,
          "start": 5821
        },
        {
          "length": 20,
          "start": 6124
        },
        {
          "length": 20,
          "start": 10250
        },
        {
          "length": 20,
          "start": 10430
        },
        {
          "length": 20,
          "start": 12699
        },
        {
          "length": 20,
          "start": 12861
        },
        {
          "length": 20,
          "start": 13056
        }
      ]
    }
  }
}