{
  "_format": "hh-sol-artifact-1",
  "contractName": "DataSpotting",
  "sourceName": "contracts/worksystems/DataSpotting.sol",
  "abi": [
    {
      "inputs": [
        {
          "internalType": "address",
          "name": "EXDT_token",
          "type": "address"
        }
      ],
      "stateMutability": "nonpayable",
      "type": "constructor"
    },
    {
      "anonymous": false,
      "inputs": [
        {
          "indexed": true,
          "internalType": "address",
          "name": "previousOwner",
          "type": "address"
        },
        {
          "indexed": true,
          "internalType": "address",
          "name": "newOwner",
          "type": "address"
        }
      ],
      "name": "OwnershipTransferred",
      "type": "event"
    },
    {
      "anonymous": false,
      "inputs": [
        {
          "indexed": true,
          "internalType": "uint256",
          "name": "epochNumber",
          "type": "uint256"
        }
      ],
      "name": "_NewEpoch",
      "type": "event"
    },
    {
      "anonymous": false,
      "inputs": [
        {
          "indexed": false,
          "internalType": "string",
          "name": "hash",
          "type": "string"
        },
        {
          "indexed": true,
          "internalType": "address",
          "name": "creator",
          "type": "address"
        }
      ],
      "name": "_SpotAccepted",
      "type": "event"
    },
    {
      "anonymous": false,
      "inputs": [
        {
          "indexed": true,
          "internalType": "uint256",
          "name": "DataID",
          "type": "uint256"
        },
        {
          "indexed": false,
          "internalType": "uint256",
          "name": "numTokens",
          "type": "uint256"
        },
        {
          "indexed": true,
          "internalType": "address",
          "name": "voter",
          "type": "address"
        }
      ],
      "name": "_SpotCheckCommitted",
      "type": "event"
    },
    {
      "anonymous": false,
      "inputs": [
        {
          "indexed": true,
          "internalType": "uint256",
          "name": "DataID",
          "type": "uint256"
        },
        {
          "indexed": false,
          "internalType": "uint256",
          "name": "numTokens",
          "type": "uint256"
        },
        {
          "indexed": false,
          "internalType": "uint256",
          "name": "votesFor",
          "type": "uint256"
        },
        {
          "indexed": false,
          "internalType": "uint256",
          "name": "votesAgainst",
          "type": "uint256"
        },
        {
          "indexed": true,
          "internalType": "uint256",
          "name": "choice",
          "type": "uint256"
        },
        {
          "indexed": true,
          "internalType": "address",
          "name": "voter",
          "type": "address"
        }
      ],
      "name": "_SpotCheckRevealed",
      "type": "event"
    },
    {
      "anonymous": false,
      "inputs": [
        {
          "indexed": true,
          "internalType": "uint256",
          "name": "DataID",
          "type": "uint256"
        },
        {
          "indexed": false,
          "internalType": "string",
          "name": "file_hash",
          "type": "string"
        },
        {
          "indexed": false,
          "internalType": "string",
          "name": "URL_domain",
          "type": "string"
        },
        {
          "indexed": false,
          "internalType": "string[]",
          "name": "tags",
          "type": "string[]"
        },
        {
          "indexed": true,
          "internalType": "address",
          "name": "sender",
          "type": "address"
        }
      ],
      "name": "_SpotSubmitted",
      "type": "event"
    },
    {
      "anonymous": false,
      "inputs": [
        {
          "indexed": true,
          "internalType": "uint256",
          "name": "DataID",
          "type": "uint256"
        },
        {
          "indexed": true,
          "internalType": "address",
          "name": "voter",
          "type": "address"
        }
      ],
      "name": "_TokensRescued",
      "type": "event"
    },
    {
      "anonymous": false,
      "inputs": [
        {
          "indexed": false,
          "internalType": "uint256",
          "name": "numTokens",
          "type": "uint256"
        },
        {
          "indexed": true,
          "internalType": "address",
          "name": "voter",
          "type": "address"
        }
      ],
      "name": "_VotingRightsGranted",
      "type": "event"
    },
    {
      "anonymous": false,
      "inputs": [
        {
          "indexed": false,
          "internalType": "uint256",
          "name": "numTokens",
          "type": "uint256"
        },
        {
          "indexed": true,
          "internalType": "address",
          "name": "voter",
          "type": "address"
        }
      ],
      "name": "_VotingRightsWithdrawn",
      "type": "event"
    },
    {
      "anonymous": false,
      "inputs": [
        {
          "indexed": true,
          "internalType": "uint256",
          "name": "batchID",
          "type": "uint256"
        },
        {
          "indexed": false,
          "internalType": "address",
          "name": "worker",
          "type": "address"
        }
      ],
      "name": "_WorkAllocated",
      "type": "event"
    },
    {
      "anonymous": false,
      "inputs": [
        {
          "indexed": true,
          "internalType": "address",
          "name": "worker",
          "type": "address"
        },
        {
          "indexed": false,
          "internalType": "uint256",
          "name": "timestamp",
          "type": "uint256"
        }
      ],
      "name": "_WorkerRegistered",
      "type": "event"
    },
    {
      "anonymous": false,
      "inputs": [
        {
          "indexed": true,
          "internalType": "address",
          "name": "worker",
          "type": "address"
        },
        {
          "indexed": false,
          "internalType": "uint256",
          "name": "timestamp",
          "type": "uint256"
        }
      ],
      "name": "_WorkerUnregistered",
      "type": "event"
    },
    {
      "inputs": [],
      "name": "AddressManager",
      "outputs": [
        {
          "internalType": "contract IAddressManager",
          "name": "",
          "type": "address"
        }
      ],
      "stateMutability": "view",
      "type": "function"
    },
    {
      "inputs": [],
      "name": "AllocateWork",
      "outputs": [],
      "stateMutability": "nonpayable",
      "type": "function"
    },
    {
      "inputs": [],
      "name": "AmIRegistered",
      "outputs": [
        {
          "internalType": "bool",
          "name": "passed",
          "type": "bool"
        }
      ],
      "stateMutability": "view",
      "type": "function"
    },
    {
      "inputs": [],
      "name": "COMMIT_ROUND_DURATION",
      "outputs": [
        {
          "internalType": "uint256",
          "name": "",
          "type": "uint256"
        }
      ],
      "stateMutability": "view",
      "type": "function"
    },
    {
      "inputs": [],
      "name": "ChecksNonce",
      "outputs": [
        {
          "internalType": "uint256",
          "name": "",
          "type": "uint256"
        }
      ],
      "stateMutability": "view",
      "type": "function"
    },
    {
      "inputs": [],
      "name": "CurrentWorkEpoch",
      "outputs": [
        {
          "internalType": "uint256",
          "name": "",
          "type": "uint256"
        }
      ],
      "stateMutability": "view",
      "type": "function"
    },
    {
      "inputs": [
        {
          "internalType": "uint256",
          "name": "",
          "type": "uint256"
        }
      ],
      "name": "DataBatch",
      "outputs": [
        {
          "internalType": "uint256",
          "name": "start_idx",
          "type": "uint256"
        },
        {
          "internalType": "uint256",
          "name": "end_idx",
          "type": "uint256"
        },
        {
          "internalType": "uint256",
          "name": "counter",
          "type": "uint256"
        },
        {
          "internalType": "uint256",
          "name": "unrevealed_workers",
          "type": "uint256"
        },
        {
          "internalType": "bool",
          "name": "complete",
          "type": "bool"
        },
        {
          "internalType": "bool",
          "name": "checked",
          "type": "bool"
        },
        {
          "internalType": "bool",
          "name": "allocated_to_work",
          "type": "bool"
        },
        {
          "internalType": "uint256",
          "name": "commitEndDate",
          "type": "uint256"
        },
        {
          "internalType": "uint256",
          "name": "revealEndDate",
          "type": "uint256"
        },
        {
          "internalType": "uint256",
          "name": "votesFor",
          "type": "uint256"
        },
        {
          "internalType": "uint256",
          "name": "votesAgainst",
          "type": "uint256"
        },
        {
          "internalType": "enum DataSpotting.DataSatus",
          "name": "status",
          "type": "uint8"
        }
      ],
      "stateMutability": "view",
      "type": "function"
    },
    {
      "inputs": [
        {
          "internalType": "uint256",
          "name": "_DataBatchID",
          "type": "uint256"
        }
      ],
      "name": "DataCommitEndDate",
      "outputs": [
        {
          "internalType": "uint256",
          "name": "commitEndDate",
          "type": "uint256"
        }
      ],
      "stateMutability": "view",
      "type": "function"
    },
    {
      "inputs": [
        {
          "internalType": "uint256",
          "name": "_DataBatchID",
          "type": "uint256"
        }
      ],
      "name": "DataEnded",
      "outputs": [
        {
          "internalType": "bool",
          "name": "ended",
          "type": "bool"
        }
      ],
      "stateMutability": "view",
      "type": "function"
    },
    {
      "inputs": [
        {
          "internalType": "uint256",
          "name": "_DataBatchID",
          "type": "uint256"
        }
      ],
      "name": "DataExists",
      "outputs": [
        {
          "internalType": "bool",
          "name": "exists",
          "type": "bool"
        }
      ],
      "stateMutability": "view",
      "type": "function"
    },
    {
      "inputs": [],
      "name": "DataNonce",
      "outputs": [
        {
          "internalType": "uint256",
          "name": "",
          "type": "uint256"
        }
      ],
      "stateMutability": "view",
      "type": "function"
    },
    {
      "inputs": [
        {
          "internalType": "uint256",
          "name": "_DataBatchID",
          "type": "uint256"
        }
      ],
      "name": "DataRevealEndDate",
      "outputs": [
        {
          "internalType": "uint256",
          "name": "revealEndDate",
          "type": "uint256"
        }
      ],
      "stateMutability": "view",
      "type": "function"
    },
    {
      "inputs": [
        {
          "internalType": "address",
          "name": "user_",
          "type": "address"
        }
      ],
      "name": "GetCurrentWork",
      "outputs": [
        {
          "internalType": "uint256",
          "name": "",
          "type": "uint256"
        }
      ],
      "stateMutability": "view",
      "type": "function"
    },
    {
      "inputs": [
        {
          "internalType": "address",
          "name": "user_",
          "type": "address"
        }
      ],
      "name": "IsNewWorkAvailable",
      "outputs": [
        {
          "internalType": "bool",
          "name": "",
          "type": "bool"
        }
      ],
      "stateMutability": "view",
      "type": "function"
    },
    {
      "inputs": [],
      "name": "MIN_PARTICIPANTS_FOR_VALIDITY",
      "outputs": [
        {
          "internalType": "uint256",
          "name": "",
          "type": "uint256"
        }
      ],
      "stateMutability": "view",
      "type": "function"
    },
    {
      "inputs": [],
      "name": "MIN_REP_Data",
      "outputs": [
        {
          "internalType": "uint256",
          "name": "",
          "type": "uint256"
        }
      ],
      "stateMutability": "view",
      "type": "function"
    },
    {
      "inputs": [],
      "name": "MIN_REP_REVEAL",
      "outputs": [
        {
          "internalType": "uint256",
          "name": "",
          "type": "uint256"
        }
      ],
      "stateMutability": "view",
      "type": "function"
    },
    {
      "inputs": [],
      "name": "MIN_REWARD_Data",
      "outputs": [
        {
          "internalType": "uint256",
          "name": "",
          "type": "uint256"
        }
      ],
      "stateMutability": "view",
      "type": "function"
    },
    {
      "inputs": [],
      "name": "MIN_REWARD_REVEAL",
      "outputs": [
        {
          "internalType": "uint256",
          "name": "",
          "type": "uint256"
        }
      ],
      "stateMutability": "view",
      "type": "function"
    },
    {
      "inputs": [],
      "name": "MIN_STAKE",
      "outputs": [
        {
          "internalType": "uint256",
          "name": "",
          "type": "uint256"
        }
      ],
      "stateMutability": "view",
      "type": "function"
    },
    {
      "inputs": [
        {
          "internalType": "address",
          "name": "",
          "type": "address"
        },
        {
          "internalType": "uint256",
          "name": "",
          "type": "uint256"
        }
      ],
      "name": "MasterWorkers",
      "outputs": [
        {
          "internalType": "address",
          "name": "",
          "type": "address"
        }
      ],
      "stateMutability": "view",
      "type": "function"
    },
    {
      "inputs": [],
      "name": "REVEAL_ROUND_DURATION",
      "outputs": [
        {
          "internalType": "uint256",
          "name": "",
          "type": "uint256"
        }
      ],
      "stateMutability": "view",
      "type": "function"
    },
    {
      "inputs": [],
      "name": "RegisterWorker",
      "outputs": [],
      "stateMutability": "nonpayable",
      "type": "function"
    },
    {
      "inputs": [],
      "name": "RepManager",
      "outputs": [
        {
          "internalType": "contract IRepManager",
          "name": "",
          "type": "address"
        }
      ],
      "stateMutability": "view",
      "type": "function"
    },
    {
      "inputs": [],
      "name": "RewardManager",
      "outputs": [
        {
          "internalType": "contract IRewardManager",
          "name": "",
          "type": "address"
        }
      ],
      "stateMutability": "view",
      "type": "function"
    },
    {
      "inputs": [],
      "name": "SPOT_CHECK_VOTE_QUORUM",
      "outputs": [
        {
          "internalType": "uint256",
          "name": "",
          "type": "uint256"
        }
      ],
      "stateMutability": "view",
      "type": "function"
    },
    {
      "inputs": [
        {
          "internalType": "string[]",
          "name": "file_hashs",
          "type": "string[]"
        },
        {
          "internalType": "address",
          "name": "main_worker_account",
          "type": "address"
        },
        {
          "internalType": "string[]",
          "name": "URL_domains",
          "type": "string[]"
        },
        {
          "internalType": "string[]",
          "name": "tags_",
          "type": "string[]"
        },
        {
          "internalType": "uint256[]",
          "name": "tags_id_",
          "type": "uint256[]"
        },
        {
          "internalType": "string",
          "name": "extra_",
          "type": "string"
        }
      ],
      "name": "SpotData",
      "outputs": [
        {
          "internalType": "uint256",
          "name": "Dataid_",
          "type": "uint256"
        }
      ],
      "stateMutability": "nonpayable",
      "type": "function"
    },
    {
      "inputs": [
        {
          "internalType": "address",
          "name": "",
          "type": "address"
        }
      ],
      "name": "SpotStakedTokenBalance",
      "outputs": [
        {
          "internalType": "uint256",
          "name": "",
          "type": "uint256"
        }
      ],
      "stateMutability": "view",
      "type": "function"
    },
    {
      "inputs": [
        {
          "internalType": "uint256",
          "name": "",
          "type": "uint256"
        }
      ],
      "name": "SpotsMapping",
      "outputs": [
        {
          "internalType": "string",
          "name": "ipfs_hash",
          "type": "string"
        },
        {
          "internalType": "address",
          "name": "author",
          "type": "address"
        },
        {
          "internalType": "uint256",
          "name": "timestamp",
          "type": "uint256"
        },
        {
          "internalType": "string",
          "name": "URL_domain",
          "type": "string"
        },
        {
          "internalType": "string",
          "name": "extra",
          "type": "string"
        },
        {
          "internalType": "enum DataSpotting.DataSatus",
          "name": "status",
          "type": "uint8"
        }
      ],
      "stateMutability": "view",
      "type": "function"
    },
    {
      "inputs": [],
      "name": "StakeManager",
      "outputs": [
        {
          "internalType": "contract IStakeManager",
          "name": "",
          "type": "address"
        }
      ],
      "stateMutability": "view",
      "type": "function"
    },
    {
      "inputs": [
        {
          "internalType": "uint256",
          "name": "_DataBatchID",
          "type": "uint256"
        }
      ],
      "name": "TriggerCheckSpottedData",
      "outputs": [],
      "stateMutability": "nonpayable",
      "type": "function"
    },
    {
      "inputs": [],
      "name": "UnregisterWorker",
      "outputs": [],
      "stateMutability": "nonpayable",
      "type": "function"
    },
    {
      "inputs": [],
      "name": "WorkersNonce",
      "outputs": [
        {
          "internalType": "uint256",
          "name": "",
          "type": "uint256"
        }
      ],
      "stateMutability": "view",
      "type": "function"
    },
    {
      "inputs": [
        {
          "internalType": "address",
          "name": "",
          "type": "address"
        }
      ],
      "name": "WorkersState",
      "outputs": [
        {
          "internalType": "uint256",
          "name": "array_idx",
          "type": "uint256"
        },
        {
          "internalType": "address",
          "name": "worker_address",
          "type": "address"
        },
        {
          "internalType": "address",
          "name": "master_address",
          "type": "address"
        },
        {
          "internalType": "uint256",
          "name": "allocated_work_batch",
          "type": "uint256"
        },
        {
          "internalType": "bool",
          "name": "has_completed_work",
          "type": "bool"
        },
        {
          "internalType": "uint256",
          "name": "work_epoch_deadline",
          "type": "uint256"
        },
        {
          "internalType": "uint256",
          "name": "last_worked_round",
          "type": "uint256"
        },
        {
          "internalType": "uint256",
          "name": "last_interaction_date",
          "type": "uint256"
        },
        {
          "internalType": "bool",
          "name": "is_available_now",
          "type": "bool"
        },
        {
          "internalType": "string",
          "name": "extra",
          "type": "string"
        },
        {
          "internalType": "bool",
          "name": "registered",
          "type": "bool"
        },
        {
          "internalType": "uint256",
          "name": "registration_date",
          "type": "uint256"
        }
      ],
      "stateMutability": "view",
      "type": "function"
    },
    {
      "inputs": [
        {
          "internalType": "address",
          "name": "_user",
          "type": "address"
        },
        {
          "internalType": "uint256",
          "name": "_DataBatchID",
          "type": "uint256"
        }
      ],
      "name": "attrUUID",
      "outputs": [
        {
          "internalType": "bytes32",
          "name": "UUID",
          "type": "bytes32"
        }
      ],
      "stateMutability": "pure",
      "type": "function"
    },
    {
      "inputs": [
        {
          "internalType": "uint256",
          "name": "",
          "type": "uint256"
        }
      ],
      "name": "availableWorkers",
      "outputs": [
        {
          "internalType": "address",
          "name": "",
          "type": "address"
        }
      ],
      "stateMutability": "view",
      "type": "function"
    },
    {
      "inputs": [
        {
          "internalType": "uint256",
          "name": "",
          "type": "uint256"
        }
      ],
      "name": "busyWorkers",
      "outputs": [
        {
          "internalType": "address",
          "name": "",
          "type": "address"
        }
      ],
      "stateMutability": "view",
      "type": "function"
    },
    {
      "inputs": [
        {
          "internalType": "uint256",
          "name": "_DataBatchID",
          "type": "uint256"
        }
      ],
      "name": "commitPeriodActive",
      "outputs": [
        {
          "internalType": "bool",
          "name": "active",
          "type": "bool"
        }
      ],
      "stateMutability": "view",
      "type": "function"
    },
    {
      "inputs": [
        {
          "internalType": "uint256",
          "name": "_DataBatchID",
          "type": "uint256"
        },
        {
          "internalType": "bytes32",
          "name": "_secretHash",
          "type": "bytes32"
        }
      ],
      "name": "commitSpotCheck",
      "outputs": [],
      "stateMutability": "nonpayable",
      "type": "function"
    },
    {
      "inputs": [
        {
          "internalType": "uint256[]",
          "name": "_DataBatchIDs",
          "type": "uint256[]"
        },
        {
          "internalType": "bytes32[]",
          "name": "_secretHashes",
          "type": "bytes32[]"
        }
      ],
      "name": "commitSpotChecks",
      "outputs": [],
      "stateMutability": "nonpayable",
      "type": "function"
    },
    {
      "inputs": [],
      "name": "current_batch_nounce",
      "outputs": [
        {
          "internalType": "uint256",
          "name": "",
          "type": "uint256"
        }
      ],
      "stateMutability": "view",
      "type": "function"
    },
    {
      "inputs": [
        {
          "internalType": "address",
          "name": "_voter",
          "type": "address"
        },
        {
          "internalType": "uint256",
          "name": "_DataBatchID",
          "type": "uint256"
        }
      ],
      "name": "didCommit",
      "outputs": [
        {
          "internalType": "bool",
          "name": "committed",
          "type": "bool"
        }
      ],
      "stateMutability": "view",
      "type": "function"
    },
    {
      "inputs": [
        {
          "internalType": "address",
          "name": "_voter",
          "type": "address"
        },
        {
          "internalType": "uint256",
          "name": "_DataBatchID",
          "type": "uint256"
        }
      ],
      "name": "didReveal",
      "outputs": [
        {
          "internalType": "bool",
          "name": "revealed",
          "type": "bool"
        }
      ],
      "stateMutability": "view",
      "type": "function"
    },
    {
      "inputs": [],
      "name": "getBlockTimestamp",
      "outputs": [
        {
          "internalType": "uint256",
          "name": "blocktimestamp",
          "type": "uint256"
        }
      ],
      "stateMutability": "view",
      "type": "function"
    },
    {
      "inputs": [
        {
          "internalType": "address",
          "name": "_voter",
          "type": "address"
        },
        {
          "internalType": "uint256",
          "name": "_DataBatchID",
          "type": "uint256"
        }
      ],
      "name": "getCommitHash",
      "outputs": [
        {
          "internalType": "bytes32",
          "name": "commitHash",
          "type": "bytes32"
        }
      ],
      "stateMutability": "view",
      "type": "function"
    },
    {
      "inputs": [
        {
          "internalType": "uint256",
          "name": "_DataBatchID",
          "type": "uint256"
        }
      ],
      "name": "getDomainsForBatch",
      "outputs": [
        {
          "internalType": "string[]",
          "name": "ipfs_hash_list",
          "type": "string[]"
        }
      ],
      "stateMutability": "view",
      "type": "function"
    },
    {
      "inputs": [
        {
          "internalType": "uint256",
          "name": "_voteOption",
          "type": "uint256"
        },
        {
          "internalType": "uint256",
          "name": "_salt",
          "type": "uint256"
        }
      ],
      "name": "getEncryptedHash",
      "outputs": [
        {
          "internalType": "bytes32",
          "name": "keccak256hash",
          "type": "bytes32"
        }
      ],
      "stateMutability": "view",
      "type": "function"
    },
    {
      "inputs": [
        {
          "internalType": "uint256",
          "name": "a",
          "type": "uint256"
        },
        {
          "internalType": "uint256",
          "name": "b",
          "type": "uint256"
        }
      ],
      "name": "getHash",
      "outputs": [
        {
          "internalType": "bytes32",
          "name": "keccak256hash",
          "type": "bytes32"
        }
      ],
      "stateMutability": "pure",
      "type": "function"
    },
    {
      "inputs": [
        {
          "internalType": "uint256",
          "name": "_DataBatchID",
          "type": "uint256"
        }
      ],
      "name": "getIPFShashesForBatch",
      "outputs": [
        {
          "internalType": "string[]",
          "name": "ipfs_hash_list",
          "type": "string[]"
        }
      ],
      "stateMutability": "view",
      "type": "function"
    },
    {
      "inputs": [
        {
          "internalType": "address",
          "name": "_voter",
          "type": "address"
        },
        {
          "internalType": "uint256",
          "name": "_numTokens",
          "type": "uint256"
        },
        {
          "internalType": "uint256",
          "name": "_DataBatchID",
          "type": "uint256"
        }
      ],
      "name": "getInsertPointForNumTokens",
      "outputs": [
        {
          "internalType": "uint256",
          "name": "prevNode",
          "type": "uint256"
        }
      ],
      "stateMutability": "view",
      "type": "function"
    },
    {
      "inputs": [],
      "name": "getLastDataId",
      "outputs": [
        {
          "internalType": "uint256",
          "name": "DataId",
          "type": "uint256"
        }
      ],
      "stateMutability": "view",
      "type": "function"
    },
    {
      "inputs": [
        {
          "internalType": "address",
          "name": "_voter",
          "type": "address"
        }
      ],
      "name": "getLastNode",
      "outputs": [
        {
          "internalType": "uint256",
          "name": "DataID",
          "type": "uint256"
        }
      ],
      "stateMutability": "view",
      "type": "function"
    },
    {
      "inputs": [
        {
          "internalType": "address",
          "name": "user",
          "type": "address"
        }
      ],
      "name": "getLastUserDataId",
      "outputs": [
        {
          "internalType": "uint256",
          "name": "DataId",
          "type": "uint256"
        }
      ],
      "stateMutability": "view",
      "type": "function"
    },
    {
      "inputs": [
        {
          "internalType": "address",
          "name": "_voter",
          "type": "address"
        }
      ],
      "name": "getLockedTokens",
      "outputs": [
        {
          "internalType": "uint256",
          "name": "numTokens",
          "type": "uint256"
        }
      ],
      "stateMutability": "view",
      "type": "function"
    },
    {
      "inputs": [
        {
          "internalType": "address",
          "name": "_voter",
          "type": "address"
        },
        {
          "internalType": "uint256",
          "name": "_DataBatchID",
          "type": "uint256"
        },
        {
          "internalType": "uint256",
          "name": "_salt",
          "type": "uint256"
        }
      ],
      "name": "getNumPassingTokens",
      "outputs": [
        {
          "internalType": "uint256",
          "name": "correctSpotChecks",
          "type": "uint256"
        }
      ],
      "stateMutability": "view",
      "type": "function"
    },
    {
      "inputs": [
        {
          "internalType": "address",
          "name": "_voter",
          "type": "address"
        },
        {
          "internalType": "uint256",
          "name": "_DataBatchID",
          "type": "uint256"
        }
      ],
      "name": "getNumTokens",
      "outputs": [
        {
          "internalType": "uint256",
          "name": "numTokens",
          "type": "uint256"
        }
      ],
      "stateMutability": "view",
      "type": "function"
    },
    {
      "inputs": [],
      "name": "getRandom",
      "outputs": [
        {
          "internalType": "uint256",
          "name": "",
          "type": "uint256"
        }
      ],
      "stateMutability": "view",
      "type": "function"
    },
    {
      "inputs": [],
      "name": "getSeed",
      "outputs": [
        {
          "internalType": "bytes32",
          "name": "addr",
          "type": "bytes32"
        }
      ],
      "stateMutability": "view",
      "type": "function"
    },
    {
      "inputs": [
        {
          "internalType": "uint256",
          "name": "_DataBatchID",
          "type": "uint256"
        }
      ],
      "name": "getTotalNumberOfSpotChecks",
      "outputs": [
        {
          "internalType": "uint256",
          "name": "vc",
          "type": "uint256"
        }
      ],
      "stateMutability": "view",
      "type": "function"
    },
    {
      "inputs": [
        {
          "internalType": "uint256",
          "name": "_DataBatchID",
          "type": "uint256"
        }
      ],
      "name": "getTotalNumberOfTokensForWinningOption",
      "outputs": [
        {
          "internalType": "uint256",
          "name": "numTokens",
          "type": "uint256"
        }
      ],
      "stateMutability": "view",
      "type": "function"
    },
    {
      "inputs": [
        {
          "internalType": "address",
          "name": "user",
          "type": "address"
        }
      ],
      "name": "getUserDatas",
      "outputs": [
        {
          "internalType": "uint256[]",
          "name": "user_Datas",
          "type": "uint256[]"
        }
      ],
      "stateMutability": "view",
      "type": "function"
    },
    {
      "inputs": [
        {
          "internalType": "uint256",
          "name": "_terminationDate",
          "type": "uint256"
        }
      ],
      "name": "isExpired",
      "outputs": [
        {
          "internalType": "bool",
          "name": "expired",
          "type": "bool"
        }
      ],
      "stateMutability": "view",
      "type": "function"
    },
    {
      "inputs": [
        {
          "internalType": "uint256",
          "name": "_DataBatchID",
          "type": "uint256"
        }
      ],
      "name": "isPassed",
      "outputs": [
        {
          "internalType": "bool",
          "name": "passed",
          "type": "bool"
        }
      ],
      "stateMutability": "view",
      "type": "function"
    },
    {
      "inputs": [
        {
          "internalType": "address",
          "name": "_worker",
          "type": "address"
        }
      ],
      "name": "isWorkerRegistered",
      "outputs": [
        {
          "internalType": "bool",
          "name": "passed",
          "type": "bool"
        }
      ],
      "stateMutability": "view",
      "type": "function"
    },
    {
      "inputs": [],
      "name": "last_checked_batch_nounce",
      "outputs": [
        {
          "internalType": "uint256",
          "name": "",
          "type": "uint256"
        }
      ],
      "stateMutability": "view",
      "type": "function"
    },
    {
      "inputs": [],
      "name": "owner",
      "outputs": [
        {
          "internalType": "address",
          "name": "",
          "type": "address"
        }
      ],
      "stateMutability": "view",
      "type": "function"
    },
    {
      "inputs": [
        {
          "internalType": "uint256",
          "name": "k",
          "type": "uint256"
        },
        {
          "internalType": "uint256",
          "name": "N",
          "type": "uint256"
        }
      ],
      "name": "random_selection",
      "outputs": [
        {
          "internalType": "uint256[]",
          "name": "",
          "type": "uint256[]"
        }
      ],
      "stateMutability": "view",
      "type": "function"
    },
    {
      "inputs": [],
      "name": "renounceOwnership",
      "outputs": [],
      "stateMutability": "nonpayable",
      "type": "function"
    },
    {
      "inputs": [
        {
          "internalType": "uint256",
          "name": "_numTokens",
          "type": "uint256"
        }
      ],
      "name": "requestVotingRights",
      "outputs": [],
      "stateMutability": "nonpayable",
      "type": "function"
    },
    {
      "inputs": [
        {
          "internalType": "uint256",
          "name": "_DataBatchID",
          "type": "uint256"
        }
      ],
      "name": "rescueTokens",
      "outputs": [],
      "stateMutability": "nonpayable",
      "type": "function"
    },
    {
      "inputs": [
        {
          "internalType": "uint256[]",
          "name": "_DataBatchIDs",
          "type": "uint256[]"
        }
      ],
      "name": "rescueTokensInMultipleDatas",
      "outputs": [],
      "stateMutability": "nonpayable",
      "type": "function"
    },
    {
      "inputs": [
        {
          "internalType": "uint256",
          "name": "_DataBatchID",
          "type": "uint256"
        }
      ],
      "name": "revealPeriodActive",
      "outputs": [
        {
          "internalType": "bool",
          "name": "active",
          "type": "bool"
        }
      ],
      "stateMutability": "view",
      "type": "function"
    },
    {
      "inputs": [
        {
          "internalType": "uint256",
          "name": "_DataBatchID",
          "type": "uint256"
        },
        {
          "internalType": "uint256",
          "name": "_voteOption",
          "type": "uint256"
        },
        {
          "internalType": "uint256",
          "name": "_salt",
          "type": "uint256"
        }
      ],
      "name": "revealSpotCheck",
      "outputs": [],
      "stateMutability": "nonpayable",
      "type": "function"
    },
    {
      "inputs": [
        {
          "internalType": "uint256[]",
          "name": "_DataBatchIDs",
          "type": "uint256[]"
        },
        {
          "internalType": "uint256[]",
          "name": "_voteOptions",
          "type": "uint256[]"
        },
        {
          "internalType": "uint256[]",
          "name": "_salts",
          "type": "uint256[]"
        }
      ],
      "name": "revealSpotChecks",
      "outputs": [],
      "stateMutability": "nonpayable",
      "type": "function"
    },
    {
      "inputs": [],
      "name": "sFuel",
      "outputs": [
        {
          "internalType": "address",
          "name": "",
          "type": "address"
        }
      ],
      "stateMutability": "view",
      "type": "function"
    },
    {
      "inputs": [
        {
          "internalType": "uint256",
          "name": "N",
          "type": "uint256"
        }
      ],
      "name": "shuffle_array",
      "outputs": [
        {
          "internalType": "uint256[]",
          "name": "",
          "type": "uint256[]"
        }
      ],
      "stateMutability": "view",
      "type": "function"
    },
    {
      "inputs": [],
      "name": "token",
      "outputs": [
        {
          "internalType": "contract IERC20",
          "name": "",
          "type": "address"
        }
      ],
      "stateMutability": "view",
      "type": "function"
    },
    {
      "inputs": [
        {
          "internalType": "address",
          "name": "newOwner",
          "type": "address"
        }
      ],
      "name": "transferOwnership",
      "outputs": [],
      "stateMutability": "nonpayable",
      "type": "function"
    },
    {
      "inputs": [
        {
          "internalType": "address",
          "name": "addr",
          "type": "address"
        }
      ],
      "name": "updateAddressManager",
      "outputs": [],
      "stateMutability": "nonpayable",
      "type": "function"
    },
    {
      "inputs": [
        {
          "internalType": "uint256",
          "name": "COMMIT_ROUND_DURATION_",
          "type": "uint256"
        }
      ],
      "name": "updateCommitRoundDuration",
      "outputs": [],
      "stateMutability": "nonpayable",
      "type": "function"
    },
    {
      "inputs": [
        {
          "internalType": "address",
          "name": "addr",
          "type": "address"
        }
      ],
      "name": "updateRepManager",
      "outputs": [],
      "stateMutability": "nonpayable",
      "type": "function"
    },
    {
      "inputs": [
        {
          "internalType": "uint256",
          "name": "REVEAL_ROUND_DURATION_",
          "type": "uint256"
        }
      ],
      "name": "updateRevealRoundDuration",
      "outputs": [],
      "stateMutability": "nonpayable",
      "type": "function"
    },
    {
      "inputs": [
        {
          "internalType": "address",
          "name": "addr",
          "type": "address"
        }
      ],
      "name": "updateRewardManager",
      "outputs": [],
      "stateMutability": "nonpayable",
      "type": "function"
    },
    {
      "inputs": [
        {
          "internalType": "address",
          "name": "addr",
          "type": "address"
        }
      ],
      "name": "updateStakeManager",
      "outputs": [],
      "stateMutability": "nonpayable",
      "type": "function"
    },
    {
      "inputs": [
        {
          "internalType": "address",
          "name": "sFuel_",
          "type": "address"
        }
      ],
      "name": "updatesFuelFaucet",
      "outputs": [],
      "stateMutability": "nonpayable",
      "type": "function"
    },
    {
      "inputs": [
        {
          "internalType": "address",
          "name": "",
          "type": "address"
        },
        {
          "internalType": "uint256",
          "name": "",
          "type": "uint256"
        }
      ],
      "name": "userSubmissions",
      "outputs": [
        {
          "internalType": "uint256",
          "name": "",
          "type": "uint256"
        }
      ],
      "stateMutability": "view",
      "type": "function"
    },
    {
      "inputs": [
        {
          "internalType": "uint256",
          "name": "_prevID",
          "type": "uint256"
        },
        {
          "internalType": "uint256",
          "name": "_nextID",
          "type": "uint256"
        },
        {
          "internalType": "address",
          "name": "_voter",
          "type": "address"
        },
        {
          "internalType": "uint256",
          "name": "_numTokens",
          "type": "uint256"
        }
      ],
      "name": "validPosition",
      "outputs": [
        {
          "internalType": "bool",
          "name": "APPROVED",
          "type": "bool"
        }
      ],
      "stateMutability": "view",
      "type": "function"
    },
    {
      "inputs": [
        {
          "internalType": "uint256",
          "name": "_numTokens",
          "type": "uint256"
        }
      ],
      "name": "withdrawVotingRights",
      "outputs": [],
      "stateMutability": "nonpayable",
      "type": "function"
    }
  ],
  "bytecode": "0x6080604052678ac7230489e8000060058190556802b5e3af16b18800006006819055600791909155600855603c6009556000600f819055601081905560118190556012819055601b80546001600160a01b0319167314f52f3fc010ab6ca81568d4a6794d5eab3c6155179055601c819055601d553480156200008057600080fd5b50604051620063d4380380620063d4833981016040819052620000a39162000157565b620000b7620000b162000103565b62000107565b601f80546001600160a01b0319166001600160a01b03929092169190911790556000601081905560115568056bc75e2d631000006001908155600255601e600381905560045562000187565b3390565b600080546001600160a01b038381166001600160a01b0319831681178455604051919092169283917f8be0079c531659141344cd1fd0a4f28419497f9722a3daafe3b4186f6b6457e09190a35050565b60006020828403121562000169578081fd5b81516001600160a01b038116811462000180578182fd5b9392505050565b61623d80620001976000396000f3fe608060405234801561001057600080fd5b50600436106104d85760003560e01c8063821aa8c011610283578063cb1c2b5c1161015c578063e7b1d43c116100ce578063f443d5b711610092578063f443d5b714610a45578063f716596d14610a4d578063f721de4a14610a55578063f80a23fd14610a68578063fc0c546a14610a70578063fca4956314610a78576104d8565b8063e7b1d43c146109e6578063e8e9b6f9146109f9578063ed8becfa14610a0c578063f2fde38b14610a1f578063f343894614610a32576104d8565b8063d9548e5311610120578063d9548e531461097f578063dd61868214610992578063df05368e146109a5578063e44c974b146109b8578063e7805f9e146109cb578063e798a7da146109d3576104d8565b8063cb1c2b5c1461092b578063d138209214610933578063d37a4db214610946578063d822ce0114610959578063d901402b1461096c576104d8565b8063aa7ca464116101f5578063b43bd069116101b9578063b43bd069146108b9578063b8f011b3146108cc578063c47c4bc2146108df578063c4bea2cb146108f2578063c4e4f82a14610905578063c7c063fb14610918576104d8565b8063aa7ca46414610883578063aacc5a1714610896578063ab43e78d1461089e578063b1a2e0be146108a6578063b1cf4a7e146105b9576104d8565b80639b7e0180116102475780639b7e01801461081c5780639fc9c52f1461082f578063a1103f3714610842578063a25236fe14610855578063a4439dc514610868578063a511dba01461087b576104d8565b8063821aa8c0146107bb57806383cc6ef2146107ce5780638c89d027146107d65780638da5cb5b146108015780639760356014610809576104d8565b8063427fa1d2116103b5578063667bf0f811610327578063796b89b9116102eb578063796b89b9146107525780637a34da671461075a5780637ce1c4d4146107625780637f97e8361461076a5780637fabe35b1461077d578063819b0293146107a8576104d8565b8063667bf0f8146107145780636b2d95d41461071c578063715018a61461072f57806371880b1b146107375780637827e5491461074a576104d8565b8063579db71c11610379578063579db71c146106b657806358002158146106d6578063590785b1146106e95780635fd87909146106fc5780636277bf651461070457806362b7e9411461070c576104d8565b8063427fa1d214610662578063441c77c01461067557806349403183146106885780634d8842811461069b57806351912f29146106ae576104d8565b80631b8550441161044e578063313066ee11610412578063313066ee1461061c57806332ac1ba2146106245780633538af821461063757806337d5f2381461064a57806339e7357c146106525780633ad2131f1461065a576104d8565b80631b855044146105b9578063226ed300146105cc578063275c2590146105ec57806329a47bc7146105f45780632c05203114610609576104d8565b80630772ca9c116104a05780630772ca9c146105495780630b16d945146105515780630b96c5b0146105645780630e6661a7146105895780630e670feb1461059157806319d9034614610599576104d8565b806302fa9c68146104dd578063035fbb55146104f257806304dbcda714610505578063050eb2eb14610523578063053e71a614610536575b600080fd5b6104f06104eb366004614eb4565b610a8b565b005b6104f0610500366004615089565b610b11565b61050d610e03565b60405161051a91906151b1565b60405180910390f35b6104f0610531366004614d5e565b610e09565b61050d610544366004615003565b610e6a565b61050d610ed0565b61050d61055f366004614dd3565b610ed6565b610577610572366004615003565b611261565b60405161051a9695949392919061525a565b61050d61143e565b61050d611444565b6105ac6105a7366004615003565b61144a565b60405161051a91906151f8565b61050d6105c736600461502c565b6117d2565b6105df6105da366004615003565b611805565b60405161051a919061524f565b6104f061184d565b6105fc611924565b60405161051a91906151e4565b61050d610617366004614da1565b611933565b61050d611ad0565b61050d610632366004615003565b611ad6565b6105fc610645366004615003565b611afa565b61050d611b24565b61050d611b2a565b61050d611b47565b61050d610670366004614d5e565b611b4d565b6105df610683366004615003565b611bed565b6105df610696366004615003565b611c47565b6104f06106a9366004614d5e565b611ec8565b6105fc611f29565b6106c96106c4366004614d5e565b611f38565b60405161051a919061520b565b6104f06106e4366004615003565b611fa4565b6104f06106f7366004615003565b611fe8565b61050d6124e8565b61050d6124ee565b61050d6124f4565b6104f06124fa565b61050d61072a366004614d5e565b6128a4565b6104f06128b3565b61050d610745366004615003565b6128fe565b61050d61293b565b61050d612941565b6105fc612945565b61050d612954565b6105df610778366004614d78565b61295a565b61079061078b366004615003565b6129ad565b60405161051a9c9b9a99989796959493929190615fbd565b6105df6107b636600461504d565b612a13565b6105fc6107c9366004615003565b612a51565b6105fc612a61565b6107e96107e4366004614d5e565b612a70565b60405161051a9c9b9a99989796959493929190615f0f565b6105fc612b6f565b6104f0610817366004615003565b612b7e565b61050d61082a366004614d78565b612d2d565b6104f061083d366004614fb1565b612d5e565b61050d610850366004614d78565b612db0565b6104f0610863366004615003565b612dc5565b6105df610876366004615003565b612ec6565b61050d612f08565b6105df610891366004614d78565b612f0e565b61050d612f61565b6105fc613016565b6105df6108b4366004614d5e565b613025565b61050d6108c7366004614da1565b6131b4565b6106c96108da36600461502c565b6132a0565b6104f06108ed366004614d5e565b613401565b6104f061090036600461502c565b613462565b61050d610913366004615003565b613896565b61050d610926366004614d5e565b6138d3565b61050d6138e5565b61050d610941366004614d78565b6138eb565b6104f0610954366004614f1c565b613980565b6105fc610967366004614d78565b613a3b565b61050d61097a366004614d78565b613a73565b6105df61098d366004615003565b613ab8565b6104f06109a0366004614d5e565b613abd565b6104f06109b3366004614d5e565b613b1e565b6106c96109c6366004615003565b613b7f565b61050d613bf8565b6105df6109e1366004614d5e565b613bfe565b6104f06109f4366004615003565b613c1f565b6104f0610a07366004615003565b613d5b565b6105ac610a1a366004615003565b613d9f565b6104f0610a2d366004614d5e565b61411a565b61050d610a40366004614d5e565b61418b565b61050d61422c565b6104f0614232565b6105df610a63366004615003565b6143d7565b6105df6143df565b6105fc6143f8565b61050d610a86366004614d5e565b614407565b828114610a9757600080fd5b60005b83811015610b0a57610af8858583818110610ac557634e487b7160e01b600052603260045260246000fd5b90506020020135848484818110610aec57634e487b7160e01b600052603260045260246000fd5b90506020020135613462565b80610b0281616196565b915050610a9a565b5050505050565b610b19614553565b610b2283611bed565b610b475760405162461bcd60e51b8152600401610b3e90615bc2565b60405180910390fd5b336000908152600a6020908152604080832086845290915290205460ff16610b815760405162461bcd60e51b8152600401610b3e906157db565b336000908152600b6020908152604080832086845290915290205460ff1615610bbc5760405162461bcd60e51b8152600401610b3e90615795565b610bc63384613a73565b8282604051602001610bd99291906151d6565b6040516020818303038152906040528051906020012014610c0c5760405162461bcd60e51b8152600401610b3e90615495565b6000610c1833856138eb565b90508260011415610c4f576000848152601e602052604081206007018054839290610c449084906160c9565b90915550610c769050565b6000848152601e602052604081206008018054839290610c709084906160c9565b90915550505b336000908152600d60205260409081902090516301039dfd60e11b815273__$85afbab79b2b776d70bef879a32ed56424$__916302073bfa91610cbe919088906004016151d6565b60006040518083038186803b158015610cd657600080fd5b505af4158015610cea573d6000803e3d6000fd5b5050336000818152600b602090815260408083208a84528252808320805460ff19166001908117909155600c8352818420948452938252808320899055601382528083206003808201548552601e90935292200154909350610d4d9250906146ad565b600382810180546000908152601e6020526040808220840194909455600885018054600160ff199182168117909255600487018054909116909117905590548152919091200154610da157610da185611fe8565b6000858152601e602052604090819020600781015460089091015491513392879289927f0867b5027231dcbf37614eaad07d667b9febaf9fdf483f488229b1f140bb074892610df4928992909190615fa7565b60405180910390a45050505050565b60065481565b610e116146b9565b6001600160a01b0316610e22612b6f565b6001600160a01b031614610e485760405162461bcd60e51b8152600401610b3e90615a4a565b602280546001600160a01b0319166001600160a01b0392909216919091179055565b6000610e7582611805565b610e915760405162461bcd60e51b8152600401610b3e90615854565b610e9a82611c47565b15610eb757506000818152601e6020526040902060070154610ecb565b506000818152601e60205260409020600801545b919050565b60115481565b8651600090851415610ee757600080fd5b60015433600090815260166020526040902054811115610f295733600090815260166020526040812054610f1c9083906146ad565b9050610f2781612dc5565b505b60005b895181101561124e5760008a8281518110610f5757634e487b7160e01b600052603260045260246000fd5b602002602001015190506000898984818110610f8357634e487b7160e01b600052603260045260246000fd5b9050602002810190610f95919061602d565b8080601f016020809104026020016040519081016040528093929190818152602001838380828437600092019190915250508451929350849215159150610ff090505760405162461bcd60e51b8152600401610b3e90615b35565b601054610ffe9060016160c9565b60108181553360008181526015602090815260408083208054600181018255908452828420019590955584516101008101865288815280820193909352428386015260608301879052608083018e905260a083018d905260c083018c905260e0830182905292548152601483529290922082518051919261108492849290910190614a4f565b506020828101516001830180546001600160a01b0319166001600160a01b0390921691909117905560408301516002830155606083015180516110cd9260038501920190614a4f565b50608082015180516110e9916004840191602090910190614ad3565b5060a08201518051611105916005840191602090910190614b2c565b5060c08201518051611121916006840191602090910190614a4f565b5060e082015160078201805460ff1916600183600381111561115357634e487b7160e01b600052602160045260246000fd5b021790555050601c546000908152601e60205260409020905061117860016005616114565b816002015410156111aa57600181600201600082825461119891906160c9565b909155505060105460018201556111ef565b600481018054600160ff19909116811761ff001916909155601c80546000906111d49084906160c9565b9091555050601054601c546000908152601e60205260409020555b336001600160a01b03166010547fb7b95e293993cd6c0c54a48cee487ef3dd8f51be568be962db90e7784af70dd186868e60405161122f939291906152b9565b60405180910390a350505050808061124690616196565b915050610f2c565b506010549150505b979650505050505050565b60146020526000908152604090208054819061127c9061615b565b80601f01602080910402602001604051908101604052809291908181526020018280546112a89061615b565b80156112f55780601f106112ca576101008083540402835291602001916112f5565b820191906000526020600020905b8154815290600101906020018083116112d857829003601f168201915b505050506001830154600284015460038501805494956001600160a01b0390931694919350906113249061615b565b80601f01602080910402602001604051908101604052809291908181526020018280546113509061615b565b801561139d5780601f106113725761010080835404028352916020019161139d565b820191906000526020600020905b81548152906001019060200180831161138057829003601f168201915b5050505050908060060180546113b29061615b565b80601f01602080910402602001604051908101604052809291908181526020018280546113de9061615b565b801561142b5780601f106114005761010080835404028352916020019161142b565b820191906000526020600020905b81548152906001019060200180831161140e57829003601f168201915b5050506007909301549192505060ff1686565b60105481565b60075481565b6060611455826143d7565b6114715760405162461bcd60e51b8152600401610b3e9061591a565b6000828152601e6020908152604080832081516101c081018352815481526001820154938101939093526002810154918301919091526003808201546060840152600482015460ff808216151560808601526101008083048216151560a0870152620100009092048116151560c0860152600584015460e086015260068401549185019190915260078301546101208501526008830154610140850152600983015461016085019291169081111561153957634e487b7160e01b600052602160045260246000fd5b600381111561155857634e487b7160e01b600052602160045260246000fd5b8152602001600a8201805480602002602001604051908101604052809291908181526020016000905b8282101561162d5783829060005260206000200180546115a09061615b565b80601f01602080910402602001604051908101604052809291908181526020018280546115cc9061615b565b80156116195780601f106115ee57610100808354040283529160200191611619565b820191906000526020600020905b8154815290600101906020018083116115fc57829003601f168201915b505050505081526020019060010190611581565b505050508152602001600b820180548060200260200160405190810160405280929190818152602001828054801561168457602002820191906000526020600020905b815481526020019060010190808311611670575b5050509190925250505060408181015182518251600580825260c082019094529394509092909160009190816020015b60608152602001906001900390816116b457905050905060005b838110156117c85784516000906116e69083906160c9565b6000818152601460205260408120600301805492935090916117079061615b565b80601f01602080910402602001604051908101604052809291908181526020018280546117339061615b565b80156117805780601f1061175557610100808354040283529160200191611780565b820191906000526020600020905b81548152906001019060200180831161176357829003601f168201915b50505050509050808484815181106117a857634e487b7160e01b600052603260045260246000fd5b6020026020010181905250505080806117c090616196565b9150506116ce565b5095945050505050565b600082826040516020016117e79291906151d6565b60405160208183030381529060405280519060200120905092915050565b6000611810826143d7565b61182c5760405162461bcd60e51b8152600401610b3e90615e09565b6000828152601e602052604090206006015461184790613ab8565b92915050565b611855614553565b336000908152601360205260409020600881015460ff16151560011461188d5760405162461bcd60e51b8152600401610b3e906156c2565b6000611897612941565b90506118a2336146bd565b600182018054336001600160a01b03199182168117909255600284018054909116821790556007830182905560088301805460ff19908116909155600a8401805490911690556040517f9dadcedba048e92b943ea1c5861cee1df63a566d7f795869c004780c1c698e2b906119189084906151b1565b60405180910390a25050565b6021546001600160a01b031681565b60008061193f85611b4d565b9050600061194d86836138eb565b90505b8115611ac55761196086836138eb565b9050848111611a1d5783821415611a15576001600160a01b0386166000908152600d60205260409081902090516301c39b2b60e11b815273__$85afbab79b2b776d70bef879a32ed56424$__916303873656916119c2919086906004016151d6565b60206040518083038186803b1580156119da57600080fd5b505af41580156119ee573d6000803e3d6000fd5b505050506040513d601f19601f82011682018060405250810190611a12919061501b565b91505b509050611ac9565b6001600160a01b0386166000908152600d60205260409081902090516301c39b2b60e11b815273__$85afbab79b2b776d70bef879a32ed56424$__91630387365691611a6e919086906004016151d6565b60206040518083038186803b158015611a8657600080fd5b505af4158015611a9a573d6000803e3d6000fd5b505050506040513d601f19601f82011682018060405250810190611abe919061501b565b9150611950565b5090505b9392505050565b600f5481565b6000818152601e6020526040812060088101546007909101548291611ac9916160c9565b60188181548110611b0a57600080fd5b6000918252602090912001546001600160a01b0316905081565b60125481565b60405160009080602081848060185afa611b4057fe5b5051919050565b60095481565b6001600160a01b0381166000908152600d602052604080822090516301c39b2b60e11b815273__$85afbab79b2b776d70bef879a32ed56424$__91630387365691611b9d919085906004016151d6565b60206040518083038186803b158015611bb557600080fd5b505af4158015611bc9573d6000803e3d6000fd5b505050506040513d601f19601f82011682018060405250810190611847919061501b565b6000611bf8826143d7565b611c145760405162461bcd60e51b8152600401610b3e9061591a565b6000828152601e6020526040902060060154611c2f90613ab8565b1580156118475750611c4082612ec6565b1592915050565b6000611c5282611805565b611c6e5760405162461bcd60e51b8152600401610b3e90615854565b6000828152601e6020908152604080832081516101c081018352815481526001820154938101939093526002810154918301919091526003808201546060840152600482015460ff808216151560808601526101008083048216151560a0870152620100009092048116151560c0860152600584015460e0860152600684015491850191909152600783015461012085015260088301546101408501526009830154610160850192911690811115611d3657634e487b7160e01b600052602160045260246000fd5b6003811115611d5557634e487b7160e01b600052602160045260246000fd5b8152602001600a8201805480602002602001604051908101604052809291908181526020016000905b82821015611e2a578382906000526020600020018054611d9d9061615b565b80601f0160208091040260200160405190810160405280929190818152602001828054611dc99061615b565b8015611e165780601f10611deb57610100808354040283529160200191611e16565b820191906000526020600020905b815481529060010190602001808311611df957829003601f168201915b505050505081526020019060010190611d7e565b505050508152602001600b8201805480602002602001604051908101604052809291908181526020018280548015611e8157602002820191906000526020600020905b815481526020019060010190808311611e6d575b5050505050815250509050806101400151816101200151611ea291906160c9565b600954611eaf91906160f5565b610120820151611ec09060646160f5565b119392505050565b611ed06146b9565b6001600160a01b0316611ee1612b6f565b6001600160a01b031614611f075760405162461bcd60e51b8152600401610b3e90615a4a565b601b80546001600160a01b0319166001600160a01b0392909216919091179055565b6022546001600160a01b031681565b6001600160a01b038116600090815260156020908152604091829020805483518184028101840190945280845260609392830182828015611f9857602002820191906000526020600020905b815481526020019060010190808311611f84575b50505050509050919050565b611fac6146b9565b6001600160a01b0316611fbd612b6f565b6001600160a01b031614611fe35760405162461bcd60e51b8152600401610b3e90615a4a565b600455565b611ff181611805565b61200d5760405162461bcd60e51b8152600401610b3e90615518565b600061201882611c47565b6000838152601a602090815260408083208054825181850281018501909352808352949550929390929183018282801561207b57602002820191906000526020600020905b81546001600160a01b0316815260019091019060200180831161205d575b5050505050905060005b81518110156122a35760008282815181106120b057634e487b7160e01b600052603260045260246000fd5b6020908102919091018101516000878152600c835260408082206001600160a01b0384168352845280822054600b85528183208a845290945290205490925060ff16801561228d576001600160a01b0383166000908152601360205260409020600401805460ff191660019081179091558615151480156121315750816001145b80612146575085158015612146575081600114155b1561228d57602154600854604051630db6cc8560e11b81526001600160a01b0390921691631b6d990a9161217e918790600401615f89565b602060405180830381600087803b15801561219857600080fd5b505af11580156121ac573d6000803e3d6000fd5b505050506040513d601f19601f820116820180604052508101906121d09190614fe3565b6121ec5760405162461bcd60e51b8152600401610b3e90615882565b602254600654604051633832942560e21b81526001600160a01b039092169163e0ca50949161221f918790600401615ef8565b602060405180830381600087803b15801561223957600080fd5b505af115801561224d573d6000803e3d6000fd5b505050506040513d601f19601f820116820180604052508101906122719190614fe3565b61228d5760405162461bcd60e51b8152600401610b3e90615673565b505050808061229b90616196565b915050612085565b50811561243c5760215460085460008581526014602052604090819020600101549051630db6cc8560e11b81526001600160a01b0393841693631b6d990a936122f3939092911690600401615f89565b602060405180830381600087803b15801561230d57600080fd5b505af1158015612321573d6000803e3d6000fd5b505050506040513d601f19601f820116820180604052508101906123459190614fe3565b6123615760405162461bcd60e51b8152600401610b3e90615d5f565b60225460065460008581526014602052604090819020600101549051633832942560e21b81526001600160a01b039384169363e0ca5094936123aa939092911690600401615ef8565b602060405180830381600087803b1580156123c457600080fd5b505af11580156123d8573d6000803e3d6000fd5b505050506040513d601f19601f820116820180604052508101906123fc9190614fe3565b6124185760405162461bcd60e51b8152600401610b3e90615cb3565b601c546000908152601e60205260409020600901805460ff1916600117905561245c565b601c546000908152601e60205260409020600901805460ff191660021790555b601d5461246a906001614719565b601d55601c546000908152601e60209081526040808320600401805461ff001916610100179055858352601490915290819020600181015491516001600160a01b03909216917f43916c3ae75995d24cc89b466ed08e6dba74d325f7957f9b37b05f150e12918e916124db916152fc565b60405180910390a2505050565b60045481565b60055481565b60025481565b601d546000908152601e602052604090206004015460ff1661252e5760405162461bcd60e51b8152600401610b3e90615b6c565b601d546000908152601e602052604090206004015462010000900460ff16156125695760405162461bcd60e51b8152600401610b3e9061597f565b601854600090612592906064906125819060326160f5565b61258b91906160e1565b6001614725565b601854601d546000908152601e602052604081206003908101849055546004549394509192906125c24284614719565b905060006125d08284614719565b601d80546000908152601e60205260408082206005018690558254825280822060060184905591548152908120600401805462ff000019166201000017905590915061261c87876132a0565b9050600081516001600160401b0381111561264757634e487b7160e01b600052604160045260246000fd5b604051908082528060200260200182016040528015612670578160200160208202803683370190505b50905060005b825181101561272f5760188382815181106126a157634e487b7160e01b600052603260045260246000fd5b6020026020010151815481106126c757634e487b7160e01b600052603260045260246000fd5b9060005260206000200160009054906101000a90046001600160a01b031682828151811061270557634e487b7160e01b600052603260045260246000fd5b6001600160a01b03909216602092830291909101909101528061272781616196565b915050612676565b5060005b825181101561289957600082828151811061275e57634e487b7160e01b600052603260045260246000fd5b6020908102919091018101516001600160a01b03811660008181526013845260408082206019805460018181019092557f944998273e477b495144fb8794c914197f3ccb46be2900f4698fd0ef743c96950180546001600160a01b03199081168717909155601d548552601a885292842080549182018155845295909220909401805490941690911790925585519092506128209086908590811061281357634e487b7160e01b600052603260045260246000fd5b602002602001015161473b565b601d5460038083019190915560048201805460ff19169055600f54612844916160c9565b6005820155601d546040517fe4ee2dfabe57cee15e3f558890b20455f54c1fa0718e5276faad70a6500e6b8c9061287c9085906151e4565b60405180910390a25050808061289190616196565b915050612733565b505050505050505050565b60006118478261094184611b4d565b6128bb6146b9565b6001600160a01b03166128cc612b6f565b6001600160a01b0316146128f25760405162461bcd60e51b8152600401610b3e90615a4a565b6128fc6000614815565b565b6000612909826143d7565b6129255760405162461bcd60e51b8152600401610b3e9061591a565b506000908152601e602052604090206006015490565b60085481565b4290565b6023546001600160a01b031681565b601c5481565b6000612965826143d7565b6129815760405162461bcd60e51b8152600401610b3e9061591a565b506001600160a01b03919091166000908152600a60209081526040808320938352929052205460ff1690565b601e602052600090815260409020805460018201546002830154600384015460048501546005860154600687015460078801546008890154600990990154979896979596949560ff8086169661010087048216966201000090048216959493929091168c565b600080612a2084876138eb565b83101590506000612a3185876138eb565b84111580612a3d575085155b905081801561125657509695505050505050565b60198181548110611b0a57600080fd5b6020546001600160a01b031681565b601360205260009081526040902080546001820154600283015460038401546004850154600586015460068701546007880154600889015460098a018054999a6001600160a01b03998a169a9990981698969760ff9687169795969495939490921692612adc9061615b565b80601f0160208091040260200160405190810160405280929190818152602001828054612b089061615b565b8015612b555780601f10612b2a57610100808354040283529160200191612b55565b820191906000526020600020905b815481529060010190602001808311612b3857829003601f168201915b50505050600a830154600b90930154919260ff169190508c565b6000546001600160a01b031690565b60016000828152601e602052604090206009015460ff166003811115612bb457634e487b7160e01b600052602160045260246000fd5b14612bd15760405162461bcd60e51b8152600401610b3e906153dd565b336000908152600d60205260409081902090516306120d1f60e31b815273__$85afbab79b2b776d70bef879a32ed56424$__9163309068f891612c19919085906004016151d6565b60206040518083038186803b158015612c3157600080fd5b505af4158015612c45573d6000803e3d6000fd5b505050506040513d601f19601f82011682018060405250810190612c699190614fe3565b612c855760405162461bcd60e51b8152600401610b3e906155cc565b336000908152600d60205260409081902090516301039dfd60e11b815273__$85afbab79b2b776d70bef879a32ed56424$__916302073bfa91612ccd919085906004016151d6565b60006040518083038186803b158015612ce557600080fd5b505af4158015612cf9573d6000803e3d6000fd5b50506040513392508391507f402507661c8c8cb90e0a796450b8bdd28b6c516f05279c0cd29e84c344e1699a90600090a350565b60156020528160005260406000208181548110612d4957600080fd5b90600052602060002001600091509150505481565b60005b8151811015612dac57612d9a828281518110612d8d57634e487b7160e01b600052603260045260246000fd5b6020026020010151612b7e565b80612da481616196565b915050612d61565b5050565b600082826040516020016117e792919061518f565b6020546040516304ada21f60e21b81526001600160a01b03909116906312b6887c90612df79084903390600401615ef8565b602060405180830381600087803b158015612e1157600080fd5b505af1158015612e25573d6000803e3d6000fd5b505050506040513d601f19601f82011682018060405250810190612e499190614fe3565b612e655760405162461bcd60e51b8152600401610b3e9061570d565b3360009081526016602052604081208054839290612e849084906160c9565b909155505060405133907ff7aaf024511d9982df8cd0d437c71c30106e6848cd1ba3d288d7a9c0e276aeda90612ebb9084906151b1565b60405180910390a250565b6000612ed1826143d7565b612eed5760405162461bcd60e51b8152600401610b3e9061591a565b6000828152601e6020526040902060050154611c4090613ab8565b60105490565b6000612f19826143d7565b612f355760405162461bcd60e51b8152600401610b3e9061591a565b506001600160a01b03919091166000908152600b60209081526040808320938352929052205460ff1690565b6000804241604051602001612f769190615172565b6040516020818303038152906040528051906020012060001c612f9991906160e1565b44612fa2611b2a565b604051602001612fb291906151b1565b60408051601f198184030181529190528051602090910120612fd490426160c9565b612fde91906160c9565b612fe891906160c9565b604051602001612ff891906151b1565b60408051601f19818403018152919052805160209091012091505090565b601b546001600160a01b031681565b6001600160a01b03808216600090815260136020908152604080832081516101808101835281548152600182015486169381019390935260028101549094169082015260038301546060820152600483015460ff90811615156080830152600584015460a0830152600684015460c0830152600784015460e083015260088401541615156101008201526009830180549293849390916101208401916130ca9061615b565b80601f01602080910402602001604051908101604052809291908181526020018280546130f69061615b565b80156131435780601f1061311857610100808354040283529160200191613143565b820191906000526020600020905b81548152906001019060200180831161312657829003601f168201915b5050509183525050600a82015460ff1615156020820152600b9091015460409091015261014081015190915061318b5760405162461bcd60e51b8152600401610b3e90615c4f565b60808101516000901580156131a55750600f548260a00151115b15611ac9575060019392505050565b60006131bf83611805565b6131db5760405162461bcd60e51b8152600401610b3e90615629565b6001600160a01b0384166000908152600b6020908152604080832086845290915290205460ff1661321e5760405162461bcd60e51b8152600401610b3e906158cf565b600061322984611c47565b613234576000613237565b60015b60ff169050600081846040516020016132519291906151d6565b60405160208183030381529060405280519060200120905060006132758787613a73565b90508082146132965760405162461bcd60e51b8152600401610b3e90615aec565b61125687876138eb565b6060600182116132af57600080fd5b8183111580156132c0575060018310155b6132c957600080fd5b6000826001600160401b038111156132f157634e487b7160e01b600052604160045260246000fd5b60405190808252806020026020018201604052801561331a578160200160208202803683370190505b5090506000846001600160401b0381111561334557634e487b7160e01b600052604160045260246000fd5b60405190808252806020026020018201604052801561336e578160200160208202803683370190505b509050600061338461337f84614865565b6148bb565b905060005b868110156133f6578181815181106133b157634e487b7160e01b600052603260045260246000fd5b60200260200101518382815181106133d957634e487b7160e01b600052603260045260246000fd5b6020908102919091010152806133ee81616196565b915050613389565b509095945050505050565b6134096146b9565b6001600160a01b031661341a612b6f565b6001600160a01b0316146134405760405162461bcd60e51b8152600401610b3e90615a4a565b602380546001600160a01b0319166001600160a01b0392909216919091179055565b61346a614553565b61347382612ec6565b61348f5760405162461bcd60e51b8152600401610b3e90615595565b8161349933614407565b146134b65760405162461bcd60e51b8152600401610b3e906159dc565b600154336000908152601660205260409020548111156134f857336000908152601660205260408120546134eb9083906146ad565b90506134f681612dc5565b505b336000908152601660205260409020548111156135275760405162461bcd60e51b8152600401610b3e90615d02565b826135445760405162461bcd60e51b8152600401610b3e9061576a565b816135615760405162461bcd60e51b8152600401610b3e9061582a565b6000336000908152600d60205260408082209051631e0f232560e31b815273__$85afbab79b2b776d70bef879a32ed56424$__9163f0791928916135aa919086906004016151d6565b60206040518083038186803b1580156135c257600080fd5b505af41580156135d6573d6000803e3d6000fd5b505050506040513d601f19601f820116820180604052508101906135fa919061501b565b90508481141561369f57336000908152600d6020526040908190209051631e0f232560e31b815273__$85afbab79b2b776d70bef879a32ed56424$__9163f07919289161364c919089906004016151d6565b60206040518083038186803b15801561366457600080fd5b505af4158015613678573d6000803e3d6000fd5b505050506040513d601f19601f8201168201806040525081019061369c919061501b565b90505b6136ab82823386612a13565b6136c75760405162461bcd60e51b8152600401610b3e90615951565b336000908152600d602052604090819020905163524cfe5360e11b815273__$85afbab79b2b776d70bef879a32ed56424$__9163a499fca691613713919086908a908790600401615edd565b60006040518083038186803b15801561372b57600080fd5b505af415801561373f573d6000803e3d6000fd5b50505050600061374f3387612db0565b60408051808201825260098152686e756d546f6b656e7360b81b6020820152905163099b040f60e31b81529192509073__$0947e710b66d7779e1d561254425e1375a$__90634cd82078906137af90600e90869086908b90600401615e32565b60006040518083038186803b1580156137c757600080fd5b505af41580156137db573d6000803e3d6000fd5b505060405163099b040f60e31b815273__$0947e710b66d7779e1d561254425e1375a$__9250634cd82078915061381b90600e9086908b90600401615e80565b60006040518083038186803b15801561383357600080fd5b505af4158015613847573d6000803e3d6000fd5b50505050336001600160a01b0316877f42864d9683ff5b12c3b2cc65d705af5aab104b03bc700b802f79e5c971ef08a18760405161388591906151b1565b60405180910390a350505050505050565b60006138a1826143d7565b6138bd5760405162461bcd60e51b8152600401610b3e9061591a565b506000908152601e602052604090206005015490565b60166020526000908152604090205481565b60015481565b600073__$0947e710b66d7779e1d561254425e1375a$__6369810158600e6139138686612db0565b6040518363ffffffff1660e01b8152600401613930929190615eae565b60206040518083038186803b15801561394857600080fd5b505af415801561395c573d6000803e3d6000fd5b505050506040513d601f19601f82011682018060405250810190611ac9919061501b565b84831461398c57600080fd5b84811461399857600080fd5b60005b85811015613a3257613a208787838181106139c657634e487b7160e01b600052603260045260246000fd5b905060200201358686848181106139ed57634e487b7160e01b600052603260045260246000fd5b90506020020135858585818110613a1457634e487b7160e01b600052603260045260246000fd5b90506020020135610b11565b80613a2a81616196565b91505061399b565b50505050505050565b60176020528160005260406000208181548110613a5757600080fd5b6000918252602090912001546001600160a01b03169150829050565b600073__$0947e710b66d7779e1d561254425e1375a$__6369810158600e613a9b8686612db0565b6040518363ffffffff1660e01b8152600401613930929190615e62565b421190565b613ac56146b9565b6001600160a01b0316613ad6612b6f565b6001600160a01b031614613afc5760405162461bcd60e51b8152600401610b3e90615a4a565b602180546001600160a01b0319166001600160a01b0392909216919091179055565b613b266146b9565b6001600160a01b0316613b37612b6f565b6001600160a01b031614613b5d5760405162461bcd60e51b8152600401610b3e90615a4a565b602080546001600160a01b0319166001600160a01b0392909216919091179055565b606060018211613b8e57600080fd5b6000826001600160401b03811115613bb657634e487b7160e01b600052604160045260246000fd5b604051908082528060200260200182016040528015613bdf578160200160208202803683370190505b5090506000613bf061337f83614865565b949350505050565b60035481565b6001600160a01b03166000908152601360205260409020600a015460ff1690565b6000613c43613c2d336128a4565b33600090815260166020526040902054906146ad565b905081811015613c655760405162461bcd60e51b8152600401610b3e90615c08565b602054604051630895993360e11b81526001600160a01b039091169063112b326690613c979085903390600401615ef8565b602060405180830381600087803b158015613cb157600080fd5b505af1158015613cc5573d6000803e3d6000fd5b505050506040513d601f19601f82011682018060405250810190613ce99190614fe3565b613d055760405162461bcd60e51b8152600401610b3e90615dac565b3360009081526016602052604081208054849290613d24908490616114565b909155505060405133907ffaeb7dbb9992397d26ea1944efd40c80b40f702faf69b46c67ad10aba68ccb79906119189085906151b1565b613d636146b9565b6001600160a01b0316613d74612b6f565b6001600160a01b031614613d9a5760405162461bcd60e51b8152600401610b3e90615a4a565b600355565b6060613daa826143d7565b613dc65760405162461bcd60e51b8152600401610b3e9061591a565b6000828152601e6020908152604080832081516101c081018352815481526001820154938101939093526002810154918301919091526003808201546060840152600482015460ff808216151560808601526101008083048216151560a0870152620100009092048116151560c0860152600584015460e0860152600684015491850191909152600783015461012085015260088301546101408501526009830154610160850192911690811115613e8e57634e487b7160e01b600052602160045260246000fd5b6003811115613ead57634e487b7160e01b600052602160045260246000fd5b8152602001600a8201805480602002602001604051908101604052809291908181526020016000905b82821015613f82578382906000526020600020018054613ef59061615b565b80601f0160208091040260200160405190810160405280929190818152602001828054613f219061615b565b8015613f6e5780601f10613f4357610100808354040283529160200191613f6e565b820191906000526020600020905b815481529060010190602001808311613f5157829003601f168201915b505050505081526020019060010190613ed6565b505050508152602001600b8201805480602002602001604051908101604052809291908181526020018280548015613fd957602002820191906000526020600020905b815481526020019060010190808311613fc5575b5050509190925250505060408181015182518251600580825260c082019094529394509092909160009190816020015b606081526020019060019003908161400957905050905060005b838110156117c857845160009061403b9083906160c9565b6000818152601460205260408120805492935090916140599061615b565b80601f01602080910402602001604051908101604052809291908181526020018280546140859061615b565b80156140d25780601f106140a7576101008083540402835291602001916140d2565b820191906000526020600020905b8154815290600101906020018083116140b557829003601f168201915b50505050509050808484815181106140fa57634e487b7160e01b600052603260045260246000fd5b60200260200101819052505050808061411290616196565b915050614023565b6141226146b9565b6001600160a01b0316614133612b6f565b6001600160a01b0316146141595760405162461bcd60e51b8152600401610b3e90615a4a565b6001600160a01b03811661417f5760405162461bcd60e51b8152600401610b3e9061554f565b61418881614815565b50565b6001600160a01b0381166000908152601560209081526040808320805482518185028101850190935280835284938301828280156141e857602002820191906000526020600020905b8154815260200190600101908083116141d4575b5050505050905080600182516141fe9190616114565b8151811061421c57634e487b7160e01b600052603260045260246000fd5b6020026020010151915050919050565b601d5481565b61423a614553565b336000908152601360205260409020600881015460ff161561426e5760405162461bcd60e51b8152600401610b3e906153a6565b6000614278612941565b60015433600090815260166020526040902054919250908111156142be57336000908152601660205260408120546142b19083906146ad565b90506142bc81612dc5565b505b336000908152601660205260409020548111156142ed5760405162461bcd60e51b8152600401610b3e9061542e565b601880546001818101835560008390527fb13d2d76d1f4b7be834882e410b3e3a8afaf69f83600ae24db354391d2378d2e90910180546001600160a01b03191633179055905461433d9190616114565b835560018084018054336001600160a01b0319918216811790925560028601805490911690911790556007840183905560088401805460ff19169091179055600a83015460ff1661439e57600a8301805460ff1916600117905542600b8401555b336001600160a01b03167f439d77b7534ec3108fc6143bd4fbabde0b9f2bb54f7b0730d1f70dd2135b765f836040516124db91906151b1565b601054101590565b336000908152601360205260409020600a015460ff1690565b601f546001600160a01b031681565b6001600160a01b03808216600090815260136020908152604080832081516101808101835281548152600182015486169381019390935260028101549094169082015260038301546060820152600483015460ff90811615156080830152600584015460a0830152600684015460c0830152600784015460e083015260088401541615156101008201526009830180549293849390916101208401916144ac9061615b565b80601f01602080910402602001604051908101604052809291908181526020018280546144d89061615b565b80156145255780601f106144fa57610100808354040283529160200191614525565b820191906000526020600020905b81548152906001019060200180831161450857829003601f168201915b5050509183525050600a82015460ff1615156020820152600b90910154604090910152606001519392505050565b601b546001600160a01b031661457b5760405162461bcd60e51b8152600401610b3e90615c86565b601b546040516000916001600160a01b03169061459c9033906024016151e4565b60408051601f198184030181529181526020820180516001600160e01b0316631f5ac9c560e11b179052516145d191906151ba565b6000604051808303816000865af19150503d806000811461460e576040519150601f19603f3d011682016040523d82523d6000602084013e614613565b606091505b5050601b546040519192506000916001600160a01b039091169061463b9033906024016151e4565b60408051601f198184030181529181526020820180516001600160e01b03166358563d2160e01b1790525161467091906151ba565b6000604051808303816000865af19150503d8060008114610b0a576040519150601f19603f3d011682016040523d82523d6000602084013e610b0a565b6000611ac98284616114565b3390565b6001600160a01b0381166000908152601360205260409020600881015460ff1680156146ed5750600a81015460ff165b6147095760405162461bcd60e51b8152600401610b3e90615a7f565b80546147148161473b565b505050565b6000611ac982846160c9565b60008183106147345781611ac9565b5090919050565b6018805461474b90600190616114565b8154811061476957634e487b7160e01b600052603260045260246000fd5b600091825260209091200154601880546001600160a01b0390921691839081106147a357634e487b7160e01b600052603260045260246000fd5b9060005260206000200160006101000a8154816001600160a01b0302191690836001600160a01b0316021790555060188054806147f057634e487b7160e01b600052603160045260246000fd5b600082815260209020810160001990810180546001600160a01b031916905501905550565b600080546001600160a01b038381166001600160a01b0319831681178455604051919092169283917f8be0079c531659141344cd1fd0a4f28419497f9722a3daafe3b4186f6b6457e09190a35050565b805160609060005b818110156148b3578084828151811061489657634e487b7160e01b600052603260045260246000fd5b6020908102919091010152806148ab81616196565b91505061486d565b509192915050565b606060008251116148cb57600080fd5b81518060005b81811015614a46576000836148e4612f61565b87848151811061490457634e487b7160e01b600052603260045260246000fd5b602002602001015160405160200161491d9291906151d6565b6040516020818303038152906040528051906020012060001c61494091906161b1565b61494b9060016160c9565b905060008661495b600184616114565b8151811061497957634e487b7160e01b600052603260045260246000fd5b60200260200101519050866001866149919190616114565b815181106149af57634e487b7160e01b600052603260045260246000fd5b6020026020010151876001846149c59190616114565b815181106149e357634e487b7160e01b600052603260045260246000fd5b602090810291909101015280876149fb600188616114565b81518110614a1957634e487b7160e01b600052603260045260246000fd5b6020908102919091010152614a2f600186616114565b945050508080614a3e90616196565b9150506148d1565b50929392505050565b828054614a5b9061615b565b90600052602060002090601f016020900481019282614a7d5760008555614ac3565b82601f10614a9657805160ff1916838001178555614ac3565b82800160010185558215614ac3579182015b82811115614ac3578251825591602001919060010190614aa8565b50614acf929150614b66565b5090565b828054828255906000526020600020908101928215614b20579160200282015b82811115614b205782518051614b10918491602090910190614a4f565b5091602001919060010190614af3565b50614acf929150614b7b565b828054828255906000526020600020908101928215614ac35791602002820182811115614ac3578251825591602001919060010190614aa8565b5b80821115614acf5760008155600101614b67565b80821115614acf576000614b8f8282614b98565b50600101614b7b565b508054614ba49061615b565b6000825580601f10614bb65750614188565b601f0160209004906000526020600020908101906141889190614b66565b80356001600160a01b0381168114610ecb57600080fd5b60008083601f840112614bfc578182fd5b5081356001600160401b03811115614c12578182fd5b6020830191508360208083028501011115614c2c57600080fd5b9250929050565b600082601f830112614c43578081fd5b81356020614c58614c538361609a565b616071565b82815281810190858301855b85811015614c8d57614c7b898684358b0101614cf4565b84529284019290840190600101614c64565b5090979650505050505050565b600082601f830112614caa578081fd5b81356020614cba614c538361609a565b8281528181019085830183850287018401881015614cd6578586fd5b855b85811015614c8d57813584529284019290840190600101614cd8565b600082601f830112614d04578081fd5b81356001600160401b03811115614d1d57614d1d6161f1565b614d30601f8201601f1916602001616071565b818152846020838601011115614d44578283fd5b816020850160208301379081016020019190915292915050565b600060208284031215614d6f578081fd5b611ac982614bd4565b60008060408385031215614d8a578081fd5b614d9383614bd4565b946020939093013593505050565b600080600060608486031215614db5578081fd5b614dbe84614bd4565b95602085013595506040909401359392505050565b600080600080600080600060c0888a031215614ded578283fd5b87356001600160401b0380821115614e03578485fd5b614e0f8b838c01614c33565b9850614e1d60208b01614bd4565b975060408a0135915080821115614e32578485fd5b614e3e8b838c01614beb565b909750955060608a0135915080821115614e56578485fd5b614e628b838c01614c33565b945060808a0135915080821115614e77578384fd5b614e838b838c01614c9a565b935060a08a0135915080821115614e98578283fd5b50614ea58a828b01614cf4565b91505092959891949750929550565b60008060008060408587031215614ec9578384fd5b84356001600160401b0380821115614edf578586fd5b614eeb88838901614beb565b90965094506020870135915080821115614f03578384fd5b50614f1087828801614beb565b95989497509550505050565b60008060008060008060608789031215614f34578182fd5b86356001600160401b0380821115614f4a578384fd5b614f568a838b01614beb565b90985096506020890135915080821115614f6e578384fd5b614f7a8a838b01614beb565b90965094506040890135915080821115614f92578384fd5b50614f9f89828a01614beb565b979a9699509497509295939492505050565b600060208284031215614fc2578081fd5b81356001600160401b03811115614fd7578182fd5b613bf084828501614c9a565b600060208284031215614ff4578081fd5b81518015158114611ac9578182fd5b600060208284031215615014578081fd5b5035919050565b600060208284031215611b40578081fd5b6000806040838503121561503e578182fd5b50508035926020909101359150565b60008060008060808587031215615062578182fd5b843593506020850135925061507960408601614bd4565b9396929550929360600135925050565b60008060006060848603121561509d578081fd5b505081359360208301359350604090920135919050565b6000815180845260208085018081965082840281019150828601855b858110156150fa5782840389526150e8848351615129565b988501989350908401906001016150d0565b5091979650505050505050565b6004811061512557634e487b7160e01b600052602160045260246000fd5b9052565b6000815180845261514181602086016020860161612b565b601f01601f19169290920160200192915050565b600a8152690c6dedadad2e890c2e6d60b31b602082015260400190565b60609190911b6bffffffffffffffffffffffff1916815260140190565b60609290921b6bffffffffffffffffffffffff19168252601482015260340190565b90815260200190565b600082516151cc81846020870161612b565b9190910192915050565b918252602082015260400190565b6001600160a01b0391909116815260200190565b600060208252611ac960208301846150b4565b6020808252825182820181905260009190848201906040850190845b8181101561524357835183529284019291840191600101615227565b50909695505050505050565b901515815260200190565b600060c0825261526d60c0830189615129565b6001600160a01b03881660208401526040830187905282810360608401526152958187615129565b905082810360808401526152a98186615129565b91505061125660a0830184615107565b6000606082526152cc6060830186615129565b82810360208401526152de8186615129565b905082810360408401526152f281856150b4565b9695505050505050565b600060208083528184548360028204905060018083168061531e57607f831692505b85831081141561533c57634e487b7160e01b87526022600452602487fd5b61534883878a016151b1565b81801561535c576001811461536d57615397565b60ff19861682528782019650615397565b6153768b6160bd565b895b8681101561539157815484820152908501908901615378565b83019750505b50949998505050505050505050565b6020808252601c908201527f576f726b657220697320616c7265616479207265676973746572656400000000604082015260600190565b60208082526031908201527f676976656e204461746142617463682073686f756c6420626520415050524f5660408201527011510b08185b99081a5d081a5cc81b9bdd607a1b606082015260800190565b60208082526041908201527f576f726b657220686173206e6f7420656e6f75676820285f6e756d546f6b656e60408201527f732920696e206869732053706f745374616b6564546f6b656e42616c616e63656060820152600160fd1b608082015260a00190565b6020808252605c908201527f4e6f74207468652073616d6520766f7465207468616e2077686174207761732060408201527f636f6d6d697465642c20696d706f737369626c6520746f206d6174636820776960608201527f746820676976656e205f73616c742026205f766f74654f7074696f6e00000000608082015260a00190565b6020808252601a908201527f5f446174614261746368494420686173206e6f7420656e646564000000000000604082015260600190565b60208082526026908201527f4f776e61626c653a206e6577206f776e657220697320746865207a65726f206160408201526564647265737360d01b606082015260800190565b6020808252601e908201527f636f6d6d697420706572696f64206e6565647320746f206265206f70656e0000604082015260600190565b60208082526039908201527f646c6c4d61703a20646f6573206e6f7420636f696e7461696e205f446174614260408201527f61746368494420666f7220746865206d73672073656e64657200000000000000606082015260800190565b6020808252602a908201527f5f446174614261746368494420636865636b696e6720766f7465206d757374206040820152691a185d9948195b99195960b21b606082015260800190565b6020808252602f908201527f636f756c64206e6f742072657761726420746f6b656e20696e2054726967676560408201526e3921b432b1b5a9b837ba161018973160891b606082015260800190565b6020808252602b908201527f576f726b6572206973206e6f7420617661696c61626c6520736f2063616e277460408201526a103ab73932b3b4b9ba32b960a91b606082015260800190565b6020808252603d908201527f436f756c64206e6f74207265717565737420656e6f75676820616c6c6f63617460408201527f6564207374616b652c2072657175657374566f74696e67526967687473000000606082015260800190565b60208082526011908201527005f446174614261746368494420213d203607c1b604082015260600190565b60208082526026908201527f557365722063616e206e6f742072657665616c207477696365206f6e2073616d6040820152656520766f746560d01b606082015260800190565b6020808252602f908201527f5573657220686173206e6f7420636f6d6d69746564206265666f72652c20746860408201526e1d5cc818d85b89dd081c995d99585b608a1b606082015260800190565b60208082526010908201526f05f7365637265744861736820213d20360841b604082015260600190565b60208082526014908201527311185d18481b5d5cdd081a185d9948195b99195960621b604082015260600190565b6020808252602d908201527f636f756c64206e6f74207265776172642052455020696e20547269676765724360408201526c6865636b53706f742c20312e6160981b606082015260800190565b6020808252602b908201527f75736572206d75737420686176652072657665616c656420696e20746869732060408201526a0ced2eccadc4084c2e8c6d60ab1b606082015260800190565b60208082526017908201527f5f4461746142617463684944206d757374206578697374000000000000000000604082015260600190565b6020808252601490820152733737ba1030903b30b634b2103837b9b4ba34b7b760611b604082015260600190565b6020808252603b908201527f43616e277420616c6c6f6361746520776f726b2c207468652063757272656e7460408201527f20626174636820697320616c726561647920616c6c6f63617465640000000000606082015260800190565b60208082526048908201527f55736572206e6565647320746f2068617665206265656e20616c6c6f6361746560408201527f64207468652063757272656e74206461746120626174636820746f20636f6d6d6060820152671a5d081bdb881a5d60c21b608082015260a00190565b6020808252818101527f4f776e61626c653a2063616c6c6572206973206e6f7420746865206f776e6572604082015260600190565b60208082526047908201527f72656d6f7665576f726b657246726f6d4163746976653a20576f726b6572206e60408201527f6565647320746f20626520617661696c61626c65206e6f7720616e64207265676060820152661a5cdd195c995960ca1b608082015260a00190565b60208082526029908201527f6765744e756d50617373696e67546f6b656e733a20686173686573206d75737460408201526808189948195c5d585b60ba1b606082015260800190565b6020808252601d908201527f66696c655f68617368206c656e677468206d75737420626520213d2030000000604082015260600190565b60208082526036908201527f43616e277420616c6c6f6361746520776f726b2c207468652063757272656e74604082015275206261746368206973206e6f7420636f6d706c65746560501b606082015260800190565b60208082526026908201527f52657665616c20706572696f64206e6f74206f70656e20666f7220746869732060408201526511185d18525160d21b606082015260800190565b60208082526027908201527f617661696c61626c65546f6b656e732073686f756c64206265203e3d205f6e756040820152666d546f6b656e7360c81b606082015260800190565b60208082526019908201527f557365722068617320746f206265207265676973746572656400000000000000604082015260600190565b6020808252601390820152720c081059191c995cdcc8139bdd0815985b1a59606a1b604082015260600190565b6020808252602f908201527f636f756c64206e6f742072657761726420746f6b656e20696e2054726967676560408201526e3921b432b1b5a9b837ba161019173160891b606082015260800190565b60208082526037908201527f75736572206d757374206861766520656e6f75676820766f74696e672072696760408201527f68747320616b6120616c6c6f6361746564207374616b65000000000000000000606082015260800190565b6020808252602d908201527f636f756c64206e6f74207265776172642052455020696e20547269676765724360408201526c6865636b53706f742c20322e6160981b606082015260800190565b6020808252603b908201527f436f756c64206e6f74207769746864726177566f74696e67526967687473207460408201527f68726f7567682050726f78795374616b654465616c6c6f636174650000000000606082015260800190565b6020808252600f908201526e11185d18481b5d5cdd08195e1a5cdd608a1b604082015260600190565b600085825284602083015260806040830152615e516080830185615129565b905082606083015295945050505050565b600083825282602083015260606040830152613bf060608301615155565b600084825283602083015260806040830152615e9e60808301615155565b9050826060830152949350505050565b9182526020820152606060408201819052600990820152686e756d546f6b656e7360b81b608082015260a00190565b93845260208401929092526040830152606082015260800190565b9182526001600160a01b0316602082015260400190565b60006101808e835260018060a01b03808f166020850152808e166040850152508b60608401528a151560808401528960a08401528860c08401528760e084015286151561010084015280610120840152615f6b81840187615129565b941515610140840152505061016001529a9950505050505050505050565b9182526001600160a01b031660208201526000604082015260600190565b9283526020830191909152604082015260600190565b6000610180820190508d82528c60208301528b60408301528a6060830152891515608083015288151560a083015287151560c08301528660e083015285610100830152846101208301528361014083015261601c610160830184615107565b9d9c50505050505050505050505050565b6000808335601e19843603018112616043578283fd5b8301803591506001600160401b0382111561605c578283fd5b602001915036819003821315614c2c57600080fd5b6040518181016001600160401b0381118282101715616092576160926161f1565b604052919050565b60006001600160401b038211156160b3576160b36161f1565b5060209081020190565b60009081526020902090565b600082198211156160dc576160dc6161c5565b500190565b6000826160f0576160f06161db565b500490565b600081600019048311821515161561610f5761610f6161c5565b500290565b600082821015616126576161266161c5565b500390565b60005b8381101561614657818101518382015260200161612e565b83811115616155576000848401525b50505050565b60028104600182168061616f57607f821691505b6020821081141561619057634e487b7160e01b600052602260045260246000fd5b50919050565b60006000198214156161aa576161aa6161c5565b5060010190565b6000826161c0576161c06161db565b500690565b634e487b7160e01b600052601160045260246000fd5b634e487b7160e01b600052601260045260246000fd5b634e487b7160e01b600052604160045260246000fdfea264697066735822122056db5a84978dcbf07cb362c05b81b6b851d97c40093b763ca30b4f0ecdce630a64736f6c63430008000033",
  "linkReferences": {
    "contracts/worksystems/DataSpotting.sol": {
      "AttributeStore": [
        {
          "length": 20,
          "start": 14615
        },
        {
          "length": 20,
          "start": 14723
        },
        {
          "length": 20,
          "start": 14982
        },
        {
          "length": 20,
          "start": 15374
        }
      ],
      "DLL": [
        {
          "length": 20,
          "start": 3628
        },
        {
          "length": 20,
          "start": 6960
        },
        {
          "length": 20,
          "start": 7132
        },
        {
          "length": 20,
          "start": 7435
        },
        {
          "length": 20,
          "start": 11655
        },
        {
          "length": 20,
          "start": 11835
        },
        {
          "length": 20,
          "start": 14104
        },
        {
          "length": 20,
          "start": 14266
        },
        {
          "length": 20,
          "start": 14461
        }
      ]
    }
  },
  "deployedLinkReferences": {
    "contracts/worksystems/DataSpotting.sol": {
      "AttributeStore": [
        {
          "length": 20,
          "start": 14208
        },
        {
          "length": 20,
          "start": 14316
        },
        {
          "length": 20,
          "start": 14575
        },
        {
          "length": 20,
          "start": 14967
        }
      ],
      "DLL": [
        {
          "length": 20,
          "start": 3221
        },
        {
          "length": 20,
          "start": 6553
        },
        {
          "length": 20,
          "start": 6725
        },
        {
          "length": 20,
          "start": 7028
        },
        {
          "length": 20,
          "start": 11248
        },
        {
          "length": 20,
          "start": 11428
        },
        {
          "length": 20,
          "start": 13697
        },
        {
          "length": 20,
          "start": 13859
        },
        {
          "length": 20,
          "start": 14054
        }
      ]
    }
  }
}