{
  "_format": "hh-sol-artifact-1",
  "contractName": "DataSpotting",
  "sourceName": "contracts/worksystems/DataSpotting.sol",
  "abi": [
    {
      "inputs": [
        {
          "internalType": "address",
          "name": "EXDT_token",
          "type": "address"
        }
      ],
      "stateMutability": "nonpayable",
      "type": "constructor"
    },
    {
      "anonymous": false,
      "inputs": [
        {
          "indexed": true,
          "internalType": "address",
          "name": "previousOwner",
          "type": "address"
        },
        {
          "indexed": true,
          "internalType": "address",
          "name": "newOwner",
          "type": "address"
        }
      ],
      "name": "OwnershipTransferred",
      "type": "event"
    },
    {
      "anonymous": false,
      "inputs": [
        {
          "indexed": true,
          "internalType": "uint256",
          "name": "epochNumber",
          "type": "uint256"
        }
      ],
      "name": "_NewEpoch",
      "type": "event"
    },
    {
      "anonymous": false,
      "inputs": [
        {
          "indexed": false,
          "internalType": "string",
          "name": "hash",
          "type": "string"
        },
        {
          "indexed": true,
          "internalType": "address",
          "name": "creator",
          "type": "address"
        }
      ],
      "name": "_SpotAccepted",
      "type": "event"
    },
    {
      "anonymous": false,
      "inputs": [
        {
          "indexed": true,
          "internalType": "uint256",
          "name": "DataID",
          "type": "uint256"
        },
        {
          "indexed": false,
          "internalType": "uint256",
          "name": "numTokens",
          "type": "uint256"
        },
        {
          "indexed": true,
          "internalType": "address",
          "name": "voter",
          "type": "address"
        }
      ],
      "name": "_SpotCheckCommitted",
      "type": "event"
    },
    {
      "anonymous": false,
      "inputs": [
        {
          "indexed": true,
          "internalType": "uint256",
          "name": "DataID",
          "type": "uint256"
        },
        {
          "indexed": false,
          "internalType": "uint256",
          "name": "numTokens",
          "type": "uint256"
        },
        {
          "indexed": false,
          "internalType": "uint256",
          "name": "votesFor",
          "type": "uint256"
        },
        {
          "indexed": false,
          "internalType": "uint256",
          "name": "votesAgainst",
          "type": "uint256"
        },
        {
          "indexed": true,
          "internalType": "uint256",
          "name": "choice",
          "type": "uint256"
        },
        {
          "indexed": true,
          "internalType": "address",
          "name": "voter",
          "type": "address"
        }
      ],
      "name": "_SpotCheckRevealed",
      "type": "event"
    },
    {
      "anonymous": false,
      "inputs": [
        {
          "indexed": true,
          "internalType": "uint256",
          "name": "DataID",
          "type": "uint256"
        },
        {
          "indexed": false,
          "internalType": "string",
          "name": "file_hash",
          "type": "string"
        },
        {
          "indexed": false,
          "internalType": "string",
          "name": "URL_domain",
          "type": "string"
        },
        {
          "indexed": false,
          "internalType": "string[]",
          "name": "tags",
          "type": "string[]"
        },
        {
          "indexed": true,
          "internalType": "address",
          "name": "sender",
          "type": "address"
        }
      ],
      "name": "_SpotSubmitted",
      "type": "event"
    },
    {
      "anonymous": false,
      "inputs": [
        {
          "indexed": true,
          "internalType": "uint256",
          "name": "DataID",
          "type": "uint256"
        },
        {
          "indexed": true,
          "internalType": "address",
          "name": "voter",
          "type": "address"
        }
      ],
      "name": "_TokensRescued",
      "type": "event"
    },
    {
      "anonymous": false,
      "inputs": [
        {
          "indexed": false,
          "internalType": "uint256",
          "name": "numTokens",
          "type": "uint256"
        },
        {
          "indexed": true,
          "internalType": "address",
          "name": "voter",
          "type": "address"
        }
      ],
      "name": "_VotingRightsGranted",
      "type": "event"
    },
    {
      "anonymous": false,
      "inputs": [
        {
          "indexed": false,
          "internalType": "uint256",
          "name": "numTokens",
          "type": "uint256"
        },
        {
          "indexed": true,
          "internalType": "address",
          "name": "voter",
          "type": "address"
        }
      ],
      "name": "_VotingRightsWithdrawn",
      "type": "event"
    },
    {
      "anonymous": false,
      "inputs": [
        {
          "indexed": true,
          "internalType": "uint256",
          "name": "batchID",
          "type": "uint256"
        },
        {
          "indexed": false,
          "internalType": "address",
          "name": "worker",
          "type": "address"
        }
      ],
      "name": "_WorkAllocated",
      "type": "event"
    },
    {
      "anonymous": false,
      "inputs": [
        {
          "indexed": true,
          "internalType": "address",
          "name": "worker",
          "type": "address"
        },
        {
          "indexed": false,
          "internalType": "uint256",
          "name": "timestamp",
          "type": "uint256"
        }
      ],
      "name": "_WorkerRegistered",
      "type": "event"
    },
    {
      "anonymous": false,
      "inputs": [
        {
          "indexed": true,
          "internalType": "address",
          "name": "worker",
          "type": "address"
        },
        {
          "indexed": false,
          "internalType": "uint256",
          "name": "timestamp",
          "type": "uint256"
        }
      ],
      "name": "_WorkerUnregistered",
      "type": "event"
    },
    {
      "inputs": [],
      "name": "AddressManager",
      "outputs": [
        {
          "internalType": "contract IAddressManager",
          "name": "",
          "type": "address"
        }
      ],
      "stateMutability": "view",
      "type": "function"
    },
    {
      "inputs": [],
      "name": "AllocateWork",
      "outputs": [],
      "stateMutability": "nonpayable",
      "type": "function"
    },
    {
      "inputs": [],
      "name": "AmIRegistered",
      "outputs": [
        {
          "internalType": "bool",
          "name": "passed",
          "type": "bool"
        }
      ],
      "stateMutability": "view",
      "type": "function"
    },
    {
      "inputs": [],
      "name": "BatchCheckingCursor",
      "outputs": [
        {
          "internalType": "uint256",
          "name": "",
          "type": "uint256"
        }
      ],
      "stateMutability": "view",
      "type": "function"
    },
    {
      "inputs": [],
      "name": "COMMIT_ROUND_DURATION",
      "outputs": [
        {
          "internalType": "uint256",
          "name": "",
          "type": "uint256"
        }
      ],
      "stateMutability": "view",
      "type": "function"
    },
    {
      "inputs": [],
      "name": "CurrentWorkEpoch",
      "outputs": [
        {
          "internalType": "uint256",
          "name": "",
          "type": "uint256"
        }
      ],
      "stateMutability": "view",
      "type": "function"
    },
    {
      "inputs": [
        {
          "internalType": "uint256",
          "name": "",
          "type": "uint256"
        }
      ],
      "name": "DataBatch",
      "outputs": [
        {
          "internalType": "uint256",
          "name": "start_idx",
          "type": "uint256"
        },
        {
          "internalType": "uint256",
          "name": "end_idx",
          "type": "uint256"
        },
        {
          "internalType": "uint256",
          "name": "counter",
          "type": "uint256"
        },
        {
          "internalType": "uint256",
          "name": "unrevealed_workers",
          "type": "uint256"
        },
        {
          "internalType": "bool",
          "name": "complete",
          "type": "bool"
        },
        {
          "internalType": "bool",
          "name": "checked",
          "type": "bool"
        },
        {
          "internalType": "bool",
          "name": "allocated_to_work",
          "type": "bool"
        },
        {
          "internalType": "uint256",
          "name": "commitEndDate",
          "type": "uint256"
        },
        {
          "internalType": "uint256",
          "name": "revealEndDate",
          "type": "uint256"
        },
        {
          "internalType": "uint256",
          "name": "votesFor",
          "type": "uint256"
        },
        {
          "internalType": "uint256",
          "name": "votesAgainst",
          "type": "uint256"
        },
        {
          "internalType": "enum DataSpotting.DataSatus",
          "name": "status",
          "type": "uint8"
        }
      ],
      "stateMutability": "view",
      "type": "function"
    },
    {
      "inputs": [
        {
          "internalType": "uint256",
          "name": "_DataBatchID",
          "type": "uint256"
        }
      ],
      "name": "DataCommitEndDate",
      "outputs": [
        {
          "internalType": "uint256",
          "name": "commitEndDate",
          "type": "uint256"
        }
      ],
      "stateMutability": "view",
      "type": "function"
    },
    {
      "inputs": [
        {
          "internalType": "uint256",
          "name": "_DataBatchID",
          "type": "uint256"
        }
      ],
      "name": "DataEnded",
      "outputs": [
        {
          "internalType": "bool",
          "name": "ended",
          "type": "bool"
        }
      ],
      "stateMutability": "view",
      "type": "function"
    },
    {
      "inputs": [
        {
          "internalType": "uint256",
          "name": "_DataBatchID",
          "type": "uint256"
        }
      ],
      "name": "DataExists",
      "outputs": [
        {
          "internalType": "bool",
          "name": "exists",
          "type": "bool"
        }
      ],
      "stateMutability": "view",
      "type": "function"
    },
    {
      "inputs": [],
      "name": "DataNonce",
      "outputs": [
        {
          "internalType": "uint256",
          "name": "",
          "type": "uint256"
        }
      ],
      "stateMutability": "view",
      "type": "function"
    },
    {
      "inputs": [
        {
          "internalType": "uint256",
          "name": "_DataBatchID",
          "type": "uint256"
        }
      ],
      "name": "DataRevealEndDate",
      "outputs": [
        {
          "internalType": "uint256",
          "name": "revealEndDate",
          "type": "uint256"
        }
      ],
      "stateMutability": "view",
      "type": "function"
    },
    {
      "inputs": [
        {
          "internalType": "address",
          "name": "user_",
          "type": "address"
        }
      ],
      "name": "GetCurrentWork",
      "outputs": [
        {
          "internalType": "uint256",
          "name": "",
          "type": "uint256"
        }
      ],
      "stateMutability": "view",
      "type": "function"
    },
    {
      "inputs": [
        {
          "internalType": "address",
          "name": "user_",
          "type": "address"
        }
      ],
      "name": "IsNewWorkAvailable",
      "outputs": [
        {
          "internalType": "bool",
          "name": "",
          "type": "bool"
        }
      ],
      "stateMutability": "view",
      "type": "function"
    },
    {
      "inputs": [],
      "name": "LastBatchCounter",
      "outputs": [
        {
          "internalType": "uint256",
          "name": "",
          "type": "uint256"
        }
      ],
      "stateMutability": "view",
      "type": "function"
    },
    {
      "inputs": [],
      "name": "MIN_PARTICIPANTS_FOR_VALIDITY",
      "outputs": [
        {
          "internalType": "uint256",
          "name": "",
          "type": "uint256"
        }
      ],
      "stateMutability": "view",
      "type": "function"
    },
    {
      "inputs": [],
      "name": "MIN_REP_Data",
      "outputs": [
        {
          "internalType": "uint256",
          "name": "",
          "type": "uint256"
        }
      ],
      "stateMutability": "view",
      "type": "function"
    },
    {
      "inputs": [],
      "name": "MIN_REP_REVEAL",
      "outputs": [
        {
          "internalType": "uint256",
          "name": "",
          "type": "uint256"
        }
      ],
      "stateMutability": "view",
      "type": "function"
    },
    {
      "inputs": [],
      "name": "MIN_REWARD_Data",
      "outputs": [
        {
          "internalType": "uint256",
          "name": "",
          "type": "uint256"
        }
      ],
      "stateMutability": "view",
      "type": "function"
    },
    {
      "inputs": [],
      "name": "MIN_STAKE",
      "outputs": [
        {
          "internalType": "uint256",
          "name": "",
          "type": "uint256"
        }
      ],
      "stateMutability": "view",
      "type": "function"
    },
    {
      "inputs": [
        {
          "internalType": "address",
          "name": "",
          "type": "address"
        },
        {
          "internalType": "uint256",
          "name": "",
          "type": "uint256"
        }
      ],
      "name": "MasterWorkers",
      "outputs": [
        {
          "internalType": "address",
          "name": "",
          "type": "address"
        }
      ],
      "stateMutability": "view",
      "type": "function"
    },
    {
      "inputs": [],
      "name": "REVEAL_ROUND_DURATION",
      "outputs": [
        {
          "internalType": "uint256",
          "name": "",
          "type": "uint256"
        }
      ],
      "stateMutability": "view",
      "type": "function"
    },
    {
      "inputs": [],
      "name": "RegisterWorker",
      "outputs": [],
      "stateMutability": "nonpayable",
      "type": "function"
    },
    {
      "inputs": [],
      "name": "RepManager",
      "outputs": [
        {
          "internalType": "contract IRepManager",
          "name": "",
          "type": "address"
        }
      ],
      "stateMutability": "view",
      "type": "function"
    },
    {
      "inputs": [],
      "name": "RewardManager",
      "outputs": [
        {
          "internalType": "contract IRewardManager",
          "name": "",
          "type": "address"
        }
      ],
      "stateMutability": "view",
      "type": "function"
    },
    {
      "inputs": [],
      "name": "SPOT_CHECK_VOTE_QUORUM",
      "outputs": [
        {
          "internalType": "uint256",
          "name": "",
          "type": "uint256"
        }
      ],
      "stateMutability": "view",
      "type": "function"
    },
    {
      "inputs": [
        {
          "internalType": "string[]",
          "name": "file_hashs",
          "type": "string[]"
        },
        {
          "internalType": "address",
          "name": "main_worker_account",
          "type": "address"
        },
        {
          "internalType": "string[]",
          "name": "URL_domains",
          "type": "string[]"
        },
        {
          "internalType": "string[]",
          "name": "tags_",
          "type": "string[]"
        },
        {
          "internalType": "uint256[]",
          "name": "tags_id_",
          "type": "uint256[]"
        },
        {
          "internalType": "string",
          "name": "extra_",
          "type": "string"
        }
      ],
      "name": "SpotData",
      "outputs": [
        {
          "internalType": "uint256",
          "name": "Dataid_",
          "type": "uint256"
        }
      ],
      "stateMutability": "nonpayable",
      "type": "function"
    },
    {
      "inputs": [
        {
          "internalType": "address",
          "name": "",
          "type": "address"
        }
      ],
      "name": "SpotStakedTokenBalance",
      "outputs": [
        {
          "internalType": "uint256",
          "name": "",
          "type": "uint256"
        }
      ],
      "stateMutability": "view",
      "type": "function"
    },
    {
      "inputs": [
        {
          "internalType": "uint256",
          "name": "",
          "type": "uint256"
        }
      ],
      "name": "SpotsMapping",
      "outputs": [
        {
          "internalType": "string",
          "name": "ipfs_hash",
          "type": "string"
        },
        {
          "internalType": "address",
          "name": "author",
          "type": "address"
        },
        {
          "internalType": "uint256",
          "name": "timestamp",
          "type": "uint256"
        },
        {
          "internalType": "string",
          "name": "URL_domain",
          "type": "string"
        },
        {
          "internalType": "string",
          "name": "extra",
          "type": "string"
        },
        {
          "internalType": "enum DataSpotting.DataSatus",
          "name": "status",
          "type": "uint8"
        }
      ],
      "stateMutability": "view",
      "type": "function"
    },
    {
      "inputs": [],
      "name": "StakeManager",
      "outputs": [
        {
          "internalType": "contract IStakeManager",
          "name": "",
          "type": "address"
        }
      ],
      "stateMutability": "view",
      "type": "function"
    },
    {
      "inputs": [],
      "name": "TriggerNextEpoch",
      "outputs": [],
      "stateMutability": "nonpayable",
      "type": "function"
    },
    {
      "inputs": [],
      "name": "UnregisterWorker",
      "outputs": [],
      "stateMutability": "nonpayable",
      "type": "function"
    },
    {
      "inputs": [
        {
          "internalType": "uint256",
          "name": "_DataBatchID",
          "type": "uint256"
        }
      ],
      "name": "ValidateDataBatch",
      "outputs": [],
      "stateMutability": "nonpayable",
      "type": "function"
    },
    {
      "inputs": [
        {
          "internalType": "uint256",
          "name": "",
          "type": "uint256"
        },
        {
          "internalType": "uint256",
          "name": "",
          "type": "uint256"
        }
      ],
      "name": "WorkersPerBatch",
      "outputs": [
        {
          "internalType": "address",
          "name": "",
          "type": "address"
        }
      ],
      "stateMutability": "view",
      "type": "function"
    },
    {
      "inputs": [
        {
          "internalType": "address",
          "name": "",
          "type": "address"
        }
      ],
      "name": "WorkersState",
      "outputs": [
        {
          "internalType": "uint256",
          "name": "array_idx",
          "type": "uint256"
        },
        {
          "internalType": "address",
          "name": "worker_address",
          "type": "address"
        },
        {
          "internalType": "address",
          "name": "master_address",
          "type": "address"
        },
        {
          "internalType": "uint256",
          "name": "allocated_work_batch",
          "type": "uint256"
        },
        {
          "internalType": "bool",
          "name": "has_completed_work",
          "type": "bool"
        },
        {
          "internalType": "uint256",
          "name": "last_worked_round",
          "type": "uint256"
        },
        {
          "internalType": "uint256",
          "name": "last_interaction_date",
          "type": "uint256"
        },
        {
          "internalType": "bool",
          "name": "is_available_now",
          "type": "bool"
        },
        {
          "internalType": "string",
          "name": "extra",
          "type": "string"
        },
        {
          "internalType": "bool",
          "name": "registered",
          "type": "bool"
        },
        {
          "internalType": "uint256",
          "name": "registration_date",
          "type": "uint256"
        }
      ],
      "stateMutability": "view",
      "type": "function"
    },
    {
      "inputs": [
        {
          "internalType": "address",
          "name": "_user",
          "type": "address"
        },
        {
          "internalType": "uint256",
          "name": "_DataBatchID",
          "type": "uint256"
        }
      ],
      "name": "attrUUID",
      "outputs": [
        {
          "internalType": "bytes32",
          "name": "UUID",
          "type": "bytes32"
        }
      ],
      "stateMutability": "pure",
      "type": "function"
    },
    {
      "inputs": [
        {
          "internalType": "uint256",
          "name": "",
          "type": "uint256"
        }
      ],
      "name": "availableWorkers",
      "outputs": [
        {
          "internalType": "address",
          "name": "",
          "type": "address"
        }
      ],
      "stateMutability": "view",
      "type": "function"
    },
    {
      "inputs": [
        {
          "internalType": "uint256",
          "name": "",
          "type": "uint256"
        }
      ],
      "name": "busyWorkers",
      "outputs": [
        {
          "internalType": "address",
          "name": "",
          "type": "address"
        }
      ],
      "stateMutability": "view",
      "type": "function"
    },
    {
      "inputs": [
        {
          "internalType": "uint256",
          "name": "_DataBatchID",
          "type": "uint256"
        }
      ],
      "name": "commitPeriodActive",
      "outputs": [
        {
          "internalType": "bool",
          "name": "active",
          "type": "bool"
        }
      ],
      "stateMutability": "view",
      "type": "function"
    },
    {
      "inputs": [
        {
          "internalType": "uint256",
          "name": "_DataBatchID",
          "type": "uint256"
        },
        {
          "internalType": "bytes32",
          "name": "_secretHash",
          "type": "bytes32"
        }
      ],
      "name": "commitSpotCheck",
      "outputs": [],
      "stateMutability": "nonpayable",
      "type": "function"
    },
    {
      "inputs": [
        {
          "internalType": "uint256[]",
          "name": "_DataBatchIDs",
          "type": "uint256[]"
        },
        {
          "internalType": "bytes32[]",
          "name": "_secretHashes",
          "type": "bytes32[]"
        }
      ],
      "name": "commitSpotChecks",
      "outputs": [],
      "stateMutability": "nonpayable",
      "type": "function"
    },
    {
      "inputs": [
        {
          "internalType": "address",
          "name": "_voter",
          "type": "address"
        },
        {
          "internalType": "uint256",
          "name": "_DataBatchID",
          "type": "uint256"
        }
      ],
      "name": "didCommit",
      "outputs": [
        {
          "internalType": "bool",
          "name": "committed",
          "type": "bool"
        }
      ],
      "stateMutability": "view",
      "type": "function"
    },
    {
      "inputs": [
        {
          "internalType": "address",
          "name": "_voter",
          "type": "address"
        },
        {
          "internalType": "uint256",
          "name": "_DataBatchID",
          "type": "uint256"
        }
      ],
      "name": "didReveal",
      "outputs": [
        {
          "internalType": "bool",
          "name": "revealed",
          "type": "bool"
        }
      ],
      "stateMutability": "view",
      "type": "function"
    },
    {
      "inputs": [],
      "name": "getBlockTimestamp",
      "outputs": [
        {
          "internalType": "uint256",
          "name": "blocktimestamp",
          "type": "uint256"
        }
      ],
      "stateMutability": "view",
      "type": "function"
    },
    {
      "inputs": [
        {
          "internalType": "address",
          "name": "_voter",
          "type": "address"
        },
        {
          "internalType": "uint256",
          "name": "_DataBatchID",
          "type": "uint256"
        }
      ],
      "name": "getCommitHash",
      "outputs": [
        {
          "internalType": "bytes32",
          "name": "commitHash",
          "type": "bytes32"
        }
      ],
      "stateMutability": "view",
      "type": "function"
    },
    {
      "inputs": [],
      "name": "getCurrentWorkEpoch",
      "outputs": [
        {
          "internalType": "uint256",
          "name": "WorkEpoch",
          "type": "uint256"
        }
      ],
      "stateMutability": "view",
      "type": "function"
    },
    {
      "inputs": [
        {
          "internalType": "uint256",
          "name": "_DataBatchID",
          "type": "uint256"
        }
      ],
      "name": "getDomainsForBatch",
      "outputs": [
        {
          "internalType": "string[]",
          "name": "",
          "type": "string[]"
        }
      ],
      "stateMutability": "view",
      "type": "function"
    },
    {
      "inputs": [
        {
          "internalType": "uint256",
          "name": "_voteOption",
          "type": "uint256"
        },
        {
          "internalType": "uint256",
          "name": "_salt",
          "type": "uint256"
        }
      ],
      "name": "getEncryptedHash",
      "outputs": [
        {
          "internalType": "bytes32",
          "name": "keccak256hash",
          "type": "bytes32"
        }
      ],
      "stateMutability": "pure",
      "type": "function"
    },
    {
      "inputs": [
        {
          "internalType": "uint256",
          "name": "a",
          "type": "uint256"
        },
        {
          "internalType": "uint256",
          "name": "b",
          "type": "uint256"
        }
      ],
      "name": "getHash",
      "outputs": [
        {
          "internalType": "bytes32",
          "name": "keccak256hash",
          "type": "bytes32"
        }
      ],
      "stateMutability": "pure",
      "type": "function"
    },
    {
      "inputs": [
        {
          "internalType": "uint256",
          "name": "_DataBatchID",
          "type": "uint256"
        }
      ],
      "name": "getIPFShashesForBatch",
      "outputs": [
        {
          "internalType": "string[]",
          "name": "",
          "type": "string[]"
        }
      ],
      "stateMutability": "view",
      "type": "function"
    },
    {
      "inputs": [
        {
          "internalType": "address",
          "name": "_voter",
          "type": "address"
        },
        {
          "internalType": "uint256",
          "name": "_numTokens",
          "type": "uint256"
        },
        {
          "internalType": "uint256",
          "name": "_DataBatchID",
          "type": "uint256"
        }
      ],
      "name": "getInsertPointForNumTokens",
      "outputs": [
        {
          "internalType": "uint256",
          "name": "prevNode",
          "type": "uint256"
        }
      ],
      "stateMutability": "view",
      "type": "function"
    },
    {
      "inputs": [],
      "name": "getLastBatchId",
      "outputs": [
        {
          "internalType": "uint256",
          "name": "LastBatchId",
          "type": "uint256"
        }
      ],
      "stateMutability": "view",
      "type": "function"
    },
    {
      "inputs": [],
      "name": "getLastCheckedBatchId",
      "outputs": [
        {
          "internalType": "uint256",
          "name": "LastCheckedBatchId",
          "type": "uint256"
        }
      ],
      "stateMutability": "view",
      "type": "function"
    },
    {
      "inputs": [],
      "name": "getLastDataId",
      "outputs": [
        {
          "internalType": "uint256",
          "name": "DataId",
          "type": "uint256"
        }
      ],
      "stateMutability": "view",
      "type": "function"
    },
    {
      "inputs": [
        {
          "internalType": "address",
          "name": "_voter",
          "type": "address"
        }
      ],
      "name": "getLastNode",
      "outputs": [
        {
          "internalType": "uint256",
          "name": "DataID",
          "type": "uint256"
        }
      ],
      "stateMutability": "view",
      "type": "function"
    },
    {
      "inputs": [
        {
          "internalType": "address",
          "name": "user",
          "type": "address"
        }
      ],
      "name": "getLastUserDataId",
      "outputs": [
        {
          "internalType": "uint256",
          "name": "DataId",
          "type": "uint256"
        }
      ],
      "stateMutability": "view",
      "type": "function"
    },
    {
      "inputs": [
        {
          "internalType": "address",
          "name": "_voter",
          "type": "address"
        }
      ],
      "name": "getLockedTokens",
      "outputs": [
        {
          "internalType": "uint256",
          "name": "numTokens",
          "type": "uint256"
        }
      ],
      "stateMutability": "view",
      "type": "function"
    },
    {
      "inputs": [
        {
          "internalType": "address",
          "name": "_voter",
          "type": "address"
        },
        {
          "internalType": "uint256",
          "name": "_DataBatchID",
          "type": "uint256"
        },
        {
          "internalType": "uint256",
          "name": "_salt",
          "type": "uint256"
        }
      ],
      "name": "getNumPassingTokens",
      "outputs": [
        {
          "internalType": "uint256",
          "name": "correctSpotChecks",
          "type": "uint256"
        }
      ],
      "stateMutability": "view",
      "type": "function"
    },
    {
      "inputs": [
        {
          "internalType": "address",
          "name": "_voter",
          "type": "address"
        },
        {
          "internalType": "uint256",
          "name": "_DataBatchID",
          "type": "uint256"
        }
      ],
      "name": "getNumTokens",
      "outputs": [
        {
          "internalType": "uint256",
          "name": "numTokens",
          "type": "uint256"
        }
      ],
      "stateMutability": "view",
      "type": "function"
    },
    {
      "inputs": [],
      "name": "getRandom",
      "outputs": [
        {
          "internalType": "uint256",
          "name": "",
          "type": "uint256"
        }
      ],
      "stateMutability": "view",
      "type": "function"
    },
    {
      "inputs": [],
      "name": "getSeed",
      "outputs": [
        {
          "internalType": "bytes32",
          "name": "addr",
          "type": "bytes32"
        }
      ],
      "stateMutability": "view",
      "type": "function"
    },
    {
      "inputs": [
        {
          "internalType": "uint256",
          "name": "_DataBatchID",
          "type": "uint256"
        }
      ],
      "name": "getTotalNumberOfSpotChecks",
      "outputs": [
        {
          "internalType": "uint256",
          "name": "vc",
          "type": "uint256"
        }
      ],
      "stateMutability": "view",
      "type": "function"
    },
    {
      "inputs": [
        {
          "internalType": "uint256",
          "name": "_DataBatchID",
          "type": "uint256"
        }
      ],
      "name": "getTotalNumberOfTokensForWinningOption",
      "outputs": [
        {
          "internalType": "uint256",
          "name": "numTokens",
          "type": "uint256"
        }
      ],
      "stateMutability": "view",
      "type": "function"
    },
    {
      "inputs": [
        {
          "internalType": "address",
          "name": "user",
          "type": "address"
        }
      ],
      "name": "getUserDatas",
      "outputs": [
        {
          "internalType": "uint256[]",
          "name": "user_Datas",
          "type": "uint256[]"
        }
      ],
      "stateMutability": "view",
      "type": "function"
    },
    {
      "inputs": [
        {
          "internalType": "uint256",
          "name": "_terminationDate",
          "type": "uint256"
        }
      ],
      "name": "isExpired",
      "outputs": [
        {
          "internalType": "bool",
          "name": "expired",
          "type": "bool"
        }
      ],
      "stateMutability": "view",
      "type": "function"
    },
    {
      "inputs": [
        {
          "internalType": "uint256",
          "name": "_DataBatchID",
          "type": "uint256"
        }
      ],
      "name": "isPassed",
      "outputs": [
        {
          "internalType": "bool",
          "name": "passed",
          "type": "bool"
        }
      ],
      "stateMutability": "view",
      "type": "function"
    },
    {
      "inputs": [
        {
          "internalType": "address",
          "name": "_worker",
          "type": "address"
        }
      ],
      "name": "isWorkerRegistered",
      "outputs": [
        {
          "internalType": "bool",
          "name": "passed",
          "type": "bool"
        }
      ],
      "stateMutability": "view",
      "type": "function"
    },
    {
      "inputs": [],
      "name": "owner",
      "outputs": [
        {
          "internalType": "address",
          "name": "",
          "type": "address"
        }
      ],
      "stateMutability": "view",
      "type": "function"
    },
    {
      "inputs": [
        {
          "internalType": "uint256",
          "name": "k",
          "type": "uint256"
        },
        {
          "internalType": "uint256",
          "name": "N",
          "type": "uint256"
        }
      ],
      "name": "random_selection",
      "outputs": [
        {
          "internalType": "uint256[]",
          "name": "",
          "type": "uint256[]"
        }
      ],
      "stateMutability": "view",
      "type": "function"
    },
    {
      "inputs": [],
      "name": "renounceOwnership",
      "outputs": [],
      "stateMutability": "nonpayable",
      "type": "function"
    },
    {
      "inputs": [
        {
          "internalType": "uint256",
          "name": "_numTokens",
          "type": "uint256"
        }
      ],
      "name": "requestVotingRights",
      "outputs": [],
      "stateMutability": "nonpayable",
      "type": "function"
    },
    {
      "inputs": [
        {
          "internalType": "uint256",
          "name": "_DataBatchID",
          "type": "uint256"
        }
      ],
      "name": "rescueTokens",
      "outputs": [],
      "stateMutability": "nonpayable",
      "type": "function"
    },
    {
      "inputs": [
        {
          "internalType": "uint256[]",
          "name": "_DataBatchIDs",
          "type": "uint256[]"
        }
      ],
      "name": "rescueTokensInMultipleDatas",
      "outputs": [],
      "stateMutability": "nonpayable",
      "type": "function"
    },
    {
      "inputs": [
        {
          "internalType": "uint256",
          "name": "_DataBatchID",
          "type": "uint256"
        }
      ],
      "name": "revealPeriodActive",
      "outputs": [
        {
          "internalType": "bool",
          "name": "active",
          "type": "bool"
        }
      ],
      "stateMutability": "view",
      "type": "function"
    },
    {
      "inputs": [
        {
          "internalType": "uint256",
          "name": "_DataBatchID",
          "type": "uint256"
        },
        {
          "internalType": "uint256",
          "name": "_voteOption",
          "type": "uint256"
        },
        {
          "internalType": "uint256",
          "name": "_salt",
          "type": "uint256"
        }
      ],
      "name": "revealSpotCheck",
      "outputs": [],
      "stateMutability": "nonpayable",
      "type": "function"
    },
    {
      "inputs": [
        {
          "internalType": "uint256[]",
          "name": "_DataBatchIDs",
          "type": "uint256[]"
        },
        {
          "internalType": "uint256[]",
          "name": "_voteOptions",
          "type": "uint256[]"
        },
        {
          "internalType": "uint256[]",
          "name": "_salts",
          "type": "uint256[]"
        }
      ],
      "name": "revealSpotChecks",
      "outputs": [],
      "stateMutability": "nonpayable",
      "type": "function"
    },
    {
      "inputs": [],
      "name": "sFuel",
      "outputs": [
        {
          "internalType": "address",
          "name": "",
          "type": "address"
        }
      ],
      "stateMutability": "view",
      "type": "function"
    },
    {
      "inputs": [
        {
          "internalType": "uint256",
          "name": "N",
          "type": "uint256"
        }
      ],
      "name": "shuffle_array",
      "outputs": [
        {
          "internalType": "uint256[]",
          "name": "",
          "type": "uint256[]"
        }
      ],
      "stateMutability": "view",
      "type": "function"
    },
    {
      "inputs": [],
      "name": "token",
      "outputs": [
        {
          "internalType": "contract IERC20",
          "name": "",
          "type": "address"
        }
      ],
      "stateMutability": "view",
      "type": "function"
    },
    {
      "inputs": [
        {
          "internalType": "address",
          "name": "newOwner",
          "type": "address"
        }
      ],
      "name": "transferOwnership",
      "outputs": [],
      "stateMutability": "nonpayable",
      "type": "function"
    },
    {
      "inputs": [
        {
          "internalType": "address",
          "name": "addr",
          "type": "address"
        }
      ],
      "name": "updateAddressManager",
      "outputs": [],
      "stateMutability": "nonpayable",
      "type": "function"
    },
    {
      "inputs": [
        {
          "internalType": "uint256",
          "name": "COMMIT_ROUND_DURATION_",
          "type": "uint256"
        }
      ],
      "name": "updateCommitRoundDuration",
      "outputs": [],
      "stateMutability": "nonpayable",
      "type": "function"
    },
    {
      "inputs": [
        {
          "internalType": "address",
          "name": "addr",
          "type": "address"
        }
      ],
      "name": "updateRepManager",
      "outputs": [],
      "stateMutability": "nonpayable",
      "type": "function"
    },
    {
      "inputs": [
        {
          "internalType": "uint256",
          "name": "REVEAL_ROUND_DURATION_",
          "type": "uint256"
        }
      ],
      "name": "updateRevealRoundDuration",
      "outputs": [],
      "stateMutability": "nonpayable",
      "type": "function"
    },
    {
      "inputs": [
        {
          "internalType": "address",
          "name": "addr",
          "type": "address"
        }
      ],
      "name": "updateRewardManager",
      "outputs": [],
      "stateMutability": "nonpayable",
      "type": "function"
    },
    {
      "inputs": [
        {
          "internalType": "address",
          "name": "addr",
          "type": "address"
        }
      ],
      "name": "updateStakeManager",
      "outputs": [],
      "stateMutability": "nonpayable",
      "type": "function"
    },
    {
      "inputs": [
        {
          "internalType": "address",
          "name": "sFuel_",
          "type": "address"
        }
      ],
      "name": "updatesFuelFaucet",
      "outputs": [],
      "stateMutability": "nonpayable",
      "type": "function"
    },
    {
      "inputs": [
        {
          "internalType": "address",
          "name": "",
          "type": "address"
        },
        {
          "internalType": "uint256",
          "name": "",
          "type": "uint256"
        }
      ],
      "name": "userSubmissions",
      "outputs": [
        {
          "internalType": "uint256",
          "name": "",
          "type": "uint256"
        }
      ],
      "stateMutability": "view",
      "type": "function"
    },
    {
      "inputs": [
        {
          "internalType": "uint256",
          "name": "_prevID",
          "type": "uint256"
        },
        {
          "internalType": "uint256",
          "name": "_nextID",
          "type": "uint256"
        },
        {
          "internalType": "address",
          "name": "_voter",
          "type": "address"
        },
        {
          "internalType": "uint256",
          "name": "_numTokens",
          "type": "uint256"
        }
      ],
      "name": "validPosition",
      "outputs": [
        {
          "internalType": "bool",
          "name": "APPROVED",
          "type": "bool"
        }
      ],
      "stateMutability": "view",
      "type": "function"
    },
    {
      "inputs": [
        {
          "internalType": "uint256",
          "name": "_numTokens",
          "type": "uint256"
        }
      ],
      "name": "withdrawVotingRights",
      "outputs": [],
      "stateMutability": "nonpayable",
      "type": "function"
    }
  ],
  "bytecode": "0x60806040526802b5e3af16b18800006005819055678ac7230489e80000600655600755603c6008556000600e819055600f819055601880546001600160a01b0319167314f52f3fc010ab6ca81568d4a6794d5eab3c61551790556019819055601a553480156200006e57600080fd5b50604051620066b7380380620066b7833981016040819052620000919162000140565b620000a56200009f620000ec565b620000f0565b601c80546001600160a01b0319166001600160a01b03929092169190911790556000600f5568056bc75e2d6310000060019081556002556078600381905560045562000170565b3390565b600080546001600160a01b038381166001600160a01b0319831681178455604051919092169283917f8be0079c531659141344cd1fd0a4f28419497f9722a3daafe3b4186f6b6457e09190a35050565b60006020828403121562000152578081fd5b81516001600160a01b038116811462000169578182fd5b9392505050565b61653780620001806000396000f3fe608060405234801561001057600080fd5b50600436106104ee5760003560e01c80638473850b1161028e578063c7c063fb11610167578063e798a7da116100d9578063f343894611610092578063f343894614610a6a578063f716596d14610a7d578063f721de4a14610a85578063f80a23fd14610a98578063fc0c546a14610aa0578063fca4956314610aa8576104ee565b8063e798a7da14610a03578063e7b1d43c14610a16578063e8e9b6f914610a29578063ed8becfa14610a3c578063ef4fcdad14610a4f578063f2fde38b14610a57576104ee565b8063d901402b1161012b578063d901402b1461099c578063d9548e53146109af578063dd618682146109c2578063df05368e146109d5578063e44c974b146109e8578063e7805f9e146109fb576104ee565b8063c7c063fb14610948578063cb1c2b5c1461095b578063d138209214610963578063d37a4db214610976578063d822ce0114610989576104ee565b8063a511dba011610200578063b1cf4a7e116101c4578063b1cf4a7e146105c7578063b43bd069146108e9578063b8f011b3146108fc578063c47c4bc21461090f578063c4bea2cb14610922578063c4e4f82a14610935576104ee565b8063a511dba0146108ab578063aa7ca464146108b3578063aacc5a17146108c6578063ab43e78d146108ce578063b1a2e0be146108d6576104ee565b80639acb75c1116102525780639acb75c1146108445780639b7e01801461084c5780639fc9c52f1461085f578063a1103f3714610872578063a25236fe14610885578063a4439dc514610898576104ee565b80638473850b146107e45780638c89d027146107ec5780638da5cb5b146108165780638df0296e1461081e5780639760356014610831576104ee565b8063441c77c0116103cb5780636b1485a31161033d5780637a34da67116102f65780637a34da67146107705780637f97e836146107785780637fabe35b1461078b578063819b0293146107b6578063821aa8c0146107c957806383cc6ef2146107dc576104ee565b80636b1485a31461071f5780636b2d95d414610732578063715018a61461074557806371880b1b1461074d5780637827e54914610760578063796b89b914610768576104ee565b806351912f291161038f57806351912f29146106cc578063579db71c146106d457806358002158146106f45780635fd879091461070757806362b7e9411461070f578063667bf0f814610717576104ee565b8063441c77c01461068357806347fe2d2014610696578063494031831461069e5780634d884281146106b1578063515535e8146106c4576104ee565b8063226ed3001161046457806332ac1ba21161042857806332ac1ba2146106325780633538af8214610645578063354dae401461065857806339e7357c146106605780633ad2131f14610668578063427fa1d214610670576104ee565b8063226ed300146105da578063275c2590146105fa57806329a47bc7146106025780632c05203114610617578063313066ee1461062a576104ee565b80630b16d945116104b65780630b16d9451461055f5780630b96c5b0146105725780630e6661a7146105975780630e670feb1461059f57806319d90346146105a75780631b855044146105c7576104ee565b806302fa9c68146104f3578063035fbb551461050857806304dbcda71461051b578063050eb2eb14610539578063053e71a61461054c575b600080fd5b6105066105013660046150d7565b610abb565b005b6105066105163660046152ac565b610b41565b610523610e46565b60405161053091906153d4565b60405180910390f35b610506610547366004614f81565b610e4c565b61052361055a366004615226565b610ead565b61052361056d366004614ff6565b610f13565b610585610580366004615226565b6112d2565b6040516105309695949392919061547d565b6105236114af565b6105236114b5565b6105ba6105b5366004615226565b6114bb565b604051610530919061541b565b6105236105d536600461524f565b61183c565b6105ed6105e8366004615226565b61186f565b6040516105309190615472565b6105066118b7565b61060a61198e565b6040516105309190615407565b610523610625366004614fc4565b61199d565b610523611b3a565b610523610640366004615226565b611b40565b61060a610653366004615226565b611b64565b610506611b8e565b610523611c90565b610523611cad565b61052361067e366004614f81565b611cb3565b6105ed610691366004615226565b611d53565b610523611dad565b6105ed6106ac366004615226565b611db3565b6105066106bf366004614f81565b612034565b610523612095565b61060a61209b565b6106e76106e2366004614f81565b6120aa565b604051610530919061542e565b610506610702366004615226565b612116565b61052361215a565b610523612160565b610506612166565b61050661072d366004615226565b612500565b610523610740366004614f81565b61296b565b61050661297a565b61052361075b366004615226565b6129c5565b610523612a02565b610523612a08565b61060a612a0c565b6105ed610786366004614f9b565b612a1b565b61079e610799366004615226565b612a6e565b6040516105309c9b9a999897969594939291906162b7565b6105ed6107c4366004615270565b612ad4565b61060a6107d7366004615226565b612b12565b61060a612b22565b610523612b31565b6107ff6107fa366004614f81565b612b37565b6040516105309b9a9998979695949392919061620d565b61060a612c30565b61060a61082c36600461524f565b612c3f565b61050661083f366004615226565b612c77565b610523612e26565b61052361085a366004614f9b565b612e2c565b61050661086d3660046151d4565b612e5d565b610523610880366004614f9b565b612eaf565b610506610893366004615226565b612ec4565b6105ed6108a6366004615226565b612fc5565b610523613007565b6105ed6108c1366004614f9b565b61300d565b610523613060565b61060a613115565b6105ed6108e4366004614f81565b613124565b6105236108f7366004614fc4565b61328b565b6106e761090a36600461524f565b613377565b61050661091d366004614f81565b6134ea565b61050661093036600461524f565b61354b565b610523610943366004615226565b613998565b610523610956366004614f81565b6139d5565b6105236139e7565b610523610971366004614f9b565b6139ed565b61050661098436600461513f565b613a82565b61060a610997366004614f9b565b613b34565b6105236109aa366004614f9b565b613b50565b6105ed6109bd366004615226565b613b95565b6105066109d0366004614f81565b613b9a565b6105066109e3366004614f81565b613bfb565b6106e76109f6366004615226565b613c5c565b610523613cd5565b6105ed610a11366004614f81565b613cdb565b610506610a24366004615226565b613cfc565b610506610a37366004615226565b613e38565b6105ba610a4a366004615226565b613e7c565b6105236141f1565b610506610a65366004614f81565b6141f7565b610523610a78366004614f81565b614268565b610506614309565b6105ed610a93366004615226565b6144ae565b6105ed6144b6565b61060a6144cf565b610523610ab6366004614f81565b6144de565b828114610ac757600080fd5b60005b83811015610b3a57610b28858583818110610af557634e487b7160e01b600052603260045260246000fd5b90506020020135848484818110610b1c57634e487b7160e01b600052603260045260246000fd5b9050602002013561354b565b80610b3281616490565b915050610aca565b5050505050565b610b4961461f565b610b5283611d53565b610b775760405162461bcd60e51b8152600401610b6e90615edd565b60405180910390fd5b33600090815260096020908152604080832086845290915290205460ff16610bb15760405162461bcd60e51b8152600401610b6e90615aaa565b336000908152600a6020908152604080832086845290915290205460ff1615610bec5760405162461bcd60e51b8152600401610b6e90615a64565b610bf63384613b50565b8282604051602001610c099291906153f9565b6040516020818303038152906040528051906020012014610c3c5760405162461bcd60e51b8152600401610b6e9061576a565b6000610c4833856139ed565b90508260011415610c7f576000848152601b602052604081206007018054839290610c749084906163c3565b90915550610ca69050565b6000848152601b602052604081206008018054839290610ca09084906163c3565b90915550505b336000908152600c60205260409081902090516301039dfd60e11b815273__$85afbab79b2b776d70bef879a32ed56424$__916302073bfa91610cee919088906004016153f9565b60006040518083038186803b158015610d0657600080fd5b505af4158015610d1a573d6000803e3d6000fd5b5050336000818152600a602090815260408083208a84528252808320805460ff19166001908117909155600b8352818420948452938252808320899055601082528083206003808201548552601b90935292200154909350610d7d9250906147a7565b6003828101546000908152601b602052604090200155600781018054600160ff1991821681179092556004830180549091169091179055610dbc612a08565b60068201556003808201546000908152601b602052604090200154610de457610de485612500565b6000858152601b602052604090819020600781015460089091015491513392879289927f0867b5027231dcbf37614eaad07d667b9febaf9fdf483f488229b1f140bb074892610e379289929091906162a1565b60405180910390a45050505050565b60055481565b610e546147b3565b6001600160a01b0316610e65612c30565b6001600160a01b031614610e8b5760405162461bcd60e51b8152600401610b6e90615d65565b601f80546001600160a01b0319166001600160a01b0392909216919091179055565b6000610eb88261186f565b610ed45760405162461bcd60e51b8152600401610b6e90615b6f565b610edd82611db3565b15610efa57506000818152601b6020526040902060070154610f0e565b506000818152601b60205260409020600801545b919050565b6000610f1d61461f565b87518514610f2a57600080fd5b60015433600090815260136020526040902054811115610f6c5733600090815260136020526040812054610f5f9083906147a7565b9050610f6a81612ec4565b505b60005b89518110156112bf5760008a8281518110610f9a57634e487b7160e01b600052603260045260246000fd5b602002602001015190506000898984818110610fc657634e487b7160e01b600052603260045260246000fd5b9050602002810190610fd89190616327565b8080601f01602080910402602001604051908101604052809392919081815260200183838082843760009201829052503381526013602052604090205493945050505084111561103a5760405162461bcd60e51b8152600401610b6e90615f97565b8151829061105a5760405162461bcd60e51b8152600401610b6e90615e50565b600f546110689060016163c3565b600f8181553360008181526012602090815260408083208054600181018255908452828420019590955584516101008101865288815280820193909352428386015260608301879052608083018e905260a083018d905260c083018c905260e083018290529254815260118352929092208251805191926110ee92849290910190614c72565b506020828101516001830180546001600160a01b0319166001600160a01b0390921691909117905560408301516002830155606083015180516111379260038501920190614c72565b5060808201518051611153916004840191602090910190614cf6565b5060a0820151805161116f916005840191602090910190614d4f565b5060c0820151805161118b916006840191602090910190614c72565b5060e082015160078201805460ff191660018360038111156111bd57634e487b7160e01b600052602160045260246000fd5b0217905550506019546000908152601b6020526040902090506111e26001600561640e565b8160020154101561121457600181600201600082825461120291906163c3565b9091555050600f546001820155611260565b60048101805461ff001960ff19909116600117169055611232611b8e565b60016019600082825461124591906163c3565b9091555050600f546019546000908152601b60205260409020555b336001600160a01b0316600f547fb7b95e293993cd6c0c54a48cee487ef3dd8f51be568be962db90e7784af70dd186868e6040516112a0939291906154dc565b60405180910390a35050505080806112b790616490565b915050610f6f565b50600f549150505b979650505050505050565b6011602052600090815260409020805481906112ed90616455565b80601f016020809104026020016040519081016040528092919081815260200182805461131990616455565b80156113665780601f1061133b57610100808354040283529160200191611366565b820191906000526020600020905b81548152906001019060200180831161134957829003601f168201915b505050506001830154600284015460038501805494956001600160a01b03909316949193509061139590616455565b80601f01602080910402602001604051908101604052809291908181526020018280546113c190616455565b801561140e5780601f106113e35761010080835404028352916020019161140e565b820191906000526020600020905b8154815290600101906020018083116113f157829003601f168201915b50505050509080600601805461142390616455565b80601f016020809104026020016040519081016040528092919081815260200182805461144f90616455565b801561149c5780601f106114715761010080835404028352916020019161149c565b820191906000526020600020905b81548152906001019060200180831161147f57829003601f168201915b5050506007909301549192505060ff1686565b600f5481565b60065481565b60606114c6826144ae565b6114e25760405162461bcd60e51b8152600401610b6e90615c35565b6000828152601b6020908152604080832081516101c081018352815481526001820154938101939093526002810154918301919091526003808201546060840152600482015460ff808216151560808601526101008083048216151560a0870152620100009092048116151560c0860152600584015460e08601526006840154918501919091526007830154610120850152600883015461014085015260098301546101608501929116908111156115aa57634e487b7160e01b600052602160045260246000fd5b60038111156115c957634e487b7160e01b600052602160045260246000fd5b8152602001600a8201805480602002602001604051908101604052809291908181526020016000905b8282101561169e57838290600052602060002001805461161190616455565b80601f016020809104026020016040519081016040528092919081815260200182805461163d90616455565b801561168a5780601f1061165f5761010080835404028352916020019161168a565b820191906000526020600020905b81548152906001019060200180831161166d57829003601f168201915b5050505050815260200190600101906115f2565b505050508152602001600b82018054806020026020016040519081016040528092919081815260200182805480156116f557602002820191906000526020600020905b8154815260200190600101908083116116e1575b505050919092525050506040818101518151600580825260c0820190935292935091600091816020015b606081526020019060019003908161171f57905050905060005b828110156118335783516000906117519083906163c3565b60008181526011602052604081206003018054929350909161177290616455565b80601f016020809104026020016040519081016040528092919081815260200182805461179e90616455565b80156117eb5780601f106117c0576101008083540402835291602001916117eb565b820191906000526020600020905b8154815290600101906020018083116117ce57829003601f168201915b505050505090508084848151811061181357634e487b7160e01b600052603260045260246000fd5b60200260200101819052505050808061182b90616490565b915050611739565b50949350505050565b600082826040516020016118519291906153f9565b60405160208183030381529060405280519060200120905092915050565b600061187a826144ae565b6118965760405162461bcd60e51b8152600401610b6e9061609e565b6000828152601b60205260409020600601546118b190613b95565b92915050565b6118bf61461f565b336000908152601060205260409020600781015460ff1615156001146118f75760405162461bcd60e51b8152600401610b6e90615991565b6000611901612a08565b905061190c336147b7565b600182018054336001600160a01b03199182168117909255600284018054909116821790556006830182905560078301805460ff1990811690915560098401805490911690556040517f9dadcedba048e92b943ea1c5861cee1df63a566d7f795869c004780c1c698e2b906119829084906153d4565b60405180910390a25050565b601e546001600160a01b031681565b6000806119a985611cb3565b905060006119b786836139ed565b90505b8115611b2f576119ca86836139ed565b9050848111611a875783821415611a7f576001600160a01b0386166000908152600c60205260409081902090516301c39b2b60e11b815273__$85afbab79b2b776d70bef879a32ed56424$__91630387365691611a2c919086906004016153f9565b60206040518083038186803b158015611a4457600080fd5b505af4158015611a58573d6000803e3d6000fd5b505050506040513d601f19601f82011682018060405250810190611a7c919061523e565b91505b509050611b33565b6001600160a01b0386166000908152600c60205260409081902090516301c39b2b60e11b815273__$85afbab79b2b776d70bef879a32ed56424$__91630387365691611ad8919086906004016153f9565b60206040518083038186803b158015611af057600080fd5b505af4158015611b04573d6000803e3d6000fd5b505050506040513d601f19601f82011682018060405250810190611b28919061523e565b91506119ba565b5090505b9392505050565b600e5481565b6000818152601b6020526040812060088101546007909101548291611b33916163c3565b60158181548110611b7457600080fd5b6000918252602090912001546001600160a01b0316905081565b601a546000908152601b602052604090206004015460ff16611bc25760405162461bcd60e51b8152600401610b6e906160c7565b601a546000908152601b602052604090206004015462010000900460ff161515600114801590611bf3575060155415155b15611c0557611c00612166565b611c4a565b601a546000908152601b602052604090206004015462010000900460ff1615156001148015611c3a5750611c3a601a5461186f565b15611c4a57611c4a601a54612500565b6001600e6000828254611c5d91906163c3565b9091555050600e546040517f94d48a7342690f1233e3f4db70efa37c4f1f25f4d0397c353f3f15aecdeca5f490600090a2565b60405160009080602081848060185afa611ca657fe5b5051919050565b60085481565b6001600160a01b0381166000908152600c602052604080822090516301c39b2b60e11b815273__$85afbab79b2b776d70bef879a32ed56424$__91630387365691611d03919085906004016153f9565b60206040518083038186803b158015611d1b57600080fd5b505af4158015611d2f573d6000803e3d6000fd5b505050506040513d601f19601f820116820180604052508101906118b1919061523e565b6000611d5e826144ae565b611d7a5760405162461bcd60e51b8152600401610b6e90615c35565b6000828152601b6020526040902060060154611d9590613b95565b1580156118b15750611da682612fc5565b1592915050565b601a5490565b6000611dbe8261186f565b611dda5760405162461bcd60e51b8152600401610b6e90615af9565b6000828152601b6020908152604080832081516101c081018352815481526001820154938101939093526002810154918301919091526003808201546060840152600482015460ff808216151560808601526101008083048216151560a0870152620100009092048116151560c0860152600584015460e0860152600684015491850191909152600783015461012085015260088301546101408501526009830154610160850192911690811115611ea257634e487b7160e01b600052602160045260246000fd5b6003811115611ec157634e487b7160e01b600052602160045260246000fd5b8152602001600a8201805480602002602001604051908101604052809291908181526020016000905b82821015611f96578382906000526020600020018054611f0990616455565b80601f0160208091040260200160405190810160405280929190818152602001828054611f3590616455565b8015611f825780601f10611f5757610100808354040283529160200191611f82565b820191906000526020600020905b815481529060010190602001808311611f6557829003601f168201915b505050505081526020019060010190611eea565b505050508152602001600b8201805480602002602001604051908101604052809291908181526020018280548015611fed57602002820191906000526020600020905b815481526020019060010190808311611fd9575b505050505081525050905080610140015181610120015161200e91906163c3565b60085461201b91906163ef565b61012082015161202c9060646163ef565b119392505050565b61203c6147b3565b6001600160a01b031661204d612c30565b6001600160a01b0316146120735760405162461bcd60e51b8152600401610b6e90615d65565b601880546001600160a01b0319166001600160a01b0392909216919091179055565b60195490565b601f546001600160a01b031681565b6001600160a01b03811660009081526012602090815260409182902080548351818402810184019094528084526060939283018282801561210a57602002820191906000526020600020905b8154815260200190600101908083116120f6575b50505050509050919050565b61211e6147b3565b6001600160a01b031661212f612c30565b6001600160a01b0316146121555760405162461bcd60e51b8152600401610b6e90615d65565b600455565b60045481565b60025481565b601a546000908152601b602052604090206004015460ff1661219a5760405162461bcd60e51b8152600401610b6e90615e87565b601a546000908152601b602052604090206004015462010000900460ff16156121d55760405162461bcd60e51b8152600401610b6e90615c9a565b6015546000906121fe906064906121ed9060146163ef565b6121f791906163db565b600161481d565b601554601a546000908152601b60205260408120600390810184905554929350909161222b904290614833565b905060006122446004548361483390919063ffffffff16565b601a80546000908152601b60205260408082206005018690558254825280822060060184905591548152908120600401805462ff00001916620100001790559091506122908585613377565b9050600081516001600160401b038111156122bb57634e487b7160e01b600052604160045260246000fd5b6040519080825280602002602001820160405280156122e4578160200160208202803683370190505b50905060005b82518110156123a357601583828151811061231557634e487b7160e01b600052603260045260246000fd5b60200260200101518154811061233b57634e487b7160e01b600052603260045260246000fd5b9060005260206000200160009054906101000a90046001600160a01b031682828151811061237957634e487b7160e01b600052603260045260246000fd5b6001600160a01b03909216602092830291909101909101528061239b81616490565b9150506122ea565b5060005b82518110156124f75760008282815181106123d257634e487b7160e01b600052603260045260246000fd5b6020908102919091018101516001600160a01b03811660008181526010845260408082206016805460018181019092557fd833147d7dc355ba459fc788f669e58cfaf9dc25ddcd0702e87d69c7b51242890180546001600160a01b03199081168717909155601a5485526017885292842080549182018155845295909220909401805490941690911790925585519092506124949086908590811061248757634e487b7160e01b600052603260045260246000fd5b602002602001015161483f565b601a8054600383015560048201805460ff19169055546040517fe4ee2dfabe57cee15e3f558890b20455f54c1fa0718e5276faad70a6500e6b8c906124da908590615407565b60405180910390a2505080806124ef90616490565b9150506123a7565b50505050505050565b6125098161186f565b6125255760405162461bcd60e51b8152600401610b6e906157ed565b600061253082611db3565b60008381526017602090815260408083208054825181850281018501909352808352949550929390929183018282801561259357602002820191906000526020600020905b81546001600160a01b03168152600190910190602001808311612575575b5050505050905060005b81518110156127dd5760008282815181106125c857634e487b7160e01b600052603260045260246000fd5b6020908102919091018101516000878152600b835260408082206001600160a01b0384168352845280822054600a85528183208a845290945290205490925060ff1661261383614919565b6001600160a01b038316600090815260106020526040902081156127ab576001600160a01b0384166000908152601060205260409020600401805460ff1916600190811790915587151514801561266a5750826001145b8061267f57508615801561267f575082600114155b1561272557601e54600754604051630db6cc8560e11b81526001600160a01b0390921691631b6d990a916126b7918890600401616283565b602060405180830381600087803b1580156126d157600080fd5b505af11580156126e5573d6000803e3d6000fd5b505050506040513d601f19601f820116820180604052508101906127099190615206565b6127255760405162461bcd60e51b8152600401610b6e90615b9d565b601580546001808201835560008390527f55f448fdea98c4d29eb340757ef0a66cd03dbb9538908a6a81d96026b71ec47590910180546001600160a01b0319166001600160a01b038816179055905461277e919061640e565b6001600160a01b03851660009081526010602052604090205560078101805460ff191660011790556127c6565b60078101805460ff1990811690915560098201805490911690555b5050505080806127d590616490565b91505061259d565b5081156128bf57601e5460075460008581526011602052604090819020600101549051630db6cc8560e11b81526001600160a01b0393841693631b6d990a9361282d939092911690600401616283565b602060405180830381600087803b15801561284757600080fd5b505af115801561285b573d6000803e3d6000fd5b505050506040513d601f19601f8201168201806040525081019061287f9190615206565b61289b5760405162461bcd60e51b8152600401610b6e90615ff4565b601a546000908152601b60205260409020600901805460ff191660011790556128df565b601a546000908152601b60205260409020600901805460ff191660021790555b601a80546000908152601b60205260409020600401805461ff0019166101001790555461290d906001614833565b601a5560008381526011602052604090819020600181015491516001600160a01b03909216917f43916c3ae75995d24cc89b466ed08e6dba74d325f7957f9b37b05f150e12918e9161295e9161551f565b60405180910390a2505050565b60006118b18261097184611cb3565b6129826147b3565b6001600160a01b0316612993612c30565b6001600160a01b0316146129b95760405162461bcd60e51b8152600401610b6e90615d65565b6129c36000614983565b565b60006129d0826144ae565b6129ec5760405162461bcd60e51b8152600401610b6e90615c35565b506000908152601b602052604090206006015490565b60075481565b4290565b6020546001600160a01b031681565b6000612a26826144ae565b612a425760405162461bcd60e51b8152600401610b6e90615c35565b506001600160a01b03919091166000908152600960209081526040808320938352929052205460ff1690565b601b602052600090815260409020805460018201546002830154600384015460048501546005860154600687015460078801546008890154600990990154979896979596949560ff8086169661010087048216966201000090048216959493929091168c565b600080612ae184876139ed565b83101590506000612af285876139ed565b84111580612afe575085155b90508180156112c757509695505050505050565b60168181548110611b7457600080fd5b601d546001600160a01b031681565b60195481565b60106020526000908152604090208054600182015460028301546003840154600485015460058601546006870154600788015460088901805498996001600160a01b03988916999790981697959660ff95861696949593949290931692612b9d90616455565b80601f0160208091040260200160405190810160405280929190818152602001828054612bc990616455565b8015612c165780601f10612beb57610100808354040283529160200191612c16565b820191906000526020600020905b815481529060010190602001808311612bf957829003601f168201915b505050506009830154600a90930154919260ff169190508b565b6000546001600160a01b031690565b60176020528160005260406000208181548110612c5b57600080fd5b6000918252602090912001546001600160a01b03169150829050565b60016000828152601b602052604090206009015460ff166003811115612cad57634e487b7160e01b600052602160045260246000fd5b14612cca5760405162461bcd60e51b8152600401610b6e90615600565b336000908152600c60205260409081902090516306120d1f60e31b815273__$85afbab79b2b776d70bef879a32ed56424$__9163309068f891612d12919085906004016153f9565b60206040518083038186803b158015612d2a57600080fd5b505af4158015612d3e573d6000803e3d6000fd5b505050506040513d601f19601f82011682018060405250810190612d629190615206565b612d7e5760405162461bcd60e51b8152600401610b6e906158ea565b336000908152600c60205260409081902090516301039dfd60e11b815273__$85afbab79b2b776d70bef879a32ed56424$__916302073bfa91612dc6919085906004016153f9565b60006040518083038186803b158015612dde57600080fd5b505af4158015612df2573d6000803e3d6000fd5b50506040513392508391507f402507661c8c8cb90e0a796450b8bdd28b6c516f05279c0cd29e84c344e1699a90600090a350565b600e5490565b60126020528160005260406000208181548110612e4857600080fd5b90600052602060002001600091509150505481565b60005b8151811015612eab57612e99828281518110612e8c57634e487b7160e01b600052603260045260246000fd5b6020026020010151612c77565b80612ea381616490565b915050612e60565b5050565b600082826040516020016118519291906153b2565b601d546040516304ada21f60e21b81526001600160a01b03909116906312b6887c90612ef690849033906004016161f6565b602060405180830381600087803b158015612f1057600080fd5b505af1158015612f24573d6000803e3d6000fd5b505050506040513d601f19601f82011682018060405250810190612f489190615206565b612f645760405162461bcd60e51b8152600401610b6e906159dc565b3360009081526013602052604081208054839290612f839084906163c3565b909155505060405133907ff7aaf024511d9982df8cd0d437c71c30106e6848cd1ba3d288d7a9c0e276aeda90612fba9084906153d4565b60405180910390a250565b6000612fd0826144ae565b612fec5760405162461bcd60e51b8152600401610b6e90615c35565b6000828152601b6020526040902060050154611da690613b95565b600f5490565b6000613018826144ae565b6130345760405162461bcd60e51b8152600401610b6e90615c35565b506001600160a01b03919091166000908152600a60209081526040808320938352929052205460ff1690565b60008042416040516020016130759190615395565b6040516020818303038152906040528051906020012060001c61309891906163db565b446130a1611c90565b6040516020016130b191906153d4565b60408051601f1981840301815291905280516020909101206130d390426163c3565b6130dd91906163c3565b6130e791906163c3565b6040516020016130f791906153d4565b60408051601f19818403018152919052805160209091012091505090565b6018546001600160a01b031681565b6001600160a01b03808216600090815260106020908152604080832081516101608101835281548152600182015486169381019390935260028101549094169082015260038301546060820152600483015460ff90811615156080830152600584015460a0830152600684015460c0830152600784015416151560e0820152600883018054929384938493926101008401916131bf90616455565b80601f01602080910402602001604051908101604052809291908181526020018280546131eb90616455565b80156132385780601f1061320d57610100808354040283529160200191613238565b820191906000526020600020905b81548152906001019060200180831161321b57829003601f168201915b5050509183525050600982015460ff1615156020820152600a90910154604090910152608081015190915015801561327a5750613278816060015161186f565b155b1561328457600191505b5092915050565b60006132968361186f565b6132b25760405162461bcd60e51b8152600401610b6e90615947565b6001600160a01b0384166000908152600a6020908152604080832086845290915290205460ff166132f55760405162461bcd60e51b8152600401610b6e90615bea565b600061330084611db3565b61330b57600061330e565b60015b60ff169050600081846040516020016133289291906153f9565b604051602081830303815290604052805190602001209050600061334c8787613b50565b905080821461336d5760405162461bcd60e51b8152600401610b6e90615e07565b6112c787876139ed565b60606000821180156133895750818311155b8015613396575060018310155b6133b25760405162461bcd60e51b8152600401610b6e9061586a565b6000826001600160401b038111156133da57634e487b7160e01b600052604160045260246000fd5b604051908082528060200260200182016040528015613403578160200160208202803683370190505b5090506000846001600160401b0381111561342e57634e487b7160e01b600052604160045260246000fd5b604051908082528060200260200182016040528015613457578160200160208202803683370190505b509050600061346d613468846149d3565b614a29565b905060005b868110156134df5781818151811061349a57634e487b7160e01b600052603260045260246000fd5b60200260200101518382815181106134c257634e487b7160e01b600052603260045260246000fd5b6020908102919091010152806134d781616490565b915050613472565b509095945050505050565b6134f26147b3565b6001600160a01b0316613503612c30565b6001600160a01b0316146135295760405162461bcd60e51b8152600401610b6e90615d65565b602080546001600160a01b0319166001600160a01b0392909216919091179055565b61355361461f565b61355c82612fc5565b6135785760405162461bcd60e51b8152600401610b6e906158b3565b81613582336144de565b1461359f5760405162461bcd60e51b8152600401610b6e90615cf7565b600154336000908152601360205260409020548111156135e157336000908152601360205260408120546135d49083906147a7565b90506135df81612ec4565b505b336000908152601360205260409020548111156136105760405162461bcd60e51b8152600401610b6e90615f97565b8261362d5760405162461bcd60e51b8152600401610b6e90615a39565b8161364a5760405162461bcd60e51b8152600401610b6e90615b45565b6000336000908152600c60205260408082209051631e0f232560e31b815273__$85afbab79b2b776d70bef879a32ed56424$__9163f079192891613693919086906004016153f9565b60206040518083038186803b1580156136ab57600080fd5b505af41580156136bf573d6000803e3d6000fd5b505050506040513d601f19601f820116820180604052508101906136e3919061523e565b90508481141561378857336000908152600c6020526040908190209051631e0f232560e31b815273__$85afbab79b2b776d70bef879a32ed56424$__9163f079192891613735919089906004016153f9565b60206040518083038186803b15801561374d57600080fd5b505af4158015613761573d6000803e3d6000fd5b505050506040513d601f19601f82011682018060405250810190613785919061523e565b90505b61379482823386612ad4565b6137b05760405162461bcd60e51b8152600401610b6e90615c6c565b336000908152600c602052604090819020905163524cfe5360e11b815273__$85afbab79b2b776d70bef879a32ed56424$__9163a499fca6916137fc919086908a9087906004016161db565b60006040518083038186803b15801561381457600080fd5b505af4158015613828573d6000803e3d6000fd5b5050505060006138383387612eaf565b60408051808201825260098152686e756d546f6b656e7360b81b6020820152905163099b040f60e31b81529192509073__$0947e710b66d7779e1d561254425e1375a$__90634cd820789061389890600d90869086908b90600401616130565b60006040518083038186803b1580156138b057600080fd5b505af41580156138c4573d6000803e3d6000fd5b505060405163099b040f60e31b815273__$0947e710b66d7779e1d561254425e1375a$__9250634cd82078915061390490600d9086908b9060040161617e565b60006040518083038186803b15801561391c57600080fd5b505af4158015613930573d6000803e3d6000fd5b5050336000908152601060205260409020915061394d9050612a08565b6006820155604051339089907f42864d9683ff5b12c3b2cc65d705af5aab104b03bc700b802f79e5c971ef08a190613986908a906153d4565b60405180910390a35050505050505050565b60006139a3826144ae565b6139bf5760405162461bcd60e51b8152600401610b6e90615c35565b506000908152601b602052604090206005015490565b60136020526000908152604090205481565b60015481565b600073__$0947e710b66d7779e1d561254425e1375a$__6369810158600d613a158686612eaf565b6040518363ffffffff1660e01b8152600401613a329291906161ac565b60206040518083038186803b158015613a4a57600080fd5b505af4158015613a5e573d6000803e3d6000fd5b505050506040513d601f19601f82011682018060405250810190611b33919061523e565b848314613a8e57600080fd5b848114613a9a57600080fd5b60005b858110156124f757613b22878783818110613ac857634e487b7160e01b600052603260045260246000fd5b90506020020135868684818110613aef57634e487b7160e01b600052603260045260246000fd5b90506020020135858585818110613b1657634e487b7160e01b600052603260045260246000fd5b90506020020135610b41565b80613b2c81616490565b915050613a9d565b60146020528160005260406000208181548110612c5b57600080fd5b600073__$0947e710b66d7779e1d561254425e1375a$__6369810158600d613b788686612eaf565b6040518363ffffffff1660e01b8152600401613a32929190616160565b421190565b613ba26147b3565b6001600160a01b0316613bb3612c30565b6001600160a01b031614613bd95760405162461bcd60e51b8152600401610b6e90615d65565b601e80546001600160a01b0319166001600160a01b0392909216919091179055565b613c036147b3565b6001600160a01b0316613c14612c30565b6001600160a01b031614613c3a5760405162461bcd60e51b8152600401610b6e90615d65565b601d80546001600160a01b0319166001600160a01b0392909216919091179055565b606060008211613c6b57600080fd5b6000826001600160401b03811115613c9357634e487b7160e01b600052604160045260246000fd5b604051908082528060200260200182016040528015613cbc578160200160208202803683370190505b5090506000613ccd613468836149d3565b949350505050565b60035481565b6001600160a01b031660009081526010602052604090206009015460ff1690565b6000613d20613d0a3361296b565b33600090815260136020526040902054906147a7565b905081811015613d425760405162461bcd60e51b8152600401610b6e90615f23565b601d54604051630895993360e11b81526001600160a01b039091169063112b326690613d7490859033906004016161f6565b602060405180830381600087803b158015613d8e57600080fd5b505af1158015613da2573d6000803e3d6000fd5b505050506040513d601f19601f82011682018060405250810190613dc69190615206565b613de25760405162461bcd60e51b8152600401610b6e90616041565b3360009081526013602052604081208054849290613e0190849061640e565b909155505060405133907ffaeb7dbb9992397d26ea1944efd40c80b40f702faf69b46c67ad10aba68ccb79906119829085906153d4565b613e406147b3565b6001600160a01b0316613e51612c30565b6001600160a01b031614613e775760405162461bcd60e51b8152600401610b6e90615d65565b600355565b6060613e87826144ae565b613ea35760405162461bcd60e51b8152600401610b6e90615c35565b6000828152601b6020908152604080832081516101c081018352815481526001820154938101939093526002810154918301919091526003808201546060840152600482015460ff808216151560808601526101008083048216151560a0870152620100009092048116151560c0860152600584015460e0860152600684015491850191909152600783015461012085015260088301546101408501526009830154610160850192911690811115613f6b57634e487b7160e01b600052602160045260246000fd5b6003811115613f8a57634e487b7160e01b600052602160045260246000fd5b8152602001600a8201805480602002602001604051908101604052809291908181526020016000905b8282101561405f578382906000526020600020018054613fd290616455565b80601f0160208091040260200160405190810160405280929190818152602001828054613ffe90616455565b801561404b5780601f106140205761010080835404028352916020019161404b565b820191906000526020600020905b81548152906001019060200180831161402e57829003601f168201915b505050505081526020019060010190613fb3565b505050508152602001600b82018054806020026020016040519081016040528092919081815260200182805480156140b657602002820191906000526020600020905b8154815260200190600101908083116140a2575b505050919092525050506040818101518151600580825260c0820190935292935091600091816020015b60608152602001906001900390816140e057905050905060005b828110156118335783516000906141129083906163c3565b60008181526011602052604081208054929350909161413090616455565b80601f016020809104026020016040519081016040528092919081815260200182805461415c90616455565b80156141a95780601f1061417e576101008083540402835291602001916141a9565b820191906000526020600020905b81548152906001019060200180831161418c57829003601f168201915b50505050509050808484815181106141d157634e487b7160e01b600052603260045260246000fd5b6020026020010181905250505080806141e990616490565b9150506140fa565b601a5481565b6141ff6147b3565b6001600160a01b0316614210612c30565b6001600160a01b0316146142365760405162461bcd60e51b8152600401610b6e90615d65565b6001600160a01b03811661425c5760405162461bcd60e51b8152600401610b6e90615824565b61426581614983565b50565b6001600160a01b0381166000908152601260209081526040808320805482518185028101850190935280835284938301828280156142c557602002820191906000526020600020905b8154815260200190600101908083116142b1575b5050505050905080600182516142db919061640e565b815181106142f957634e487b7160e01b600052603260045260246000fd5b6020026020010151915050919050565b61431161461f565b336000908152601060205260409020600781015460ff16156143455760405162461bcd60e51b8152600401610b6e906155c9565b600061434f612a08565b600154336000908152601360205260409020549192509081111561439557336000908152601360205260408120546143889083906147a7565b905061439381612ec4565b505b336000908152601360205260409020548111156143c45760405162461bcd60e51b8152600401610b6e906156be565b601580546001818101835560008390527f55f448fdea98c4d29eb340757ef0a66cd03dbb9538908a6a81d96026b71ec47590910180546001600160a01b031916331790559054614414919061640e565b835560018084018054336001600160a01b0319918216811790925560028601805490911690911790556006840183905560078401805460ff19169091179055600983015460ff166144755760098301805460ff1916600117905542600a8401555b336001600160a01b03167f439d77b7534ec3108fc6143bd4fbabde0b9f2bb54f7b0730d1f70dd2135b765f8360405161295e91906153d4565b600f54101590565b3360009081526010602052604090206009015460ff1690565b601c546001600160a01b031681565b6001600160a01b03808216600090815260106020908152604080832081516101608101835281548152600182015486169381019390935260028101549094169082015260038301546060820152600483015460ff90811615156080830152600584015460a0830152600684015460c0830152600784015416151560e082015260088301805492938493909161010084019161457890616455565b80601f01602080910402602001604051908101604052809291908181526020018280546145a490616455565b80156145f15780601f106145c6576101008083540402835291602001916145f1565b820191906000526020600020905b8154815290600101906020018083116145d457829003601f168201915b5050509183525050600982015460ff1615156020820152600a90910154604090910152606001519392505050565b6018546001600160a01b03166146475760405162461bcd60e51b8152600401610b6e90615f6a565b6018546040516000916001600160a01b031690614668903390602401615407565b60408051601f198184030181529181526020820180516001600160e01b0316631f5ac9c560e11b1790525161469d91906153dd565b6000604051808303816000865af19150503d80600081146146da576040519150601f19603f3d011682016040523d82523d6000602084013e6146df565b606091505b50506018546040519192506000916001600160a01b0390911690614707903390602401615407565b60408051601f198184030181529181526020820180516001600160e01b03166358563d2160e01b1790525161473c91906153dd565b6000604051808303816000865af19150503d8060008114614779576040519150601f19603f3d011682016040523d82523d6000602084013e61477e565b606091505b50509050818061478b5750805b612eab5760405162461bcd60e51b8152600401610b6e90615725565b6000611b33828461640e565b3390565b6001600160a01b0381166000908152601060205260409020600781015460ff1680156147e75750600981015460ff165b6148035760405162461bcd60e51b8152600401610b6e90615d9a565b805461480e8161483f565b50600701805460ff1916905550565b600081831061482c5781611b33565b5090919050565b6000611b3382846163c3565b6015805461484f9060019061640e565b8154811061486d57634e487b7160e01b600052603260045260246000fd5b600091825260209091200154601580546001600160a01b0390921691839081106148a757634e487b7160e01b600052603260045260246000fd5b9060005260206000200160006101000a8154816001600160a01b0302191690836001600160a01b0316021790555060158054806148f457634e487b7160e01b600052603160045260246000fd5b600082815260209020810160001990810180546001600160a01b031916905501905550565b6001600160a01b0381166000908152601060205260409020600781015460ff1615801561494a5750600981015460ff165b6149665760405162461bcd60e51b8152600401610b6e90615651565b805461497181614bbd565b50600701805460ff1916600117905550565b600080546001600160a01b038381166001600160a01b0319831681178455604051919092169283917f8be0079c531659141344cd1fd0a4f28419497f9722a3daafe3b4186f6b6457e09190a35050565b805160609060005b81811015614a215780848281518110614a0457634e487b7160e01b600052603260045260246000fd5b602090810291909101015280614a1981616490565b9150506149db565b509192915050565b60606000825111614a3957600080fd5b81518060005b81811015614bb457600083614a52613060565b878481518110614a7257634e487b7160e01b600052603260045260246000fd5b6020026020010151604051602001614a8b9291906153f9565b6040516020818303038152906040528051906020012060001c614aae91906164ab565b614ab99060016163c3565b9050600086614ac960018461640e565b81518110614ae757634e487b7160e01b600052603260045260246000fd5b6020026020010151905086600186614aff919061640e565b81518110614b1d57634e487b7160e01b600052603260045260246000fd5b602002602001015187600184614b33919061640e565b81518110614b5157634e487b7160e01b600052603260045260246000fd5b60209081029190910101528087614b6960018861640e565b81518110614b8757634e487b7160e01b600052603260045260246000fd5b6020908102919091010152614b9d60018661640e565b945050508080614bac90616490565b915050614a3f565b50929392505050565b60168054614bcd9060019061640e565b81548110614beb57634e487b7160e01b600052603260045260246000fd5b600091825260209091200154601680546001600160a01b039092169183908110614c2557634e487b7160e01b600052603260045260246000fd5b9060005260206000200160006101000a8154816001600160a01b0302191690836001600160a01b0316021790555060168054806148f457634e487b7160e01b600052603160045260246000fd5b828054614c7e90616455565b90600052602060002090601f016020900481019282614ca05760008555614ce6565b82601f10614cb957805160ff1916838001178555614ce6565b82800160010185558215614ce6579182015b82811115614ce6578251825591602001919060010190614ccb565b50614cf2929150614d89565b5090565b828054828255906000526020600020908101928215614d43579160200282015b82811115614d435782518051614d33918491602090910190614c72565b5091602001919060010190614d16565b50614cf2929150614d9e565b828054828255906000526020600020908101928215614ce65791602002820182811115614ce6578251825591602001919060010190614ccb565b5b80821115614cf25760008155600101614d8a565b80821115614cf2576000614db28282614dbb565b50600101614d9e565b508054614dc790616455565b6000825580601f10614dd95750614265565b601f0160209004906000526020600020908101906142659190614d89565b80356001600160a01b0381168114610f0e57600080fd5b60008083601f840112614e1f578182fd5b5081356001600160401b03811115614e35578182fd5b6020830191508360208083028501011115614e4f57600080fd5b9250929050565b600082601f830112614e66578081fd5b81356020614e7b614e7683616394565b61636b565b82815281810190858301855b85811015614eb057614e9e898684358b0101614f17565b84529284019290840190600101614e87565b5090979650505050505050565b600082601f830112614ecd578081fd5b81356020614edd614e7683616394565b8281528181019085830183850287018401881015614ef9578586fd5b855b85811015614eb057813584529284019290840190600101614efb565b600082601f830112614f27578081fd5b81356001600160401b03811115614f4057614f406164eb565b614f53601f8201601f191660200161636b565b818152846020838601011115614f67578283fd5b816020850160208301379081016020019190915292915050565b600060208284031215614f92578081fd5b611b3382614df7565b60008060408385031215614fad578081fd5b614fb683614df7565b946020939093013593505050565b600080600060608486031215614fd8578081fd5b614fe184614df7565b95602085013595506040909401359392505050565b600080600080600080600060c0888a031215615010578283fd5b87356001600160401b0380821115615026578485fd5b6150328b838c01614e56565b985061504060208b01614df7565b975060408a0135915080821115615055578485fd5b6150618b838c01614e0e565b909750955060608a0135915080821115615079578485fd5b6150858b838c01614e56565b945060808a013591508082111561509a578384fd5b6150a68b838c01614ebd565b935060a08a01359150808211156150bb578283fd5b506150c88a828b01614f17565b91505092959891949750929550565b600080600080604085870312156150ec578384fd5b84356001600160401b0380821115615102578586fd5b61510e88838901614e0e565b90965094506020870135915080821115615126578384fd5b5061513387828801614e0e565b95989497509550505050565b60008060008060008060608789031215615157578182fd5b86356001600160401b038082111561516d578384fd5b6151798a838b01614e0e565b90985096506020890135915080821115615191578384fd5b61519d8a838b01614e0e565b909650945060408901359150808211156151b5578384fd5b506151c289828a01614e0e565b979a9699509497509295939492505050565b6000602082840312156151e5578081fd5b81356001600160401b038111156151fa578182fd5b613ccd84828501614ebd565b600060208284031215615217578081fd5b81518015158114611b33578182fd5b600060208284031215615237578081fd5b5035919050565b600060208284031215611ca6578081fd5b60008060408385031215615261578182fd5b50508035926020909101359150565b60008060008060808587031215615285578182fd5b843593506020850135925061529c60408601614df7565b9396929550929360600135925050565b6000806000606084860312156152c0578081fd5b505081359360208301359350604090920135919050565b6000815180845260208085018081965082840281019150828601855b8581101561531d57828403895261530b84835161534c565b988501989350908401906001016152f3565b5091979650505050505050565b6004811061534857634e487b7160e01b600052602160045260246000fd5b9052565b60008151808452615364816020860160208601616425565b601f01601f19169290920160200192915050565b600a8152690c6dedadad2e890c2e6d60b31b602082015260400190565b60609190911b6bffffffffffffffffffffffff1916815260140190565b60609290921b6bffffffffffffffffffffffff19168252601482015260340190565b90815260200190565b600082516153ef818460208701616425565b9190910192915050565b918252602082015260400190565b6001600160a01b0391909116815260200190565b600060208252611b3360208301846152d7565b6020808252825182820181905260009190848201906040850190845b818110156154665783518352928401929184019160010161544a565b50909695505050505050565b901515815260200190565b600060c0825261549060c083018961534c565b6001600160a01b03881660208401526040830187905282810360608401526154b8818761534c565b905082810360808401526154cc818661534c565b9150506112c760a083018461532a565b6000606082526154ef606083018661534c565b8281036020840152615501818661534c565b9050828103604084015261551581856152d7565b9695505050505050565b600060208083528184548360028204905060018083168061554157607f831692505b85831081141561555f57634e487b7160e01b87526022600452602487fd5b61556b83878a016153d4565b81801561557f5760018114615590576155ba565b60ff198616825287820196506155ba565b6155998b6163b7565b895b868110156155b45781548482015290850190890161559b565b83019750505b50949998505050505050505050565b6020808252601c908201527f576f726b657220697320616c7265616479207265676973746572656400000000604082015260600190565b60208082526031908201527f676976656e204461746142617463682073686f756c6420626520415050524f5660408201527011510b08185b99081a5d081a5cc81b9bdd607a1b606082015260800190565b60208082526047908201527f72656d6f7665576f726b657246726f6d427573793a20576f726b6572206e656560408201527f647320746f20626520756e617661696c61626c65206e6f7720616e64207265676060820152661a5cdd195c995960ca1b608082015260a00190565b60208082526041908201527f576f726b657220686173206e6f7420656e6f75676820285f6e756d546f6b656e60408201527f732920696e206869732053706f745374616b6564546f6b656e42616c616e63656060820152600160fd1b608082015260a00190565b60208082526025908201527f72656365697665722072656a6563746564205f7265747269657665534675656c6040820152640818d85b1b60da1b606082015260800190565b6020808252605c908201527f4e6f74207468652073616d6520766f7465207468616e2077686174207761732060408201527f636f6d6d697465642c20696d706f737369626c6520746f206d6174636820776960608201527f746820676976656e205f73616c742026205f766f74654f7074696f6e00000000608082015260a00190565b6020808252601a908201527f5f446174614261746368494420686173206e6f7420656e646564000000000000604082015260600190565b60208082526026908201527f4f776e61626c653a206e6577206f776e657220697320746865207a65726f206160408201526564647265737360d01b606082015260800190565b60208082526029908201527f6b206f72204e20617265206e6f74204f4b20647572696e672072616e646f6d2060408201526839b2b632b1ba34b7b760b91b606082015260800190565b6020808252601e908201527f636f6d6d697420706572696f64206e6565647320746f206265206f70656e0000604082015260600190565b60208082526039908201527f646c6c4d61703a20646f6573206e6f7420636f696e7461696e205f446174614260408201527f61746368494420666f7220746865206d73672073656e64657200000000000000606082015260800190565b6020808252602a908201527f5f446174614261746368494420636865636b696e6720766f7465206d757374206040820152691a185d9948195b99195960b21b606082015260800190565b6020808252602b908201527f576f726b6572206973206e6f7420617661696c61626c6520736f2063616e277460408201526a103ab73932b3b4b9ba32b960a91b606082015260800190565b6020808252603d908201527f436f756c64206e6f74207265717565737420656e6f75676820616c6c6f63617460408201527f6564207374616b652c2072657175657374566f74696e67526967687473000000606082015260800190565b60208082526011908201527005f446174614261746368494420213d203607c1b604082015260600190565b60208082526026908201527f557365722063616e206e6f742072657665616c207477696365206f6e2073616d6040820152656520766f746560d01b606082015260800190565b6020808252602f908201527f5573657220686173206e6f7420636f6d6d69746564206265666f72652c20746860408201526e1d5cc818d85b89dd081c995d99585b608a1b606082015260800190565b6020808252602c908201527f4461746120426174636820436865636b696e6720636f6d6d69746565206d757360408201526b1d081a185d9948195b99195960a21b606082015260800190565b60208082526010908201526f05f7365637265744861736820213d20360841b604082015260600190565b60208082526014908201527311185d18481b5d5cdd081a185d9948195b99195960621b604082015260600190565b6020808252602d908201527f636f756c64206e6f74207265776172642052455020696e20547269676765724360408201526c6865636b53706f742c20312e6160981b606082015260800190565b6020808252602b908201527f75736572206d75737420686176652072657665616c656420696e20746869732060408201526a0ced2eccadc4084c2e8c6d60ab1b606082015260800190565b60208082526017908201527f5f4461746142617463684944206d757374206578697374000000000000000000604082015260600190565b6020808252601490820152733737ba1030903b30b634b2103837b9b4ba34b7b760611b604082015260600190565b6020808252603b908201527f43616e277420616c6c6f6361746520776f726b2c207468652063757272656e7460408201527f20626174636820697320616c726561647920616c6c6f63617465640000000000606082015260800190565b60208082526048908201527f55736572206e6565647320746f2068617665206265656e20616c6c6f6361746560408201527f64207468652063757272656e74206461746120626174636820746f20636f6d6d6060820152671a5d081bdb881a5d60c21b608082015260a00190565b6020808252818101527f4f776e61626c653a2063616c6c6572206973206e6f7420746865206f776e6572604082015260600190565b60208082526047908201527f72656d6f7665576f726b657246726f6d4163746976653a20576f726b6572206e60408201527f6565647320746f20626520617661696c61626c65206e6f7720616e64207265676060820152661a5cdd195c995960ca1b608082015260a00190565b60208082526029908201527f6765744e756d50617373696e67546f6b656e733a20686173686573206d75737460408201526808189948195c5d585b60ba1b606082015260800190565b6020808252601d908201527f66696c655f68617368206c656e677468206d75737420626520213d2030000000604082015260600190565b60208082526036908201527f43616e277420616c6c6f6361746520776f726b2c207468652063757272656e74604082015275206261746368206973206e6f7420636f6d706c65746560501b606082015260800190565b60208082526026908201527f52657665616c20706572696f64206e6f74206f70656e20666f7220746869732060408201526511185d18525160d21b606082015260800190565b60208082526027908201527f617661696c61626c65546f6b656e732073686f756c64206265203e3d205f6e756040820152666d546f6b656e7360c81b606082015260800190565b6020808252601390820152720c081059191c995cdcc8139bdd0815985b1a59606a1b604082015260600190565b60208082526037908201527f75736572206d757374206861766520656e6f75676820766f74696e672072696760408201527f68747320616b6120616c6c6f6361746564207374616b65000000000000000000606082015260800190565b6020808252602d908201527f636f756c64206e6f74207265776172642052455020696e20547269676765724360408201526c6865636b53706f742c20322e6160981b606082015260800190565b6020808252603b908201527f436f756c64206e6f74207769746864726177566f74696e67526967687473207460408201527f68726f7567682050726f78795374616b654465616c6c6f636174650000000000606082015260800190565b6020808252600f908201526e11185d18481b5d5cdd08195e1a5cdd608a1b604082015260600190565b60208082526043908201527f6c61737420626174636820746f20636865636b206d75737420626520636f6d7060408201527f6c65746520746f2070726f6365656420696e20547269676765724e65787445706060820152620dec6d60eb1b608082015260a00190565b60008582528460208301526080604083015261614f608083018561534c565b905082606083015295945050505050565b600083825282602083015260606040830152613ccd60608301615378565b60008482528360208301526080604083015261619c60808301615378565b9050826060830152949350505050565b9182526020820152606060408201819052600990820152686e756d546f6b656e7360b81b608082015260a00190565b93845260208401929092526040830152606082015260800190565b9182526001600160a01b0316602082015260400190565b8b81526001600160a01b038b811660208301528a16604082015260608101899052871515608082015260a0810187905260c0810186905284151560e082015261016061010082018190526000906162668382018761534c565b941515610120840152505061014001529998505050505050505050565b9182526001600160a01b031660208201526000604082015260600190565b9283526020830191909152604082015260600190565b6000610180820190508d82528c60208301528b60408301528a6060830152891515608083015288151560a083015287151560c08301528660e083015285610100830152846101208301528361014083015261631661016083018461532a565b9d9c50505050505050505050505050565b6000808335601e1984360301811261633d578283fd5b8301803591506001600160401b03821115616356578283fd5b602001915036819003821315614e4f57600080fd5b6040518181016001600160401b038111828210171561638c5761638c6164eb565b604052919050565b60006001600160401b038211156163ad576163ad6164eb565b5060209081020190565b60009081526020902090565b600082198211156163d6576163d66164bf565b500190565b6000826163ea576163ea6164d5565b500490565b6000816000190483118215151615616409576164096164bf565b500290565b600082821015616420576164206164bf565b500390565b60005b83811015616440578181015183820152602001616428565b8381111561644f576000848401525b50505050565b60028104600182168061646957607f821691505b6020821081141561648a57634e487b7160e01b600052602260045260246000fd5b50919050565b60006000198214156164a4576164a46164bf565b5060010190565b6000826164ba576164ba6164d5565b500690565b634e487b7160e01b600052601160045260246000fd5b634e487b7160e01b600052601260045260246000fd5b634e487b7160e01b600052604160045260246000fdfea2646970667358221220e7de8fa48474c3f0a11d2c9c28f03aa16a7f00152843433460c14142b92a6f8d64736f6c63430008000033",
  "linkReferences": {
    "contracts/worksystems/DataSpotting.sol": {
      "AttributeStore": [
        {
          "length": 20,
          "start": 14825
        },
        {
          "length": 20,
          "start": 14933
        },
        {
          "length": 20,
          "start": 15217
        },
        {
          "length": 20,
          "start": 15572
        }
      ],
      "DLL": [
        {
          "length": 20,
          "start": 3653
        },
        {
          "length": 20,
          "start": 7043
        },
        {
          "length": 20,
          "start": 7215
        },
        {
          "length": 20,
          "start": 7770
        },
        {
          "length": 20,
          "start": 11881
        },
        {
          "length": 20,
          "start": 12061
        },
        {
          "length": 20,
          "start": 14314
        },
        {
          "length": 20,
          "start": 14476
        },
        {
          "length": 20,
          "start": 14671
        }
      ]
    }
  },
  "deployedLinkReferences": {
    "contracts/worksystems/DataSpotting.sol": {
      "AttributeStore": [
        {
          "length": 20,
          "start": 14441
        },
        {
          "length": 20,
          "start": 14549
        },
        {
          "length": 20,
          "start": 14833
        },
        {
          "length": 20,
          "start": 15188
        }
      ],
      "DLL": [
        {
          "length": 20,
          "start": 3269
        },
        {
          "length": 20,
          "start": 6659
        },
        {
          "length": 20,
          "start": 6831
        },
        {
          "length": 20,
          "start": 7386
        },
        {
          "length": 20,
          "start": 11497
        },
        {
          "length": 20,
          "start": 11677
        },
        {
          "length": 20,
          "start": 13930
        },
        {
          "length": 20,
          "start": 14092
        },
        {
          "length": 20,
          "start": 14287
        }
      ]
    }
  }
}