{
  "_format": "hh-sol-artifact-1",
  "contractName": "DataSpotting",
  "sourceName": "contracts/worksystems/DataSpotting.sol",
  "abi": [
    {
      "inputs": [
        {
          "internalType": "address",
          "name": "EXDT_token",
          "type": "address"
        }
      ],
      "stateMutability": "nonpayable",
      "type": "constructor"
    },
    {
      "anonymous": false,
      "inputs": [
        {
          "indexed": true,
          "internalType": "address",
          "name": "previousOwner",
          "type": "address"
        },
        {
          "indexed": true,
          "internalType": "address",
          "name": "newOwner",
          "type": "address"
        }
      ],
      "name": "OwnershipTransferred",
      "type": "event"
    },
    {
      "anonymous": false,
      "inputs": [
        {
          "indexed": true,
          "internalType": "uint256",
          "name": "epochNumber",
          "type": "uint256"
        }
      ],
      "name": "_NewEpoch",
      "type": "event"
    },
    {
      "anonymous": false,
      "inputs": [
        {
          "indexed": false,
          "internalType": "string",
          "name": "hash",
          "type": "string"
        },
        {
          "indexed": true,
          "internalType": "address",
          "name": "creator",
          "type": "address"
        }
      ],
      "name": "_SpotAccepted",
      "type": "event"
    },
    {
      "anonymous": false,
      "inputs": [
        {
          "indexed": true,
          "internalType": "uint256",
          "name": "DataID",
          "type": "uint256"
        },
        {
          "indexed": false,
          "internalType": "uint256",
          "name": "numTokens",
          "type": "uint256"
        },
        {
          "indexed": true,
          "internalType": "address",
          "name": "voter",
          "type": "address"
        }
      ],
      "name": "_SpotCheckCommitted",
      "type": "event"
    },
    {
      "anonymous": false,
      "inputs": [
        {
          "indexed": true,
          "internalType": "uint256",
          "name": "DataID",
          "type": "uint256"
        },
        {
          "indexed": false,
          "internalType": "uint256",
          "name": "numTokens",
          "type": "uint256"
        },
        {
          "indexed": false,
          "internalType": "uint256",
          "name": "votesFor",
          "type": "uint256"
        },
        {
          "indexed": false,
          "internalType": "uint256",
          "name": "votesAgainst",
          "type": "uint256"
        },
        {
          "indexed": true,
          "internalType": "uint256",
          "name": "choice",
          "type": "uint256"
        },
        {
          "indexed": true,
          "internalType": "address",
          "name": "voter",
          "type": "address"
        }
      ],
      "name": "_SpotCheckRevealed",
      "type": "event"
    },
    {
      "anonymous": false,
      "inputs": [
        {
          "indexed": true,
          "internalType": "uint256",
          "name": "DataID",
          "type": "uint256"
        },
        {
          "indexed": false,
          "internalType": "string",
          "name": "file_hash",
          "type": "string"
        },
        {
          "indexed": false,
          "internalType": "string",
          "name": "URL_domain",
          "type": "string"
        },
        {
          "indexed": false,
          "internalType": "string[]",
          "name": "tags",
          "type": "string[]"
        },
        {
          "indexed": true,
          "internalType": "address",
          "name": "sender",
          "type": "address"
        }
      ],
      "name": "_SpotSubmitted",
      "type": "event"
    },
    {
      "anonymous": false,
      "inputs": [
        {
          "indexed": true,
          "internalType": "uint256",
          "name": "DataID",
          "type": "uint256"
        },
        {
          "indexed": true,
          "internalType": "address",
          "name": "voter",
          "type": "address"
        }
      ],
      "name": "_TokensRescued",
      "type": "event"
    },
    {
      "anonymous": false,
      "inputs": [
        {
          "indexed": false,
          "internalType": "uint256",
          "name": "numTokens",
          "type": "uint256"
        },
        {
          "indexed": true,
          "internalType": "address",
          "name": "voter",
          "type": "address"
        }
      ],
      "name": "_VotingRightsGranted",
      "type": "event"
    },
    {
      "anonymous": false,
      "inputs": [
        {
          "indexed": false,
          "internalType": "uint256",
          "name": "numTokens",
          "type": "uint256"
        },
        {
          "indexed": true,
          "internalType": "address",
          "name": "voter",
          "type": "address"
        }
      ],
      "name": "_VotingRightsWithdrawn",
      "type": "event"
    },
    {
      "anonymous": false,
      "inputs": [
        {
          "indexed": true,
          "internalType": "uint256",
          "name": "batchID",
          "type": "uint256"
        },
        {
          "indexed": false,
          "internalType": "address",
          "name": "worker",
          "type": "address"
        }
      ],
      "name": "_WorkAllocated",
      "type": "event"
    },
    {
      "anonymous": false,
      "inputs": [
        {
          "indexed": true,
          "internalType": "address",
          "name": "worker",
          "type": "address"
        },
        {
          "indexed": false,
          "internalType": "uint256",
          "name": "timestamp",
          "type": "uint256"
        }
      ],
      "name": "_WorkerRegistered",
      "type": "event"
    },
    {
      "anonymous": false,
      "inputs": [
        {
          "indexed": true,
          "internalType": "address",
          "name": "worker",
          "type": "address"
        },
        {
          "indexed": false,
          "internalType": "uint256",
          "name": "timestamp",
          "type": "uint256"
        }
      ],
      "name": "_WorkerUnregistered",
      "type": "event"
    },
    {
      "inputs": [],
      "name": "AddressManager",
      "outputs": [
        {
          "internalType": "contract IAddressManager",
          "name": "",
          "type": "address"
        }
      ],
      "stateMutability": "view",
      "type": "function"
    },
    {
      "inputs": [],
      "name": "AllTxsCounter",
      "outputs": [
        {
          "internalType": "uint256",
          "name": "",
          "type": "uint256"
        }
      ],
      "stateMutability": "view",
      "type": "function"
    },
    {
      "inputs": [],
      "name": "AllocateWork",
      "outputs": [],
      "stateMutability": "nonpayable",
      "type": "function"
    },
    {
      "inputs": [],
      "name": "AmIRegistered",
      "outputs": [
        {
          "internalType": "bool",
          "name": "passed",
          "type": "bool"
        }
      ],
      "stateMutability": "view",
      "type": "function"
    },
    {
      "inputs": [
        {
          "internalType": "string",
          "name": "_a",
          "type": "string"
        },
        {
          "internalType": "string",
          "name": "_b",
          "type": "string"
        }
      ],
      "name": "AreStringsEqual",
      "outputs": [
        {
          "internalType": "bool",
          "name": "",
          "type": "bool"
        }
      ],
      "stateMutability": "pure",
      "type": "function"
    },
    {
      "inputs": [],
      "name": "BatchCheckingCursor",
      "outputs": [
        {
          "internalType": "uint256",
          "name": "",
          "type": "uint256"
        }
      ],
      "stateMutability": "view",
      "type": "function"
    },
    {
      "inputs": [],
      "name": "COMMIT_ROUND_DURATION",
      "outputs": [
        {
          "internalType": "uint256",
          "name": "",
          "type": "uint256"
        }
      ],
      "stateMutability": "view",
      "type": "function"
    },
    {
      "inputs": [],
      "name": "CurrentWorkEpoch",
      "outputs": [
        {
          "internalType": "uint256",
          "name": "",
          "type": "uint256"
        }
      ],
      "stateMutability": "view",
      "type": "function"
    },
    {
      "inputs": [
        {
          "internalType": "uint256",
          "name": "",
          "type": "uint256"
        }
      ],
      "name": "DataBatch",
      "outputs": [
        {
          "internalType": "uint256",
          "name": "start_idx",
          "type": "uint256"
        },
        {
          "internalType": "uint256",
          "name": "end_idx",
          "type": "uint256"
        },
        {
          "internalType": "uint256",
          "name": "counter",
          "type": "uint256"
        },
        {
          "internalType": "uint256",
          "name": "unrevealed_workers",
          "type": "uint256"
        },
        {
          "internalType": "bool",
          "name": "complete",
          "type": "bool"
        },
        {
          "internalType": "bool",
          "name": "checked",
          "type": "bool"
        },
        {
          "internalType": "bool",
          "name": "allocated_to_work",
          "type": "bool"
        },
        {
          "internalType": "uint256",
          "name": "commitEndDate",
          "type": "uint256"
        },
        {
          "internalType": "uint256",
          "name": "revealEndDate",
          "type": "uint256"
        },
        {
          "internalType": "uint256",
          "name": "votesFor",
          "type": "uint256"
        },
        {
          "internalType": "uint256",
          "name": "votesAgainst",
          "type": "uint256"
        },
        {
          "internalType": "string",
          "name": "batchIPFSfile",
          "type": "string"
        },
        {
          "internalType": "enum DataSpotting.DataStatus",
          "name": "status",
          "type": "uint8"
        }
      ],
      "stateMutability": "view",
      "type": "function"
    },
    {
      "inputs": [
        {
          "internalType": "uint256",
          "name": "_DataBatchId",
          "type": "uint256"
        }
      ],
      "name": "DataCommitEndDate",
      "outputs": [
        {
          "internalType": "uint256",
          "name": "commitEndDate",
          "type": "uint256"
        }
      ],
      "stateMutability": "view",
      "type": "function"
    },
    {
      "inputs": [
        {
          "internalType": "uint256",
          "name": "_DataBatchId",
          "type": "uint256"
        }
      ],
      "name": "DataEnded",
      "outputs": [
        {
          "internalType": "bool",
          "name": "ended",
          "type": "bool"
        }
      ],
      "stateMutability": "view",
      "type": "function"
    },
    {
      "inputs": [
        {
          "internalType": "uint256",
          "name": "_DataBatchId",
          "type": "uint256"
        }
      ],
      "name": "DataExists",
      "outputs": [
        {
          "internalType": "bool",
          "name": "exists",
          "type": "bool"
        }
      ],
      "stateMutability": "view",
      "type": "function"
    },
    {
      "inputs": [],
      "name": "DataNonce",
      "outputs": [
        {
          "internalType": "uint256",
          "name": "",
          "type": "uint256"
        }
      ],
      "stateMutability": "view",
      "type": "function"
    },
    {
      "inputs": [
        {
          "internalType": "uint256",
          "name": "_DataBatchId",
          "type": "uint256"
        }
      ],
      "name": "DataRevealEndDate",
      "outputs": [
        {
          "internalType": "uint256",
          "name": "revealEndDate",
          "type": "uint256"
        }
      ],
      "stateMutability": "view",
      "type": "function"
    },
    {
      "inputs": [],
      "name": "FormattingSystem",
      "outputs": [
        {
          "internalType": "contract IFormattingSystem",
          "name": "",
          "type": "address"
        }
      ],
      "stateMutability": "view",
      "type": "function"
    },
    {
      "inputs": [
        {
          "internalType": "address",
          "name": "user_",
          "type": "address"
        }
      ],
      "name": "GetCurrentWork",
      "outputs": [
        {
          "internalType": "uint256",
          "name": "",
          "type": "uint256"
        }
      ],
      "stateMutability": "view",
      "type": "function"
    },
    {
      "inputs": [
        {
          "internalType": "address",
          "name": "user_",
          "type": "address"
        }
      ],
      "name": "IsNewWorkAvailable",
      "outputs": [
        {
          "internalType": "bool",
          "name": "",
          "type": "bool"
        }
      ],
      "stateMutability": "view",
      "type": "function"
    },
    {
      "inputs": [],
      "name": "LastBatchCounter",
      "outputs": [
        {
          "internalType": "uint256",
          "name": "",
          "type": "uint256"
        }
      ],
      "stateMutability": "view",
      "type": "function"
    },
    {
      "inputs": [],
      "name": "MIN_PARTICIPANTS_FOR_VALIDITY",
      "outputs": [
        {
          "internalType": "uint256",
          "name": "",
          "type": "uint256"
        }
      ],
      "stateMutability": "view",
      "type": "function"
    },
    {
      "inputs": [],
      "name": "MIN_REP_Data",
      "outputs": [
        {
          "internalType": "uint256",
          "name": "",
          "type": "uint256"
        }
      ],
      "stateMutability": "view",
      "type": "function"
    },
    {
      "inputs": [],
      "name": "MIN_REP_REVEAL",
      "outputs": [
        {
          "internalType": "uint256",
          "name": "",
          "type": "uint256"
        }
      ],
      "stateMutability": "view",
      "type": "function"
    },
    {
      "inputs": [],
      "name": "MIN_REWARD_Data",
      "outputs": [
        {
          "internalType": "uint256",
          "name": "",
          "type": "uint256"
        }
      ],
      "stateMutability": "view",
      "type": "function"
    },
    {
      "inputs": [],
      "name": "MIN_STAKE",
      "outputs": [
        {
          "internalType": "uint256",
          "name": "",
          "type": "uint256"
        }
      ],
      "stateMutability": "view",
      "type": "function"
    },
    {
      "inputs": [
        {
          "internalType": "address",
          "name": "",
          "type": "address"
        },
        {
          "internalType": "uint256",
          "name": "",
          "type": "uint256"
        }
      ],
      "name": "MasterWorkers",
      "outputs": [
        {
          "internalType": "address",
          "name": "",
          "type": "address"
        }
      ],
      "stateMutability": "view",
      "type": "function"
    },
    {
      "inputs": [],
      "name": "REVEAL_ROUND_DURATION",
      "outputs": [
        {
          "internalType": "uint256",
          "name": "",
          "type": "uint256"
        }
      ],
      "stateMutability": "view",
      "type": "function"
    },
    {
      "inputs": [],
      "name": "RegisterWorker",
      "outputs": [],
      "stateMutability": "nonpayable",
      "type": "function"
    },
    {
      "inputs": [],
      "name": "RepManager",
      "outputs": [
        {
          "internalType": "contract IRepManager",
          "name": "",
          "type": "address"
        }
      ],
      "stateMutability": "view",
      "type": "function"
    },
    {
      "inputs": [],
      "name": "RewardManager",
      "outputs": [
        {
          "internalType": "contract IRewardManager",
          "name": "",
          "type": "address"
        }
      ],
      "stateMutability": "view",
      "type": "function"
    },
    {
      "inputs": [],
      "name": "SPOT_CHECK_VOTE_QUORUM",
      "outputs": [
        {
          "internalType": "uint256",
          "name": "",
          "type": "uint256"
        }
      ],
      "stateMutability": "view",
      "type": "function"
    },
    {
      "inputs": [
        {
          "internalType": "string[]",
          "name": "file_hashs",
          "type": "string[]"
        },
        {
          "internalType": "address",
          "name": "main_worker_account",
          "type": "address"
        },
        {
          "internalType": "string[]",
          "name": "URL_domains",
          "type": "string[]"
        },
        {
          "internalType": "string[]",
          "name": "tags_",
          "type": "string[]"
        },
        {
          "internalType": "uint256[]",
          "name": "tags_id_",
          "type": "uint256[]"
        },
        {
          "internalType": "string",
          "name": "extra_",
          "type": "string"
        }
      ],
      "name": "SpotData",
      "outputs": [
        {
          "internalType": "uint256",
          "name": "Dataid_",
          "type": "uint256"
        }
      ],
      "stateMutability": "nonpayable",
      "type": "function"
    },
    {
      "inputs": [
        {
          "internalType": "address",
          "name": "",
          "type": "address"
        }
      ],
      "name": "SpotStakedTokenBalance",
      "outputs": [
        {
          "internalType": "uint256",
          "name": "",
          "type": "uint256"
        }
      ],
      "stateMutability": "view",
      "type": "function"
    },
    {
      "inputs": [
        {
          "internalType": "uint256",
          "name": "",
          "type": "uint256"
        }
      ],
      "name": "SpotsMapping",
      "outputs": [
        {
          "internalType": "string",
          "name": "ipfs_hash",
          "type": "string"
        },
        {
          "internalType": "address",
          "name": "author",
          "type": "address"
        },
        {
          "internalType": "uint256",
          "name": "timestamp",
          "type": "uint256"
        },
        {
          "internalType": "string",
          "name": "URL_domain",
          "type": "string"
        },
        {
          "internalType": "string",
          "name": "extra",
          "type": "string"
        },
        {
          "internalType": "enum DataSpotting.DataStatus",
          "name": "status",
          "type": "uint8"
        }
      ],
      "stateMutability": "view",
      "type": "function"
    },
    {
      "inputs": [],
      "name": "StakeManager",
      "outputs": [
        {
          "internalType": "contract IStakeManager",
          "name": "",
          "type": "address"
        }
      ],
      "stateMutability": "view",
      "type": "function"
    },
    {
      "inputs": [],
      "name": "TriggerNextEpoch",
      "outputs": [],
      "stateMutability": "nonpayable",
      "type": "function"
    },
    {
      "inputs": [],
      "name": "UnregisterWorker",
      "outputs": [],
      "stateMutability": "nonpayable",
      "type": "function"
    },
    {
      "inputs": [
        {
          "internalType": "address",
          "name": "",
          "type": "address"
        },
        {
          "internalType": "uint256",
          "name": "",
          "type": "uint256"
        }
      ],
      "name": "UserChecksCommits",
      "outputs": [
        {
          "internalType": "bool",
          "name": "",
          "type": "bool"
        }
      ],
      "stateMutability": "view",
      "type": "function"
    },
    {
      "inputs": [
        {
          "internalType": "address",
          "name": "",
          "type": "address"
        },
        {
          "internalType": "uint256",
          "name": "",
          "type": "uint256"
        }
      ],
      "name": "UserChecksReveals",
      "outputs": [
        {
          "internalType": "bool",
          "name": "",
          "type": "bool"
        }
      ],
      "stateMutability": "view",
      "type": "function"
    },
    {
      "inputs": [
        {
          "internalType": "uint256",
          "name": "",
          "type": "uint256"
        },
        {
          "internalType": "address",
          "name": "",
          "type": "address"
        }
      ],
      "name": "UserNewFiles",
      "outputs": [
        {
          "internalType": "string",
          "name": "",
          "type": "string"
        }
      ],
      "stateMutability": "view",
      "type": "function"
    },
    {
      "inputs": [
        {
          "internalType": "uint256",
          "name": "",
          "type": "uint256"
        },
        {
          "internalType": "address",
          "name": "",
          "type": "address"
        }
      ],
      "name": "UserVotes",
      "outputs": [
        {
          "internalType": "uint256",
          "name": "",
          "type": "uint256"
        }
      ],
      "stateMutability": "view",
      "type": "function"
    },
    {
      "inputs": [
        {
          "internalType": "uint256",
          "name": "_DataBatchId",
          "type": "uint256"
        }
      ],
      "name": "ValidateDataBatch",
      "outputs": [],
      "stateMutability": "nonpayable",
      "type": "function"
    },
    {
      "inputs": [
        {
          "internalType": "uint256",
          "name": "",
          "type": "uint256"
        },
        {
          "internalType": "uint256",
          "name": "",
          "type": "uint256"
        }
      ],
      "name": "WorkersPerBatch",
      "outputs": [
        {
          "internalType": "address",
          "name": "",
          "type": "address"
        }
      ],
      "stateMutability": "view",
      "type": "function"
    },
    {
      "inputs": [
        {
          "internalType": "address",
          "name": "",
          "type": "address"
        }
      ],
      "name": "WorkersState",
      "outputs": [
        {
          "internalType": "address",
          "name": "worker_address",
          "type": "address"
        },
        {
          "internalType": "address",
          "name": "master_address",
          "type": "address"
        },
        {
          "internalType": "uint256",
          "name": "allocated_work_batch",
          "type": "uint256"
        },
        {
          "internalType": "bool",
          "name": "has_completed_work",
          "type": "bool"
        },
        {
          "internalType": "uint256",
          "name": "last_worked_round",
          "type": "uint256"
        },
        {
          "internalType": "uint256",
          "name": "last_interaction_date",
          "type": "uint256"
        },
        {
          "internalType": "bool",
          "name": "is_available_now",
          "type": "bool"
        },
        {
          "internalType": "string",
          "name": "extra",
          "type": "string"
        },
        {
          "internalType": "bool",
          "name": "registered",
          "type": "bool"
        },
        {
          "internalType": "uint256",
          "name": "registration_date",
          "type": "uint256"
        }
      ],
      "stateMutability": "view",
      "type": "function"
    },
    {
      "inputs": [
        {
          "internalType": "address",
          "name": "_user",
          "type": "address"
        },
        {
          "internalType": "uint256",
          "name": "_DataBatchId",
          "type": "uint256"
        }
      ],
      "name": "attrUUID",
      "outputs": [
        {
          "internalType": "bytes32",
          "name": "UUID",
          "type": "bytes32"
        }
      ],
      "stateMutability": "pure",
      "type": "function"
    },
    {
      "inputs": [
        {
          "internalType": "uint256",
          "name": "",
          "type": "uint256"
        }
      ],
      "name": "availableWorkers",
      "outputs": [
        {
          "internalType": "address",
          "name": "",
          "type": "address"
        }
      ],
      "stateMutability": "view",
      "type": "function"
    },
    {
      "inputs": [
        {
          "internalType": "uint256",
          "name": "",
          "type": "uint256"
        }
      ],
      "name": "busyWorkers",
      "outputs": [
        {
          "internalType": "address",
          "name": "",
          "type": "address"
        }
      ],
      "stateMutability": "view",
      "type": "function"
    },
    {
      "inputs": [
        {
          "internalType": "uint256",
          "name": "_DataBatchId",
          "type": "uint256"
        }
      ],
      "name": "commitPeriodActive",
      "outputs": [
        {
          "internalType": "bool",
          "name": "active",
          "type": "bool"
        }
      ],
      "stateMutability": "view",
      "type": "function"
    },
    {
      "inputs": [
        {
          "internalType": "uint256",
          "name": "_DataBatchId",
          "type": "uint256"
        },
        {
          "internalType": "bytes32",
          "name": "_secretHash",
          "type": "bytes32"
        },
        {
          "internalType": "string",
          "name": "newIPFSHash",
          "type": "string"
        }
      ],
      "name": "commitSpotCheck",
      "outputs": [],
      "stateMutability": "nonpayable",
      "type": "function"
    },
    {
      "inputs": [
        {
          "internalType": "uint256[]",
          "name": "_DataBatchIDs",
          "type": "uint256[]"
        },
        {
          "internalType": "bytes32[]",
          "name": "_secretHashes",
          "type": "bytes32[]"
        },
        {
          "internalType": "string[]",
          "name": "_newIPFSHash",
          "type": "string[]"
        }
      ],
      "name": "commitSpotChecks",
      "outputs": [],
      "stateMutability": "nonpayable",
      "type": "function"
    },
    {
      "inputs": [
        {
          "internalType": "address",
          "name": "_voter",
          "type": "address"
        },
        {
          "internalType": "uint256",
          "name": "_DataBatchId",
          "type": "uint256"
        }
      ],
      "name": "didCommit",
      "outputs": [
        {
          "internalType": "bool",
          "name": "committed",
          "type": "bool"
        }
      ],
      "stateMutability": "view",
      "type": "function"
    },
    {
      "inputs": [
        {
          "internalType": "address",
          "name": "_voter",
          "type": "address"
        },
        {
          "internalType": "uint256",
          "name": "_DataBatchId",
          "type": "uint256"
        }
      ],
      "name": "didReveal",
      "outputs": [
        {
          "internalType": "bool",
          "name": "revealed",
          "type": "bool"
        }
      ],
      "stateMutability": "view",
      "type": "function"
    },
    {
      "inputs": [
        {
          "internalType": "uint256",
          "name": "_k",
          "type": "uint256"
        },
        {
          "internalType": "uint256",
          "name": "N_range",
          "type": "uint256"
        }
      ],
      "name": "generateIntegers",
      "outputs": [
        {
          "internalType": "uint256[]",
          "name": "",
          "type": "uint256[]"
        }
      ],
      "stateMutability": "view",
      "type": "function"
    },
    {
      "inputs": [],
      "name": "getActiveWorkersCount",
      "outputs": [
        {
          "internalType": "uint256",
          "name": "numWorkers",
          "type": "uint256"
        }
      ],
      "stateMutability": "view",
      "type": "function"
    },
    {
      "inputs": [
        {
          "internalType": "uint256",
          "name": "_DataBatchId",
          "type": "uint256"
        }
      ],
      "name": "getBatchByID",
      "outputs": [
        {
          "components": [
            {
              "internalType": "uint256",
              "name": "start_idx",
              "type": "uint256"
            },
            {
              "internalType": "uint256",
              "name": "end_idx",
              "type": "uint256"
            },
            {
              "internalType": "uint256",
              "name": "counter",
              "type": "uint256"
            },
            {
              "internalType": "uint256",
              "name": "unrevealed_workers",
              "type": "uint256"
            },
            {
              "internalType": "bool",
              "name": "complete",
              "type": "bool"
            },
            {
              "internalType": "bool",
              "name": "checked",
              "type": "bool"
            },
            {
              "internalType": "bool",
              "name": "allocated_to_work",
              "type": "bool"
            },
            {
              "internalType": "uint256",
              "name": "commitEndDate",
              "type": "uint256"
            },
            {
              "internalType": "uint256",
              "name": "revealEndDate",
              "type": "uint256"
            },
            {
              "internalType": "uint256",
              "name": "votesFor",
              "type": "uint256"
            },
            {
              "internalType": "uint256",
              "name": "votesAgainst",
              "type": "uint256"
            },
            {
              "internalType": "string",
              "name": "batchIPFSfile",
              "type": "string"
            },
            {
              "internalType": "enum DataSpotting.DataStatus",
              "name": "status",
              "type": "uint8"
            },
            {
              "internalType": "string[]",
              "name": "flags",
              "type": "string[]"
            },
            {
              "internalType": "uint256[]",
              "name": "flags_id",
              "type": "uint256[]"
            }
          ],
          "internalType": "struct DataSpotting.BatchMetadata",
          "name": "batch",
          "type": "tuple"
        }
      ],
      "stateMutability": "view",
      "type": "function"
    },
    {
      "inputs": [
        {
          "internalType": "uint256",
          "name": "_DataBatchId",
          "type": "uint256"
        }
      ],
      "name": "getBatchIPFSFileByID",
      "outputs": [
        {
          "internalType": "string",
          "name": "batch",
          "type": "string"
        }
      ],
      "stateMutability": "view",
      "type": "function"
    },
    {
      "inputs": [],
      "name": "getBlockTimestamp",
      "outputs": [
        {
          "internalType": "uint256",
          "name": "blocktimestamp",
          "type": "uint256"
        }
      ],
      "stateMutability": "view",
      "type": "function"
    },
    {
      "inputs": [
        {
          "internalType": "address",
          "name": "_voter",
          "type": "address"
        },
        {
          "internalType": "uint256",
          "name": "_DataBatchId",
          "type": "uint256"
        }
      ],
      "name": "getCommitHash",
      "outputs": [
        {
          "internalType": "bytes32",
          "name": "commitHash",
          "type": "bytes32"
        }
      ],
      "stateMutability": "view",
      "type": "function"
    },
    {
      "inputs": [],
      "name": "getCurrentWorkEpoch",
      "outputs": [
        {
          "internalType": "uint256",
          "name": "WorkEpoch",
          "type": "uint256"
        }
      ],
      "stateMutability": "view",
      "type": "function"
    },
    {
      "inputs": [
        {
          "internalType": "uint256",
          "name": "_DataId",
          "type": "uint256"
        }
      ],
      "name": "getDataByID",
      "outputs": [
        {
          "components": [
            {
              "internalType": "string",
              "name": "ipfs_hash",
              "type": "string"
            },
            {
              "internalType": "address",
              "name": "author",
              "type": "address"
            },
            {
              "internalType": "uint256",
              "name": "timestamp",
              "type": "uint256"
            },
            {
              "internalType": "string",
              "name": "URL_domain",
              "type": "string"
            },
            {
              "internalType": "string[]",
              "name": "tags",
              "type": "string[]"
            },
            {
              "internalType": "uint256[]",
              "name": "tags_id",
              "type": "uint256[]"
            },
            {
              "internalType": "string",
              "name": "extra",
              "type": "string"
            },
            {
              "internalType": "enum DataSpotting.DataStatus",
              "name": "status",
              "type": "uint8"
            }
          ],
          "internalType": "struct DataSpotting.SpottedData",
          "name": "data",
          "type": "tuple"
        }
      ],
      "stateMutability": "view",
      "type": "function"
    },
    {
      "inputs": [
        {
          "internalType": "uint256",
          "name": "_DataBatchId",
          "type": "uint256"
        }
      ],
      "name": "getDomainsForBatch",
      "outputs": [
        {
          "internalType": "string[]",
          "name": "",
          "type": "string[]"
        }
      ],
      "stateMutability": "view",
      "type": "function"
    },
    {
      "inputs": [
        {
          "internalType": "uint256",
          "name": "_voteOption",
          "type": "uint256"
        },
        {
          "internalType": "uint256",
          "name": "_salt",
          "type": "uint256"
        }
      ],
      "name": "getEncryptedHash",
      "outputs": [
        {
          "internalType": "bytes32",
          "name": "keccak256hash",
          "type": "bytes32"
        }
      ],
      "stateMutability": "pure",
      "type": "function"
    },
    {
      "inputs": [
        {
          "internalType": "uint256",
          "name": "a",
          "type": "uint256"
        },
        {
          "internalType": "uint256",
          "name": "b",
          "type": "uint256"
        }
      ],
      "name": "getHash",
      "outputs": [
        {
          "internalType": "bytes32",
          "name": "keccak256hash",
          "type": "bytes32"
        }
      ],
      "stateMutability": "pure",
      "type": "function"
    },
    {
      "inputs": [
        {
          "internalType": "uint256",
          "name": "_DataBatchId",
          "type": "uint256"
        }
      ],
      "name": "getIPFShashesForBatch",
      "outputs": [
        {
          "internalType": "string[]",
          "name": "",
          "type": "string[]"
        }
      ],
      "stateMutability": "view",
      "type": "function"
    },
    {
      "inputs": [
        {
          "internalType": "address",
          "name": "_voter",
          "type": "address"
        },
        {
          "internalType": "uint256",
          "name": "_numTokens",
          "type": "uint256"
        },
        {
          "internalType": "uint256",
          "name": "_DataBatchId",
          "type": "uint256"
        }
      ],
      "name": "getInsertPointForNumTokens",
      "outputs": [
        {
          "internalType": "uint256",
          "name": "prevNode",
          "type": "uint256"
        }
      ],
      "stateMutability": "view",
      "type": "function"
    },
    {
      "inputs": [],
      "name": "getLastBatchId",
      "outputs": [
        {
          "internalType": "uint256",
          "name": "LastBatchId",
          "type": "uint256"
        }
      ],
      "stateMutability": "view",
      "type": "function"
    },
    {
      "inputs": [],
      "name": "getLastCheckedBatchId",
      "outputs": [
        {
          "internalType": "uint256",
          "name": "LastCheckedBatchId",
          "type": "uint256"
        }
      ],
      "stateMutability": "view",
      "type": "function"
    },
    {
      "inputs": [],
      "name": "getLastDataId",
      "outputs": [
        {
          "internalType": "uint256",
          "name": "DataId",
          "type": "uint256"
        }
      ],
      "stateMutability": "view",
      "type": "function"
    },
    {
      "inputs": [
        {
          "internalType": "address",
          "name": "_voter",
          "type": "address"
        }
      ],
      "name": "getLastNode",
      "outputs": [
        {
          "internalType": "uint256",
          "name": "DataID",
          "type": "uint256"
        }
      ],
      "stateMutability": "view",
      "type": "function"
    },
    {
      "inputs": [
        {
          "internalType": "address",
          "name": "user",
          "type": "address"
        }
      ],
      "name": "getLastUserDataId",
      "outputs": [
        {
          "internalType": "uint256",
          "name": "DataId",
          "type": "uint256"
        }
      ],
      "stateMutability": "view",
      "type": "function"
    },
    {
      "inputs": [
        {
          "internalType": "address",
          "name": "_voter",
          "type": "address"
        }
      ],
      "name": "getLockedTokens",
      "outputs": [
        {
          "internalType": "uint256",
          "name": "numTokens",
          "type": "uint256"
        }
      ],
      "stateMutability": "view",
      "type": "function"
    },
    {
      "inputs": [
        {
          "internalType": "address",
          "name": "_voter",
          "type": "address"
        },
        {
          "internalType": "uint256",
          "name": "_DataBatchId",
          "type": "uint256"
        },
        {
          "internalType": "uint256",
          "name": "_salt",
          "type": "uint256"
        }
      ],
      "name": "getNumPassingTokens",
      "outputs": [
        {
          "internalType": "uint256",
          "name": "correctSpotChecks",
          "type": "uint256"
        }
      ],
      "stateMutability": "view",
      "type": "function"
    },
    {
      "inputs": [
        {
          "internalType": "address",
          "name": "_voter",
          "type": "address"
        },
        {
          "internalType": "uint256",
          "name": "_DataBatchId",
          "type": "uint256"
        }
      ],
      "name": "getNumTokens",
      "outputs": [
        {
          "internalType": "uint256",
          "name": "numTokens",
          "type": "uint256"
        }
      ],
      "stateMutability": "view",
      "type": "function"
    },
    {
      "inputs": [],
      "name": "getRandom",
      "outputs": [
        {
          "internalType": "uint256",
          "name": "",
          "type": "uint256"
        }
      ],
      "stateMutability": "view",
      "type": "function"
    },
    {
      "inputs": [],
      "name": "getSeed",
      "outputs": [
        {
          "internalType": "bytes32",
          "name": "addr",
          "type": "bytes32"
        }
      ],
      "stateMutability": "view",
      "type": "function"
    },
    {
      "inputs": [
        {
          "internalType": "uint256",
          "name": "_DataBatchId",
          "type": "uint256"
        }
      ],
      "name": "getTotalNumberOfSpotChecks",
      "outputs": [
        {
          "internalType": "uint256",
          "name": "vc",
          "type": "uint256"
        }
      ],
      "stateMutability": "view",
      "type": "function"
    },
    {
      "inputs": [
        {
          "internalType": "uint256",
          "name": "_DataBatchId",
          "type": "uint256"
        }
      ],
      "name": "getTotalNumberOfTokensForWinningOption",
      "outputs": [
        {
          "internalType": "uint256",
          "name": "numTokens",
          "type": "uint256"
        }
      ],
      "stateMutability": "view",
      "type": "function"
    },
    {
      "inputs": [],
      "name": "getTxCounter",
      "outputs": [
        {
          "internalType": "uint256",
          "name": "Counter",
          "type": "uint256"
        }
      ],
      "stateMutability": "view",
      "type": "function"
    },
    {
      "inputs": [
        {
          "internalType": "address",
          "name": "user",
          "type": "address"
        }
      ],
      "name": "getUserDatas",
      "outputs": [
        {
          "internalType": "uint256[]",
          "name": "user_Datas",
          "type": "uint256[]"
        }
      ],
      "stateMutability": "view",
      "type": "function"
    },
    {
      "inputs": [
        {
          "internalType": "uint256",
          "name": "_terminationDate",
          "type": "uint256"
        }
      ],
      "name": "isExpired",
      "outputs": [
        {
          "internalType": "bool",
          "name": "expired",
          "type": "bool"
        }
      ],
      "stateMutability": "view",
      "type": "function"
    },
    {
      "inputs": [
        {
          "internalType": "uint256",
          "name": "_DataBatchId",
          "type": "uint256"
        }
      ],
      "name": "isPassed",
      "outputs": [
        {
          "internalType": "bool",
          "name": "passed",
          "type": "bool"
        }
      ],
      "stateMutability": "view",
      "type": "function"
    },
    {
      "inputs": [
        {
          "internalType": "address",
          "name": "_worker",
          "type": "address"
        }
      ],
      "name": "isWorkerRegistered",
      "outputs": [
        {
          "internalType": "bool",
          "name": "passed",
          "type": "bool"
        }
      ],
      "stateMutability": "view",
      "type": "function"
    },
    {
      "inputs": [],
      "name": "owner",
      "outputs": [
        {
          "internalType": "address",
          "name": "",
          "type": "address"
        }
      ],
      "stateMutability": "view",
      "type": "function"
    },
    {
      "inputs": [
        {
          "internalType": "uint256",
          "name": "k",
          "type": "uint256"
        },
        {
          "internalType": "uint256",
          "name": "N",
          "type": "uint256"
        }
      ],
      "name": "random_selection",
      "outputs": [
        {
          "internalType": "uint256[]",
          "name": "",
          "type": "uint256[]"
        }
      ],
      "stateMutability": "view",
      "type": "function"
    },
    {
      "inputs": [],
      "name": "renounceOwnership",
      "outputs": [],
      "stateMutability": "nonpayable",
      "type": "function"
    },
    {
      "inputs": [
        {
          "internalType": "uint256",
          "name": "_numTokens",
          "type": "uint256"
        }
      ],
      "name": "requestVotingRights",
      "outputs": [],
      "stateMutability": "nonpayable",
      "type": "function"
    },
    {
      "inputs": [
        {
          "internalType": "uint256",
          "name": "_DataBatchId",
          "type": "uint256"
        }
      ],
      "name": "rescueTokens",
      "outputs": [],
      "stateMutability": "nonpayable",
      "type": "function"
    },
    {
      "inputs": [
        {
          "internalType": "uint256[]",
          "name": "_DataBatchIDs",
          "type": "uint256[]"
        }
      ],
      "name": "rescueTokensInMultipleDatas",
      "outputs": [],
      "stateMutability": "nonpayable",
      "type": "function"
    },
    {
      "inputs": [
        {
          "internalType": "uint256",
          "name": "_DataBatchId",
          "type": "uint256"
        }
      ],
      "name": "revealPeriodActive",
      "outputs": [
        {
          "internalType": "bool",
          "name": "active",
          "type": "bool"
        }
      ],
      "stateMutability": "view",
      "type": "function"
    },
    {
      "inputs": [
        {
          "internalType": "uint256",
          "name": "_DataBatchId",
          "type": "uint256"
        },
        {
          "internalType": "uint256",
          "name": "_voteOption",
          "type": "uint256"
        },
        {
          "internalType": "uint256",
          "name": "_salt",
          "type": "uint256"
        }
      ],
      "name": "revealSpotCheck",
      "outputs": [],
      "stateMutability": "nonpayable",
      "type": "function"
    },
    {
      "inputs": [
        {
          "internalType": "uint256[]",
          "name": "_DataBatchIDs",
          "type": "uint256[]"
        },
        {
          "internalType": "uint256[]",
          "name": "_voteOptions",
          "type": "uint256[]"
        },
        {
          "internalType": "uint256[]",
          "name": "_salts",
          "type": "uint256[]"
        }
      ],
      "name": "revealSpotChecks",
      "outputs": [],
      "stateMutability": "nonpayable",
      "type": "function"
    },
    {
      "inputs": [],
      "name": "sFuel",
      "outputs": [
        {
          "internalType": "address",
          "name": "",
          "type": "address"
        }
      ],
      "stateMutability": "view",
      "type": "function"
    },
    {
      "inputs": [
        {
          "internalType": "uint256",
          "name": "N",
          "type": "uint256"
        }
      ],
      "name": "shuffle_array",
      "outputs": [
        {
          "internalType": "uint256[]",
          "name": "",
          "type": "uint256[]"
        }
      ],
      "stateMutability": "view",
      "type": "function"
    },
    {
      "inputs": [],
      "name": "token",
      "outputs": [
        {
          "internalType": "contract IERC20",
          "name": "",
          "type": "address"
        }
      ],
      "stateMutability": "view",
      "type": "function"
    },
    {
      "inputs": [
        {
          "internalType": "address",
          "name": "newOwner",
          "type": "address"
        }
      ],
      "name": "transferOwnership",
      "outputs": [],
      "stateMutability": "nonpayable",
      "type": "function"
    },
    {
      "inputs": [
        {
          "internalType": "address",
          "name": "addr",
          "type": "address"
        }
      ],
      "name": "updateAddressManager",
      "outputs": [],
      "stateMutability": "nonpayable",
      "type": "function"
    },
    {
      "inputs": [
        {
          "internalType": "uint256",
          "name": "COMMIT_ROUND_DURATION_",
          "type": "uint256"
        }
      ],
      "name": "updateCommitRoundDuration",
      "outputs": [],
      "stateMutability": "nonpayable",
      "type": "function"
    },
    {
      "inputs": [
        {
          "internalType": "address",
          "name": "addr",
          "type": "address"
        }
      ],
      "name": "updateFormattingSystem",
      "outputs": [],
      "stateMutability": "nonpayable",
      "type": "function"
    },
    {
      "inputs": [
        {
          "internalType": "address",
          "name": "addr",
          "type": "address"
        }
      ],
      "name": "updateRepManager",
      "outputs": [],
      "stateMutability": "nonpayable",
      "type": "function"
    },
    {
      "inputs": [
        {
          "internalType": "uint256",
          "name": "REVEAL_ROUND_DURATION_",
          "type": "uint256"
        }
      ],
      "name": "updateRevealRoundDuration",
      "outputs": [],
      "stateMutability": "nonpayable",
      "type": "function"
    },
    {
      "inputs": [
        {
          "internalType": "address",
          "name": "addr",
          "type": "address"
        }
      ],
      "name": "updateRewardManager",
      "outputs": [],
      "stateMutability": "nonpayable",
      "type": "function"
    },
    {
      "inputs": [
        {
          "internalType": "address",
          "name": "addr",
          "type": "address"
        }
      ],
      "name": "updateStakeManager",
      "outputs": [],
      "stateMutability": "nonpayable",
      "type": "function"
    },
    {
      "inputs": [
        {
          "internalType": "address",
          "name": "sFuel_",
          "type": "address"
        }
      ],
      "name": "updatesFuelFaucet",
      "outputs": [],
      "stateMutability": "nonpayable",
      "type": "function"
    },
    {
      "inputs": [
        {
          "internalType": "address",
          "name": "",
          "type": "address"
        },
        {
          "internalType": "uint256",
          "name": "",
          "type": "uint256"
        }
      ],
      "name": "userSubmissions",
      "outputs": [
        {
          "internalType": "uint256",
          "name": "",
          "type": "uint256"
        }
      ],
      "stateMutability": "view",
      "type": "function"
    },
    {
      "inputs": [
        {
          "internalType": "uint256",
          "name": "_prevID",
          "type": "uint256"
        },
        {
          "internalType": "uint256",
          "name": "_nextID",
          "type": "uint256"
        },
        {
          "internalType": "address",
          "name": "_voter",
          "type": "address"
        },
        {
          "internalType": "uint256",
          "name": "_numTokens",
          "type": "uint256"
        }
      ],
      "name": "validPosition",
      "outputs": [
        {
          "internalType": "bool",
          "name": "APPROVED",
          "type": "bool"
        }
      ],
      "stateMutability": "view",
      "type": "function"
    },
    {
      "inputs": [
        {
          "internalType": "uint256",
          "name": "_numTokens",
          "type": "uint256"
        }
      ],
      "name": "withdrawVotingRights",
      "outputs": [],
      "stateMutability": "nonpayable",
      "type": "function"
    }
  ],
  "bytecode": "0x60806040526802b5e3af16b18800006005819055678ac7230489e80000600655600755603c6008556000600f8190556010819055601980546001600160a01b0319167314f52f3fc010ab6ca81568d4a6794d5eab3c6155179055601a819055601b819055601d553480156200007357600080fd5b5060405162007f4e38038062007f4e833981016040819052620000969162000143565b620000aa620000a4620000ef565b620000f3565b601e80546001600160a01b0319166001600160a01b0392909216919091178155600060105568056bc75e2d631000006001908155600255602860035560045562000173565b3390565b600080546001600160a01b038381166001600160a01b0319831681178455604051919092169283917f8be0079c531659141344cd1fd0a4f28419497f9722a3daafe3b4186f6b6457e09190a35050565b60006020828403121562000155578081fd5b81516001600160a01b03811681146200016c578182fd5b9392505050565b617dcb80620001836000396000f3fe608060405234801561001057600080fd5b50600436106106085760003560e01c80638d289f8f1161031b578063d37a4db2116101a8578063e7b1d43c116100f4578063f3438946116100ad578063f721de4a11610087578063f721de4a14610ca4578063f80a23fd14610cb7578063fc0c546a14610cbf578063fca4956314610cc757610608565b8063f343894614610c81578063f5ae7c7d14610c94578063f716596d14610c9c57610608565b8063e7b1d43c14610c25578063e8e9b6f914610c38578063ed8becfa14610c4b578063ef4fcdad14610c5e578063f2d9e74d14610c66578063f2fde38b14610c6e57610608565b8063d9845fb811610161578063e44c974b1161013b578063e44c974b14610be4578063e604c12714610bf7578063e7805f9e14610c0a578063e798a7da14610c1257610608565b8063d9845fb814610b9e578063dd61868214610bbe578063df05368e14610bd157610608565b8063d37a4db214610b2c578063d420ec0b14610b3f578063d822ce0114610b52578063d8b7567414610b65578063d901402b14610b78578063d9548e5314610b8b57610608565b8063aa7ca46411610267578063b43bd06911610220578063c4e4f82a116101fa578063c4e4f82a14610aeb578063c7c063fb14610afe578063cb1c2b5c14610b11578063d138209214610b1957610608565b8063b43bd06914610ab2578063b8f011b314610ac5578063c47c4bc214610ad857610608565b8063aa7ca46414610a69578063aacc5a1714610a7c578063ab43e78d14610a84578063b1a2e0be14610a8c578063b1cf4a7e146106ce578063b1d7ea9814610a9f57610608565b80639fc9c52f116102d4578063a4439dc5116102ae578063a4439dc514610a28578063a511dba014610a3b578063a7f830f414610a43578063a905779014610a5657610608565b80639fc9c52f146109ef578063a1103f3714610a02578063a25236fe14610a1557610608565b80638d289f8f1461099e5780638da5cb5b146109a65780638df0296e146109ae57806397603560146109c15780639acb75c1146109d45780639b7e0180146109dc57610608565b80634d8842811161049957806371880b1b116103e55780637f97e8361161039e578063821aa8c011610378578063821aa8c01461095257806383cc6ef2146109655780638473850b1461096d5780638c89d0271461097557610608565b80637f97e836146109005780637fabe35b14610913578063819b02931461093f57610608565b806371880b1b146108ba5780637827e549146108cd578063796b89b9146108d55780637a34da67146108dd5780637d050526146108e55780637f9510a2146108f857610608565b80635a45294311610452578063667bf0f81161042c578063667bf0f8146108845780636b1485a31461088c5780636b2d95d41461089f578063715018a6146108b257610608565b80635a452943146108545780635fd879091461087457806362b7e9411461087c57610608565b80634d884281146107eb5780635106a55f146107fe578063515535e81461081157806351912f2914610819578063579db71c14610821578063580021581461084157610608565b80632c05203111610558578063354dae4011610511578063427fa1d2116104eb578063427fa1d2146107aa578063441c77c0146107bd57806347fe2d20146107d057806349403183146107d857610608565b8063354dae401461079257806339e7357c1461079a5780633ad2131f146107a257610608565b80632c0520311461071e5780632d917c68146107315780632f469fd114610744578063313066ee1461076457806332ac1ba21461076c5780633538af821461077f57610608565b80630e6661a7116105c55780631b8550441161059f5780631b855044146106ce578063226ed300146106e1578063275c25901461070157806329a47bc71461070957610608565b80630e6661a71461069e5780630e670feb146106a657806319d90346146106ae57610608565b8063035fbb551461060d57806304dbcda714610622578063050eb2eb14610640578063053e71a6146106535780630b16d945146106665780630b96c5b014610679575b600080fd5b61062061061b36600461685a565b610cda565b005b61062a610f7f565b6040516106379190616a15565b60405180910390f35b61062061064e3660046164bf565b610f85565b61062a61066136600461675c565b610fe6565b61062a610674366004616534565b61104c565b61068c61068736600461675c565b611389565b60405161063796959493929190616b0e565b61062a611566565b61062a61156c565b6106c16106bc36600461675c565b611572565b6040516106379190616aca565b61062a6106dc3660046167fd565b611987565b6106f46106ef36600461675c565b6119bb565b6040516106379190616af0565b6106206119fd565b610711611aeb565b6040516106379190616a48565b61062a61072c366004616502565b611afa565b6106f461073f3660046164d9565b611c97565b610757610752366004616785565b611cb7565b6040516106379190616afb565b61062a611d5c565b61062a61077a36600461675c565b611d62565b61071161078d36600461675c565b611d86565b610620611db0565b61062a611eaa565b61062a611ec7565b61062a6107b83660046164bf565b611ecd565b6106f46107cb36600461675c565b611f6d565b61062a611fc7565b6106f46107e636600461675c565b611fcd565b6106206107f93660046164bf565b6122e2565b61062061080c366004616615565b612343565b61062a612445565b61071161244b565b61083461082f3660046164bf565b61245a565b6040516106379190616add565b61062061084f36600461675c565b6124c6565b61086761086236600461675c565b61250a565b6040516106379190617a1d565b61062a612887565b61062a61288d565b610620612893565b61062061089a36600461675c565b612c45565b61062a6108ad3660046164bf565b6134d4565b6106206134e3565b61062a6108c836600461675c565b61352e565b61062a61356b565b61062a613571565b610711613575565b6106206108f33660046164bf565b613584565b61062a6135e5565b6106f461090e3660046164d9565b6135fc565b61092661092136600461675c565b61364f565b6040516106379d9c9b9a99989796959493929190617b38565b6106f461094d36600461681e565b613748565b61071161096036600461675c565b613786565b610711613796565b61062a6137a5565b6109886109833660046164bf565b6137ab565b6040516106379a99989796959493929190616a5c565b61071161389e565b6107116138ad565b6107116109bc3660046167fd565b6138bc565b6106206109cf36600461675c565b6138f4565b61062a613aa3565b61062a6109ea3660046164d9565b613aa9565b6106206109fd3660046166aa565b613ada565b61062a610a103660046164d9565b613b2c565b610620610a2336600461675c565b613b41565b6106f4610a3636600461675c565b613c42565b61062a613c84565b610620610a513660046167b0565b613c8a565b6106f4610a643660046166fc565b614106565b6106f4610a773660046164d9565b61416c565b61062a6141bf565b610711614274565b6106f4610a9a3660046164bf565b614283565b610834610aad3660046167fd565b6143e0565b61062a610ac0366004616502565b6145e7565b610834610ad33660046167fd565b6146d3565b610620610ae63660046164bf565b61483b565b61062a610af936600461675c565b61489c565b61062a610b0c3660046164bf565b6148d9565b61062a6148eb565b61062a610b273660046164d9565b6148f1565b610620610b3a366004616615565b614986565b6106f4610b4d3660046164d9565b614a5e565b610711610b603660046164d9565b614a7e565b61062a610b73366004616785565b614a9a565b61062a610b863660046164d9565b614ab7565b6106f4610b9936600461675c565b614afc565b610bb1610bac36600461675c565b614b01565b604051610637919061784e565b610620610bcc3660046164bf565b614dd6565b610620610bdf3660046164bf565b614e37565b610834610bf236600461675c565b614e98565b610757610c0536600461675c565b614f11565b61062a614fbc565b6106f4610c203660046164bf565b614fc2565b610620610c3336600461675c565b614fe3565b610620610c4636600461675c565b61511f565b6106c1610c5936600461675c565b615163565b61062a61556c565b61062a615572565b610620610c7c3660046164bf565b615578565b61062a610c8f3660046164bf565b6155e9565b61062a61568a565b610620615690565b6106f4610cb236600461675c565b615866565b6106f461586e565b610711615887565b61062a610cd53660046164bf565b615896565b610ce26159cb565b610ceb83611f6d565b610d105760405162461bcd60e51b8152600401610d0790617408565b60405180910390fd5b33600090815260096020908152604080832086845290915290205460ff16610d4a5760405162461bcd60e51b8152600401610d0790617005565b610d543384614ab7565b610d5e8383611987565b14610d7b5760405162461bcd60e51b8152600401610d0790616d8e565b6000610d8733856148f1565b90508260011415610dbe576000848152601c602052604081206007018054839290610db3908490617c57565b90915550610de59050565b6000848152601c602052604081206008018054839290610ddf908490617c57565b90915550505b336000908152600d60205260409081902090516301039dfd60e11b815273__$85afbab79b2b776d70bef879a32ed56424$__916302073bfa91610e2d91908890600401616a3a565b60006040518083038186803b158015610e4557600080fd5b505af4158015610e59573d6000803e3d6000fd5b5050336000818152600a602090815260408083208a84528252808320805460ff19166001908117909155600b8352818420948452938252808320899055601182528083208a8452601c90925290912060030154909350610eba925090615b53565b6000868152601c60205260409020600390810191909155600682018054600160ff1991821681179092559183018054909216179055610ef7613571565b6005820155610f0533615b5f565b6001601d6000828254610f189190617c57565b90915550506000858152601c602052604090819020600781015460089091015491513392879289927f0867b5027231dcbf37614eaad07d667b9febaf9fdf483f488229b1f140bb074892610f70928992909190617b22565b60405180910390a45050505050565b60055481565b610f8d615b91565b6001600160a01b0316610f9e6138ad565b6001600160a01b031614610fc45760405162461bcd60e51b8152600401610d0790617334565b602180546001600160a01b0319166001600160a01b0392909216919091179055565b6000610ff1826119bb565b61100d5760405162461bcd60e51b8152600401610d07906170a0565b61101682611fcd565b1561103357506000818152601c6020526040902060070154611047565b506000818152601c60205260409020600801545b919050565b60006110566159cb565b60005b885181101561135f57600089828151811061108457634e487b7160e01b600052603260045260246000fd5b6020026020010151905060008888848181106110b057634e487b7160e01b600052603260045260246000fd5b90506020028101906110c29190617bbb565b8080601f0160208091040260200160405190810160405280939291908181526020018383808284376000920191909152505060105492935061110992915060019050617c57565b60108181553360008181526013602090815260408083208054600181018255908452828420019590955584516101008101865287815280820193909352428386015260608301869052608083018c905260a083018b905260c083018a905260e0830182905292548152601283529290922082518051919261118f928492909101906160a9565b506020828101516001830180546001600160a01b0319166001600160a01b0390921691909117905560408301516002830155606083015180516111d892600385019201906160a9565b50608082015180516111f491600484019160209091019061612d565b5060a08201518051611210916005840191602090910190616186565b5060c0820151805161122c9160068401916020909101906160a9565b5060e082015160078201805460ff1916600183600381111561125e57634e487b7160e01b600052602160045260246000fd5b021790555050601a546000908152601c60205260409020905061128360016005617ca2565b816002015410156112b55760018160020160008282546112a39190617c57565b90915550506010546001820155611301565b60048101805461ff001960ff199091166001171690556112d3611db0565b6001601a60008282546112e69190617c57565b9091555050601054601a546000908152601c60205260409020555b336001600160a01b03166010547fb7b95e293993cd6c0c54a48cee487ef3dd8f51be568be962db90e7784af70dd185858c60405161134193929190616b6d565b60405180910390a3505050808061135790617d24565b915050611059565b506001601d60008282546113739190617c57565b909155505060105490505b979650505050505050565b6012602052600090815260409020805481906113a490617ce9565b80601f01602080910402602001604051908101604052809291908181526020018280546113d090617ce9565b801561141d5780601f106113f25761010080835404028352916020019161141d565b820191906000526020600020905b81548152906001019060200180831161140057829003601f168201915b505050506001830154600284015460038501805494956001600160a01b03909316949193509061144c90617ce9565b80601f016020809104026020016040519081016040528092919081815260200182805461147890617ce9565b80156114c55780601f1061149a576101008083540402835291602001916114c5565b820191906000526020600020905b8154815290600101906020018083116114a857829003601f168201915b5050505050908060060180546114da90617ce9565b80601f016020809104026020016040519081016040528092919081815260200182805461150690617ce9565b80156115535780601f1061152857610100808354040283529160200191611553565b820191906000526020600020905b81548152906001019060200180831161153657829003601f168201915b5050506007909301549192505060ff1686565b60105481565b60065481565b606061157d82615866565b6115995760405162461bcd60e51b8152600401610d0790617495565b6000828152601c6020908152604080832081516101e0810183528154815260018201549381019390935260028101549183019190915260038101546060830152600481015460ff808216151560808501526101008083048216151560a08601526201000090920416151560c0840152600582015460e0840152600682015490830152600781015461012083015260088101546101408301526009810180546101608401919061164790617ce9565b80601f016020809104026020016040519081016040528092919081815260200182805461167390617ce9565b80156116c05780601f10611695576101008083540402835291602001916116c0565b820191906000526020600020905b8154815290600101906020018083116116a357829003601f168201915b5050509183525050600a82015460209091019060ff1660038111156116f557634e487b7160e01b600052602160045260246000fd5b600381111561171457634e487b7160e01b600052602160045260246000fd5b8152602001600b8201805480602002602001604051908101604052809291908181526020016000905b828210156117e957838290600052602060002001805461175c90617ce9565b80601f016020809104026020016040519081016040528092919081815260200182805461178890617ce9565b80156117d55780601f106117aa576101008083540402835291602001916117d5565b820191906000526020600020905b8154815290600101906020018083116117b857829003601f168201915b50505050508152602001906001019061173d565b505050508152602001600c820180548060200260200160405190810160405280929190818152602001828054801561184057602002820191906000526020600020905b81548152602001906001019080831161182c575b505050919092525050506040818101518151600580825260c0820190935292935091600091816020015b606081526020019060019003908161186a57905050905060005b8281101561197e57835160009061189c908390617c57565b6000818152601260205260408120600301805492935090916118bd90617ce9565b80601f01602080910402602001604051908101604052809291908181526020018280546118e990617ce9565b80156119365780601f1061190b57610100808354040283529160200191611936565b820191906000526020600020905b81548152906001019060200180831161191957829003601f168201915b505050505090508084848151811061195e57634e487b7160e01b600052603260045260246000fd5b60200260200101819052505050808061197690617d24565b915050611884565b50949350505050565b6000828260405160200161199c929190616a3a565b6040516020818303038152906040528051906020012090505b92915050565b60006119c682615866565b6119e25760405162461bcd60e51b8152600401610d07906177bc565b6000828152601c60205260409020600601546119b590614afc565b611a056159cb565b336000908152601160205260409020600681015460ff161515600114611a3d5760405162461bcd60e51b8152600401610d0790616f26565b6000611a47613571565b9050611a5233615b95565b8154336001600160a01b031991821681178455600180850180549093169091179091556005830182905560068301805460ff199081169091556008840180549091169055601d8054600090611aa8908490617c57565b909155505060405133907f9dadcedba048e92b943ea1c5861cee1df63a566d7f795869c004780c1c698e2b90611adf908490616a15565b60405180910390a25050565b6020546001600160a01b031681565b600080611b0685611ecd565b90506000611b1486836148f1565b90505b8115611c8c57611b2786836148f1565b9050848111611be45783821415611bdc576001600160a01b0386166000908152600d60205260409081902090516301c39b2b60e11b815273__$85afbab79b2b776d70bef879a32ed56424$__91630387365691611b8991908690600401616a3a565b60206040518083038186803b158015611ba157600080fd5b505af4158015611bb5573d6000803e3d6000fd5b505050506040513d601f19601f82011682018060405250810190611bd99190616774565b91505b509050611c90565b6001600160a01b0386166000908152600d60205260409081902090516301c39b2b60e11b815273__$85afbab79b2b776d70bef879a32ed56424$__91630387365691611c3591908690600401616a3a565b60206040518083038186803b158015611c4d57600080fd5b505af4158015611c61573d6000803e3d6000fd5b505050506040513d601f19601f82011682018060405250810190611c859190616774565b9150611b17565b5090505b9392505050565b600960209081526000928352604080842090915290825290205460ff1681565b600c60209081526000928352604080842090915290825290208054611cdb90617ce9565b80601f0160208091040260200160405190810160405280929190818152602001828054611d0790617ce9565b8015611d545780601f10611d2957610100808354040283529160200191611d54565b820191906000526020600020905b815481529060010190602001808311611d3757829003601f168201915b505050505081565b600f5481565b6000818152601c6020526040812060088101546007909101548291611c9091617c57565b60168181548110611d9657600080fd5b6000918252602090912001546001600160a01b0316905081565b601b546000908152601c602052604090206004015460ff16611de45760405162461bcd60e51b8152600401610d07906177e5565b601b546000908152601c602052604090206004015462010000900460ff161515600114801590611e15575060165415155b15611e2757611e22612893565b611e6c565b601b546000908152601c602052604090206004015462010000900460ff1615156001148015611e5c5750611e5c601b546119bb565b15611e6c57611e6c601b54612c45565b600f54611e7a906001615bc4565b600f8190556040517f94d48a7342690f1233e3f4db70efa37c4f1f25f4d0397c353f3f15aecdeca5f490600090a2565b60405160009080602081848060185afa611ec057fe5b5051919050565b60085481565b6001600160a01b0381166000908152600d602052604080822090516301c39b2b60e11b815273__$85afbab79b2b776d70bef879a32ed56424$__91630387365691611f1d91908590600401616a3a565b60206040518083038186803b158015611f3557600080fd5b505af4158015611f49573d6000803e3d6000fd5b505050506040513d601f19601f820116820180604052508101906119b59190616774565b6000611f7882615866565b611f945760405162461bcd60e51b8152600401610d0790617495565b6000828152601c6020526040902060060154611faf90614afc565b1580156119b55750611fc082613c42565b1592915050565b601b5490565b6000611fd8826119bb565b611ff45760405162461bcd60e51b8152600401610d0790617054565b6000828152601c6020908152604080832081516101e0810183528154815260018201549381019390935260028101549183019190915260038101546060830152600481015460ff808216151560808501526101008083048216151560a08601526201000090920416151560c0840152600582015460e084015260068201549083015260078101546101208301526008810154610140830152600981018054610160840191906120a290617ce9565b80601f01602080910402602001604051908101604052809291908181526020018280546120ce90617ce9565b801561211b5780601f106120f05761010080835404028352916020019161211b565b820191906000526020600020905b8154815290600101906020018083116120fe57829003601f168201915b5050509183525050600a82015460209091019060ff16600381111561215057634e487b7160e01b600052602160045260246000fd5b600381111561216f57634e487b7160e01b600052602160045260246000fd5b8152602001600b8201805480602002602001604051908101604052809291908181526020016000905b828210156122445783829060005260206000200180546121b790617ce9565b80601f01602080910402602001604051908101604052809291908181526020018280546121e390617ce9565b80156122305780601f1061220557610100808354040283529160200191612230565b820191906000526020600020905b81548152906001019060200180831161221357829003601f168201915b505050505081526020019060010190612198565b505050508152602001600c820180548060200260200160405190810160405280929190818152602001828054801561229b57602002820191906000526020600020905b815481526020019060010190808311612287575b50505050508152505090508061014001518161012001516122bc9190617c57565b6008546122c99190617c83565b6101208201516122da906064617c83565b119392505050565b6122ea615b91565b6001600160a01b03166122fb6138ad565b6001600160a01b0316146123215760405162461bcd60e51b8152600401610d0790617334565b601980546001600160a01b0319166001600160a01b0392909216919091179055565b8483146123625760405162461bcd60e51b8152600401610d07906175ba565b60005b8581101561243c5761242a87878381811061239057634e487b7160e01b600052603260045260246000fd5b905060200201358686848181106123b757634e487b7160e01b600052603260045260246000fd5b905060200201358585858181106123de57634e487b7160e01b600052603260045260246000fd5b90506020028101906123f09190617bbb565b8080601f016020809104026020016040519081016040528093929190818152602001838380828437600092019190915250613c8a92505050565b8061243481617d24565b915050612365565b50505050505050565b601a5490565b6021546001600160a01b031681565b6001600160a01b0381166000908152601360209081526040918290208054835181840281018401909452808452606093928301828280156124ba57602002820191906000526020600020905b8154815260200190600101908083116124a6575b50505050509050919050565b6124ce615b91565b6001600160a01b03166124df6138ad565b6001600160a01b0316146125055760405162461bcd60e51b8152600401610d0790617334565b600455565b6125126161c0565b600082815260126020526040908190208151610100810190925280548290829061253b90617ce9565b80601f016020809104026020016040519081016040528092919081815260200182805461256790617ce9565b80156125b45780601f10612589576101008083540402835291602001916125b4565b820191906000526020600020905b81548152906001019060200180831161259757829003601f168201915b505050918352505060018201546001600160a01b03166020820152600282015460408201526003820180546060909201916125ee90617ce9565b80601f016020809104026020016040519081016040528092919081815260200182805461261a90617ce9565b80156126675780601f1061263c57610100808354040283529160200191612667565b820191906000526020600020905b81548152906001019060200180831161264a57829003601f168201915b5050505050815260200160048201805480602002602001604051908101604052809291908181526020016000905b828210156127415783829060005260206000200180546126b490617ce9565b80601f01602080910402602001604051908101604052809291908181526020018280546126e090617ce9565b801561272d5780601f106127025761010080835404028352916020019161272d565b820191906000526020600020905b81548152906001019060200180831161271057829003601f168201915b505050505081526020019060010190612695565b5050505081526020016005820180548060200260200160405190810160405280929190818152602001828054801561279857602002820191906000526020600020905b815481526020019060010190808311612784575b505050505081526020016006820180546127b190617ce9565b80601f01602080910402602001604051908101604052809291908181526020018280546127dd90617ce9565b801561282a5780601f106127ff5761010080835404028352916020019161282a565b820191906000526020600020905b81548152906001019060200180831161280d57829003601f168201915b5050509183525050600782015460209091019060ff16600381111561285f57634e487b7160e01b600052602160045260246000fd5b600381111561287e57634e487b7160e01b600052602160045260246000fd5b90525092915050565b60045481565b60025481565b601b546000908152601c602052604090206004015460ff166128c75760405162461bcd60e51b8152600401610d07906173b2565b601b546000908152601c602052604090206004015462010000900460ff16156129025760405162461bcd60e51b8152600401610d0790617269565b60165460009061292b9060649061291a906014617c83565b6129249190617c6f565b6001615bd0565b601654601b546000908152601c602052604081206003908101849055549293509091612958904290615bc4565b9050600061297160045483615bc490919063ffffffff16565b601b80546000908152601c60205260408082206005018690558254825280822060060184905591548152908120600401805462ff00001916620100001790559091506129bd85856146d3565b9050600081516001600160401b038111156129e857634e487b7160e01b600052604160045260246000fd5b604051908082528060200260200182016040528015612a11578160200160208202803683370190505b50905060005b8251811015612ad0576016838281518110612a4257634e487b7160e01b600052603260045260246000fd5b602002602001015181548110612a6857634e487b7160e01b600052603260045260246000fd5b9060005260206000200160009054906101000a90046001600160a01b0316828281518110612aa657634e487b7160e01b600052603260045260246000fd5b6001600160a01b039092166020928302919091019091015280612ac881617d24565b915050612a17565b5060005b8251811015612c24576000828281518110612aff57634e487b7160e01b600052603260045260246000fd5b6020908102919091018101516001600160a01b03811660008181526011845260408082206017805460018181019092557fc624b66cc0138b8fabc209247f72d758e1cf3343756d543badbf24212bed8c150180546001600160a01b03199081168717909155601b548552601888529284208054918201815584529590922090940180549094169091179092558451909250612bc190859085908110612bb457634e487b7160e01b600052603260045260246000fd5b6020026020010151615be7565b601b8054600283015560038201805460ff19169055546040517fe4ee2dfabe57cee15e3f558890b20455f54c1fa0718e5276faad70a6500e6b8c90612c07908590616a48565b60405180910390a250508080612c1c90617d24565b915050612ad4565b506001601d6000828254612c389190617c57565b9091555050505050505050565b612c4e816119bb565b612c6a5760405162461bcd60e51b8152600401610d0790616fce565b6000612c7582611fcd565b600083815260186020908152604080832080548251818502810185019093528083529495509293909291830182828015612cd857602002820191906000526020600020905b81546001600160a01b03168152600190910190602001808311612cba575b50505050509050600081516001600160401b03811115612d0857634e487b7160e01b600052604160045260246000fd5b604051908082528060200260200182016040528015612d3b57816020015b6060815260200190600190039081612d265790505b50905060005b82518110156130ca576000838281518110612d6c57634e487b7160e01b600052603260045260246000fd5b6020908102919091018101516000888152600b835260408082206001600160a01b03841680845290855281832054600a86528284208c8552865282842054600c875283852092855291909552908220805493955060ff90911692612dcf90617ce9565b80601f0160208091040260200160405190810160405280929190818152602001828054612dfb90617ce9565b8015612e485780601f10612e1d57610100808354040283529160200191612e48565b820191906000526020600020905b815481529060010190602001808311612e2b57829003601f168201915b5050505050905080868681518110612e7057634e487b7160e01b600052603260045260246000fd5b6020026020010181905250612e8484615b5f565b6001600160a01b03841660009081526011602052604090208215613097576001600160a01b0385166000908152601160205260409020600301805460ff19166001908117909155891515148015612edb5750836001145b80612ef0575088158015612ef0575083600114155b1561303757602054600754604051630db6cc8560e11b81526001600160a01b0390921691631b6d990a91612f28918990600401617b04565b602060405180830381600087803b158015612f4257600080fd5b505af1158015612f56573d6000803e3d6000fd5b505050506040513d601f19601f82011682018060405250810190612f7a91906166dc565b612f965760405162461bcd60e51b8152600401610d0790617146565b602154600554604051633832942560e21b81526001600160a01b039092169163e0ca509491612fc9918990600401617aed565b602060405180830381600087803b158015612fe357600080fd5b505af1158015612ff7573d6000803e3d6000fd5b505050506040513d601f19601f8201168201806040525081019061301b91906166dc565b6130375760405162461bcd60e51b8152600401610d0790616ed7565b60168054600180820183556000929092527fd833147d7dc355ba459fc788f669e58cfaf9dc25ddcd0702e87d69c7b51242890180546001600160a01b0319166001600160a01b03881617905560068201805460ff191690911790556130b2565b60068101805460ff1990811690915560088201805490911690555b505050505080806130c290617d24565b915050612d41565b5060006130e060648451603261291a9190617c83565b905060008260008151811061310557634e487b7160e01b600052603260045260246000fd5b6020026020010151905060005b83518110156131d1576000805b85518110156131b05761318086848151811061314b57634e487b7160e01b600052603260045260246000fd5b602002602001015187838151811061317357634e487b7160e01b600052603260045260246000fd5b6020026020010151614106565b1561319e57613190600183617c57565b915084821061319e576131b0565b806131a881617d24565b91505061311f565b508381106131be57506131d1565b50806131c981617d24565b915050613112565b5084156133e9576020805460075460008981526012909352604092839020600101549251630db6cc8560e11b81526001600160a01b0392831693631b6d990a936132219392911690600401617b04565b602060405180830381600087803b15801561323b57600080fd5b505af115801561324f573d6000803e3d6000fd5b505050506040513d601f19601f8201168201806040525081019061327391906166dc565b61328f5760405162461bcd60e51b8152600401610d07906176c8565b60215460055460008881526012602052604090819020600101549051633832942560e21b81526001600160a01b039384169363e0ca5094936132d8939092911690600401617aed565b602060405180830381600087803b1580156132f257600080fd5b505af1158015613306573d6000803e3d6000fd5b505050506040513d601f19601f8201168201806040525081019061332a91906166dc565b6133465760405162461bcd60e51b8152600401610d079061756b565b601b546000908152601c60209081526040808320600a01805460ff19166001179055602354815163ca6e822d60e01b815291516001600160a01b039091169363ca6e822d93600480850194919392918390030190829087803b1580156133ab57600080fd5b505af11580156133bf573d6000803e3d6000fd5b505050506040513d601f19601f820116820180604052508101906133e391906166dc565b50613409565b601b546000908152601c60205260409020600a01805460ff191660021790555b601b80546000908152601c60209081526040808320600401805461ff001916610100179055925482529190208251613449926009909201918401906160a9565b50601b54613458906001615bc4565b601b819055506001601d60008282546134719190617c57565b909155505060008681526012602052604090819020600181015491516001600160a01b03909216917f43916c3ae75995d24cc89b466ed08e6dba74d325f7957f9b37b05f150e12918e916134c491616bb0565b60405180910390a2505050505050565b60006119b582610b2784611ecd565b6134eb615b91565b6001600160a01b03166134fc6138ad565b6001600160a01b0316146135225760405162461bcd60e51b8152600401610d0790617334565b61352c6000615d3f565b565b600061353982615866565b6135555760405162461bcd60e51b8152600401610d0790617495565b506000908152601c602052604090206006015490565b60075481565b4290565b6022546001600160a01b031681565b61358c615b91565b6001600160a01b031661359d6138ad565b6001600160a01b0316146135c35760405162461bcd60e51b8152600401610d0790617334565b602380546001600160a01b0319166001600160a01b0392909216919091179055565b6017546016546000916135f791617c57565b905090565b600061360782615866565b6136235760405162461bcd60e51b8152600401610d0790617495565b506001600160a01b03919091166000908152600960209081526040808320938352929052205460ff1690565b601c60205260009081526040902080546001820154600283015460038401546004850154600586015460068701546007880154600889015460098a018054999a98999798969760ff808816986101008904821698620100009004909116969594939290916136bc90617ce9565b80601f01602080910402602001604051908101604052809291908181526020018280546136e890617ce9565b80156137355780601f1061370a57610100808354040283529160200191613735565b820191906000526020600020905b81548152906001019060200180831161371857829003601f168201915b505050600a909301549192505060ff168d565b60008061375584876148f1565b8310159050600061376685876148f1565b84111580613772575085155b905081801561137e57509695505050505050565b60178181548110611d9657600080fd5b601f546001600160a01b031681565b601a5481565b601160205260009081526040902080546001820154600283015460038401546004850154600586015460068701546007880180546001600160a01b03988916999790981697959660ff958616969495939492909316929161380b90617ce9565b80601f016020809104026020016040519081016040528092919081815260200182805461383790617ce9565b80156138845780601f1061385957610100808354040283529160200191613884565b820191906000526020600020905b81548152906001019060200180831161386757829003601f168201915b505050506008830154600990930154919260ff169190508a565b6023546001600160a01b031681565b6000546001600160a01b031690565b601860205281600052604060002081815481106138d857600080fd5b6000918252602090912001546001600160a01b03169150829050565b60016000828152601c60205260409020600a015460ff16600381111561392a57634e487b7160e01b600052602160045260246000fd5b146139475760405162461bcd60e51b8152600401610d0790616c91565b336000908152600d60205260409081902090516306120d1f60e31b815273__$85afbab79b2b776d70bef879a32ed56424$__9163309068f89161398f91908590600401616a3a565b60206040518083038186803b1580156139a757600080fd5b505af41580156139bb573d6000803e3d6000fd5b505050506040513d601f19601f820116820180604052508101906139df91906166dc565b6139fb5760405162461bcd60e51b8152600401610d0790617193565b336000908152600d60205260409081902090516301039dfd60e11b815273__$85afbab79b2b776d70bef879a32ed56424$__916302073bfa91613a4391908590600401616a3a565b60006040518083038186803b158015613a5b57600080fd5b505af4158015613a6f573d6000803e3d6000fd5b50506040513392508391507f402507661c8c8cb90e0a796450b8bdd28b6c516f05279c0cd29e84c344e1699a90600090a350565b600f5490565b60136020528160005260406000208181548110613ac557600080fd5b90600052602060002001600091509150505481565b60005b8151811015613b2857613b16828281518110613b0957634e487b7160e01b600052603260045260246000fd5b60200260200101516138f4565b80613b2081617d24565b915050613add565b5050565b6000828260405160200161199c9291906169f3565b601f546040516304ada21f60e21b81526001600160a01b03909116906312b6887c90613b739084903390600401617aed565b602060405180830381600087803b158015613b8d57600080fd5b505af1158015613ba1573d6000803e3d6000fd5b505050506040513d601f19601f82011682018060405250810190613bc591906166dc565b613be15760405162461bcd60e51b8152600401610d0790616f71565b3360009081526014602052604081208054839290613c00908490617c57565b909155505060405133907ff7aaf024511d9982df8cd0d437c71c30106e6848cd1ba3d288d7a9c0e276aeda90613c37908490616a15565b60405180910390a250565b6000613c4d82615866565b613c695760405162461bcd60e51b8152600401610d0790617495565b6000828152601c6020526040902060050154611fc090614afc565b60105490565b613c926159cb565b613c9b83613c42565b613cb75760405162461bcd60e51b8152600401610d0790616ea0565b82613cc133615896565b14613cde5760405162461bcd60e51b8152600401610d07906172c6565b60015433600090815260146020526040902054811115613d205733600090815260146020526040812054613d13908390615b53565b9050613d1e81613b41565b505b33600090815260146020526040902054811115613d4f5760405162461bcd60e51b8152600401610d079061766b565b6000336000908152600d60205260408082209051631e0f232560e31b815273__$85afbab79b2b776d70bef879a32ed56424$__9163f079192891613d9891908690600401616a3a565b60206040518083038186803b158015613db057600080fd5b505af4158015613dc4573d6000803e3d6000fd5b505050506040513d601f19601f82011682018060405250810190613de89190616774565b905085811415613e8d57336000908152600d6020526040908190209051631e0f232560e31b815273__$85afbab79b2b776d70bef879a32ed56424$__9163f079192891613e3a91908a90600401616a3a565b60206040518083038186803b158015613e5257600080fd5b505af4158015613e66573d6000803e3d6000fd5b505050506040513d601f19601f82011682018060405250810190613e8a9190616774565b90505b613e9982823386613748565b613eb55760405162461bcd60e51b8152600401610d079061723b565b336000908152600d602052604090819020905163524cfe5360e11b815273__$85afbab79b2b776d70bef879a32ed56424$__9163a499fca691613f01919086908b908790600401617a02565b60006040518083038186803b158015613f1957600080fd5b505af4158015613f2d573d6000803e3d6000fd5b505050506000613f3d3388613b2c565b60408051808201825260098152686e756d546f6b656e7360b81b6020820152905163099b040f60e31b81529192509073__$0947e710b66d7779e1d561254425e1375a$__90634cd8207890613f9d90600e90869086908b90600401617957565b60006040518083038186803b158015613fb557600080fd5b505af4158015613fc9573d6000803e3d6000fd5b505060405163099b040f60e31b815273__$0947e710b66d7779e1d561254425e1375a$__9250634cd82078915061400990600e9086908c906004016179a5565b60006040518083038186803b15801561402157600080fd5b505af4158015614035573d6000803e3d6000fd5b5050506000898152600c6020908152604080832033845282529091208851614062935090918901906160a9565b5033600090815260116020526040902061407a613571565b60058201553360009081526009602090815260408083208c84529091528120805460ff19166001908117909155601d8054919290916140ba908490617c57565b909155505060405133908a907f42864d9683ff5b12c3b2cc65d705af5aab104b03bc700b802f79e5c971ef08a1906140f3908a90616a15565b60405180910390a3505050505050505050565b6000816040516020016141199190616a1e565b60405160208183030381529060405280519060200120836040516020016141409190616a1e565b604051602081830303815290604052805190602001201415614164575060016119b5565b5060006119b5565b600061417782615866565b6141935760405162461bcd60e51b8152600401610d0790617495565b506001600160a01b03919091166000908152600a60209081526040808320938352929052205460ff1690565b60008042416040516020016141d491906169d6565b6040516020818303038152906040528051906020012060001c6141f79190617c6f565b44614200611eaa565b6040516020016142109190616a15565b60408051601f1981840301815291905280516020909101206142329042617c57565b61423c9190617c57565b6142469190617c57565b6040516020016142569190616a15565b60408051601f19818403018152919052805160209091012091505090565b6019546001600160a01b031681565b6001600160a01b038082166000908152601160209081526040808320815161014081018352815486168152600182015490951692850192909252600282015490840152600381015460ff9081161515606085015260048201546080850152600582015460a0850152600682015416151560c0840152600781018054929384938493919260e084019161431490617ce9565b80601f016020809104026020016040519081016040528092919081815260200182805461434090617ce9565b801561438d5780601f106143625761010080835404028352916020019161438d565b820191906000526020600020905b81548152906001019060200180831161437057829003601f168201915b5050509183525050600882015460ff161515602082015260099091015460409091015260608101519091501580156143cf57506143cd81604001516119bb565b155b156143d957600191505b5092915050565b6060600082116143ef57600080fd5b60004160405160200161440291906169d6565b6040516020818303038152906040528051906020012060001c614423611eaa565b6040516020016144339190616a15565b60408051601f1981840301815291905280516020909101206144559042617c57565b61445f9190617c57565b60405160200161446f9190616a15565b6040516020818303038152906040528051906020012060001c90506000846001600160401b038111156144b257634e487b7160e01b600052604160045260246000fd5b6040519080825280602002602001820160405280156144db578160200160208202803683370190505b5090506000805b868210156145dc576000866144fb63017efeeb87617ca2565b8360405160200161450d929190616a3a565b6040516020818303038152906040528051906020012060001c6145309190617d3f565b90506000805b84811015614588578286828151811061455f57634e487b7160e01b600052603260045260246000fd5b602002602001015114156145765760019150614588565b8061458081617d24565b915050614536565b50806145c857818585815181106145af57634e487b7160e01b600052603260045260246000fd5b60209081029190910101526145c5846001617c57565b93505b6145d3836001617c57565b925050506144e2565b509095945050505050565b60006145f2836119bb565b61460e5760405162461bcd60e51b8152600401610d0790617715565b6001600160a01b0384166000908152600a6020908152604080832086845290915290205460ff166146515760405162461bcd60e51b8152600401610d07906171f0565b600061465c84611fcd565b61466757600061466a565b60015b60ff16905060008184604051602001614684929190616a3a565b60405160208183030381529060405280519060200120905060006146a88787614ab7565b90508082146146c95760405162461bcd60e51b8152600401610d0790617369565b61137e87876148f1565b60606000821180156146e55750818311155b80156146f2575060018310155b61470e5760405162461bcd60e51b8152600401610d0790616e57565b6000826001600160401b0381111561473657634e487b7160e01b600052604160045260246000fd5b60405190808252806020026020018201604052801561475f578160200160208202803683370190505b5090506000846001600160401b0381111561478a57634e487b7160e01b600052604160045260246000fd5b6040519080825280602002602001820160405280156147b3578160200160208202803683370190505b50905060006147c96147c484615d8f565b615de5565b905060005b868110156145dc578181815181106147f657634e487b7160e01b600052603260045260246000fd5b602002602001015183828151811061481e57634e487b7160e01b600052603260045260246000fd5b60209081029190910101528061483381617d24565b9150506147ce565b614843615b91565b6001600160a01b03166148546138ad565b6001600160a01b03161461487a5760405162461bcd60e51b8152600401610d0790617334565b602280546001600160a01b0319166001600160a01b0392909216919091179055565b60006148a782615866565b6148c35760405162461bcd60e51b8152600401610d0790617495565b506000908152601c602052604090206005015490565b60146020526000908152604090205481565b60015481565b600073__$0947e710b66d7779e1d561254425e1375a$__6369810158600e6149198686613b2c565b6040518363ffffffff1660e01b81526004016149369291906179d3565b60206040518083038186803b15801561494e57600080fd5b505af4158015614962573d6000803e3d6000fd5b505050506040513d601f19601f82011682018060405250810190611c909190616774565b8483146149a55760405162461bcd60e51b8152600401610d07906170ce565b8481146149c45760405162461bcd60e51b8152600401610d07906174f9565b60005b8581101561243c57614a4c8787838181106149f257634e487b7160e01b600052603260045260246000fd5b90506020020135868684818110614a1957634e487b7160e01b600052603260045260246000fd5b90506020020135858585818110614a4057634e487b7160e01b600052603260045260246000fd5b90506020020135610cda565b80614a5681617d24565b9150506149c7565b600a60209081526000928352604080842090915290825290205460ff1681565b601560205281600052604060002081815481106138d857600080fd5b600b60209081526000928352604080842090915290825290205481565b600073__$0947e710b66d7779e1d561254425e1375a$__6369810158600e614adf8686613b2c565b6040518363ffffffff1660e01b8152600401614936929190617987565b421190565b614b0961622c565b614b1282615866565b614b1b57600080fd5b6000828152601c602090815260409182902082516101e0810184528154815260018201549281019290925260028101549282019290925260038201546060820152600482015460ff808216151560808401526101008083048216151560a08501526201000090920416151560c0830152600583015460e08301526006830154908201526007820154610120820152600882015461014082015260098201805491929161016084019190614bcd90617ce9565b80601f0160208091040260200160405190810160405280929190818152602001828054614bf990617ce9565b8015614c465780601f10614c1b57610100808354040283529160200191614c46565b820191906000526020600020905b815481529060010190602001808311614c2957829003601f168201915b5050509183525050600a82015460209091019060ff166003811115614c7b57634e487b7160e01b600052602160045260246000fd5b6003811115614c9a57634e487b7160e01b600052602160045260246000fd5b8152602001600b8201805480602002602001604051908101604052809291908181526020016000905b82821015614d6f578382906000526020600020018054614ce290617ce9565b80601f0160208091040260200160405190810160405280929190818152602001828054614d0e90617ce9565b8015614d5b5780601f10614d3057610100808354040283529160200191614d5b565b820191906000526020600020905b815481529060010190602001808311614d3e57829003601f168201915b505050505081526020019060010190614cc3565b505050508152602001600c8201805480602002602001604051908101604052809291908181526020018280548015614dc657602002820191906000526020600020905b815481526020019060010190808311614db2575b5050505050815250509050919050565b614dde615b91565b6001600160a01b0316614def6138ad565b6001600160a01b031614614e155760405162461bcd60e51b8152600401610d0790617334565b602080546001600160a01b0319166001600160a01b0392909216919091179055565b614e3f615b91565b6001600160a01b0316614e506138ad565b6001600160a01b031614614e765760405162461bcd60e51b8152600401610d0790617334565b601f80546001600160a01b0319166001600160a01b0392909216919091179055565b606060008211614ea757600080fd5b6000826001600160401b03811115614ecf57634e487b7160e01b600052604160045260246000fd5b604051908082528060200260200182016040528015614ef8578160200160208202803683370190505b5090506000614f096147c483615d8f565b949350505050565b6060614f1c82615866565b614f2557600080fd5b6000828152601c602052604090206009018054614f4190617ce9565b80601f0160208091040260200160405190810160405280929190818152602001828054614f6d90617ce9565b80156124ba5780601f10614f8f576101008083540402835291602001916124ba565b820191906000526020600020905b815481529060010190602001808311614f9d5750939695505050505050565b60035481565b6001600160a01b031660009081526011602052604090206008015460ff1690565b6000615007614ff1336134d4565b3360009081526014602052604090205490615b53565b9050818110156150295760405162461bcd60e51b8152600401610d079061744e565b601f54604051630895993360e11b81526001600160a01b039091169063112b32669061505b9085903390600401617aed565b602060405180830381600087803b15801561507557600080fd5b505af1158015615089573d6000803e3d6000fd5b505050506040513d601f19601f820116820180604052508101906150ad91906166dc565b6150c95760405162461bcd60e51b8152600401610d079061775f565b33600090815260146020526040812080548492906150e8908490617ca2565b909155505060405133907ffaeb7dbb9992397d26ea1944efd40c80b40f702faf69b46c67ad10aba68ccb7990611adf908590616a15565b615127615b91565b6001600160a01b03166151386138ad565b6001600160a01b03161461515e5760405162461bcd60e51b8152600401610d0790617334565b600355565b606061516e82615866565b61518a5760405162461bcd60e51b8152600401610d0790617495565b6000828152601c6020908152604080832081516101e0810183528154815260018201549381019390935260028101549183019190915260038101546060830152600481015460ff808216151560808501526101008083048216151560a08601526201000090920416151560c0840152600582015460e0840152600682015490830152600781015461012083015260088101546101408301526009810180546101608401919061523890617ce9565b80601f016020809104026020016040519081016040528092919081815260200182805461526490617ce9565b80156152b15780601f10615286576101008083540402835291602001916152b1565b820191906000526020600020905b81548152906001019060200180831161529457829003601f168201915b5050509183525050600a82015460209091019060ff1660038111156152e657634e487b7160e01b600052602160045260246000fd5b600381111561530557634e487b7160e01b600052602160045260246000fd5b8152602001600b8201805480602002602001604051908101604052809291908181526020016000905b828210156153da57838290600052602060002001805461534d90617ce9565b80601f016020809104026020016040519081016040528092919081815260200182805461537990617ce9565b80156153c65780601f1061539b576101008083540402835291602001916153c6565b820191906000526020600020905b8154815290600101906020018083116153a957829003601f168201915b50505050508152602001906001019061532e565b505050508152602001600c820180548060200260200160405190810160405280929190818152602001828054801561543157602002820191906000526020600020905b81548152602001906001019080831161541d575b505050919092525050506040818101518151600580825260c0820190935292935091600091816020015b606081526020019060019003908161545b57905050905060005b8281101561197e57835160009061548d908390617c57565b6000818152601260205260408120805492935090916154ab90617ce9565b80601f01602080910402602001604051908101604052809291908181526020018280546154d790617ce9565b80156155245780601f106154f957610100808354040283529160200191615524565b820191906000526020600020905b81548152906001019060200180831161550757829003601f168201915b505050505090508084848151811061554c57634e487b7160e01b600052603260045260246000fd5b60200260200101819052505050808061556490617d24565b915050615475565b601b5481565b601d5481565b615580615b91565b6001600160a01b03166155916138ad565b6001600160a01b0316146155b75760405162461bcd60e51b8152600401610d0790617334565b6001600160a01b0381166155dd5760405162461bcd60e51b8152600401610d0790616e11565b6155e681615d3f565b50565b6001600160a01b03811660009081526013602090815260408083208054825181850281018501909352808352849383018282801561564657602002820191906000526020600020905b815481526020019060010190808311615632575b50505050509050806001825161565c9190617ca2565b8151811061567a57634e487b7160e01b600052603260045260246000fd5b6020026020010151915050919050565b601d5490565b6156986159cb565b3360009081526011602052604090206017546016546103e8916156ba91617c57565b106156d75760405162461bcd60e51b8152600401610d0790617629565b600681015460ff16156156fc5760405162461bcd60e51b8152600401610d0790616c5a565b6000615706613571565b600154336000908152601460205260409020549192509081111561574c573360009081526014602052604081205461573f908390615b53565b905061574a81613b41565b505b3360009081526014602052604090205481111561577b5760405162461bcd60e51b8152600401610d0790616ce2565b60168054600180820183556000929092527fd833147d7dc355ba459fc788f669e58cfaf9dc25ddcd0702e87d69c7b5124289018054336001600160a01b031991821681179092558554811682178655858301805490911690911790556005840183905560068401805460ff19169091179055600883015460ff1661580f5760088301805460ff191660011790554260098401555b6001601d60008282546158229190617c57565b909155505060405133907f439d77b7534ec3108fc6143bd4fbabde0b9f2bb54f7b0730d1f70dd2135b765f90615859908590616a15565b60405180910390a2505050565b601054101590565b3360009081526011602052604090206008015460ff1690565b601e546001600160a01b031681565b6001600160a01b038082166000908152601160209081526040808320815161014081018352815486168152600182015490951692850192909252600282015490840152600381015460ff9081161515606085015260048201546080850152600582015460a0850152600682015416151560c08401526007810180549293849390929160e084019161592690617ce9565b80601f016020809104026020016040519081016040528092919081815260200182805461595290617ce9565b801561599f5780601f106159745761010080835404028352916020019161599f565b820191906000526020600020905b81548152906001019060200180831161598257829003601f168201915b5050509183525050600882015460ff161515602082015260099091015460409182015201519392505050565b6019546001600160a01b03166159f35760405162461bcd60e51b8152600401610d07906174cc565b6019546040516000916001600160a01b031690615a14903390602401616a48565b60408051601f198184030181529181526020820180516001600160e01b0316631f5ac9c560e11b17905251615a499190616a1e565b6000604051808303816000865af19150503d8060008114615a86576040519150601f19603f3d011682016040523d82523d6000602084013e615a8b565b606091505b50506019546040519192506000916001600160a01b0390911690615ab3903390602401616a48565b60408051601f198184030181529181526020820180516001600160e01b03166358563d2160e01b17905251615ae89190616a1e565b6000604051808303816000865af19150503d8060008114615b25576040519150601f19603f3d011682016040523d82523d6000602084013e615b2a565b606091505b505090508180615b375750805b613b285760405162461bcd60e51b8152600401610d0790616d49565b6000611c908284617ca2565b6001600160a01b0381166000908152601160205260409020615b8082615f79565b600601805460ff1916600117905550565b3390565b6001600160a01b0381166000908152601160205260409020615bb682615be7565b600601805460ff1916905550565b6000611c908284617c57565b600081831015615be05781611c90565b5090919050565b60008060005b601654811015615c5b57836001600160a01b031660168281548110615c2257634e487b7160e01b600052603260045260246000fd5b6000918252602090912001546001600160a01b03161415615c495760019150809250615c5b565b80615c5381617d24565b915050615bed565b508015615d3a5760168054615c7290600190617ca2565b81548110615c9057634e487b7160e01b600052603260045260246000fd5b600091825260209091200154601680546001600160a01b039092169184908110615cca57634e487b7160e01b600052603260045260246000fd5b9060005260206000200160006101000a8154816001600160a01b0302191690836001600160a01b031602179055506016805480615d1757634e487b7160e01b600052603160045260246000fd5b600082815260209020810160001990810180546001600160a01b03191690550190555b505050565b600080546001600160a01b038381166001600160a01b0319831681178455604051919092169283917f8be0079c531659141344cd1fd0a4f28419497f9722a3daafe3b4186f6b6457e09190a35050565b805160609060005b81811015615ddd5780848281518110615dc057634e487b7160e01b600052603260045260246000fd5b602090810291909101015280615dd581617d24565b915050615d97565b509192915050565b60606000825111615df557600080fd5b81518060005b81811015615f7057600083615e0e6141bf565b878481518110615e2e57634e487b7160e01b600052603260045260246000fd5b6020026020010151604051602001615e47929190616a3a565b6040516020818303038152906040528051906020012060001c615e6a9190617d3f565b615e75906001617c57565b9050600086615e85600184617ca2565b81518110615ea357634e487b7160e01b600052603260045260246000fd5b6020026020010151905086600186615ebb9190617ca2565b81518110615ed957634e487b7160e01b600052603260045260246000fd5b602002602001015187600184615eef9190617ca2565b81518110615f0d57634e487b7160e01b600052603260045260246000fd5b60209081029190910101528087615f25600188617ca2565b81518110615f4357634e487b7160e01b600052603260045260246000fd5b6020908102919091010152615f59600186617ca2565b945050508080615f6890617d24565b915050615dfb565b50929392505050565b60008060005b601754811015615fed57836001600160a01b031660178281548110615fb457634e487b7160e01b600052603260045260246000fd5b6000918252602090912001546001600160a01b03161415615fdb5760019150809250615fed565b80615fe581617d24565b915050615f7f565b508015615d3a576017805461600490600190617ca2565b8154811061602257634e487b7160e01b600052603260045260246000fd5b600091825260209091200154601780546001600160a01b03909216918490811061605c57634e487b7160e01b600052603260045260246000fd5b9060005260206000200160006101000a8154816001600160a01b0302191690836001600160a01b031602179055506017805480615d1757634e487b7160e01b600052603160045260246000fd5b8280546160b590617ce9565b90600052602060002090601f0160209004810192826160d7576000855561611d565b82601f106160f057805160ff191683800117855561611d565b8280016001018555821561611d579182015b8281111561611d578251825591602001919060010190616102565b506161299291506162c7565b5090565b82805482825590600052602060002090810192821561617a579160200282015b8281111561617a578251805161616a9184916020909101906160a9565b509160200191906001019061614d565b506161299291506162dc565b82805482825590600052602060002090810192821561611d579160200282018281111561611d578251825591602001919060010190616102565b6040518061010001604052806060815260200160006001600160a01b0316815260200160008152602001606081526020016060815260200160608152602001606081526020016000600381111561622757634e487b7160e01b600052602160045260246000fd5b905290565b604051806101e00160405280600081526020016000815260200160008152602001600081526020016000151581526020016000151581526020016000151581526020016000815260200160008152602001600081526020016000815260200160608152602001600060038111156162b357634e487b7160e01b600052602160045260246000fd5b815260200160608152602001606081525090565b5b8082111561612957600081556001016162c8565b808211156161295760006162f082826162f9565b506001016162dc565b50805461630590617ce9565b6000825580601f1061631757506155e6565b601f0160209004906000526020600020908101906155e691906162c7565b80356001600160a01b038116811461104757600080fd5b60008083601f84011261635d578182fd5b5081356001600160401b03811115616373578182fd5b602083019150836020808302850101111561638d57600080fd5b9250929050565b600082601f8301126163a4578081fd5b813560206163b96163b483617c28565b617bff565b82815281810190858301855b858110156163ee576163dc898684358b0101616455565b845292840192908401906001016163c5565b5090979650505050505050565b600082601f83011261640b578081fd5b8135602061641b6163b483617c28565b8281528181019085830183850287018401881015616437578586fd5b855b858110156163ee57813584529284019290840190600101616439565b600082601f830112616465578081fd5b81356001600160401b0381111561647e5761647e617d7f565b616491601f8201601f1916602001617bff565b8181528460208386010111156164a5578283fd5b816020850160208301379081016020019190915292915050565b6000602082840312156164d0578081fd5b611c9082616335565b600080604083850312156164eb578081fd5b6164f483616335565b946020939093013593505050565b600080600060608486031215616516578081fd5b61651f84616335565b95602085013595506040909401359392505050565b600080600080600080600060c0888a03121561654e578283fd5b87356001600160401b0380821115616564578485fd5b6165708b838c01616394565b985061657e60208b01616335565b975060408a0135915080821115616593578485fd5b61659f8b838c0161634c565b909750955060608a01359150808211156165b7578485fd5b6165c38b838c01616394565b945060808a01359150808211156165d8578384fd5b6165e48b838c016163fb565b935060a08a01359150808211156165f9578283fd5b506166068a828b01616455565b91505092959891949750929550565b6000806000806000806060878903121561662d578182fd5b86356001600160401b0380821115616643578384fd5b61664f8a838b0161634c565b90985096506020890135915080821115616667578384fd5b6166738a838b0161634c565b9096509450604089013591508082111561668b578384fd5b5061669889828a0161634c565b979a9699509497509295939492505050565b6000602082840312156166bb578081fd5b81356001600160401b038111156166d0578182fd5b614f09848285016163fb565b6000602082840312156166ed578081fd5b81518015158114611c90578182fd5b6000806040838503121561670e578182fd5b82356001600160401b0380821115616724578384fd5b61673086838701616455565b93506020850135915080821115616745578283fd5b5061675285828601616455565b9150509250929050565b60006020828403121561676d578081fd5b5035919050565b600060208284031215611ec0578081fd5b60008060408385031215616797578182fd5b823591506167a760208401616335565b90509250929050565b6000806000606084860312156167c4578081fd5b833592506020840135915060408401356001600160401b038111156167e7578182fd5b6167f386828701616455565b9150509250925092565b6000806040838503121561680f578182fd5b50508035926020909101359150565b60008060008060808587031215616833578182fd5b843593506020850135925061684a60408601616335565b9396929550929360600135925050565b60008060006060848603121561686e578081fd5b505081359360208301359350604090920135919050565b6001600160a01b03169052565b6000815180845260208085018081965082840281019150828601855b858110156168d85782840389526168c684835161698d565b988501989350908401906001016168ae565b5091979650505050505050565b6000815180845260208085018081965082840281019150828601855b858110156168d857828403895261691984835161698d565b98850198935090840190600101616901565b6000815180845260208085019450808401835b8381101561695a5781518752958201959082019060010161693e565b509495945050505050565b15159052565b6004811061698957634e487b7160e01b600052602160045260246000fd5b9052565b600081518084526169a5816020860160208601617cb9565b601f01601f19169290920160200192915050565b600a8152690c6dedadad2e890c2e6d60b31b602082015260400190565b60609190911b6bffffffffffffffffffffffff1916815260140190565b60609290921b6bffffffffffffffffffffffff19168252601482015260340190565b90815260200190565b60008251616a30818460208701617cb9565b9190910192915050565b918252602082015260400190565b6001600160a01b0391909116815260200190565b6001600160a01b038b811682528a1660208201526040810189905287151560608201526080810187905260a0810186905284151560c082015261014060e08201819052600090616aae8382018761698d565b9415156101008401525050610120015298975050505050505050565b600060208252611c9060208301846168e5565b600060208252611c90602083018461692b565b901515815260200190565b600060208252611c90602083018461698d565b600060c08252616b2160c083018961698d565b6001600160a01b0388166020840152604083018790528281036060840152616b49818761698d565b90508281036080840152616b5d818661698d565b91505061137e60a083018461696b565b600060608252616b80606083018661698d565b8281036020840152616b92818661698d565b90508281036040840152616ba681856168e5565b9695505050505050565b6000602080835281845483600282049050600180831680616bd257607f831692505b858310811415616bf057634e487b7160e01b87526022600452602487fd5b616bfc83878a01616a15565b818015616c105760018114616c2157616c4b565b60ff19861682528782019650616c4b565b616c2a8b617c4b565b895b86811015616c4557815484820152908501908901616c2c565b83019750505b50949998505050505050505050565b6020808252601c908201527f576f726b657220697320616c7265616479207265676973746572656400000000604082015260600190565b60208082526031908201527f676976656e204461746142617463682073686f756c6420626520415050524f5660408201527011510b08185b99081a5d081a5cc81b9bdd607a1b606082015260800190565b60208082526041908201527f576f726b657220686173206e6f7420656e6f75676820285f6e756d546f6b656e60408201527f732920696e206869732053706f745374616b6564546f6b656e42616c616e63656060820152600160fd1b608082015260a00190565b60208082526025908201527f72656365697665722072656a6563746564205f7265747269657665534675656c6040820152640818d85b1b60da1b606082015260800190565b6020808252605c908201527f4e6f74207468652073616d6520766f7465207468616e2077686174207761732060408201527f636f6d6d697465642c20696d706f737369626c6520746f206d6174636820776960608201527f746820676976656e205f73616c742026205f766f74654f7074696f6e00000000608082015260a00190565b60208082526026908201527f4f776e61626c653a206e6577206f776e657220697320746865207a65726f206160408201526564647265737360d01b606082015260800190565b60208082526029908201527f6b206f72204e20617265206e6f74204f4b20647572696e672072616e646f6d2060408201526839b2b632b1ba34b7b760b91b606082015260800190565b6020808252601e908201527f636f6d6d697420706572696f64206e6565647320746f206265206f70656e0000604082015260600190565b6020808252602f908201527f636f756c64206e6f742072657761726420746f6b656e20696e2054726967676560408201526e3921b432b1b5a9b837ba161018973160891b606082015260800190565b6020808252602b908201527f576f726b6572206973206e6f7420617661696c61626c6520736f2063616e277460408201526a103ab73932b3b4b9ba32b960a91b606082015260800190565b6020808252603d908201527f436f756c64206e6f74207265717565737420656e6f75676820616c6c6f63617460408201527f6564207374616b652c2072657175657374566f74696e67526967687473000000606082015260800190565b6020808252601a908201527f5f446174614261746368496420686173206e6f7420656e646564000000000000604082015260600190565b6020808252602f908201527f5573657220686173206e6f7420636f6d6d69746564206265666f72652c20746860408201526e1d5cc818d85b89dd081c995d99585b608a1b606082015260800190565b6020808252602c908201527f4461746120426174636820436865636b696e6720636f6d6d69746565206d757360408201526b1d081a185d9948195b99195960a21b606082015260800190565b60208082526014908201527311185d18481b5d5cdd081a185d9948195b99195960621b604082015260600190565b60208082526052908201527f4572726f722072657665616c53706f74436865636b733a205f4461746142617460408201527f63684944732e6c656e67746820616e64205f766f74654f7074696f6e732e6c656060820152711b99dd1a081b5d5cdd08189948195c5d585b60721b608082015260a00190565b6020808252602d908201527f636f756c64206e6f74207265776172642052455020696e20547269676765724360408201526c6865636b53706f742c20312e6160981b606082015260800190565b60208082526039908201527f646c6c4d61703a20646f6573206e6f7420636f696e7461696e205f446174614260408201527f61746368496420666f7220746865206d73672073656e64657200000000000000606082015260800190565b6020808252602b908201527f75736572206d75737420686176652072657665616c656420696e20746869732060408201526a0ced2eccadc4084c2e8c6d60ab1b606082015260800190565b6020808252601490820152733737ba1030903b30b634b2103837b9b4ba34b7b760611b604082015260600190565b6020808252603b908201527f43616e277420616c6c6f6361746520776f726b2c207468652063757272656e7460408201527f20626174636820697320616c726561647920616c6c6f63617465640000000000606082015260800190565b60208082526048908201527f55736572206e6565647320746f2068617665206265656e20616c6c6f6361746560408201527f64207468652063757272656e74206461746120626174636820746f20636f6d6d6060820152671a5d081bdb881a5d60c21b608082015260a00190565b6020808252818101527f4f776e61626c653a2063616c6c6572206973206e6f7420746865206f776e6572604082015260600190565b60208082526029908201527f6765744e756d50617373696e67546f6b656e733a20686173686573206d75737460408201526808189948195c5d585b60ba1b606082015260800190565b60208082526036908201527f43616e277420616c6c6f6361746520776f726b2c207468652063757272656e74604082015275206261746368206973206e6f7420636f6d706c65746560501b606082015260800190565b60208082526026908201527f52657665616c20706572696f64206e6f74206f70656e20666f7220746869732060408201526511185d18525160d21b606082015260800190565b60208082526027908201527f617661696c61626c65546f6b656e732073686f756c64206265203e3d205f6e756040820152666d546f6b656e7360c81b606082015260800190565b60208082526017908201527f5f4461746142617463684964206d757374206578697374000000000000000000604082015260600190565b6020808252601390820152720c081059191c995cdcc8139bdd0815985b1a59606a1b604082015260600190565b6020808252604c908201527f4572726f722072657665616c53706f74436865636b733a205f4461746142617460408201527f63684944732e6c656e67746820616e64205f73616c74732e6c656e677468206d60608201526b1d5cdd08189948195c5d585b60a21b608082015260a00190565b6020808252602f908201527f636f756c64206e6f742072657761726420746f6b656e20696e2054726967676560408201526e3921b432b1b5a9b837ba161019173160891b606082015260800190565b60208082526049908201527f4572726f72207768656e20636f6d6d697453706f74436865636b733a205f446160408201527f746142617463684944732e6c656e677468203d3d205f736563726574486173686060820152680cae65cd8cadccee8d60bb1b608082015260a00190565b60208082526022908201527f4d6178696d756d207265676973746572656420776f726b65727320616c726561604082015261647960f01b606082015260800190565b60208082526037908201527f75736572206d757374206861766520656e6f75676820766f74696e672072696760408201527f68747320616b6120616c6c6f6361746564207374616b65000000000000000000606082015260800190565b6020808252602d908201527f636f756c64206e6f74207265776172642052455020696e20547269676765724360408201526c6865636b53706f742c20322e6160981b606082015260800190565b6020808252602a908201527f5f446174614261746368496420636865636b696e6720766f7465206d757374206040820152691a185d9948195b99195960b21b606082015260800190565b6020808252603b908201527f436f756c64206e6f74207769746864726177566f74696e67526967687473207460408201527f68726f7567682050726f78795374616b654465616c6c6f636174650000000000606082015260800190565b6020808252600f908201526e11185d18481b5d5cdd08195e1a5cdd608a1b604082015260600190565b60208082526043908201527f6c61737420626174636820746f20636865636b206d75737420626520636f6d7060408201527f6c65746520746f2070726f6365656420696e20547269676765724e65787445706060820152620dec6d60eb1b608082015260a00190565b60006020825282516020830152602083015160408301526040830151606083015260608301516080830152608083015161788b60a0840182616965565b5060a083015161789e60c0840182616965565b5060c08301516178b160e0840182616965565b5060e0830151610100838101919091528301516101208084019190915283015161014080840191909152830151610160808401919091528301516101e061018080850182905261790561020086018461698d565b908601519092506101a061791b8682018361696b565b80870151915050601f196101c081878603018188015261793b8584616892565b908801518782039092018488015293509050616ba6838261692b565b600085825284602083015260806040830152617976608083018561698d565b905082606083015295945050505050565b600083825282602083015260606040830152614f09606083016169b9565b6000848252836020830152608060408301526179c3608083016169b9565b9050826060830152949350505050565b9182526020820152606060408201819052600990820152686e756d546f6b656e7360b81b608082015260a00190565b93845260208401929092526040830152606082015260800190565b6000602082528251610100806020850152617a3c61012085018361698d565b91506020850151617a506040860182616885565b50604085015160608501526060850151601f1980868503016080870152617a77848361698d565b935060808701519150808685030160a0870152617a948483616892565b935060a08701519150808685030160c0870152617ab1848361692b565b935060c08701519150808685030160e087015250617acf838261698d565b92505060e0850151617ae38286018261696b565b5090949350505050565b9182526001600160a01b0316602082015260400190565b9182526001600160a01b031660208201526000604082015260600190565b9283526020830191909152604082015260600190565b60006101a08f83528e60208401528d60408401528c60608401528b151560808401528a151560a084015289151560c08401528860e084015287610100840152866101208401528561014084015280610160840152617b988184018661698d565b915050617ba961018083018461696b565b9e9d5050505050505050505050505050565b6000808335601e19843603018112617bd1578283fd5b8301803591506001600160401b03821115617bea578283fd5b60200191503681900382131561638d57600080fd5b6040518181016001600160401b0381118282101715617c2057617c20617d7f565b604052919050565b60006001600160401b03821115617c4157617c41617d7f565b5060209081020190565b60009081526020902090565b60008219821115617c6a57617c6a617d53565b500190565b600082617c7e57617c7e617d69565b500490565b6000816000190483118215151615617c9d57617c9d617d53565b500290565b600082821015617cb457617cb4617d53565b500390565b60005b83811015617cd4578181015183820152602001617cbc565b83811115617ce3576000848401525b50505050565b600281046001821680617cfd57607f821691505b60208210811415617d1e57634e487b7160e01b600052602260045260246000fd5b50919050565b6000600019821415617d3857617d38617d53565b5060010190565b600082617d4e57617d4e617d69565b500690565b634e487b7160e01b600052601160045260246000fd5b634e487b7160e01b600052601260045260246000fd5b634e487b7160e01b600052604160045260246000fdfea26469706673582212200d522d1cc17f4b29281f1eb88b9601699b3848bd7d4bfef9b68a9e58941c829064736f6c63430008000033",
  "linkReferences": {
    "contracts/worksystems/DataSpotting.sol": {
      "AttributeStore": [
        {
          "length": 20,
          "start": 16625
        },
        {
          "length": 20,
          "start": 16733
        },
        {
          "length": 20,
          "start": 19064
        },
        {
          "length": 20,
          "start": 19518
        }
      ],
      "DLL": [
        {
          "length": 20,
          "start": 3975
        },
        {
          "length": 20,
          "start": 7395
        },
        {
          "length": 20,
          "start": 7567
        },
        {
          "length": 20,
          "start": 8311
        },
        {
          "length": 20,
          "start": 15081
        },
        {
          "length": 20,
          "start": 15261
        },
        {
          "length": 20,
          "start": 16114
        },
        {
          "length": 20,
          "start": 16276
        },
        {
          "length": 20,
          "start": 16471
        }
      ]
    }
  },
  "deployedLinkReferences": {
    "contracts/worksystems/DataSpotting.sol": {
      "AttributeStore": [
        {
          "length": 20,
          "start": 16238
        },
        {
          "length": 20,
          "start": 16346
        },
        {
          "length": 20,
          "start": 18677
        },
        {
          "length": 20,
          "start": 19131
        }
      ],
      "DLL": [
        {
          "length": 20,
          "start": 3588
        },
        {
          "length": 20,
          "start": 7008
        },
        {
          "length": 20,
          "start": 7180
        },
        {
          "length": 20,
          "start": 7924
        },
        {
          "length": 20,
          "start": 14694
        },
        {
          "length": 20,
          "start": 14874
        },
        {
          "length": 20,
          "start": 15727
        },
        {
          "length": 20,
          "start": 15889
        },
        {
          "length": 20,
          "start": 16084
        }
      ]
    }
  }
}