{
  "_format": "hh-sol-artifact-1",
  "contractName": "StakingManager",
  "sourceName": "contracts/worksystems/StakingManager.sol",
  "abi": [
    {
      "inputs": [
        {
          "internalType": "address",
          "name": "EXD_token",
          "type": "address"
        }
      ],
      "stateMutability": "nonpayable",
      "type": "constructor"
    },
    {
      "anonymous": false,
      "inputs": [
        {
          "indexed": true,
          "internalType": "address",
          "name": "previousOwner",
          "type": "address"
        },
        {
          "indexed": true,
          "internalType": "address",
          "name": "newOwner",
          "type": "address"
        }
      ],
      "name": "OwnershipTransferred",
      "type": "event"
    },
    {
      "anonymous": false,
      "inputs": [
        {
          "indexed": true,
          "internalType": "address",
          "name": "account",
          "type": "address"
        },
        {
          "indexed": false,
          "internalType": "bool",
          "name": "isWhitelisted",
          "type": "bool"
        }
      ],
      "name": "StakeUnWhitelisted",
      "type": "event"
    },
    {
      "anonymous": false,
      "inputs": [
        {
          "indexed": true,
          "internalType": "address",
          "name": "account",
          "type": "address"
        },
        {
          "indexed": false,
          "internalType": "bool",
          "name": "isWhitelisted",
          "type": "bool"
        }
      ],
      "name": "StakeWhitelisted",
      "type": "event"
    },
    {
      "inputs": [
        {
          "internalType": "address",
          "name": "_stakeholder",
          "type": "address"
        }
      ],
      "name": "AllocatedStakedAmountOf",
      "outputs": [
        {
          "internalType": "uint256",
          "name": "",
          "type": "uint256"
        }
      ],
      "stateMutability": "view",
      "type": "function"
    },
    {
      "inputs": [
        {
          "internalType": "address",
          "name": "_stakeholder",
          "type": "address"
        }
      ],
      "name": "AvailableStakedAmountOf",
      "outputs": [
        {
          "internalType": "uint256",
          "name": "",
          "type": "uint256"
        }
      ],
      "stateMutability": "view",
      "type": "function"
    },
    {
      "inputs": [
        {
          "internalType": "uint256",
          "name": "_StakeAllocation",
          "type": "uint256"
        },
        {
          "internalType": "address",
          "name": "_stakeholder",
          "type": "address"
        }
      ],
      "name": "ProxyStakeAllocate",
      "outputs": [
        {
          "internalType": "bool",
          "name": "",
          "type": "bool"
        }
      ],
      "stateMutability": "nonpayable",
      "type": "function"
    },
    {
      "inputs": [
        {
          "internalType": "uint256",
          "name": "_StakeToDeallocate",
          "type": "uint256"
        },
        {
          "internalType": "address",
          "name": "_stakeholder",
          "type": "address"
        }
      ],
      "name": "ProxyStakeDeallocate",
      "outputs": [
        {
          "internalType": "bool",
          "name": "",
          "type": "bool"
        }
      ],
      "stateMutability": "nonpayable",
      "type": "function"
    },
    {
      "inputs": [
        {
          "internalType": "uint256",
          "name": "_stake",
          "type": "uint256"
        }
      ],
      "name": "Stake",
      "outputs": [],
      "stateMutability": "nonpayable",
      "type": "function"
    },
    {
      "inputs": [],
      "name": "TotalAllocatedStakes",
      "outputs": [
        {
          "internalType": "uint256",
          "name": "",
          "type": "uint256"
        }
      ],
      "stateMutability": "view",
      "type": "function"
    },
    {
      "inputs": [],
      "name": "TotalAvailableStakes",
      "outputs": [
        {
          "internalType": "uint256",
          "name": "",
          "type": "uint256"
        }
      ],
      "stateMutability": "view",
      "type": "function"
    },
    {
      "inputs": [],
      "name": "TotalStakes",
      "outputs": [
        {
          "internalType": "uint256",
          "name": "",
          "type": "uint256"
        }
      ],
      "stateMutability": "view",
      "type": "function"
    },
    {
      "inputs": [
        {
          "internalType": "address",
          "name": "_address",
          "type": "address"
        }
      ],
      "name": "addAddress",
      "outputs": [],
      "stateMutability": "nonpayable",
      "type": "function"
    },
    {
      "inputs": [
        {
          "internalType": "address",
          "name": "",
          "type": "address"
        }
      ],
      "name": "balances",
      "outputs": [
        {
          "internalType": "uint256",
          "name": "free_balance",
          "type": "uint256"
        },
        {
          "internalType": "uint256",
          "name": "staked_balance",
          "type": "uint256"
        },
        {
          "internalType": "uint256",
          "name": "allocated_balance",
          "type": "uint256"
        }
      ],
      "stateMutability": "view",
      "type": "function"
    },
    {
      "inputs": [],
      "name": "closeAllStakes",
      "outputs": [],
      "stateMutability": "nonpayable",
      "type": "function"
    },
    {
      "inputs": [
        {
          "internalType": "uint256",
          "name": "tokens",
          "type": "uint256"
        }
      ],
      "name": "deposit",
      "outputs": [],
      "stateMutability": "nonpayable",
      "type": "function"
    },
    {
      "inputs": [
        {
          "internalType": "address",
          "name": "_address",
          "type": "address"
        }
      ],
      "name": "isStakeWhitelisted",
      "outputs": [
        {
          "internalType": "bool",
          "name": "",
          "type": "bool"
        }
      ],
      "stateMutability": "view",
      "type": "function"
    },
    {
      "inputs": [
        {
          "internalType": "address",
          "name": "_address",
          "type": "address"
        }
      ],
      "name": "isStakeholder",
      "outputs": [
        {
          "internalType": "bool",
          "name": "",
          "type": "bool"
        }
      ],
      "stateMutability": "view",
      "type": "function"
    },
    {
      "inputs": [
        {
          "internalType": "address",
          "name": "_address",
          "type": "address"
        }
      ],
      "name": "isStakeholderIndex",
      "outputs": [
        {
          "internalType": "bool",
          "name": "",
          "type": "bool"
        },
        {
          "internalType": "uint256",
          "name": "",
          "type": "uint256"
        }
      ],
      "stateMutability": "view",
      "type": "function"
    },
    {
      "inputs": [],
      "name": "owner",
      "outputs": [
        {
          "internalType": "address",
          "name": "",
          "type": "address"
        }
      ],
      "stateMutability": "view",
      "type": "function"
    },
    {
      "inputs": [
        {
          "internalType": "address",
          "name": "_address",
          "type": "address"
        }
      ],
      "name": "removeAddress",
      "outputs": [],
      "stateMutability": "nonpayable",
      "type": "function"
    },
    {
      "inputs": [],
      "name": "renounceOwnership",
      "outputs": [],
      "stateMutability": "nonpayable",
      "type": "function"
    },
    {
      "inputs": [],
      "name": "token",
      "outputs": [
        {
          "internalType": "contract IERC20",
          "name": "",
          "type": "address"
        }
      ],
      "stateMutability": "view",
      "type": "function"
    },
    {
      "inputs": [
        {
          "internalType": "address",
          "name": "newOwner",
          "type": "address"
        }
      ],
      "name": "transferOwnership",
      "outputs": [],
      "stateMutability": "nonpayable",
      "type": "function"
    },
    {
      "inputs": [
        {
          "internalType": "uint256",
          "name": "_numTokens",
          "type": "uint256"
        }
      ],
      "name": "withdraw",
      "outputs": [],
      "stateMutability": "nonpayable",
      "type": "function"
    },
    {
      "inputs": [],
      "name": "withdrawAll",
      "outputs": [],
      "stateMutability": "nonpayable",
      "type": "function"
    }
  ],
  "bytecode": "0x608060405234801561001057600080fd5b5060405161104638038061104683398101604081905261002f916100ad565b6100383361005d565b600180546001600160a01b0319166001600160a01b03929092169190911790556100dd565b600080546001600160a01b038381166001600160a01b0319831681178455604051919092169283917f8be0079c531659141344cd1fd0a4f28419497f9722a3daafe3b4186f6b6457e09190a35050565b6000602082840312156100bf57600080fd5b81516001600160a01b03811681146100d657600080fd5b9392505050565b610f5a806100ec6000396000f3fe608060405234801561001057600080fd5b50600436106101425760003560e01c8063853828b6116100b8578063cbdce4e01161007c578063cbdce4e0146102ba578063e67719bd146102e6578063ef037b9014610312578063f20e8b1214610325578063f2fde38b14610351578063fc0c546a1461036457600080fd5b8063853828b6146102485780638aed0feb146102505780638da5cb5b14610258578063b6b55f251461027d578063bd0bb4f61461029057600080fd5b806327e235e31161010a57806327e235e3146101b55780632e1a7d4d146101ff57806338eada1c146102125780634ba79dfe146102255780636a40cbb614610238578063715018a61461024057600080fd5b8063112b32661461014757806312b6887c1461016f57806314bee5a514610182578063227a473b1461019857806323cc9f37146101ad575b600080fd5b61015a610155366004610df9565b610377565b60405190151581526020015b60405180910390f35b61015a61017d366004610df9565b61044a565b61018a610519565b604051908152602001610166565b6101ab6101a6366004610e25565b610590565b005b61018a61061c565b6101e46101c3366004610e3e565b60036020526000908152604090208054600182015460029092015490919083565b60408051938452602084019290925290820152606001610166565b6101ab61020d366004610e25565b61068d565b6101ab610220366004610e3e565b61075d565b6101ab610233366004610e3e565b610819565b6101ab6108b7565b6101ab6108f7565b6101ab61092d565b61018a6109f6565b6000546001600160a01b03165b6040516001600160a01b039091168152602001610166565b6101ab61028b366004610e25565b610a64565b6102a361029e366004610e3e565b610ba4565b604080519215158352602083019190915201610166565b61018a6102c8366004610e3e565b6001600160a01b031660009081526003602052604090206001015490565b61015a6102f4366004610e3e565b6001600160a01b031660009081526004602052604090205460ff1690565b61015a610320366004610e3e565b610c0f565b61018a610333366004610e3e565b6001600160a01b031660009081526003602052604090206002015490565b6101ab61035f366004610e3e565b610c73565b600154610265906001600160a01b031681565b3360009081526004602052604081205460ff1661039357600080fd5b61039c82610c0f565b6103a557600080fd5b6001600160a01b0382166000908152600360205260409020600201548311156103cd57600080fd5b6001600160a01b0382166000908152600360205260409020600201546103f39084610d0b565b6001600160a01b03831660009081526003602052604090206002810191909155600101546104219084610d1e565b6001600160a01b0383166000908152600360205260409020600190810191909155905092915050565b3360009081526004602052604081205460ff1661046657600080fd5b61046f82610c0f565b61047857600080fd5b6001600160a01b0382166000908152600360205260409020600101548311156104a057600080fd5b6001600160a01b0382166000908152600360205260409020600101546104c69084610d0b565b6001600160a01b03831660009081526003602052604090206001810191909155600201546104f49084610d1e565b6001600160a01b03831660009081526003602052604090206002015550600192915050565b600080805b60025481101561058a5760006002828154811061053d5761053d610e59565b60009182526020808320909101546001600160a01b031680835260039091526040909120600201549091506105728482610d1e565b935050506001816105839190610e85565b905061051e565b50919050565b336000908152600360205260409020548111156105ac57600080fd5b336000908152600360205260409020600101546105cc576105cc33610d2a565b336000908152600360205260409020546105e69082610d0b565b336000908152600360205260409020908155600101546106069082610d1e565b3360009081526003602052604090206001015550565b600080805b60025481101561058a5760006002828154811061064057610640610e59565b60009182526020808320909101546001600160a01b031680835260039091526040909120600101549091506106758482610d1e565b935050506001816106869190610e85565b9050610621565b336000908152600360205260409020548111156106a957600080fd5b60015460405163a9059cbb60e01b8152336004820152602481018390526001600160a01b039091169063a9059cbb90604401602060405180830381600087803b1580156106f557600080fd5b505af1158015610709573d6000803e3d6000fd5b505050506040513d601f19601f8201168201806040525081019061072d9190610e9d565b61073657600080fd5b3360009081526003602052604081208054839290610755908490610ebf565b909155505050565b6000546001600160a01b031633146107905760405162461bcd60e51b815260040161078790610ed6565b60405180910390fd5b6001600160a01b03811660009081526004602052604090205460ff161515600114156107bb57600080fd5b6001600160a01b038116600081815260046020908152604091829020805460ff1916600190811790915591519182527f34e57d3e15d2174a31aed19b5a635aad3c7fd6d6ff6b19d43f56819654e990fd91015b60405180910390a250565b6000546001600160a01b031633146108435760405162461bcd60e51b815260040161078790610ed6565b6001600160a01b03811660009081526004602052604090205460ff1661086857600080fd5b6001600160a01b0381166000818152600460209081526040808320805460ff19169055519182527fc87598b69899c8b872e8b5e416808d7332fe62ed4f035f7e72ae6f646e12f73f910161080e565b336000908152600360205260409020600181015490546108d79082610d1e565b336000908152600360205260409020908155600101546106069082610d0b565b6000546001600160a01b031633146109215760405162461bcd60e51b815260040161078790610ed6565b61092b6000610d8d565b565b3360009081526003602052604090205461094657600080fd5b600154336000818152600360205260409081902054905163a9059cbb60e01b8152600481019290925260248201526001600160a01b039091169063a9059cbb90604401602060405180830381600087803b1580156109a357600080fd5b505af11580156109b7573d6000803e3d6000fd5b505050506040513d601f19601f820116820180604052508101906109db9190610e9d565b6109e457600080fd5b33600090815260036020526040812055565b600080805b60025481101561058a57600060028281548110610a1a57610a1a610e59565b60009182526020808320909101546001600160a01b03168083526003909152604090912054909150610a4c8482610d1e565b93505050600181610a5d9190610e85565b90506109fb565b6001546040516370a0823160e01b815233600482015282916001600160a01b0316906370a082319060240160206040518083038186803b158015610aa757600080fd5b505afa158015610abb573d6000803e3d6000fd5b505050506040513d601f19601f82011682018060405250810190610adf9190610f0b565b1015610aea57600080fd5b3360009081526003602052604081208054839290610b09908490610e85565b90915550506001546040516323b872dd60e01b8152336004820152306024820152604481018390526001600160a01b03909116906323b872dd90606401602060405180830381600087803b158015610b6057600080fd5b505af1158015610b74573d6000803e3d6000fd5b505050506040513d601f19601f82011682018060405250810190610b989190610e9d565b610ba157600080fd5b50565b60008060005b600254811015610c035760028181548110610bc757610bc7610e59565b6000918252602090912001546001600160a01b0385811691161415610bf157600194909350915050565b610bfc600182610e85565b9050610baa565b50600093849350915050565b6000805b600254811015610c6a5760028181548110610c3057610c30610e59565b6000918252602090912001546001600160a01b0384811691161415610c585750600192915050565b610c63600182610e85565b9050610c13565b50600092915050565b6000546001600160a01b03163314610c9d5760405162461bcd60e51b815260040161078790610ed6565b6001600160a01b038116610d025760405162461bcd60e51b815260206004820152602660248201527f4f776e61626c653a206e6577206f776e657220697320746865207a65726f206160448201526564647265737360d01b6064820152608401610787565b610ba181610d8d565b6000610d178284610ebf565b9392505050565b6000610d178284610e85565b6000610d3582610ba4565b50905080610d8957600280546001810182556000919091527f405787fa12a823e0f2b7631cc41b3ba8828b3321ca811111fa75cd3aa3bb5ace0180546001600160a01b0319166001600160a01b0384161790555b5050565b600080546001600160a01b038381166001600160a01b0319831681178455604051919092169283917f8be0079c531659141344cd1fd0a4f28419497f9722a3daafe3b4186f6b6457e09190a35050565b80356001600160a01b0381168114610df457600080fd5b919050565b60008060408385031215610e0c57600080fd5b82359150610e1c60208401610ddd565b90509250929050565b600060208284031215610e3757600080fd5b5035919050565b600060208284031215610e5057600080fd5b610d1782610ddd565b634e487b7160e01b600052603260045260246000fd5b634e487b7160e01b600052601160045260246000fd5b60008219821115610e9857610e98610e6f565b500190565b600060208284031215610eaf57600080fd5b81518015158114610d1757600080fd5b600082821015610ed157610ed1610e6f565b500390565b6020808252818101527f4f776e61626c653a2063616c6c6572206973206e6f7420746865206f776e6572604082015260600190565b600060208284031215610f1d57600080fd5b505191905056fea26469706673582212200e00021fa4e1abe1ba08b1b6e7b879dc73803f502a5c5b8ca742b3262df8236f64736f6c63430008080033",
  "linkReferences": {},
  "deployedLinkReferences": {}
}