{
  "_format": "hh-sol-artifact-1",
  "contractName": "RewardsManager",
  "sourceName": "contracts/worksystems/RewardsManager.sol",
  "abi": [
    {
      "inputs": [
        {
          "internalType": "address",
          "name": "EXD_token",
          "type": "address"
        }
      ],
      "stateMutability": "nonpayable",
      "type": "constructor"
    },
    {
      "anonymous": false,
      "inputs": [
        {
          "indexed": true,
          "internalType": "address",
          "name": "previousOwner",
          "type": "address"
        },
        {
          "indexed": true,
          "internalType": "address",
          "name": "newOwner",
          "type": "address"
        }
      ],
      "name": "OwnershipTransferred",
      "type": "event"
    },
    {
      "anonymous": false,
      "inputs": [
        {
          "indexed": true,
          "internalType": "address",
          "name": "account",
          "type": "address"
        },
        {
          "indexed": false,
          "internalType": "bool",
          "name": "isWhitelisted",
          "type": "bool"
        }
      ],
      "name": "RewardsUnWhitelisted",
      "type": "event"
    },
    {
      "anonymous": false,
      "inputs": [
        {
          "indexed": true,
          "internalType": "address",
          "name": "account",
          "type": "address"
        },
        {
          "indexed": false,
          "internalType": "bool",
          "name": "isWhitelisted",
          "type": "bool"
        }
      ],
      "name": "RewardsWhitelisted",
      "type": "event"
    },
    {
      "anonymous": false,
      "inputs": [
        {
          "indexed": false,
          "internalType": "bytes32",
          "name": "name",
          "type": "bytes32"
        },
        {
          "indexed": false,
          "internalType": "uint256",
          "name": "timestamp",
          "type": "uint256"
        }
      ],
      "name": "UserRegistered",
      "type": "event"
    },
    {
      "anonymous": false,
      "inputs": [
        {
          "indexed": false,
          "internalType": "bytes32",
          "name": "name",
          "type": "bytes32"
        }
      ],
      "name": "UserTransferred",
      "type": "event"
    },
    {
      "inputs": [],
      "name": "AddressManager",
      "outputs": [
        {
          "internalType": "contract IAddressManager",
          "name": "",
          "type": "address"
        }
      ],
      "stateMutability": "view",
      "type": "function"
    },
    {
      "inputs": [],
      "name": "ManagerBalance",
      "outputs": [
        {
          "internalType": "uint256",
          "name": "",
          "type": "uint256"
        }
      ],
      "stateMutability": "view",
      "type": "function"
    },
    {
      "inputs": [
        {
          "internalType": "uint256",
          "name": "rep",
          "type": "uint256"
        },
        {
          "internalType": "address",
          "name": "_user",
          "type": "address"
        }
      ],
      "name": "OwnerAddRewards",
      "outputs": [],
      "stateMutability": "nonpayable",
      "type": "function"
    },
    {
      "inputs": [
        {
          "internalType": "uint256",
          "name": "rep",
          "type": "uint256"
        },
        {
          "internalType": "address",
          "name": "_user",
          "type": "address"
        }
      ],
      "name": "OwnerRemoveRewards",
      "outputs": [],
      "stateMutability": "nonpayable",
      "type": "function"
    },
    {
      "inputs": [
        {
          "internalType": "address",
          "name": "_user",
          "type": "address"
        }
      ],
      "name": "OwnerResetRewards",
      "outputs": [],
      "stateMutability": "nonpayable",
      "type": "function"
    },
    {
      "inputs": [
        {
          "internalType": "uint256",
          "name": "_numTokens",
          "type": "uint256"
        }
      ],
      "name": "OwnerWithdraw",
      "outputs": [],
      "stateMutability": "nonpayable",
      "type": "function"
    },
    {
      "inputs": [],
      "name": "OwnerWithdrawAllRewards",
      "outputs": [],
      "stateMutability": "nonpayable",
      "type": "function"
    },
    {
      "inputs": [
        {
          "internalType": "uint256",
          "name": "_RewardsAllocation",
          "type": "uint256"
        },
        {
          "internalType": "address",
          "name": "_user",
          "type": "address"
        }
      ],
      "name": "ProxyAddReward",
      "outputs": [
        {
          "internalType": "bool",
          "name": "",
          "type": "bool"
        }
      ],
      "stateMutability": "nonpayable",
      "type": "function"
    },
    {
      "inputs": [
        {
          "internalType": "address",
          "name": "_address",
          "type": "address"
        }
      ],
      "name": "RewardsBalanceOf",
      "outputs": [
        {
          "internalType": "uint256",
          "name": "",
          "type": "uint256"
        }
      ],
      "stateMutability": "view",
      "type": "function"
    },
    {
      "inputs": [],
      "name": "WithdrawAllRewards",
      "outputs": [],
      "stateMutability": "nonpayable",
      "type": "function"
    },
    {
      "inputs": [
        {
          "internalType": "uint256",
          "name": "_numTokens",
          "type": "uint256"
        }
      ],
      "name": "WithdrawRewards",
      "outputs": [],
      "stateMutability": "nonpayable",
      "type": "function"
    },
    {
      "inputs": [
        {
          "internalType": "uint256",
          "name": "_numTokens",
          "type": "uint256"
        },
        {
          "internalType": "address",
          "name": "_worker",
          "type": "address"
        }
      ],
      "name": "WithdrawSubworker",
      "outputs": [],
      "stateMutability": "nonpayable",
      "type": "function"
    },
    {
      "inputs": [
        {
          "internalType": "address",
          "name": "_address",
          "type": "address"
        }
      ],
      "name": "addAddress",
      "outputs": [],
      "stateMutability": "nonpayable",
      "type": "function"
    },
    {
      "inputs": [
        {
          "internalType": "uint256",
          "name": "_numTokens",
          "type": "uint256"
        }
      ],
      "name": "deposit",
      "outputs": [],
      "stateMutability": "nonpayable",
      "type": "function"
    },
    {
      "inputs": [
        {
          "internalType": "address",
          "name": "_address",
          "type": "address"
        }
      ],
      "name": "isRewardsWhitelisted",
      "outputs": [
        {
          "internalType": "bool",
          "name": "",
          "type": "bool"
        }
      ],
      "stateMutability": "view",
      "type": "function"
    },
    {
      "inputs": [],
      "name": "owner",
      "outputs": [
        {
          "internalType": "address",
          "name": "",
          "type": "address"
        }
      ],
      "stateMutability": "view",
      "type": "function"
    },
    {
      "inputs": [
        {
          "internalType": "address",
          "name": "_address",
          "type": "address"
        }
      ],
      "name": "removeAddress",
      "outputs": [],
      "stateMutability": "nonpayable",
      "type": "function"
    },
    {
      "inputs": [],
      "name": "renounceOwnership",
      "outputs": [],
      "stateMutability": "nonpayable",
      "type": "function"
    },
    {
      "inputs": [
        {
          "internalType": "address",
          "name": "",
          "type": "address"
        }
      ],
      "name": "rewards",
      "outputs": [
        {
          "internalType": "uint256",
          "name": "",
          "type": "uint256"
        }
      ],
      "stateMutability": "view",
      "type": "function"
    },
    {
      "inputs": [],
      "name": "token",
      "outputs": [
        {
          "internalType": "contract IERC20",
          "name": "",
          "type": "address"
        }
      ],
      "stateMutability": "view",
      "type": "function"
    },
    {
      "inputs": [
        {
          "internalType": "address",
          "name": "newOwner",
          "type": "address"
        }
      ],
      "name": "transferOwnership",
      "outputs": [],
      "stateMutability": "nonpayable",
      "type": "function"
    },
    {
      "inputs": [
        {
          "internalType": "address",
          "name": "addr",
          "type": "address"
        }
      ],
      "name": "updateAddressManager",
      "outputs": [],
      "stateMutability": "nonpayable",
      "type": "function"
    },
    {
      "inputs": [
        {
          "internalType": "address",
          "name": "_worker",
          "type": "address"
        }
      ],
      "name": "withdrawSubworkerAllRewards",
      "outputs": [],
      "stateMutability": "nonpayable",
      "type": "function"
    }
  ],
  "bytecode": "0x6080604052600060045534801561001557600080fd5b50604051610f84380380610f84833981016040819052610034916100b2565b61003d33610062565b600280546001600160a01b0319166001600160a01b03929092169190911790556100e2565b600080546001600160a01b038381166001600160a01b0319831681178455604051919092169283917f8be0079c531659141344cd1fd0a4f28419497f9722a3daafe3b4186f6b6457e09190a35050565b6000602082840312156100c457600080fd5b81516001600160a01b03811681146100db57600080fd5b9392505050565b610e93806100f16000396000f3fe608060405234801561001057600080fd5b506004361061014d5760003560e01c8063a20809e6116100c3578063d42c362a1161007c578063d42c362a146102d5578063e0ca5094146102de578063e6c3e97b146102f1578063ed3fafec14610304578063f2fde38b1461032d578063fc0c546a1461034057600080fd5b8063a20809e614610279578063af1e1f3f1461028c578063b6b55f2514610294578063c416b3f7146102a7578063c47c4bc2146102af578063ce73f107146102c257600080fd5b806363ba80ad1161011557806363ba80ad146101d357806366d2a1a0146101e6578063715018a6146101f957806371f084db146102015780637a34da671461023d5780638da5cb5b1461026857600080fd5b806302d648f4146101525780630700037d1461016757806338eada1c1461019a57806340e76636146101ad5780634ba79dfe146101c0575b600080fd5b610165610160366004610d48565b610353565b005b610187610175366004610d48565b60036020526000908152604090205481565b6040519081526020015b60405180910390f35b6101656101a8366004610d48565b6104c7565b6101656101bb366004610d63565b610583565b6101656101ce366004610d48565b610699565b6101656101e1366004610d63565b610737565b6101656101f4366004610d48565b6107a1565b6101656107e5565b61022d61020f366004610d48565b6001600160a01b031660009081526005602052604090205460ff1690565b6040519015158152602001610191565b600154610250906001600160a01b031681565b6040516001600160a01b039091168152602001610191565b6000546001600160a01b0316610250565b610165610287366004610d8f565b61081b565b6101656108fc565b6101656102a2366004610d8f565b610969565b610165610a43565b6101656102bd366004610d48565b610a7c565b6101656102d0366004610d63565b610ac8565b61018760045481565b61022d6102ec366004610d63565b610b15565b6101656102ff366004610d8f565b610bf7565b610187610312366004610d48565b6001600160a01b031660009081526003602052604090205490565b61016561033b366004610d48565b610c25565b600254610250906001600160a01b031681565b6001546001600160a01b031661036857600080fd5b6001600160a01b038116600090815260036020526040902054600454101561038f57600080fd5b60015460405163166eeeb960e31b81523360048201526001600160a01b0383811660248301529091169063b37775c890604401602060405180830381600087803b1580156103dc57600080fd5b505af11580156103f0573d6000803e3d6000fd5b505050506040513d601f19601f820116820180604052508101906104149190610da8565b61041d57600080fd5b336000818152600360205260408082208054929055600254905163a9059cbb60e01b815260048101939093526024830182905290916001600160a01b039091169063a9059cbb906044015b602060405180830381600087803b15801561048257600080fd5b505af1158015610496573d6000803e3d6000fd5b505050506040513d601f19601f820116820180604052508101906104ba9190610da8565b6104c357600080fd5b5050565b6000546001600160a01b031633146104fa5760405162461bcd60e51b81526004016104f190610dca565b60405180910390fd5b6001600160a01b03811660009081526005602052604090205460ff1615156001141561052557600080fd5b6001600160a01b038116600081815260056020908152604091829020805460ff1916600190811790915591519182527faca247a6f5a4ff76768a3d69d18ba197c34106ff9efaa8fd1335d9fb6b5fffb791015b60405180910390a250565b6001546001600160a01b031661059857600080fd5b8160045410156105a757600080fd5b60015460405163166eeeb960e31b81523360048201526001600160a01b0383811660248301529091169063b37775c890604401602060405180830381600087803b1580156105f457600080fd5b505af1158015610608573d6000803e3d6000fd5b505050506040513d601f19601f8201168201806040525081019061062c9190610da8565b61063557600080fd5b6001600160a01b0381166000908152600360205260408120805484929061065d908490610e15565b909155505060025460405163a9059cbb60e01b8152336004820152602481018490526001600160a01b039091169063a9059cbb90604401610468565b6000546001600160a01b031633146106c35760405162461bcd60e51b81526004016104f190610dca565b6001600160a01b03811660009081526005602052604090205460ff166106e857600080fd5b6001600160a01b0381166000818152600560209081526040808320805460ff19169055519182527fbfd94cc4e61230b7365236ffec9a8be4c83a297f22e63e7c30403894df1329c39101610578565b6000546001600160a01b031633146107615760405162461bcd60e51b81526004016104f190610dca565b6001600160a01b0381166000908152600360205260409020546107849083610cbd565b6001600160a01b0390911660009081526003602052604090205550565b6000546001600160a01b031633146107cb5760405162461bcd60e51b81526004016104f190610dca565b6001600160a01b0316600090815260036020526040812055565b6000546001600160a01b0316331461080f5760405162461bcd60e51b81526004016104f190610dca565b6108196000610cd0565b565b6000546001600160a01b031633146108455760405162461bcd60e51b81526004016104f190610dca565b80600454101561085457600080fd5b80600460008282546108669190610e15565b909155505060025460405163a9059cbb60e01b8152336004820152602481018390526001600160a01b039091169063a9059cbb906044015b602060405180830381600087803b1580156108b857600080fd5b505af11580156108cc573d6000803e3d6000fd5b505050506040513d601f19601f820116820180604052508101906108f09190610da8565b6108f957600080fd5b50565b33600090815260036020526040902054600454101561091a57600080fd5b336000818152600360205260408082208054929055600254905163a9059cbb60e01b815260048101939093526024830182905290916001600160a01b039091169063a9059cbb9060440161089e565b6002546040516370a0823160e01b815233600482015282916001600160a01b0316906370a082319060240160206040518083038186803b1580156109ac57600080fd5b505afa1580156109c0573d6000803e3d6000fd5b505050506040513d601f19601f820116820180604052508101906109e49190610e2c565b10156109ef57600080fd5b8060046000828254610a019190610e45565b90915550506002546040516323b872dd60e01b8152336004820152306024820152604481018390526001600160a01b03909116906323b872dd9060640161089e565b6000546001600160a01b03163314610a6d5760405162461bcd60e51b81526004016104f190610dca565b60006004541161091a57600080fd5b6000546001600160a01b03163314610aa65760405162461bcd60e51b81526004016104f190610dca565b600180546001600160a01b0319166001600160a01b0392909216919091179055565b6000546001600160a01b03163314610af25760405162461bcd60e51b81526004016104f190610dca565b6001600160a01b0381166000908152600360205260409020546107849083610d20565b3360009081526005602052604081205460ff16610b3157600080fd5b60008311610b905760405162461bcd60e51b815260206004820152602660248201527f7265776172647320746f20616c6c6f63617465206d75737420626520706f73696044820152653a34bb32971760d11b60648201526084016104f1565b8260045410610bed57600454610ba69084610cbd565b6004556001600160a01b038216600090815260036020526040902054610bcc9084610d20565b6001600160a01b038316600090815260036020526040902055506001610bf1565b5060005b92915050565b806004541015610c0657600080fd5b3360009081526003602052604081208054839290610866908490610e15565b6000546001600160a01b03163314610c4f5760405162461bcd60e51b81526004016104f190610dca565b6001600160a01b038116610cb45760405162461bcd60e51b815260206004820152602660248201527f4f776e61626c653a206e6577206f776e657220697320746865207a65726f206160448201526564647265737360d01b60648201526084016104f1565b6108f981610cd0565b6000610cc98284610e15565b9392505050565b600080546001600160a01b038381166001600160a01b0319831681178455604051919092169283917f8be0079c531659141344cd1fd0a4f28419497f9722a3daafe3b4186f6b6457e09190a35050565b6000610cc98284610e45565b80356001600160a01b0381168114610d4357600080fd5b919050565b600060208284031215610d5a57600080fd5b610cc982610d2c565b60008060408385031215610d7657600080fd5b82359150610d8660208401610d2c565b90509250929050565b600060208284031215610da157600080fd5b5035919050565b600060208284031215610dba57600080fd5b81518015158114610cc957600080fd5b6020808252818101527f4f776e61626c653a2063616c6c6572206973206e6f7420746865206f776e6572604082015260600190565b634e487b7160e01b600052601160045260246000fd5b600082821015610e2757610e27610dff565b500390565b600060208284031215610e3e57600080fd5b5051919050565b60008219821115610e5857610e58610dff565b50019056fea2646970667358221220be5e5133be103e085b80bbd5eb521e73a00b97d2147c9a3af7f6aa4e60ac0d2c64736f6c63430008080033",
  "linkReferences": {},
  "deployedLinkReferences": {}
}