{
  "_format": "hh-sol-artifact-1",
  "contractName": "RewardsManager",
  "sourceName": "contracts/worksystems/RewardsManager.sol",
  "abi": [
    {
      "inputs": [
        {
          "internalType": "address",
          "name": "EXD_token",
          "type": "address"
        }
      ],
      "stateMutability": "nonpayable",
      "type": "constructor"
    },
    {
      "anonymous": false,
      "inputs": [
        {
          "indexed": true,
          "internalType": "address",
          "name": "previousOwner",
          "type": "address"
        },
        {
          "indexed": true,
          "internalType": "address",
          "name": "newOwner",
          "type": "address"
        }
      ],
      "name": "OwnershipTransferred",
      "type": "event"
    },
    {
      "anonymous": false,
      "inputs": [
        {
          "indexed": true,
          "internalType": "address",
          "name": "account",
          "type": "address"
        },
        {
          "indexed": false,
          "internalType": "bool",
          "name": "isWhitelisted",
          "type": "bool"
        }
      ],
      "name": "RewardsUnWhitelisted",
      "type": "event"
    },
    {
      "anonymous": false,
      "inputs": [
        {
          "indexed": true,
          "internalType": "address",
          "name": "account",
          "type": "address"
        },
        {
          "indexed": false,
          "internalType": "bool",
          "name": "isWhitelisted",
          "type": "bool"
        }
      ],
      "name": "RewardsWhitelisted",
      "type": "event"
    },
    {
      "anonymous": false,
      "inputs": [
        {
          "indexed": false,
          "internalType": "bytes32",
          "name": "name",
          "type": "bytes32"
        },
        {
          "indexed": false,
          "internalType": "uint256",
          "name": "timestamp",
          "type": "uint256"
        }
      ],
      "name": "UserRegistered",
      "type": "event"
    },
    {
      "anonymous": false,
      "inputs": [
        {
          "indexed": false,
          "internalType": "bytes32",
          "name": "name",
          "type": "bytes32"
        }
      ],
      "name": "UserTransferred",
      "type": "event"
    },
    {
      "inputs": [],
      "name": "AddressManager",
      "outputs": [
        {
          "internalType": "contract IAddressManager",
          "name": "",
          "type": "address"
        }
      ],
      "stateMutability": "view",
      "type": "function"
    },
    {
      "inputs": [],
      "name": "ManagerBalance",
      "outputs": [
        {
          "internalType": "uint256",
          "name": "",
          "type": "uint256"
        }
      ],
      "stateMutability": "view",
      "type": "function"
    },
    {
      "inputs": [
        {
          "internalType": "uint256",
          "name": "rep",
          "type": "uint256"
        },
        {
          "internalType": "address",
          "name": "_user",
          "type": "address"
        }
      ],
      "name": "OwnerAddRewards",
      "outputs": [],
      "stateMutability": "nonpayable",
      "type": "function"
    },
    {
      "inputs": [
        {
          "internalType": "uint256",
          "name": "rep",
          "type": "uint256"
        },
        {
          "internalType": "address",
          "name": "_user",
          "type": "address"
        }
      ],
      "name": "OwnerRemoveRewards",
      "outputs": [],
      "stateMutability": "nonpayable",
      "type": "function"
    },
    {
      "inputs": [
        {
          "internalType": "address",
          "name": "_user",
          "type": "address"
        }
      ],
      "name": "OwnerResetRewards",
      "outputs": [],
      "stateMutability": "nonpayable",
      "type": "function"
    },
    {
      "inputs": [
        {
          "internalType": "uint256",
          "name": "_numTokens",
          "type": "uint256"
        }
      ],
      "name": "OwnerWithdraw",
      "outputs": [],
      "stateMutability": "nonpayable",
      "type": "function"
    },
    {
      "inputs": [],
      "name": "OwnerWithdrawAllRewards",
      "outputs": [],
      "stateMutability": "nonpayable",
      "type": "function"
    },
    {
      "inputs": [
        {
          "internalType": "uint256",
          "name": "_RewardsAllocation",
          "type": "uint256"
        },
        {
          "internalType": "address",
          "name": "_user",
          "type": "address"
        }
      ],
      "name": "ProxyAddReward",
      "outputs": [
        {
          "internalType": "bool",
          "name": "",
          "type": "bool"
        }
      ],
      "stateMutability": "nonpayable",
      "type": "function"
    },
    {
      "inputs": [
        {
          "internalType": "address",
          "name": "_address",
          "type": "address"
        }
      ],
      "name": "RewardsBalanceOf",
      "outputs": [
        {
          "internalType": "uint256",
          "name": "",
          "type": "uint256"
        }
      ],
      "stateMutability": "view",
      "type": "function"
    },
    {
      "inputs": [
        {
          "internalType": "uint256",
          "name": "_numTokens",
          "type": "uint256"
        }
      ],
      "name": "WithdrawAllRewards",
      "outputs": [],
      "stateMutability": "nonpayable",
      "type": "function"
    },
    {
      "inputs": [
        {
          "internalType": "uint256",
          "name": "_numTokens",
          "type": "uint256"
        }
      ],
      "name": "WithdrawRewards",
      "outputs": [],
      "stateMutability": "nonpayable",
      "type": "function"
    },
    {
      "inputs": [
        {
          "internalType": "uint256",
          "name": "_numTokens",
          "type": "uint256"
        },
        {
          "internalType": "address",
          "name": "_worker",
          "type": "address"
        }
      ],
      "name": "WithdrawSubworker",
      "outputs": [],
      "stateMutability": "nonpayable",
      "type": "function"
    },
    {
      "inputs": [
        {
          "internalType": "address",
          "name": "_address",
          "type": "address"
        }
      ],
      "name": "addAddress",
      "outputs": [],
      "stateMutability": "nonpayable",
      "type": "function"
    },
    {
      "inputs": [
        {
          "internalType": "uint256",
          "name": "_numTokens",
          "type": "uint256"
        }
      ],
      "name": "deposit",
      "outputs": [],
      "stateMutability": "nonpayable",
      "type": "function"
    },
    {
      "inputs": [
        {
          "internalType": "address",
          "name": "_address",
          "type": "address"
        }
      ],
      "name": "isRewardsWhitelisted",
      "outputs": [
        {
          "internalType": "bool",
          "name": "",
          "type": "bool"
        }
      ],
      "stateMutability": "view",
      "type": "function"
    },
    {
      "inputs": [],
      "name": "owner",
      "outputs": [
        {
          "internalType": "address",
          "name": "",
          "type": "address"
        }
      ],
      "stateMutability": "view",
      "type": "function"
    },
    {
      "inputs": [
        {
          "internalType": "address",
          "name": "_address",
          "type": "address"
        }
      ],
      "name": "removeAddress",
      "outputs": [],
      "stateMutability": "nonpayable",
      "type": "function"
    },
    {
      "inputs": [],
      "name": "renounceOwnership",
      "outputs": [],
      "stateMutability": "nonpayable",
      "type": "function"
    },
    {
      "inputs": [
        {
          "internalType": "address",
          "name": "",
          "type": "address"
        }
      ],
      "name": "rewards",
      "outputs": [
        {
          "internalType": "uint256",
          "name": "",
          "type": "uint256"
        }
      ],
      "stateMutability": "view",
      "type": "function"
    },
    {
      "inputs": [],
      "name": "token",
      "outputs": [
        {
          "internalType": "contract IERC20",
          "name": "",
          "type": "address"
        }
      ],
      "stateMutability": "view",
      "type": "function"
    },
    {
      "inputs": [
        {
          "internalType": "address",
          "name": "newOwner",
          "type": "address"
        }
      ],
      "name": "transferOwnership",
      "outputs": [],
      "stateMutability": "nonpayable",
      "type": "function"
    },
    {
      "inputs": [
        {
          "internalType": "address",
          "name": "addr",
          "type": "address"
        }
      ],
      "name": "updateAddressManager",
      "outputs": [],
      "stateMutability": "nonpayable",
      "type": "function"
    },
    {
      "inputs": [
        {
          "internalType": "uint256",
          "name": "_numTokens",
          "type": "uint256"
        },
        {
          "internalType": "address",
          "name": "_worker",
          "type": "address"
        }
      ],
      "name": "withdrawSubworkerAllRewards",
      "outputs": [],
      "stateMutability": "nonpayable",
      "type": "function"
    }
  ],
  "bytecode": "0x6080604052600060045534801561001557600080fd5b50604051610fe4380380610fe4833981016040819052610034916100b2565b61003d33610062565b600280546001600160a01b0319166001600160a01b03929092169190911790556100e2565b600080546001600160a01b038381166001600160a01b0319831681178455604051919092169283917f8be0079c531659141344cd1fd0a4f28419497f9722a3daafe3b4186f6b6457e09190a35050565b6000602082840312156100c457600080fd5b81516001600160a01b03811681146100db57600080fd5b9392505050565b610ef3806100f16000396000f3fe608060405234801561001057600080fd5b506004361061014d5760003560e01c8063a20809e6116100c3578063d42c362a1161007c578063d42c362a146102e0578063e0ca5094146102e9578063e6c3e97b146102fc578063ed3fafec1461030f578063f2fde38b14610338578063fc0c546a1461034b57600080fd5b8063a20809e614610279578063b6b55f251461028c578063bc19e60b1461029f578063c416b3f7146102b2578063c47c4bc2146102ba578063ce73f107146102cd57600080fd5b806363ba80ad1161011557806363ba80ad146101d357806366d2a1a0146101e6578063715018a6146101f957806371f084db146102015780637a34da671461023d5780638da5cb5b1461026857600080fd5b80630700037d146101525780632ac72f131461018557806338eada1c1461019a57806340e76636146101ad5780634ba79dfe146101c0575b600080fd5b610172610160366004610da8565b60036020526000908152604090205481565b6040519081526020015b60405180910390f35b610198610193366004610dc3565b61035e565b005b6101986101a8366004610da8565b6104d2565b6101986101bb366004610dc3565b61058e565b6101986101ce366004610da8565b6106ff565b6101986101e1366004610dc3565b61079d565b6101986101f4366004610da8565b610807565b61019861084b565b61022d61020f366004610da8565b6001600160a01b031660009081526005602052604090205460ff1690565b604051901515815260200161017c565b600154610250906001600160a01b031681565b6040516001600160a01b03909116815260200161017c565b6000546001600160a01b0316610250565b610198610287366004610def565b610881565b61019861029a366004610def565b610962565b6101986102ad366004610def565b610a3c565b610198610aa9565b6101986102c8366004610da8565b610b31565b6101986102db366004610dc3565b610b7d565b61017260045481565b61022d6102f7366004610dc3565b610bca565b61019861030a366004610def565b610c57565b61017261031d366004610da8565b6001600160a01b031660009081526003602052604090205490565b610198610346366004610da8565b610c85565b600254610250906001600160a01b031681565b6001546001600160a01b031661037357600080fd5b6001600160a01b038116600090815260036020526040902054600454101561039a57600080fd5b60015460405163166eeeb960e31b81523360048201526001600160a01b0383811660248301529091169063b37775c890604401602060405180830381600087803b1580156103e757600080fd5b505af11580156103fb573d6000803e3d6000fd5b505050506040513d601f19601f8201168201806040525081019061041f9190610e08565b61042857600080fd5b336000818152600360205260408082208054929055600254905163a9059cbb60e01b815260048101939093526024830182905290916001600160a01b039091169063a9059cbb90604401602060405180830381600087803b15801561048c57600080fd5b505af11580156104a0573d6000803e3d6000fd5b505050506040513d601f19601f820116820180604052508101906104c49190610e08565b6104cd57600080fd5b505050565b6000546001600160a01b031633146105055760405162461bcd60e51b81526004016104fc90610e2a565b60405180910390fd5b6001600160a01b03811660009081526005602052604090205460ff1615156001141561053057600080fd5b6001600160a01b038116600081815260056020908152604091829020805460ff1916600190811790915591519182527faca247a6f5a4ff76768a3d69d18ba197c34106ff9efaa8fd1335d9fb6b5fffb791015b60405180910390a250565b6001546001600160a01b03166105a357600080fd5b8160045410156105b257600080fd5b60015460405163166eeeb960e31b81523360048201526001600160a01b0383811660248301529091169063b37775c890604401602060405180830381600087803b1580156105ff57600080fd5b505af1158015610613573d6000803e3d6000fd5b505050506040513d601f19601f820116820180604052508101906106379190610e08565b61064057600080fd5b6001600160a01b03811660009081526003602052604081208054849290610668908490610e75565b909155505060025460405163a9059cbb60e01b8152336004820152602481018490526001600160a01b039091169063a9059cbb906044015b602060405180830381600087803b1580156106ba57600080fd5b505af11580156106ce573d6000803e3d6000fd5b505050506040513d601f19601f820116820180604052508101906106f29190610e08565b6106fb57600080fd5b5050565b6000546001600160a01b031633146107295760405162461bcd60e51b81526004016104fc90610e2a565b6001600160a01b03811660009081526005602052604090205460ff1661074e57600080fd5b6001600160a01b0381166000818152600560209081526040808320805460ff19169055519182527fbfd94cc4e61230b7365236ffec9a8be4c83a297f22e63e7c30403894df1329c39101610583565b6000546001600160a01b031633146107c75760405162461bcd60e51b81526004016104fc90610e2a565b6001600160a01b0381166000908152600360205260409020546107ea9083610d1d565b6001600160a01b0390911660009081526003602052604090205550565b6000546001600160a01b031633146108315760405162461bcd60e51b81526004016104fc90610e2a565b6001600160a01b0316600090815260036020526040812055565b6000546001600160a01b031633146108755760405162461bcd60e51b81526004016104fc90610e2a565b61087f6000610d30565b565b6000546001600160a01b031633146108ab5760405162461bcd60e51b81526004016104fc90610e2a565b8060045410156108ba57600080fd5b80600460008282546108cc9190610e75565b909155505060025460405163a9059cbb60e01b8152336004820152602481018390526001600160a01b039091169063a9059cbb906044015b602060405180830381600087803b15801561091e57600080fd5b505af1158015610932573d6000803e3d6000fd5b505050506040513d601f19601f820116820180604052508101906109569190610e08565b61095f57600080fd5b50565b6002546040516370a0823160e01b815233600482015282916001600160a01b0316906370a082319060240160206040518083038186803b1580156109a557600080fd5b505afa1580156109b9573d6000803e3d6000fd5b505050506040513d601f19601f820116820180604052508101906109dd9190610e8c565b10156109e857600080fd5b80600460008282546109fa9190610ea5565b90915550506002546040516323b872dd60e01b8152336004820152306024820152604481018390526001600160a01b03909116906323b872dd90606401610904565b336000908152600360205260409020546004541015610a5a57600080fd5b336000818152600360205260408082208054929055600254905163a9059cbb60e01b815260048101939093526024830182905290916001600160a01b039091169063a9059cbb906044016106a0565b6000546001600160a01b03163314610ad35760405162461bcd60e51b81526004016104fc90610e2a565b600060045411610ae257600080fd5b336000818152600360205260408082208054929055600254905163a9059cbb60e01b815260048101939093526024830182905290916001600160a01b039091169063a9059cbb90604401610904565b6000546001600160a01b03163314610b5b5760405162461bcd60e51b81526004016104fc90610e2a565b600180546001600160a01b0319166001600160a01b0392909216919091179055565b6000546001600160a01b03163314610ba75760405162461bcd60e51b81526004016104fc90610e2a565b6001600160a01b0381166000908152600360205260409020546107ea9083610d80565b3360009081526005602052604081205460ff16610be657600080fd5b826004541015610bf557600080fd5b60008311610c0257600080fd5b600454610c0f9084610d1d565b6004556001600160a01b038216600090815260036020526040902054610c359084610d80565b6001600160a01b03831660009081526003602052604090205550600192915050565b806004541015610c6657600080fd5b33600090815260036020526040812080548392906108cc908490610e75565b6000546001600160a01b03163314610caf5760405162461bcd60e51b81526004016104fc90610e2a565b6001600160a01b038116610d145760405162461bcd60e51b815260206004820152602660248201527f4f776e61626c653a206e6577206f776e657220697320746865207a65726f206160448201526564647265737360d01b60648201526084016104fc565b61095f81610d30565b6000610d298284610e75565b9392505050565b600080546001600160a01b038381166001600160a01b0319831681178455604051919092169283917f8be0079c531659141344cd1fd0a4f28419497f9722a3daafe3b4186f6b6457e09190a35050565b6000610d298284610ea5565b80356001600160a01b0381168114610da357600080fd5b919050565b600060208284031215610dba57600080fd5b610d2982610d8c565b60008060408385031215610dd657600080fd5b82359150610de660208401610d8c565b90509250929050565b600060208284031215610e0157600080fd5b5035919050565b600060208284031215610e1a57600080fd5b81518015158114610d2957600080fd5b6020808252818101527f4f776e61626c653a2063616c6c6572206973206e6f7420746865206f776e6572604082015260600190565b634e487b7160e01b600052601160045260246000fd5b600082821015610e8757610e87610e5f565b500390565b600060208284031215610e9e57600080fd5b5051919050565b60008219821115610eb857610eb8610e5f565b50019056fea2646970667358221220f2b4f9c8a239f622a309de36d68363223d1ba3a3a1d39ac3092ea42ece22b53464736f6c63430008080033",
  "linkReferences": {},
  "deployedLinkReferences": {}
}