{
  "_format": "hh-sol-artifact-1",
  "contractName": "RewardsManager",
  "sourceName": "contracts/worksystems/RewardsManager.sol",
  "abi": [
    {
      "inputs": [
        {
          "internalType": "address",
          "name": "EXD_token",
          "type": "address"
        }
      ],
      "stateMutability": "nonpayable",
      "type": "constructor"
    },
    {
      "anonymous": false,
      "inputs": [
        {
          "indexed": true,
          "internalType": "address",
          "name": "previousOwner",
          "type": "address"
        },
        {
          "indexed": true,
          "internalType": "address",
          "name": "newOwner",
          "type": "address"
        }
      ],
      "name": "OwnershipTransferred",
      "type": "event"
    },
    {
      "anonymous": false,
      "inputs": [
        {
          "indexed": true,
          "internalType": "address",
          "name": "account",
          "type": "address"
        },
        {
          "indexed": false,
          "internalType": "bool",
          "name": "isWhitelisted",
          "type": "bool"
        }
      ],
      "name": "RewardsUnWhitelisted",
      "type": "event"
    },
    {
      "anonymous": false,
      "inputs": [
        {
          "indexed": true,
          "internalType": "address",
          "name": "account",
          "type": "address"
        },
        {
          "indexed": false,
          "internalType": "bool",
          "name": "isWhitelisted",
          "type": "bool"
        }
      ],
      "name": "RewardsWhitelisted",
      "type": "event"
    },
    {
      "anonymous": false,
      "inputs": [
        {
          "indexed": false,
          "internalType": "bytes32",
          "name": "name",
          "type": "bytes32"
        },
        {
          "indexed": false,
          "internalType": "uint256",
          "name": "timestamp",
          "type": "uint256"
        }
      ],
      "name": "UserRegistered",
      "type": "event"
    },
    {
      "anonymous": false,
      "inputs": [
        {
          "indexed": false,
          "internalType": "bytes32",
          "name": "name",
          "type": "bytes32"
        }
      ],
      "name": "UserTransferred",
      "type": "event"
    },
    {
      "inputs": [],
      "name": "ManagerBalance",
      "outputs": [
        {
          "internalType": "uint256",
          "name": "",
          "type": "uint256"
        }
      ],
      "stateMutability": "view",
      "type": "function"
    },
    {
      "inputs": [
        {
          "internalType": "uint256",
          "name": "rep",
          "type": "uint256"
        },
        {
          "internalType": "address",
          "name": "_user",
          "type": "address"
        }
      ],
      "name": "OwnerAddRewards",
      "outputs": [],
      "stateMutability": "nonpayable",
      "type": "function"
    },
    {
      "inputs": [
        {
          "internalType": "uint256",
          "name": "rep",
          "type": "uint256"
        },
        {
          "internalType": "address",
          "name": "_user",
          "type": "address"
        }
      ],
      "name": "OwnerRemoveRewards",
      "outputs": [],
      "stateMutability": "nonpayable",
      "type": "function"
    },
    {
      "inputs": [
        {
          "internalType": "address",
          "name": "_user",
          "type": "address"
        }
      ],
      "name": "OwnerResetRewards",
      "outputs": [],
      "stateMutability": "nonpayable",
      "type": "function"
    },
    {
      "inputs": [
        {
          "internalType": "uint256",
          "name": "_numTokens",
          "type": "uint256"
        }
      ],
      "name": "OwnerWithdraw",
      "outputs": [],
      "stateMutability": "nonpayable",
      "type": "function"
    },
    {
      "inputs": [
        {
          "internalType": "uint256",
          "name": "_RewardsAllocation",
          "type": "uint256"
        },
        {
          "internalType": "address",
          "name": "_user",
          "type": "address"
        }
      ],
      "name": "ProxyAddReward",
      "outputs": [
        {
          "internalType": "bool",
          "name": "",
          "type": "bool"
        }
      ],
      "stateMutability": "nonpayable",
      "type": "function"
    },
    {
      "inputs": [],
      "name": "WithdrawAllRewards",
      "outputs": [],
      "stateMutability": "nonpayable",
      "type": "function"
    },
    {
      "inputs": [
        {
          "internalType": "uint256",
          "name": "_numTokens",
          "type": "uint256"
        }
      ],
      "name": "WithdrawRewards",
      "outputs": [],
      "stateMutability": "nonpayable",
      "type": "function"
    },
    {
      "inputs": [
        {
          "internalType": "address",
          "name": "_address",
          "type": "address"
        }
      ],
      "name": "addAddress",
      "outputs": [],
      "stateMutability": "nonpayable",
      "type": "function"
    },
    {
      "inputs": [
        {
          "internalType": "uint256",
          "name": "_numTokens",
          "type": "uint256"
        }
      ],
      "name": "deposit",
      "outputs": [],
      "stateMutability": "nonpayable",
      "type": "function"
    },
    {
      "inputs": [
        {
          "internalType": "address",
          "name": "_address",
          "type": "address"
        }
      ],
      "name": "isRewardsWhitelisted",
      "outputs": [
        {
          "internalType": "bool",
          "name": "",
          "type": "bool"
        }
      ],
      "stateMutability": "view",
      "type": "function"
    },
    {
      "inputs": [],
      "name": "owner",
      "outputs": [
        {
          "internalType": "address",
          "name": "",
          "type": "address"
        }
      ],
      "stateMutability": "view",
      "type": "function"
    },
    {
      "inputs": [
        {
          "internalType": "address",
          "name": "_address",
          "type": "address"
        }
      ],
      "name": "removeAddress",
      "outputs": [],
      "stateMutability": "nonpayable",
      "type": "function"
    },
    {
      "inputs": [],
      "name": "renounceOwnership",
      "outputs": [],
      "stateMutability": "nonpayable",
      "type": "function"
    },
    {
      "inputs": [
        {
          "internalType": "address",
          "name": "",
          "type": "address"
        }
      ],
      "name": "rewards",
      "outputs": [
        {
          "internalType": "uint256",
          "name": "",
          "type": "uint256"
        }
      ],
      "stateMutability": "view",
      "type": "function"
    },
    {
      "inputs": [],
      "name": "token",
      "outputs": [
        {
          "internalType": "contract IERC20",
          "name": "",
          "type": "address"
        }
      ],
      "stateMutability": "view",
      "type": "function"
    },
    {
      "inputs": [
        {
          "internalType": "address",
          "name": "newOwner",
          "type": "address"
        }
      ],
      "name": "transferOwnership",
      "outputs": [],
      "stateMutability": "nonpayable",
      "type": "function"
    }
  ],
  "bytecode": "0x6080604052600060035534801561001557600080fd5b50604051610ba2380380610ba2833981016040819052610034916100b2565b61003d33610062565b600180546001600160a01b0319166001600160a01b03929092169190911790556100e2565b600080546001600160a01b038381166001600160a01b0319831681178455604051919092169283917f8be0079c531659141344cd1fd0a4f28419497f9722a3daafe3b4186f6b6457e09190a35050565b6000602082840312156100c457600080fd5b81516001600160a01b03811681146100db57600080fd5b9392505050565b610ab1806100f16000396000f3fe608060405234801561001057600080fd5b506004361061010b5760003560e01c8063a20809e6116100a2578063d42c362a11610071578063d42c362a1461023b578063e0ca509414610244578063e6c3e97b14610257578063f2fde38b1461026a578063fc0c546a1461027d57600080fd5b8063a20809e6146101fa578063af1e1f3f1461020d578063b6b55f2514610215578063ce73f1071461022857600080fd5b806366d2a1a0116100de57806366d2a1a01461017e578063715018a61461019157806371f084db146101995780638da5cb5b146101d557600080fd5b80630700037d1461011057806338eada1c146101435780634ba79dfe1461015857806363ba80ad1461016b575b600080fd5b61013061011e366004610966565b60026020526000908152604090205481565b6040519081526020015b60405180910390f35b610156610151366004610966565b610290565b005b610156610166366004610966565b61034c565b610156610179366004610981565b6103ea565b61015661018c366004610966565b610454565b610156610498565b6101c56101a7366004610966565b6001600160a01b031660009081526004602052604090205460ff1690565b604051901515815260200161013a565b6000546001600160a01b03165b6040516001600160a01b03909116815260200161013a565b6101566102083660046109ad565b6104ce565b6101566105af565b6101566102233660046109ad565b610637565b610156610236366004610981565b610711565b61013060035481565b6101c5610252366004610981565b61075e565b6101566102653660046109ad565b6107eb565b610156610278366004610966565b610843565b6001546101e2906001600160a01b031681565b6000546001600160a01b031633146102c35760405162461bcd60e51b81526004016102ba906109c6565b60405180910390fd5b6001600160a01b03811660009081526004602052604090205460ff161515600114156102ee57600080fd5b6001600160a01b038116600081815260046020908152604091829020805460ff1916600190811790915591519182527faca247a6f5a4ff76768a3d69d18ba197c34106ff9efaa8fd1335d9fb6b5fffb791015b60405180910390a250565b6000546001600160a01b031633146103765760405162461bcd60e51b81526004016102ba906109c6565b6001600160a01b03811660009081526004602052604090205460ff1661039b57600080fd5b6001600160a01b0381166000818152600460209081526040808320805460ff19169055519182527fbfd94cc4e61230b7365236ffec9a8be4c83a297f22e63e7c30403894df1329c39101610341565b6000546001600160a01b031633146104145760405162461bcd60e51b81526004016102ba906109c6565b6001600160a01b03811660009081526002602052604090205461043790836108db565b6001600160a01b0390911660009081526002602052604090205550565b6000546001600160a01b0316331461047e5760405162461bcd60e51b81526004016102ba906109c6565b6001600160a01b0316600090815260026020526040812055565b6000546001600160a01b031633146104c25760405162461bcd60e51b81526004016102ba906109c6565b6104cc60006108ee565b565b6000546001600160a01b031633146104f85760405162461bcd60e51b81526004016102ba906109c6565b80600354101561050757600080fd5b80600360008282546105199190610a11565b909155505060015460405163a9059cbb60e01b8152336004820152602481018390526001600160a01b039091169063a9059cbb906044015b602060405180830381600087803b15801561056b57600080fd5b505af115801561057f573d6000803e3d6000fd5b505050506040513d601f19601f820116820180604052508101906105a39190610a28565b6105ac57600080fd5b50565b6000546001600160a01b031633146105d95760405162461bcd60e51b81526004016102ba906109c6565b6000600354116105e857600080fd5b336000818152600260205260408082208054929055600154905163a9059cbb60e01b815260048101939093526024830182905290916001600160a01b039091169063a9059cbb90604401610551565b6001546040516370a0823160e01b815233600482015282916001600160a01b0316906370a082319060240160206040518083038186803b15801561067a57600080fd5b505afa15801561068e573d6000803e3d6000fd5b505050506040513d601f19601f820116820180604052508101906106b29190610a4a565b10156106bd57600080fd5b80600360008282546106cf9190610a63565b90915550506001546040516323b872dd60e01b8152336004820152306024820152604481018390526001600160a01b03909116906323b872dd90606401610551565b6000546001600160a01b0316331461073b5760405162461bcd60e51b81526004016102ba906109c6565b6001600160a01b038116600090815260026020526040902054610437908361093e565b3360009081526004602052604081205460ff1661077a57600080fd5b82600354101561078957600080fd5b6000831161079657600080fd5b6003546107a390846108db565b6003556001600160a01b0382166000908152600260205260409020546107c9908461093e565b6001600160a01b03831660009081526002602052604090205550600192915050565b6000546001600160a01b031633146108155760405162461bcd60e51b81526004016102ba906109c6565b80600354101561082457600080fd5b3360009081526002602052604081208054839290610519908490610a11565b6000546001600160a01b0316331461086d5760405162461bcd60e51b81526004016102ba906109c6565b6001600160a01b0381166108d25760405162461bcd60e51b815260206004820152602660248201527f4f776e61626c653a206e6577206f776e657220697320746865207a65726f206160448201526564647265737360d01b60648201526084016102ba565b6105ac816108ee565b60006108e78284610a11565b9392505050565b600080546001600160a01b038381166001600160a01b0319831681178455604051919092169283917f8be0079c531659141344cd1fd0a4f28419497f9722a3daafe3b4186f6b6457e09190a35050565b60006108e78284610a63565b80356001600160a01b038116811461096157600080fd5b919050565b60006020828403121561097857600080fd5b6108e78261094a565b6000806040838503121561099457600080fd5b823591506109a46020840161094a565b90509250929050565b6000602082840312156109bf57600080fd5b5035919050565b6020808252818101527f4f776e61626c653a2063616c6c6572206973206e6f7420746865206f776e6572604082015260600190565b634e487b7160e01b600052601160045260246000fd5b600082821015610a2357610a236109fb565b500390565b600060208284031215610a3a57600080fd5b815180151581146108e757600080fd5b600060208284031215610a5c57600080fd5b5051919050565b60008219821115610a7657610a766109fb565b50019056fea2646970667358221220be3834abd95d219a4a3fc1fe5aa4ecdb6709259b0d0cc9a072bbacaf26c3914564736f6c63430008080033",
  "linkReferences": {},
  "deployedLinkReferences": {}
}