{
  "_format": "hh-sol-artifact-1",
  "contractName": "DataFormatting",
  "sourceName": "contracts/worksystems/DataFormatting.sol",
  "abi": [
    {
      "inputs": [
        {
          "internalType": "address",
          "name": "EXDT_token",
          "type": "address"
        }
      ],
      "stateMutability": "nonpayable",
      "type": "constructor"
    },
    {
      "anonymous": false,
      "inputs": [
        {
          "indexed": true,
          "internalType": "address",
          "name": "previousOwner",
          "type": "address"
        },
        {
          "indexed": true,
          "internalType": "address",
          "name": "newOwner",
          "type": "address"
        }
      ],
      "name": "OwnershipTransferred",
      "type": "event"
    },
    {
      "anonymous": false,
      "inputs": [
        {
          "indexed": false,
          "internalType": "string",
          "name": "hash",
          "type": "string"
        },
        {
          "indexed": true,
          "internalType": "address",
          "name": "creator",
          "type": "address"
        }
      ],
      "name": "_FormatAccepted",
      "type": "event"
    },
    {
      "anonymous": false,
      "inputs": [
        {
          "indexed": true,
          "internalType": "uint256",
          "name": "DataID",
          "type": "uint256"
        },
        {
          "indexed": false,
          "internalType": "uint256",
          "name": "numTokens",
          "type": "uint256"
        },
        {
          "indexed": true,
          "internalType": "address",
          "name": "voter",
          "type": "address"
        }
      ],
      "name": "_FormatCheckCommitted",
      "type": "event"
    },
    {
      "anonymous": false,
      "inputs": [
        {
          "indexed": true,
          "internalType": "uint256",
          "name": "DataID",
          "type": "uint256"
        },
        {
          "indexed": false,
          "internalType": "uint256",
          "name": "numTokens",
          "type": "uint256"
        },
        {
          "indexed": false,
          "internalType": "uint256",
          "name": "votesFor",
          "type": "uint256"
        },
        {
          "indexed": false,
          "internalType": "uint256",
          "name": "votesAgainst",
          "type": "uint256"
        },
        {
          "indexed": true,
          "internalType": "uint256",
          "name": "choice",
          "type": "uint256"
        },
        {
          "indexed": true,
          "internalType": "address",
          "name": "voter",
          "type": "address"
        }
      ],
      "name": "_FormatCheckRevealed",
      "type": "event"
    },
    {
      "anonymous": false,
      "inputs": [
        {
          "indexed": true,
          "internalType": "uint256",
          "name": "DataID",
          "type": "uint256"
        },
        {
          "indexed": false,
          "internalType": "string",
          "name": "file_hash",
          "type": "string"
        },
        {
          "indexed": false,
          "internalType": "address",
          "name": "sender",
          "type": "address"
        }
      ],
      "name": "_FormatSubmitted",
      "type": "event"
    },
    {
      "anonymous": false,
      "inputs": [
        {
          "indexed": true,
          "internalType": "uint256",
          "name": "epochNumber",
          "type": "uint256"
        }
      ],
      "name": "_NewEpoch",
      "type": "event"
    },
    {
      "anonymous": false,
      "inputs": [
        {
          "indexed": true,
          "internalType": "uint256",
          "name": "DataID",
          "type": "uint256"
        },
        {
          "indexed": true,
          "internalType": "address",
          "name": "voter",
          "type": "address"
        }
      ],
      "name": "_TokensRescued",
      "type": "event"
    },
    {
      "anonymous": false,
      "inputs": [
        {
          "indexed": false,
          "internalType": "uint256",
          "name": "numTokens",
          "type": "uint256"
        },
        {
          "indexed": true,
          "internalType": "address",
          "name": "voter",
          "type": "address"
        }
      ],
      "name": "_VotingRightsGranted",
      "type": "event"
    },
    {
      "anonymous": false,
      "inputs": [
        {
          "indexed": false,
          "internalType": "uint256",
          "name": "numTokens",
          "type": "uint256"
        },
        {
          "indexed": true,
          "internalType": "address",
          "name": "voter",
          "type": "address"
        }
      ],
      "name": "_VotingRightsWithdrawn",
      "type": "event"
    },
    {
      "anonymous": false,
      "inputs": [
        {
          "indexed": true,
          "internalType": "uint256",
          "name": "batchID",
          "type": "uint256"
        },
        {
          "indexed": false,
          "internalType": "address",
          "name": "worker",
          "type": "address"
        }
      ],
      "name": "_WorkAllocated",
      "type": "event"
    },
    {
      "anonymous": false,
      "inputs": [
        {
          "indexed": true,
          "internalType": "address",
          "name": "worker",
          "type": "address"
        },
        {
          "indexed": false,
          "internalType": "uint256",
          "name": "timestamp",
          "type": "uint256"
        }
      ],
      "name": "_WorkerRegistered",
      "type": "event"
    },
    {
      "anonymous": false,
      "inputs": [
        {
          "indexed": true,
          "internalType": "address",
          "name": "worker",
          "type": "address"
        },
        {
          "indexed": false,
          "internalType": "uint256",
          "name": "timestamp",
          "type": "uint256"
        }
      ],
      "name": "_WorkerUnregistered",
      "type": "event"
    },
    {
      "inputs": [],
      "name": "AddressManager",
      "outputs": [
        {
          "internalType": "contract IAddressManager",
          "name": "",
          "type": "address"
        }
      ],
      "stateMutability": "view",
      "type": "function"
    },
    {
      "inputs": [],
      "name": "AllTxsCounter",
      "outputs": [
        {
          "internalType": "uint256",
          "name": "",
          "type": "uint256"
        }
      ],
      "stateMutability": "view",
      "type": "function"
    },
    {
      "inputs": [],
      "name": "AllocateWork",
      "outputs": [],
      "stateMutability": "nonpayable",
      "type": "function"
    },
    {
      "inputs": [],
      "name": "AmIRegistered",
      "outputs": [
        {
          "internalType": "bool",
          "name": "passed",
          "type": "bool"
        }
      ],
      "stateMutability": "view",
      "type": "function"
    },
    {
      "inputs": [
        {
          "internalType": "string",
          "name": "_a",
          "type": "string"
        },
        {
          "internalType": "string",
          "name": "_b",
          "type": "string"
        }
      ],
      "name": "AreStringsEqual",
      "outputs": [
        {
          "internalType": "bool",
          "name": "",
          "type": "bool"
        }
      ],
      "stateMutability": "pure",
      "type": "function"
    },
    {
      "inputs": [],
      "name": "BatchCheckingCursor",
      "outputs": [
        {
          "internalType": "uint256",
          "name": "",
          "type": "uint256"
        }
      ],
      "stateMutability": "view",
      "type": "function"
    },
    {
      "inputs": [],
      "name": "COMMIT_ROUND_DURATION",
      "outputs": [
        {
          "internalType": "uint256",
          "name": "",
          "type": "uint256"
        }
      ],
      "stateMutability": "view",
      "type": "function"
    },
    {
      "inputs": [],
      "name": "CurrentWorkEpoch",
      "outputs": [
        {
          "internalType": "uint256",
          "name": "",
          "type": "uint256"
        }
      ],
      "stateMutability": "view",
      "type": "function"
    },
    {
      "inputs": [
        {
          "internalType": "uint256",
          "name": "",
          "type": "uint256"
        }
      ],
      "name": "DataBatch",
      "outputs": [
        {
          "internalType": "uint256",
          "name": "start_idx",
          "type": "uint256"
        },
        {
          "internalType": "uint256",
          "name": "end_idx",
          "type": "uint256"
        },
        {
          "internalType": "uint256",
          "name": "counter",
          "type": "uint256"
        },
        {
          "internalType": "uint256",
          "name": "unrevealed_workers",
          "type": "uint256"
        },
        {
          "internalType": "bool",
          "name": "complete",
          "type": "bool"
        },
        {
          "internalType": "bool",
          "name": "checked",
          "type": "bool"
        },
        {
          "internalType": "bool",
          "name": "allocated_to_work",
          "type": "bool"
        },
        {
          "internalType": "uint256",
          "name": "commitEndDate",
          "type": "uint256"
        },
        {
          "internalType": "uint256",
          "name": "revealEndDate",
          "type": "uint256"
        },
        {
          "internalType": "uint256",
          "name": "votesFor",
          "type": "uint256"
        },
        {
          "internalType": "uint256",
          "name": "votesAgainst",
          "type": "uint256"
        },
        {
          "internalType": "string",
          "name": "batchIPFSfile",
          "type": "string"
        },
        {
          "internalType": "enum DataFormatting.DataStatus",
          "name": "status",
          "type": "uint8"
        }
      ],
      "stateMutability": "view",
      "type": "function"
    },
    {
      "inputs": [
        {
          "internalType": "uint256",
          "name": "_DataBatchId",
          "type": "uint256"
        }
      ],
      "name": "DataCommitEndDate",
      "outputs": [
        {
          "internalType": "uint256",
          "name": "commitEndDate",
          "type": "uint256"
        }
      ],
      "stateMutability": "view",
      "type": "function"
    },
    {
      "inputs": [
        {
          "internalType": "uint256",
          "name": "_DataBatchId",
          "type": "uint256"
        }
      ],
      "name": "DataEnded",
      "outputs": [
        {
          "internalType": "bool",
          "name": "ended",
          "type": "bool"
        }
      ],
      "stateMutability": "view",
      "type": "function"
    },
    {
      "inputs": [
        {
          "internalType": "uint256",
          "name": "_DataBatchId",
          "type": "uint256"
        }
      ],
      "name": "DataExists",
      "outputs": [
        {
          "internalType": "bool",
          "name": "exists",
          "type": "bool"
        }
      ],
      "stateMutability": "view",
      "type": "function"
    },
    {
      "inputs": [],
      "name": "DataNonce",
      "outputs": [
        {
          "internalType": "uint256",
          "name": "",
          "type": "uint256"
        }
      ],
      "stateMutability": "view",
      "type": "function"
    },
    {
      "inputs": [
        {
          "internalType": "uint256",
          "name": "_DataBatchId",
          "type": "uint256"
        }
      ],
      "name": "DataRevealEndDate",
      "outputs": [
        {
          "internalType": "uint256",
          "name": "revealEndDate",
          "type": "uint256"
        }
      ],
      "stateMutability": "view",
      "type": "function"
    },
    {
      "inputs": [
        {
          "internalType": "address",
          "name": "",
          "type": "address"
        }
      ],
      "name": "FormatStakedTokenBalance",
      "outputs": [
        {
          "internalType": "uint256",
          "name": "",
          "type": "uint256"
        }
      ],
      "stateMutability": "view",
      "type": "function"
    },
    {
      "inputs": [
        {
          "internalType": "uint256",
          "name": "",
          "type": "uint256"
        }
      ],
      "name": "FormatsMapping",
      "outputs": [
        {
          "internalType": "string",
          "name": "ipfs_hash",
          "type": "string"
        },
        {
          "internalType": "address",
          "name": "author",
          "type": "address"
        },
        {
          "internalType": "uint256",
          "name": "timestamp",
          "type": "uint256"
        },
        {
          "internalType": "enum DataFormatting.DataStatus",
          "name": "status",
          "type": "uint8"
        }
      ],
      "stateMutability": "view",
      "type": "function"
    },
    {
      "inputs": [
        {
          "internalType": "address",
          "name": "user_",
          "type": "address"
        }
      ],
      "name": "GetCurrentWork",
      "outputs": [
        {
          "internalType": "uint256",
          "name": "",
          "type": "uint256"
        }
      ],
      "stateMutability": "view",
      "type": "function"
    },
    {
      "inputs": [
        {
          "internalType": "address",
          "name": "user_",
          "type": "address"
        }
      ],
      "name": "IsNewWorkAvailable",
      "outputs": [
        {
          "internalType": "bool",
          "name": "",
          "type": "bool"
        }
      ],
      "stateMutability": "view",
      "type": "function"
    },
    {
      "inputs": [],
      "name": "LastBatchCounter",
      "outputs": [
        {
          "internalType": "uint256",
          "name": "",
          "type": "uint256"
        }
      ],
      "stateMutability": "view",
      "type": "function"
    },
    {
      "inputs": [],
      "name": "LastSpotBatchId",
      "outputs": [
        {
          "internalType": "uint256",
          "name": "",
          "type": "uint256"
        }
      ],
      "stateMutability": "view",
      "type": "function"
    },
    {
      "inputs": [],
      "name": "MIN_PARTICIPANTS_FOR_VALIDITY",
      "outputs": [
        {
          "internalType": "uint256",
          "name": "",
          "type": "uint256"
        }
      ],
      "stateMutability": "view",
      "type": "function"
    },
    {
      "inputs": [],
      "name": "MIN_REP_Data",
      "outputs": [
        {
          "internalType": "uint256",
          "name": "",
          "type": "uint256"
        }
      ],
      "stateMutability": "view",
      "type": "function"
    },
    {
      "inputs": [],
      "name": "MIN_REP_REVEAL",
      "outputs": [
        {
          "internalType": "uint256",
          "name": "",
          "type": "uint256"
        }
      ],
      "stateMutability": "view",
      "type": "function"
    },
    {
      "inputs": [],
      "name": "MIN_REWARD_Data",
      "outputs": [
        {
          "internalType": "uint256",
          "name": "",
          "type": "uint256"
        }
      ],
      "stateMutability": "view",
      "type": "function"
    },
    {
      "inputs": [],
      "name": "MIN_STAKE",
      "outputs": [
        {
          "internalType": "uint256",
          "name": "",
          "type": "uint256"
        }
      ],
      "stateMutability": "view",
      "type": "function"
    },
    {
      "inputs": [
        {
          "internalType": "address",
          "name": "",
          "type": "address"
        },
        {
          "internalType": "uint256",
          "name": "",
          "type": "uint256"
        }
      ],
      "name": "MasterWorkers",
      "outputs": [
        {
          "internalType": "address",
          "name": "",
          "type": "address"
        }
      ],
      "stateMutability": "view",
      "type": "function"
    },
    {
      "inputs": [
        {
          "internalType": "uint256",
          "name": "CheckedBatchId",
          "type": "uint256"
        }
      ],
      "name": "Ping",
      "outputs": [
        {
          "internalType": "bool",
          "name": "",
          "type": "bool"
        }
      ],
      "stateMutability": "nonpayable",
      "type": "function"
    },
    {
      "inputs": [],
      "name": "REVEAL_ROUND_DURATION",
      "outputs": [
        {
          "internalType": "uint256",
          "name": "",
          "type": "uint256"
        }
      ],
      "stateMutability": "view",
      "type": "function"
    },
    {
      "inputs": [],
      "name": "RegisterWorker",
      "outputs": [],
      "stateMutability": "nonpayable",
      "type": "function"
    },
    {
      "inputs": [],
      "name": "RepManager",
      "outputs": [
        {
          "internalType": "contract IRepManager",
          "name": "",
          "type": "address"
        }
      ],
      "stateMutability": "view",
      "type": "function"
    },
    {
      "inputs": [],
      "name": "RewardManager",
      "outputs": [
        {
          "internalType": "contract IRewardManager",
          "name": "",
          "type": "address"
        }
      ],
      "stateMutability": "view",
      "type": "function"
    },
    {
      "inputs": [],
      "name": "SPOT_CHECK_VOTE_QUORUM",
      "outputs": [
        {
          "internalType": "uint256",
          "name": "",
          "type": "uint256"
        }
      ],
      "stateMutability": "view",
      "type": "function"
    },
    {
      "inputs": [],
      "name": "SpottingSystem",
      "outputs": [
        {
          "internalType": "contract ISpottingSystem",
          "name": "",
          "type": "address"
        }
      ],
      "stateMutability": "view",
      "type": "function"
    },
    {
      "inputs": [],
      "name": "StakeManager",
      "outputs": [
        {
          "internalType": "contract IStakeManager",
          "name": "",
          "type": "address"
        }
      ],
      "stateMutability": "view",
      "type": "function"
    },
    {
      "inputs": [],
      "name": "TriggerNextEpoch",
      "outputs": [],
      "stateMutability": "nonpayable",
      "type": "function"
    },
    {
      "inputs": [],
      "name": "UnregisterWorker",
      "outputs": [],
      "stateMutability": "nonpayable",
      "type": "function"
    },
    {
      "inputs": [
        {
          "internalType": "address",
          "name": "",
          "type": "address"
        },
        {
          "internalType": "uint256",
          "name": "",
          "type": "uint256"
        }
      ],
      "name": "UserChecksCommits",
      "outputs": [
        {
          "internalType": "bool",
          "name": "",
          "type": "bool"
        }
      ],
      "stateMutability": "view",
      "type": "function"
    },
    {
      "inputs": [
        {
          "internalType": "address",
          "name": "",
          "type": "address"
        },
        {
          "internalType": "uint256",
          "name": "",
          "type": "uint256"
        }
      ],
      "name": "UserChecksReveals",
      "outputs": [
        {
          "internalType": "bool",
          "name": "",
          "type": "bool"
        }
      ],
      "stateMutability": "view",
      "type": "function"
    },
    {
      "inputs": [
        {
          "internalType": "uint256",
          "name": "",
          "type": "uint256"
        },
        {
          "internalType": "address",
          "name": "",
          "type": "address"
        }
      ],
      "name": "UserNewFiles",
      "outputs": [
        {
          "internalType": "string",
          "name": "",
          "type": "string"
        }
      ],
      "stateMutability": "view",
      "type": "function"
    },
    {
      "inputs": [
        {
          "internalType": "uint256",
          "name": "",
          "type": "uint256"
        },
        {
          "internalType": "address",
          "name": "",
          "type": "address"
        }
      ],
      "name": "UserVotes",
      "outputs": [
        {
          "internalType": "uint256",
          "name": "",
          "type": "uint256"
        }
      ],
      "stateMutability": "view",
      "type": "function"
    },
    {
      "inputs": [
        {
          "internalType": "uint256",
          "name": "_DataBatchId",
          "type": "uint256"
        }
      ],
      "name": "ValidateDataBatch",
      "outputs": [],
      "stateMutability": "nonpayable",
      "type": "function"
    },
    {
      "inputs": [
        {
          "internalType": "uint256",
          "name": "",
          "type": "uint256"
        },
        {
          "internalType": "uint256",
          "name": "",
          "type": "uint256"
        }
      ],
      "name": "WorkersPerBatch",
      "outputs": [
        {
          "internalType": "address",
          "name": "",
          "type": "address"
        }
      ],
      "stateMutability": "view",
      "type": "function"
    },
    {
      "inputs": [
        {
          "internalType": "address",
          "name": "",
          "type": "address"
        }
      ],
      "name": "WorkersState",
      "outputs": [
        {
          "internalType": "address",
          "name": "worker_address",
          "type": "address"
        },
        {
          "internalType": "address",
          "name": "master_address",
          "type": "address"
        },
        {
          "internalType": "uint256",
          "name": "allocated_work_batch",
          "type": "uint256"
        },
        {
          "internalType": "bool",
          "name": "has_completed_work",
          "type": "bool"
        },
        {
          "internalType": "uint256",
          "name": "last_worked_round",
          "type": "uint256"
        },
        {
          "internalType": "uint256",
          "name": "last_interaction_date",
          "type": "uint256"
        },
        {
          "internalType": "string",
          "name": "extra",
          "type": "string"
        },
        {
          "internalType": "bool",
          "name": "registered",
          "type": "bool"
        },
        {
          "internalType": "uint256",
          "name": "registration_date",
          "type": "uint256"
        }
      ],
      "stateMutability": "view",
      "type": "function"
    },
    {
      "inputs": [
        {
          "internalType": "address",
          "name": "_user",
          "type": "address"
        },
        {
          "internalType": "uint256",
          "name": "_DataBatchId",
          "type": "uint256"
        }
      ],
      "name": "attrUUID",
      "outputs": [
        {
          "internalType": "bytes32",
          "name": "UUID",
          "type": "bytes32"
        }
      ],
      "stateMutability": "pure",
      "type": "function"
    },
    {
      "inputs": [
        {
          "internalType": "uint256",
          "name": "",
          "type": "uint256"
        }
      ],
      "name": "availableWorkers",
      "outputs": [
        {
          "internalType": "address",
          "name": "",
          "type": "address"
        }
      ],
      "stateMutability": "view",
      "type": "function"
    },
    {
      "inputs": [
        {
          "internalType": "uint256",
          "name": "",
          "type": "uint256"
        }
      ],
      "name": "busyWorkers",
      "outputs": [
        {
          "internalType": "address",
          "name": "",
          "type": "address"
        }
      ],
      "stateMutability": "view",
      "type": "function"
    },
    {
      "inputs": [
        {
          "internalType": "uint256",
          "name": "_DataBatchId",
          "type": "uint256"
        },
        {
          "internalType": "bytes32",
          "name": "_secretHash",
          "type": "bytes32"
        },
        {
          "internalType": "string",
          "name": "newIPFSHash",
          "type": "string"
        }
      ],
      "name": "commitFormatCheck",
      "outputs": [],
      "stateMutability": "nonpayable",
      "type": "function"
    },
    {
      "inputs": [
        {
          "internalType": "uint256[]",
          "name": "_DataBatchIDs",
          "type": "uint256[]"
        },
        {
          "internalType": "bytes32[]",
          "name": "_secretHashes",
          "type": "bytes32[]"
        },
        {
          "internalType": "string[]",
          "name": "_newIPFSHash",
          "type": "string[]"
        }
      ],
      "name": "commitFormatChecks",
      "outputs": [],
      "stateMutability": "nonpayable",
      "type": "function"
    },
    {
      "inputs": [
        {
          "internalType": "uint256",
          "name": "_DataBatchId",
          "type": "uint256"
        }
      ],
      "name": "commitPeriodActive",
      "outputs": [
        {
          "internalType": "bool",
          "name": "active",
          "type": "bool"
        }
      ],
      "stateMutability": "view",
      "type": "function"
    },
    {
      "inputs": [
        {
          "internalType": "address",
          "name": "_voter",
          "type": "address"
        },
        {
          "internalType": "uint256",
          "name": "_DataBatchId",
          "type": "uint256"
        }
      ],
      "name": "didCommit",
      "outputs": [
        {
          "internalType": "bool",
          "name": "committed",
          "type": "bool"
        }
      ],
      "stateMutability": "view",
      "type": "function"
    },
    {
      "inputs": [
        {
          "internalType": "address",
          "name": "_voter",
          "type": "address"
        },
        {
          "internalType": "uint256",
          "name": "_DataBatchId",
          "type": "uint256"
        }
      ],
      "name": "didReveal",
      "outputs": [
        {
          "internalType": "bool",
          "name": "revealed",
          "type": "bool"
        }
      ],
      "stateMutability": "view",
      "type": "function"
    },
    {
      "inputs": [
        {
          "internalType": "uint256",
          "name": "_k",
          "type": "uint256"
        },
        {
          "internalType": "uint256",
          "name": "N_range",
          "type": "uint256"
        }
      ],
      "name": "generateIntegers",
      "outputs": [
        {
          "internalType": "uint256[]",
          "name": "",
          "type": "uint256[]"
        }
      ],
      "stateMutability": "view",
      "type": "function"
    },
    {
      "inputs": [],
      "name": "getActiveWorkersCount",
      "outputs": [
        {
          "internalType": "uint256",
          "name": "numWorkers",
          "type": "uint256"
        }
      ],
      "stateMutability": "view",
      "type": "function"
    },
    {
      "inputs": [],
      "name": "getBlockTimestamp",
      "outputs": [
        {
          "internalType": "uint256",
          "name": "blocktimestamp",
          "type": "uint256"
        }
      ],
      "stateMutability": "view",
      "type": "function"
    },
    {
      "inputs": [
        {
          "internalType": "address",
          "name": "_voter",
          "type": "address"
        },
        {
          "internalType": "uint256",
          "name": "_DataBatchId",
          "type": "uint256"
        }
      ],
      "name": "getCommitHash",
      "outputs": [
        {
          "internalType": "bytes32",
          "name": "commitHash",
          "type": "bytes32"
        }
      ],
      "stateMutability": "view",
      "type": "function"
    },
    {
      "inputs": [],
      "name": "getCurrentWorkEpoch",
      "outputs": [
        {
          "internalType": "uint256",
          "name": "WorkEpoch",
          "type": "uint256"
        }
      ],
      "stateMutability": "view",
      "type": "function"
    },
    {
      "inputs": [
        {
          "internalType": "uint256",
          "name": "_voteOption",
          "type": "uint256"
        },
        {
          "internalType": "uint256",
          "name": "_salt",
          "type": "uint256"
        }
      ],
      "name": "getEncryptedHash",
      "outputs": [
        {
          "internalType": "bytes32",
          "name": "keccak256hash",
          "type": "bytes32"
        }
      ],
      "stateMutability": "pure",
      "type": "function"
    },
    {
      "inputs": [
        {
          "internalType": "uint256",
          "name": "a",
          "type": "uint256"
        },
        {
          "internalType": "uint256",
          "name": "b",
          "type": "uint256"
        }
      ],
      "name": "getHash",
      "outputs": [
        {
          "internalType": "bytes32",
          "name": "keccak256hash",
          "type": "bytes32"
        }
      ],
      "stateMutability": "pure",
      "type": "function"
    },
    {
      "inputs": [
        {
          "internalType": "uint256",
          "name": "_DataBatchId",
          "type": "uint256"
        }
      ],
      "name": "getIPFShashesForBatch",
      "outputs": [
        {
          "internalType": "string[]",
          "name": "",
          "type": "string[]"
        }
      ],
      "stateMutability": "view",
      "type": "function"
    },
    {
      "inputs": [
        {
          "internalType": "address",
          "name": "_voter",
          "type": "address"
        },
        {
          "internalType": "uint256",
          "name": "_numTokens",
          "type": "uint256"
        },
        {
          "internalType": "uint256",
          "name": "_DataBatchId",
          "type": "uint256"
        }
      ],
      "name": "getInsertPointForNumTokens",
      "outputs": [
        {
          "internalType": "uint256",
          "name": "prevNode",
          "type": "uint256"
        }
      ],
      "stateMutability": "view",
      "type": "function"
    },
    {
      "inputs": [],
      "name": "getLastBatchId",
      "outputs": [
        {
          "internalType": "uint256",
          "name": "LastBatchId",
          "type": "uint256"
        }
      ],
      "stateMutability": "view",
      "type": "function"
    },
    {
      "inputs": [],
      "name": "getLastCheckedBatchId",
      "outputs": [
        {
          "internalType": "uint256",
          "name": "LastCheckedBatchId",
          "type": "uint256"
        }
      ],
      "stateMutability": "view",
      "type": "function"
    },
    {
      "inputs": [],
      "name": "getLastDataId",
      "outputs": [
        {
          "internalType": "uint256",
          "name": "DataId",
          "type": "uint256"
        }
      ],
      "stateMutability": "view",
      "type": "function"
    },
    {
      "inputs": [
        {
          "internalType": "address",
          "name": "_voter",
          "type": "address"
        }
      ],
      "name": "getLastNode",
      "outputs": [
        {
          "internalType": "uint256",
          "name": "DataID",
          "type": "uint256"
        }
      ],
      "stateMutability": "view",
      "type": "function"
    },
    {
      "inputs": [
        {
          "internalType": "address",
          "name": "_voter",
          "type": "address"
        }
      ],
      "name": "getLockedTokens",
      "outputs": [
        {
          "internalType": "uint256",
          "name": "numTokens",
          "type": "uint256"
        }
      ],
      "stateMutability": "view",
      "type": "function"
    },
    {
      "inputs": [
        {
          "internalType": "address",
          "name": "_voter",
          "type": "address"
        },
        {
          "internalType": "uint256",
          "name": "_DataBatchId",
          "type": "uint256"
        },
        {
          "internalType": "uint256",
          "name": "_salt",
          "type": "uint256"
        }
      ],
      "name": "getNumPassingTokens",
      "outputs": [
        {
          "internalType": "uint256",
          "name": "correctFormatChecks",
          "type": "uint256"
        }
      ],
      "stateMutability": "view",
      "type": "function"
    },
    {
      "inputs": [
        {
          "internalType": "address",
          "name": "_voter",
          "type": "address"
        },
        {
          "internalType": "uint256",
          "name": "_DataBatchId",
          "type": "uint256"
        }
      ],
      "name": "getNumTokens",
      "outputs": [
        {
          "internalType": "uint256",
          "name": "numTokens",
          "type": "uint256"
        }
      ],
      "stateMutability": "view",
      "type": "function"
    },
    {
      "inputs": [],
      "name": "getRandom",
      "outputs": [
        {
          "internalType": "uint256",
          "name": "",
          "type": "uint256"
        }
      ],
      "stateMutability": "view",
      "type": "function"
    },
    {
      "inputs": [],
      "name": "getSeed",
      "outputs": [
        {
          "internalType": "bytes32",
          "name": "addr",
          "type": "bytes32"
        }
      ],
      "stateMutability": "view",
      "type": "function"
    },
    {
      "inputs": [
        {
          "internalType": "uint256",
          "name": "_DataBatchId",
          "type": "uint256"
        }
      ],
      "name": "getTotalNumberOfFormatChecks",
      "outputs": [
        {
          "internalType": "uint256",
          "name": "vc",
          "type": "uint256"
        }
      ],
      "stateMutability": "view",
      "type": "function"
    },
    {
      "inputs": [
        {
          "internalType": "uint256",
          "name": "_DataBatchId",
          "type": "uint256"
        }
      ],
      "name": "getTotalNumberOfTokensForWinningOption",
      "outputs": [
        {
          "internalType": "uint256",
          "name": "numTokens",
          "type": "uint256"
        }
      ],
      "stateMutability": "view",
      "type": "function"
    },
    {
      "inputs": [],
      "name": "getTxCounter",
      "outputs": [
        {
          "internalType": "uint256",
          "name": "Counter",
          "type": "uint256"
        }
      ],
      "stateMutability": "view",
      "type": "function"
    },
    {
      "inputs": [
        {
          "internalType": "uint256",
          "name": "_terminationDate",
          "type": "uint256"
        }
      ],
      "name": "isExpired",
      "outputs": [
        {
          "internalType": "bool",
          "name": "expired",
          "type": "bool"
        }
      ],
      "stateMutability": "view",
      "type": "function"
    },
    {
      "inputs": [
        {
          "internalType": "uint256",
          "name": "_DataBatchId",
          "type": "uint256"
        }
      ],
      "name": "isPassed",
      "outputs": [
        {
          "internalType": "bool",
          "name": "passed",
          "type": "bool"
        }
      ],
      "stateMutability": "view",
      "type": "function"
    },
    {
      "inputs": [
        {
          "internalType": "address",
          "name": "_worker",
          "type": "address"
        }
      ],
      "name": "isWorkerRegistered",
      "outputs": [
        {
          "internalType": "bool",
          "name": "passed",
          "type": "bool"
        }
      ],
      "stateMutability": "view",
      "type": "function"
    },
    {
      "inputs": [],
      "name": "owner",
      "outputs": [
        {
          "internalType": "address",
          "name": "",
          "type": "address"
        }
      ],
      "stateMutability": "view",
      "type": "function"
    },
    {
      "inputs": [
        {
          "internalType": "uint256",
          "name": "k",
          "type": "uint256"
        },
        {
          "internalType": "uint256",
          "name": "N",
          "type": "uint256"
        }
      ],
      "name": "random_selection",
      "outputs": [
        {
          "internalType": "uint256[]",
          "name": "",
          "type": "uint256[]"
        }
      ],
      "stateMutability": "view",
      "type": "function"
    },
    {
      "inputs": [],
      "name": "renounceOwnership",
      "outputs": [],
      "stateMutability": "nonpayable",
      "type": "function"
    },
    {
      "inputs": [
        {
          "internalType": "uint256",
          "name": "_numTokens",
          "type": "uint256"
        }
      ],
      "name": "requestVotingRights",
      "outputs": [],
      "stateMutability": "nonpayable",
      "type": "function"
    },
    {
      "inputs": [
        {
          "internalType": "uint256",
          "name": "_DataBatchId",
          "type": "uint256"
        }
      ],
      "name": "rescueTokens",
      "outputs": [],
      "stateMutability": "nonpayable",
      "type": "function"
    },
    {
      "inputs": [
        {
          "internalType": "uint256[]",
          "name": "_DataBatchIDs",
          "type": "uint256[]"
        }
      ],
      "name": "rescueTokensInMultipleDatas",
      "outputs": [],
      "stateMutability": "nonpayable",
      "type": "function"
    },
    {
      "inputs": [
        {
          "internalType": "uint256",
          "name": "_DataBatchId",
          "type": "uint256"
        },
        {
          "internalType": "uint256",
          "name": "_voteOption",
          "type": "uint256"
        },
        {
          "internalType": "uint256",
          "name": "_salt",
          "type": "uint256"
        }
      ],
      "name": "revealFormatCheck",
      "outputs": [],
      "stateMutability": "nonpayable",
      "type": "function"
    },
    {
      "inputs": [
        {
          "internalType": "uint256[]",
          "name": "_DataBatchIDs",
          "type": "uint256[]"
        },
        {
          "internalType": "uint256[]",
          "name": "_voteOptions",
          "type": "uint256[]"
        },
        {
          "internalType": "uint256[]",
          "name": "_salts",
          "type": "uint256[]"
        }
      ],
      "name": "revealFormatChecks",
      "outputs": [],
      "stateMutability": "nonpayable",
      "type": "function"
    },
    {
      "inputs": [
        {
          "internalType": "uint256",
          "name": "_DataBatchId",
          "type": "uint256"
        }
      ],
      "name": "revealPeriodActive",
      "outputs": [
        {
          "internalType": "bool",
          "name": "active",
          "type": "bool"
        }
      ],
      "stateMutability": "view",
      "type": "function"
    },
    {
      "inputs": [],
      "name": "sFuel",
      "outputs": [
        {
          "internalType": "address",
          "name": "",
          "type": "address"
        }
      ],
      "stateMutability": "view",
      "type": "function"
    },
    {
      "inputs": [
        {
          "internalType": "uint256",
          "name": "N",
          "type": "uint256"
        }
      ],
      "name": "shuffle_array",
      "outputs": [
        {
          "internalType": "uint256[]",
          "name": "",
          "type": "uint256[]"
        }
      ],
      "stateMutability": "view",
      "type": "function"
    },
    {
      "inputs": [],
      "name": "token",
      "outputs": [
        {
          "internalType": "contract IERC20",
          "name": "",
          "type": "address"
        }
      ],
      "stateMutability": "view",
      "type": "function"
    },
    {
      "inputs": [
        {
          "internalType": "address",
          "name": "newOwner",
          "type": "address"
        }
      ],
      "name": "transferOwnership",
      "outputs": [],
      "stateMutability": "nonpayable",
      "type": "function"
    },
    {
      "inputs": [
        {
          "internalType": "address",
          "name": "addr",
          "type": "address"
        }
      ],
      "name": "updateAddressManager",
      "outputs": [],
      "stateMutability": "nonpayable",
      "type": "function"
    },
    {
      "inputs": [
        {
          "internalType": "uint256",
          "name": "COMMIT_ROUND_DURATION_",
          "type": "uint256"
        }
      ],
      "name": "updateCommitRoundDuration",
      "outputs": [],
      "stateMutability": "nonpayable",
      "type": "function"
    },
    {
      "inputs": [
        {
          "internalType": "address",
          "name": "addr",
          "type": "address"
        }
      ],
      "name": "updateRepManager",
      "outputs": [],
      "stateMutability": "nonpayable",
      "type": "function"
    },
    {
      "inputs": [
        {
          "internalType": "uint256",
          "name": "REVEAL_ROUND_DURATION_",
          "type": "uint256"
        }
      ],
      "name": "updateRevealRoundDuration",
      "outputs": [],
      "stateMutability": "nonpayable",
      "type": "function"
    },
    {
      "inputs": [
        {
          "internalType": "address",
          "name": "addr",
          "type": "address"
        }
      ],
      "name": "updateRewardManager",
      "outputs": [],
      "stateMutability": "nonpayable",
      "type": "function"
    },
    {
      "inputs": [
        {
          "internalType": "address",
          "name": "addr",
          "type": "address"
        }
      ],
      "name": "updateSpotManager",
      "outputs": [],
      "stateMutability": "nonpayable",
      "type": "function"
    },
    {
      "inputs": [
        {
          "internalType": "address",
          "name": "addr",
          "type": "address"
        }
      ],
      "name": "updateStakeManager",
      "outputs": [],
      "stateMutability": "nonpayable",
      "type": "function"
    },
    {
      "inputs": [
        {
          "internalType": "address",
          "name": "sFuel_",
          "type": "address"
        }
      ],
      "name": "updatesFuelFaucet",
      "outputs": [],
      "stateMutability": "nonpayable",
      "type": "function"
    },
    {
      "inputs": [
        {
          "internalType": "uint256",
          "name": "_prevID",
          "type": "uint256"
        },
        {
          "internalType": "uint256",
          "name": "_nextID",
          "type": "uint256"
        },
        {
          "internalType": "address",
          "name": "_voter",
          "type": "address"
        },
        {
          "internalType": "uint256",
          "name": "_numTokens",
          "type": "uint256"
        }
      ],
      "name": "validPosition",
      "outputs": [
        {
          "internalType": "bool",
          "name": "APPROVED",
          "type": "bool"
        }
      ],
      "stateMutability": "view",
      "type": "function"
    },
    {
      "inputs": [
        {
          "internalType": "uint256",
          "name": "_numTokens",
          "type": "uint256"
        }
      ],
      "name": "withdrawVotingRights",
      "outputs": [],
      "stateMutability": "nonpayable",
      "type": "function"
    }
  ],
  "bytecode": "0x60806040526802b5e3af16b18800006005819055678ac7230489e80000600655600755603c6008556000600f8190556010819055601880546001600160a01b0319167314f52f3fc010ab6ca81568d4a6794d5eab3c61551790556019819055601a819055601b819055601d553480156200007857600080fd5b5060405162006cdc38038062006cdc8339810160408190526200009b9162000148565b620000af620000a9620000f4565b620000f8565b601e80546001600160a01b0319166001600160a01b0392909216919091178155600060105568056bc75e2d631000006001908155600255602860035560045562000178565b3390565b600080546001600160a01b038381166001600160a01b0319831681178455604051919092169283917f8be0079c531659141344cd1fd0a4f28419497f9722a3daafe3b4186f6b6457e09190a35050565b6000602082840312156200015a578081fd5b81516001600160a01b038116811462000171578182fd5b9392505050565b616b5480620001886000396000f3fe608060405234801561001057600080fd5b50600436106105665760003560e01c80639acb75c1116102ca578063d8b756741161018d578063ed8becfa116100f4578063f716596d116100ad578063fc0c546a11610087578063fc0c546a14610b5d578063fca4956314610b65578063fea44eae14610b78578063ff7d787814610b8b57610566565b8063f716596d14610b3a578063f721de4a14610b42578063f80a23fd14610b5557610566565b8063ed8becfa14610adc578063ef4fcdad14610afc578063f2d9e74d14610b04578063f2fde38b14610b0c578063f5ae7c7d14610b1f578063f60e738114610b2757610566565b8063df05368e11610146578063df05368e14610a75578063e44c974b14610a88578063e7805f9e14610a9b578063e798a7da14610aa3578063e7b1d43c14610ab6578063e8e9b6f914610ac957610566565b8063d8b7567414610a0e578063d901402b14610a21578063d9548e5314610a34578063db687c1714610a47578063dd61868214610a5a578063deadefa714610a6d57610566565b8063b1a2e0be11610231578063c4e4f82a116101ea578063c4e4f82a146109b2578063cb1c2b5c146109c5578063d1382092146109cd578063d420ec0b146109e0578063d822ce01146109f3578063d8645d3714610a0657610566565b8063b1a2e0be14610946578063b1cf4a7e146105c1578063b1d7ea9814610959578063b43bd06914610979578063b8f011b31461098c578063c47c4bc21461099f57610566565b8063a4439dc511610283578063a4439dc5146108f5578063a511dba014610908578063a905779014610910578063aa7ca46414610923578063aacc5a1714610936578063ab43e78d1461093e57610566565b80639acb75c11461088e5780639b07dbb9146108965780639fc9c52f146108a9578063a0e71c15146108bc578063a1103f37146108cf578063a25236fe146108e257610566565b8063515535e81161042d578063796b89b911610394578063821aa8c01161034d5780638c89d027116103275780638c89d027146108385780638da5cb5b146108605780638df0296e14610868578063976035601461087b57610566565b8063821aa8c01461081557806383cc6ef2146108285780638473850b1461083057610566565b8063796b89b9146107ab5780637a34da67146107b35780637f9510a2146107bb5780637f97e836146107c35780637fabe35b146107d6578063819b02931461080257610566565b80636a192ff5116103e65780636a192ff51461073f5780636b1485a3146107625780636b2d95d414610775578063715018a61461078857806371880b1b146107905780637827e549146107a357610566565b8063515535e81461070457806351912f291461070c57806358002158146107145780635fd879091461072757806362b7e9411461072f578063667bf0f81461073757610566565b8063313066ee116104d1578063427fa1d21161048a578063427fa1d21461069d578063441c77c0146106b057806347fe2d20146106c357806348257dc9146106cb57806349403183146106de5780634d884281146106f157610566565b8063313066ee146106575780633538af821461065f578063353f44d014610672578063354dae401461068557806339e7357c1461068d5780633ad2131f1461069557610566565b8063226ed30011610523578063226ed300146105d4578063275c2590146105f457806329a47bc7146105fc5780632c052031146106115780632d917c68146106245780632f469fd11461063757610566565b806304dbcda71461056b578063050eb2eb14610589578063053e71a61461059e5780630e6661a7146105b15780630e670feb146105b95780631b855044146105c1575b600080fd5b610573610b9e565b60405161058091906158e5565b60405180910390f35b61059c6105973660046153ab565b610ba4565b005b6105736105ac366004615712565b610c0e565b610573610c74565b610573610c7a565b6105736105cf3660046157b3565b610c80565b6105e76105e2366004615712565b610cb4565b6040516105809190615a34565b61059c610cf6565b610604610dd6565b6040516105809190615918565b61057361061f3660046153ee565b610de5565b6105e76106323660046153c5565b610f82565b61064a61064536600461573b565b610fa2565b6040516105809190615a3f565b610573611047565b61060461066d366004615712565b61104d565b6105736106803660046153ab565b611077565b61059c611089565b6105736111a0565b6105736111bd565b6105736106ab3660046153ab565b6111c3565b6105e76106be366004615712565b611263565b6105736112bd565b6105e76106d9366004615712565b6112c3565b6105e76106ec366004615712565b6115ea565b61059c6106ff3660046153ab565b6118ff565b610573611960565b610604611966565b61059c610722366004615712565b611975565b6105736119b9565b6105736119bf565b61059c6119c5565b61075261074d366004615712565b611d77565b6040516105809493929190615a7c565b61059c610770366004615712565b611e36565b6105736107833660046153ab565b61268c565b61059c61269b565b61057361079e366004615712565b6126e6565b610573612723565b610573612729565b61060461272d565b61057361273c565b6105e76107d13660046153c5565b612753565b6107e96107e4366004615712565b6127a6565b6040516105809d9c9b9a9998979695949392919061689a565b6105e76108103660046157d4565b61289f565b610604610823366004615712565b6128e0565b6106046128f0565b6105736128ff565b61084b6108463660046153ab565b612905565b6040516105809998979695949392919061592c565b6106046129ed565b6106046108763660046157b3565b6129fc565b61059c610889366004615712565b612a34565b610573612be3565b61059c6108a4366004615766565b612be9565b61059c6108b73660046154b5565b613065565b6105736108ca366004615712565b6130b7565b6105736108dd3660046153c5565b6130db565b61059c6108f0366004615712565b6130f0565b6105e7610903366004615712565b6131f1565b610573613233565b6105e761091e36600461555e565b613239565b6105e76109313660046153c5565b61329f565b6105736132f2565b6106046133a7565b6105e76109543660046153ab565b6133b6565b61096c6109673660046157b3565b613504565b60405161058091906159f0565b6105736109873660046153ee565b61370b565b61096c61099a3660046157b3565b6137f7565b61059c6109ad3660046153ab565b61395f565b6105736109c0366004615712565b6139c0565b6105736139fd565b6105736109db3660046153c5565b613a03565b6105e76109ee3660046153c5565b613a98565b610604610a013660046153c5565b613ab8565b610604613ad4565b610573610a1c36600461573b565b613ae3565b610573610a2f3660046153c5565b613b00565b6105e7610a42366004615712565b613b45565b61059c610a553660046153ab565b613b4a565b61059c610a683660046153ab565b613bab565b610573613c0c565b61059c610a833660046153ab565b613c12565b61096c610a96366004615712565b613c73565b610573613cec565b6105e7610ab13660046153ab565b613cf2565b61059c610ac4366004615712565b613d13565b61059c610ad7366004615712565b613e4f565b610aef610aea366004615712565b613e93565b6040516105809190615990565b6105736142a5565b6105736142ab565b61059c610b1a3660046153ab565b6142b1565b610573614322565b61059c610b35366004615810565b614328565b61059c6145d2565b6105e7610b50366004615712565b614797565b6105e761479f565b6106046147b8565b610573610b733660046153ab565b6147c7565b61059c610b86366004615420565b6148ed565b61059c610b99366004615420565b6149ce565b60055481565b610bac614ac7565b6001600160a01b0316610bbd6129ed565b6001600160a01b031614610bec5760405162461bcd60e51b8152600401610be39061627f565b60405180910390fd5b602180546001600160a01b0319166001600160a01b0392909216919091179055565b6000610c1982610cb4565b610c355760405162461bcd60e51b8152600401610be390615ffa565b610c3e826115ea565b15610c5b57506000818152601c6020526040902060070154610c6f565b506000818152601c60205260409020600801545b919050565b60105481565b60065481565b60008282604051602001610c9592919061590a565b6040516020818303038152906040528051906020012090505b92915050565b6000610cbf82614797565b610cdb5760405162461bcd60e51b8152600401610be390616683565b6000828152601c6020526040902060060154610cae90613b45565b610cfe614acb565b336000908152601160205260409020600781015460ff161515600114610d365760405162461bcd60e51b8152600401610be390615eb7565b6000610d40612729565b9050610d4b33614c53565b8154336001600160a01b031991821681178455600180850180549093169091179091556005830182905560078301805460ff19169055601d8054600090610d939084906169e0565b909155505060405133907f9dadcedba048e92b943ea1c5861cee1df63a566d7f795869c004780c1c698e2b90610dca9084906158e5565b60405180910390a25050565b6020546001600160a01b031681565b600080610df1856111c3565b90506000610dff8683613a03565b90505b8115610f7757610e128683613a03565b9050848111610ecf5783821415610ec7576001600160a01b0386166000908152600d602052604090819020905163215e94cf60e01b815273__$6ffa5bf1f4fa681f07e1987a80577d5f4e$__9163215e94cf91610e749190869060040161590a565b60206040518083038186803b158015610e8c57600080fd5b505af4158015610ea0573d6000803e3d6000fd5b505050506040513d601f19601f82011682018060405250810190610ec4919061572a565b91505b509050610f7b565b6001600160a01b0386166000908152600d602052604090819020905163215e94cf60e01b815273__$6ffa5bf1f4fa681f07e1987a80577d5f4e$__9163215e94cf91610f209190869060040161590a565b60206040518083038186803b158015610f3857600080fd5b505af4158015610f4c573d6000803e3d6000fd5b505050506040513d601f19601f82011682018060405250810190610f70919061572a565b9150610e02565b5090505b9392505050565b600960209081526000928352604080842090915290825290205460ff1681565b600c60209081526000928352604080842090915290825290208054610fc690616a72565b80601f0160208091040260200160405190810160405280929190818152602001828054610ff290616a72565b801561103f5780601f106110145761010080835404028352916020019161103f565b820191906000526020600020905b81548152906001019060200180831161102257829003601f168201915b505050505081565b600f5481565b6015818154811061105d57600080fd5b6000918252602090912001546001600160a01b0316905081565b60136020526000908152604090205481565b601b546000908152601c602052604090206004015460ff166110bd5760405162461bcd60e51b8152600401610be390616720565b601b546000908152601c602052604090206004015462010000900460ff1615156001148015906110ee575060155415155b15611100576110fb6119c5565b611162565b601b546000908152601c602052604090206004015462010000900460ff16151560011480156111525750611135601b54610cb4565b806111525750601b546000908152601c6020526040902060030154155b1561116257611162601b54611e36565b600f54611170906001614dab565b600f8190556040517f94d48a7342690f1233e3f4db70efa37c4f1f25f4d0397c353f3f15aecdeca5f490600090a2565b60405160009080602081848060185afa6111b657fe5b5051919050565b60085481565b6001600160a01b0381166000908152600d6020526040808220905163215e94cf60e01b815273__$6ffa5bf1f4fa681f07e1987a80577d5f4e$__9163215e94cf916112139190859060040161590a565b60206040518083038186803b15801561122b57600080fd5b505af415801561123f573d6000803e3d6000fd5b505050506040513d601f19601f82011682018060405250810190610cae919061572a565b600061126e82614797565b61128a5760405162461bcd60e51b8152600401610be39061643d565b6000828152601c60205260409020600601546112a590613b45565b158015610cae57506112b6826131f1565b1592915050565b601b5490565b6023546000906001600160a01b0316156115ca5781601a541080156113655750602354604051637b90ef2560e11b81526001600160a01b039091169063f721de4a906113139085906004016158e5565b602060405180830381600087803b15801561132d57600080fd5b505af1158015611341573d6000803e3d6000fd5b505050506040513d601f19601f820116820180604052508101906113659190615544565b156115ca57602354604051631b308bf760e31b81526000916001600160a01b03169063d9845fb89061139b9086906004016158e5565b600060405180830381600087803b1580156113b557600080fd5b505af11580156113c9573d6000803e3d6000fd5b505050506040513d6000823e601f3d908101601f191682016040526113f191908101906155be565b610180810151909150600181600381111561141c57634e487b7160e01b600052602160045260246000fd5b14156115c25760408051608081018252610160840151815233602080830191909152428284015260006060830181905260105481526012825292909220815180519293919261146e9284920190615144565b506020820151600182810180546001600160a01b0319166001600160a01b0390931692909217909155604083015160028301556060830151600380840180549293909260ff19169184908111156114d557634e487b7160e01b600052602160045260246000fd5b0217905550506019546000908152601c6020526040902060028101549091506005111561152357600181600201600082825461151191906169e0565b9091555050601054600182015561156f565b60048101805461ff001960ff19909116600117169055611541611089565b60016019600082825461155491906169e0565b90915550506010546019546000908152601c60205260409020555b60105461157d9060016169e0565b60108190556101608401516040517fe72ee44ad0ed1dfc338f7eec797c944eb218773c1edbb4bb653dd9c1e2a62304916115b8913390615a52565b60405180910390a2505b5050601a8290555b6001601d60008282546115dd91906169e0565b9091555060009392505050565b60006115f582610cb4565b6116115760405162461bcd60e51b8152600401610be390615fae565b6000828152601c6020908152604080832081516101e0810183528154815260018201549381019390935260028101549183019190915260038101546060830152600481015460ff808216151560808501526101008083048216151560a08601526201000090920416151560c0840152600582015460e084015260068201549083015260078101546101208301526008810154610140830152600981018054610160840191906116bf90616a72565b80601f01602080910402602001604051908101604052809291908181526020018280546116eb90616a72565b80156117385780601f1061170d57610100808354040283529160200191611738565b820191906000526020600020905b81548152906001019060200180831161171b57829003601f168201915b5050509183525050600a82015460209091019060ff16600381111561176d57634e487b7160e01b600052602160045260246000fd5b600381111561178c57634e487b7160e01b600052602160045260246000fd5b8152602001600b8201805480602002602001604051908101604052809291908181526020016000905b828210156118615783829060005260206000200180546117d490616a72565b80601f016020809104026020016040519081016040528092919081815260200182805461180090616a72565b801561184d5780601f106118225761010080835404028352916020019161184d565b820191906000526020600020905b81548152906001019060200180831161183057829003601f168201915b5050505050815260200190600101906117b5565b505050508152602001600c82018054806020026020016040519081016040528092919081815260200182805480156118b857602002820191906000526020600020905b8154815260200190600101908083116118a4575b50505050508152505090508061014001518161012001516118d991906169e0565b6008546118e69190616a0c565b6101208201516118f7906064616a0c565b119392505050565b611907614ac7565b6001600160a01b03166119186129ed565b6001600160a01b03161461193e5760405162461bcd60e51b8152600401610be39061627f565b601880546001600160a01b0319166001600160a01b0392909216919091179055565b60195490565b6021546001600160a01b031681565b61197d614ac7565b6001600160a01b031661198e6129ed565b6001600160a01b0316146119b45760405162461bcd60e51b8152600401610be39061627f565b600455565b60045481565b60025481565b601b546000908152601c602052604090206004015460ff166119f95760405162461bcd60e51b8152600401610be39061635a565b601b546000908152601c602052604090206004015462010000900460ff1615611a345760405162461bcd60e51b8152600401610be3906161b4565b601554600090611a5d90606490611a4c906014616a0c565b611a5691906169f8565b6001614db7565b601554601b546000908152601c602052604081206003908101849055549293509091611a8a904290614dab565b90506000611aa360045483614dab90919063ffffffff16565b601b80546000908152601c60205260408082206005018690558254825280822060060184905591548152908120600401805462ff0000191662010000179055909150611aef85856137f7565b9050600081516001600160401b03811115611b1a57634e487b7160e01b600052604160045260246000fd5b604051908082528060200260200182016040528015611b43578160200160208202803683370190505b50905060005b8251811015611c02576015838281518110611b7457634e487b7160e01b600052603260045260246000fd5b602002602001015181548110611b9a57634e487b7160e01b600052603260045260246000fd5b9060005260206000200160009054906101000a90046001600160a01b0316828281518110611bd857634e487b7160e01b600052603260045260246000fd5b6001600160a01b039092166020928302919091019091015280611bfa81616aad565b915050611b49565b5060005b8251811015611d56576000828281518110611c3157634e487b7160e01b600052603260045260246000fd5b6020908102919091018101516001600160a01b03811660008181526011845260408082206016805460018181019092557fd833147d7dc355ba459fc788f669e58cfaf9dc25ddcd0702e87d69c7b51242890180546001600160a01b03199081168717909155601b548552601788529284208054918201815584529590922090940180549094169091179092558451909250611cf390859085908110611ce657634e487b7160e01b600052603260045260246000fd5b6020026020010151614c53565b601b8054600283015560038201805460ff19169055546040517fe4ee2dfabe57cee15e3f558890b20455f54c1fa0718e5276faad70a6500e6b8c90611d39908590615918565b60405180910390a250508080611d4e90616aad565b915050611c06565b506001601d6000828254611d6a91906169e0565b9091555050505050505050565b601260205260009081526040902080548190611d9290616a72565b80601f0160208091040260200160405190810160405280929190818152602001828054611dbe90616a72565b8015611e0b5780601f10611de057610100808354040283529160200191611e0b565b820191906000526020600020905b815481529060010190602001808311611dee57829003601f168201915b505050506001830154600284015460039094015492936001600160a01b039091169290915060ff1684565b611e41601b54610cb4565b80611e5e5750601b546000908152601c6020526040902060030154155b611e7a5760405162461bcd60e51b8152600401610be3906162b4565b6000611e85826115ea565b600083815260176020908152604080832080548251818502810185019093528083529495509293909291830182828015611ee857602002820191906000526020600020905b81546001600160a01b03168152600190910190602001808311611eca575b50505050509050600081516001600160401b03811115611f1857634e487b7160e01b600052604160045260246000fd5b604051908082528060200260200182016040528015611f4b57816020015b6060815260200190600190039081611f365790505b50905060005b82518110156122d7576000838281518110611f7c57634e487b7160e01b600052603260045260246000fd5b6020908102919091018101516000888152600b835260408082206001600160a01b03841680845290855281832054600a86528284208c8552865282842054600c875283852092855291909552908220805493955060ff90911692611fdf90616a72565b80601f016020809104026020016040519081016040528092919081815260200182805461200b90616a72565b80156120585780601f1061202d57610100808354040283529160200191612058565b820191906000526020600020905b81548152906001019060200180831161203b57829003601f168201915b505050505090508086868151811061208057634e487b7160e01b600052603260045260246000fd5b602002602001018190525061209484614dce565b6001600160a01b038416600090815260116020526040902082156122a5576001600160a01b0385166000908152601160205260409020600301805460ff191660019081179091558915151480156120eb5750836001145b80612100575088158015612100575083600114155b1561224757602054600754604051630db6cc8560e11b81526001600160a01b0390921691631b6d990a91612138918990600401616866565b602060405180830381600087803b15801561215257600080fd5b505af1158015612166573d6000803e3d6000fd5b505050506040513d601f19601f8201168201806040525081019061218a9190615544565b6121a65760405162461bcd60e51b8152600401610be390616091565b602154600554604051633832942560e21b81526001600160a01b039092169163e0ca5094916121d991899060040161684f565b602060405180830381600087803b1580156121f357600080fd5b505af1158015612207573d6000803e3d6000fd5b505050506040513d601f19601f8201168201806040525081019061222b9190615544565b6122475760405162461bcd60e51b8152600401610be390615e68565b600781015460ff16156122a057601580546001810182556000919091527f55f448fdea98c4d29eb340757ef0a66cd03dbb9538908a6a81d96026b71ec4750180546001600160a01b0319166001600160a01b0387161790555b6122bf565b600781015460ff16156122bf5760078101805460ff191690555b505050505080806122cf90616aad565b915050611f51565b5060006122ed606484516032611a4c9190616a0c565b905060008260008151811061231257634e487b7160e01b600052603260045260246000fd5b6020026020010151905060005b8351811015612408576000805b85518110156123bd5761238d86848151811061235857634e487b7160e01b600052603260045260246000fd5b602002602001015187838151811061238057634e487b7160e01b600052603260045260246000fd5b6020026020010151613239565b156123ab5761239d6001836169e0565b91508482106123ab576123bd565b806123b581616aad565b91505061232c565b508381106123f5578482815181106123e557634e487b7160e01b600052603260045260246000fd5b6020026020010151925050612408565b508061240081616aad565b91505061231f565b5084156125a1576020805460075460008981526012909352604092839020600101549251630db6cc8560e11b81526001600160a01b0392831693631b6d990a936124589392911690600401616866565b602060405180830381600087803b15801561247257600080fd5b505af1158015612486573d6000803e3d6000fd5b505050506040513d601f19601f820116820180604052508101906124aa9190615544565b6124c65760405162461bcd60e51b8152600401610be39061658f565b60215460055460008881526012602052604090819020600101549051633832942560e21b81526001600160a01b039384169363e0ca50949361250f93909291169060040161684f565b602060405180830381600087803b15801561252957600080fd5b505af115801561253d573d6000803e3d6000fd5b505050506040513d601f19601f820116820180604052508101906125619190615544565b61257d5760405162461bcd60e51b8152600401610be3906164a1565b601b546000908152601c60205260409020600a01805460ff191660011790556125c1565b601b546000908152601c60205260409020600a01805460ff191660021790555b601b80546000908152601c60209081526040808320600401805461ff00191661010017905592548252919020825161260192600990920191840190615144565b50601b54612610906001614dab565b601b819055506001601d600082825461262991906169e0565b909155505060008681526012602052604090819020600181015491516001600160a01b03909216917fb83f08cf731092d35d6dd4801ac76e3fcc84b1b199915531c9874230d31adeaa9161267c91615abd565b60405180910390a2505050505050565b6000610cae826109db846111c3565b6126a3614ac7565b6001600160a01b03166126b46129ed565b6001600160a01b0316146126da5760405162461bcd60e51b8152600401610be39061627f565b6126e46000614efe565b565b60006126f182614797565b61270d5760405162461bcd60e51b8152600401610be39061643d565b506000908152601c602052604090206006015490565b60075481565b4290565b6022546001600160a01b031681565b60165460155460009161274e916169e0565b905090565b600061275e82614797565b61277a5760405162461bcd60e51b8152600401610be39061643d565b506001600160a01b03919091166000908152600960209081526040808320938352929052205460ff1690565b601c60205260009081526040902080546001820154600283015460038401546004850154600586015460068701546007880154600889015460098a018054999a98999798969760ff8088169861010089048216986201000090049091169695949392909161281390616a72565b80601f016020809104026020016040519081016040528092919081815260200182805461283f90616a72565b801561288c5780601f106128615761010080835404028352916020019161288c565b820191906000526020600020905b81548152906001019060200180831161286f57829003601f168201915b505050600a909301549192505060ff168d565b6000806128ac8487613a03565b831015905060006128bd8587613a03565b841115806128c9575085155b90508180156128d55750805b979650505050505050565b6016818154811061105d57600080fd5b601f546001600160a01b031681565b60195481565b60116020526000908152604090208054600182015460028301546003840154600485015460058601546006870180546001600160a01b03978816989690971696949560ff909416949293919261295a90616a72565b80601f016020809104026020016040519081016040528092919081815260200182805461298690616a72565b80156129d35780601f106129a8576101008083540402835291602001916129d3565b820191906000526020600020905b8154815290600101906020018083116129b657829003601f168201915b505050506007830154600890930154919260ff1691905089565b6000546001600160a01b031690565b60176020528160005260406000208181548110612a1857600080fd5b6000918252602090912001546001600160a01b03169150829050565b60016000828152601c60205260409020600a015460ff166003811115612a6a57634e487b7160e01b600052602160045260246000fd5b14612a875760405162461bcd60e51b8152600401610be390615b9e565b336000908152600d602052604090819020905163162a54af60e31b815273__$6ffa5bf1f4fa681f07e1987a80577d5f4e$__9163b152a57891612acf9190859060040161590a565b60206040518083038186803b158015612ae757600080fd5b505af4158015612afb573d6000803e3d6000fd5b505050506040513d601f19601f82011682018060405250810190612b1f9190615544565b612b3b5760405162461bcd60e51b8152600401610be3906160de565b336000908152600d6020526040908190209051634dab476560e01b815273__$6ffa5bf1f4fa681f07e1987a80577d5f4e$__91634dab476591612b839190859060040161590a565b60006040518083038186803b158015612b9b57600080fd5b505af4158015612baf573d6000803e3d6000fd5b50506040513392508391507f402507661c8c8cb90e0a796450b8bdd28b6c516f05279c0cd29e84c344e1699a90600090a350565b600f5490565b612bf1614acb565b612bfa836131f1565b612c165760405162461bcd60e51b8152600401610be390615db7565b82612c20336147c7565b14612c3d5760405162461bcd60e51b8152600401610be390616211565b60015433600090815260136020526040902054811115612c7f5733600090815260136020526040812054612c72908390614f4e565b9050612c7d816130f0565b505b33600090815260136020526040902054811115612cae5760405162461bcd60e51b8152600401610be390616532565b6000336000908152600d60205260408082209051631b23afef60e21b815273__$6ffa5bf1f4fa681f07e1987a80577d5f4e$__91636c8ebfbc91612cf79190869060040161590a565b60206040518083038186803b158015612d0f57600080fd5b505af4158015612d23573d6000803e3d6000fd5b505050506040513d601f19601f82011682018060405250810190612d47919061572a565b905085811415612dec57336000908152600d6020526040908190209051631b23afef60e21b815273__$6ffa5bf1f4fa681f07e1987a80577d5f4e$__91636c8ebfbc91612d9991908a9060040161590a565b60206040518083038186803b158015612db157600080fd5b505af4158015612dc5573d6000803e3d6000fd5b505050506040513d601f19601f82011682018060405250810190612de9919061572a565b90505b612df88282338661289f565b612e145760405162461bcd60e51b8152600401610be390616186565b336000908152600d602052604090819020905163f3a1998360e01b815273__$6ffa5bf1f4fa681f07e1987a80577d5f4e$__9163f3a1998391612e60919086908b908790600401616834565b60006040518083038186803b158015612e7857600080fd5b505af4158015612e8c573d6000803e3d6000fd5b505050506000612e9c33886130db565b60408051808201825260098152686e756d546f6b656e7360b81b60208201529051633416d70d60e21b81529192509073__$d865f21674766f31b0d600e4a95b721b57$__9063d05b5c3490612efc90600e90869086908b90600401616789565b60006040518083038186803b158015612f1457600080fd5b505af4158015612f28573d6000803e3d6000fd5b5050604051633416d70d60e21b815273__$d865f21674766f31b0d600e4a95b721b57$__925063d05b5c349150612f6890600e9086908c906004016167d7565b60006040518083038186803b158015612f8057600080fd5b505af4158015612f94573d6000803e3d6000fd5b5050506000898152600c6020908152604080832033845282529091208851612fc193509091890190615144565b50336000908152601160205260409020612fd9612729565b60058201553360009081526009602090815260408083208c84529091528120805460ff19166001908117909155601d8054919290916130199084906169e0565b909155505060405133908a907f1b5c5140592c554fa4c0cdb5b3d3cd50f87aa84e477afd0b6c93d7702ef9c73c90613052908a906158e5565b60405180910390a3505050505050505050565b60005b81518110156130b3576130a182828151811061309457634e487b7160e01b600052603260045260246000fd5b6020026020010151612a34565b806130ab81616aad565b915050613068565b5050565b6000818152601c6020526040812060088101546007909101548291610f7b916169e0565b60008282604051602001610c959291906158c3565b601f546040516304ada21f60e21b81526001600160a01b03909116906312b6887c90613122908490339060040161684f565b602060405180830381600087803b15801561313c57600080fd5b505af1158015613150573d6000803e3d6000fd5b505050506040513d601f19601f820116820180604052508101906131749190615544565b6131905760405162461bcd60e51b8152600401610be390615f02565b33600090815260136020526040812080548392906131af9084906169e0565b909155505060405133907ff7aaf024511d9982df8cd0d437c71c30106e6848cd1ba3d288d7a9c0e276aeda906131e69084906158e5565b60405180910390a250565b60006131fc82614797565b6132185760405162461bcd60e51b8152600401610be39061643d565b6000828152601c60205260409020600501546112b690613b45565b60105490565b60008160405160200161324c91906158ee565b604051602081830303815290604052805190602001208360405160200161327391906158ee565b60405160208183030381529060405280519060200120141561329757506001610cae565b506000610cae565b60006132aa82614797565b6132c65760405162461bcd60e51b8152600401610be39061643d565b506001600160a01b03919091166000908152600a60209081526040808320938352929052205460ff1690565b600080424160405160200161330791906158a6565b6040516020818303038152906040528051906020012060001c61332a91906169f8565b446133336111a0565b60405160200161334391906158e5565b60408051601f19818403018152919052805160209091012061336590426169e0565b61336f91906169e0565b61337991906169e0565b60405160200161338991906158e5565b60408051601f19818403018152919052805160209091012091505090565b6018546001600160a01b031681565b6001600160a01b038082166000908152601160209081526040808320815161012081018352815486168152600182015490951692850192909252600282015490840152600381015460ff161515606084015260048101546080840152600581015460a0840152600681018054929384938493919260c084019161343890616a72565b80601f016020809104026020016040519081016040528092919081815260200182805461346490616a72565b80156134b15780601f10613486576101008083540402835291602001916134b1565b820191906000526020600020905b81548152906001019060200180831161349457829003601f168201915b5050509183525050600782015460ff161515602082015260089091015460409091015260608101519091501580156134f357506134f18160400151610cb4565b155b156134fd57600191505b5092915050565b60606000821161351357600080fd5b60004160405160200161352691906158a6565b6040516020818303038152906040528051906020012060001c6135476111a0565b60405160200161355791906158e5565b60408051601f19818403018152919052805160209091012061357990426169e0565b61358391906169e0565b60405160200161359391906158e5565b6040516020818303038152906040528051906020012060001c90506000846001600160401b038111156135d657634e487b7160e01b600052604160045260246000fd5b6040519080825280602002602001820160405280156135ff578160200160208202803683370190505b5090506000805b868210156137005760008661361f63017efeeb87616a2b565b8360405160200161363192919061590a565b6040516020818303038152906040528051906020012060001c6136549190616ac8565b90506000805b848110156136ac578286828151811061368357634e487b7160e01b600052603260045260246000fd5b6020026020010151141561369a57600191506136ac565b806136a481616aad565b91505061365a565b50806136ec57818585815181106136d357634e487b7160e01b600052603260045260246000fd5b60209081029190910101526136e98460016169e0565b93505b6136f78360016169e0565b92505050613606565b509095945050505050565b600061371683610cb4565b6137325760405162461bcd60e51b8152600401610be3906165dc565b6001600160a01b0384166000908152600a6020908152604080832086845290915290205460ff166137755760405162461bcd60e51b8152600401610be39061613b565b6000613780846115ea565b61378b57600061378e565b60015b60ff169050600081846040516020016137a892919061590a565b60405160208183030381529060405280519060200120905060006137cc8787613b00565b90508082146137ed5760405162461bcd60e51b8152600401610be390616311565b6128d58787613a03565b60606000821180156138095750818311155b8015613816575060018310155b6138325760405162461bcd60e51b8152600401610be390615d6e565b6000826001600160401b0381111561385a57634e487b7160e01b600052604160045260246000fd5b604051908082528060200260200182016040528015613883578160200160208202803683370190505b5090506000846001600160401b038111156138ae57634e487b7160e01b600052604160045260246000fd5b6040519080825280602002602001820160405280156138d7578160200160208202803683370190505b50905060006138ed6138e884614f5a565b614fb0565b905060005b868110156137005781818151811061391a57634e487b7160e01b600052603260045260246000fd5b602002602001015183828151811061394257634e487b7160e01b600052603260045260246000fd5b60209081029190910101528061395781616aad565b9150506138f2565b613967614ac7565b6001600160a01b03166139786129ed565b6001600160a01b03161461399e5760405162461bcd60e51b8152600401610be39061627f565b602280546001600160a01b0319166001600160a01b0392909216919091179055565b60006139cb82614797565b6139e75760405162461bcd60e51b8152600401610be39061643d565b506000908152601c602052604090206005015490565b60015481565b600073__$d865f21674766f31b0d600e4a95b721b57$__6362e02a2a600e613a2b86866130db565b6040518363ffffffff1660e01b8152600401613a48929190616805565b60206040518083038186803b158015613a6057600080fd5b505af4158015613a74573d6000803e3d6000fd5b505050506040513d601f19601f82011682018060405250810190610f7b919061572a565b600a60209081526000928352604080842090915290825290205460ff1681565b60146020528160005260406000208181548110612a1857600080fd5b6023546001600160a01b031681565b600b60209081526000928352604080842090915290825290205481565b600073__$d865f21674766f31b0d600e4a95b721b57$__6362e02a2a600e613b2886866130db565b6040518363ffffffff1660e01b8152600401613a489291906167b9565b421190565b613b52614ac7565b6001600160a01b0316613b636129ed565b6001600160a01b031614613b895760405162461bcd60e51b8152600401610be39061627f565b602380546001600160a01b0319166001600160a01b0392909216919091179055565b613bb3614ac7565b6001600160a01b0316613bc46129ed565b6001600160a01b031614613bea5760405162461bcd60e51b8152600401610be39061627f565b602080546001600160a01b0319166001600160a01b0392909216919091179055565b601a5481565b613c1a614ac7565b6001600160a01b0316613c2b6129ed565b6001600160a01b031614613c515760405162461bcd60e51b8152600401610be39061627f565b601f80546001600160a01b0319166001600160a01b0392909216919091179055565b606060008211613c8257600080fd5b6000826001600160401b03811115613caa57634e487b7160e01b600052604160045260246000fd5b604051908082528060200260200182016040528015613cd3578160200160208202803683370190505b5090506000613ce46138e883614f5a565b949350505050565b60035481565b6001600160a01b031660009081526011602052604090206007015460ff1690565b6000613d37613d213361268c565b3360009081526013602052604090205490614f4e565b905081811015613d595760405162461bcd60e51b8152600401610be3906163f6565b601f54604051630895993360e11b81526001600160a01b039091169063112b326690613d8b908590339060040161684f565b602060405180830381600087803b158015613da557600080fd5b505af1158015613db9573d6000803e3d6000fd5b505050506040513d601f19601f82011682018060405250810190613ddd9190615544565b613df95760405162461bcd60e51b8152600401610be390616626565b3360009081526013602052604081208054849290613e18908490616a2b565b909155505060405133907ffaeb7dbb9992397d26ea1944efd40c80b40f702faf69b46c67ad10aba68ccb7990610dca9085906158e5565b613e57614ac7565b6001600160a01b0316613e686129ed565b6001600160a01b031614613e8e5760405162461bcd60e51b8152600401610be39061627f565b600355565b6060613e9e82614797565b613eba5760405162461bcd60e51b8152600401610be39061643d565b6000828152601c6020908152604080832081516101e0810183528154815260018201549381019390935260028101549183019190915260038101546060830152600481015460ff808216151560808501526101008083048216151560a08601526201000090920416151560c0840152600582015460e08401526006820154908301526007810154610120830152600881015461014083015260098101805461016084019190613f6890616a72565b80601f0160208091040260200160405190810160405280929190818152602001828054613f9490616a72565b8015613fe15780601f10613fb657610100808354040283529160200191613fe1565b820191906000526020600020905b815481529060010190602001808311613fc457829003601f168201915b5050509183525050600a82015460209091019060ff16600381111561401657634e487b7160e01b600052602160045260246000fd5b600381111561403557634e487b7160e01b600052602160045260246000fd5b8152602001600b8201805480602002602001604051908101604052809291908181526020016000905b8282101561410a57838290600052602060002001805461407d90616a72565b80601f01602080910402602001604051908101604052809291908181526020018280546140a990616a72565b80156140f65780601f106140cb576101008083540402835291602001916140f6565b820191906000526020600020905b8154815290600101906020018083116140d957829003601f168201915b50505050508152602001906001019061405e565b505050508152602001600c820180548060200260200160405190810160405280929190818152602001828054801561416157602002820191906000526020600020905b81548152602001906001019080831161414d575b505050919092525050506040818101518151600580825260c0820190935292935091600091816020015b606081526020019060019003908161418b57905050905060005b8281101561429c5783516000906141bd9083906169e0565b6000818152601260205260408120805492935090916141db90616a72565b80601f016020809104026020016040519081016040528092919081815260200182805461420790616a72565b80156142545780601f1061422957610100808354040283529160200191614254565b820191906000526020600020905b81548152906001019060200180831161423757829003601f168201915b505050505090508084848151811061427c57634e487b7160e01b600052603260045260246000fd5b60200260200101819052505050808061429490616aad565b9150506141a5565b50949350505050565b601b5481565b601d5481565b6142b9614ac7565b6001600160a01b03166142ca6129ed565b6001600160a01b0316146142f05760405162461bcd60e51b8152600401610be39061627f565b6001600160a01b0381166143165760405162461bcd60e51b8152600401610be390615d28565b61431f81614efe565b50565b601d5490565b614330614acb565b61433983611263565b6143555760405162461bcd60e51b8152600401610be3906163b0565b33600090815260096020908152604080832086845290915290205460ff1661438f5760405162461bcd60e51b8152600401610be390615f5f565b6143993384613b00565b6143a38383610c80565b146143c05760405162461bcd60e51b8152600401610be390615ca5565b60006143cc3385613a03565b90508260011415614403576000848152601c6020526040812060070180548392906143f89084906169e0565b9091555061442a9050565b6000848152601c6020526040812060080180548392906144249084906169e0565b90915550505b336000908152600d6020526040908190209051634dab476560e01b815273__$6ffa5bf1f4fa681f07e1987a80577d5f4e$__91634dab4765916144729190889060040161590a565b60006040518083038186803b15801561448a57600080fd5b505af415801561449e573d6000803e3d6000fd5b5050336000818152600a602090815260408083208a84528252808320805460ff19166001908117909155600b8352818420948452938252808320899055601182528083208a8452601c909252909120600301549093506144ff925090614f4e565b6000868152601c602052604090206003908101919091558101805460ff1916600117905561452b612729565b600582015561453933614dce565b6000858152601c60205260409020600301546145585761455885611e36565b6001601d600082825461456b91906169e0565b90915550506000858152601c602052604090819020600781015460089091015491513392879289927f2e5fbeef18eaa8d8ea3b0122bc64445c4daaa6f454dfb889456791a92287f378926145c3928992909190616884565b60405180910390a45050505050565b6145da614acb565b3360009081526011602052604090206016546015546103e8916145fc916169e0565b106146195760405162461bcd60e51b8152600401610be3906164f0565b600781015460ff161561463e5760405162461bcd60e51b8152600401610be390615b67565b6000614648612729565b600154336000908152601360205260409020549192509081111561468e5733600090815260136020526040812054614681908390614f4e565b905061468c816130f0565b505b336000908152601360205260409020548111156146bd5760405162461bcd60e51b8152600401610be390616028565b60158054600180820183556000929092527f55f448fdea98c4d29eb340757ef0a66cd03dbb9538908a6a81d96026b71ec475018054336001600160a01b031991821681179092558554811682178655918501805490921617905560058301829055600783015460ff166147405760078301805460ff191660011790554260088401555b6001601d600082825461475391906169e0565b909155505060405133907f439d77b7534ec3108fc6143bd4fbabde0b9f2bb54f7b0730d1f70dd2135b765f9061478a9085906158e5565b60405180910390a2505050565b601954101590565b3360009081526011602052604090206007015460ff1690565b601e546001600160a01b031681565b6001600160a01b038082166000908152601160209081526040808320815161012081018352815486168152600182015490951692850192909252600282015490840152600381015460ff161515606084015260048101546080840152600581015460a08401526006810180549293849390929160c084019161484890616a72565b80601f016020809104026020016040519081016040528092919081815260200182805461487490616a72565b80156148c15780601f10614896576101008083540402835291602001916148c1565b820191906000526020600020905b8154815290600101906020018083116148a457829003601f168201915b5050509183525050600782015460ff161515602082015260089091015460409182015201519392505050565b84831461490c5760405162461bcd60e51b8152600401610be390615dee565b84811461492b5760405162461bcd60e51b8152600401610be3906166ac565b60005b858110156149c5576149b387878381811061495957634e487b7160e01b600052603260045260246000fd5b9050602002013586868481811061498057634e487b7160e01b600052603260045260246000fd5b905060200201358585858181106149a757634e487b7160e01b600052603260045260246000fd5b90506020020135614328565b806149bd81616aad565b91505061492e565b50505050505050565b8483146149ed5760405162461bcd60e51b8152600401610be390615c34565b60005b858110156149c557614ab5878783818110614a1b57634e487b7160e01b600052603260045260246000fd5b90506020020135868684818110614a4257634e487b7160e01b600052603260045260246000fd5b90506020020135858585818110614a6957634e487b7160e01b600052603260045260246000fd5b9050602002810190614a7b919061691d565b8080601f016020809104026020016040519081016040528093929190818152602001838380828437600092019190915250612be992505050565b80614abf81616aad565b9150506149f0565b3390565b6018546001600160a01b0316614af35760405162461bcd60e51b8152600401610be390616474565b6018546040516000916001600160a01b031690614b14903390602401615918565b60408051601f198184030181529181526020820180516001600160e01b0316631f5ac9c560e11b17905251614b4991906158ee565b6000604051808303816000865af19150503d8060008114614b86576040519150601f19603f3d011682016040523d82523d6000602084013e614b8b565b606091505b50506018546040519192506000916001600160a01b0390911690614bb3903390602401615918565b60408051601f198184030181529181526020820180516001600160e01b03166358563d2160e01b17905251614be891906158ee565b6000604051808303816000865af19150503d8060008114614c25576040519150601f19603f3d011682016040523d82523d6000602084013e614c2a565b606091505b505090508180614c375750805b6130b35760405162461bcd60e51b8152600401610be390615bef565b60008060005b601554811015614cc757836001600160a01b031660158281548110614c8e57634e487b7160e01b600052603260045260246000fd5b6000918252602090912001546001600160a01b03161415614cb55760019150809250614cc7565b80614cbf81616aad565b915050614c59565b508015614da65760158054614cde90600190616a2b565b81548110614cfc57634e487b7160e01b600052603260045260246000fd5b600091825260209091200154601580546001600160a01b039092169184908110614d3657634e487b7160e01b600052603260045260246000fd5b9060005260206000200160006101000a8154816001600160a01b0302191690836001600160a01b031602179055506015805480614d8357634e487b7160e01b600052603160045260246000fd5b600082815260209020810160001990810180546001600160a01b03191690550190555b505050565b6000610f7b82846169e0565b600081831015614dc75781610f7b565b5090919050565b60008060005b601654811015614e4257836001600160a01b031660168281548110614e0957634e487b7160e01b600052603260045260246000fd5b6000918252602090912001546001600160a01b03161415614e305760019150809250614e42565b80614e3a81616aad565b915050614dd4565b508015614da65760168054614e5990600190616a2b565b81548110614e7757634e487b7160e01b600052603260045260246000fd5b600091825260209091200154601680546001600160a01b039092169184908110614eb157634e487b7160e01b600052603260045260246000fd5b9060005260206000200160006101000a8154816001600160a01b0302191690836001600160a01b031602179055506016805480614d8357634e487b7160e01b600052603160045260246000fd5b600080546001600160a01b038381166001600160a01b0319831681178455604051919092169283917f8be0079c531659141344cd1fd0a4f28419497f9722a3daafe3b4186f6b6457e09190a35050565b6000610f7b8284616a2b565b805160609060005b81811015614fa85780848281518110614f8b57634e487b7160e01b600052603260045260246000fd5b602090810291909101015280614fa081616aad565b915050614f62565b509192915050565b60606000825111614fc057600080fd5b81518060005b8181101561513b57600083614fd96132f2565b878481518110614ff957634e487b7160e01b600052603260045260246000fd5b602002602001015160405160200161501292919061590a565b6040516020818303038152906040528051906020012060001c6150359190616ac8565b6150409060016169e0565b9050600086615050600184616a2b565b8151811061506e57634e487b7160e01b600052603260045260246000fd5b60200260200101519050866001866150869190616a2b565b815181106150a457634e487b7160e01b600052603260045260246000fd5b6020026020010151876001846150ba9190616a2b565b815181106150d857634e487b7160e01b600052603260045260246000fd5b602090810291909101015280876150f0600188616a2b565b8151811061510e57634e487b7160e01b600052603260045260246000fd5b6020908102919091010152615124600186616a2b565b94505050808061513390616aad565b915050614fc6565b50929392505050565b82805461515090616a72565b90600052602060002090601f01602090048101928261517257600085556151b8565b82601f1061518b57805160ff19168380011785556151b8565b828001600101855582156151b8579182015b828111156151b857825182559160200191906001019061519d565b506151c49291506151c8565b5090565b5b808211156151c457600081556001016151c9565b80356001600160a01b0381168114610c6f57600080fd5b60008083601f840112615205578182fd5b5081356001600160401b0381111561521b578182fd5b602083019150836020808302850101111561523557600080fd5b9250929050565b600082601f83011261524c578081fd5b8151602061526161525c8361698a565b616961565b82815281810190858301855b8581101561529657615284898684518b0101615368565b8452928401929084019060010161526d565b5090979650505050505050565b600082601f8301126152b3578081fd5b815160206152c361525c8361698a565b82815281810190858301838502870184018810156152df578586fd5b855b85811015615296578151845292840192908401906001016152e1565b80518015158114610c6f57600080fd5b805160048110610c6f57600080fd5b600082601f83011261532c578081fd5b813561533a61525c826169ad565b81815284602083860101111561534e578283fd5b816020850160208301379081016020019190915292915050565b600082601f830112615378578081fd5b815161538661525c826169ad565b81815284602083860101111561539a578283fd5b613ce4826020830160208701616a42565b6000602082840312156153bc578081fd5b610f7b826151dd565b600080604083850312156153d7578081fd5b6153e0836151dd565b946020939093013593505050565b600080600060608486031215615402578081fd5b61540b846151dd565b95602085013595506040909401359392505050565b60008060008060008060608789031215615438578384fd5b86356001600160401b038082111561544e578586fd5b61545a8a838b016151f4565b90985096506020890135915080821115615472578586fd5b61547e8a838b016151f4565b90965094506040890135915080821115615496578384fd5b506154a389828a016151f4565b979a9699509497509295939492505050565b600060208083850312156154c7578182fd5b82356001600160401b038111156154dc578283fd5b8301601f810185136154ec578283fd5b80356154fa61525c8261698a565b8181528381019083850185840285018601891015615516578687fd5b8694505b8385101561553857803583526001949094019391850191850161551a565b50979650505050505050565b600060208284031215615555578081fd5b610f7b826152fd565b60008060408385031215615570578182fd5b82356001600160401b0380821115615586578384fd5b6155928683870161531c565b935060208501359150808211156155a7578283fd5b506155b48582860161531c565b9150509250929050565b6000602082840312156155cf578081fd5b81516001600160401b03808211156155e5578283fd5b81840191506101e08083870312156155fb578384fd5b61560481616961565b905082518152602083015160208201526040830151604082015260608301516060820152615634608084016152fd565b608082015261564560a084016152fd565b60a082015261565660c084016152fd565b60c082015260e083810151908201526101008084015190820152610120808401519082015261014080840151908201526101608084015183811115615699578586fd5b6156a588828701615368565b8284015250506101806156b981850161530d565b908201526101a083810151838111156156d0578586fd5b6156dc8882870161523c565b8284015250506101c080840151838111156156f5578586fd5b615701888287016152a3565b918301919091525095945050505050565b600060208284031215615723578081fd5b5035919050565b6000602082840312156111b6578081fd5b6000806040838503121561574d578182fd5b8235915061575d602084016151dd565b90509250929050565b60008060006060848603121561577a578081fd5b833592506020840135915060408401356001600160401b0381111561579d578182fd5b6157a98682870161531c565b9150509250925092565b600080604083850312156157c5578182fd5b50508035926020909101359150565b600080600080608085870312156157e9578182fd5b8435935060208501359250615800604086016151dd565b9396929550929360600135925050565b600080600060608486031215615824578081fd5b505081359360208301359350604090920135919050565b6004811061585957634e487b7160e01b600052602160045260246000fd5b9052565b60008151808452615875816020860160208601616a42565b601f01601f19169290920160200192915050565b600a8152690c6dedadad2e890c2e6d60b31b602082015260400190565b60609190911b6bffffffffffffffffffffffff1916815260140190565b60609290921b6bffffffffffffffffffffffff19168252601482015260340190565b90815260200190565b60008251615900818460208701616a42565b9190910192915050565b918252602082015260400190565b6001600160a01b0391909116815260200190565b6001600160a01b038a81168252891660208201526040810188905286151560608201526080810186905260a0810185905261012060c082018190526000906159768382018761585d565b94151560e084015250506101000152979650505050505050565b6000602080830181845280855180835260408601915060408482028701019250838701855b828110156159e357603f198886030184526159d185835161585d565b945092850192908501906001016159b5565b5092979650505050505050565b6020808252825182820181905260009190848201906040850190845b81811015615a2857835183529284019291840191600101615a0c565b50909695505050505050565b901515815260200190565b600060208252610f7b602083018461585d565b600060408252615a65604083018561585d565b905060018060a01b03831660208301529392505050565b600060808252615a8f608083018761585d565b6001600160a01b0386166020840152604083018590529050615ab4606083018461583b565b95945050505050565b6000602080835281845483600282049050600180831680615adf57607f831692505b858310811415615afd57634e487b7160e01b87526022600452602487fd5b615b0983878a016158e5565b818015615b1d5760018114615b2e57615b58565b60ff19861682528782019650615b58565b615b378b6169d4565b895b86811015615b5257815484820152908501908901615b39565b83019750505b50949998505050505050505050565b6020808252601c908201527f576f726b657220697320616c7265616479207265676973746572656400000000604082015260600190565b60208082526031908201527f676976656e204461746142617463682073686f756c6420626520415050524f5660408201527011510b08185b99081a5d081a5cc81b9bdd607a1b606082015260800190565b60208082526025908201527f72656365697665722072656a6563746564205f7265747269657665534675656c6040820152640818d85b1b60da1b606082015260800190565b6020808252604b908201527f4572726f72207768656e20636f6d6d6974466f726d6174436865636b733a205f60408201527f4461746142617463684944732e6c656e677468203d3d205f736563726574486160608201526a0e6d0cae65cd8cadccee8d60ab1b608082015260a00190565b6020808252605c908201527f4e6f74207468652073616d6520766f7465207468616e2077686174207761732060408201527f636f6d6d697465642c20696d706f737369626c6520746f206d6174636820776960608201527f746820676976656e205f73616c742026205f766f74654f7074696f6e00000000608082015260a00190565b60208082526026908201527f4f776e61626c653a206e6577206f776e657220697320746865207a65726f206160408201526564647265737360d01b606082015260800190565b60208082526029908201527f6b206f72204e20617265206e6f74204f4b20647572696e672072616e646f6d2060408201526839b2b632b1ba34b7b760b91b606082015260800190565b6020808252601e908201527f636f6d6d697420706572696f64206e6565647320746f206265206f70656e0000604082015260600190565b60208082526054908201527f4572726f722072657665616c466f726d6174436865636b733a205f446174614260408201527f617463684944732e6c656e67746820616e64205f766f74654f7074696f6e732e6060820152731b195b99dd1a081b5d5cdd08189948195c5d585b60621b608082015260a00190565b6020808252602f908201527f636f756c64206e6f742072657761726420746f6b656e20696e2054726967676560408201526e3921b432b1b5a9b837ba161018973160891b606082015260800190565b6020808252602b908201527f576f726b6572206973206e6f7420617661696c61626c6520736f2063616e277460408201526a103ab73932b3b4b9ba32b960a91b606082015260800190565b6020808252603d908201527f436f756c64206e6f74207265717565737420656e6f75676820616c6c6f63617460408201527f6564207374616b652c2072657175657374566f74696e67526967687473000000606082015260800190565b6020808252602f908201527f5573657220686173206e6f7420636f6d6d69746564206265666f72652c20746860408201526e1d5cc818d85b89dd081c995d99585b608a1b606082015260800190565b6020808252602c908201527f4461746120426174636820436865636b696e6720636f6d6d69746565206d757360408201526b1d081a185d9948195b99195960a21b606082015260800190565b60208082526014908201527311185d18481b5d5cdd081a185d9948195b99195960621b604082015260600190565b60208082526043908201527f576f726b657220686173206e6f7420656e6f75676820285f6e756d546f6b656e60408201527f732920696e2068697320466f726d61745374616b6564546f6b656e42616c616e606082015262031b2960ed1b608082015260a00190565b6020808252602d908201527f636f756c64206e6f74207265776172642052455020696e20547269676765724360408201526c6865636b53706f742c20312e6160981b606082015260800190565b60208082526039908201527f646c6c4d61703a20646f6573206e6f7420636f696e7461696e205f446174614260408201527f61746368496420666f7220746865206d73672073656e64657200000000000000606082015260800190565b6020808252602b908201527f75736572206d75737420686176652072657665616c656420696e20746869732060408201526a0ced2eccadc4084c2e8c6d60ab1b606082015260800190565b6020808252601490820152733737ba1030903b30b634b2103837b9b4ba34b7b760611b604082015260600190565b6020808252603b908201527f43616e277420616c6c6f6361746520776f726b2c207468652063757272656e7460408201527f20626174636820697320616c726561647920616c6c6f63617465640000000000606082015260800190565b60208082526048908201527f55736572206e6565647320746f2068617665206265656e20616c6c6f6361746560408201527f64207468652063757272656e74206461746120626174636820746f20636f6d6d6060820152671a5d081bdb881a5d60c21b608082015260a00190565b6020808252818101527f4f776e61626c653a2063616c6c6572206973206e6f7420746865206f776e6572604082015260600190565b6020808252603a908201527f5f446174614261746368496420686173206e6f7420656e6465642c206f72206e60408201527f6f7420657665727920766f74657273206861766520766f746564000000000000606082015260800190565b60208082526029908201527f6765744e756d50617373696e67546f6b656e733a20686173686573206d75737460408201526808189948195c5d585b60ba1b606082015260800190565b60208082526036908201527f43616e277420616c6c6f6361746520776f726b2c207468652063757272656e74604082015275206261746368206973206e6f7420636f6d706c65746560501b606082015260800190565b60208082526026908201527f52657665616c20706572696f64206e6f74206f70656e20666f7220746869732060408201526511185d18525160d21b606082015260800190565b60208082526027908201527f617661696c61626c65546f6b656e732073686f756c64206265203e3d205f6e756040820152666d546f6b656e7360c81b606082015260800190565b60208082526017908201527f5f4461746142617463684964206d757374206578697374000000000000000000604082015260600190565b6020808252601390820152720c081059191c995cdcc8139bdd0815985b1a59606a1b604082015260600190565b6020808252602f908201527f636f756c64206e6f742072657761726420746f6b656e20696e2054726967676560408201526e3921b432b1b5a9b837ba161019173160891b606082015260800190565b60208082526022908201527f4d6178696d756d207265676973746572656420776f726b65727320616c726561604082015261647960f01b606082015260800190565b60208082526037908201527f75736572206d757374206861766520656e6f75676820766f74696e672072696760408201527f68747320616b6120616c6c6f6361746564207374616b65000000000000000000606082015260800190565b6020808252602d908201527f636f756c64206e6f74207265776172642052455020696e20547269676765724360408201526c6865636b53706f742c20322e6160981b606082015260800190565b6020808252602a908201527f5f446174614261746368496420636865636b696e6720766f7465206d757374206040820152691a185d9948195b99195960b21b606082015260800190565b6020808252603b908201527f436f756c64206e6f74207769746864726177566f74696e67526967687473207460408201527f68726f7567682050726f78795374616b654465616c6c6f636174650000000000606082015260800190565b6020808252600f908201526e11185d18481b5d5cdd08195e1a5cdd608a1b604082015260600190565b6020808252604e908201527f4572726f722072657665616c466f726d6174436865636b733a205f446174614260408201527f617463684944732e6c656e67746820616e64205f73616c74732e6c656e67746860608201526d081b5d5cdd08189948195c5d585b60921b608082015260a00190565b60208082526043908201527f6c61737420626174636820746f20636865636b206d75737420626520636f6d7060408201527f6c65746520746f2070726f6365656420696e20547269676765724e65787445706060820152620dec6d60eb1b608082015260a00190565b6000858252846020830152608060408301526167a8608083018561585d565b905082606083015295945050505050565b600083825282602083015260606040830152613ce460608301615889565b6000848252836020830152608060408301526167f560808301615889565b9050826060830152949350505050565b9182526020820152606060408201819052600990820152686e756d546f6b656e7360b81b608082015260a00190565b93845260208401929092526040830152606082015260800190565b9182526001600160a01b0316602082015260400190565b9182526001600160a01b031660208201526000604082015260600190565b9283526020830191909152604082015260600190565b60006101a08f83528e60208401528d60408401528c60608401528b151560808401528a151560a084015289151560c08401528860e0840152876101008401528661012084015285610140840152806101608401526168fa8184018661585d565b91505061690b61018083018461583b565b9e9d5050505050505050505050505050565b6000808335601e19843603018112616933578283fd5b8301803591506001600160401b0382111561694c578283fd5b60200191503681900382131561523557600080fd5b6040518181016001600160401b038111828210171561698257616982616b08565b604052919050565b60006001600160401b038211156169a3576169a3616b08565b5060209081020190565b60006001600160401b038211156169c6576169c6616b08565b50601f01601f191660200190565b60009081526020902090565b600082198211156169f3576169f3616adc565b500190565b600082616a0757616a07616af2565b500490565b6000816000190483118215151615616a2657616a26616adc565b500290565b600082821015616a3d57616a3d616adc565b500390565b60005b83811015616a5d578181015183820152602001616a45565b83811115616a6c576000848401525b50505050565b600281046001821680616a8657607f821691505b60208210811415616aa757634e487b7160e01b600052602260045260246000fd5b50919050565b6000600019821415616ac157616ac1616adc565b5060010190565b600082616ad757616ad7616af2565b500690565b634e487b7160e01b600052601160045260246000fd5b634e487b7160e01b600052601260045260246000fd5b634e487b7160e01b600052604160045260246000fdfea2646970667358221220db58cf34f1bdeb29f6dd845ad84d1b42dc73a7b2dc5ba8cad1529d1cd3dcf01664736f6c63430008000033",
  "linkReferences": {
    "contracts/worksystems/DataFormatting.sol": {
      "AttributeStore2": [
        {
          "length": 20,
          "start": 12373
        },
        {
          "length": 20,
          "start": 12481
        },
        {
          "length": 20,
          "start": 15247
        },
        {
          "length": 20,
          "start": 15500
        }
      ],
      "DLL2": [
        {
          "length": 20,
          "start": 4051
        },
        {
          "length": 20,
          "start": 4223
        },
        {
          "length": 20,
          "start": 4978
        },
        {
          "length": 20,
          "start": 11310
        },
        {
          "length": 20,
          "start": 11490
        },
        {
          "length": 20,
          "start": 11862
        },
        {
          "length": 20,
          "start": 12024
        },
        {
          "length": 20,
          "start": 12219
        },
        {
          "length": 20,
          "start": 17873
        }
      ]
    }
  },
  "deployedLinkReferences": {
    "contracts/worksystems/DataFormatting.sol": {
      "AttributeStore2": [
        {
          "length": 20,
          "start": 11981
        },
        {
          "length": 20,
          "start": 12089
        },
        {
          "length": 20,
          "start": 14855
        },
        {
          "length": 20,
          "start": 15108
        }
      ],
      "DLL2": [
        {
          "length": 20,
          "start": 3659
        },
        {
          "length": 20,
          "start": 3831
        },
        {
          "length": 20,
          "start": 4586
        },
        {
          "length": 20,
          "start": 10918
        },
        {
          "length": 20,
          "start": 11098
        },
        {
          "length": 20,
          "start": 11470
        },
        {
          "length": 20,
          "start": 11632
        },
        {
          "length": 20,
          "start": 11827
        },
        {
          "length": 20,
          "start": 17481
        }
      ]
    }
  }
}