{
  "_format": "hh-sol-artifact-1",
  "contractName": "RandomAllocator",
  "sourceName": "contracts/worksystems/RandomAllocator.sol",
  "abi": [
    {
      "inputs": [],
      "name": "getRandom",
      "outputs": [
        {
          "internalType": "uint256",
          "name": "",
          "type": "uint256"
        }
      ],
      "stateMutability": "view",
      "type": "function"
    },
    {
      "inputs": [],
      "name": "getSeed",
      "outputs": [
        {
          "internalType": "bytes32",
          "name": "addr",
          "type": "bytes32"
        }
      ],
      "stateMutability": "view",
      "type": "function"
    },
    {
      "inputs": [
        {
          "internalType": "uint256",
          "name": "k",
          "type": "uint256"
        },
        {
          "internalType": "uint256",
          "name": "N",
          "type": "uint256"
        }
      ],
      "name": "random_selection",
      "outputs": [
        {
          "internalType": "uint256[]",
          "name": "",
          "type": "uint256[]"
        }
      ],
      "stateMutability": "view",
      "type": "function"
    },
    {
      "inputs": [
        {
          "internalType": "uint256",
          "name": "N",
          "type": "uint256"
        }
      ],
      "name": "shuffle_array",
      "outputs": [
        {
          "internalType": "uint256[]",
          "name": "",
          "type": "uint256[]"
        }
      ],
      "stateMutability": "view",
      "type": "function"
    }
  ],
  "bytecode": "0x608060405234801561001057600080fd5b5061069a806100206000396000f3fe608060405234801561001057600080fd5b506004361061004c5760003560e01c806339e7357c14610051578063aacc5a171461006c578063b8f011b314610074578063e44c974b14610094575b600080fd5b6100596100a7565b6040519081526020015b60405180910390f35b6100596100c4565b61008761008236600461051b565b61018d565b604051610063919061053d565b6100876100a2366004610581565b610310565b60405160009080602081848060185afa6100bd57fe5b5051919050565b6040516bffffffffffffffffffffffff194160601b166020820152600090819042906034016040516020818303038152906040528051906020012060001c61010c91906105c6565b446101156100a7565b60405160200161012791815260200190565b60408051601f19818403018152919052805160209091012061014990426105da565b61015391906105da565b61015d91906105da565b60405160200161016f91815260200190565b60408051601f19818403018152919052805160209091012092915050565b606060008211801561019f5750818311155b80156101ac575060018310155b61020e5760405162461bcd60e51b815260206004820152602960248201527f6b206f72204e20617265206e6f74204f4b20647572696e672072616e646f6d2060448201526839b2b632b1ba34b7b760b91b606482015260840160405180910390fd5b60008267ffffffffffffffff811115610229576102296105f2565b604051908082528060200260200182016040528015610252578160200160208202803683370190505b50905060008467ffffffffffffffff811115610270576102706105f2565b604051908082528060200260200182016040528015610299578160200160208202803683370190505b50905060006102af6102aa8461037c565b6103c4565b905060005b86811015610305578181815181106102ce576102ce610608565b60200260200101518382815181106102e8576102e8610608565b6020908102919091010152806102fd8161061e565b9150506102b4565b509095945050505050565b60606000821161031f57600080fd5b60008267ffffffffffffffff81111561033a5761033a6105f2565b604051908082528060200260200182016040528015610363578160200160208202803683370190505b50905060006103746102aa8361037c565b949350505050565b805160609060005b818110156103bc578084828151811061039f5761039f610608565b6020908102919091010152806103b48161061e565b915050610384565b509192915050565b606060008251116103d457600080fd5b81518060005b81811015610512576000836103ed6100c4565b8784815181106103ff576103ff610608565b6020026020010151604051602001610421929190918252602082015260400190565b6040516020818303038152906040528051906020012060001c6104449190610639565b61044f9060016105da565b905060008661045f60018461064d565b8151811061046f5761046f610608565b6020026020010151905086600186610487919061064d565b8151811061049757610497610608565b6020026020010151876001846104ad919061064d565b815181106104bd576104bd610608565b602090810291909101015280876104d560018861064d565b815181106104e5576104e5610608565b60209081029190910101526104fb60018661064d565b94505050808061050a9061061e565b9150506103da565b50929392505050565b6000806040838503121561052e57600080fd5b50508035926020909101359150565b6020808252825182820181905260009190848201906040850190845b8181101561057557835183529284019291840191600101610559565b50909695505050505050565b60006020828403121561059357600080fd5b5035919050565b634e487b7160e01b600052601260045260246000fd5b634e487b7160e01b600052601160045260246000fd5b6000826105d5576105d561059a565b500490565b600082198211156105ed576105ed6105b0565b500190565b634e487b7160e01b600052604160045260246000fd5b634e487b7160e01b600052603260045260246000fd5b6000600019821415610632576106326105b0565b5060010190565b6000826106485761064861059a565b500690565b60008282101561065f5761065f6105b0565b50039056fea26469706673582212208c9c87ab48e1668ea302a81196e67ff907651516bbd3ccb18c2b986735b1e88e64736f6c63430008080033",
  "linkReferences": {},
  "deployedLinkReferences": {}
}