{
  "_format": "hh-sol-artifact-1",
  "contractName": "RandomAllocator",
  "sourceName": "contracts/worksystems/RandomAllocator.sol",
  "abi": [
    {
      "inputs": [],
      "name": "getRandom",
      "outputs": [
        {
          "internalType": "uint256",
          "name": "",
          "type": "uint256"
        }
      ],
      "stateMutability": "view",
      "type": "function"
    },
    {
      "inputs": [],
      "name": "getSeed",
      "outputs": [
        {
          "internalType": "bytes32",
          "name": "addr",
          "type": "bytes32"
        }
      ],
      "stateMutability": "view",
      "type": "function"
    },
    {
      "inputs": [
        {
          "internalType": "uint256",
          "name": "k",
          "type": "uint256"
        },
        {
          "internalType": "uint256",
          "name": "N",
          "type": "uint256"
        }
      ],
      "name": "random_selection",
      "outputs": [
        {
          "internalType": "uint256[]",
          "name": "",
          "type": "uint256[]"
        }
      ],
      "stateMutability": "view",
      "type": "function"
    },
    {
      "inputs": [
        {
          "internalType": "uint256",
          "name": "N",
          "type": "uint256"
        }
      ],
      "name": "shuffle_array",
      "outputs": [
        {
          "internalType": "uint256[]",
          "name": "",
          "type": "uint256[]"
        }
      ],
      "stateMutability": "view",
      "type": "function"
    }
  ],
  "bytecode": "0x608060405234801561001057600080fd5b50610642806100206000396000f3fe608060405234801561001057600080fd5b506004361061004c5760003560e01c806339e7357c14610051578063aacc5a171461006c578063b8f011b314610074578063e44c974b14610094575b600080fd5b6100596100a7565b6040519081526020015b60405180910390f35b6100596100c4565b6100876100823660046104c3565b61018d565b60405161006391906104e5565b6100876100a2366004610529565b6102b8565b60405160009080602081848060185afa6100bd57fe5b5051919050565b6040516bffffffffffffffffffffffff194160601b166020820152600090819042906034016040516020818303038152906040528051906020012060001c61010c919061056e565b446101156100a7565b60405160200161012791815260200190565b60408051601f1981840301815291905280516020909101206101499042610582565b6101539190610582565b61015d9190610582565b60405160200161016f91815260200190565b60408051601f19818403018152919052805160209091012092915050565b60606001821161019c57600080fd5b8183111580156101ad575060018310155b6101b657600080fd5b60008267ffffffffffffffff8111156101d1576101d161059a565b6040519080825280602002602001820160405280156101fa578160200160208202803683370190505b50905060008467ffffffffffffffff8111156102185761021861059a565b604051908082528060200260200182016040528015610241578160200160208202803683370190505b509050600061025761025284610324565b61036c565b905060005b868110156102ad57818181518110610276576102766105b0565b6020026020010151838281518110610290576102906105b0565b6020908102919091010152806102a5816105c6565b91505061025c565b509095945050505050565b6060600182116102c757600080fd5b60008267ffffffffffffffff8111156102e2576102e261059a565b60405190808252806020026020018201604052801561030b578160200160208202803683370190505b509050600061031c61025283610324565b949350505050565b805160609060005b818110156103645780848281518110610347576103476105b0565b60209081029190910101528061035c816105c6565b91505061032c565b509192915050565b6060600082511161037c57600080fd5b81518060005b818110156104ba576000836103956100c4565b8784815181106103a7576103a76105b0565b60200260200101516040516020016103c9929190918252602082015260400190565b6040516020818303038152906040528051906020012060001c6103ec91906105e1565b6103f7906001610582565b90506000866104076001846105f5565b81518110610417576104176105b0565b602002602001015190508660018661042f91906105f5565b8151811061043f5761043f6105b0565b60200260200101518760018461045591906105f5565b81518110610465576104656105b0565b6020908102919091010152808761047d6001886105f5565b8151811061048d5761048d6105b0565b60209081029190910101526104a36001866105f5565b9450505080806104b2906105c6565b915050610382565b50929392505050565b600080604083850312156104d657600080fd5b50508035926020909101359150565b6020808252825182820181905260009190848201906040850190845b8181101561051d57835183529284019291840191600101610501565b50909695505050505050565b60006020828403121561053b57600080fd5b5035919050565b634e487b7160e01b600052601260045260246000fd5b634e487b7160e01b600052601160045260246000fd5b60008261057d5761057d610542565b500490565b6000821982111561059557610595610558565b500190565b634e487b7160e01b600052604160045260246000fd5b634e487b7160e01b600052603260045260246000fd5b60006000198214156105da576105da610558565b5060010190565b6000826105f0576105f0610542565b500690565b60008282101561060757610607610558565b50039056fea264697066735822122068149e99b6047972110d20d6b46dc62e38220e22efa26e957eb82440ba56a59264736f6c63430008080033",
  "linkReferences": {},
  "deployedLinkReferences": {}
}